{
	"contract/tokenvesting.sol": {
		"TokenVesting": {
			"abi": [
				{
					"inputs": [
						{
							"internalType": "address",
							"name": "_token",
							"type": "address"
						}
					],
					"stateMutability": "nonpayable",
					"type": "constructor"
				},
				{
					"anonymous": false,
					"inputs": [
						{
							"indexed": true,
							"internalType": "address",
							"name": "previousOwner",
							"type": "address"
						},
						{
							"indexed": true,
							"internalType": "address",
							"name": "newOwner",
							"type": "address"
						}
					],
					"name": "OwnershipTransferred",
					"type": "event"
				},
				{
					"anonymous": false,
					"inputs": [
						{
							"components": [
								{
									"internalType": "address",
									"name": "beneficiary",
									"type": "address"
								},
								{
									"internalType": "uint256",
									"name": "startTime",
									"type": "uint256"
								},
								{
									"internalType": "uint256",
									"name": "duration",
									"type": "uint256"
								},
								{
									"internalType": "uint256",
									"name": "releaseSchedule",
									"type": "uint256"
								},
								{
									"internalType": "uint256",
									"name": "amount",
									"type": "uint256"
								},
								{
									"internalType": "uint256",
									"name": "tokensReleased",
									"type": "uint256"
								},
								{
									"internalType": "bool",
									"name": "isValid",
									"type": "bool"
								}
							],
							"indexed": false,
							"internalType": "struct TokenVesting.vestingScheme",
							"name": "",
							"type": "tuple"
						}
					],
					"name": "VestingSchemeCreation",
					"type": "event"
				},
				{
					"stateMutability": "payable",
					"type": "fallback"
				},
				{
					"inputs": [
						{
							"internalType": "address",
							"name": "_beneficiary",
							"type": "address"
						},
						{
							"internalType": "uint256",
							"name": "_startTime",
							"type": "uint256"
						},
						{
							"internalType": "uint256",
							"name": "_duration",
							"type": "uint256"
						},
						{
							"internalType": "uint256",
							"name": "_releaseSchedule",
							"type": "uint256"
						},
						{
							"internalType": "uint256",
							"name": "_amount",
							"type": "uint256"
						}
					],
					"name": "createVestingScheme",
					"outputs": [],
					"stateMutability": "nonpayable",
					"type": "function"
				},
				{
					"inputs": [],
					"name": "getBeneficiarySchemeCountLimit",
					"outputs": [
						{
							"internalType": "uint256",
							"name": "",
							"type": "uint256"
						}
					],
					"stateMutability": "view",
					"type": "function"
				},
				{
					"inputs": [],
					"name": "getSchemeCount",
					"outputs": [
						{
							"internalType": "uint256",
							"name": "",
							"type": "uint256"
						}
					],
					"stateMutability": "view",
					"type": "function"
				},
				{
					"inputs": [],
					"name": "getSchemeCountLimit",
					"outputs": [
						{
							"internalType": "uint256",
							"name": "",
							"type": "uint256"
						}
					],
					"stateMutability": "view",
					"type": "function"
				},
				{
					"inputs": [
						{
							"internalType": "address",
							"name": "_beneficiary",
							"type": "address"
						}
					],
					"name": "getSchemeIdsByBeneficiary",
					"outputs": [
						{
							"internalType": "uint256[]",
							"name": "",
							"type": "uint256[]"
						}
					],
					"stateMutability": "view",
					"type": "function"
				},
				{
					"inputs": [
						{
							"internalType": "uint256",
							"name": "_schemeId",
							"type": "uint256"
						}
					],
					"name": "getUnvestedAmountById",
					"outputs": [
						{
							"internalType": "uint256",
							"name": "",
							"type": "uint256"
						}
					],
					"stateMutability": "view",
					"type": "function"
				},
				{
					"inputs": [
						{
							"internalType": "uint256",
							"name": "_schemeId",
							"type": "uint256"
						}
					],
					"name": "getVestingSchemeById",
					"outputs": [
						{
							"components": [
								{
									"internalType": "address",
									"name": "beneficiary",
									"type": "address"
								},
								{
									"internalType": "uint256",
									"name": "startTime",
									"type": "uint256"
								},
								{
									"internalType": "uint256",
									"name": "duration",
									"type": "uint256"
								},
								{
									"internalType": "uint256",
									"name": "releaseSchedule",
									"type": "uint256"
								},
								{
									"internalType": "uint256",
									"name": "amount",
									"type": "uint256"
								},
								{
									"internalType": "uint256",
									"name": "tokensReleased",
									"type": "uint256"
								},
								{
									"internalType": "bool",
									"name": "isValid",
									"type": "bool"
								}
							],
							"internalType": "struct TokenVesting.vestingScheme",
							"name": "",
							"type": "tuple"
						}
					],
					"stateMutability": "view",
					"type": "function"
				},
				{
					"inputs": [],
					"name": "owner",
					"outputs": [
						{
							"internalType": "address",
							"name": "",
							"type": "address"
						}
					],
					"stateMutability": "view",
					"type": "function"
				},
				{
					"inputs": [
						{
							"internalType": "uint256",
							"name": "_schemeId",
							"type": "uint256"
						},
						{
							"internalType": "uint256",
							"name": "_amount",
							"type": "uint256"
						}
					],
					"name": "releaseTokens",
					"outputs": [],
					"stateMutability": "nonpayable",
					"type": "function"
				},
				{
					"inputs": [],
					"name": "renounceOwnership",
					"outputs": [],
					"stateMutability": "nonpayable",
					"type": "function"
				},
				{
					"inputs": [
						{
							"internalType": "uint256",
							"name": "_beneficiarySchemeCountLimit",
							"type": "uint256"
						}
					],
					"name": "setBeneficiarySchemeCountLimit",
					"outputs": [],
					"stateMutability": "nonpayable",
					"type": "function"
				},
				{
					"inputs": [
						{
							"internalType": "uint256",
							"name": "_schemeCountLimit",
							"type": "uint256"
						}
					],
					"name": "setSchemeCountLimit",
					"outputs": [],
					"stateMutability": "nonpayable",
					"type": "function"
				},
				{
					"inputs": [
						{
							"internalType": "address",
							"name": "newOwner",
							"type": "address"
						}
					],
					"name": "transferOwnership",
					"outputs": [],
					"stateMutability": "nonpayable",
					"type": "function"
				},
				{
					"stateMutability": "payable",
					"type": "receive"
				}
			],
			"devdoc": {
				"kind": "dev",
				"methods": {
					"owner()": {
						"details": "Returns the address of the current owner."
					},
					"renounceOwnership()": {
						"details": "Leaves the contract without owner. It will not be possible to call `onlyOwner` functions anymore. Can only be called by the current owner. NOTE: Renouncing ownership will leave the contract without an owner, thereby removing any functionality that is only available to the owner."
					},
					"transferOwnership(address)": {
						"details": "Transfers ownership of the contract to a new account (`newOwner`). Can only be called by the current owner."
					}
				},
				"version": 1
			},
			"evm": {
				"assembly": "    /* \"contract/tokenvesting.sol\":416:5897  contract TokenVesting is Ownable {\r... */\n  mstore(0x40, 0x80)\n    /* \"contract/tokenvesting.sol\":1196:1365  constructor (address _token) notZeroAddress (_token) {\r... */\n  callvalue\n  dup1\n  iszero\n  tag_1\n  jumpi\n  0x00\n  dup1\n  revert\ntag_1:\n  pop\n  mload(0x40)\n  sub(codesize, bytecodeSize)\n  dup1\n  bytecodeSize\n  dup4\n  codecopy\n  dup2\n  dup2\n  add\n  0x40\n  mstore\n  dup2\n  add\n  swap1\n  tag_2\n  swap2\n  swap1\n  tag_3\n  jump\t// in\ntag_2:\n    /* \"https://github.com/OpenZeppelin/openzeppelin-contracts/blob/master/contracts/access/Ownable.sol\":921:953  _transferOwnership(_msgSender()) */\n  tag_7\n    /* \"https://github.com/OpenZeppelin/openzeppelin-contracts/blob/master/contracts/access/Ownable.sol\":940:952  _msgSender() */\n  tag_8\n    /* \"https://github.com/OpenZeppelin/openzeppelin-contracts/blob/master/contracts/access/Ownable.sol\":940:950  _msgSender */\n  shl(0x20, tag_9)\n    /* \"https://github.com/OpenZeppelin/openzeppelin-contracts/blob/master/contracts/access/Ownable.sol\":940:952  _msgSender() */\n  0x20\n  shr\n  jump\t// in\ntag_8:\n    /* \"https://github.com/OpenZeppelin/openzeppelin-contracts/blob/master/contracts/access/Ownable.sol\":921:939  _transferOwnership */\n  shl(0x20, tag_10)\n    /* \"https://github.com/OpenZeppelin/openzeppelin-contracts/blob/master/contracts/access/Ownable.sol\":921:953  _transferOwnership(_msgSender()) */\n  0x20\n  shr\n  jump\t// in\ntag_7:\n    /* \"contract/tokenvesting.sol\":1241:1247  _token */\n  dup1\n    /* \"contract/tokenvesting.sol\":1165:1166  0 */\n  0x00\n    /* \"contract/tokenvesting.sol\":1147:1167  _token != address(0) */\n  0xffffffffffffffffffffffffffffffffffffffff\n  and\n    /* \"contract/tokenvesting.sol\":1147:1153  _token */\n  dup2\n    /* \"contract/tokenvesting.sol\":1147:1167  _token != address(0) */\n  0xffffffffffffffffffffffffffffffffffffffff\n  and\n  eq\n  iszero\n    /* \"contract/tokenvesting.sol\":1138:1168  require (_token != address(0)) */\n  tag_12\n  jumpi\n  0x00\n  dup1\n  revert\ntag_12:\n    /* \"contract/tokenvesting.sol\":1276:1282  _token */\n  dup2\n    /* \"contract/tokenvesting.sol\":1260:1265  token */\n  0x01\n  0x00\n    /* \"contract/tokenvesting.sol\":1260:1283  token = IERC20 (_token) */\n  0x0100\n  exp\n  dup2\n  sload\n  dup2\n  0xffffffffffffffffffffffffffffffffffffffff\n  mul\n  not\n  and\n  swap1\n  dup4\n  0xffffffffffffffffffffffffffffffffffffffff\n  and\n  mul\n  or\n  swap1\n  sstore\n  pop\n    /* \"contract/tokenvesting.sol\":1313:1315  10 */\n  0x0a\n    /* \"contract/tokenvesting.sol\":1294:1310  schemeCountLimit */\n  0x02\n    /* \"contract/tokenvesting.sol\":1294:1315  schemeCountLimit = 10 */\n  dup2\n  swap1\n  sstore\n  pop\n    /* \"contract/tokenvesting.sol\":1356:1357  1 */\n  0x01\n    /* \"contract/tokenvesting.sol\":1326:1353  beneficiarySchemeCountLimit */\n  0x05\n    /* \"contract/tokenvesting.sol\":1326:1357  beneficiarySchemeCountLimit = 1 */\n  dup2\n  swap1\n  sstore\n  pop\n    /* \"contract/tokenvesting.sol\":1196:1365  constructor (address _token) notZeroAddress (_token) {\r... */\n  pop\n  pop\n    /* \"contract/tokenvesting.sol\":416:5897  contract TokenVesting is Ownable {\r... */\n  jump(tag_14)\n    /* \"https://github.com/OpenZeppelin/openzeppelin-contracts/blob/master/contracts/utils/Context.sol\":640:736  function _msgSender() internal view virtual returns (address) {... */\ntag_9:\n    /* \"https://github.com/OpenZeppelin/openzeppelin-contracts/blob/master/contracts/utils/Context.sol\":693:700  address */\n  0x00\n    /* \"https://github.com/OpenZeppelin/openzeppelin-contracts/blob/master/contracts/utils/Context.sol\":719:729  msg.sender */\n  caller\n    /* \"https://github.com/OpenZeppelin/openzeppelin-contracts/blob/master/contracts/utils/Context.sol\":712:729  return msg.sender */\n  swap1\n  pop\n    /* \"https://github.com/OpenZeppelin/openzeppelin-contracts/blob/master/contracts/utils/Context.sol\":640:736  function _msgSender() internal view virtual returns (address) {... */\n  swap1\n  jump\t// out\n    /* \"https://github.com/OpenZeppelin/openzeppelin-contracts/blob/master/contracts/access/Ownable.sol\":2270:2457  function _transferOwnership(address newOwner) internal virtual {... */\ntag_10:\n    /* \"https://github.com/OpenZeppelin/openzeppelin-contracts/blob/master/contracts/access/Ownable.sol\":2343:2359  address oldOwner */\n  0x00\n    /* \"https://github.com/OpenZeppelin/openzeppelin-contracts/blob/master/contracts/access/Ownable.sol\":2362:2368  _owner */\n  dup1\n  0x00\n  swap1\n  sload\n  swap1\n  0x0100\n  exp\n  swap1\n  div\n  0xffffffffffffffffffffffffffffffffffffffff\n  and\n    /* \"https://github.com/OpenZeppelin/openzeppelin-contracts/blob/master/contracts/access/Ownable.sol\":2343:2368  address oldOwner = _owner */\n  swap1\n  pop\n    /* \"https://github.com/OpenZeppelin/openzeppelin-contracts/blob/master/contracts/access/Ownable.sol\":2387:2395  newOwner */\n  dup2\n    /* \"https://github.com/OpenZeppelin/openzeppelin-contracts/blob/master/contracts/access/Ownable.sol\":2378:2384  _owner */\n  0x00\n  dup1\n    /* \"https://github.com/OpenZeppelin/openzeppelin-contracts/blob/master/contracts/access/Ownable.sol\":2378:2395  _owner = newOwner */\n  0x0100\n  exp\n  dup2\n  sload\n  dup2\n  0xffffffffffffffffffffffffffffffffffffffff\n  mul\n  not\n  and\n  swap1\n  dup4\n  0xffffffffffffffffffffffffffffffffffffffff\n  and\n  mul\n  or\n  swap1\n  sstore\n  pop\n    /* \"https://github.com/OpenZeppelin/openzeppelin-contracts/blob/master/contracts/access/Ownable.sol\":2441:2449  newOwner */\n  dup2\n    /* \"https://github.com/OpenZeppelin/openzeppelin-contracts/blob/master/contracts/access/Ownable.sol\":2410:2450  OwnershipTransferred(oldOwner, newOwner) */\n  0xffffffffffffffffffffffffffffffffffffffff\n  and\n    /* \"https://github.com/OpenZeppelin/openzeppelin-contracts/blob/master/contracts/access/Ownable.sol\":2431:2439  oldOwner */\n  dup2\n    /* \"https://github.com/OpenZeppelin/openzeppelin-contracts/blob/master/contracts/access/Ownable.sol\":2410:2450  OwnershipTransferred(oldOwner, newOwner) */\n  0xffffffffffffffffffffffffffffffffffffffff\n  and\n  0x8be0079c531659141344cd1fd0a4f28419497f9722a3daafe3b4186f6b6457e0\n  mload(0x40)\n  mload(0x40)\n  dup1\n  swap2\n  sub\n  swap1\n  log3\n    /* \"https://github.com/OpenZeppelin/openzeppelin-contracts/blob/master/contracts/access/Ownable.sol\":2270:2457  function _transferOwnership(address newOwner) internal virtual {... */\n  pop\n  pop\n  jump\t// out\n    /* \"#utility.yul\":7:150   */\ntag_18:\n  0x00\n    /* \"#utility.yul\":95:101   */\n  dup2\n    /* \"#utility.yul\":89:102   */\n  mload\n    /* \"#utility.yul\":80:102   */\n  swap1\n  pop\n    /* \"#utility.yul\":111:144   */\n  tag_20\n    /* \"#utility.yul\":138:143   */\n  dup2\n    /* \"#utility.yul\":111:144   */\n  tag_21\n  jump\t// in\ntag_20:\n    /* \"#utility.yul\":70:150   */\n  swap3\n  swap2\n  pop\n  pop\n  jump\t// out\n    /* \"#utility.yul\":156:440   */\ntag_3:\n  0x00\n    /* \"#utility.yul\":275:277   */\n  0x20\n    /* \"#utility.yul\":263:272   */\n  dup3\n    /* \"#utility.yul\":254:261   */\n  dup5\n    /* \"#utility.yul\":250:273   */\n  sub\n    /* \"#utility.yul\":246:278   */\n  slt\n    /* \"#utility.yul\":243:245   */\n  iszero\n  tag_23\n  jumpi\n    /* \"#utility.yul\":291:292   */\n  0x00\n    /* \"#utility.yul\":288:289   */\n  dup1\n    /* \"#utility.yul\":281:293   */\n  revert\n    /* \"#utility.yul\":243:245   */\ntag_23:\n    /* \"#utility.yul\":334:335   */\n  0x00\n    /* \"#utility.yul\":359:423   */\n  tag_24\n    /* \"#utility.yul\":415:422   */\n  dup5\n    /* \"#utility.yul\":406:412   */\n  dup3\n    /* \"#utility.yul\":395:404   */\n  dup6\n    /* \"#utility.yul\":391:413   */\n  add\n    /* \"#utility.yul\":359:423   */\n  tag_18\n  jump\t// in\ntag_24:\n    /* \"#utility.yul\":349:423   */\n  swap2\n  pop\n    /* \"#utility.yul\":305:433   */\n  pop\n    /* \"#utility.yul\":233:440   */\n  swap3\n  swap2\n  pop\n  pop\n  jump\t// out\n    /* \"#utility.yul\":446:542   */\ntag_25:\n  0x00\n    /* \"#utility.yul\":512:536   */\n  tag_27\n    /* \"#utility.yul\":530:535   */\n  dup3\n    /* \"#utility.yul\":512:536   */\n  tag_28\n  jump\t// in\ntag_27:\n    /* \"#utility.yul\":501:536   */\n  swap1\n  pop\n    /* \"#utility.yul\":491:542   */\n  swap2\n  swap1\n  pop\n  jump\t// out\n    /* \"#utility.yul\":548:674   */\ntag_28:\n  0x00\n    /* \"#utility.yul\":625:667   */\n  0xffffffffffffffffffffffffffffffffffffffff\n    /* \"#utility.yul\":618:623   */\n  dup3\n    /* \"#utility.yul\":614:668   */\n  and\n    /* \"#utility.yul\":603:668   */\n  swap1\n  pop\n    /* \"#utility.yul\":593:674   */\n  swap2\n  swap1\n  pop\n  jump\t// out\n    /* \"#utility.yul\":680:802   */\ntag_21:\n    /* \"#utility.yul\":753:777   */\n  tag_31\n    /* \"#utility.yul\":771:776   */\n  dup2\n    /* \"#utility.yul\":753:777   */\n  tag_25\n  jump\t// in\ntag_31:\n    /* \"#utility.yul\":746:751   */\n  dup2\n    /* \"#utility.yul\":743:778   */\n  eq\n    /* \"#utility.yul\":733:735   */\n  tag_32\n  jumpi\n    /* \"#utility.yul\":792:793   */\n  0x00\n    /* \"#utility.yul\":789:790   */\n  dup1\n    /* \"#utility.yul\":782:794   */\n  revert\n    /* \"#utility.yul\":733:735   */\ntag_32:\n    /* \"#utility.yul\":723:802   */\n  pop\n  jump\t// out\n    /* \"contract/tokenvesting.sol\":416:5897  contract TokenVesting is Ownable {\r... */\ntag_14:\n  dataSize(sub_0)\n  dup1\n  dataOffset(sub_0)\n  0x00\n  codecopy\n  0x00\n  return\nstop\n\nsub_0: assembly {\n        /* \"contract/tokenvesting.sol\":416:5897  contract TokenVesting is Ownable {\r... */\n      mstore(0x40, 0x80)\n      jumpi(tag_1, lt(calldatasize, 0x04))\n      shr(0xe0, calldataload(0x00))\n      dup1\n      0x78651b42\n      gt\n      tag_16\n      jumpi\n      dup1\n      0x9c42ad76\n      gt\n      tag_17\n      jumpi\n      dup1\n      0x9c42ad76\n      eq\n      tag_12\n      jumpi\n      dup1\n      0xc93a7f6e\n      eq\n      tag_13\n      jumpi\n      dup1\n      0xdecb4abc\n      eq\n      tag_14\n      jumpi\n      dup1\n      0xf2fde38b\n      eq\n      tag_15\n      jumpi\n      jump(tag_2)\n    tag_17:\n      dup1\n      0x78651b42\n      eq\n      tag_9\n      jumpi\n      dup1\n      0x8446464e\n      eq\n      tag_10\n      jumpi\n      dup1\n      0x8da5cb5b\n      eq\n      tag_11\n      jumpi\n      jump(tag_2)\n    tag_16:\n      dup1\n      0x110809c7\n      eq\n      tag_3\n      jumpi\n      dup1\n      0x11e1512d\n      eq\n      tag_4\n      jumpi\n      dup1\n      0x1a360f35\n      eq\n      tag_5\n      jumpi\n      dup1\n      0x3cfde549\n      eq\n      tag_6\n      jumpi\n      dup1\n      0x3f4dd268\n      eq\n      tag_7\n      jumpi\n      dup1\n      0x715018a6\n      eq\n      tag_8\n      jumpi\n      jump(tag_2)\n    tag_1:\n      jumpi(tag_2, calldatasize)\n      stop\n    tag_2:\n      stop\n        /* \"contract/tokenvesting.sol\":2644:2769  function setSchemeCountLimit (uint _schemeCountLimit) public onlyOwner{\r... */\n    tag_3:\n      callvalue\n      dup1\n      iszero\n      tag_22\n      jumpi\n      0x00\n      dup1\n      revert\n    tag_22:\n      pop\n      tag_23\n      0x04\n      dup1\n      calldatasize\n      sub\n      dup2\n      add\n      swap1\n      tag_24\n      swap2\n      swap1\n      tag_25\n      jump\t// in\n    tag_24:\n      tag_26\n      jump\t// in\n    tag_23:\n      stop\n        /* \"contract/tokenvesting.sol\":2777:2947  function setBeneficiarySchemeCountLimit (uint _beneficiarySchemeCountLimit) public onlyOwner {\r... */\n    tag_4:\n      callvalue\n      dup1\n      iszero\n      tag_27\n      jumpi\n      0x00\n      dup1\n      revert\n    tag_27:\n      pop\n      tag_28\n      0x04\n      dup1\n      calldatasize\n      sub\n      dup2\n      add\n      swap1\n      tag_29\n      swap2\n      swap1\n      tag_25\n      jump\t// in\n    tag_29:\n      tag_30\n      jump\t// in\n    tag_28:\n      stop\n        /* \"contract/tokenvesting.sol\":2425:2531  function getSchemeCountLimit () external view returns (uint256) {\r... */\n    tag_5:\n      callvalue\n      dup1\n      iszero\n      tag_31\n      jumpi\n      0x00\n      dup1\n      revert\n    tag_31:\n      pop\n      tag_32\n      tag_33\n      jump\t// in\n    tag_32:\n      mload(0x40)\n      tag_34\n      swap2\n      swap1\n      tag_35\n      jump\t// in\n    tag_34:\n      mload(0x40)\n      dup1\n      swap2\n      sub\n      swap1\n      return\n        /* \"contract/tokenvesting.sol\":1869:2028  function getSchemeIdsByBeneficiary (address _beneficiary) external view returns (uint256[] memory) {\r... */\n    tag_6:\n      callvalue\n      dup1\n      iszero\n      tag_36\n      jumpi\n      0x00\n      dup1\n      revert\n    tag_36:\n      pop\n      tag_37\n      0x04\n      dup1\n      calldatasize\n      sub\n      dup2\n      add\n      swap1\n      tag_38\n      swap2\n      swap1\n      tag_39\n      jump\t// in\n    tag_38:\n      tag_40\n      jump\t// in\n    tag_37:\n      mload(0x40)\n      tag_41\n      swap2\n      swap1\n      tag_42\n      jump\t// in\n    tag_41:\n      mload(0x40)\n      dup1\n      swap2\n      sub\n      swap1\n      return\n        /* \"contract/tokenvesting.sol\":4082:4766  function releaseTokens (\r... */\n    tag_7:\n      callvalue\n      dup1\n      iszero\n      tag_43\n      jumpi\n      0x00\n      dup1\n      revert\n    tag_43:\n      pop\n      tag_44\n      0x04\n      dup1\n      calldatasize\n      sub\n      dup2\n      add\n      swap1\n      tag_45\n      swap2\n      swap1\n      tag_46\n      jump\t// in\n    tag_45:\n      tag_47\n      jump\t// in\n    tag_44:\n      stop\n        /* \"https://github.com/OpenZeppelin/openzeppelin-contracts/blob/master/contracts/access/Ownable.sol\":1668:1769  function renounceOwnership() public virtual onlyOwner {... */\n    tag_8:\n      callvalue\n      dup1\n      iszero\n      tag_48\n      jumpi\n      0x00\n      dup1\n      revert\n    tag_48:\n      pop\n      tag_49\n      tag_50\n      jump\t// in\n    tag_49:\n      stop\n        /* \"contract/tokenvesting.sol\":2539:2635  function getSchemeCount () external view returns (uint256) {\r... */\n    tag_9:\n      callvalue\n      dup1\n      iszero\n      tag_51\n      jumpi\n      0x00\n      dup1\n      revert\n    tag_51:\n      pop\n      tag_52\n      tag_53\n      jump\t// in\n    tag_52:\n      mload(0x40)\n      tag_54\n      swap2\n      swap1\n      tag_35\n      jump\t// in\n    tag_54:\n      mload(0x40)\n      dup1\n      swap2\n      sub\n      swap1\n      return\n        /* \"contract/tokenvesting.sol\":2955:4074  function createVestingScheme (\r... */\n    tag_10:\n      callvalue\n      dup1\n      iszero\n      tag_55\n      jumpi\n      0x00\n      dup1\n      revert\n    tag_55:\n      pop\n      tag_56\n      0x04\n      dup1\n      calldatasize\n      sub\n      dup2\n      add\n      swap1\n      tag_57\n      swap2\n      swap1\n      tag_58\n      jump\t// in\n    tag_57:\n      tag_59\n      jump\t// in\n    tag_56:\n      stop\n        /* \"https://github.com/OpenZeppelin/openzeppelin-contracts/blob/master/contracts/access/Ownable.sol\":1036:1121  function owner() public view virtual returns (address) {... */\n    tag_11:\n      callvalue\n      dup1\n      iszero\n      tag_60\n      jumpi\n      0x00\n      dup1\n      revert\n    tag_60:\n      pop\n      tag_61\n      tag_62\n      jump\t// in\n    tag_61:\n      mload(0x40)\n      tag_63\n      swap2\n      swap1\n      tag_64\n      jump\t// in\n    tag_63:\n      mload(0x40)\n      dup1\n      swap2\n      sub\n      swap1\n      return\n        /* \"contract/tokenvesting.sol\":2036:2417  function getUnvestedAmountById (uint256 _schemeId) external view returns (uint256) {\r... */\n    tag_12:\n      callvalue\n      dup1\n      iszero\n      tag_65\n      jumpi\n      0x00\n      dup1\n      revert\n    tag_65:\n      pop\n      tag_66\n      0x04\n      dup1\n      calldatasize\n      sub\n      dup2\n      add\n      swap1\n      tag_67\n      swap2\n      swap1\n      tag_25\n      jump\t// in\n    tag_67:\n      tag_68\n      jump\t// in\n    tag_66:\n      mload(0x40)\n      tag_69\n      swap2\n      swap1\n      tag_35\n      jump\t// in\n    tag_69:\n      mload(0x40)\n      dup1\n      swap2\n      sub\n      swap1\n      return\n        /* \"contract/tokenvesting.sol\":1733:1861  function getBeneficiarySchemeCountLimit () external view returns (uint256) {\r... */\n    tag_13:\n      callvalue\n      dup1\n      iszero\n      tag_70\n      jumpi\n      0x00\n      dup1\n      revert\n    tag_70:\n      pop\n      tag_71\n      tag_72\n      jump\t// in\n    tag_71:\n      mload(0x40)\n      tag_73\n      swap2\n      swap1\n      tag_35\n      jump\t// in\n    tag_73:\n      mload(0x40)\n      dup1\n      swap2\n      sub\n      swap1\n      return\n        /* \"contract/tokenvesting.sol\":1448:1725  function getVestingSchemeById (uint _schemeId) \r... */\n    tag_14:\n      callvalue\n      dup1\n      iszero\n      tag_74\n      jumpi\n      0x00\n      dup1\n      revert\n    tag_74:\n      pop\n      tag_75\n      0x04\n      dup1\n      calldatasize\n      sub\n      dup2\n      add\n      swap1\n      tag_76\n      swap2\n      swap1\n      tag_25\n      jump\t// in\n    tag_76:\n      tag_77\n      jump\t// in\n    tag_75:\n      mload(0x40)\n      tag_78\n      swap2\n      swap1\n      tag_79\n      jump\t// in\n    tag_78:\n      mload(0x40)\n      dup1\n      swap2\n      sub\n      swap1\n      return\n        /* \"https://github.com/OpenZeppelin/openzeppelin-contracts/blob/master/contracts/access/Ownable.sol\":1918:2116  function transferOwnership(address newOwner) public virtual onlyOwner {... */\n    tag_15:\n      callvalue\n      dup1\n      iszero\n      tag_80\n      jumpi\n      0x00\n      dup1\n      revert\n    tag_80:\n      pop\n      tag_81\n      0x04\n      dup1\n      calldatasize\n      sub\n      dup2\n      add\n      swap1\n      tag_82\n      swap2\n      swap1\n      tag_39\n      jump\t// in\n    tag_82:\n      tag_83\n      jump\t// in\n    tag_81:\n      stop\n        /* \"contract/tokenvesting.sol\":2644:2769  function setSchemeCountLimit (uint _schemeCountLimit) public onlyOwner{\r... */\n    tag_26:\n        /* \"https://github.com/OpenZeppelin/openzeppelin-contracts/blob/master/contracts/access/Ownable.sol\":1259:1271  _msgSender() */\n      tag_85\n        /* \"https://github.com/OpenZeppelin/openzeppelin-contracts/blob/master/contracts/access/Ownable.sol\":1259:1269  _msgSender */\n      tag_86\n        /* \"https://github.com/OpenZeppelin/openzeppelin-contracts/blob/master/contracts/access/Ownable.sol\":1259:1271  _msgSender() */\n      jump\t// in\n    tag_85:\n        /* \"https://github.com/OpenZeppelin/openzeppelin-contracts/blob/master/contracts/access/Ownable.sol\":1248:1271  owner() == _msgSender() */\n      0xffffffffffffffffffffffffffffffffffffffff\n      and\n        /* \"https://github.com/OpenZeppelin/openzeppelin-contracts/blob/master/contracts/access/Ownable.sol\":1248:1255  owner() */\n      tag_87\n        /* \"https://github.com/OpenZeppelin/openzeppelin-contracts/blob/master/contracts/access/Ownable.sol\":1248:1253  owner */\n      tag_62\n        /* \"https://github.com/OpenZeppelin/openzeppelin-contracts/blob/master/contracts/access/Ownable.sol\":1248:1255  owner() */\n      jump\t// in\n    tag_87:\n        /* \"https://github.com/OpenZeppelin/openzeppelin-contracts/blob/master/contracts/access/Ownable.sol\":1248:1271  owner() == _msgSender() */\n      0xffffffffffffffffffffffffffffffffffffffff\n      and\n      eq\n        /* \"https://github.com/OpenZeppelin/openzeppelin-contracts/blob/master/contracts/access/Ownable.sol\":1240:1308  require(owner() == _msgSender(), \"Ownable: caller is not the owner\") */\n      tag_88\n      jumpi\n      mload(0x40)\n      0x08c379a000000000000000000000000000000000000000000000000000000000\n      dup2\n      mstore\n      0x04\n      add\n      tag_89\n      swap1\n      tag_90\n      jump\t// in\n    tag_89:\n      mload(0x40)\n      dup1\n      swap2\n      sub\n      swap1\n      revert\n    tag_88:\n        /* \"contract/tokenvesting.sol\":2744:2761  _schemeCountLimit */\n      dup1\n        /* \"contract/tokenvesting.sol\":2725:2741  schemeCountLimit */\n      0x02\n        /* \"contract/tokenvesting.sol\":2725:2761  schemeCountLimit = _schemeCountLimit */\n      dup2\n      swap1\n      sstore\n      pop\n        /* \"contract/tokenvesting.sol\":2644:2769  function setSchemeCountLimit (uint _schemeCountLimit) public onlyOwner{\r... */\n      pop\n      jump\t// out\n        /* \"contract/tokenvesting.sol\":2777:2947  function setBeneficiarySchemeCountLimit (uint _beneficiarySchemeCountLimit) public onlyOwner {\r... */\n    tag_30:\n        /* \"https://github.com/OpenZeppelin/openzeppelin-contracts/blob/master/contracts/access/Ownable.sol\":1259:1271  _msgSender() */\n      tag_93\n        /* \"https://github.com/OpenZeppelin/openzeppelin-contracts/blob/master/contracts/access/Ownable.sol\":1259:1269  _msgSender */\n      tag_86\n        /* \"https://github.com/OpenZeppelin/openzeppelin-contracts/blob/master/contracts/access/Ownable.sol\":1259:1271  _msgSender() */\n      jump\t// in\n    tag_93:\n        /* \"https://github.com/OpenZeppelin/openzeppelin-contracts/blob/master/contracts/access/Ownable.sol\":1248:1271  owner() == _msgSender() */\n      0xffffffffffffffffffffffffffffffffffffffff\n      and\n        /* \"https://github.com/OpenZeppelin/openzeppelin-contracts/blob/master/contracts/access/Ownable.sol\":1248:1255  owner() */\n      tag_94\n        /* \"https://github.com/OpenZeppelin/openzeppelin-contracts/blob/master/contracts/access/Ownable.sol\":1248:1253  owner */\n      tag_62\n        /* \"https://github.com/OpenZeppelin/openzeppelin-contracts/blob/master/contracts/access/Ownable.sol\":1248:1255  owner() */\n      jump\t// in\n    tag_94:\n        /* \"https://github.com/OpenZeppelin/openzeppelin-contracts/blob/master/contracts/access/Ownable.sol\":1248:1271  owner() == _msgSender() */\n      0xffffffffffffffffffffffffffffffffffffffff\n      and\n      eq\n        /* \"https://github.com/OpenZeppelin/openzeppelin-contracts/blob/master/contracts/access/Ownable.sol\":1240:1308  require(owner() == _msgSender(), \"Ownable: caller is not the owner\") */\n      tag_95\n      jumpi\n      mload(0x40)\n      0x08c379a000000000000000000000000000000000000000000000000000000000\n      dup2\n      mstore\n      0x04\n      add\n      tag_96\n      swap1\n      tag_90\n      jump\t// in\n    tag_96:\n      mload(0x40)\n      dup1\n      swap2\n      sub\n      swap1\n      revert\n    tag_95:\n        /* \"contract/tokenvesting.sol\":2911:2939  _beneficiarySchemeCountLimit */\n      dup1\n        /* \"contract/tokenvesting.sol\":2881:2908  beneficiarySchemeCountLimit */\n      0x05\n        /* \"contract/tokenvesting.sol\":2881:2939  beneficiarySchemeCountLimit = _beneficiarySchemeCountLimit */\n      dup2\n      swap1\n      sstore\n      pop\n        /* \"contract/tokenvesting.sol\":2777:2947  function setBeneficiarySchemeCountLimit (uint _beneficiarySchemeCountLimit) public onlyOwner {\r... */\n      pop\n      jump\t// out\n        /* \"contract/tokenvesting.sol\":2425:2531  function getSchemeCountLimit () external view returns (uint256) {\r... */\n    tag_33:\n        /* \"contract/tokenvesting.sol\":2480:2487  uint256 */\n      0x00\n        /* \"contract/tokenvesting.sol\":2507:2523  schemeCountLimit */\n      sload(0x02)\n        /* \"contract/tokenvesting.sol\":2500:2523  return schemeCountLimit */\n      swap1\n      pop\n        /* \"contract/tokenvesting.sol\":2425:2531  function getSchemeCountLimit () external view returns (uint256) {\r... */\n      swap1\n      jump\t// out\n        /* \"contract/tokenvesting.sol\":1869:2028  function getSchemeIdsByBeneficiary (address _beneficiary) external view returns (uint256[] memory) {\r... */\n    tag_40:\n        /* \"contract/tokenvesting.sol\":1950:1966  uint256[] memory */\n      0x60\n        /* \"contract/tokenvesting.sol\":1986:2006  beneficiarySchemeIds */\n      0x07\n        /* \"contract/tokenvesting.sol\":1986:2020  beneficiarySchemeIds[_beneficiary] */\n      0x00\n        /* \"contract/tokenvesting.sol\":2007:2019  _beneficiary */\n      dup4\n        /* \"contract/tokenvesting.sol\":1986:2020  beneficiarySchemeIds[_beneficiary] */\n      0xffffffffffffffffffffffffffffffffffffffff\n      and\n      0xffffffffffffffffffffffffffffffffffffffff\n      and\n      dup2\n      mstore\n      0x20\n      add\n      swap1\n      dup2\n      mstore\n      0x20\n      add\n      0x00\n      keccak256\n        /* \"contract/tokenvesting.sol\":1979:2020  return beneficiarySchemeIds[_beneficiary] */\n      dup1\n      sload\n      dup1\n      0x20\n      mul\n      0x20\n      add\n      mload(0x40)\n      swap1\n      dup2\n      add\n      0x40\n      mstore\n      dup1\n      swap3\n      swap2\n      swap1\n      dup2\n      dup2\n      mstore\n      0x20\n      add\n      dup3\n      dup1\n      sload\n      dup1\n      iszero\n      tag_100\n      jumpi\n      0x20\n      mul\n      dup3\n      add\n      swap2\n      swap1\n      0x00\n      mstore\n      keccak256(0x00, 0x20)\n      swap1\n    tag_101:\n      dup2\n      sload\n      dup2\n      mstore\n      0x20\n      add\n      swap1\n      0x01\n      add\n      swap1\n      dup1\n      dup4\n      gt\n      tag_101\n      jumpi\n    tag_100:\n      pop\n      pop\n      pop\n      pop\n      pop\n      swap1\n      pop\n        /* \"contract/tokenvesting.sol\":1869:2028  function getSchemeIdsByBeneficiary (address _beneficiary) external view returns (uint256[] memory) {\r... */\n      swap2\n      swap1\n      pop\n      jump\t// out\n        /* \"contract/tokenvesting.sol\":4082:4766  function releaseTokens (\r... */\n    tag_47:\n        /* \"contract/tokenvesting.sol\":4230:4234  true */\n      0x01\n        /* \"contract/tokenvesting.sol\":4200:4234  schemes[_schemeId].isValid == true */\n      iszero\n      iszero\n        /* \"contract/tokenvesting.sol\":4200:4207  schemes */\n      0x06\n        /* \"contract/tokenvesting.sol\":4200:4218  schemes[_schemeId] */\n      0x00\n        /* \"contract/tokenvesting.sol\":4208:4217  _schemeId */\n      dup5\n        /* \"contract/tokenvesting.sol\":4200:4218  schemes[_schemeId] */\n      dup2\n      mstore\n      0x20\n      add\n      swap1\n      dup2\n      mstore\n      0x20\n      add\n      0x00\n      keccak256\n        /* \"contract/tokenvesting.sol\":4200:4226  schemes[_schemeId].isValid */\n      0x06\n      add\n      0x00\n      swap1\n      sload\n      swap1\n      0x0100\n      exp\n      swap1\n      div\n      0xff\n      and\n        /* \"contract/tokenvesting.sol\":4200:4234  schemes[_schemeId].isValid == true */\n      iszero\n      iszero\n      eq\n        /* \"contract/tokenvesting.sol\":4191:4235  require (schemes[_schemeId].isValid == true) */\n      tag_103\n      jumpi\n      0x00\n      dup1\n      revert\n    tag_103:\n        /* \"contract/tokenvesting.sol\":4278:4285  owner() */\n      tag_104\n        /* \"contract/tokenvesting.sol\":4278:4283  owner */\n      tag_62\n        /* \"contract/tokenvesting.sol\":4278:4285  owner() */\n      jump\t// in\n    tag_104:\n        /* \"contract/tokenvesting.sol\":4262:4285  _msgSender() == owner() */\n      0xffffffffffffffffffffffffffffffffffffffff\n      and\n        /* \"contract/tokenvesting.sol\":4262:4274  _msgSender() */\n      tag_105\n        /* \"contract/tokenvesting.sol\":4262:4272  _msgSender */\n      tag_86\n        /* \"contract/tokenvesting.sol\":4262:4274  _msgSender() */\n      jump\t// in\n    tag_105:\n        /* \"contract/tokenvesting.sol\":4262:4285  _msgSender() == owner() */\n      0xffffffffffffffffffffffffffffffffffffffff\n      and\n      eq\n        /* \"contract/tokenvesting.sol\":4262:4335  _msgSender() == owner() || _msgSender() == schemes[_schemeId].beneficiary */\n      dup1\n      tag_106\n      jumpi\n      pop\n        /* \"contract/tokenvesting.sol\":4305:4312  schemes */\n      0x06\n        /* \"contract/tokenvesting.sol\":4305:4323  schemes[_schemeId] */\n      0x00\n        /* \"contract/tokenvesting.sol\":4313:4322  _schemeId */\n      dup4\n        /* \"contract/tokenvesting.sol\":4305:4323  schemes[_schemeId] */\n      dup2\n      mstore\n      0x20\n      add\n      swap1\n      dup2\n      mstore\n      0x20\n      add\n      0x00\n      keccak256\n        /* \"contract/tokenvesting.sol\":4305:4335  schemes[_schemeId].beneficiary */\n      0x00\n      add\n      0x00\n      swap1\n      sload\n      swap1\n      0x0100\n      exp\n      swap1\n      div\n      0xffffffffffffffffffffffffffffffffffffffff\n      and\n        /* \"contract/tokenvesting.sol\":4289:4335  _msgSender() == schemes[_schemeId].beneficiary */\n      0xffffffffffffffffffffffffffffffffffffffff\n      and\n        /* \"contract/tokenvesting.sol\":4289:4301  _msgSender() */\n      tag_107\n        /* \"contract/tokenvesting.sol\":4289:4299  _msgSender */\n      tag_86\n        /* \"contract/tokenvesting.sol\":4289:4301  _msgSender() */\n      jump\t// in\n    tag_107:\n        /* \"contract/tokenvesting.sol\":4289:4335  _msgSender() == schemes[_schemeId].beneficiary */\n      0xffffffffffffffffffffffffffffffffffffffff\n      and\n      eq\n        /* \"contract/tokenvesting.sol\":4262:4335  _msgSender() == owner() || _msgSender() == schemes[_schemeId].beneficiary */\n    tag_106:\n        /* \"contract/tokenvesting.sol\":4253:4389  require (_msgSender() == owner() || _msgSender() == schemes[_schemeId].beneficiary, \"TokenVesting: Caller must be owner or beneficiary\") */\n      tag_108\n      jumpi\n      mload(0x40)\n      0x08c379a000000000000000000000000000000000000000000000000000000000\n      dup2\n      mstore\n      0x04\n      add\n      tag_109\n      swap1\n      tag_110\n      jump\t// in\n    tag_109:\n      mload(0x40)\n      dup1\n      swap2\n      sub\n      swap1\n      revert\n    tag_108:\n        /* \"contract/tokenvesting.sol\":4410:4437  vestingScheme memory scheme */\n      0x00\n        /* \"contract/tokenvesting.sol\":4440:4447  schemes */\n      0x06\n        /* \"contract/tokenvesting.sol\":4440:4458  schemes[_schemeId] */\n      0x00\n        /* \"contract/tokenvesting.sol\":4448:4457  _schemeId */\n      dup5\n        /* \"contract/tokenvesting.sol\":4440:4458  schemes[_schemeId] */\n      dup2\n      mstore\n      0x20\n      add\n      swap1\n      dup2\n      mstore\n      0x20\n      add\n      0x00\n      keccak256\n        /* \"contract/tokenvesting.sol\":4410:4458  vestingScheme memory scheme = schemes[_schemeId] */\n      mload(0x40)\n      dup1\n      0xe0\n      add\n      0x40\n      mstore\n      swap1\n      dup2\n      0x00\n      dup3\n      add\n      0x00\n      swap1\n      sload\n      swap1\n      0x0100\n      exp\n      swap1\n      div\n      0xffffffffffffffffffffffffffffffffffffffff\n      and\n      0xffffffffffffffffffffffffffffffffffffffff\n      and\n      0xffffffffffffffffffffffffffffffffffffffff\n      and\n      dup2\n      mstore\n      0x20\n      add\n      0x01\n      dup3\n      add\n      sload\n      dup2\n      mstore\n      0x20\n      add\n      0x02\n      dup3\n      add\n      sload\n      dup2\n      mstore\n      0x20\n      add\n      0x03\n      dup3\n      add\n      sload\n      dup2\n      mstore\n      0x20\n      add\n      0x04\n      dup3\n      add\n      sload\n      dup2\n      mstore\n      0x20\n      add\n      0x05\n      dup3\n      add\n      sload\n      dup2\n      mstore\n      0x20\n      add\n      0x06\n      dup3\n      add\n      0x00\n      swap1\n      sload\n      swap1\n      0x0100\n      exp\n      swap1\n      div\n      0xff\n      and\n      iszero\n      iszero\n      iszero\n      iszero\n      dup2\n      mstore\n      pop\n      pop\n      swap1\n      pop\n        /* \"contract/tokenvesting.sol\":4471:4491  uint256 vestedAmount */\n      0x00\n        /* \"contract/tokenvesting.sol\":4494:4530  _calculateReleaseableAmount (scheme) */\n      tag_111\n        /* \"contract/tokenvesting.sol\":4523:4529  scheme */\n      dup3\n        /* \"contract/tokenvesting.sol\":4494:4521  _calculateReleaseableAmount */\n      tag_112\n        /* \"contract/tokenvesting.sol\":4494:4530  _calculateReleaseableAmount (scheme) */\n      jump\t// in\n    tag_111:\n        /* \"contract/tokenvesting.sol\":4471:4530  uint256 vestedAmount = _calculateReleaseableAmount (scheme) */\n      swap1\n      pop\n        /* \"contract/tokenvesting.sol\":4561:4573  vestedAmount */\n      dup1\n        /* \"contract/tokenvesting.sol\":4550:4557  _amount */\n      dup4\n        /* \"contract/tokenvesting.sol\":4550:4573  _amount <= vestedAmount */\n      gt\n      iszero\n        /* \"contract/tokenvesting.sol\":4541:4633  require (_amount <= vestedAmount, \"TokenVesting: Amount greater than current vested amount\") */\n      tag_113\n      jumpi\n      mload(0x40)\n      0x08c379a000000000000000000000000000000000000000000000000000000000\n      dup2\n      mstore\n      0x04\n      add\n      tag_114\n      swap1\n      tag_115\n      jump\t// in\n    tag_114:\n      mload(0x40)\n      dup1\n      swap2\n      sub\n      swap1\n      revert\n    tag_113:\n        /* \"contract/tokenvesting.sol\":4670:4704  scheme.tokensReleased.add(_amount) */\n      tag_116\n        /* \"contract/tokenvesting.sol\":4696:4703  _amount */\n      dup4\n        /* \"contract/tokenvesting.sol\":4670:4676  scheme */\n      dup4\n        /* \"contract/tokenvesting.sol\":4670:4691  scheme.tokensReleased */\n      0xa0\n      add\n      mload\n        /* \"contract/tokenvesting.sol\":4670:4695  scheme.tokensReleased.add */\n      tag_117\n      swap1\n        /* \"contract/tokenvesting.sol\":4670:4704  scheme.tokensReleased.add(_amount) */\n      swap2\n      swap1\n      0xffffffff\n      and\n      jump\t// in\n    tag_116:\n        /* \"contract/tokenvesting.sol\":4646:4652  scheme */\n      dup3\n        /* \"contract/tokenvesting.sol\":4646:4667  scheme.tokensReleased */\n      0xa0\n      add\n        /* \"contract/tokenvesting.sol\":4646:4704  scheme.tokensReleased = scheme.tokensReleased.add(_amount) */\n      dup2\n      dup2\n      mstore\n      pop\n      pop\n        /* \"contract/tokenvesting.sol\":4715:4720  token */\n      0x01\n      0x00\n      swap1\n      sload\n      swap1\n      0x0100\n      exp\n      swap1\n      div\n      0xffffffffffffffffffffffffffffffffffffffff\n      and\n        /* \"contract/tokenvesting.sol\":4715:4729  token.transfer */\n      0xffffffffffffffffffffffffffffffffffffffff\n      and\n      0xa9059cbb\n        /* \"contract/tokenvesting.sol\":4730:4736  scheme */\n      dup4\n        /* \"contract/tokenvesting.sol\":4730:4748  scheme.beneficiary */\n      0x00\n      add\n      mload\n        /* \"contract/tokenvesting.sol\":4750:4757  _amount */\n      dup6\n        /* \"contract/tokenvesting.sol\":4715:4758  token.transfer(scheme.beneficiary, _amount) */\n      mload(0x40)\n      dup4\n      0xffffffff\n      and\n      0xe0\n      shl\n      dup2\n      mstore\n      0x04\n      add\n      tag_118\n      swap3\n      swap2\n      swap1\n      tag_119\n      jump\t// in\n    tag_118:\n      0x20\n      mload(0x40)\n      dup1\n      dup4\n      sub\n      dup2\n      0x00\n      dup8\n      dup1\n      extcodesize\n      iszero\n      dup1\n      iszero\n      tag_120\n      jumpi\n      0x00\n      dup1\n      revert\n    tag_120:\n      pop\n      gas\n      call\n      iszero\n      dup1\n      iszero\n      tag_122\n      jumpi\n      returndatasize\n      0x00\n      dup1\n      returndatacopy\n      revert(0x00, returndatasize)\n    tag_122:\n      pop\n      pop\n      pop\n      pop\n      mload(0x40)\n      returndatasize\n      not(0x1f)\n      0x1f\n      dup3\n      add\n      and\n      dup3\n      add\n      dup1\n      0x40\n      mstore\n      pop\n      dup2\n      add\n      swap1\n      tag_123\n      swap2\n      swap1\n      tag_124\n      jump\t// in\n    tag_123:\n      pop\n        /* \"contract/tokenvesting.sol\":4082:4766  function releaseTokens (\r... */\n      pop\n      pop\n      pop\n      pop\n      jump\t// out\n        /* \"https://github.com/OpenZeppelin/openzeppelin-contracts/blob/master/contracts/access/Ownable.sol\":1668:1769  function renounceOwnership() public virtual onlyOwner {... */\n    tag_50:\n        /* \"https://github.com/OpenZeppelin/openzeppelin-contracts/blob/master/contracts/access/Ownable.sol\":1259:1271  _msgSender() */\n      tag_126\n        /* \"https://github.com/OpenZeppelin/openzeppelin-contracts/blob/master/contracts/access/Ownable.sol\":1259:1269  _msgSender */\n      tag_86\n        /* \"https://github.com/OpenZeppelin/openzeppelin-contracts/blob/master/contracts/access/Ownable.sol\":1259:1271  _msgSender() */\n      jump\t// in\n    tag_126:\n        /* \"https://github.com/OpenZeppelin/openzeppelin-contracts/blob/master/contracts/access/Ownable.sol\":1248:1271  owner() == _msgSender() */\n      0xffffffffffffffffffffffffffffffffffffffff\n      and\n        /* \"https://github.com/OpenZeppelin/openzeppelin-contracts/blob/master/contracts/access/Ownable.sol\":1248:1255  owner() */\n      tag_127\n        /* \"https://github.com/OpenZeppelin/openzeppelin-contracts/blob/master/contracts/access/Ownable.sol\":1248:1253  owner */\n      tag_62\n        /* \"https://github.com/OpenZeppelin/openzeppelin-contracts/blob/master/contracts/access/Ownable.sol\":1248:1255  owner() */\n      jump\t// in\n    tag_127:\n        /* \"https://github.com/OpenZeppelin/openzeppelin-contracts/blob/master/contracts/access/Ownable.sol\":1248:1271  owner() == _msgSender() */\n      0xffffffffffffffffffffffffffffffffffffffff\n      and\n      eq\n        /* \"https://github.com/OpenZeppelin/openzeppelin-contracts/blob/master/contracts/access/Ownable.sol\":1240:1308  require(owner() == _msgSender(), \"Ownable: caller is not the owner\") */\n      tag_128\n      jumpi\n      mload(0x40)\n      0x08c379a000000000000000000000000000000000000000000000000000000000\n      dup2\n      mstore\n      0x04\n      add\n      tag_129\n      swap1\n      tag_90\n      jump\t// in\n    tag_129:\n      mload(0x40)\n      dup1\n      swap2\n      sub\n      swap1\n      revert\n    tag_128:\n        /* \"https://github.com/OpenZeppelin/openzeppelin-contracts/blob/master/contracts/access/Ownable.sol\":1732:1762  _transferOwnership(address(0)) */\n      tag_131\n        /* \"https://github.com/OpenZeppelin/openzeppelin-contracts/blob/master/contracts/access/Ownable.sol\":1759:1760  0 */\n      0x00\n        /* \"https://github.com/OpenZeppelin/openzeppelin-contracts/blob/master/contracts/access/Ownable.sol\":1732:1750  _transferOwnership */\n      tag_132\n        /* \"https://github.com/OpenZeppelin/openzeppelin-contracts/blob/master/contracts/access/Ownable.sol\":1732:1762  _transferOwnership(address(0)) */\n      jump\t// in\n    tag_131:\n        /* \"https://github.com/OpenZeppelin/openzeppelin-contracts/blob/master/contracts/access/Ownable.sol\":1668:1769  function renounceOwnership() public virtual onlyOwner {... */\n      jump\t// out\n        /* \"contract/tokenvesting.sol\":2539:2635  function getSchemeCount () external view returns (uint256) {\r... */\n    tag_53:\n        /* \"contract/tokenvesting.sol\":2589:2596  uint256 */\n      0x00\n        /* \"contract/tokenvesting.sol\":2616:2627  schemeCount */\n      sload(0x03)\n        /* \"contract/tokenvesting.sol\":2609:2627  return schemeCount */\n      swap1\n      pop\n        /* \"contract/tokenvesting.sol\":2539:2635  function getSchemeCount () external view returns (uint256) {\r... */\n      swap1\n      jump\t// out\n        /* \"contract/tokenvesting.sol\":2955:4074  function createVestingScheme (\r... */\n    tag_59:\n        /* \"https://github.com/OpenZeppelin/openzeppelin-contracts/blob/master/contracts/access/Ownable.sol\":1259:1271  _msgSender() */\n      tag_135\n        /* \"https://github.com/OpenZeppelin/openzeppelin-contracts/blob/master/contracts/access/Ownable.sol\":1259:1269  _msgSender */\n      tag_86\n        /* \"https://github.com/OpenZeppelin/openzeppelin-contracts/blob/master/contracts/access/Ownable.sol\":1259:1271  _msgSender() */\n      jump\t// in\n    tag_135:\n        /* \"https://github.com/OpenZeppelin/openzeppelin-contracts/blob/master/contracts/access/Ownable.sol\":1248:1271  owner() == _msgSender() */\n      0xffffffffffffffffffffffffffffffffffffffff\n      and\n        /* \"https://github.com/OpenZeppelin/openzeppelin-contracts/blob/master/contracts/access/Ownable.sol\":1248:1255  owner() */\n      tag_136\n        /* \"https://github.com/OpenZeppelin/openzeppelin-contracts/blob/master/contracts/access/Ownable.sol\":1248:1253  owner */\n      tag_62\n        /* \"https://github.com/OpenZeppelin/openzeppelin-contracts/blob/master/contracts/access/Ownable.sol\":1248:1255  owner() */\n      jump\t// in\n    tag_136:\n        /* \"https://github.com/OpenZeppelin/openzeppelin-contracts/blob/master/contracts/access/Ownable.sol\":1248:1271  owner() == _msgSender() */\n      0xffffffffffffffffffffffffffffffffffffffff\n      and\n      eq\n        /* \"https://github.com/OpenZeppelin/openzeppelin-contracts/blob/master/contracts/access/Ownable.sol\":1240:1308  require(owner() == _msgSender(), \"Ownable: caller is not the owner\") */\n      tag_137\n      jumpi\n      mload(0x40)\n      0x08c379a000000000000000000000000000000000000000000000000000000000\n      dup2\n      mstore\n      0x04\n      add\n      tag_138\n      swap1\n      tag_90\n      jump\t// in\n    tag_138:\n      mload(0x40)\n      dup1\n      swap2\n      sub\n      swap1\n      revert\n    tag_137:\n        /* \"contract/tokenvesting.sol\":3203:3204  0 */\n      0x00\n        /* \"contract/tokenvesting.sol\":3179:3205  _beneficiary != address(0) */\n      0xffffffffffffffffffffffffffffffffffffffff\n      and\n        /* \"contract/tokenvesting.sol\":3179:3191  _beneficiary */\n      dup6\n        /* \"contract/tokenvesting.sol\":3179:3205  _beneficiary != address(0) */\n      0xffffffffffffffffffffffffffffffffffffffff\n      and\n      eq\n      iszero\n        /* \"contract/tokenvesting.sol\":3170:3262  require (_beneficiary != address(0), \"TokenVesting: Cannot add zero address as beneficiary\") */\n      tag_140\n      jumpi\n      mload(0x40)\n      0x08c379a000000000000000000000000000000000000000000000000000000000\n      dup2\n      mstore\n      0x04\n      add\n      tag_141\n      swap1\n      tag_142\n      jump\t// in\n    tag_141:\n      mload(0x40)\n      dup1\n      swap2\n      sub\n      swap1\n      revert\n    tag_140:\n        /* \"contract/tokenvesting.sol\":3294:3295  0 */\n      0x00\n        /* \"contract/tokenvesting.sol\":3282:3291  _duration */\n      dup4\n        /* \"contract/tokenvesting.sol\":3282:3295  _duration > 0 */\n      gt\n        /* \"contract/tokenvesting.sol\":3273:3354  require (_duration > 0, \"TokenVesting: Vesting period must be greater than zero\") */\n      tag_143\n      jumpi\n      mload(0x40)\n      0x08c379a000000000000000000000000000000000000000000000000000000000\n      dup2\n      mstore\n      0x04\n      add\n      tag_144\n      swap1\n      tag_145\n      jump\t// in\n    tag_144:\n      mload(0x40)\n      dup1\n      swap2\n      sub\n      swap1\n      revert\n    tag_143:\n        /* \"contract/tokenvesting.sol\":3384:3385  0 */\n      0x00\n        /* \"contract/tokenvesting.sol\":3374:3381  _amount */\n      dup2\n        /* \"contract/tokenvesting.sol\":3374:3385  _amount > 0 */\n      gt\n        /* \"contract/tokenvesting.sol\":3365:3442  require (_amount > 0, \"TokenVesting: Vestable amount must be greater than 0\") */\n      tag_146\n      jumpi\n      mload(0x40)\n      0x08c379a000000000000000000000000000000000000000000000000000000000\n      dup2\n      mstore\n      0x04\n      add\n      tag_147\n      swap1\n      tag_148\n      jump\t// in\n    tag_147:\n      mload(0x40)\n      dup1\n      swap2\n      sub\n      swap1\n      revert\n    tag_146:\n        /* \"contract/tokenvesting.sol\":3506:3533  beneficiarySchemeCountLimit */\n      sload(0x05)\n        /* \"contract/tokenvesting.sol\":3462:3482  beneficiarySchemeIds */\n      0x07\n        /* \"contract/tokenvesting.sol\":3462:3496  beneficiarySchemeIds[_beneficiary] */\n      0x00\n        /* \"contract/tokenvesting.sol\":3483:3495  _beneficiary */\n      dup8\n        /* \"contract/tokenvesting.sol\":3462:3496  beneficiarySchemeIds[_beneficiary] */\n      0xffffffffffffffffffffffffffffffffffffffff\n      and\n      0xffffffffffffffffffffffffffffffffffffffff\n      and\n      dup2\n      mstore\n      0x20\n      add\n      swap1\n      dup2\n      mstore\n      0x20\n      add\n      0x00\n      keccak256\n        /* \"contract/tokenvesting.sol\":3462:3503  beneficiarySchemeIds[_beneficiary].length */\n      dup1\n      sload\n      swap1\n      pop\n        /* \"contract/tokenvesting.sol\":3462:3533  beneficiarySchemeIds[_beneficiary].length < beneficiarySchemeCountLimit */\n      lt\n        /* \"contract/tokenvesting.sol\":3453:3604  require (beneficiarySchemeIds[_beneficiary].length < beneficiarySchemeCountLimit, \"TokenVesting: Scheme count for this beneficiary has reached limit.\") */\n      tag_149\n      jumpi\n      mload(0x40)\n      0x08c379a000000000000000000000000000000000000000000000000000000000\n      dup2\n      mstore\n      0x04\n      add\n      tag_150\n      swap1\n      tag_151\n      jump\t// in\n    tag_150:\n      mload(0x40)\n      dup1\n      swap2\n      sub\n      swap1\n      revert\n    tag_149:\n        /* \"contract/tokenvesting.sol\":3617:3644  vestingScheme memory scheme */\n      0x00\n        /* \"contract/tokenvesting.sol\":3647:3816  vestingScheme (\r... */\n      mload(0x40)\n      dup1\n      0xe0\n      add\n      0x40\n      mstore\n      dup1\n        /* \"contract/tokenvesting.sol\":3684:3696  _beneficiary */\n      dup8\n        /* \"contract/tokenvesting.sol\":3647:3816  vestingScheme (\r... */\n      0xffffffffffffffffffffffffffffffffffffffff\n      and\n      dup2\n      mstore\n      0x20\n      add\n        /* \"contract/tokenvesting.sol\":3708:3718  _startTime */\n      dup7\n        /* \"contract/tokenvesting.sol\":3647:3816  vestingScheme (\r... */\n      dup2\n      mstore\n      0x20\n      add\n        /* \"contract/tokenvesting.sol\":3730:3739  _duration */\n      dup6\n        /* \"contract/tokenvesting.sol\":3647:3816  vestingScheme (\r... */\n      dup2\n      mstore\n      0x20\n      add\n        /* \"contract/tokenvesting.sol\":3751:3767  _releaseSchedule */\n      dup5\n        /* \"contract/tokenvesting.sol\":3647:3816  vestingScheme (\r... */\n      dup2\n      mstore\n      0x20\n      add\n        /* \"contract/tokenvesting.sol\":3779:3786  _amount */\n      dup4\n        /* \"contract/tokenvesting.sol\":3647:3816  vestingScheme (\r... */\n      dup2\n      mstore\n      0x20\n      add\n        /* \"contract/tokenvesting.sol\":3798:3799  0 */\n      0x00\n        /* \"contract/tokenvesting.sol\":3647:3816  vestingScheme (\r... */\n      dup2\n      mstore\n      0x20\n      add\n        /* \"contract/tokenvesting.sol\":3811:3815  true */\n      0x01\n        /* \"contract/tokenvesting.sol\":3647:3816  vestingScheme (\r... */\n      iszero\n      iszero\n      dup2\n      mstore\n      pop\n        /* \"contract/tokenvesting.sol\":3617:3816  vestingScheme memory scheme = vestingScheme (\r... */\n      swap1\n      pop\n        /* \"contract/tokenvesting.sol\":3840:3888  _calculateNewSchemeId(_beneficiary, schemeCount) */\n      tag_152\n        /* \"contract/tokenvesting.sol\":3862:3874  _beneficiary */\n      dup7\n        /* \"contract/tokenvesting.sol\":3876:3887  schemeCount */\n      sload(0x03)\n        /* \"contract/tokenvesting.sol\":3840:3861  _calculateNewSchemeId */\n      tag_153\n        /* \"contract/tokenvesting.sol\":3840:3888  _calculateNewSchemeId(_beneficiary, schemeCount) */\n      jump\t// in\n    tag_152:\n        /* \"contract/tokenvesting.sol\":3829:3837  schemeId */\n      0x04\n        /* \"contract/tokenvesting.sol\":3829:3888  schemeId = _calculateNewSchemeId(_beneficiary, schemeCount) */\n      dup2\n      swap1\n      sstore\n      pop\n        /* \"contract/tokenvesting.sol\":3899:3919  beneficiarySchemeIds */\n      0x07\n        /* \"contract/tokenvesting.sol\":3899:3939  beneficiarySchemeIds[scheme.beneficiary] */\n      0x00\n        /* \"contract/tokenvesting.sol\":3920:3926  scheme */\n      dup3\n        /* \"contract/tokenvesting.sol\":3920:3938  scheme.beneficiary */\n      0x00\n      add\n      mload\n        /* \"contract/tokenvesting.sol\":3899:3939  beneficiarySchemeIds[scheme.beneficiary] */\n      0xffffffffffffffffffffffffffffffffffffffff\n      and\n      0xffffffffffffffffffffffffffffffffffffffff\n      and\n      dup2\n      mstore\n      0x20\n      add\n      swap1\n      dup2\n      mstore\n      0x20\n      add\n      0x00\n      keccak256\n        /* \"contract/tokenvesting.sol\":3945:3953  schemeId */\n      sload(0x04)\n        /* \"contract/tokenvesting.sol\":3899:3954  beneficiarySchemeIds[scheme.beneficiary].push(schemeId) */\n      swap1\n      dup1\n      0x01\n      dup2\n      sload\n      add\n      dup1\n      dup3\n      sstore\n      dup1\n      swap2\n      pop\n      pop\n      0x01\n      swap1\n      sub\n      swap1\n      0x00\n      mstore\n      keccak256(0x00, 0x20)\n      add\n      0x00\n      swap1\n      swap2\n      swap1\n      swap2\n      swap1\n      swap2\n      pop\n      sstore\n        /* \"contract/tokenvesting.sol\":3985:3991  scheme */\n      dup1\n        /* \"contract/tokenvesting.sol\":3965:3972  schemes */\n      0x06\n        /* \"contract/tokenvesting.sol\":3965:3982  schemes[schemeId] */\n      0x00\n        /* \"contract/tokenvesting.sol\":3973:3981  schemeId */\n      sload(0x04)\n        /* \"contract/tokenvesting.sol\":3965:3982  schemes[schemeId] */\n      dup2\n      mstore\n      0x20\n      add\n      swap1\n      dup2\n      mstore\n      0x20\n      add\n      0x00\n      keccak256\n        /* \"contract/tokenvesting.sol\":3965:3991  schemes[schemeId] = scheme */\n      0x00\n      dup3\n      add\n      mload\n      dup2\n      0x00\n      add\n      exp(0x0100, 0x00)\n      dup2\n      sload\n      dup2\n      0xffffffffffffffffffffffffffffffffffffffff\n      mul\n      not\n      and\n      swap1\n      dup4\n      0xffffffffffffffffffffffffffffffffffffffff\n      and\n      mul\n      or\n      swap1\n      sstore\n      pop\n      0x20\n      dup3\n      add\n      mload\n      dup2\n      0x01\n      add\n      sstore\n      0x40\n      dup3\n      add\n      mload\n      dup2\n      0x02\n      add\n      sstore\n      0x60\n      dup3\n      add\n      mload\n      dup2\n      0x03\n      add\n      sstore\n      0x80\n      dup3\n      add\n      mload\n      dup2\n      0x04\n      add\n      sstore\n      0xa0\n      dup3\n      add\n      mload\n      dup2\n      0x05\n      add\n      sstore\n      0xc0\n      dup3\n      add\n      mload\n      dup2\n      0x06\n      add\n      exp(0x0100, 0x00)\n      dup2\n      sload\n      dup2\n      0xff\n      mul\n      not\n      and\n      swap1\n      dup4\n      iszero\n      iszero\n      mul\n      or\n      swap1\n      sstore\n      pop\n      swap1\n      pop\n      pop\n        /* \"contract/tokenvesting.sol\":4002:4020  schemeCount.add(1) */\n      tag_155\n        /* \"contract/tokenvesting.sol\":4018:4019  1 */\n      0x01\n        /* \"contract/tokenvesting.sol\":4002:4013  schemeCount */\n      sload(0x03)\n        /* \"contract/tokenvesting.sol\":4002:4017  schemeCount.add */\n      tag_117\n      swap1\n        /* \"contract/tokenvesting.sol\":4002:4020  schemeCount.add(1) */\n      swap2\n      swap1\n      0xffffffff\n      and\n      jump\t// in\n    tag_155:\n      pop\n        /* \"contract/tokenvesting.sol\":4036:4066  VestingSchemeCreation (scheme) */\n      0x03ac17a064e5f9f8a942a4e1b3d07157fa74128806fab9b656a6b986182ffad1\n        /* \"contract/tokenvesting.sol\":4059:4065  scheme */\n      dup2\n        /* \"contract/tokenvesting.sol\":4036:4066  VestingSchemeCreation (scheme) */\n      mload(0x40)\n      tag_156\n      swap2\n      swap1\n      tag_79\n      jump\t// in\n    tag_156:\n      mload(0x40)\n      dup1\n      swap2\n      sub\n      swap1\n      log1\n        /* \"https://github.com/OpenZeppelin/openzeppelin-contracts/blob/master/contracts/access/Ownable.sol\":1318:1319  _ */\n      pop\n        /* \"contract/tokenvesting.sol\":2955:4074  function createVestingScheme (\r... */\n      pop\n      pop\n      pop\n      pop\n      pop\n      jump\t// out\n        /* \"https://github.com/OpenZeppelin/openzeppelin-contracts/blob/master/contracts/access/Ownable.sol\":1036:1121  function owner() public view virtual returns (address) {... */\n    tag_62:\n        /* \"https://github.com/OpenZeppelin/openzeppelin-contracts/blob/master/contracts/access/Ownable.sol\":1082:1089  address */\n      0x00\n        /* \"https://github.com/OpenZeppelin/openzeppelin-contracts/blob/master/contracts/access/Ownable.sol\":1108:1114  _owner */\n      dup1\n      0x00\n      swap1\n      sload\n      swap1\n      0x0100\n      exp\n      swap1\n      div\n      0xffffffffffffffffffffffffffffffffffffffff\n      and\n        /* \"https://github.com/OpenZeppelin/openzeppelin-contracts/blob/master/contracts/access/Ownable.sol\":1101:1114  return _owner */\n      swap1\n      pop\n        /* \"https://github.com/OpenZeppelin/openzeppelin-contracts/blob/master/contracts/access/Ownable.sol\":1036:1121  function owner() public view virtual returns (address) {... */\n      swap1\n      jump\t// out\n        /* \"contract/tokenvesting.sol\":2036:2417  function getUnvestedAmountById (uint256 _schemeId) external view returns (uint256) {\r... */\n    tag_68:\n        /* \"contract/tokenvesting.sol\":2110:2117  uint256 */\n      0x00\n        /* \"contract/tokenvesting.sol\":2169:2173  true */\n      0x01\n        /* \"contract/tokenvesting.sol\":2139:2173  schemes[_schemeId].isValid == true */\n      iszero\n      iszero\n        /* \"contract/tokenvesting.sol\":2139:2146  schemes */\n      0x06\n        /* \"contract/tokenvesting.sol\":2139:2157  schemes[_schemeId] */\n      0x00\n        /* \"contract/tokenvesting.sol\":2147:2156  _schemeId */\n      dup5\n        /* \"contract/tokenvesting.sol\":2139:2157  schemes[_schemeId] */\n      dup2\n      mstore\n      0x20\n      add\n      swap1\n      dup2\n      mstore\n      0x20\n      add\n      0x00\n      keccak256\n        /* \"contract/tokenvesting.sol\":2139:2165  schemes[_schemeId].isValid */\n      0x06\n      add\n      0x00\n      swap1\n      sload\n      swap1\n      0x0100\n      exp\n      swap1\n      div\n      0xff\n      and\n        /* \"contract/tokenvesting.sol\":2139:2173  schemes[_schemeId].isValid == true */\n      iszero\n      iszero\n      eq\n        /* \"contract/tokenvesting.sol\":2130:2242  require (schemes[_schemeId].isValid == true, \"TokenVesting: Vesting Scheme is either deleted or does not exist\") */\n      tag_159\n      jumpi\n      mload(0x40)\n      0x08c379a000000000000000000000000000000000000000000000000000000000\n      dup2\n      mstore\n      0x04\n      add\n      tag_160\n      swap1\n      tag_161\n      jump\t// in\n    tag_160:\n      mload(0x40)\n      dup1\n      swap2\n      sub\n      swap1\n      revert\n    tag_159:\n        /* \"contract/tokenvesting.sol\":2253:2280  vestingScheme memory scheme */\n      0x00\n        /* \"contract/tokenvesting.sol\":2283:2290  schemes */\n      0x06\n        /* \"contract/tokenvesting.sol\":2283:2301  schemes[_schemeId] */\n      0x00\n        /* \"contract/tokenvesting.sol\":2291:2300  _schemeId */\n      dup5\n        /* \"contract/tokenvesting.sol\":2283:2301  schemes[_schemeId] */\n      dup2\n      mstore\n      0x20\n      add\n      swap1\n      dup2\n      mstore\n      0x20\n      add\n      0x00\n      keccak256\n        /* \"contract/tokenvesting.sol\":2253:2301  vestingScheme memory scheme = schemes[_schemeId] */\n      mload(0x40)\n      dup1\n      0xe0\n      add\n      0x40\n      mstore\n      swap1\n      dup2\n      0x00\n      dup3\n      add\n      0x00\n      swap1\n      sload\n      swap1\n      0x0100\n      exp\n      swap1\n      div\n      0xffffffffffffffffffffffffffffffffffffffff\n      and\n      0xffffffffffffffffffffffffffffffffffffffff\n      and\n      0xffffffffffffffffffffffffffffffffffffffff\n      and\n      dup2\n      mstore\n      0x20\n      add\n      0x01\n      dup3\n      add\n      sload\n      dup2\n      mstore\n      0x20\n      add\n      0x02\n      dup3\n      add\n      sload\n      dup2\n      mstore\n      0x20\n      add\n      0x03\n      dup3\n      add\n      sload\n      dup2\n      mstore\n      0x20\n      add\n      0x04\n      dup3\n      add\n      sload\n      dup2\n      mstore\n      0x20\n      add\n      0x05\n      dup3\n      add\n      sload\n      dup2\n      mstore\n      0x20\n      add\n      0x06\n      dup3\n      add\n      0x00\n      swap1\n      sload\n      swap1\n      0x0100\n      exp\n      swap1\n      div\n      0xff\n      and\n      iszero\n      iszero\n      iszero\n      iszero\n      dup2\n      mstore\n      pop\n      pop\n      swap1\n      pop\n        /* \"contract/tokenvesting.sol\":2312:2334  uint256 unvestedAmount */\n      0x00\n        /* \"contract/tokenvesting.sol\":2337:2377  scheme.amount.sub(scheme.tokensReleased) */\n      tag_162\n        /* \"contract/tokenvesting.sol\":2355:2361  scheme */\n      dup3\n        /* \"contract/tokenvesting.sol\":2355:2376  scheme.tokensReleased */\n      0xa0\n      add\n      mload\n        /* \"contract/tokenvesting.sol\":2337:2343  scheme */\n      dup4\n        /* \"contract/tokenvesting.sol\":2337:2350  scheme.amount */\n      0x80\n      add\n      mload\n        /* \"contract/tokenvesting.sol\":2337:2354  scheme.amount.sub */\n      tag_163\n      swap1\n        /* \"contract/tokenvesting.sol\":2337:2377  scheme.amount.sub(scheme.tokensReleased) */\n      swap2\n      swap1\n      0xffffffff\n      and\n      jump\t// in\n    tag_162:\n        /* \"contract/tokenvesting.sol\":2312:2377  uint256 unvestedAmount = scheme.amount.sub(scheme.tokensReleased) */\n      swap1\n      pop\n        /* \"contract/tokenvesting.sol\":2395:2409  unvestedAmount */\n      dup1\n        /* \"contract/tokenvesting.sol\":2388:2409  return unvestedAmount */\n      swap3\n      pop\n      pop\n      pop\n        /* \"contract/tokenvesting.sol\":2036:2417  function getUnvestedAmountById (uint256 _schemeId) external view returns (uint256) {\r... */\n      swap2\n      swap1\n      pop\n      jump\t// out\n        /* \"contract/tokenvesting.sol\":1733:1861  function getBeneficiarySchemeCountLimit () external view returns (uint256) {\r... */\n    tag_72:\n        /* \"contract/tokenvesting.sol\":1799:1806  uint256 */\n      0x00\n        /* \"contract/tokenvesting.sol\":1826:1853  beneficiarySchemeCountLimit */\n      sload(0x05)\n        /* \"contract/tokenvesting.sol\":1819:1853  return beneficiarySchemeCountLimit */\n      swap1\n      pop\n        /* \"contract/tokenvesting.sol\":1733:1861  function getBeneficiarySchemeCountLimit () external view returns (uint256) {\r... */\n      swap1\n      jump\t// out\n        /* \"contract/tokenvesting.sol\":1448:1725  function getVestingSchemeById (uint _schemeId) \r... */\n    tag_77:\n        /* \"contract/tokenvesting.sol\":1536:1556  vestingScheme memory */\n      tag_165\n      tag_166\n      jump\t// in\n    tag_165:\n        /* \"contract/tokenvesting.sol\":1608:1612  true */\n      0x01\n        /* \"contract/tokenvesting.sol\":1578:1612  schemes[_schemeId].isValid == true */\n      iszero\n      iszero\n        /* \"contract/tokenvesting.sol\":1578:1585  schemes */\n      0x06\n        /* \"contract/tokenvesting.sol\":1578:1596  schemes[_schemeId] */\n      0x00\n        /* \"contract/tokenvesting.sol\":1586:1595  _schemeId */\n      dup5\n        /* \"contract/tokenvesting.sol\":1578:1596  schemes[_schemeId] */\n      dup2\n      mstore\n      0x20\n      add\n      swap1\n      dup2\n      mstore\n      0x20\n      add\n      0x00\n      keccak256\n        /* \"contract/tokenvesting.sol\":1578:1604  schemes[_schemeId].isValid */\n      0x06\n      add\n      0x00\n      swap1\n      sload\n      swap1\n      0x0100\n      exp\n      swap1\n      div\n      0xff\n      and\n        /* \"contract/tokenvesting.sol\":1578:1612  schemes[_schemeId].isValid == true */\n      iszero\n      iszero\n      eq\n        /* \"contract/tokenvesting.sol\":1569:1681  require (schemes[_schemeId].isValid == true, \"TokenVesting: Vesting Scheme is either deleted or does not exist\") */\n      tag_168\n      jumpi\n      mload(0x40)\n      0x08c379a000000000000000000000000000000000000000000000000000000000\n      dup2\n      mstore\n      0x04\n      add\n      tag_169\n      swap1\n      tag_161\n      jump\t// in\n    tag_169:\n      mload(0x40)\n      dup1\n      swap2\n      sub\n      swap1\n      revert\n    tag_168:\n        /* \"contract/tokenvesting.sol\":1699:1706  schemes */\n      0x06\n        /* \"contract/tokenvesting.sol\":1699:1717  schemes[_schemeId] */\n      0x00\n        /* \"contract/tokenvesting.sol\":1707:1716  _schemeId */\n      dup4\n        /* \"contract/tokenvesting.sol\":1699:1717  schemes[_schemeId] */\n      dup2\n      mstore\n      0x20\n      add\n      swap1\n      dup2\n      mstore\n      0x20\n      add\n      0x00\n      keccak256\n        /* \"contract/tokenvesting.sol\":1692:1717  return schemes[_schemeId] */\n      mload(0x40)\n      dup1\n      0xe0\n      add\n      0x40\n      mstore\n      swap1\n      dup2\n      0x00\n      dup3\n      add\n      0x00\n      swap1\n      sload\n      swap1\n      0x0100\n      exp\n      swap1\n      div\n      0xffffffffffffffffffffffffffffffffffffffff\n      and\n      0xffffffffffffffffffffffffffffffffffffffff\n      and\n      0xffffffffffffffffffffffffffffffffffffffff\n      and\n      dup2\n      mstore\n      0x20\n      add\n      0x01\n      dup3\n      add\n      sload\n      dup2\n      mstore\n      0x20\n      add\n      0x02\n      dup3\n      add\n      sload\n      dup2\n      mstore\n      0x20\n      add\n      0x03\n      dup3\n      add\n      sload\n      dup2\n      mstore\n      0x20\n      add\n      0x04\n      dup3\n      add\n      sload\n      dup2\n      mstore\n      0x20\n      add\n      0x05\n      dup3\n      add\n      sload\n      dup2\n      mstore\n      0x20\n      add\n      0x06\n      dup3\n      add\n      0x00\n      swap1\n      sload\n      swap1\n      0x0100\n      exp\n      swap1\n      div\n      0xff\n      and\n      iszero\n      iszero\n      iszero\n      iszero\n      dup2\n      mstore\n      pop\n      pop\n      swap1\n      pop\n        /* \"contract/tokenvesting.sol\":1448:1725  function getVestingSchemeById (uint _schemeId) \r... */\n      swap2\n      swap1\n      pop\n      jump\t// out\n        /* \"https://github.com/OpenZeppelin/openzeppelin-contracts/blob/master/contracts/access/Ownable.sol\":1918:2116  function transferOwnership(address newOwner) public virtual onlyOwner {... */\n    tag_83:\n        /* \"https://github.com/OpenZeppelin/openzeppelin-contracts/blob/master/contracts/access/Ownable.sol\":1259:1271  _msgSender() */\n      tag_171\n        /* \"https://github.com/OpenZeppelin/openzeppelin-contracts/blob/master/contracts/access/Ownable.sol\":1259:1269  _msgSender */\n      tag_86\n        /* \"https://github.com/OpenZeppelin/openzeppelin-contracts/blob/master/contracts/access/Ownable.sol\":1259:1271  _msgSender() */\n      jump\t// in\n    tag_171:\n        /* \"https://github.com/OpenZeppelin/openzeppelin-contracts/blob/master/contracts/access/Ownable.sol\":1248:1271  owner() == _msgSender() */\n      0xffffffffffffffffffffffffffffffffffffffff\n      and\n        /* \"https://github.com/OpenZeppelin/openzeppelin-contracts/blob/master/contracts/access/Ownable.sol\":1248:1255  owner() */\n      tag_172\n        /* \"https://github.com/OpenZeppelin/openzeppelin-contracts/blob/master/contracts/access/Ownable.sol\":1248:1253  owner */\n      tag_62\n        /* \"https://github.com/OpenZeppelin/openzeppelin-contracts/blob/master/contracts/access/Ownable.sol\":1248:1255  owner() */\n      jump\t// in\n    tag_172:\n        /* \"https://github.com/OpenZeppelin/openzeppelin-contracts/blob/master/contracts/access/Ownable.sol\":1248:1271  owner() == _msgSender() */\n      0xffffffffffffffffffffffffffffffffffffffff\n      and\n      eq\n        /* \"https://github.com/OpenZeppelin/openzeppelin-contracts/blob/master/contracts/access/Ownable.sol\":1240:1308  require(owner() == _msgSender(), \"Ownable: caller is not the owner\") */\n      tag_173\n      jumpi\n      mload(0x40)\n      0x08c379a000000000000000000000000000000000000000000000000000000000\n      dup2\n      mstore\n      0x04\n      add\n      tag_174\n      swap1\n      tag_90\n      jump\t// in\n    tag_174:\n      mload(0x40)\n      dup1\n      swap2\n      sub\n      swap1\n      revert\n    tag_173:\n        /* \"https://github.com/OpenZeppelin/openzeppelin-contracts/blob/master/contracts/access/Ownable.sol\":2026:2027  0 */\n      0x00\n        /* \"https://github.com/OpenZeppelin/openzeppelin-contracts/blob/master/contracts/access/Ownable.sol\":2006:2028  newOwner != address(0) */\n      0xffffffffffffffffffffffffffffffffffffffff\n      and\n        /* \"https://github.com/OpenZeppelin/openzeppelin-contracts/blob/master/contracts/access/Ownable.sol\":2006:2014  newOwner */\n      dup2\n        /* \"https://github.com/OpenZeppelin/openzeppelin-contracts/blob/master/contracts/access/Ownable.sol\":2006:2028  newOwner != address(0) */\n      0xffffffffffffffffffffffffffffffffffffffff\n      and\n      eq\n      iszero\n        /* \"https://github.com/OpenZeppelin/openzeppelin-contracts/blob/master/contracts/access/Ownable.sol\":1998:2071  require(newOwner != address(0), \"Ownable: new owner is the zero address\") */\n      tag_176\n      jumpi\n      mload(0x40)\n      0x08c379a000000000000000000000000000000000000000000000000000000000\n      dup2\n      mstore\n      0x04\n      add\n      tag_177\n      swap1\n      tag_178\n      jump\t// in\n    tag_177:\n      mload(0x40)\n      dup1\n      swap2\n      sub\n      swap1\n      revert\n    tag_176:\n        /* \"https://github.com/OpenZeppelin/openzeppelin-contracts/blob/master/contracts/access/Ownable.sol\":2081:2109  _transferOwnership(newOwner) */\n      tag_179\n        /* \"https://github.com/OpenZeppelin/openzeppelin-contracts/blob/master/contracts/access/Ownable.sol\":2100:2108  newOwner */\n      dup2\n        /* \"https://github.com/OpenZeppelin/openzeppelin-contracts/blob/master/contracts/access/Ownable.sol\":2081:2099  _transferOwnership */\n      tag_132\n        /* \"https://github.com/OpenZeppelin/openzeppelin-contracts/blob/master/contracts/access/Ownable.sol\":2081:2109  _transferOwnership(newOwner) */\n      jump\t// in\n    tag_179:\n        /* \"https://github.com/OpenZeppelin/openzeppelin-contracts/blob/master/contracts/access/Ownable.sol\":1918:2116  function transferOwnership(address newOwner) public virtual onlyOwner {... */\n      pop\n      jump\t// out\n        /* \"https://github.com/OpenZeppelin/openzeppelin-contracts/blob/master/contracts/utils/Context.sol\":640:736  function _msgSender() internal view virtual returns (address) {... */\n    tag_86:\n        /* \"https://github.com/OpenZeppelin/openzeppelin-contracts/blob/master/contracts/utils/Context.sol\":693:700  address */\n      0x00\n        /* \"https://github.com/OpenZeppelin/openzeppelin-contracts/blob/master/contracts/utils/Context.sol\":719:729  msg.sender */\n      caller\n        /* \"https://github.com/OpenZeppelin/openzeppelin-contracts/blob/master/contracts/utils/Context.sol\":712:729  return msg.sender */\n      swap1\n      pop\n        /* \"https://github.com/OpenZeppelin/openzeppelin-contracts/blob/master/contracts/utils/Context.sol\":640:736  function _msgSender() internal view virtual returns (address) {... */\n      swap1\n      jump\t// out\n        /* \"contract/tokenvesting.sol\":4778:5584  function _calculateReleaseableAmount (vestingScheme memory scheme) internal view returns (uint256) {\r... */\n    tag_112:\n        /* \"contract/tokenvesting.sol\":4868:4875  uint256 */\n      0x00\n        /* \"contract/tokenvesting.sol\":4888:4900  uint256 now_ */\n      dup1\n        /* \"contract/tokenvesting.sol\":4903:4909  _now() */\n      tag_182\n        /* \"contract/tokenvesting.sol\":4903:4907  _now */\n      tag_183\n        /* \"contract/tokenvesting.sol\":4903:4909  _now() */\n      jump\t// in\n    tag_182:\n        /* \"contract/tokenvesting.sol\":4888:4909  uint256 now_ = _now() */\n      swap1\n      pop\n        /* \"contract/tokenvesting.sol\":4931:4968  scheme.startTime.add(scheme.duration) */\n      tag_184\n        /* \"contract/tokenvesting.sol\":4952:4958  scheme */\n      dup4\n        /* \"contract/tokenvesting.sol\":4952:4967  scheme.duration */\n      0x40\n      add\n      mload\n        /* \"contract/tokenvesting.sol\":4931:4937  scheme */\n      dup5\n        /* \"contract/tokenvesting.sol\":4931:4947  scheme.startTime */\n      0x20\n      add\n      mload\n        /* \"contract/tokenvesting.sol\":4931:4951  scheme.startTime.add */\n      tag_117\n      swap1\n        /* \"contract/tokenvesting.sol\":4931:4968  scheme.startTime.add(scheme.duration) */\n      swap2\n      swap1\n      0xffffffff\n      and\n      jump\t// in\n    tag_184:\n        /* \"contract/tokenvesting.sol\":4924:4928  now_ */\n      dup2\n        /* \"contract/tokenvesting.sol\":4924:4968  now_ < scheme.startTime.add(scheme.duration) */\n      lt\n        /* \"contract/tokenvesting.sol\":4920:5563  if (now_ < scheme.startTime.add(scheme.duration)){\r... */\n      iszero\n      tag_185\n      jumpi\n        /* \"contract/tokenvesting.sol\":4984:5009  uint256 durationInMinutes */\n      0x00\n        /* \"contract/tokenvesting.sol\":5067:5076  1 minutes */\n      0x3c\n        /* \"contract/tokenvesting.sol\":5042:5048  scheme */\n      dup5\n        /* \"contract/tokenvesting.sol\":5042:5064  scheme.releaseSchedule */\n      0x60\n      add\n      mload\n        /* \"contract/tokenvesting.sol\":5042:5076  scheme.releaseSchedule * 1 minutes */\n      tag_186\n      swap2\n      swap1\n      tag_187\n      jump\t// in\n    tag_186:\n        /* \"contract/tokenvesting.sol\":5031:5037  1 days */\n      0x015180\n        /* \"contract/tokenvesting.sol\":5013:5019  scheme */\n      dup6\n        /* \"contract/tokenvesting.sol\":5013:5028  scheme.duration */\n      0x40\n      add\n      mload\n        /* \"contract/tokenvesting.sol\":5013:5037  scheme.duration * 1 days */\n      tag_188\n      swap2\n      swap1\n      tag_187\n      jump\t// in\n    tag_188:\n        /* \"contract/tokenvesting.sol\":5012:5077  (scheme.duration * 1 days) / (scheme.releaseSchedule * 1 minutes) */\n      tag_189\n      swap2\n      swap1\n      tag_190\n      jump\t// in\n    tag_189:\n        /* \"contract/tokenvesting.sol\":4984:5077  uint256 durationInMinutes = (scheme.duration * 1 days) / (scheme.releaseSchedule * 1 minutes) */\n      swap1\n      pop\n        /* \"contract/tokenvesting.sol\":5092:5111  uint256 timeElapsed */\n      0x00\n        /* \"contract/tokenvesting.sol\":5114:5140  now_.sub(scheme.startTime) */\n      tag_191\n        /* \"contract/tokenvesting.sol\":5123:5129  scheme */\n      dup6\n        /* \"contract/tokenvesting.sol\":5123:5139  scheme.startTime */\n      0x20\n      add\n      mload\n        /* \"contract/tokenvesting.sol\":5114:5118  now_ */\n      dup5\n        /* \"contract/tokenvesting.sol\":5114:5122  now_.sub */\n      tag_163\n      swap1\n        /* \"contract/tokenvesting.sol\":5114:5140  now_.sub(scheme.startTime) */\n      swap2\n      swap1\n      0xffffffff\n      and\n      jump\t// in\n    tag_191:\n        /* \"contract/tokenvesting.sol\":5092:5140  uint256 timeElapsed = now_.sub(scheme.startTime) */\n      swap1\n      pop\n        /* \"contract/tokenvesting.sol\":5155:5184  uint256 vestingPeriodsElapsed */\n      0x00\n        /* \"contract/tokenvesting.sol\":5187:5226  timeElapsed.div(scheme.releaseSchedule) */\n      tag_192\n        /* \"contract/tokenvesting.sol\":5203:5209  scheme */\n      dup7\n        /* \"contract/tokenvesting.sol\":5203:5225  scheme.releaseSchedule */\n      0x60\n      add\n      mload\n        /* \"contract/tokenvesting.sol\":5187:5198  timeElapsed */\n      dup4\n        /* \"contract/tokenvesting.sol\":5187:5202  timeElapsed.div */\n      tag_193\n      swap1\n        /* \"contract/tokenvesting.sol\":5187:5226  timeElapsed.div(scheme.releaseSchedule) */\n      swap2\n      swap1\n      0xffffffff\n      and\n      jump\t// in\n    tag_192:\n        /* \"contract/tokenvesting.sol\":5155:5226  uint256 vestingPeriodsElapsed = timeElapsed.div(scheme.releaseSchedule) */\n      swap1\n      pop\n        /* \"contract/tokenvesting.sol\":5241:5262  uint256 releaseAmount */\n      0x00\n        /* \"contract/tokenvesting.sol\":5265:5356  scheme.amount.mul(scheme.releaseSchedule).mul(vestingPeriodsElapsed).div(durationInMinutes) */\n      tag_194\n        /* \"contract/tokenvesting.sol\":5338:5355  durationInMinutes */\n      dup5\n        /* \"contract/tokenvesting.sol\":5265:5333  scheme.amount.mul(scheme.releaseSchedule).mul(vestingPeriodsElapsed) */\n      tag_195\n        /* \"contract/tokenvesting.sol\":5311:5332  vestingPeriodsElapsed */\n      dup5\n        /* \"contract/tokenvesting.sol\":5265:5306  scheme.amount.mul(scheme.releaseSchedule) */\n      tag_196\n        /* \"contract/tokenvesting.sol\":5283:5289  scheme */\n      dup12\n        /* \"contract/tokenvesting.sol\":5283:5305  scheme.releaseSchedule */\n      0x60\n      add\n      mload\n        /* \"contract/tokenvesting.sol\":5265:5271  scheme */\n      dup13\n        /* \"contract/tokenvesting.sol\":5265:5278  scheme.amount */\n      0x80\n      add\n      mload\n        /* \"contract/tokenvesting.sol\":5265:5282  scheme.amount.mul */\n      tag_197\n      swap1\n        /* \"contract/tokenvesting.sol\":5265:5306  scheme.amount.mul(scheme.releaseSchedule) */\n      swap2\n      swap1\n      0xffffffff\n      and\n      jump\t// in\n    tag_196:\n        /* \"contract/tokenvesting.sol\":5265:5310  scheme.amount.mul(scheme.releaseSchedule).mul */\n      tag_197\n      swap1\n        /* \"contract/tokenvesting.sol\":5265:5333  scheme.amount.mul(scheme.releaseSchedule).mul(vestingPeriodsElapsed) */\n      swap2\n      swap1\n      0xffffffff\n      and\n      jump\t// in\n    tag_195:\n        /* \"contract/tokenvesting.sol\":5265:5337  scheme.amount.mul(scheme.releaseSchedule).mul(vestingPeriodsElapsed).div */\n      tag_193\n      swap1\n        /* \"contract/tokenvesting.sol\":5265:5356  scheme.amount.mul(scheme.releaseSchedule).mul(vestingPeriodsElapsed).div(durationInMinutes) */\n      swap2\n      swap1\n      0xffffffff\n      and\n      jump\t// in\n    tag_194:\n        /* \"contract/tokenvesting.sol\":5241:5356  uint256 releaseAmount = scheme.amount.mul(scheme.releaseSchedule).mul(vestingPeriodsElapsed).div(durationInMinutes) */\n      swap1\n      pop\n        /* \"contract/tokenvesting.sol\":5387:5427  releaseAmount.sub(scheme.tokensReleased) */\n      tag_198\n        /* \"contract/tokenvesting.sol\":5405:5411  scheme */\n      dup8\n        /* \"contract/tokenvesting.sol\":5405:5426  scheme.tokensReleased */\n      0xa0\n      add\n      mload\n        /* \"contract/tokenvesting.sol\":5387:5400  releaseAmount */\n      dup3\n        /* \"contract/tokenvesting.sol\":5387:5404  releaseAmount.sub */\n      tag_163\n      swap1\n        /* \"contract/tokenvesting.sol\":5387:5427  releaseAmount.sub(scheme.tokensReleased) */\n      swap2\n      swap1\n      0xffffffff\n      and\n      jump\t// in\n    tag_198:\n        /* \"contract/tokenvesting.sol\":5371:5427  releaseAmount = releaseAmount.sub(scheme.tokensReleased) */\n      swap1\n      pop\n        /* \"contract/tokenvesting.sol\":5449:5462  releaseAmount */\n      dup1\n        /* \"contract/tokenvesting.sol\":5442:5462  return releaseAmount */\n      swap6\n      pop\n      pop\n      pop\n      pop\n      pop\n      pop\n      jump(tag_181)\n        /* \"contract/tokenvesting.sol\":4920:5563  if (now_ < scheme.startTime.add(scheme.duration)){\r... */\n    tag_185:\n        /* \"contract/tokenvesting.sol\":5511:5551  scheme.amount.sub(scheme.tokensReleased) */\n      tag_200\n        /* \"contract/tokenvesting.sol\":5529:5535  scheme */\n      dup4\n        /* \"contract/tokenvesting.sol\":5529:5550  scheme.tokensReleased */\n      0xa0\n      add\n      mload\n        /* \"contract/tokenvesting.sol\":5511:5517  scheme */\n      dup5\n        /* \"contract/tokenvesting.sol\":5511:5524  scheme.amount */\n      0x80\n      add\n      mload\n        /* \"contract/tokenvesting.sol\":5511:5528  scheme.amount.sub */\n      tag_163\n      swap1\n        /* \"contract/tokenvesting.sol\":5511:5551  scheme.amount.sub(scheme.tokensReleased) */\n      swap2\n      swap1\n      0xffffffff\n      and\n      jump\t// in\n    tag_200:\n        /* \"contract/tokenvesting.sol\":5504:5551  return scheme.amount.sub(scheme.tokensReleased) */\n      swap2\n      pop\n      pop\n        /* \"contract/tokenvesting.sol\":4778:5584  function _calculateReleaseableAmount (vestingScheme memory scheme) internal view returns (uint256) {\r... */\n    tag_181:\n      swap2\n      swap1\n      pop\n      jump\t// out\n        /* \"https://github.com/OpenZeppelin/openzeppelin-contracts/blob/master/contracts/utils/math/SafeMath.sol\":2755:2851  function add(uint256 a, uint256 b) internal pure returns (uint256) {... */\n    tag_117:\n        /* \"https://github.com/OpenZeppelin/openzeppelin-contracts/blob/master/contracts/utils/math/SafeMath.sol\":2813:2820  uint256 */\n      0x00\n        /* \"https://github.com/OpenZeppelin/openzeppelin-contracts/blob/master/contracts/utils/math/SafeMath.sol\":2843:2844  b */\n      dup2\n        /* \"https://github.com/OpenZeppelin/openzeppelin-contracts/blob/master/contracts/utils/math/SafeMath.sol\":2839:2840  a */\n      dup4\n        /* \"https://github.com/OpenZeppelin/openzeppelin-contracts/blob/master/contracts/utils/math/SafeMath.sol\":2839:2844  a + b */\n      tag_202\n      swap2\n      swap1\n      tag_203\n      jump\t// in\n    tag_202:\n        /* \"https://github.com/OpenZeppelin/openzeppelin-contracts/blob/master/contracts/utils/math/SafeMath.sol\":2832:2844  return a + b */\n      swap1\n      pop\n        /* \"https://github.com/OpenZeppelin/openzeppelin-contracts/blob/master/contracts/utils/math/SafeMath.sol\":2755:2851  function add(uint256 a, uint256 b) internal pure returns (uint256) {... */\n      swap3\n      swap2\n      pop\n      pop\n      jump\t// out\n        /* \"https://github.com/OpenZeppelin/openzeppelin-contracts/blob/master/contracts/access/Ownable.sol\":2270:2457  function _transferOwnership(address newOwner) internal virtual {... */\n    tag_132:\n        /* \"https://github.com/OpenZeppelin/openzeppelin-contracts/blob/master/contracts/access/Ownable.sol\":2343:2359  address oldOwner */\n      0x00\n        /* \"https://github.com/OpenZeppelin/openzeppelin-contracts/blob/master/contracts/access/Ownable.sol\":2362:2368  _owner */\n      dup1\n      0x00\n      swap1\n      sload\n      swap1\n      0x0100\n      exp\n      swap1\n      div\n      0xffffffffffffffffffffffffffffffffffffffff\n      and\n        /* \"https://github.com/OpenZeppelin/openzeppelin-contracts/blob/master/contracts/access/Ownable.sol\":2343:2368  address oldOwner = _owner */\n      swap1\n      pop\n        /* \"https://github.com/OpenZeppelin/openzeppelin-contracts/blob/master/contracts/access/Ownable.sol\":2387:2395  newOwner */\n      dup2\n        /* \"https://github.com/OpenZeppelin/openzeppelin-contracts/blob/master/contracts/access/Ownable.sol\":2378:2384  _owner */\n      0x00\n      dup1\n        /* \"https://github.com/OpenZeppelin/openzeppelin-contracts/blob/master/contracts/access/Ownable.sol\":2378:2395  _owner = newOwner */\n      0x0100\n      exp\n      dup2\n      sload\n      dup2\n      0xffffffffffffffffffffffffffffffffffffffff\n      mul\n      not\n      and\n      swap1\n      dup4\n      0xffffffffffffffffffffffffffffffffffffffff\n      and\n      mul\n      or\n      swap1\n      sstore\n      pop\n        /* \"https://github.com/OpenZeppelin/openzeppelin-contracts/blob/master/contracts/access/Ownable.sol\":2441:2449  newOwner */\n      dup2\n        /* \"https://github.com/OpenZeppelin/openzeppelin-contracts/blob/master/contracts/access/Ownable.sol\":2410:2450  OwnershipTransferred(oldOwner, newOwner) */\n      0xffffffffffffffffffffffffffffffffffffffff\n      and\n        /* \"https://github.com/OpenZeppelin/openzeppelin-contracts/blob/master/contracts/access/Ownable.sol\":2431:2439  oldOwner */\n      dup2\n        /* \"https://github.com/OpenZeppelin/openzeppelin-contracts/blob/master/contracts/access/Ownable.sol\":2410:2450  OwnershipTransferred(oldOwner, newOwner) */\n      0xffffffffffffffffffffffffffffffffffffffff\n      and\n      0x8be0079c531659141344cd1fd0a4f28419497f9722a3daafe3b4186f6b6457e0\n      mload(0x40)\n      mload(0x40)\n      dup1\n      swap2\n      sub\n      swap1\n      log3\n        /* \"https://github.com/OpenZeppelin/openzeppelin-contracts/blob/master/contracts/access/Ownable.sol\":2270:2457  function _transferOwnership(address newOwner) internal virtual {... */\n      pop\n      pop\n      jump\t// out\n        /* \"contract/tokenvesting.sol\":5592:5789  function _calculateNewSchemeId (address _beneficiary, uint256 index) internal pure returns (uint256) {\r... */\n    tag_153:\n        /* \"contract/tokenvesting.sol\":5684:5691  uint256 */\n      0x00\n        /* \"contract/tokenvesting.sol\":5771:5781  1000000000 */\n      0x3b9aca00\n        /* \"contract/tokenvesting.sol\":5746:5758  _beneficiary */\n      dup4\n        /* \"contract/tokenvesting.sol\":5760:5765  index */\n      dup4\n        /* \"contract/tokenvesting.sol\":5729:5766  abi.encodePacked(_beneficiary, index) */\n      add(0x20, mload(0x40))\n      tag_206\n      swap3\n      swap2\n      swap1\n      tag_207\n      jump\t// in\n    tag_206:\n      mload(0x40)\n      0x20\n      dup2\n      dup4\n      sub\n      sub\n      dup2\n      mstore\n      swap1\n      0x40\n      mstore\n        /* \"contract/tokenvesting.sol\":5719:5767  keccak256(abi.encodePacked(_beneficiary, index)) */\n      dup1\n      mload\n      swap1\n      0x20\n      add\n      keccak256\n        /* \"contract/tokenvesting.sol\":5711:5768  uint256(keccak256(abi.encodePacked(_beneficiary, index))) */\n      0x00\n      shr\n        /* \"contract/tokenvesting.sol\":5711:5781  uint256(keccak256(abi.encodePacked(_beneficiary, index))) % 1000000000 */\n      tag_208\n      swap2\n      swap1\n      tag_209\n      jump\t// in\n    tag_208:\n        /* \"contract/tokenvesting.sol\":5704:5781  return uint256(keccak256(abi.encodePacked(_beneficiary, index))) % 1000000000 */\n      swap1\n      pop\n        /* \"contract/tokenvesting.sol\":5592:5789  function _calculateNewSchemeId (address _beneficiary, uint256 index) internal pure returns (uint256) {\r... */\n      swap3\n      swap2\n      pop\n      pop\n      jump\t// out\n        /* \"https://github.com/OpenZeppelin/openzeppelin-contracts/blob/master/contracts/utils/math/SafeMath.sol\":3122:3218  function sub(uint256 a, uint256 b) internal pure returns (uint256) {... */\n    tag_163:\n        /* \"https://github.com/OpenZeppelin/openzeppelin-contracts/blob/master/contracts/utils/math/SafeMath.sol\":3180:3187  uint256 */\n      0x00\n        /* \"https://github.com/OpenZeppelin/openzeppelin-contracts/blob/master/contracts/utils/math/SafeMath.sol\":3210:3211  b */\n      dup2\n        /* \"https://github.com/OpenZeppelin/openzeppelin-contracts/blob/master/contracts/utils/math/SafeMath.sol\":3206:3207  a */\n      dup4\n        /* \"https://github.com/OpenZeppelin/openzeppelin-contracts/blob/master/contracts/utils/math/SafeMath.sol\":3206:3211  a - b */\n      tag_211\n      swap2\n      swap1\n      tag_212\n      jump\t// in\n    tag_211:\n        /* \"https://github.com/OpenZeppelin/openzeppelin-contracts/blob/master/contracts/utils/math/SafeMath.sol\":3199:3211  return a - b */\n      swap1\n      pop\n        /* \"https://github.com/OpenZeppelin/openzeppelin-contracts/blob/master/contracts/utils/math/SafeMath.sol\":3122:3218  function sub(uint256 a, uint256 b) internal pure returns (uint256) {... */\n      swap3\n      swap2\n      pop\n      pop\n      jump\t// out\n        /* \"contract/tokenvesting.sol\":5797:5894  function _now() internal virtual view returns (uint256) {\r... */\n    tag_183:\n        /* \"contract/tokenvesting.sol\":5844:5851  uint256 */\n      0x00\n        /* \"contract/tokenvesting.sol\":5871:5886  block.timestamp */\n      timestamp\n        /* \"contract/tokenvesting.sol\":5864:5886  return block.timestamp */\n      swap1\n      pop\n        /* \"contract/tokenvesting.sol\":5797:5894  function _now() internal virtual view returns (uint256) {\r... */\n      swap1\n      jump\t// out\n        /* \"https://github.com/OpenZeppelin/openzeppelin-contracts/blob/master/contracts/utils/math/SafeMath.sol\":3850:3946  function div(uint256 a, uint256 b) internal pure returns (uint256) {... */\n    tag_193:\n        /* \"https://github.com/OpenZeppelin/openzeppelin-contracts/blob/master/contracts/utils/math/SafeMath.sol\":3908:3915  uint256 */\n      0x00\n        /* \"https://github.com/OpenZeppelin/openzeppelin-contracts/blob/master/contracts/utils/math/SafeMath.sol\":3938:3939  b */\n      dup2\n        /* \"https://github.com/OpenZeppelin/openzeppelin-contracts/blob/master/contracts/utils/math/SafeMath.sol\":3934:3935  a */\n      dup4\n        /* \"https://github.com/OpenZeppelin/openzeppelin-contracts/blob/master/contracts/utils/math/SafeMath.sol\":3934:3939  a / b */\n      tag_215\n      swap2\n      swap1\n      tag_190\n      jump\t// in\n    tag_215:\n        /* \"https://github.com/OpenZeppelin/openzeppelin-contracts/blob/master/contracts/utils/math/SafeMath.sol\":3927:3939  return a / b */\n      swap1\n      pop\n        /* \"https://github.com/OpenZeppelin/openzeppelin-contracts/blob/master/contracts/utils/math/SafeMath.sol\":3850:3946  function div(uint256 a, uint256 b) internal pure returns (uint256) {... */\n      swap3\n      swap2\n      pop\n      pop\n      jump\t// out\n        /* \"https://github.com/OpenZeppelin/openzeppelin-contracts/blob/master/contracts/utils/math/SafeMath.sol\":3465:3561  function mul(uint256 a, uint256 b) internal pure returns (uint256) {... */\n    tag_197:\n        /* \"https://github.com/OpenZeppelin/openzeppelin-contracts/blob/master/contracts/utils/math/SafeMath.sol\":3523:3530  uint256 */\n      0x00\n        /* \"https://github.com/OpenZeppelin/openzeppelin-contracts/blob/master/contracts/utils/math/SafeMath.sol\":3553:3554  b */\n      dup2\n        /* \"https://github.com/OpenZeppelin/openzeppelin-contracts/blob/master/contracts/utils/math/SafeMath.sol\":3549:3550  a */\n      dup4\n        /* \"https://github.com/OpenZeppelin/openzeppelin-contracts/blob/master/contracts/utils/math/SafeMath.sol\":3549:3554  a * b */\n      tag_217\n      swap2\n      swap1\n      tag_187\n      jump\t// in\n    tag_217:\n        /* \"https://github.com/OpenZeppelin/openzeppelin-contracts/blob/master/contracts/utils/math/SafeMath.sol\":3542:3554  return a * b */\n      swap1\n      pop\n        /* \"https://github.com/OpenZeppelin/openzeppelin-contracts/blob/master/contracts/utils/math/SafeMath.sol\":3465:3561  function mul(uint256 a, uint256 b) internal pure returns (uint256) {... */\n      swap3\n      swap2\n      pop\n      pop\n      jump\t// out\n    tag_166:\n      mload(0x40)\n      dup1\n      0xe0\n      add\n      0x40\n      mstore\n      dup1\n      and(0xffffffffffffffffffffffffffffffffffffffff, 0x00)\n      dup2\n      mstore\n      0x20\n      add\n      0x00\n      dup2\n      mstore\n      0x20\n      add\n      0x00\n      dup2\n      mstore\n      0x20\n      add\n      0x00\n      dup2\n      mstore\n      0x20\n      add\n      0x00\n      dup2\n      mstore\n      0x20\n      add\n      0x00\n      dup2\n      mstore\n      0x20\n      add\n      iszero(iszero(0x00))\n      dup2\n      mstore\n      pop\n      swap1\n      jump\t// out\n        /* \"#utility.yul\":7:146   */\n    tag_219:\n      0x00\n        /* \"#utility.yul\":91:97   */\n      dup2\n        /* \"#utility.yul\":78:98   */\n      calldataload\n        /* \"#utility.yul\":69:98   */\n      swap1\n      pop\n        /* \"#utility.yul\":107:140   */\n      tag_221\n        /* \"#utility.yul\":134:139   */\n      dup2\n        /* \"#utility.yul\":107:140   */\n      tag_222\n      jump\t// in\n    tag_221:\n        /* \"#utility.yul\":59:146   */\n      swap3\n      swap2\n      pop\n      pop\n      jump\t// out\n        /* \"#utility.yul\":152:289   */\n    tag_223:\n      0x00\n        /* \"#utility.yul\":237:243   */\n      dup2\n        /* \"#utility.yul\":231:244   */\n      mload\n        /* \"#utility.yul\":222:244   */\n      swap1\n      pop\n        /* \"#utility.yul\":253:283   */\n      tag_225\n        /* \"#utility.yul\":277:282   */\n      dup2\n        /* \"#utility.yul\":253:283   */\n      tag_226\n      jump\t// in\n    tag_225:\n        /* \"#utility.yul\":212:289   */\n      swap3\n      swap2\n      pop\n      pop\n      jump\t// out\n        /* \"#utility.yul\":295:434   */\n    tag_227:\n      0x00\n        /* \"#utility.yul\":379:385   */\n      dup2\n        /* \"#utility.yul\":366:386   */\n      calldataload\n        /* \"#utility.yul\":357:386   */\n      swap1\n      pop\n        /* \"#utility.yul\":395:428   */\n      tag_229\n        /* \"#utility.yul\":422:427   */\n      dup2\n        /* \"#utility.yul\":395:428   */\n      tag_230\n      jump\t// in\n    tag_229:\n        /* \"#utility.yul\":347:434   */\n      swap3\n      swap2\n      pop\n      pop\n      jump\t// out\n        /* \"#utility.yul\":440:702   */\n    tag_39:\n      0x00\n        /* \"#utility.yul\":548:550   */\n      0x20\n        /* \"#utility.yul\":536:545   */\n      dup3\n        /* \"#utility.yul\":527:534   */\n      dup5\n        /* \"#utility.yul\":523:546   */\n      sub\n        /* \"#utility.yul\":519:551   */\n      slt\n        /* \"#utility.yul\":516:518   */\n      iszero\n      tag_232\n      jumpi\n        /* \"#utility.yul\":564:565   */\n      0x00\n        /* \"#utility.yul\":561:562   */\n      dup1\n        /* \"#utility.yul\":554:566   */\n      revert\n        /* \"#utility.yul\":516:518   */\n    tag_232:\n        /* \"#utility.yul\":607:608   */\n      0x00\n        /* \"#utility.yul\":632:685   */\n      tag_233\n        /* \"#utility.yul\":677:684   */\n      dup5\n        /* \"#utility.yul\":668:674   */\n      dup3\n        /* \"#utility.yul\":657:666   */\n      dup6\n        /* \"#utility.yul\":653:675   */\n      add\n        /* \"#utility.yul\":632:685   */\n      tag_219\n      jump\t// in\n    tag_233:\n        /* \"#utility.yul\":622:685   */\n      swap2\n      pop\n        /* \"#utility.yul\":578:695   */\n      pop\n        /* \"#utility.yul\":506:702   */\n      swap3\n      swap2\n      pop\n      pop\n      jump\t// out\n        /* \"#utility.yul\":708:1552   */\n    tag_58:\n      0x00\n      dup1\n      0x00\n      dup1\n      0x00\n        /* \"#utility.yul\":884:887   */\n      0xa0\n        /* \"#utility.yul\":872:881   */\n      dup7\n        /* \"#utility.yul\":863:870   */\n      dup9\n        /* \"#utility.yul\":859:882   */\n      sub\n        /* \"#utility.yul\":855:888   */\n      slt\n        /* \"#utility.yul\":852:854   */\n      iszero\n      tag_235\n      jumpi\n        /* \"#utility.yul\":901:902   */\n      0x00\n        /* \"#utility.yul\":898:899   */\n      dup1\n        /* \"#utility.yul\":891:903   */\n      revert\n        /* \"#utility.yul\":852:854   */\n    tag_235:\n        /* \"#utility.yul\":944:945   */\n      0x00\n        /* \"#utility.yul\":969:1022   */\n      tag_236\n        /* \"#utility.yul\":1014:1021   */\n      dup9\n        /* \"#utility.yul\":1005:1011   */\n      dup3\n        /* \"#utility.yul\":994:1003   */\n      dup10\n        /* \"#utility.yul\":990:1012   */\n      add\n        /* \"#utility.yul\":969:1022   */\n      tag_219\n      jump\t// in\n    tag_236:\n        /* \"#utility.yul\":959:1022   */\n      swap6\n      pop\n        /* \"#utility.yul\":915:1032   */\n      pop\n        /* \"#utility.yul\":1071:1073   */\n      0x20\n        /* \"#utility.yul\":1097:1150   */\n      tag_237\n        /* \"#utility.yul\":1142:1149   */\n      dup9\n        /* \"#utility.yul\":1133:1139   */\n      dup3\n        /* \"#utility.yul\":1122:1131   */\n      dup10\n        /* \"#utility.yul\":1118:1140   */\n      add\n        /* \"#utility.yul\":1097:1150   */\n      tag_227\n      jump\t// in\n    tag_237:\n        /* \"#utility.yul\":1087:1150   */\n      swap5\n      pop\n        /* \"#utility.yul\":1042:1160   */\n      pop\n        /* \"#utility.yul\":1199:1201   */\n      0x40\n        /* \"#utility.yul\":1225:1278   */\n      tag_238\n        /* \"#utility.yul\":1270:1277   */\n      dup9\n        /* \"#utility.yul\":1261:1267   */\n      dup3\n        /* \"#utility.yul\":1250:1259   */\n      dup10\n        /* \"#utility.yul\":1246:1268   */\n      add\n        /* \"#utility.yul\":1225:1278   */\n      tag_227\n      jump\t// in\n    tag_238:\n        /* \"#utility.yul\":1215:1278   */\n      swap4\n      pop\n        /* \"#utility.yul\":1170:1288   */\n      pop\n        /* \"#utility.yul\":1327:1329   */\n      0x60\n        /* \"#utility.yul\":1353:1406   */\n      tag_239\n        /* \"#utility.yul\":1398:1405   */\n      dup9\n        /* \"#utility.yul\":1389:1395   */\n      dup3\n        /* \"#utility.yul\":1378:1387   */\n      dup10\n        /* \"#utility.yul\":1374:1396   */\n      add\n        /* \"#utility.yul\":1353:1406   */\n      tag_227\n      jump\t// in\n    tag_239:\n        /* \"#utility.yul\":1343:1406   */\n      swap3\n      pop\n        /* \"#utility.yul\":1298:1416   */\n      pop\n        /* \"#utility.yul\":1455:1458   */\n      0x80\n        /* \"#utility.yul\":1482:1535   */\n      tag_240\n        /* \"#utility.yul\":1527:1534   */\n      dup9\n        /* \"#utility.yul\":1518:1524   */\n      dup3\n        /* \"#utility.yul\":1507:1516   */\n      dup10\n        /* \"#utility.yul\":1503:1525   */\n      add\n        /* \"#utility.yul\":1482:1535   */\n      tag_227\n      jump\t// in\n    tag_240:\n        /* \"#utility.yul\":1472:1535   */\n      swap2\n      pop\n        /* \"#utility.yul\":1426:1545   */\n      pop\n        /* \"#utility.yul\":842:1552   */\n      swap3\n      swap6\n      pop\n      swap3\n      swap6\n      swap1\n      swap4\n      pop\n      jump\t// out\n        /* \"#utility.yul\":1558:1836   */\n    tag_124:\n      0x00\n        /* \"#utility.yul\":1674:1676   */\n      0x20\n        /* \"#utility.yul\":1662:1671   */\n      dup3\n        /* \"#utility.yul\":1653:1660   */\n      dup5\n        /* \"#utility.yul\":1649:1672   */\n      sub\n        /* \"#utility.yul\":1645:1677   */\n      slt\n        /* \"#utility.yul\":1642:1644   */\n      iszero\n      tag_242\n      jumpi\n        /* \"#utility.yul\":1690:1691   */\n      0x00\n        /* \"#utility.yul\":1687:1688   */\n      dup1\n        /* \"#utility.yul\":1680:1692   */\n      revert\n        /* \"#utility.yul\":1642:1644   */\n    tag_242:\n        /* \"#utility.yul\":1733:1734   */\n      0x00\n        /* \"#utility.yul\":1758:1819   */\n      tag_243\n        /* \"#utility.yul\":1811:1818   */\n      dup5\n        /* \"#utility.yul\":1802:1808   */\n      dup3\n        /* \"#utility.yul\":1791:1800   */\n      dup6\n        /* \"#utility.yul\":1787:1809   */\n      add\n        /* \"#utility.yul\":1758:1819   */\n      tag_223\n      jump\t// in\n    tag_243:\n        /* \"#utility.yul\":1748:1819   */\n      swap2\n      pop\n        /* \"#utility.yul\":1704:1829   */\n      pop\n        /* \"#utility.yul\":1632:1836   */\n      swap3\n      swap2\n      pop\n      pop\n      jump\t// out\n        /* \"#utility.yul\":1842:2104   */\n    tag_25:\n      0x00\n        /* \"#utility.yul\":1950:1952   */\n      0x20\n        /* \"#utility.yul\":1938:1947   */\n      dup3\n        /* \"#utility.yul\":1929:1936   */\n      dup5\n        /* \"#utility.yul\":1925:1948   */\n      sub\n        /* \"#utility.yul\":1921:1953   */\n      slt\n        /* \"#utility.yul\":1918:1920   */\n      iszero\n      tag_245\n      jumpi\n        /* \"#utility.yul\":1966:1967   */\n      0x00\n        /* \"#utility.yul\":1963:1964   */\n      dup1\n        /* \"#utility.yul\":1956:1968   */\n      revert\n        /* \"#utility.yul\":1918:1920   */\n    tag_245:\n        /* \"#utility.yul\":2009:2010   */\n      0x00\n        /* \"#utility.yul\":2034:2087   */\n      tag_246\n        /* \"#utility.yul\":2079:2086   */\n      dup5\n        /* \"#utility.yul\":2070:2076   */\n      dup3\n        /* \"#utility.yul\":2059:2068   */\n      dup6\n        /* \"#utility.yul\":2055:2077   */\n      add\n        /* \"#utility.yul\":2034:2087   */\n      tag_227\n      jump\t// in\n    tag_246:\n        /* \"#utility.yul\":2024:2087   */\n      swap2\n      pop\n        /* \"#utility.yul\":1980:2097   */\n      pop\n        /* \"#utility.yul\":1908:2104   */\n      swap3\n      swap2\n      pop\n      pop\n      jump\t// out\n        /* \"#utility.yul\":2110:2517   */\n    tag_46:\n      0x00\n      dup1\n        /* \"#utility.yul\":2235:2237   */\n      0x40\n        /* \"#utility.yul\":2223:2232   */\n      dup4\n        /* \"#utility.yul\":2214:2221   */\n      dup6\n        /* \"#utility.yul\":2210:2233   */\n      sub\n        /* \"#utility.yul\":2206:2238   */\n      slt\n        /* \"#utility.yul\":2203:2205   */\n      iszero\n      tag_248\n      jumpi\n        /* \"#utility.yul\":2251:2252   */\n      0x00\n        /* \"#utility.yul\":2248:2249   */\n      dup1\n        /* \"#utility.yul\":2241:2253   */\n      revert\n        /* \"#utility.yul\":2203:2205   */\n    tag_248:\n        /* \"#utility.yul\":2294:2295   */\n      0x00\n        /* \"#utility.yul\":2319:2372   */\n      tag_249\n        /* \"#utility.yul\":2364:2371   */\n      dup6\n        /* \"#utility.yul\":2355:2361   */\n      dup3\n        /* \"#utility.yul\":2344:2353   */\n      dup7\n        /* \"#utility.yul\":2340:2362   */\n      add\n        /* \"#utility.yul\":2319:2372   */\n      tag_227\n      jump\t// in\n    tag_249:\n        /* \"#utility.yul\":2309:2372   */\n      swap3\n      pop\n        /* \"#utility.yul\":2265:2382   */\n      pop\n        /* \"#utility.yul\":2421:2423   */\n      0x20\n        /* \"#utility.yul\":2447:2500   */\n      tag_250\n        /* \"#utility.yul\":2492:2499   */\n      dup6\n        /* \"#utility.yul\":2483:2489   */\n      dup3\n        /* \"#utility.yul\":2472:2481   */\n      dup7\n        /* \"#utility.yul\":2468:2490   */\n      add\n        /* \"#utility.yul\":2447:2500   */\n      tag_227\n      jump\t// in\n    tag_250:\n        /* \"#utility.yul\":2437:2500   */\n      swap2\n      pop\n        /* \"#utility.yul\":2392:2510   */\n      pop\n        /* \"#utility.yul\":2193:2517   */\n      swap3\n      pop\n      swap3\n      swap1\n      pop\n      jump\t// out\n        /* \"#utility.yul\":2523:2702   */\n    tag_251:\n      0x00\n        /* \"#utility.yul\":2613:2659   */\n      tag_253\n        /* \"#utility.yul\":2655:2658   */\n      dup4\n        /* \"#utility.yul\":2647:2653   */\n      dup4\n        /* \"#utility.yul\":2613:2659   */\n      tag_254\n      jump\t// in\n    tag_253:\n        /* \"#utility.yul\":2691:2695   */\n      0x20\n        /* \"#utility.yul\":2686:2689   */\n      dup4\n        /* \"#utility.yul\":2682:2696   */\n      add\n        /* \"#utility.yul\":2668:2696   */\n      swap1\n      pop\n        /* \"#utility.yul\":2603:2702   */\n      swap3\n      swap2\n      pop\n      pop\n      jump\t// out\n        /* \"#utility.yul\":2708:2816   */\n    tag_255:\n        /* \"#utility.yul\":2785:2809   */\n      tag_257\n        /* \"#utility.yul\":2803:2808   */\n      dup2\n        /* \"#utility.yul\":2785:2809   */\n      tag_258\n      jump\t// in\n    tag_257:\n        /* \"#utility.yul\":2780:2783   */\n      dup3\n        /* \"#utility.yul\":2773:2810   */\n      mstore\n        /* \"#utility.yul\":2763:2816   */\n      pop\n      pop\n      jump\t// out\n        /* \"#utility.yul\":2822:2940   */\n    tag_259:\n        /* \"#utility.yul\":2909:2933   */\n      tag_261\n        /* \"#utility.yul\":2927:2932   */\n      dup2\n        /* \"#utility.yul\":2909:2933   */\n      tag_258\n      jump\t// in\n    tag_261:\n        /* \"#utility.yul\":2904:2907   */\n      dup3\n        /* \"#utility.yul\":2897:2934   */\n      mstore\n        /* \"#utility.yul\":2887:2940   */\n      pop\n      pop\n      jump\t// out\n        /* \"#utility.yul\":2946:3103   */\n    tag_262:\n        /* \"#utility.yul\":3051:3096   */\n      tag_264\n        /* \"#utility.yul\":3071:3095   */\n      tag_265\n        /* \"#utility.yul\":3089:3094   */\n      dup3\n        /* \"#utility.yul\":3071:3095   */\n      tag_258\n      jump\t// in\n    tag_265:\n        /* \"#utility.yul\":3051:3096   */\n      tag_266\n      jump\t// in\n    tag_264:\n        /* \"#utility.yul\":3046:3049   */\n      dup3\n        /* \"#utility.yul\":3039:3097   */\n      mstore\n        /* \"#utility.yul\":3029:3103   */\n      pop\n      pop\n      jump\t// out\n        /* \"#utility.yul\":3139:3871   */\n    tag_267:\n      0x00\n        /* \"#utility.yul\":3287:3341   */\n      tag_269\n        /* \"#utility.yul\":3335:3340   */\n      dup3\n        /* \"#utility.yul\":3287:3341   */\n      tag_270\n      jump\t// in\n    tag_269:\n        /* \"#utility.yul\":3357:3443   */\n      tag_271\n        /* \"#utility.yul\":3436:3442   */\n      dup2\n        /* \"#utility.yul\":3431:3434   */\n      dup6\n        /* \"#utility.yul\":3357:3443   */\n      tag_272\n      jump\t// in\n    tag_271:\n        /* \"#utility.yul\":3350:3443   */\n      swap4\n      pop\n        /* \"#utility.yul\":3467:3523   */\n      tag_273\n        /* \"#utility.yul\":3517:3522   */\n      dup4\n        /* \"#utility.yul\":3467:3523   */\n      tag_274\n      jump\t// in\n    tag_273:\n        /* \"#utility.yul\":3546:3553   */\n      dup1\n        /* \"#utility.yul\":3577:3578   */\n      0x00\n        /* \"#utility.yul\":3562:3846   */\n    tag_275:\n        /* \"#utility.yul\":3587:3593   */\n      dup4\n        /* \"#utility.yul\":3584:3585   */\n      dup2\n        /* \"#utility.yul\":3581:3594   */\n      lt\n        /* \"#utility.yul\":3562:3846   */\n      iszero\n      tag_277\n      jumpi\n        /* \"#utility.yul\":3663:3669   */\n      dup2\n        /* \"#utility.yul\":3657:3670   */\n      mload\n        /* \"#utility.yul\":3690:3753   */\n      tag_278\n        /* \"#utility.yul\":3749:3752   */\n      dup9\n        /* \"#utility.yul\":3734:3747   */\n      dup3\n        /* \"#utility.yul\":3690:3753   */\n      tag_251\n      jump\t// in\n    tag_278:\n        /* \"#utility.yul\":3683:3753   */\n      swap8\n      pop\n        /* \"#utility.yul\":3776:3836   */\n      tag_279\n        /* \"#utility.yul\":3829:3835   */\n      dup4\n        /* \"#utility.yul\":3776:3836   */\n      tag_280\n      jump\t// in\n    tag_279:\n        /* \"#utility.yul\":3766:3836   */\n      swap3\n      pop\n        /* \"#utility.yul\":3622:3846   */\n      pop\n        /* \"#utility.yul\":3609:3610   */\n      0x01\n        /* \"#utility.yul\":3606:3607   */\n      dup2\n        /* \"#utility.yul\":3602:3611   */\n      add\n        /* \"#utility.yul\":3597:3611   */\n      swap1\n      pop\n        /* \"#utility.yul\":3562:3846   */\n      jump(tag_275)\n    tag_277:\n        /* \"#utility.yul\":3566:3580   */\n      pop\n        /* \"#utility.yul\":3862:3865   */\n      dup6\n        /* \"#utility.yul\":3855:3865   */\n      swap4\n      pop\n        /* \"#utility.yul\":3263:3871   */\n      pop\n      pop\n      pop\n      swap3\n      swap2\n      pop\n      pop\n      jump\t// out\n        /* \"#utility.yul\":3877:3976   */\n    tag_281:\n        /* \"#utility.yul\":3948:3969   */\n      tag_283\n        /* \"#utility.yul\":3963:3968   */\n      dup2\n        /* \"#utility.yul\":3948:3969   */\n      tag_284\n      jump\t// in\n    tag_283:\n        /* \"#utility.yul\":3943:3946   */\n      dup3\n        /* \"#utility.yul\":3936:3970   */\n      mstore\n        /* \"#utility.yul\":3926:3976   */\n      pop\n      pop\n      jump\t// out\n        /* \"#utility.yul\":3982:4352   */\n    tag_285:\n      0x00\n        /* \"#utility.yul\":4145:4212   */\n      tag_287\n        /* \"#utility.yul\":4209:4211   */\n      0x26\n        /* \"#utility.yul\":4204:4207   */\n      dup4\n        /* \"#utility.yul\":4145:4212   */\n      tag_288\n      jump\t// in\n    tag_287:\n        /* \"#utility.yul\":4138:4212   */\n      swap2\n      pop\n        /* \"#utility.yul\":4242:4276   */\n      0x4f776e61626c653a206e6577206f776e657220697320746865207a65726f2061\n        /* \"#utility.yul\":4238:4239   */\n      0x00\n        /* \"#utility.yul\":4233:4236   */\n      dup4\n        /* \"#utility.yul\":4229:4240   */\n      add\n        /* \"#utility.yul\":4222:4277   */\n      mstore\n        /* \"#utility.yul\":4308:4316   */\n      0x6464726573730000000000000000000000000000000000000000000000000000\n        /* \"#utility.yul\":4303:4305   */\n      0x20\n        /* \"#utility.yul\":4298:4301   */\n      dup4\n        /* \"#utility.yul\":4294:4306   */\n      add\n        /* \"#utility.yul\":4287:4317   */\n      mstore\n        /* \"#utility.yul\":4343:4345   */\n      0x40\n        /* \"#utility.yul\":4338:4341   */\n      dup3\n        /* \"#utility.yul\":4334:4346   */\n      add\n        /* \"#utility.yul\":4327:4346   */\n      swap1\n      pop\n        /* \"#utility.yul\":4128:4352   */\n      swap2\n      swap1\n      pop\n      jump\t// out\n        /* \"#utility.yul\":4358:4744   */\n    tag_289:\n      0x00\n        /* \"#utility.yul\":4521:4588   */\n      tag_291\n        /* \"#utility.yul\":4585:4587   */\n      0x36\n        /* \"#utility.yul\":4580:4583   */\n      dup4\n        /* \"#utility.yul\":4521:4588   */\n      tag_288\n      jump\t// in\n    tag_291:\n        /* \"#utility.yul\":4514:4588   */\n      swap2\n      pop\n        /* \"#utility.yul\":4618:4652   */\n      0x546f6b656e56657374696e673a2056657374696e6720706572696f64206d7573\n        /* \"#utility.yul\":4614:4615   */\n      0x00\n        /* \"#utility.yul\":4609:4612   */\n      dup4\n        /* \"#utility.yul\":4605:4616   */\n      add\n        /* \"#utility.yul\":4598:4653   */\n      mstore\n        /* \"#utility.yul\":4684:4708   */\n      0x742062652067726561746572207468616e207a65726f00000000000000000000\n        /* \"#utility.yul\":4679:4681   */\n      0x20\n        /* \"#utility.yul\":4674:4677   */\n      dup4\n        /* \"#utility.yul\":4670:4682   */\n      add\n        /* \"#utility.yul\":4663:4709   */\n      mstore\n        /* \"#utility.yul\":4735:4737   */\n      0x40\n        /* \"#utility.yul\":4730:4733   */\n      dup3\n        /* \"#utility.yul\":4726:4738   */\n      add\n        /* \"#utility.yul\":4719:4738   */\n      swap1\n      pop\n        /* \"#utility.yul\":4504:4744   */\n      swap2\n      swap1\n      pop\n      jump\t// out\n        /* \"#utility.yul\":4750:5182   */\n    tag_292:\n      0x00\n        /* \"#utility.yul\":4913:4980   */\n      tag_294\n        /* \"#utility.yul\":4977:4979   */\n      0x42\n        /* \"#utility.yul\":4972:4975   */\n      dup4\n        /* \"#utility.yul\":4913:4980   */\n      tag_288\n      jump\t// in\n    tag_294:\n        /* \"#utility.yul\":4906:4980   */\n      swap2\n      pop\n        /* \"#utility.yul\":5010:5044   */\n      0x546f6b656e56657374696e673a20536368656d6520636f756e7420666f722074\n        /* \"#utility.yul\":5006:5007   */\n      0x00\n        /* \"#utility.yul\":5001:5004   */\n      dup4\n        /* \"#utility.yul\":4997:5008   */\n      add\n        /* \"#utility.yul\":4990:5045   */\n      mstore\n        /* \"#utility.yul\":5076:5110   */\n      0x6869732062656e6566696369617279206861732072656163686564206c696d69\n        /* \"#utility.yul\":5071:5073   */\n      0x20\n        /* \"#utility.yul\":5066:5069   */\n      dup4\n        /* \"#utility.yul\":5062:5074   */\n      add\n        /* \"#utility.yul\":5055:5111   */\n      mstore\n        /* \"#utility.yul\":5142:5146   */\n      0x742e000000000000000000000000000000000000000000000000000000000000\n        /* \"#utility.yul\":5137:5139   */\n      0x40\n        /* \"#utility.yul\":5132:5135   */\n      dup4\n        /* \"#utility.yul\":5128:5140   */\n      add\n        /* \"#utility.yul\":5121:5147   */\n      mstore\n        /* \"#utility.yul\":5173:5175   */\n      0x60\n        /* \"#utility.yul\":5168:5171   */\n      dup3\n        /* \"#utility.yul\":5164:5176   */\n      add\n        /* \"#utility.yul\":5157:5176   */\n      swap1\n      pop\n        /* \"#utility.yul\":4896:5182   */\n      swap2\n      swap1\n      pop\n      jump\t// out\n        /* \"#utility.yul\":5188:5572   */\n    tag_295:\n      0x00\n        /* \"#utility.yul\":5351:5418   */\n      tag_297\n        /* \"#utility.yul\":5415:5417   */\n      0x34\n        /* \"#utility.yul\":5410:5413   */\n      dup4\n        /* \"#utility.yul\":5351:5418   */\n      tag_288\n      jump\t// in\n    tag_297:\n        /* \"#utility.yul\":5344:5418   */\n      swap2\n      pop\n        /* \"#utility.yul\":5448:5482   */\n      0x546f6b656e56657374696e673a2043616e6e6f7420616464207a65726f206164\n        /* \"#utility.yul\":5444:5445   */\n      0x00\n        /* \"#utility.yul\":5439:5442   */\n      dup4\n        /* \"#utility.yul\":5435:5446   */\n      add\n        /* \"#utility.yul\":5428:5483   */\n      mstore\n        /* \"#utility.yul\":5514:5536   */\n      0x64726573732061732062656e6566696369617279000000000000000000000000\n        /* \"#utility.yul\":5509:5511   */\n      0x20\n        /* \"#utility.yul\":5504:5507   */\n      dup4\n        /* \"#utility.yul\":5500:5512   */\n      add\n        /* \"#utility.yul\":5493:5537   */\n      mstore\n        /* \"#utility.yul\":5563:5565   */\n      0x40\n        /* \"#utility.yul\":5558:5561   */\n      dup3\n        /* \"#utility.yul\":5554:5566   */\n      add\n        /* \"#utility.yul\":5547:5566   */\n      swap1\n      pop\n        /* \"#utility.yul\":5334:5572   */\n      swap2\n      swap1\n      pop\n      jump\t// out\n        /* \"#utility.yul\":5578:5974   */\n    tag_298:\n      0x00\n        /* \"#utility.yul\":5741:5808   */\n      tag_300\n        /* \"#utility.yul\":5805:5807   */\n      0x40\n        /* \"#utility.yul\":5800:5803   */\n      dup4\n        /* \"#utility.yul\":5741:5808   */\n      tag_288\n      jump\t// in\n    tag_300:\n        /* \"#utility.yul\":5734:5808   */\n      swap2\n      pop\n        /* \"#utility.yul\":5838:5872   */\n      0x546f6b656e56657374696e673a2056657374696e6720536368656d6520697320\n        /* \"#utility.yul\":5834:5835   */\n      0x00\n        /* \"#utility.yul\":5829:5832   */\n      dup4\n        /* \"#utility.yul\":5825:5836   */\n      add\n        /* \"#utility.yul\":5818:5873   */\n      mstore\n        /* \"#utility.yul\":5904:5938   */\n      0x6569746865722064656c65746564206f7220646f6573206e6f74206578697374\n        /* \"#utility.yul\":5899:5901   */\n      0x20\n        /* \"#utility.yul\":5894:5897   */\n      dup4\n        /* \"#utility.yul\":5890:5902   */\n      add\n        /* \"#utility.yul\":5883:5939   */\n      mstore\n        /* \"#utility.yul\":5965:5967   */\n      0x40\n        /* \"#utility.yul\":5960:5963   */\n      dup3\n        /* \"#utility.yul\":5956:5968   */\n      add\n        /* \"#utility.yul\":5949:5968   */\n      swap1\n      pop\n        /* \"#utility.yul\":5724:5974   */\n      swap2\n      swap1\n      pop\n      jump\t// out\n        /* \"#utility.yul\":5980:6364   */\n    tag_301:\n      0x00\n        /* \"#utility.yul\":6143:6210   */\n      tag_303\n        /* \"#utility.yul\":6207:6209   */\n      0x34\n        /* \"#utility.yul\":6202:6205   */\n      dup4\n        /* \"#utility.yul\":6143:6210   */\n      tag_288\n      jump\t// in\n    tag_303:\n        /* \"#utility.yul\":6136:6210   */\n      swap2\n      pop\n        /* \"#utility.yul\":6240:6274   */\n      0x546f6b656e56657374696e673a205665737461626c6520616d6f756e74206d75\n        /* \"#utility.yul\":6236:6237   */\n      0x00\n        /* \"#utility.yul\":6231:6234   */\n      dup4\n        /* \"#utility.yul\":6227:6238   */\n      add\n        /* \"#utility.yul\":6220:6275   */\n      mstore\n        /* \"#utility.yul\":6306:6328   */\n      0x73742062652067726561746572207468616e2030000000000000000000000000\n        /* \"#utility.yul\":6301:6303   */\n      0x20\n        /* \"#utility.yul\":6296:6299   */\n      dup4\n        /* \"#utility.yul\":6292:6304   */\n      add\n        /* \"#utility.yul\":6285:6329   */\n      mstore\n        /* \"#utility.yul\":6355:6357   */\n      0x40\n        /* \"#utility.yul\":6350:6353   */\n      dup3\n        /* \"#utility.yul\":6346:6358   */\n      add\n        /* \"#utility.yul\":6339:6358   */\n      swap1\n      pop\n        /* \"#utility.yul\":6126:6364   */\n      swap2\n      swap1\n      pop\n      jump\t// out\n        /* \"#utility.yul\":6370:6700   */\n    tag_304:\n      0x00\n        /* \"#utility.yul\":6533:6600   */\n      tag_306\n        /* \"#utility.yul\":6597:6599   */\n      0x20\n        /* \"#utility.yul\":6592:6595   */\n      dup4\n        /* \"#utility.yul\":6533:6600   */\n      tag_288\n      jump\t// in\n    tag_306:\n        /* \"#utility.yul\":6526:6600   */\n      swap2\n      pop\n        /* \"#utility.yul\":6630:6664   */\n      0x4f776e61626c653a2063616c6c6572206973206e6f7420746865206f776e6572\n        /* \"#utility.yul\":6626:6627   */\n      0x00\n        /* \"#utility.yul\":6621:6624   */\n      dup4\n        /* \"#utility.yul\":6617:6628   */\n      add\n        /* \"#utility.yul\":6610:6665   */\n      mstore\n        /* \"#utility.yul\":6691:6693   */\n      0x20\n        /* \"#utility.yul\":6686:6689   */\n      dup3\n        /* \"#utility.yul\":6682:6694   */\n      add\n        /* \"#utility.yul\":6675:6694   */\n      swap1\n      pop\n        /* \"#utility.yul\":6516:6700   */\n      swap2\n      swap1\n      pop\n      jump\t// out\n        /* \"#utility.yul\":6706:7093   */\n    tag_307:\n      0x00\n        /* \"#utility.yul\":6869:6936   */\n      tag_309\n        /* \"#utility.yul\":6933:6935   */\n      0x37\n        /* \"#utility.yul\":6928:6931   */\n      dup4\n        /* \"#utility.yul\":6869:6936   */\n      tag_288\n      jump\t// in\n    tag_309:\n        /* \"#utility.yul\":6862:6936   */\n      swap2\n      pop\n        /* \"#utility.yul\":6966:7000   */\n      0x546f6b656e56657374696e673a20416d6f756e74206772656174657220746861\n        /* \"#utility.yul\":6962:6963   */\n      0x00\n        /* \"#utility.yul\":6957:6960   */\n      dup4\n        /* \"#utility.yul\":6953:6964   */\n      add\n        /* \"#utility.yul\":6946:7001   */\n      mstore\n        /* \"#utility.yul\":7032:7057   */\n      0x6e2063757272656e742076657374656420616d6f756e74000000000000000000\n        /* \"#utility.yul\":7027:7029   */\n      0x20\n        /* \"#utility.yul\":7022:7025   */\n      dup4\n        /* \"#utility.yul\":7018:7030   */\n      add\n        /* \"#utility.yul\":7011:7058   */\n      mstore\n        /* \"#utility.yul\":7084:7086   */\n      0x40\n        /* \"#utility.yul\":7079:7082   */\n      dup3\n        /* \"#utility.yul\":7075:7087   */\n      add\n        /* \"#utility.yul\":7068:7087   */\n      swap1\n      pop\n        /* \"#utility.yul\":6852:7093   */\n      swap2\n      swap1\n      pop\n      jump\t// out\n        /* \"#utility.yul\":7099:7480   */\n    tag_310:\n      0x00\n        /* \"#utility.yul\":7262:7329   */\n      tag_312\n        /* \"#utility.yul\":7326:7328   */\n      0x31\n        /* \"#utility.yul\":7321:7324   */\n      dup4\n        /* \"#utility.yul\":7262:7329   */\n      tag_288\n      jump\t// in\n    tag_312:\n        /* \"#utility.yul\":7255:7329   */\n      swap2\n      pop\n        /* \"#utility.yul\":7359:7393   */\n      0x546f6b656e56657374696e673a2043616c6c6572206d757374206265206f776e\n        /* \"#utility.yul\":7355:7356   */\n      0x00\n        /* \"#utility.yul\":7350:7353   */\n      dup4\n        /* \"#utility.yul\":7346:7357   */\n      add\n        /* \"#utility.yul\":7339:7394   */\n      mstore\n        /* \"#utility.yul\":7425:7444   */\n      0x6572206f722062656e6566696369617279000000000000000000000000000000\n        /* \"#utility.yul\":7420:7422   */\n      0x20\n        /* \"#utility.yul\":7415:7418   */\n      dup4\n        /* \"#utility.yul\":7411:7423   */\n      add\n        /* \"#utility.yul\":7404:7445   */\n      mstore\n        /* \"#utility.yul\":7471:7473   */\n      0x40\n        /* \"#utility.yul\":7466:7469   */\n      dup3\n        /* \"#utility.yul\":7462:7474   */\n      add\n        /* \"#utility.yul\":7455:7474   */\n      swap1\n      pop\n        /* \"#utility.yul\":7245:7480   */\n      swap2\n      swap1\n      pop\n      jump\t// out\n        /* \"#utility.yul\":7564:8985   */\n    tag_313:\n        /* \"#utility.yul\":7719:7723   */\n      0xe0\n        /* \"#utility.yul\":7714:7717   */\n      dup3\n        /* \"#utility.yul\":7710:7724   */\n      add\n        /* \"#utility.yul\":7813:7817   */\n      0x00\n        /* \"#utility.yul\":7806:7811   */\n      dup3\n        /* \"#utility.yul\":7802:7818   */\n      add\n        /* \"#utility.yul\":7796:7819   */\n      mload\n        /* \"#utility.yul\":7832:7895   */\n      tag_315\n        /* \"#utility.yul\":7889:7893   */\n      0x00\n        /* \"#utility.yul\":7884:7887   */\n      dup6\n        /* \"#utility.yul\":7880:7894   */\n      add\n        /* \"#utility.yul\":7866:7878   */\n      dup3\n        /* \"#utility.yul\":7832:7895   */\n      tag_255\n      jump\t// in\n    tag_315:\n        /* \"#utility.yul\":7734:7905   */\n      pop\n        /* \"#utility.yul\":7992:7996   */\n      0x20\n        /* \"#utility.yul\":7985:7990   */\n      dup3\n        /* \"#utility.yul\":7981:7997   */\n      add\n        /* \"#utility.yul\":7975:7998   */\n      mload\n        /* \"#utility.yul\":8011:8074   */\n      tag_316\n        /* \"#utility.yul\":8068:8072   */\n      0x20\n        /* \"#utility.yul\":8063:8066   */\n      dup6\n        /* \"#utility.yul\":8059:8073   */\n      add\n        /* \"#utility.yul\":8045:8057   */\n      dup3\n        /* \"#utility.yul\":8011:8074   */\n      tag_254\n      jump\t// in\n    tag_316:\n        /* \"#utility.yul\":7915:8084   */\n      pop\n        /* \"#utility.yul\":8170:8174   */\n      0x40\n        /* \"#utility.yul\":8163:8168   */\n      dup3\n        /* \"#utility.yul\":8159:8175   */\n      add\n        /* \"#utility.yul\":8153:8176   */\n      mload\n        /* \"#utility.yul\":8189:8252   */\n      tag_317\n        /* \"#utility.yul\":8246:8250   */\n      0x40\n        /* \"#utility.yul\":8241:8244   */\n      dup6\n        /* \"#utility.yul\":8237:8251   */\n      add\n        /* \"#utility.yul\":8223:8235   */\n      dup3\n        /* \"#utility.yul\":8189:8252   */\n      tag_254\n      jump\t// in\n    tag_317:\n        /* \"#utility.yul\":8094:8262   */\n      pop\n        /* \"#utility.yul\":8355:8359   */\n      0x60\n        /* \"#utility.yul\":8348:8353   */\n      dup3\n        /* \"#utility.yul\":8344:8360   */\n      add\n        /* \"#utility.yul\":8338:8361   */\n      mload\n        /* \"#utility.yul\":8374:8437   */\n      tag_318\n        /* \"#utility.yul\":8431:8435   */\n      0x60\n        /* \"#utility.yul\":8426:8429   */\n      dup6\n        /* \"#utility.yul\":8422:8436   */\n      add\n        /* \"#utility.yul\":8408:8420   */\n      dup3\n        /* \"#utility.yul\":8374:8437   */\n      tag_254\n      jump\t// in\n    tag_318:\n        /* \"#utility.yul\":8272:8447   */\n      pop\n        /* \"#utility.yul\":8531:8535   */\n      0x80\n        /* \"#utility.yul\":8524:8529   */\n      dup3\n        /* \"#utility.yul\":8520:8536   */\n      add\n        /* \"#utility.yul\":8514:8537   */\n      mload\n        /* \"#utility.yul\":8550:8613   */\n      tag_319\n        /* \"#utility.yul\":8607:8611   */\n      0x80\n        /* \"#utility.yul\":8602:8605   */\n      dup6\n        /* \"#utility.yul\":8598:8612   */\n      add\n        /* \"#utility.yul\":8584:8596   */\n      dup3\n        /* \"#utility.yul\":8550:8613   */\n      tag_254\n      jump\t// in\n    tag_319:\n        /* \"#utility.yul\":8457:8623   */\n      pop\n        /* \"#utility.yul\":8715:8719   */\n      0xa0\n        /* \"#utility.yul\":8708:8713   */\n      dup3\n        /* \"#utility.yul\":8704:8720   */\n      add\n        /* \"#utility.yul\":8698:8721   */\n      mload\n        /* \"#utility.yul\":8734:8797   */\n      tag_320\n        /* \"#utility.yul\":8791:8795   */\n      0xa0\n        /* \"#utility.yul\":8786:8789   */\n      dup6\n        /* \"#utility.yul\":8782:8796   */\n      add\n        /* \"#utility.yul\":8768:8780   */\n      dup3\n        /* \"#utility.yul\":8734:8797   */\n      tag_254\n      jump\t// in\n    tag_320:\n        /* \"#utility.yul\":8633:8807   */\n      pop\n        /* \"#utility.yul\":8892:8896   */\n      0xc0\n        /* \"#utility.yul\":8885:8890   */\n      dup3\n        /* \"#utility.yul\":8881:8897   */\n      add\n        /* \"#utility.yul\":8875:8898   */\n      mload\n        /* \"#utility.yul\":8911:8968   */\n      tag_321\n        /* \"#utility.yul\":8962:8966   */\n      0xc0\n        /* \"#utility.yul\":8957:8960   */\n      dup6\n        /* \"#utility.yul\":8953:8967   */\n      add\n        /* \"#utility.yul\":8939:8951   */\n      dup3\n        /* \"#utility.yul\":8911:8968   */\n      tag_281\n      jump\t// in\n    tag_321:\n        /* \"#utility.yul\":8817:8978   */\n      pop\n        /* \"#utility.yul\":7688:8985   */\n      pop\n      pop\n      pop\n      jump\t// out\n        /* \"#utility.yul\":8991:9099   */\n    tag_254:\n        /* \"#utility.yul\":9068:9092   */\n      tag_323\n        /* \"#utility.yul\":9086:9091   */\n      dup2\n        /* \"#utility.yul\":9068:9092   */\n      tag_324\n      jump\t// in\n    tag_323:\n        /* \"#utility.yul\":9063:9066   */\n      dup3\n        /* \"#utility.yul\":9056:9093   */\n      mstore\n        /* \"#utility.yul\":9046:9099   */\n      pop\n      pop\n      jump\t// out\n        /* \"#utility.yul\":9105:9223   */\n    tag_325:\n        /* \"#utility.yul\":9192:9216   */\n      tag_327\n        /* \"#utility.yul\":9210:9215   */\n      dup2\n        /* \"#utility.yul\":9192:9216   */\n      tag_324\n      jump\t// in\n    tag_327:\n        /* \"#utility.yul\":9187:9190   */\n      dup3\n        /* \"#utility.yul\":9180:9217   */\n      mstore\n        /* \"#utility.yul\":9170:9223   */\n      pop\n      pop\n      jump\t// out\n        /* \"#utility.yul\":9229:9386   */\n    tag_328:\n        /* \"#utility.yul\":9334:9379   */\n      tag_330\n        /* \"#utility.yul\":9354:9378   */\n      tag_331\n        /* \"#utility.yul\":9372:9377   */\n      dup3\n        /* \"#utility.yul\":9354:9378   */\n      tag_324\n      jump\t// in\n    tag_331:\n        /* \"#utility.yul\":9334:9379   */\n      tag_332\n      jump\t// in\n    tag_330:\n        /* \"#utility.yul\":9329:9332   */\n      dup3\n        /* \"#utility.yul\":9322:9380   */\n      mstore\n        /* \"#utility.yul\":9312:9386   */\n      pop\n      pop\n      jump\t// out\n        /* \"#utility.yul\":9392:9789   */\n    tag_207:\n      0x00\n        /* \"#utility.yul\":9547:9622   */\n      tag_334\n        /* \"#utility.yul\":9618:9621   */\n      dup3\n        /* \"#utility.yul\":9609:9615   */\n      dup6\n        /* \"#utility.yul\":9547:9622   */\n      tag_262\n      jump\t// in\n    tag_334:\n        /* \"#utility.yul\":9647:9649   */\n      0x14\n        /* \"#utility.yul\":9642:9645   */\n      dup3\n        /* \"#utility.yul\":9638:9650   */\n      add\n        /* \"#utility.yul\":9631:9650   */\n      swap2\n      pop\n        /* \"#utility.yul\":9660:9735   */\n      tag_335\n        /* \"#utility.yul\":9731:9734   */\n      dup3\n        /* \"#utility.yul\":9722:9728   */\n      dup5\n        /* \"#utility.yul\":9660:9735   */\n      tag_328\n      jump\t// in\n    tag_335:\n        /* \"#utility.yul\":9760:9762   */\n      0x20\n        /* \"#utility.yul\":9755:9758   */\n      dup3\n        /* \"#utility.yul\":9751:9763   */\n      add\n        /* \"#utility.yul\":9744:9763   */\n      swap2\n      pop\n        /* \"#utility.yul\":9780:9783   */\n      dup2\n        /* \"#utility.yul\":9773:9783   */\n      swap1\n      pop\n        /* \"#utility.yul\":9536:9789   */\n      swap4\n      swap3\n      pop\n      pop\n      pop\n      jump\t// out\n        /* \"#utility.yul\":9795:10017   */\n    tag_64:\n      0x00\n        /* \"#utility.yul\":9926:9928   */\n      0x20\n        /* \"#utility.yul\":9915:9924   */\n      dup3\n        /* \"#utility.yul\":9911:9929   */\n      add\n        /* \"#utility.yul\":9903:9929   */\n      swap1\n      pop\n        /* \"#utility.yul\":9939:10010   */\n      tag_337\n        /* \"#utility.yul\":10007:10008   */\n      0x00\n        /* \"#utility.yul\":9996:10005   */\n      dup4\n        /* \"#utility.yul\":9992:10009   */\n      add\n        /* \"#utility.yul\":9983:9989   */\n      dup5\n        /* \"#utility.yul\":9939:10010   */\n      tag_259\n      jump\t// in\n    tag_337:\n        /* \"#utility.yul\":9893:10017   */\n      swap3\n      swap2\n      pop\n      pop\n      jump\t// out\n        /* \"#utility.yul\":10023:10355   */\n    tag_119:\n      0x00\n        /* \"#utility.yul\":10182:10184   */\n      0x40\n        /* \"#utility.yul\":10171:10180   */\n      dup3\n        /* \"#utility.yul\":10167:10185   */\n      add\n        /* \"#utility.yul\":10159:10185   */\n      swap1\n      pop\n        /* \"#utility.yul\":10195:10266   */\n      tag_339\n        /* \"#utility.yul\":10263:10264   */\n      0x00\n        /* \"#utility.yul\":10252:10261   */\n      dup4\n        /* \"#utility.yul\":10248:10265   */\n      add\n        /* \"#utility.yul\":10239:10245   */\n      dup6\n        /* \"#utility.yul\":10195:10266   */\n      tag_259\n      jump\t// in\n    tag_339:\n        /* \"#utility.yul\":10276:10348   */\n      tag_340\n        /* \"#utility.yul\":10344:10346   */\n      0x20\n        /* \"#utility.yul\":10333:10342   */\n      dup4\n        /* \"#utility.yul\":10329:10347   */\n      add\n        /* \"#utility.yul\":10320:10326   */\n      dup5\n        /* \"#utility.yul\":10276:10348   */\n      tag_325\n      jump\t// in\n    tag_340:\n        /* \"#utility.yul\":10149:10355   */\n      swap4\n      swap3\n      pop\n      pop\n      pop\n      jump\t// out\n        /* \"#utility.yul\":10361:10734   */\n    tag_42:\n      0x00\n        /* \"#utility.yul\":10542:10544   */\n      0x20\n        /* \"#utility.yul\":10531:10540   */\n      dup3\n        /* \"#utility.yul\":10527:10545   */\n      add\n        /* \"#utility.yul\":10519:10545   */\n      swap1\n      pop\n        /* \"#utility.yul\":10591:10600   */\n      dup2\n        /* \"#utility.yul\":10585:10589   */\n      dup2\n        /* \"#utility.yul\":10581:10601   */\n      sub\n        /* \"#utility.yul\":10577:10578   */\n      0x00\n        /* \"#utility.yul\":10566:10575   */\n      dup4\n        /* \"#utility.yul\":10562:10579   */\n      add\n        /* \"#utility.yul\":10555:10602   */\n      mstore\n        /* \"#utility.yul\":10619:10727   */\n      tag_342\n        /* \"#utility.yul\":10722:10726   */\n      dup2\n        /* \"#utility.yul\":10713:10719   */\n      dup5\n        /* \"#utility.yul\":10619:10727   */\n      tag_267\n      jump\t// in\n    tag_342:\n        /* \"#utility.yul\":10611:10727   */\n      swap1\n      pop\n        /* \"#utility.yul\":10509:10734   */\n      swap3\n      swap2\n      pop\n      pop\n      jump\t// out\n        /* \"#utility.yul\":10740:11159   */\n    tag_178:\n      0x00\n        /* \"#utility.yul\":10944:10946   */\n      0x20\n        /* \"#utility.yul\":10933:10942   */\n      dup3\n        /* \"#utility.yul\":10929:10947   */\n      add\n        /* \"#utility.yul\":10921:10947   */\n      swap1\n      pop\n        /* \"#utility.yul\":10993:11002   */\n      dup2\n        /* \"#utility.yul\":10987:10991   */\n      dup2\n        /* \"#utility.yul\":10983:11003   */\n      sub\n        /* \"#utility.yul\":10979:10980   */\n      0x00\n        /* \"#utility.yul\":10968:10977   */\n      dup4\n        /* \"#utility.yul\":10964:10981   */\n      add\n        /* \"#utility.yul\":10957:11004   */\n      mstore\n        /* \"#utility.yul\":11021:11152   */\n      tag_344\n        /* \"#utility.yul\":11147:11151   */\n      dup2\n        /* \"#utility.yul\":11021:11152   */\n      tag_285\n      jump\t// in\n    tag_344:\n        /* \"#utility.yul\":11013:11152   */\n      swap1\n      pop\n        /* \"#utility.yul\":10911:11159   */\n      swap2\n      swap1\n      pop\n      jump\t// out\n        /* \"#utility.yul\":11165:11584   */\n    tag_145:\n      0x00\n        /* \"#utility.yul\":11369:11371   */\n      0x20\n        /* \"#utility.yul\":11358:11367   */\n      dup3\n        /* \"#utility.yul\":11354:11372   */\n      add\n        /* \"#utility.yul\":11346:11372   */\n      swap1\n      pop\n        /* \"#utility.yul\":11418:11427   */\n      dup2\n        /* \"#utility.yul\":11412:11416   */\n      dup2\n        /* \"#utility.yul\":11408:11428   */\n      sub\n        /* \"#utility.yul\":11404:11405   */\n      0x00\n        /* \"#utility.yul\":11393:11402   */\n      dup4\n        /* \"#utility.yul\":11389:11406   */\n      add\n        /* \"#utility.yul\":11382:11429   */\n      mstore\n        /* \"#utility.yul\":11446:11577   */\n      tag_346\n        /* \"#utility.yul\":11572:11576   */\n      dup2\n        /* \"#utility.yul\":11446:11577   */\n      tag_289\n      jump\t// in\n    tag_346:\n        /* \"#utility.yul\":11438:11577   */\n      swap1\n      pop\n        /* \"#utility.yul\":11336:11584   */\n      swap2\n      swap1\n      pop\n      jump\t// out\n        /* \"#utility.yul\":11590:12009   */\n    tag_151:\n      0x00\n        /* \"#utility.yul\":11794:11796   */\n      0x20\n        /* \"#utility.yul\":11783:11792   */\n      dup3\n        /* \"#utility.yul\":11779:11797   */\n      add\n        /* \"#utility.yul\":11771:11797   */\n      swap1\n      pop\n        /* \"#utility.yul\":11843:11852   */\n      dup2\n        /* \"#utility.yul\":11837:11841   */\n      dup2\n        /* \"#utility.yul\":11833:11853   */\n      sub\n        /* \"#utility.yul\":11829:11830   */\n      0x00\n        /* \"#utility.yul\":11818:11827   */\n      dup4\n        /* \"#utility.yul\":11814:11831   */\n      add\n        /* \"#utility.yul\":11807:11854   */\n      mstore\n        /* \"#utility.yul\":11871:12002   */\n      tag_348\n        /* \"#utility.yul\":11997:12001   */\n      dup2\n        /* \"#utility.yul\":11871:12002   */\n      tag_292\n      jump\t// in\n    tag_348:\n        /* \"#utility.yul\":11863:12002   */\n      swap1\n      pop\n        /* \"#utility.yul\":11761:12009   */\n      swap2\n      swap1\n      pop\n      jump\t// out\n        /* \"#utility.yul\":12015:12434   */\n    tag_142:\n      0x00\n        /* \"#utility.yul\":12219:12221   */\n      0x20\n        /* \"#utility.yul\":12208:12217   */\n      dup3\n        /* \"#utility.yul\":12204:12222   */\n      add\n        /* \"#utility.yul\":12196:12222   */\n      swap1\n      pop\n        /* \"#utility.yul\":12268:12277   */\n      dup2\n        /* \"#utility.yul\":12262:12266   */\n      dup2\n        /* \"#utility.yul\":12258:12278   */\n      sub\n        /* \"#utility.yul\":12254:12255   */\n      0x00\n        /* \"#utility.yul\":12243:12252   */\n      dup4\n        /* \"#utility.yul\":12239:12256   */\n      add\n        /* \"#utility.yul\":12232:12279   */\n      mstore\n        /* \"#utility.yul\":12296:12427   */\n      tag_350\n        /* \"#utility.yul\":12422:12426   */\n      dup2\n        /* \"#utility.yul\":12296:12427   */\n      tag_295\n      jump\t// in\n    tag_350:\n        /* \"#utility.yul\":12288:12427   */\n      swap1\n      pop\n        /* \"#utility.yul\":12186:12434   */\n      swap2\n      swap1\n      pop\n      jump\t// out\n        /* \"#utility.yul\":12440:12859   */\n    tag_161:\n      0x00\n        /* \"#utility.yul\":12644:12646   */\n      0x20\n        /* \"#utility.yul\":12633:12642   */\n      dup3\n        /* \"#utility.yul\":12629:12647   */\n      add\n        /* \"#utility.yul\":12621:12647   */\n      swap1\n      pop\n        /* \"#utility.yul\":12693:12702   */\n      dup2\n        /* \"#utility.yul\":12687:12691   */\n      dup2\n        /* \"#utility.yul\":12683:12703   */\n      sub\n        /* \"#utility.yul\":12679:12680   */\n      0x00\n        /* \"#utility.yul\":12668:12677   */\n      dup4\n        /* \"#utility.yul\":12664:12681   */\n      add\n        /* \"#utility.yul\":12657:12704   */\n      mstore\n        /* \"#utility.yul\":12721:12852   */\n      tag_352\n        /* \"#utility.yul\":12847:12851   */\n      dup2\n        /* \"#utility.yul\":12721:12852   */\n      tag_298\n      jump\t// in\n    tag_352:\n        /* \"#utility.yul\":12713:12852   */\n      swap1\n      pop\n        /* \"#utility.yul\":12611:12859   */\n      swap2\n      swap1\n      pop\n      jump\t// out\n        /* \"#utility.yul\":12865:13284   */\n    tag_148:\n      0x00\n        /* \"#utility.yul\":13069:13071   */\n      0x20\n        /* \"#utility.yul\":13058:13067   */\n      dup3\n        /* \"#utility.yul\":13054:13072   */\n      add\n        /* \"#utility.yul\":13046:13072   */\n      swap1\n      pop\n        /* \"#utility.yul\":13118:13127   */\n      dup2\n        /* \"#utility.yul\":13112:13116   */\n      dup2\n        /* \"#utility.yul\":13108:13128   */\n      sub\n        /* \"#utility.yul\":13104:13105   */\n      0x00\n        /* \"#utility.yul\":13093:13102   */\n      dup4\n        /* \"#utility.yul\":13089:13106   */\n      add\n        /* \"#utility.yul\":13082:13129   */\n      mstore\n        /* \"#utility.yul\":13146:13277   */\n      tag_354\n        /* \"#utility.yul\":13272:13276   */\n      dup2\n        /* \"#utility.yul\":13146:13277   */\n      tag_301\n      jump\t// in\n    tag_354:\n        /* \"#utility.yul\":13138:13277   */\n      swap1\n      pop\n        /* \"#utility.yul\":13036:13284   */\n      swap2\n      swap1\n      pop\n      jump\t// out\n        /* \"#utility.yul\":13290:13709   */\n    tag_90:\n      0x00\n        /* \"#utility.yul\":13494:13496   */\n      0x20\n        /* \"#utility.yul\":13483:13492   */\n      dup3\n        /* \"#utility.yul\":13479:13497   */\n      add\n        /* \"#utility.yul\":13471:13497   */\n      swap1\n      pop\n        /* \"#utility.yul\":13543:13552   */\n      dup2\n        /* \"#utility.yul\":13537:13541   */\n      dup2\n        /* \"#utility.yul\":13533:13553   */\n      sub\n        /* \"#utility.yul\":13529:13530   */\n      0x00\n        /* \"#utility.yul\":13518:13527   */\n      dup4\n        /* \"#utility.yul\":13514:13531   */\n      add\n        /* \"#utility.yul\":13507:13554   */\n      mstore\n        /* \"#utility.yul\":13571:13702   */\n      tag_356\n        /* \"#utility.yul\":13697:13701   */\n      dup2\n        /* \"#utility.yul\":13571:13702   */\n      tag_304\n      jump\t// in\n    tag_356:\n        /* \"#utility.yul\":13563:13702   */\n      swap1\n      pop\n        /* \"#utility.yul\":13461:13709   */\n      swap2\n      swap1\n      pop\n      jump\t// out\n        /* \"#utility.yul\":13715:14134   */\n    tag_115:\n      0x00\n        /* \"#utility.yul\":13919:13921   */\n      0x20\n        /* \"#utility.yul\":13908:13917   */\n      dup3\n        /* \"#utility.yul\":13904:13922   */\n      add\n        /* \"#utility.yul\":13896:13922   */\n      swap1\n      pop\n        /* \"#utility.yul\":13968:13977   */\n      dup2\n        /* \"#utility.yul\":13962:13966   */\n      dup2\n        /* \"#utility.yul\":13958:13978   */\n      sub\n        /* \"#utility.yul\":13954:13955   */\n      0x00\n        /* \"#utility.yul\":13943:13952   */\n      dup4\n        /* \"#utility.yul\":13939:13956   */\n      add\n        /* \"#utility.yul\":13932:13979   */\n      mstore\n        /* \"#utility.yul\":13996:14127   */\n      tag_358\n        /* \"#utility.yul\":14122:14126   */\n      dup2\n        /* \"#utility.yul\":13996:14127   */\n      tag_307\n      jump\t// in\n    tag_358:\n        /* \"#utility.yul\":13988:14127   */\n      swap1\n      pop\n        /* \"#utility.yul\":13886:14134   */\n      swap2\n      swap1\n      pop\n      jump\t// out\n        /* \"#utility.yul\":14140:14559   */\n    tag_110:\n      0x00\n        /* \"#utility.yul\":14344:14346   */\n      0x20\n        /* \"#utility.yul\":14333:14342   */\n      dup3\n        /* \"#utility.yul\":14329:14347   */\n      add\n        /* \"#utility.yul\":14321:14347   */\n      swap1\n      pop\n        /* \"#utility.yul\":14393:14402   */\n      dup2\n        /* \"#utility.yul\":14387:14391   */\n      dup2\n        /* \"#utility.yul\":14383:14403   */\n      sub\n        /* \"#utility.yul\":14379:14380   */\n      0x00\n        /* \"#utility.yul\":14368:14377   */\n      dup4\n        /* \"#utility.yul\":14364:14381   */\n      add\n        /* \"#utility.yul\":14357:14404   */\n      mstore\n        /* \"#utility.yul\":14421:14552   */\n      tag_360\n        /* \"#utility.yul\":14547:14551   */\n      dup2\n        /* \"#utility.yul\":14421:14552   */\n      tag_310\n      jump\t// in\n    tag_360:\n        /* \"#utility.yul\":14413:14552   */\n      swap1\n      pop\n        /* \"#utility.yul\":14311:14559   */\n      swap2\n      swap1\n      pop\n      jump\t// out\n        /* \"#utility.yul\":14565:14904   */\n    tag_79:\n      0x00\n        /* \"#utility.yul\":14754:14757   */\n      0xe0\n        /* \"#utility.yul\":14743:14752   */\n      dup3\n        /* \"#utility.yul\":14739:14758   */\n      add\n        /* \"#utility.yul\":14731:14758   */\n      swap1\n      pop\n        /* \"#utility.yul\":14768:14897   */\n      tag_362\n        /* \"#utility.yul\":14894:14895   */\n      0x00\n        /* \"#utility.yul\":14883:14892   */\n      dup4\n        /* \"#utility.yul\":14879:14896   */\n      add\n        /* \"#utility.yul\":14870:14876   */\n      dup5\n        /* \"#utility.yul\":14768:14897   */\n      tag_313\n      jump\t// in\n    tag_362:\n        /* \"#utility.yul\":14721:14904   */\n      swap3\n      swap2\n      pop\n      pop\n      jump\t// out\n        /* \"#utility.yul\":14910:15132   */\n    tag_35:\n      0x00\n        /* \"#utility.yul\":15041:15043   */\n      0x20\n        /* \"#utility.yul\":15030:15039   */\n      dup3\n        /* \"#utility.yul\":15026:15044   */\n      add\n        /* \"#utility.yul\":15018:15044   */\n      swap1\n      pop\n        /* \"#utility.yul\":15054:15125   */\n      tag_364\n        /* \"#utility.yul\":15122:15123   */\n      0x00\n        /* \"#utility.yul\":15111:15120   */\n      dup4\n        /* \"#utility.yul\":15107:15124   */\n      add\n        /* \"#utility.yul\":15098:15104   */\n      dup5\n        /* \"#utility.yul\":15054:15125   */\n      tag_325\n      jump\t// in\n    tag_364:\n        /* \"#utility.yul\":15008:15132   */\n      swap3\n      swap2\n      pop\n      pop\n      jump\t// out\n        /* \"#utility.yul\":15138:15270   */\n    tag_274:\n      0x00\n        /* \"#utility.yul\":15228:15231   */\n      dup2\n        /* \"#utility.yul\":15220:15231   */\n      swap1\n      pop\n        /* \"#utility.yul\":15258:15262   */\n      0x20\n        /* \"#utility.yul\":15253:15256   */\n      dup3\n        /* \"#utility.yul\":15249:15263   */\n      add\n        /* \"#utility.yul\":15241:15263   */\n      swap1\n      pop\n        /* \"#utility.yul\":15210:15270   */\n      swap2\n      swap1\n      pop\n      jump\t// out\n        /* \"#utility.yul\":15276:15390   */\n    tag_270:\n      0x00\n        /* \"#utility.yul\":15377:15382   */\n      dup2\n        /* \"#utility.yul\":15371:15383   */\n      mload\n        /* \"#utility.yul\":15361:15383   */\n      swap1\n      pop\n        /* \"#utility.yul\":15350:15390   */\n      swap2\n      swap1\n      pop\n      jump\t// out\n        /* \"#utility.yul\":15396:15509   */\n    tag_280:\n      0x00\n        /* \"#utility.yul\":15498:15502   */\n      0x20\n        /* \"#utility.yul\":15493:15496   */\n      dup3\n        /* \"#utility.yul\":15489:15503   */\n      add\n        /* \"#utility.yul\":15481:15503   */\n      swap1\n      pop\n        /* \"#utility.yul\":15471:15509   */\n      swap2\n      swap1\n      pop\n      jump\t// out\n        /* \"#utility.yul\":15515:15699   */\n    tag_272:\n      0x00\n        /* \"#utility.yul\":15648:15654   */\n      dup3\n        /* \"#utility.yul\":15643:15646   */\n      dup3\n        /* \"#utility.yul\":15636:15655   */\n      mstore\n        /* \"#utility.yul\":15688:15692   */\n      0x20\n        /* \"#utility.yul\":15683:15686   */\n      dup3\n        /* \"#utility.yul\":15679:15693   */\n      add\n        /* \"#utility.yul\":15664:15693   */\n      swap1\n      pop\n        /* \"#utility.yul\":15626:15699   */\n      swap3\n      swap2\n      pop\n      pop\n      jump\t// out\n        /* \"#utility.yul\":15705:15874   */\n    tag_288:\n      0x00\n        /* \"#utility.yul\":15823:15829   */\n      dup3\n        /* \"#utility.yul\":15818:15821   */\n      dup3\n        /* \"#utility.yul\":15811:15830   */\n      mstore\n        /* \"#utility.yul\":15863:15867   */\n      0x20\n        /* \"#utility.yul\":15858:15861   */\n      dup3\n        /* \"#utility.yul\":15854:15868   */\n      add\n        /* \"#utility.yul\":15839:15868   */\n      swap1\n      pop\n        /* \"#utility.yul\":15801:15874   */\n      swap3\n      swap2\n      pop\n      pop\n      jump\t// out\n        /* \"#utility.yul\":15880:16185   */\n    tag_203:\n      0x00\n        /* \"#utility.yul\":15939:15959   */\n      tag_371\n        /* \"#utility.yul\":15957:15958   */\n      dup3\n        /* \"#utility.yul\":15939:15959   */\n      tag_324\n      jump\t// in\n    tag_371:\n        /* \"#utility.yul\":15934:15959   */\n      swap2\n      pop\n        /* \"#utility.yul\":15973:15993   */\n      tag_372\n        /* \"#utility.yul\":15991:15992   */\n      dup4\n        /* \"#utility.yul\":15973:15993   */\n      tag_324\n      jump\t// in\n    tag_372:\n        /* \"#utility.yul\":15968:15993   */\n      swap3\n      pop\n        /* \"#utility.yul\":16127:16128   */\n      dup3\n        /* \"#utility.yul\":16059:16125   */\n      0xffffffffffffffffffffffffffffffffffffffffffffffffffffffffffffffff\n        /* \"#utility.yul\":16055:16129   */\n      sub\n        /* \"#utility.yul\":16052:16053   */\n      dup3\n        /* \"#utility.yul\":16049:16130   */\n      gt\n        /* \"#utility.yul\":16046:16048   */\n      iszero\n      tag_373\n      jumpi\n        /* \"#utility.yul\":16133:16151   */\n      tag_374\n      tag_375\n      jump\t// in\n    tag_374:\n        /* \"#utility.yul\":16046:16048   */\n    tag_373:\n        /* \"#utility.yul\":16177:16178   */\n      dup3\n        /* \"#utility.yul\":16174:16175   */\n      dup3\n        /* \"#utility.yul\":16170:16179   */\n      add\n        /* \"#utility.yul\":16163:16179   */\n      swap1\n      pop\n        /* \"#utility.yul\":15924:16185   */\n      swap3\n      swap2\n      pop\n      pop\n      jump\t// out\n        /* \"#utility.yul\":16191:16376   */\n    tag_190:\n      0x00\n        /* \"#utility.yul\":16248:16268   */\n      tag_377\n        /* \"#utility.yul\":16266:16267   */\n      dup3\n        /* \"#utility.yul\":16248:16268   */\n      tag_324\n      jump\t// in\n    tag_377:\n        /* \"#utility.yul\":16243:16268   */\n      swap2\n      pop\n        /* \"#utility.yul\":16282:16302   */\n      tag_378\n        /* \"#utility.yul\":16300:16301   */\n      dup4\n        /* \"#utility.yul\":16282:16302   */\n      tag_324\n      jump\t// in\n    tag_378:\n        /* \"#utility.yul\":16277:16302   */\n      swap3\n      pop\n        /* \"#utility.yul\":16321:16322   */\n      dup3\n        /* \"#utility.yul\":16311:16313   */\n      tag_379\n      jumpi\n        /* \"#utility.yul\":16326:16344   */\n      tag_380\n      tag_381\n      jump\t// in\n    tag_380:\n        /* \"#utility.yul\":16311:16313   */\n    tag_379:\n        /* \"#utility.yul\":16368:16369   */\n      dup3\n        /* \"#utility.yul\":16365:16366   */\n      dup3\n        /* \"#utility.yul\":16361:16370   */\n      div\n        /* \"#utility.yul\":16356:16370   */\n      swap1\n      pop\n        /* \"#utility.yul\":16233:16376   */\n      swap3\n      swap2\n      pop\n      pop\n      jump\t// out\n        /* \"#utility.yul\":16382:16730   */\n    tag_187:\n      0x00\n        /* \"#utility.yul\":16445:16465   */\n      tag_383\n        /* \"#utility.yul\":16463:16464   */\n      dup3\n        /* \"#utility.yul\":16445:16465   */\n      tag_324\n      jump\t// in\n    tag_383:\n        /* \"#utility.yul\":16440:16465   */\n      swap2\n      pop\n        /* \"#utility.yul\":16479:16499   */\n      tag_384\n        /* \"#utility.yul\":16497:16498   */\n      dup4\n        /* \"#utility.yul\":16479:16499   */\n      tag_324\n      jump\t// in\n    tag_384:\n        /* \"#utility.yul\":16474:16499   */\n      swap3\n      pop\n        /* \"#utility.yul\":16667:16668   */\n      dup2\n        /* \"#utility.yul\":16599:16665   */\n      0xffffffffffffffffffffffffffffffffffffffffffffffffffffffffffffffff\n        /* \"#utility.yul\":16595:16669   */\n      div\n        /* \"#utility.yul\":16592:16593   */\n      dup4\n        /* \"#utility.yul\":16589:16670   */\n      gt\n        /* \"#utility.yul\":16584:16585   */\n      dup3\n        /* \"#utility.yul\":16577:16586   */\n      iszero\n        /* \"#utility.yul\":16570:16587   */\n      iszero\n        /* \"#utility.yul\":16566:16671   */\n      and\n        /* \"#utility.yul\":16563:16565   */\n      iszero\n      tag_385\n      jumpi\n        /* \"#utility.yul\":16674:16692   */\n      tag_386\n      tag_375\n      jump\t// in\n    tag_386:\n        /* \"#utility.yul\":16563:16565   */\n    tag_385:\n        /* \"#utility.yul\":16722:16723   */\n      dup3\n        /* \"#utility.yul\":16719:16720   */\n      dup3\n        /* \"#utility.yul\":16715:16724   */\n      mul\n        /* \"#utility.yul\":16704:16724   */\n      swap1\n      pop\n        /* \"#utility.yul\":16430:16730   */\n      swap3\n      swap2\n      pop\n      pop\n      jump\t// out\n        /* \"#utility.yul\":16736:16927   */\n    tag_212:\n      0x00\n        /* \"#utility.yul\":16796:16816   */\n      tag_388\n        /* \"#utility.yul\":16814:16815   */\n      dup3\n        /* \"#utility.yul\":16796:16816   */\n      tag_324\n      jump\t// in\n    tag_388:\n        /* \"#utility.yul\":16791:16816   */\n      swap2\n      pop\n        /* \"#utility.yul\":16830:16850   */\n      tag_389\n        /* \"#utility.yul\":16848:16849   */\n      dup4\n        /* \"#utility.yul\":16830:16850   */\n      tag_324\n      jump\t// in\n    tag_389:\n        /* \"#utility.yul\":16825:16850   */\n      swap3\n      pop\n        /* \"#utility.yul\":16869:16870   */\n      dup3\n        /* \"#utility.yul\":16866:16867   */\n      dup3\n        /* \"#utility.yul\":16863:16871   */\n      lt\n        /* \"#utility.yul\":16860:16862   */\n      iszero\n      tag_390\n      jumpi\n        /* \"#utility.yul\":16874:16892   */\n      tag_391\n      tag_375\n      jump\t// in\n    tag_391:\n        /* \"#utility.yul\":16860:16862   */\n    tag_390:\n        /* \"#utility.yul\":16919:16920   */\n      dup3\n        /* \"#utility.yul\":16916:16917   */\n      dup3\n        /* \"#utility.yul\":16912:16921   */\n      sub\n        /* \"#utility.yul\":16904:16921   */\n      swap1\n      pop\n        /* \"#utility.yul\":16781:16927   */\n      swap3\n      swap2\n      pop\n      pop\n      jump\t// out\n        /* \"#utility.yul\":16933:17029   */\n    tag_258:\n      0x00\n        /* \"#utility.yul\":16999:17023   */\n      tag_393\n        /* \"#utility.yul\":17017:17022   */\n      dup3\n        /* \"#utility.yul\":16999:17023   */\n      tag_394\n      jump\t// in\n    tag_393:\n        /* \"#utility.yul\":16988:17023   */\n      swap1\n      pop\n        /* \"#utility.yul\":16978:17029   */\n      swap2\n      swap1\n      pop\n      jump\t// out\n        /* \"#utility.yul\":17035:17125   */\n    tag_284:\n      0x00\n        /* \"#utility.yul\":17112:17117   */\n      dup2\n        /* \"#utility.yul\":17105:17118   */\n      iszero\n        /* \"#utility.yul\":17098:17119   */\n      iszero\n        /* \"#utility.yul\":17087:17119   */\n      swap1\n      pop\n        /* \"#utility.yul\":17077:17125   */\n      swap2\n      swap1\n      pop\n      jump\t// out\n        /* \"#utility.yul\":17131:17257   */\n    tag_394:\n      0x00\n        /* \"#utility.yul\":17208:17250   */\n      0xffffffffffffffffffffffffffffffffffffffff\n        /* \"#utility.yul\":17201:17206   */\n      dup3\n        /* \"#utility.yul\":17197:17251   */\n      and\n        /* \"#utility.yul\":17186:17251   */\n      swap1\n      pop\n        /* \"#utility.yul\":17176:17257   */\n      swap2\n      swap1\n      pop\n      jump\t// out\n        /* \"#utility.yul\":17263:17340   */\n    tag_324:\n      0x00\n        /* \"#utility.yul\":17329:17334   */\n      dup2\n        /* \"#utility.yul\":17318:17334   */\n      swap1\n      pop\n        /* \"#utility.yul\":17308:17340   */\n      swap2\n      swap1\n      pop\n      jump\t// out\n        /* \"#utility.yul\":17346:17446   */\n    tag_266:\n      0x00\n        /* \"#utility.yul\":17414:17440   */\n      tag_399\n        /* \"#utility.yul\":17434:17439   */\n      dup3\n        /* \"#utility.yul\":17414:17440   */\n      tag_400\n      jump\t// in\n    tag_399:\n        /* \"#utility.yul\":17403:17440   */\n      swap1\n      pop\n        /* \"#utility.yul\":17393:17446   */\n      swap2\n      swap1\n      pop\n      jump\t// out\n        /* \"#utility.yul\":17452:17546   */\n    tag_400:\n      0x00\n        /* \"#utility.yul\":17520:17540   */\n      tag_402\n        /* \"#utility.yul\":17534:17539   */\n      dup3\n        /* \"#utility.yul\":17520:17540   */\n      tag_403\n      jump\t// in\n    tag_402:\n        /* \"#utility.yul\":17509:17540   */\n      swap1\n      pop\n        /* \"#utility.yul\":17499:17546   */\n      swap2\n      swap1\n      pop\n      jump\t// out\n        /* \"#utility.yul\":17552:17631   */\n    tag_332:\n      0x00\n        /* \"#utility.yul\":17620:17625   */\n      dup2\n        /* \"#utility.yul\":17609:17625   */\n      swap1\n      pop\n        /* \"#utility.yul\":17599:17631   */\n      swap2\n      swap1\n      pop\n      jump\t// out\n        /* \"#utility.yul\":17637:17813   */\n    tag_209:\n      0x00\n        /* \"#utility.yul\":17686:17706   */\n      tag_406\n        /* \"#utility.yul\":17704:17705   */\n      dup3\n        /* \"#utility.yul\":17686:17706   */\n      tag_324\n      jump\t// in\n    tag_406:\n        /* \"#utility.yul\":17681:17706   */\n      swap2\n      pop\n        /* \"#utility.yul\":17720:17740   */\n      tag_407\n        /* \"#utility.yul\":17738:17739   */\n      dup4\n        /* \"#utility.yul\":17720:17740   */\n      tag_324\n      jump\t// in\n    tag_407:\n        /* \"#utility.yul\":17715:17740   */\n      swap3\n      pop\n        /* \"#utility.yul\":17759:17760   */\n      dup3\n        /* \"#utility.yul\":17749:17751   */\n      tag_408\n      jumpi\n        /* \"#utility.yul\":17764:17782   */\n      tag_409\n      tag_381\n      jump\t// in\n    tag_409:\n        /* \"#utility.yul\":17749:17751   */\n    tag_408:\n        /* \"#utility.yul\":17805:17806   */\n      dup3\n        /* \"#utility.yul\":17802:17803   */\n      dup3\n        /* \"#utility.yul\":17798:17807   */\n      mod\n        /* \"#utility.yul\":17793:17807   */\n      swap1\n      pop\n        /* \"#utility.yul\":17671:17813   */\n      swap3\n      swap2\n      pop\n      pop\n      jump\t// out\n        /* \"#utility.yul\":17819:17999   */\n    tag_375:\n        /* \"#utility.yul\":17867:17944   */\n      0x4e487b7100000000000000000000000000000000000000000000000000000000\n        /* \"#utility.yul\":17864:17865   */\n      0x00\n        /* \"#utility.yul\":17857:17945   */\n      mstore\n        /* \"#utility.yul\":17964:17968   */\n      0x11\n        /* \"#utility.yul\":17961:17962   */\n      0x04\n        /* \"#utility.yul\":17954:17969   */\n      mstore\n        /* \"#utility.yul\":17988:17992   */\n      0x24\n        /* \"#utility.yul\":17985:17986   */\n      0x00\n        /* \"#utility.yul\":17978:17993   */\n      revert\n        /* \"#utility.yul\":18005:18185   */\n    tag_381:\n        /* \"#utility.yul\":18053:18130   */\n      0x4e487b7100000000000000000000000000000000000000000000000000000000\n        /* \"#utility.yul\":18050:18051   */\n      0x00\n        /* \"#utility.yul\":18043:18131   */\n      mstore\n        /* \"#utility.yul\":18150:18154   */\n      0x12\n        /* \"#utility.yul\":18147:18148   */\n      0x04\n        /* \"#utility.yul\":18140:18155   */\n      mstore\n        /* \"#utility.yul\":18174:18178   */\n      0x24\n        /* \"#utility.yul\":18171:18172   */\n      0x00\n        /* \"#utility.yul\":18164:18179   */\n      revert\n        /* \"#utility.yul\":18191:18285   */\n    tag_403:\n      0x00\n        /* \"#utility.yul\":18272:18277   */\n      dup2\n        /* \"#utility.yul\":18268:18270   */\n      0x60\n        /* \"#utility.yul\":18264:18278   */\n      shl\n        /* \"#utility.yul\":18243:18278   */\n      swap1\n      pop\n        /* \"#utility.yul\":18233:18285   */\n      swap2\n      swap1\n      pop\n      jump\t// out\n        /* \"#utility.yul\":18291:18413   */\n    tag_222:\n        /* \"#utility.yul\":18364:18388   */\n      tag_414\n        /* \"#utility.yul\":18382:18387   */\n      dup2\n        /* \"#utility.yul\":18364:18388   */\n      tag_258\n      jump\t// in\n    tag_414:\n        /* \"#utility.yul\":18357:18362   */\n      dup2\n        /* \"#utility.yul\":18354:18389   */\n      eq\n        /* \"#utility.yul\":18344:18346   */\n      tag_415\n      jumpi\n        /* \"#utility.yul\":18403:18404   */\n      0x00\n        /* \"#utility.yul\":18400:18401   */\n      dup1\n        /* \"#utility.yul\":18393:18405   */\n      revert\n        /* \"#utility.yul\":18344:18346   */\n    tag_415:\n        /* \"#utility.yul\":18334:18413   */\n      pop\n      jump\t// out\n        /* \"#utility.yul\":18419:18535   */\n    tag_226:\n        /* \"#utility.yul\":18489:18510   */\n      tag_417\n        /* \"#utility.yul\":18504:18509   */\n      dup2\n        /* \"#utility.yul\":18489:18510   */\n      tag_284\n      jump\t// in\n    tag_417:\n        /* \"#utility.yul\":18482:18487   */\n      dup2\n        /* \"#utility.yul\":18479:18511   */\n      eq\n        /* \"#utility.yul\":18469:18471   */\n      tag_418\n      jumpi\n        /* \"#utility.yul\":18525:18526   */\n      0x00\n        /* \"#utility.yul\":18522:18523   */\n      dup1\n        /* \"#utility.yul\":18515:18527   */\n      revert\n        /* \"#utility.yul\":18469:18471   */\n    tag_418:\n        /* \"#utility.yul\":18459:18535   */\n      pop\n      jump\t// out\n        /* \"#utility.yul\":18541:18663   */\n    tag_230:\n        /* \"#utility.yul\":18614:18638   */\n      tag_420\n        /* \"#utility.yul\":18632:18637   */\n      dup2\n        /* \"#utility.yul\":18614:18638   */\n      tag_324\n      jump\t// in\n    tag_420:\n        /* \"#utility.yul\":18607:18612   */\n      dup2\n        /* \"#utility.yul\":18604:18639   */\n      eq\n        /* \"#utility.yul\":18594:18596   */\n      tag_421\n      jumpi\n        /* \"#utility.yul\":18653:18654   */\n      0x00\n        /* \"#utility.yul\":18650:18651   */\n      dup1\n        /* \"#utility.yul\":18643:18655   */\n      revert\n        /* \"#utility.yul\":18594:18596   */\n    tag_421:\n        /* \"#utility.yul\":18584:18663   */\n      pop\n      jump\t// out\n\n    auxdata: 0xa2646970667358221220bc46ffcc915f14eb616d63d621d02085532e050494adeb1440f52007180721b064736f6c63430008000033\n}\n",
				"bytecode": {
					"linkReferences": {},
					"object": "60806040523480156200001157600080fd5b506040516200208c3803806200208c8339818101604052810190620000379190620001cf565b620000576200004b620000ec60201b60201c565b620000f460201b60201c565b80600073ffffffffffffffffffffffffffffffffffffffff168173ffffffffffffffffffffffffffffffffffffffff1614156200009357600080fd5b81600160006101000a81548173ffffffffffffffffffffffffffffffffffffffff021916908373ffffffffffffffffffffffffffffffffffffffff160217905550600a6002819055506001600581905550505062000249565b600033905090565b60008060009054906101000a900473ffffffffffffffffffffffffffffffffffffffff169050816000806101000a81548173ffffffffffffffffffffffffffffffffffffffff021916908373ffffffffffffffffffffffffffffffffffffffff1602179055508173ffffffffffffffffffffffffffffffffffffffff168173ffffffffffffffffffffffffffffffffffffffff167f8be0079c531659141344cd1fd0a4f28419497f9722a3daafe3b4186f6b6457e060405160405180910390a35050565b600081519050620001c9816200022f565b92915050565b600060208284031215620001e257600080fd5b6000620001f284828501620001b8565b91505092915050565b600062000208826200020f565b9050919050565b600073ffffffffffffffffffffffffffffffffffffffff82169050919050565b6200023a81620001fb565b81146200024657600080fd5b50565b611e3380620002596000396000f3fe6080604052600436106100c65760003560e01c806378651b421161007f5780639c42ad76116100595780639c42ad7614610248578063c93a7f6e14610285578063decb4abc146102b0578063f2fde38b146102ed576100cd565b806378651b42146101c95780638446464e146101f45780638da5cb5b1461021d576100cd565b8063110809c7146100cf57806311e1512d146100f85780631a360f35146101215780633cfde5491461014c5780633f4dd26814610189578063715018a6146101b2576100cd565b366100cd57005b005b3480156100db57600080fd5b506100f660048036038101906100f191906113e7565b610316565b005b34801561010457600080fd5b5061011f600480360381019061011a91906113e7565b61039c565b005b34801561012d57600080fd5b50610136610422565b6040516101439190611b2c565b60405180910390f35b34801561015857600080fd5b50610173600480360381019061016e919061131e565b61042c565b60405161018091906119cf565b60405180910390f35b34801561019557600080fd5b506101b060048036038101906101ab9190611410565b6104c3565b005b3480156101be57600080fd5b506101c76107d5565b005b3480156101d557600080fd5b506101de61085d565b6040516101eb9190611b2c565b60405180910390f35b34801561020057600080fd5b5061021b60048036038101906102169190611347565b610867565b005b34801561022957600080fd5b50610232610c36565b60405161023f919061198b565b60405180910390f35b34801561025457600080fd5b5061026f600480360381019061026a91906113e7565b610c5f565b60405161027c9190611b2c565b60405180910390f35b34801561029157600080fd5b5061029a610db9565b6040516102a79190611b2c565b60405180910390f35b3480156102bc57600080fd5b506102d760048036038101906102d291906113e7565b610dc3565b6040516102e49190611b11565b60405180910390f35b3480156102f957600080fd5b50610314600480360381019061030f919061131e565b610efd565b005b61031e610ff5565b73ffffffffffffffffffffffffffffffffffffffff1661033c610c36565b73ffffffffffffffffffffffffffffffffffffffff1614610392576040517f08c379a000000000000000000000000000000000000000000000000000000000815260040161038990611ab1565b60405180910390fd5b8060028190555050565b6103a4610ff5565b73ffffffffffffffffffffffffffffffffffffffff166103c2610c36565b73ffffffffffffffffffffffffffffffffffffffff1614610418576040517f08c379a000000000000000000000000000000000000000000000000000000000815260040161040f90611ab1565b60405180910390fd5b8060058190555050565b6000600254905090565b6060600760008373ffffffffffffffffffffffffffffffffffffffff1673ffffffffffffffffffffffffffffffffffffffff1681526020019081526020016000208054806020026020016040519081016040528092919081815260200182805480156104b757602002820191906000526020600020905b8154815260200190600101908083116104a3575b50505050509050919050565b600115156006600084815260200190815260200160002060060160009054906101000a900460ff161515146104f757600080fd5b6104ff610c36565b73ffffffffffffffffffffffffffffffffffffffff1661051d610ff5565b73ffffffffffffffffffffffffffffffffffffffff1614806105a757506006600083815260200190815260200160002060000160009054906101000a900473ffffffffffffffffffffffffffffffffffffffff1673ffffffffffffffffffffffffffffffffffffffff1661058f610ff5565b73ffffffffffffffffffffffffffffffffffffffff16145b6105e6576040517f08c379a00000000000000000000000000000000000000000000000000000000081526004016105dd90611af1565b60405180910390fd5b6000600660008481526020019081526020016000206040518060e00160405290816000820160009054906101000a900473ffffffffffffffffffffffffffffffffffffffff1673ffffffffffffffffffffffffffffffffffffffff1673ffffffffffffffffffffffffffffffffffffffff16815260200160018201548152602001600282015481526020016003820154815260200160048201548152602001600582015481526020016006820160009054906101000a900460ff161515151581525050905060006106b682610ffd565b9050808311156106fb576040517f08c379a00000000000000000000000000000000000000000000000000000000081526004016106f290611ad1565b60405180910390fd5b610712838360a0015161112190919063ffffffff16565b8260a0018181525050600160009054906101000a900473ffffffffffffffffffffffffffffffffffffffff1673ffffffffffffffffffffffffffffffffffffffff1663a9059cbb8360000151856040518363ffffffff1660e01b815260040161077c9291906119a6565b602060405180830381600087803b15801561079657600080fd5b505af11580156107aa573d6000803e3d6000fd5b505050506040513d601f19601f820116820180604052508101906107ce91906113be565b5050505050565b6107dd610ff5565b73ffffffffffffffffffffffffffffffffffffffff166107fb610c36565b73ffffffffffffffffffffffffffffffffffffffff1614610851576040517f08c379a000000000000000000000000000000000000000000000000000000000815260040161084890611ab1565b60405180910390fd5b61085b6000611137565b565b6000600354905090565b61086f610ff5565b73ffffffffffffffffffffffffffffffffffffffff1661088d610c36565b73ffffffffffffffffffffffffffffffffffffffff16146108e3576040517f08c379a00000000000000000000000000000000000000000000000000000000081526004016108da90611ab1565b60405180910390fd5b600073ffffffffffffffffffffffffffffffffffffffff168573ffffffffffffffffffffffffffffffffffffffff161415610953576040517f08c379a000000000000000000000000000000000000000000000000000000000815260040161094a90611a51565b60405180910390fd5b60008311610996576040517f08c379a000000000000000000000000000000000000000000000000000000000815260040161098d90611a11565b60405180910390fd5b600081116109d9576040517f08c379a00000000000000000000000000000000000000000000000000000000081526004016109d090611a91565b60405180910390fd5b600554600760008773ffffffffffffffffffffffffffffffffffffffff1673ffffffffffffffffffffffffffffffffffffffff1681526020019081526020016000208054905010610a5f576040517f08c379a0000000000000000000000000000000000000000000000000000000008152600401610a5690611a31565b60405180910390fd5b60006040518060e001604052808773ffffffffffffffffffffffffffffffffffffffff16815260200186815260200185815260200184815260200183815260200160008152602001600115158152509050610abc866003546111fb565b60048190555060076000826000015173ffffffffffffffffffffffffffffffffffffffff1673ffffffffffffffffffffffffffffffffffffffff16815260200190815260200160002060045490806001815401808255809150506001900390600052602060002001600090919091909150558060066000600454815260200190815260200160002060008201518160000160006101000a81548173ffffffffffffffffffffffffffffffffffffffff021916908373ffffffffffffffffffffffffffffffffffffffff1602179055506020820151816001015560408201518160020155606082015181600301556080820151816004015560a0820151816005015560c08201518160060160006101000a81548160ff021916908315150217905550905050610bf6600160035461112190919063ffffffff16565b507f03ac17a064e5f9f8a942a4e1b3d07157fa74128806fab9b656a6b986182ffad181604051610c269190611b11565b60405180910390a1505050505050565b60008060009054906101000a900473ffffffffffffffffffffffffffffffffffffffff16905090565b6000600115156006600084815260200190815260200160002060060160009054906101000a900460ff16151514610ccb576040517f08c379a0000000000000000000000000000000000000000000000000000000008152600401610cc290611a71565b60405180910390fd5b6000600660008481526020019081526020016000206040518060e00160405290816000820160009054906101000a900473ffffffffffffffffffffffffffffffffffffffff1673ffffffffffffffffffffffffffffffffffffffff1673ffffffffffffffffffffffffffffffffffffffff16815260200160018201548152602001600282015481526020016003820154815260200160048201548152602001600582015481526020016006820160009054906101000a900460ff16151515158152505090506000610dad8260a00151836080015161124090919063ffffffff16565b90508092505050919050565b6000600554905090565b610dcb61128a565b600115156006600084815260200190815260200160002060060160009054906101000a900460ff16151514610e35576040517f08c379a0000000000000000000000000000000000000000000000000000000008152600401610e2c90611a71565b60405180910390fd5b600660008381526020019081526020016000206040518060e00160405290816000820160009054906101000a900473ffffffffffffffffffffffffffffffffffffffff1673ffffffffffffffffffffffffffffffffffffffff1673ffffffffffffffffffffffffffffffffffffffff16815260200160018201548152602001600282015481526020016003820154815260200160048201548152602001600582015481526020016006820160009054906101000a900460ff1615151515815250509050919050565b610f05610ff5565b73ffffffffffffffffffffffffffffffffffffffff16610f23610c36565b73ffffffffffffffffffffffffffffffffffffffff1614610f79576040517f08c379a0000000000000000000000000000000000000000000000000000000008152600401610f7090611ab1565b60405180910390fd5b600073ffffffffffffffffffffffffffffffffffffffff168173ffffffffffffffffffffffffffffffffffffffff161415610fe9576040517f08c379a0000000000000000000000000000000000000000000000000000000008152600401610fe0906119f1565b60405180910390fd5b610ff281611137565b50565b600033905090565b600080611008611256565b90506110258360400151846020015161112190919063ffffffff16565b8110156110fd576000603c846060015161103f9190611c18565b6201518085604001516110529190611c18565b61105c9190611be7565b9050600061107785602001518461124090919063ffffffff16565b9050600061109286606001518361125e90919063ffffffff16565b905060006110d5846110c7846110b98b606001518c6080015161127490919063ffffffff16565b61127490919063ffffffff16565b61125e90919063ffffffff16565b90506110ee8760a001518261124090919063ffffffff16565b9050809550505050505061111c565b6111188360a00151846080015161124090919063ffffffff16565b9150505b919050565b6000818361112f9190611b91565b905092915050565b60008060009054906101000a900473ffffffffffffffffffffffffffffffffffffffff169050816000806101000a81548173ffffffffffffffffffffffffffffffffffffffff021916908373ffffffffffffffffffffffffffffffffffffffff1602179055508173ffffffffffffffffffffffffffffffffffffffff168173ffffffffffffffffffffffffffffffffffffffff167f8be0079c531659141344cd1fd0a4f28419497f9722a3daafe3b4186f6b6457e060405160405180910390a35050565b6000633b9aca00838360405160200161121592919061195f565b6040516020818303038152906040528051906020012060001c6112389190611d1c565b905092915050565b6000818361124e9190611c72565b905092915050565b600042905090565b6000818361126c9190611be7565b905092915050565b600081836112829190611c18565b905092915050565b6040518060e00160405280600073ffffffffffffffffffffffffffffffffffffffff16815260200160008152602001600081526020016000815260200160008152602001600081526020016000151581525090565b6000813590506112ee81611db8565b92915050565b60008151905061130381611dcf565b92915050565b60008135905061131881611de6565b92915050565b60006020828403121561133057600080fd5b600061133e848285016112df565b91505092915050565b600080600080600060a0868803121561135f57600080fd5b600061136d888289016112df565b955050602061137e88828901611309565b945050604061138f88828901611309565b93505060606113a088828901611309565b92505060806113b188828901611309565b9150509295509295909350565b6000602082840312156113d057600080fd5b60006113de848285016112f4565b91505092915050565b6000602082840312156113f957600080fd5b600061140784828501611309565b91505092915050565b6000806040838503121561142357600080fd5b600061143185828601611309565b925050602061144285828601611309565b9150509250929050565b6000611458838361192a565b60208301905092915050565b61146d81611ca6565b82525050565b61147c81611ca6565b82525050565b61149361148e82611ca6565b611cee565b82525050565b60006114a482611b57565b6114ae8185611b6f565b93506114b983611b47565b8060005b838110156114ea5781516114d1888261144c565b97506114dc83611b62565b9250506001810190506114bd565b5085935050505092915050565b61150081611cb8565b82525050565b6000611513602683611b80565b91507f4f776e61626c653a206e6577206f776e657220697320746865207a65726f206160008301527f64647265737300000000000000000000000000000000000000000000000000006020830152604082019050919050565b6000611579603683611b80565b91507f546f6b656e56657374696e673a2056657374696e6720706572696f64206d757360008301527f742062652067726561746572207468616e207a65726f000000000000000000006020830152604082019050919050565b60006115df604283611b80565b91507f546f6b656e56657374696e673a20536368656d6520636f756e7420666f72207460008301527f6869732062656e6566696369617279206861732072656163686564206c696d6960208301527f742e0000000000000000000000000000000000000000000000000000000000006040830152606082019050919050565b600061166b603483611b80565b91507f546f6b656e56657374696e673a2043616e6e6f7420616464207a65726f20616460008301527f64726573732061732062656e65666963696172790000000000000000000000006020830152604082019050919050565b60006116d1604083611b80565b91507f546f6b656e56657374696e673a2056657374696e6720536368656d652069732060008301527f6569746865722064656c65746564206f7220646f6573206e6f742065786973746020830152604082019050919050565b6000611737603483611b80565b91507f546f6b656e56657374696e673a205665737461626c6520616d6f756e74206d7560008301527f73742062652067726561746572207468616e20300000000000000000000000006020830152604082019050919050565b600061179d602083611b80565b91507f4f776e61626c653a2063616c6c6572206973206e6f7420746865206f776e65726000830152602082019050919050565b60006117dd603783611b80565b91507f546f6b656e56657374696e673a20416d6f756e7420677265617465722074686160008301527f6e2063757272656e742076657374656420616d6f756e740000000000000000006020830152604082019050919050565b6000611843603183611b80565b91507f546f6b656e56657374696e673a2043616c6c6572206d757374206265206f776e60008301527f6572206f722062656e65666963696172790000000000000000000000000000006020830152604082019050919050565b60e0820160008201516118b26000850182611464565b5060208201516118c5602085018261192a565b5060408201516118d8604085018261192a565b5060608201516118eb606085018261192a565b5060808201516118fe608085018261192a565b5060a082015161191160a085018261192a565b5060c082015161192460c08501826114f7565b50505050565b61193381611ce4565b82525050565b61194281611ce4565b82525050565b61195961195482611ce4565b611d12565b82525050565b600061196b8285611482565b60148201915061197b8284611948565b6020820191508190509392505050565b60006020820190506119a06000830184611473565b92915050565b60006040820190506119bb6000830185611473565b6119c86020830184611939565b9392505050565b600060208201905081810360008301526119e98184611499565b905092915050565b60006020820190508181036000830152611a0a81611506565b9050919050565b60006020820190508181036000830152611a2a8161156c565b9050919050565b60006020820190508181036000830152611a4a816115d2565b9050919050565b60006020820190508181036000830152611a6a8161165e565b9050919050565b60006020820190508181036000830152611a8a816116c4565b9050919050565b60006020820190508181036000830152611aaa8161172a565b9050919050565b60006020820190508181036000830152611aca81611790565b9050919050565b60006020820190508181036000830152611aea816117d0565b9050919050565b60006020820190508181036000830152611b0a81611836565b9050919050565b600060e082019050611b26600083018461189c565b92915050565b6000602082019050611b416000830184611939565b92915050565b6000819050602082019050919050565b600081519050919050565b6000602082019050919050565b600082825260208201905092915050565b600082825260208201905092915050565b6000611b9c82611ce4565b9150611ba783611ce4565b9250827fffffffffffffffffffffffffffffffffffffffffffffffffffffffffffffffff03821115611bdc57611bdb611d4d565b5b828201905092915050565b6000611bf282611ce4565b9150611bfd83611ce4565b925082611c0d57611c0c611d7c565b5b828204905092915050565b6000611c2382611ce4565b9150611c2e83611ce4565b9250817fffffffffffffffffffffffffffffffffffffffffffffffffffffffffffffffff0483118215151615611c6757611c66611d4d565b5b828202905092915050565b6000611c7d82611ce4565b9150611c8883611ce4565b925082821015611c9b57611c9a611d4d565b5b828203905092915050565b6000611cb182611cc4565b9050919050565b60008115159050919050565b600073ffffffffffffffffffffffffffffffffffffffff82169050919050565b6000819050919050565b6000611cf982611d00565b9050919050565b6000611d0b82611dab565b9050919050565b6000819050919050565b6000611d2782611ce4565b9150611d3283611ce4565b925082611d4257611d41611d7c565b5b828206905092915050565b7f4e487b7100000000000000000000000000000000000000000000000000000000600052601160045260246000fd5b7f4e487b7100000000000000000000000000000000000000000000000000000000600052601260045260246000fd5b60008160601b9050919050565b611dc181611ca6565b8114611dcc57600080fd5b50565b611dd881611cb8565b8114611de357600080fd5b50565b611def81611ce4565b8114611dfa57600080fd5b5056fea2646970667358221220bc46ffcc915f14eb616d63d621d02085532e050494adeb1440f52007180721b064736f6c63430008000033",
					"opcodes": "PUSH1 0x80 PUSH1 0x40 MSTORE CALLVALUE DUP1 ISZERO PUSH3 0x11 JUMPI PUSH1 0x0 DUP1 REVERT JUMPDEST POP PUSH1 0x40 MLOAD PUSH3 0x208C CODESIZE SUB DUP1 PUSH3 0x208C DUP4 CODECOPY DUP2 DUP2 ADD PUSH1 0x40 MSTORE DUP2 ADD SWAP1 PUSH3 0x37 SWAP2 SWAP1 PUSH3 0x1CF JUMP JUMPDEST PUSH3 0x57 PUSH3 0x4B PUSH3 0xEC PUSH1 0x20 SHL PUSH1 0x20 SHR JUMP JUMPDEST PUSH3 0xF4 PUSH1 0x20 SHL PUSH1 0x20 SHR JUMP JUMPDEST DUP1 PUSH1 0x0 PUSH20 0xFFFFFFFFFFFFFFFFFFFFFFFFFFFFFFFFFFFFFFFF AND DUP2 PUSH20 0xFFFFFFFFFFFFFFFFFFFFFFFFFFFFFFFFFFFFFFFF AND EQ ISZERO PUSH3 0x93 JUMPI PUSH1 0x0 DUP1 REVERT JUMPDEST DUP2 PUSH1 0x1 PUSH1 0x0 PUSH2 0x100 EXP DUP2 SLOAD DUP2 PUSH20 0xFFFFFFFFFFFFFFFFFFFFFFFFFFFFFFFFFFFFFFFF MUL NOT AND SWAP1 DUP4 PUSH20 0xFFFFFFFFFFFFFFFFFFFFFFFFFFFFFFFFFFFFFFFF AND MUL OR SWAP1 SSTORE POP PUSH1 0xA PUSH1 0x2 DUP2 SWAP1 SSTORE POP PUSH1 0x1 PUSH1 0x5 DUP2 SWAP1 SSTORE POP POP POP PUSH3 0x249 JUMP JUMPDEST PUSH1 0x0 CALLER SWAP1 POP SWAP1 JUMP JUMPDEST PUSH1 0x0 DUP1 PUSH1 0x0 SWAP1 SLOAD SWAP1 PUSH2 0x100 EXP SWAP1 DIV PUSH20 0xFFFFFFFFFFFFFFFFFFFFFFFFFFFFFFFFFFFFFFFF AND SWAP1 POP DUP2 PUSH1 0x0 DUP1 PUSH2 0x100 EXP DUP2 SLOAD DUP2 PUSH20 0xFFFFFFFFFFFFFFFFFFFFFFFFFFFFFFFFFFFFFFFF MUL NOT AND SWAP1 DUP4 PUSH20 0xFFFFFFFFFFFFFFFFFFFFFFFFFFFFFFFFFFFFFFFF AND MUL OR SWAP1 SSTORE POP DUP2 PUSH20 0xFFFFFFFFFFFFFFFFFFFFFFFFFFFFFFFFFFFFFFFF AND DUP2 PUSH20 0xFFFFFFFFFFFFFFFFFFFFFFFFFFFFFFFFFFFFFFFF AND PUSH32 0x8BE0079C531659141344CD1FD0A4F28419497F9722A3DAAFE3B4186F6B6457E0 PUSH1 0x40 MLOAD PUSH1 0x40 MLOAD DUP1 SWAP2 SUB SWAP1 LOG3 POP POP JUMP JUMPDEST PUSH1 0x0 DUP2 MLOAD SWAP1 POP PUSH3 0x1C9 DUP2 PUSH3 0x22F JUMP JUMPDEST SWAP3 SWAP2 POP POP JUMP JUMPDEST PUSH1 0x0 PUSH1 0x20 DUP3 DUP5 SUB SLT ISZERO PUSH3 0x1E2 JUMPI PUSH1 0x0 DUP1 REVERT JUMPDEST PUSH1 0x0 PUSH3 0x1F2 DUP5 DUP3 DUP6 ADD PUSH3 0x1B8 JUMP JUMPDEST SWAP2 POP POP SWAP3 SWAP2 POP POP JUMP JUMPDEST PUSH1 0x0 PUSH3 0x208 DUP3 PUSH3 0x20F JUMP JUMPDEST SWAP1 POP SWAP2 SWAP1 POP JUMP JUMPDEST PUSH1 0x0 PUSH20 0xFFFFFFFFFFFFFFFFFFFFFFFFFFFFFFFFFFFFFFFF DUP3 AND SWAP1 POP SWAP2 SWAP1 POP JUMP JUMPDEST PUSH3 0x23A DUP2 PUSH3 0x1FB JUMP JUMPDEST DUP2 EQ PUSH3 0x246 JUMPI PUSH1 0x0 DUP1 REVERT JUMPDEST POP JUMP JUMPDEST PUSH2 0x1E33 DUP1 PUSH3 0x259 PUSH1 0x0 CODECOPY PUSH1 0x0 RETURN INVALID PUSH1 0x80 PUSH1 0x40 MSTORE PUSH1 0x4 CALLDATASIZE LT PUSH2 0xC6 JUMPI PUSH1 0x0 CALLDATALOAD PUSH1 0xE0 SHR DUP1 PUSH4 0x78651B42 GT PUSH2 0x7F JUMPI DUP1 PUSH4 0x9C42AD76 GT PUSH2 0x59 JUMPI DUP1 PUSH4 0x9C42AD76 EQ PUSH2 0x248 JUMPI DUP1 PUSH4 0xC93A7F6E EQ PUSH2 0x285 JUMPI DUP1 PUSH4 0xDECB4ABC EQ PUSH2 0x2B0 JUMPI DUP1 PUSH4 0xF2FDE38B EQ PUSH2 0x2ED JUMPI PUSH2 0xCD JUMP JUMPDEST DUP1 PUSH4 0x78651B42 EQ PUSH2 0x1C9 JUMPI DUP1 PUSH4 0x8446464E EQ PUSH2 0x1F4 JUMPI DUP1 PUSH4 0x8DA5CB5B EQ PUSH2 0x21D JUMPI PUSH2 0xCD JUMP JUMPDEST DUP1 PUSH4 0x110809C7 EQ PUSH2 0xCF JUMPI DUP1 PUSH4 0x11E1512D EQ PUSH2 0xF8 JUMPI DUP1 PUSH4 0x1A360F35 EQ PUSH2 0x121 JUMPI DUP1 PUSH4 0x3CFDE549 EQ PUSH2 0x14C JUMPI DUP1 PUSH4 0x3F4DD268 EQ PUSH2 0x189 JUMPI DUP1 PUSH4 0x715018A6 EQ PUSH2 0x1B2 JUMPI PUSH2 0xCD JUMP JUMPDEST CALLDATASIZE PUSH2 0xCD JUMPI STOP JUMPDEST STOP JUMPDEST CALLVALUE DUP1 ISZERO PUSH2 0xDB JUMPI PUSH1 0x0 DUP1 REVERT JUMPDEST POP PUSH2 0xF6 PUSH1 0x4 DUP1 CALLDATASIZE SUB DUP2 ADD SWAP1 PUSH2 0xF1 SWAP2 SWAP1 PUSH2 0x13E7 JUMP JUMPDEST PUSH2 0x316 JUMP JUMPDEST STOP JUMPDEST CALLVALUE DUP1 ISZERO PUSH2 0x104 JUMPI PUSH1 0x0 DUP1 REVERT JUMPDEST POP PUSH2 0x11F PUSH1 0x4 DUP1 CALLDATASIZE SUB DUP2 ADD SWAP1 PUSH2 0x11A SWAP2 SWAP1 PUSH2 0x13E7 JUMP JUMPDEST PUSH2 0x39C JUMP JUMPDEST STOP JUMPDEST CALLVALUE DUP1 ISZERO PUSH2 0x12D JUMPI PUSH1 0x0 DUP1 REVERT JUMPDEST POP PUSH2 0x136 PUSH2 0x422 JUMP JUMPDEST PUSH1 0x40 MLOAD PUSH2 0x143 SWAP2 SWAP1 PUSH2 0x1B2C JUMP JUMPDEST PUSH1 0x40 MLOAD DUP1 SWAP2 SUB SWAP1 RETURN JUMPDEST CALLVALUE DUP1 ISZERO PUSH2 0x158 JUMPI PUSH1 0x0 DUP1 REVERT JUMPDEST POP PUSH2 0x173 PUSH1 0x4 DUP1 CALLDATASIZE SUB DUP2 ADD SWAP1 PUSH2 0x16E SWAP2 SWAP1 PUSH2 0x131E JUMP JUMPDEST PUSH2 0x42C JUMP JUMPDEST PUSH1 0x40 MLOAD PUSH2 0x180 SWAP2 SWAP1 PUSH2 0x19CF JUMP JUMPDEST PUSH1 0x40 MLOAD DUP1 SWAP2 SUB SWAP1 RETURN JUMPDEST CALLVALUE DUP1 ISZERO PUSH2 0x195 JUMPI PUSH1 0x0 DUP1 REVERT JUMPDEST POP PUSH2 0x1B0 PUSH1 0x4 DUP1 CALLDATASIZE SUB DUP2 ADD SWAP1 PUSH2 0x1AB SWAP2 SWAP1 PUSH2 0x1410 JUMP JUMPDEST PUSH2 0x4C3 JUMP JUMPDEST STOP JUMPDEST CALLVALUE DUP1 ISZERO PUSH2 0x1BE JUMPI PUSH1 0x0 DUP1 REVERT JUMPDEST POP PUSH2 0x1C7 PUSH2 0x7D5 JUMP JUMPDEST STOP JUMPDEST CALLVALUE DUP1 ISZERO PUSH2 0x1D5 JUMPI PUSH1 0x0 DUP1 REVERT JUMPDEST POP PUSH2 0x1DE PUSH2 0x85D JUMP JUMPDEST PUSH1 0x40 MLOAD PUSH2 0x1EB SWAP2 SWAP1 PUSH2 0x1B2C JUMP JUMPDEST PUSH1 0x40 MLOAD DUP1 SWAP2 SUB SWAP1 RETURN JUMPDEST CALLVALUE DUP1 ISZERO PUSH2 0x200 JUMPI PUSH1 0x0 DUP1 REVERT JUMPDEST POP PUSH2 0x21B PUSH1 0x4 DUP1 CALLDATASIZE SUB DUP2 ADD SWAP1 PUSH2 0x216 SWAP2 SWAP1 PUSH2 0x1347 JUMP JUMPDEST PUSH2 0x867 JUMP JUMPDEST STOP JUMPDEST CALLVALUE DUP1 ISZERO PUSH2 0x229 JUMPI PUSH1 0x0 DUP1 REVERT JUMPDEST POP PUSH2 0x232 PUSH2 0xC36 JUMP JUMPDEST PUSH1 0x40 MLOAD PUSH2 0x23F SWAP2 SWAP1 PUSH2 0x198B JUMP JUMPDEST PUSH1 0x40 MLOAD DUP1 SWAP2 SUB SWAP1 RETURN JUMPDEST CALLVALUE DUP1 ISZERO PUSH2 0x254 JUMPI PUSH1 0x0 DUP1 REVERT JUMPDEST POP PUSH2 0x26F PUSH1 0x4 DUP1 CALLDATASIZE SUB DUP2 ADD SWAP1 PUSH2 0x26A SWAP2 SWAP1 PUSH2 0x13E7 JUMP JUMPDEST PUSH2 0xC5F JUMP JUMPDEST PUSH1 0x40 MLOAD PUSH2 0x27C SWAP2 SWAP1 PUSH2 0x1B2C JUMP JUMPDEST PUSH1 0x40 MLOAD DUP1 SWAP2 SUB SWAP1 RETURN JUMPDEST CALLVALUE DUP1 ISZERO PUSH2 0x291 JUMPI PUSH1 0x0 DUP1 REVERT JUMPDEST POP PUSH2 0x29A PUSH2 0xDB9 JUMP JUMPDEST PUSH1 0x40 MLOAD PUSH2 0x2A7 SWAP2 SWAP1 PUSH2 0x1B2C JUMP JUMPDEST PUSH1 0x40 MLOAD DUP1 SWAP2 SUB SWAP1 RETURN JUMPDEST CALLVALUE DUP1 ISZERO PUSH2 0x2BC JUMPI PUSH1 0x0 DUP1 REVERT JUMPDEST POP PUSH2 0x2D7 PUSH1 0x4 DUP1 CALLDATASIZE SUB DUP2 ADD SWAP1 PUSH2 0x2D2 SWAP2 SWAP1 PUSH2 0x13E7 JUMP JUMPDEST PUSH2 0xDC3 JUMP JUMPDEST PUSH1 0x40 MLOAD PUSH2 0x2E4 SWAP2 SWAP1 PUSH2 0x1B11 JUMP JUMPDEST PUSH1 0x40 MLOAD DUP1 SWAP2 SUB SWAP1 RETURN JUMPDEST CALLVALUE DUP1 ISZERO PUSH2 0x2F9 JUMPI PUSH1 0x0 DUP1 REVERT JUMPDEST POP PUSH2 0x314 PUSH1 0x4 DUP1 CALLDATASIZE SUB DUP2 ADD SWAP1 PUSH2 0x30F SWAP2 SWAP1 PUSH2 0x131E JUMP JUMPDEST PUSH2 0xEFD JUMP JUMPDEST STOP JUMPDEST PUSH2 0x31E PUSH2 0xFF5 JUMP JUMPDEST PUSH20 0xFFFFFFFFFFFFFFFFFFFFFFFFFFFFFFFFFFFFFFFF AND PUSH2 0x33C PUSH2 0xC36 JUMP JUMPDEST PUSH20 0xFFFFFFFFFFFFFFFFFFFFFFFFFFFFFFFFFFFFFFFF AND EQ PUSH2 0x392 JUMPI PUSH1 0x40 MLOAD PUSH32 0x8C379A000000000000000000000000000000000000000000000000000000000 DUP2 MSTORE PUSH1 0x4 ADD PUSH2 0x389 SWAP1 PUSH2 0x1AB1 JUMP JUMPDEST PUSH1 0x40 MLOAD DUP1 SWAP2 SUB SWAP1 REVERT JUMPDEST DUP1 PUSH1 0x2 DUP2 SWAP1 SSTORE POP POP JUMP JUMPDEST PUSH2 0x3A4 PUSH2 0xFF5 JUMP JUMPDEST PUSH20 0xFFFFFFFFFFFFFFFFFFFFFFFFFFFFFFFFFFFFFFFF AND PUSH2 0x3C2 PUSH2 0xC36 JUMP JUMPDEST PUSH20 0xFFFFFFFFFFFFFFFFFFFFFFFFFFFFFFFFFFFFFFFF AND EQ PUSH2 0x418 JUMPI PUSH1 0x40 MLOAD PUSH32 0x8C379A000000000000000000000000000000000000000000000000000000000 DUP2 MSTORE PUSH1 0x4 ADD PUSH2 0x40F SWAP1 PUSH2 0x1AB1 JUMP JUMPDEST PUSH1 0x40 MLOAD DUP1 SWAP2 SUB SWAP1 REVERT JUMPDEST DUP1 PUSH1 0x5 DUP2 SWAP1 SSTORE POP POP JUMP JUMPDEST PUSH1 0x0 PUSH1 0x2 SLOAD SWAP1 POP SWAP1 JUMP JUMPDEST PUSH1 0x60 PUSH1 0x7 PUSH1 0x0 DUP4 PUSH20 0xFFFFFFFFFFFFFFFFFFFFFFFFFFFFFFFFFFFFFFFF AND PUSH20 0xFFFFFFFFFFFFFFFFFFFFFFFFFFFFFFFFFFFFFFFF AND DUP2 MSTORE PUSH1 0x20 ADD SWAP1 DUP2 MSTORE PUSH1 0x20 ADD PUSH1 0x0 KECCAK256 DUP1 SLOAD DUP1 PUSH1 0x20 MUL PUSH1 0x20 ADD PUSH1 0x40 MLOAD SWAP1 DUP2 ADD PUSH1 0x40 MSTORE DUP1 SWAP3 SWAP2 SWAP1 DUP2 DUP2 MSTORE PUSH1 0x20 ADD DUP3 DUP1 SLOAD DUP1 ISZERO PUSH2 0x4B7 JUMPI PUSH1 0x20 MUL DUP3 ADD SWAP2 SWAP1 PUSH1 0x0 MSTORE PUSH1 0x20 PUSH1 0x0 KECCAK256 SWAP1 JUMPDEST DUP2 SLOAD DUP2 MSTORE PUSH1 0x20 ADD SWAP1 PUSH1 0x1 ADD SWAP1 DUP1 DUP4 GT PUSH2 0x4A3 JUMPI JUMPDEST POP POP POP POP POP SWAP1 POP SWAP2 SWAP1 POP JUMP JUMPDEST PUSH1 0x1 ISZERO ISZERO PUSH1 0x6 PUSH1 0x0 DUP5 DUP2 MSTORE PUSH1 0x20 ADD SWAP1 DUP2 MSTORE PUSH1 0x20 ADD PUSH1 0x0 KECCAK256 PUSH1 0x6 ADD PUSH1 0x0 SWAP1 SLOAD SWAP1 PUSH2 0x100 EXP SWAP1 DIV PUSH1 0xFF AND ISZERO ISZERO EQ PUSH2 0x4F7 JUMPI PUSH1 0x0 DUP1 REVERT JUMPDEST PUSH2 0x4FF PUSH2 0xC36 JUMP JUMPDEST PUSH20 0xFFFFFFFFFFFFFFFFFFFFFFFFFFFFFFFFFFFFFFFF AND PUSH2 0x51D PUSH2 0xFF5 JUMP JUMPDEST PUSH20 0xFFFFFFFFFFFFFFFFFFFFFFFFFFFFFFFFFFFFFFFF AND EQ DUP1 PUSH2 0x5A7 JUMPI POP PUSH1 0x6 PUSH1 0x0 DUP4 DUP2 MSTORE PUSH1 0x20 ADD SWAP1 DUP2 MSTORE PUSH1 0x20 ADD PUSH1 0x0 KECCAK256 PUSH1 0x0 ADD PUSH1 0x0 SWAP1 SLOAD SWAP1 PUSH2 0x100 EXP SWAP1 DIV PUSH20 0xFFFFFFFFFFFFFFFFFFFFFFFFFFFFFFFFFFFFFFFF AND PUSH20 0xFFFFFFFFFFFFFFFFFFFFFFFFFFFFFFFFFFFFFFFF AND PUSH2 0x58F PUSH2 0xFF5 JUMP JUMPDEST PUSH20 0xFFFFFFFFFFFFFFFFFFFFFFFFFFFFFFFFFFFFFFFF AND EQ JUMPDEST PUSH2 0x5E6 JUMPI PUSH1 0x40 MLOAD PUSH32 0x8C379A000000000000000000000000000000000000000000000000000000000 DUP2 MSTORE PUSH1 0x4 ADD PUSH2 0x5DD SWAP1 PUSH2 0x1AF1 JUMP JUMPDEST PUSH1 0x40 MLOAD DUP1 SWAP2 SUB SWAP1 REVERT JUMPDEST PUSH1 0x0 PUSH1 0x6 PUSH1 0x0 DUP5 DUP2 MSTORE PUSH1 0x20 ADD SWAP1 DUP2 MSTORE PUSH1 0x20 ADD PUSH1 0x0 KECCAK256 PUSH1 0x40 MLOAD DUP1 PUSH1 0xE0 ADD PUSH1 0x40 MSTORE SWAP1 DUP2 PUSH1 0x0 DUP3 ADD PUSH1 0x0 SWAP1 SLOAD SWAP1 PUSH2 0x100 EXP SWAP1 DIV PUSH20 0xFFFFFFFFFFFFFFFFFFFFFFFFFFFFFFFFFFFFFFFF AND PUSH20 0xFFFFFFFFFFFFFFFFFFFFFFFFFFFFFFFFFFFFFFFF AND PUSH20 0xFFFFFFFFFFFFFFFFFFFFFFFFFFFFFFFFFFFFFFFF AND DUP2 MSTORE PUSH1 0x20 ADD PUSH1 0x1 DUP3 ADD SLOAD DUP2 MSTORE PUSH1 0x20 ADD PUSH1 0x2 DUP3 ADD SLOAD DUP2 MSTORE PUSH1 0x20 ADD PUSH1 0x3 DUP3 ADD SLOAD DUP2 MSTORE PUSH1 0x20 ADD PUSH1 0x4 DUP3 ADD SLOAD DUP2 MSTORE PUSH1 0x20 ADD PUSH1 0x5 DUP3 ADD SLOAD DUP2 MSTORE PUSH1 0x20 ADD PUSH1 0x6 DUP3 ADD PUSH1 0x0 SWAP1 SLOAD SWAP1 PUSH2 0x100 EXP SWAP1 DIV PUSH1 0xFF AND ISZERO ISZERO ISZERO ISZERO DUP2 MSTORE POP POP SWAP1 POP PUSH1 0x0 PUSH2 0x6B6 DUP3 PUSH2 0xFFD JUMP JUMPDEST SWAP1 POP DUP1 DUP4 GT ISZERO PUSH2 0x6FB JUMPI PUSH1 0x40 MLOAD PUSH32 0x8C379A000000000000000000000000000000000000000000000000000000000 DUP2 MSTORE PUSH1 0x4 ADD PUSH2 0x6F2 SWAP1 PUSH2 0x1AD1 JUMP JUMPDEST PUSH1 0x40 MLOAD DUP1 SWAP2 SUB SWAP1 REVERT JUMPDEST PUSH2 0x712 DUP4 DUP4 PUSH1 0xA0 ADD MLOAD PUSH2 0x1121 SWAP1 SWAP2 SWAP1 PUSH4 0xFFFFFFFF AND JUMP JUMPDEST DUP3 PUSH1 0xA0 ADD DUP2 DUP2 MSTORE POP POP PUSH1 0x1 PUSH1 0x0 SWAP1 SLOAD SWAP1 PUSH2 0x100 EXP SWAP1 DIV PUSH20 0xFFFFFFFFFFFFFFFFFFFFFFFFFFFFFFFFFFFFFFFF AND PUSH20 0xFFFFFFFFFFFFFFFFFFFFFFFFFFFFFFFFFFFFFFFF AND PUSH4 0xA9059CBB DUP4 PUSH1 0x0 ADD MLOAD DUP6 PUSH1 0x40 MLOAD DUP4 PUSH4 0xFFFFFFFF AND PUSH1 0xE0 SHL DUP2 MSTORE PUSH1 0x4 ADD PUSH2 0x77C SWAP3 SWAP2 SWAP1 PUSH2 0x19A6 JUMP JUMPDEST PUSH1 0x20 PUSH1 0x40 MLOAD DUP1 DUP4 SUB DUP2 PUSH1 0x0 DUP8 DUP1 EXTCODESIZE ISZERO DUP1 ISZERO PUSH2 0x796 JUMPI PUSH1 0x0 DUP1 REVERT JUMPDEST POP GAS CALL ISZERO DUP1 ISZERO PUSH2 0x7AA JUMPI RETURNDATASIZE PUSH1 0x0 DUP1 RETURNDATACOPY RETURNDATASIZE PUSH1 0x0 REVERT JUMPDEST POP POP POP POP PUSH1 0x40 MLOAD RETURNDATASIZE PUSH1 0x1F NOT PUSH1 0x1F DUP3 ADD AND DUP3 ADD DUP1 PUSH1 0x40 MSTORE POP DUP2 ADD SWAP1 PUSH2 0x7CE SWAP2 SWAP1 PUSH2 0x13BE JUMP JUMPDEST POP POP POP POP POP JUMP JUMPDEST PUSH2 0x7DD PUSH2 0xFF5 JUMP JUMPDEST PUSH20 0xFFFFFFFFFFFFFFFFFFFFFFFFFFFFFFFFFFFFFFFF AND PUSH2 0x7FB PUSH2 0xC36 JUMP JUMPDEST PUSH20 0xFFFFFFFFFFFFFFFFFFFFFFFFFFFFFFFFFFFFFFFF AND EQ PUSH2 0x851 JUMPI PUSH1 0x40 MLOAD PUSH32 0x8C379A000000000000000000000000000000000000000000000000000000000 DUP2 MSTORE PUSH1 0x4 ADD PUSH2 0x848 SWAP1 PUSH2 0x1AB1 JUMP JUMPDEST PUSH1 0x40 MLOAD DUP1 SWAP2 SUB SWAP1 REVERT JUMPDEST PUSH2 0x85B PUSH1 0x0 PUSH2 0x1137 JUMP JUMPDEST JUMP JUMPDEST PUSH1 0x0 PUSH1 0x3 SLOAD SWAP1 POP SWAP1 JUMP JUMPDEST PUSH2 0x86F PUSH2 0xFF5 JUMP JUMPDEST PUSH20 0xFFFFFFFFFFFFFFFFFFFFFFFFFFFFFFFFFFFFFFFF AND PUSH2 0x88D PUSH2 0xC36 JUMP JUMPDEST PUSH20 0xFFFFFFFFFFFFFFFFFFFFFFFFFFFFFFFFFFFFFFFF AND EQ PUSH2 0x8E3 JUMPI PUSH1 0x40 MLOAD PUSH32 0x8C379A000000000000000000000000000000000000000000000000000000000 DUP2 MSTORE PUSH1 0x4 ADD PUSH2 0x8DA SWAP1 PUSH2 0x1AB1 JUMP JUMPDEST PUSH1 0x40 MLOAD DUP1 SWAP2 SUB SWAP1 REVERT JUMPDEST PUSH1 0x0 PUSH20 0xFFFFFFFFFFFFFFFFFFFFFFFFFFFFFFFFFFFFFFFF AND DUP6 PUSH20 0xFFFFFFFFFFFFFFFFFFFFFFFFFFFFFFFFFFFFFFFF AND EQ ISZERO PUSH2 0x953 JUMPI PUSH1 0x40 MLOAD PUSH32 0x8C379A000000000000000000000000000000000000000000000000000000000 DUP2 MSTORE PUSH1 0x4 ADD PUSH2 0x94A SWAP1 PUSH2 0x1A51 JUMP JUMPDEST PUSH1 0x40 MLOAD DUP1 SWAP2 SUB SWAP1 REVERT JUMPDEST PUSH1 0x0 DUP4 GT PUSH2 0x996 JUMPI PUSH1 0x40 MLOAD PUSH32 0x8C379A000000000000000000000000000000000000000000000000000000000 DUP2 MSTORE PUSH1 0x4 ADD PUSH2 0x98D SWAP1 PUSH2 0x1A11 JUMP JUMPDEST PUSH1 0x40 MLOAD DUP1 SWAP2 SUB SWAP1 REVERT JUMPDEST PUSH1 0x0 DUP2 GT PUSH2 0x9D9 JUMPI PUSH1 0x40 MLOAD PUSH32 0x8C379A000000000000000000000000000000000000000000000000000000000 DUP2 MSTORE PUSH1 0x4 ADD PUSH2 0x9D0 SWAP1 PUSH2 0x1A91 JUMP JUMPDEST PUSH1 0x40 MLOAD DUP1 SWAP2 SUB SWAP1 REVERT JUMPDEST PUSH1 0x5 SLOAD PUSH1 0x7 PUSH1 0x0 DUP8 PUSH20 0xFFFFFFFFFFFFFFFFFFFFFFFFFFFFFFFFFFFFFFFF AND PUSH20 0xFFFFFFFFFFFFFFFFFFFFFFFFFFFFFFFFFFFFFFFF AND DUP2 MSTORE PUSH1 0x20 ADD SWAP1 DUP2 MSTORE PUSH1 0x20 ADD PUSH1 0x0 KECCAK256 DUP1 SLOAD SWAP1 POP LT PUSH2 0xA5F JUMPI PUSH1 0x40 MLOAD PUSH32 0x8C379A000000000000000000000000000000000000000000000000000000000 DUP2 MSTORE PUSH1 0x4 ADD PUSH2 0xA56 SWAP1 PUSH2 0x1A31 JUMP JUMPDEST PUSH1 0x40 MLOAD DUP1 SWAP2 SUB SWAP1 REVERT JUMPDEST PUSH1 0x0 PUSH1 0x40 MLOAD DUP1 PUSH1 0xE0 ADD PUSH1 0x40 MSTORE DUP1 DUP8 PUSH20 0xFFFFFFFFFFFFFFFFFFFFFFFFFFFFFFFFFFFFFFFF AND DUP2 MSTORE PUSH1 0x20 ADD DUP7 DUP2 MSTORE PUSH1 0x20 ADD DUP6 DUP2 MSTORE PUSH1 0x20 ADD DUP5 DUP2 MSTORE PUSH1 0x20 ADD DUP4 DUP2 MSTORE PUSH1 0x20 ADD PUSH1 0x0 DUP2 MSTORE PUSH1 0x20 ADD PUSH1 0x1 ISZERO ISZERO DUP2 MSTORE POP SWAP1 POP PUSH2 0xABC DUP7 PUSH1 0x3 SLOAD PUSH2 0x11FB JUMP JUMPDEST PUSH1 0x4 DUP2 SWAP1 SSTORE POP PUSH1 0x7 PUSH1 0x0 DUP3 PUSH1 0x0 ADD MLOAD PUSH20 0xFFFFFFFFFFFFFFFFFFFFFFFFFFFFFFFFFFFFFFFF AND PUSH20 0xFFFFFFFFFFFFFFFFFFFFFFFFFFFFFFFFFFFFFFFF AND DUP2 MSTORE PUSH1 0x20 ADD SWAP1 DUP2 MSTORE PUSH1 0x20 ADD PUSH1 0x0 KECCAK256 PUSH1 0x4 SLOAD SWAP1 DUP1 PUSH1 0x1 DUP2 SLOAD ADD DUP1 DUP3 SSTORE DUP1 SWAP2 POP POP PUSH1 0x1 SWAP1 SUB SWAP1 PUSH1 0x0 MSTORE PUSH1 0x20 PUSH1 0x0 KECCAK256 ADD PUSH1 0x0 SWAP1 SWAP2 SWAP1 SWAP2 SWAP1 SWAP2 POP SSTORE DUP1 PUSH1 0x6 PUSH1 0x0 PUSH1 0x4 SLOAD DUP2 MSTORE PUSH1 0x20 ADD SWAP1 DUP2 MSTORE PUSH1 0x20 ADD PUSH1 0x0 KECCAK256 PUSH1 0x0 DUP3 ADD MLOAD DUP2 PUSH1 0x0 ADD PUSH1 0x0 PUSH2 0x100 EXP DUP2 SLOAD DUP2 PUSH20 0xFFFFFFFFFFFFFFFFFFFFFFFFFFFFFFFFFFFFFFFF MUL NOT AND SWAP1 DUP4 PUSH20 0xFFFFFFFFFFFFFFFFFFFFFFFFFFFFFFFFFFFFFFFF AND MUL OR SWAP1 SSTORE POP PUSH1 0x20 DUP3 ADD MLOAD DUP2 PUSH1 0x1 ADD SSTORE PUSH1 0x40 DUP3 ADD MLOAD DUP2 PUSH1 0x2 ADD SSTORE PUSH1 0x60 DUP3 ADD MLOAD DUP2 PUSH1 0x3 ADD SSTORE PUSH1 0x80 DUP3 ADD MLOAD DUP2 PUSH1 0x4 ADD SSTORE PUSH1 0xA0 DUP3 ADD MLOAD DUP2 PUSH1 0x5 ADD SSTORE PUSH1 0xC0 DUP3 ADD MLOAD DUP2 PUSH1 0x6 ADD PUSH1 0x0 PUSH2 0x100 EXP DUP2 SLOAD DUP2 PUSH1 0xFF MUL NOT AND SWAP1 DUP4 ISZERO ISZERO MUL OR SWAP1 SSTORE POP SWAP1 POP POP PUSH2 0xBF6 PUSH1 0x1 PUSH1 0x3 SLOAD PUSH2 0x1121 SWAP1 SWAP2 SWAP1 PUSH4 0xFFFFFFFF AND JUMP JUMPDEST POP PUSH32 0x3AC17A064E5F9F8A942A4E1B3D07157FA74128806FAB9B656A6B986182FFAD1 DUP2 PUSH1 0x40 MLOAD PUSH2 0xC26 SWAP2 SWAP1 PUSH2 0x1B11 JUMP JUMPDEST PUSH1 0x40 MLOAD DUP1 SWAP2 SUB SWAP1 LOG1 POP POP POP POP POP POP JUMP JUMPDEST PUSH1 0x0 DUP1 PUSH1 0x0 SWAP1 SLOAD SWAP1 PUSH2 0x100 EXP SWAP1 DIV PUSH20 0xFFFFFFFFFFFFFFFFFFFFFFFFFFFFFFFFFFFFFFFF AND SWAP1 POP SWAP1 JUMP JUMPDEST PUSH1 0x0 PUSH1 0x1 ISZERO ISZERO PUSH1 0x6 PUSH1 0x0 DUP5 DUP2 MSTORE PUSH1 0x20 ADD SWAP1 DUP2 MSTORE PUSH1 0x20 ADD PUSH1 0x0 KECCAK256 PUSH1 0x6 ADD PUSH1 0x0 SWAP1 SLOAD SWAP1 PUSH2 0x100 EXP SWAP1 DIV PUSH1 0xFF AND ISZERO ISZERO EQ PUSH2 0xCCB JUMPI PUSH1 0x40 MLOAD PUSH32 0x8C379A000000000000000000000000000000000000000000000000000000000 DUP2 MSTORE PUSH1 0x4 ADD PUSH2 0xCC2 SWAP1 PUSH2 0x1A71 JUMP JUMPDEST PUSH1 0x40 MLOAD DUP1 SWAP2 SUB SWAP1 REVERT JUMPDEST PUSH1 0x0 PUSH1 0x6 PUSH1 0x0 DUP5 DUP2 MSTORE PUSH1 0x20 ADD SWAP1 DUP2 MSTORE PUSH1 0x20 ADD PUSH1 0x0 KECCAK256 PUSH1 0x40 MLOAD DUP1 PUSH1 0xE0 ADD PUSH1 0x40 MSTORE SWAP1 DUP2 PUSH1 0x0 DUP3 ADD PUSH1 0x0 SWAP1 SLOAD SWAP1 PUSH2 0x100 EXP SWAP1 DIV PUSH20 0xFFFFFFFFFFFFFFFFFFFFFFFFFFFFFFFFFFFFFFFF AND PUSH20 0xFFFFFFFFFFFFFFFFFFFFFFFFFFFFFFFFFFFFFFFF AND PUSH20 0xFFFFFFFFFFFFFFFFFFFFFFFFFFFFFFFFFFFFFFFF AND DUP2 MSTORE PUSH1 0x20 ADD PUSH1 0x1 DUP3 ADD SLOAD DUP2 MSTORE PUSH1 0x20 ADD PUSH1 0x2 DUP3 ADD SLOAD DUP2 MSTORE PUSH1 0x20 ADD PUSH1 0x3 DUP3 ADD SLOAD DUP2 MSTORE PUSH1 0x20 ADD PUSH1 0x4 DUP3 ADD SLOAD DUP2 MSTORE PUSH1 0x20 ADD PUSH1 0x5 DUP3 ADD SLOAD DUP2 MSTORE PUSH1 0x20 ADD PUSH1 0x6 DUP3 ADD PUSH1 0x0 SWAP1 SLOAD SWAP1 PUSH2 0x100 EXP SWAP1 DIV PUSH1 0xFF AND ISZERO ISZERO ISZERO ISZERO DUP2 MSTORE POP POP SWAP1 POP PUSH1 0x0 PUSH2 0xDAD DUP3 PUSH1 0xA0 ADD MLOAD DUP4 PUSH1 0x80 ADD MLOAD PUSH2 0x1240 SWAP1 SWAP2 SWAP1 PUSH4 0xFFFFFFFF AND JUMP JUMPDEST SWAP1 POP DUP1 SWAP3 POP POP POP SWAP2 SWAP1 POP JUMP JUMPDEST PUSH1 0x0 PUSH1 0x5 SLOAD SWAP1 POP SWAP1 JUMP JUMPDEST PUSH2 0xDCB PUSH2 0x128A JUMP JUMPDEST PUSH1 0x1 ISZERO ISZERO PUSH1 0x6 PUSH1 0x0 DUP5 DUP2 MSTORE PUSH1 0x20 ADD SWAP1 DUP2 MSTORE PUSH1 0x20 ADD PUSH1 0x0 KECCAK256 PUSH1 0x6 ADD PUSH1 0x0 SWAP1 SLOAD SWAP1 PUSH2 0x100 EXP SWAP1 DIV PUSH1 0xFF AND ISZERO ISZERO EQ PUSH2 0xE35 JUMPI PUSH1 0x40 MLOAD PUSH32 0x8C379A000000000000000000000000000000000000000000000000000000000 DUP2 MSTORE PUSH1 0x4 ADD PUSH2 0xE2C SWAP1 PUSH2 0x1A71 JUMP JUMPDEST PUSH1 0x40 MLOAD DUP1 SWAP2 SUB SWAP1 REVERT JUMPDEST PUSH1 0x6 PUSH1 0x0 DUP4 DUP2 MSTORE PUSH1 0x20 ADD SWAP1 DUP2 MSTORE PUSH1 0x20 ADD PUSH1 0x0 KECCAK256 PUSH1 0x40 MLOAD DUP1 PUSH1 0xE0 ADD PUSH1 0x40 MSTORE SWAP1 DUP2 PUSH1 0x0 DUP3 ADD PUSH1 0x0 SWAP1 SLOAD SWAP1 PUSH2 0x100 EXP SWAP1 DIV PUSH20 0xFFFFFFFFFFFFFFFFFFFFFFFFFFFFFFFFFFFFFFFF AND PUSH20 0xFFFFFFFFFFFFFFFFFFFFFFFFFFFFFFFFFFFFFFFF AND PUSH20 0xFFFFFFFFFFFFFFFFFFFFFFFFFFFFFFFFFFFFFFFF AND DUP2 MSTORE PUSH1 0x20 ADD PUSH1 0x1 DUP3 ADD SLOAD DUP2 MSTORE PUSH1 0x20 ADD PUSH1 0x2 DUP3 ADD SLOAD DUP2 MSTORE PUSH1 0x20 ADD PUSH1 0x3 DUP3 ADD SLOAD DUP2 MSTORE PUSH1 0x20 ADD PUSH1 0x4 DUP3 ADD SLOAD DUP2 MSTORE PUSH1 0x20 ADD PUSH1 0x5 DUP3 ADD SLOAD DUP2 MSTORE PUSH1 0x20 ADD PUSH1 0x6 DUP3 ADD PUSH1 0x0 SWAP1 SLOAD SWAP1 PUSH2 0x100 EXP SWAP1 DIV PUSH1 0xFF AND ISZERO ISZERO ISZERO ISZERO DUP2 MSTORE POP POP SWAP1 POP SWAP2 SWAP1 POP JUMP JUMPDEST PUSH2 0xF05 PUSH2 0xFF5 JUMP JUMPDEST PUSH20 0xFFFFFFFFFFFFFFFFFFFFFFFFFFFFFFFFFFFFFFFF AND PUSH2 0xF23 PUSH2 0xC36 JUMP JUMPDEST PUSH20 0xFFFFFFFFFFFFFFFFFFFFFFFFFFFFFFFFFFFFFFFF AND EQ PUSH2 0xF79 JUMPI PUSH1 0x40 MLOAD PUSH32 0x8C379A000000000000000000000000000000000000000000000000000000000 DUP2 MSTORE PUSH1 0x4 ADD PUSH2 0xF70 SWAP1 PUSH2 0x1AB1 JUMP JUMPDEST PUSH1 0x40 MLOAD DUP1 SWAP2 SUB SWAP1 REVERT JUMPDEST PUSH1 0x0 PUSH20 0xFFFFFFFFFFFFFFFFFFFFFFFFFFFFFFFFFFFFFFFF AND DUP2 PUSH20 0xFFFFFFFFFFFFFFFFFFFFFFFFFFFFFFFFFFFFFFFF AND EQ ISZERO PUSH2 0xFE9 JUMPI PUSH1 0x40 MLOAD PUSH32 0x8C379A000000000000000000000000000000000000000000000000000000000 DUP2 MSTORE PUSH1 0x4 ADD PUSH2 0xFE0 SWAP1 PUSH2 0x19F1 JUMP JUMPDEST PUSH1 0x40 MLOAD DUP1 SWAP2 SUB SWAP1 REVERT JUMPDEST PUSH2 0xFF2 DUP2 PUSH2 0x1137 JUMP JUMPDEST POP JUMP JUMPDEST PUSH1 0x0 CALLER SWAP1 POP SWAP1 JUMP JUMPDEST PUSH1 0x0 DUP1 PUSH2 0x1008 PUSH2 0x1256 JUMP JUMPDEST SWAP1 POP PUSH2 0x1025 DUP4 PUSH1 0x40 ADD MLOAD DUP5 PUSH1 0x20 ADD MLOAD PUSH2 0x1121 SWAP1 SWAP2 SWAP1 PUSH4 0xFFFFFFFF AND JUMP JUMPDEST DUP2 LT ISZERO PUSH2 0x10FD JUMPI PUSH1 0x0 PUSH1 0x3C DUP5 PUSH1 0x60 ADD MLOAD PUSH2 0x103F SWAP2 SWAP1 PUSH2 0x1C18 JUMP JUMPDEST PUSH3 0x15180 DUP6 PUSH1 0x40 ADD MLOAD PUSH2 0x1052 SWAP2 SWAP1 PUSH2 0x1C18 JUMP JUMPDEST PUSH2 0x105C SWAP2 SWAP1 PUSH2 0x1BE7 JUMP JUMPDEST SWAP1 POP PUSH1 0x0 PUSH2 0x1077 DUP6 PUSH1 0x20 ADD MLOAD DUP5 PUSH2 0x1240 SWAP1 SWAP2 SWAP1 PUSH4 0xFFFFFFFF AND JUMP JUMPDEST SWAP1 POP PUSH1 0x0 PUSH2 0x1092 DUP7 PUSH1 0x60 ADD MLOAD DUP4 PUSH2 0x125E SWAP1 SWAP2 SWAP1 PUSH4 0xFFFFFFFF AND JUMP JUMPDEST SWAP1 POP PUSH1 0x0 PUSH2 0x10D5 DUP5 PUSH2 0x10C7 DUP5 PUSH2 0x10B9 DUP12 PUSH1 0x60 ADD MLOAD DUP13 PUSH1 0x80 ADD MLOAD PUSH2 0x1274 SWAP1 SWAP2 SWAP1 PUSH4 0xFFFFFFFF AND JUMP JUMPDEST PUSH2 0x1274 SWAP1 SWAP2 SWAP1 PUSH4 0xFFFFFFFF AND JUMP JUMPDEST PUSH2 0x125E SWAP1 SWAP2 SWAP1 PUSH4 0xFFFFFFFF AND JUMP JUMPDEST SWAP1 POP PUSH2 0x10EE DUP8 PUSH1 0xA0 ADD MLOAD DUP3 PUSH2 0x1240 SWAP1 SWAP2 SWAP1 PUSH4 0xFFFFFFFF AND JUMP JUMPDEST SWAP1 POP DUP1 SWAP6 POP POP POP POP POP POP PUSH2 0x111C JUMP JUMPDEST PUSH2 0x1118 DUP4 PUSH1 0xA0 ADD MLOAD DUP5 PUSH1 0x80 ADD MLOAD PUSH2 0x1240 SWAP1 SWAP2 SWAP1 PUSH4 0xFFFFFFFF AND JUMP JUMPDEST SWAP2 POP POP JUMPDEST SWAP2 SWAP1 POP JUMP JUMPDEST PUSH1 0x0 DUP2 DUP4 PUSH2 0x112F SWAP2 SWAP1 PUSH2 0x1B91 JUMP JUMPDEST SWAP1 POP SWAP3 SWAP2 POP POP JUMP JUMPDEST PUSH1 0x0 DUP1 PUSH1 0x0 SWAP1 SLOAD SWAP1 PUSH2 0x100 EXP SWAP1 DIV PUSH20 0xFFFFFFFFFFFFFFFFFFFFFFFFFFFFFFFFFFFFFFFF AND SWAP1 POP DUP2 PUSH1 0x0 DUP1 PUSH2 0x100 EXP DUP2 SLOAD DUP2 PUSH20 0xFFFFFFFFFFFFFFFFFFFFFFFFFFFFFFFFFFFFFFFF MUL NOT AND SWAP1 DUP4 PUSH20 0xFFFFFFFFFFFFFFFFFFFFFFFFFFFFFFFFFFFFFFFF AND MUL OR SWAP1 SSTORE POP DUP2 PUSH20 0xFFFFFFFFFFFFFFFFFFFFFFFFFFFFFFFFFFFFFFFF AND DUP2 PUSH20 0xFFFFFFFFFFFFFFFFFFFFFFFFFFFFFFFFFFFFFFFF AND PUSH32 0x8BE0079C531659141344CD1FD0A4F28419497F9722A3DAAFE3B4186F6B6457E0 PUSH1 0x40 MLOAD PUSH1 0x40 MLOAD DUP1 SWAP2 SUB SWAP1 LOG3 POP POP JUMP JUMPDEST PUSH1 0x0 PUSH4 0x3B9ACA00 DUP4 DUP4 PUSH1 0x40 MLOAD PUSH1 0x20 ADD PUSH2 0x1215 SWAP3 SWAP2 SWAP1 PUSH2 0x195F JUMP JUMPDEST PUSH1 0x40 MLOAD PUSH1 0x20 DUP2 DUP4 SUB SUB DUP2 MSTORE SWAP1 PUSH1 0x40 MSTORE DUP1 MLOAD SWAP1 PUSH1 0x20 ADD KECCAK256 PUSH1 0x0 SHR PUSH2 0x1238 SWAP2 SWAP1 PUSH2 0x1D1C JUMP JUMPDEST SWAP1 POP SWAP3 SWAP2 POP POP JUMP JUMPDEST PUSH1 0x0 DUP2 DUP4 PUSH2 0x124E SWAP2 SWAP1 PUSH2 0x1C72 JUMP JUMPDEST SWAP1 POP SWAP3 SWAP2 POP POP JUMP JUMPDEST PUSH1 0x0 TIMESTAMP SWAP1 POP SWAP1 JUMP JUMPDEST PUSH1 0x0 DUP2 DUP4 PUSH2 0x126C SWAP2 SWAP1 PUSH2 0x1BE7 JUMP JUMPDEST SWAP1 POP SWAP3 SWAP2 POP POP JUMP JUMPDEST PUSH1 0x0 DUP2 DUP4 PUSH2 0x1282 SWAP2 SWAP1 PUSH2 0x1C18 JUMP JUMPDEST SWAP1 POP SWAP3 SWAP2 POP POP JUMP JUMPDEST PUSH1 0x40 MLOAD DUP1 PUSH1 0xE0 ADD PUSH1 0x40 MSTORE DUP1 PUSH1 0x0 PUSH20 0xFFFFFFFFFFFFFFFFFFFFFFFFFFFFFFFFFFFFFFFF AND DUP2 MSTORE PUSH1 0x20 ADD PUSH1 0x0 DUP2 MSTORE PUSH1 0x20 ADD PUSH1 0x0 DUP2 MSTORE PUSH1 0x20 ADD PUSH1 0x0 DUP2 MSTORE PUSH1 0x20 ADD PUSH1 0x0 DUP2 MSTORE PUSH1 0x20 ADD PUSH1 0x0 DUP2 MSTORE PUSH1 0x20 ADD PUSH1 0x0 ISZERO ISZERO DUP2 MSTORE POP SWAP1 JUMP JUMPDEST PUSH1 0x0 DUP2 CALLDATALOAD SWAP1 POP PUSH2 0x12EE DUP2 PUSH2 0x1DB8 JUMP JUMPDEST SWAP3 SWAP2 POP POP JUMP JUMPDEST PUSH1 0x0 DUP2 MLOAD SWAP1 POP PUSH2 0x1303 DUP2 PUSH2 0x1DCF JUMP JUMPDEST SWAP3 SWAP2 POP POP JUMP JUMPDEST PUSH1 0x0 DUP2 CALLDATALOAD SWAP1 POP PUSH2 0x1318 DUP2 PUSH2 0x1DE6 JUMP JUMPDEST SWAP3 SWAP2 POP POP JUMP JUMPDEST PUSH1 0x0 PUSH1 0x20 DUP3 DUP5 SUB SLT ISZERO PUSH2 0x1330 JUMPI PUSH1 0x0 DUP1 REVERT JUMPDEST PUSH1 0x0 PUSH2 0x133E DUP5 DUP3 DUP6 ADD PUSH2 0x12DF JUMP JUMPDEST SWAP2 POP POP SWAP3 SWAP2 POP POP JUMP JUMPDEST PUSH1 0x0 DUP1 PUSH1 0x0 DUP1 PUSH1 0x0 PUSH1 0xA0 DUP7 DUP9 SUB SLT ISZERO PUSH2 0x135F JUMPI PUSH1 0x0 DUP1 REVERT JUMPDEST PUSH1 0x0 PUSH2 0x136D DUP9 DUP3 DUP10 ADD PUSH2 0x12DF JUMP JUMPDEST SWAP6 POP POP PUSH1 0x20 PUSH2 0x137E DUP9 DUP3 DUP10 ADD PUSH2 0x1309 JUMP JUMPDEST SWAP5 POP POP PUSH1 0x40 PUSH2 0x138F DUP9 DUP3 DUP10 ADD PUSH2 0x1309 JUMP JUMPDEST SWAP4 POP POP PUSH1 0x60 PUSH2 0x13A0 DUP9 DUP3 DUP10 ADD PUSH2 0x1309 JUMP JUMPDEST SWAP3 POP POP PUSH1 0x80 PUSH2 0x13B1 DUP9 DUP3 DUP10 ADD PUSH2 0x1309 JUMP JUMPDEST SWAP2 POP POP SWAP3 SWAP6 POP SWAP3 SWAP6 SWAP1 SWAP4 POP JUMP JUMPDEST PUSH1 0x0 PUSH1 0x20 DUP3 DUP5 SUB SLT ISZERO PUSH2 0x13D0 JUMPI PUSH1 0x0 DUP1 REVERT JUMPDEST PUSH1 0x0 PUSH2 0x13DE DUP5 DUP3 DUP6 ADD PUSH2 0x12F4 JUMP JUMPDEST SWAP2 POP POP SWAP3 SWAP2 POP POP JUMP JUMPDEST PUSH1 0x0 PUSH1 0x20 DUP3 DUP5 SUB SLT ISZERO PUSH2 0x13F9 JUMPI PUSH1 0x0 DUP1 REVERT JUMPDEST PUSH1 0x0 PUSH2 0x1407 DUP5 DUP3 DUP6 ADD PUSH2 0x1309 JUMP JUMPDEST SWAP2 POP POP SWAP3 SWAP2 POP POP JUMP JUMPDEST PUSH1 0x0 DUP1 PUSH1 0x40 DUP4 DUP6 SUB SLT ISZERO PUSH2 0x1423 JUMPI PUSH1 0x0 DUP1 REVERT JUMPDEST PUSH1 0x0 PUSH2 0x1431 DUP6 DUP3 DUP7 ADD PUSH2 0x1309 JUMP JUMPDEST SWAP3 POP POP PUSH1 0x20 PUSH2 0x1442 DUP6 DUP3 DUP7 ADD PUSH2 0x1309 JUMP JUMPDEST SWAP2 POP POP SWAP3 POP SWAP3 SWAP1 POP JUMP JUMPDEST PUSH1 0x0 PUSH2 0x1458 DUP4 DUP4 PUSH2 0x192A JUMP JUMPDEST PUSH1 0x20 DUP4 ADD SWAP1 POP SWAP3 SWAP2 POP POP JUMP JUMPDEST PUSH2 0x146D DUP2 PUSH2 0x1CA6 JUMP JUMPDEST DUP3 MSTORE POP POP JUMP JUMPDEST PUSH2 0x147C DUP2 PUSH2 0x1CA6 JUMP JUMPDEST DUP3 MSTORE POP POP JUMP JUMPDEST PUSH2 0x1493 PUSH2 0x148E DUP3 PUSH2 0x1CA6 JUMP JUMPDEST PUSH2 0x1CEE JUMP JUMPDEST DUP3 MSTORE POP POP JUMP JUMPDEST PUSH1 0x0 PUSH2 0x14A4 DUP3 PUSH2 0x1B57 JUMP JUMPDEST PUSH2 0x14AE DUP2 DUP6 PUSH2 0x1B6F JUMP JUMPDEST SWAP4 POP PUSH2 0x14B9 DUP4 PUSH2 0x1B47 JUMP JUMPDEST DUP1 PUSH1 0x0 JUMPDEST DUP4 DUP2 LT ISZERO PUSH2 0x14EA JUMPI DUP2 MLOAD PUSH2 0x14D1 DUP9 DUP3 PUSH2 0x144C JUMP JUMPDEST SWAP8 POP PUSH2 0x14DC DUP4 PUSH2 0x1B62 JUMP JUMPDEST SWAP3 POP POP PUSH1 0x1 DUP2 ADD SWAP1 POP PUSH2 0x14BD JUMP JUMPDEST POP DUP6 SWAP4 POP POP POP POP SWAP3 SWAP2 POP POP JUMP JUMPDEST PUSH2 0x1500 DUP2 PUSH2 0x1CB8 JUMP JUMPDEST DUP3 MSTORE POP POP JUMP JUMPDEST PUSH1 0x0 PUSH2 0x1513 PUSH1 0x26 DUP4 PUSH2 0x1B80 JUMP JUMPDEST SWAP2 POP PUSH32 0x4F776E61626C653A206E6577206F776E657220697320746865207A65726F2061 PUSH1 0x0 DUP4 ADD MSTORE PUSH32 0x6464726573730000000000000000000000000000000000000000000000000000 PUSH1 0x20 DUP4 ADD MSTORE PUSH1 0x40 DUP3 ADD SWAP1 POP SWAP2 SWAP1 POP JUMP JUMPDEST PUSH1 0x0 PUSH2 0x1579 PUSH1 0x36 DUP4 PUSH2 0x1B80 JUMP JUMPDEST SWAP2 POP PUSH32 0x546F6B656E56657374696E673A2056657374696E6720706572696F64206D7573 PUSH1 0x0 DUP4 ADD MSTORE PUSH32 0x742062652067726561746572207468616E207A65726F00000000000000000000 PUSH1 0x20 DUP4 ADD MSTORE PUSH1 0x40 DUP3 ADD SWAP1 POP SWAP2 SWAP1 POP JUMP JUMPDEST PUSH1 0x0 PUSH2 0x15DF PUSH1 0x42 DUP4 PUSH2 0x1B80 JUMP JUMPDEST SWAP2 POP PUSH32 0x546F6B656E56657374696E673A20536368656D6520636F756E7420666F722074 PUSH1 0x0 DUP4 ADD MSTORE PUSH32 0x6869732062656E6566696369617279206861732072656163686564206C696D69 PUSH1 0x20 DUP4 ADD MSTORE PUSH32 0x742E000000000000000000000000000000000000000000000000000000000000 PUSH1 0x40 DUP4 ADD MSTORE PUSH1 0x60 DUP3 ADD SWAP1 POP SWAP2 SWAP1 POP JUMP JUMPDEST PUSH1 0x0 PUSH2 0x166B PUSH1 0x34 DUP4 PUSH2 0x1B80 JUMP JUMPDEST SWAP2 POP PUSH32 0x546F6B656E56657374696E673A2043616E6E6F7420616464207A65726F206164 PUSH1 0x0 DUP4 ADD MSTORE PUSH32 0x64726573732061732062656E6566696369617279000000000000000000000000 PUSH1 0x20 DUP4 ADD MSTORE PUSH1 0x40 DUP3 ADD SWAP1 POP SWAP2 SWAP1 POP JUMP JUMPDEST PUSH1 0x0 PUSH2 0x16D1 PUSH1 0x40 DUP4 PUSH2 0x1B80 JUMP JUMPDEST SWAP2 POP PUSH32 0x546F6B656E56657374696E673A2056657374696E6720536368656D6520697320 PUSH1 0x0 DUP4 ADD MSTORE PUSH32 0x6569746865722064656C65746564206F7220646F6573206E6F74206578697374 PUSH1 0x20 DUP4 ADD MSTORE PUSH1 0x40 DUP3 ADD SWAP1 POP SWAP2 SWAP1 POP JUMP JUMPDEST PUSH1 0x0 PUSH2 0x1737 PUSH1 0x34 DUP4 PUSH2 0x1B80 JUMP JUMPDEST SWAP2 POP PUSH32 0x546F6B656E56657374696E673A205665737461626C6520616D6F756E74206D75 PUSH1 0x0 DUP4 ADD MSTORE PUSH32 0x73742062652067726561746572207468616E2030000000000000000000000000 PUSH1 0x20 DUP4 ADD MSTORE PUSH1 0x40 DUP3 ADD SWAP1 POP SWAP2 SWAP1 POP JUMP JUMPDEST PUSH1 0x0 PUSH2 0x179D PUSH1 0x20 DUP4 PUSH2 0x1B80 JUMP JUMPDEST SWAP2 POP PUSH32 0x4F776E61626C653A2063616C6C6572206973206E6F7420746865206F776E6572 PUSH1 0x0 DUP4 ADD MSTORE PUSH1 0x20 DUP3 ADD SWAP1 POP SWAP2 SWAP1 POP JUMP JUMPDEST PUSH1 0x0 PUSH2 0x17DD PUSH1 0x37 DUP4 PUSH2 0x1B80 JUMP JUMPDEST SWAP2 POP PUSH32 0x546F6B656E56657374696E673A20416D6F756E74206772656174657220746861 PUSH1 0x0 DUP4 ADD MSTORE PUSH32 0x6E2063757272656E742076657374656420616D6F756E74000000000000000000 PUSH1 0x20 DUP4 ADD MSTORE PUSH1 0x40 DUP3 ADD SWAP1 POP SWAP2 SWAP1 POP JUMP JUMPDEST PUSH1 0x0 PUSH2 0x1843 PUSH1 0x31 DUP4 PUSH2 0x1B80 JUMP JUMPDEST SWAP2 POP PUSH32 0x546F6B656E56657374696E673A2043616C6C6572206D757374206265206F776E PUSH1 0x0 DUP4 ADD MSTORE PUSH32 0x6572206F722062656E6566696369617279000000000000000000000000000000 PUSH1 0x20 DUP4 ADD MSTORE PUSH1 0x40 DUP3 ADD SWAP1 POP SWAP2 SWAP1 POP JUMP JUMPDEST PUSH1 0xE0 DUP3 ADD PUSH1 0x0 DUP3 ADD MLOAD PUSH2 0x18B2 PUSH1 0x0 DUP6 ADD DUP3 PUSH2 0x1464 JUMP JUMPDEST POP PUSH1 0x20 DUP3 ADD MLOAD PUSH2 0x18C5 PUSH1 0x20 DUP6 ADD DUP3 PUSH2 0x192A JUMP JUMPDEST POP PUSH1 0x40 DUP3 ADD MLOAD PUSH2 0x18D8 PUSH1 0x40 DUP6 ADD DUP3 PUSH2 0x192A JUMP JUMPDEST POP PUSH1 0x60 DUP3 ADD MLOAD PUSH2 0x18EB PUSH1 0x60 DUP6 ADD DUP3 PUSH2 0x192A JUMP JUMPDEST POP PUSH1 0x80 DUP3 ADD MLOAD PUSH2 0x18FE PUSH1 0x80 DUP6 ADD DUP3 PUSH2 0x192A JUMP JUMPDEST POP PUSH1 0xA0 DUP3 ADD MLOAD PUSH2 0x1911 PUSH1 0xA0 DUP6 ADD DUP3 PUSH2 0x192A JUMP JUMPDEST POP PUSH1 0xC0 DUP3 ADD MLOAD PUSH2 0x1924 PUSH1 0xC0 DUP6 ADD DUP3 PUSH2 0x14F7 JUMP JUMPDEST POP POP POP POP JUMP JUMPDEST PUSH2 0x1933 DUP2 PUSH2 0x1CE4 JUMP JUMPDEST DUP3 MSTORE POP POP JUMP JUMPDEST PUSH2 0x1942 DUP2 PUSH2 0x1CE4 JUMP JUMPDEST DUP3 MSTORE POP POP JUMP JUMPDEST PUSH2 0x1959 PUSH2 0x1954 DUP3 PUSH2 0x1CE4 JUMP JUMPDEST PUSH2 0x1D12 JUMP JUMPDEST DUP3 MSTORE POP POP JUMP JUMPDEST PUSH1 0x0 PUSH2 0x196B DUP3 DUP6 PUSH2 0x1482 JUMP JUMPDEST PUSH1 0x14 DUP3 ADD SWAP2 POP PUSH2 0x197B DUP3 DUP5 PUSH2 0x1948 JUMP JUMPDEST PUSH1 0x20 DUP3 ADD SWAP2 POP DUP2 SWAP1 POP SWAP4 SWAP3 POP POP POP JUMP JUMPDEST PUSH1 0x0 PUSH1 0x20 DUP3 ADD SWAP1 POP PUSH2 0x19A0 PUSH1 0x0 DUP4 ADD DUP5 PUSH2 0x1473 JUMP JUMPDEST SWAP3 SWAP2 POP POP JUMP JUMPDEST PUSH1 0x0 PUSH1 0x40 DUP3 ADD SWAP1 POP PUSH2 0x19BB PUSH1 0x0 DUP4 ADD DUP6 PUSH2 0x1473 JUMP JUMPDEST PUSH2 0x19C8 PUSH1 0x20 DUP4 ADD DUP5 PUSH2 0x1939 JUMP JUMPDEST SWAP4 SWAP3 POP POP POP JUMP JUMPDEST PUSH1 0x0 PUSH1 0x20 DUP3 ADD SWAP1 POP DUP2 DUP2 SUB PUSH1 0x0 DUP4 ADD MSTORE PUSH2 0x19E9 DUP2 DUP5 PUSH2 0x1499 JUMP JUMPDEST SWAP1 POP SWAP3 SWAP2 POP POP JUMP JUMPDEST PUSH1 0x0 PUSH1 0x20 DUP3 ADD SWAP1 POP DUP2 DUP2 SUB PUSH1 0x0 DUP4 ADD MSTORE PUSH2 0x1A0A DUP2 PUSH2 0x1506 JUMP JUMPDEST SWAP1 POP SWAP2 SWAP1 POP JUMP JUMPDEST PUSH1 0x0 PUSH1 0x20 DUP3 ADD SWAP1 POP DUP2 DUP2 SUB PUSH1 0x0 DUP4 ADD MSTORE PUSH2 0x1A2A DUP2 PUSH2 0x156C JUMP JUMPDEST SWAP1 POP SWAP2 SWAP1 POP JUMP JUMPDEST PUSH1 0x0 PUSH1 0x20 DUP3 ADD SWAP1 POP DUP2 DUP2 SUB PUSH1 0x0 DUP4 ADD MSTORE PUSH2 0x1A4A DUP2 PUSH2 0x15D2 JUMP JUMPDEST SWAP1 POP SWAP2 SWAP1 POP JUMP JUMPDEST PUSH1 0x0 PUSH1 0x20 DUP3 ADD SWAP1 POP DUP2 DUP2 SUB PUSH1 0x0 DUP4 ADD MSTORE PUSH2 0x1A6A DUP2 PUSH2 0x165E JUMP JUMPDEST SWAP1 POP SWAP2 SWAP1 POP JUMP JUMPDEST PUSH1 0x0 PUSH1 0x20 DUP3 ADD SWAP1 POP DUP2 DUP2 SUB PUSH1 0x0 DUP4 ADD MSTORE PUSH2 0x1A8A DUP2 PUSH2 0x16C4 JUMP JUMPDEST SWAP1 POP SWAP2 SWAP1 POP JUMP JUMPDEST PUSH1 0x0 PUSH1 0x20 DUP3 ADD SWAP1 POP DUP2 DUP2 SUB PUSH1 0x0 DUP4 ADD MSTORE PUSH2 0x1AAA DUP2 PUSH2 0x172A JUMP JUMPDEST SWAP1 POP SWAP2 SWAP1 POP JUMP JUMPDEST PUSH1 0x0 PUSH1 0x20 DUP3 ADD SWAP1 POP DUP2 DUP2 SUB PUSH1 0x0 DUP4 ADD MSTORE PUSH2 0x1ACA DUP2 PUSH2 0x1790 JUMP JUMPDEST SWAP1 POP SWAP2 SWAP1 POP JUMP JUMPDEST PUSH1 0x0 PUSH1 0x20 DUP3 ADD SWAP1 POP DUP2 DUP2 SUB PUSH1 0x0 DUP4 ADD MSTORE PUSH2 0x1AEA DUP2 PUSH2 0x17D0 JUMP JUMPDEST SWAP1 POP SWAP2 SWAP1 POP JUMP JUMPDEST PUSH1 0x0 PUSH1 0x20 DUP3 ADD SWAP1 POP DUP2 DUP2 SUB PUSH1 0x0 DUP4 ADD MSTORE PUSH2 0x1B0A DUP2 PUSH2 0x1836 JUMP JUMPDEST SWAP1 POP SWAP2 SWAP1 POP JUMP JUMPDEST PUSH1 0x0 PUSH1 0xE0 DUP3 ADD SWAP1 POP PUSH2 0x1B26 PUSH1 0x0 DUP4 ADD DUP5 PUSH2 0x189C JUMP JUMPDEST SWAP3 SWAP2 POP POP JUMP JUMPDEST PUSH1 0x0 PUSH1 0x20 DUP3 ADD SWAP1 POP PUSH2 0x1B41 PUSH1 0x0 DUP4 ADD DUP5 PUSH2 0x1939 JUMP JUMPDEST SWAP3 SWAP2 POP POP JUMP JUMPDEST PUSH1 0x0 DUP2 SWAP1 POP PUSH1 0x20 DUP3 ADD SWAP1 POP SWAP2 SWAP1 POP JUMP JUMPDEST PUSH1 0x0 DUP2 MLOAD SWAP1 POP SWAP2 SWAP1 POP JUMP JUMPDEST PUSH1 0x0 PUSH1 0x20 DUP3 ADD SWAP1 POP SWAP2 SWAP1 POP JUMP JUMPDEST PUSH1 0x0 DUP3 DUP3 MSTORE PUSH1 0x20 DUP3 ADD SWAP1 POP SWAP3 SWAP2 POP POP JUMP JUMPDEST PUSH1 0x0 DUP3 DUP3 MSTORE PUSH1 0x20 DUP3 ADD SWAP1 POP SWAP3 SWAP2 POP POP JUMP JUMPDEST PUSH1 0x0 PUSH2 0x1B9C DUP3 PUSH2 0x1CE4 JUMP JUMPDEST SWAP2 POP PUSH2 0x1BA7 DUP4 PUSH2 0x1CE4 JUMP JUMPDEST SWAP3 POP DUP3 PUSH32 0xFFFFFFFFFFFFFFFFFFFFFFFFFFFFFFFFFFFFFFFFFFFFFFFFFFFFFFFFFFFFFFFF SUB DUP3 GT ISZERO PUSH2 0x1BDC JUMPI PUSH2 0x1BDB PUSH2 0x1D4D JUMP JUMPDEST JUMPDEST DUP3 DUP3 ADD SWAP1 POP SWAP3 SWAP2 POP POP JUMP JUMPDEST PUSH1 0x0 PUSH2 0x1BF2 DUP3 PUSH2 0x1CE4 JUMP JUMPDEST SWAP2 POP PUSH2 0x1BFD DUP4 PUSH2 0x1CE4 JUMP JUMPDEST SWAP3 POP DUP3 PUSH2 0x1C0D JUMPI PUSH2 0x1C0C PUSH2 0x1D7C JUMP JUMPDEST JUMPDEST DUP3 DUP3 DIV SWAP1 POP SWAP3 SWAP2 POP POP JUMP JUMPDEST PUSH1 0x0 PUSH2 0x1C23 DUP3 PUSH2 0x1CE4 JUMP JUMPDEST SWAP2 POP PUSH2 0x1C2E DUP4 PUSH2 0x1CE4 JUMP JUMPDEST SWAP3 POP DUP2 PUSH32 0xFFFFFFFFFFFFFFFFFFFFFFFFFFFFFFFFFFFFFFFFFFFFFFFFFFFFFFFFFFFFFFFF DIV DUP4 GT DUP3 ISZERO ISZERO AND ISZERO PUSH2 0x1C67 JUMPI PUSH2 0x1C66 PUSH2 0x1D4D JUMP JUMPDEST JUMPDEST DUP3 DUP3 MUL SWAP1 POP SWAP3 SWAP2 POP POP JUMP JUMPDEST PUSH1 0x0 PUSH2 0x1C7D DUP3 PUSH2 0x1CE4 JUMP JUMPDEST SWAP2 POP PUSH2 0x1C88 DUP4 PUSH2 0x1CE4 JUMP JUMPDEST SWAP3 POP DUP3 DUP3 LT ISZERO PUSH2 0x1C9B JUMPI PUSH2 0x1C9A PUSH2 0x1D4D JUMP JUMPDEST JUMPDEST DUP3 DUP3 SUB SWAP1 POP SWAP3 SWAP2 POP POP JUMP JUMPDEST PUSH1 0x0 PUSH2 0x1CB1 DUP3 PUSH2 0x1CC4 JUMP JUMPDEST SWAP1 POP SWAP2 SWAP1 POP JUMP JUMPDEST PUSH1 0x0 DUP2 ISZERO ISZERO SWAP1 POP SWAP2 SWAP1 POP JUMP JUMPDEST PUSH1 0x0 PUSH20 0xFFFFFFFFFFFFFFFFFFFFFFFFFFFFFFFFFFFFFFFF DUP3 AND SWAP1 POP SWAP2 SWAP1 POP JUMP JUMPDEST PUSH1 0x0 DUP2 SWAP1 POP SWAP2 SWAP1 POP JUMP JUMPDEST PUSH1 0x0 PUSH2 0x1CF9 DUP3 PUSH2 0x1D00 JUMP JUMPDEST SWAP1 POP SWAP2 SWAP1 POP JUMP JUMPDEST PUSH1 0x0 PUSH2 0x1D0B DUP3 PUSH2 0x1DAB JUMP JUMPDEST SWAP1 POP SWAP2 SWAP1 POP JUMP JUMPDEST PUSH1 0x0 DUP2 SWAP1 POP SWAP2 SWAP1 POP JUMP JUMPDEST PUSH1 0x0 PUSH2 0x1D27 DUP3 PUSH2 0x1CE4 JUMP JUMPDEST SWAP2 POP PUSH2 0x1D32 DUP4 PUSH2 0x1CE4 JUMP JUMPDEST SWAP3 POP DUP3 PUSH2 0x1D42 JUMPI PUSH2 0x1D41 PUSH2 0x1D7C JUMP JUMPDEST JUMPDEST DUP3 DUP3 MOD SWAP1 POP SWAP3 SWAP2 POP POP JUMP JUMPDEST PUSH32 0x4E487B7100000000000000000000000000000000000000000000000000000000 PUSH1 0x0 MSTORE PUSH1 0x11 PUSH1 0x4 MSTORE PUSH1 0x24 PUSH1 0x0 REVERT JUMPDEST PUSH32 0x4E487B7100000000000000000000000000000000000000000000000000000000 PUSH1 0x0 MSTORE PUSH1 0x12 PUSH1 0x4 MSTORE PUSH1 0x24 PUSH1 0x0 REVERT JUMPDEST PUSH1 0x0 DUP2 PUSH1 0x60 SHL SWAP1 POP SWAP2 SWAP1 POP JUMP JUMPDEST PUSH2 0x1DC1 DUP2 PUSH2 0x1CA6 JUMP JUMPDEST DUP2 EQ PUSH2 0x1DCC JUMPI PUSH1 0x0 DUP1 REVERT JUMPDEST POP JUMP JUMPDEST PUSH2 0x1DD8 DUP2 PUSH2 0x1CB8 JUMP JUMPDEST DUP2 EQ PUSH2 0x1DE3 JUMPI PUSH1 0x0 DUP1 REVERT JUMPDEST POP JUMP JUMPDEST PUSH2 0x1DEF DUP2 PUSH2 0x1CE4 JUMP JUMPDEST DUP2 EQ PUSH2 0x1DFA JUMPI PUSH1 0x0 DUP1 REVERT JUMPDEST POP JUMP INVALID LOG2 PUSH5 0x6970667358 0x22 SLT KECCAK256 0xBC CHAINID SELFDESTRUCT 0xCC SWAP2 0x5F EQ 0xEB PUSH2 0x6D63 0xD6 0x21 0xD0 KECCAK256 DUP6 MSTORE8 0x2E SDIV DIV SWAP5 0xAD 0xEB EQ BLOCKHASH CREATE2 KECCAK256 SMOD XOR SMOD 0x21 0xB0 PUSH5 0x736F6C6343 STOP ADDMOD STOP STOP CALLER "
				},
				"gasEstimates": {
					"creation": {
						"codeDepositCost": "1546200",
						"executionCost": "infinite",
						"totalCost": "infinite"
					},
					"external": {
						"": "218",
						"createVestingScheme(address,uint256,uint256,uint256,uint256)": "infinite",
						"getBeneficiarySchemeCountLimit()": "1181",
						"getSchemeCount()": "1160",
						"getSchemeCountLimit()": "1182",
						"getSchemeIdsByBeneficiary(address)": "infinite",
						"getUnvestedAmountById(uint256)": "infinite",
						"getVestingSchemeById(uint256)": "infinite",
						"owner()": "1289",
						"releaseTokens(uint256,uint256)": "infinite",
						"renounceOwnership()": "24485",
						"setBeneficiarySchemeCountLimit(uint256)": "21383",
						"setSchemeCountLimit(uint256)": "21361",
						"transferOwnership(address)": "24811"
					},
					"internal": {
						"_calculateNewSchemeId(address,uint256)": "infinite",
						"_calculateReleaseableAmount(struct TokenVesting.vestingScheme memory)": "infinite",
						"_now()": "22"
					}
				},
				"methodIdentifiers": {
					"createVestingScheme(address,uint256,uint256,uint256,uint256)": "8446464e",
					"getBeneficiarySchemeCountLimit()": "c93a7f6e",
					"getSchemeCount()": "78651b42",
					"getSchemeCountLimit()": "1a360f35",
					"getSchemeIdsByBeneficiary(address)": "3cfde549",
					"getUnvestedAmountById(uint256)": "9c42ad76",
					"getVestingSchemeById(uint256)": "decb4abc",
					"owner()": "8da5cb5b",
					"releaseTokens(uint256,uint256)": "3f4dd268",
					"renounceOwnership()": "715018a6",
					"setBeneficiarySchemeCountLimit(uint256)": "11e1512d",
					"setSchemeCountLimit(uint256)": "110809c7",
					"transferOwnership(address)": "f2fde38b"
				}
			},
			"storageLayout": {
				"storage": [
					{
						"astId": 539,
						"contract": "contract/tokenvesting.sol:TokenVesting",
						"label": "_owner",
						"offset": 0,
						"slot": "0",
						"type": "t_address"
					},
					{
						"astId": 41,
						"contract": "contract/tokenvesting.sol:TokenVesting",
						"label": "token",
						"offset": 0,
						"slot": "1",
						"type": "t_contract(IERC20)1300"
					},
					{
						"astId": 58,
						"contract": "contract/tokenvesting.sol:TokenVesting",
						"label": "schemeCountLimit",
						"offset": 0,
						"slot": "2",
						"type": "t_uint256"
					},
					{
						"astId": 60,
						"contract": "contract/tokenvesting.sol:TokenVesting",
						"label": "schemeCount",
						"offset": 0,
						"slot": "3",
						"type": "t_uint256"
					},
					{
						"astId": 62,
						"contract": "contract/tokenvesting.sol:TokenVesting",
						"label": "schemeId",
						"offset": 0,
						"slot": "4",
						"type": "t_uint256"
					},
					{
						"astId": 64,
						"contract": "contract/tokenvesting.sol:TokenVesting",
						"label": "beneficiarySchemeCountLimit",
						"offset": 0,
						"slot": "5",
						"type": "t_uint256"
					},
					{
						"astId": 69,
						"contract": "contract/tokenvesting.sol:TokenVesting",
						"label": "schemes",
						"offset": 0,
						"slot": "6",
						"type": "t_mapping(t_uint256,t_struct(vestingScheme)56_storage)"
					},
					{
						"astId": 74,
						"contract": "contract/tokenvesting.sol:TokenVesting",
						"label": "beneficiarySchemeIds",
						"offset": 0,
						"slot": "7",
						"type": "t_mapping(t_address,t_array(t_uint256)dyn_storage)"
					}
				],
				"types": {
					"t_address": {
						"encoding": "inplace",
						"label": "address",
						"numberOfBytes": "20"
					},
					"t_array(t_uint256)dyn_storage": {
						"base": "t_uint256",
						"encoding": "dynamic_array",
						"label": "uint256[]",
						"numberOfBytes": "32"
					},
					"t_bool": {
						"encoding": "inplace",
						"label": "bool",
						"numberOfBytes": "1"
					},
					"t_contract(IERC20)1300": {
						"encoding": "inplace",
						"label": "contract IERC20",
						"numberOfBytes": "20"
					},
					"t_mapping(t_address,t_array(t_uint256)dyn_storage)": {
						"encoding": "mapping",
						"key": "t_address",
						"label": "mapping(address => uint256[])",
						"numberOfBytes": "32",
						"value": "t_array(t_uint256)dyn_storage"
					},
					"t_mapping(t_uint256,t_struct(vestingScheme)56_storage)": {
						"encoding": "mapping",
						"key": "t_uint256",
						"label": "mapping(uint256 => struct TokenVesting.vestingScheme)",
						"numberOfBytes": "32",
						"value": "t_struct(vestingScheme)56_storage"
					},
					"t_struct(vestingScheme)56_storage": {
						"encoding": "inplace",
						"label": "struct TokenVesting.vestingScheme",
						"members": [
							{
								"astId": 43,
								"contract": "contract/tokenvesting.sol:TokenVesting",
								"label": "beneficiary",
								"offset": 0,
								"slot": "0",
								"type": "t_address"
							},
							{
								"astId": 45,
								"contract": "contract/tokenvesting.sol:TokenVesting",
								"label": "startTime",
								"offset": 0,
								"slot": "1",
								"type": "t_uint256"
							},
							{
								"astId": 47,
								"contract": "contract/tokenvesting.sol:TokenVesting",
								"label": "duration",
								"offset": 0,
								"slot": "2",
								"type": "t_uint256"
							},
							{
								"astId": 49,
								"contract": "contract/tokenvesting.sol:TokenVesting",
								"label": "releaseSchedule",
								"offset": 0,
								"slot": "3",
								"type": "t_uint256"
							},
							{
								"astId": 51,
								"contract": "contract/tokenvesting.sol:TokenVesting",
								"label": "amount",
								"offset": 0,
								"slot": "4",
								"type": "t_uint256"
							},
							{
								"astId": 53,
								"contract": "contract/tokenvesting.sol:TokenVesting",
								"label": "tokensReleased",
								"offset": 0,
								"slot": "5",
								"type": "t_uint256"
							},
							{
								"astId": 55,
								"contract": "contract/tokenvesting.sol:TokenVesting",
								"label": "isValid",
								"offset": 0,
								"slot": "6",
								"type": "t_bool"
							}
						],
						"numberOfBytes": "224"
					},
					"t_uint256": {
						"encoding": "inplace",
						"label": "uint256",
						"numberOfBytes": "32"
					}
				}
			},
			"userdoc": {
				"kind": "user",
				"methods": {},
				"version": 1
			}
		}
	}
}