{
	"contract/tokenvesting.sol": {
		"AltTokenVesting": {
			"abi": [
				{
					"inputs": [
						{
							"internalType": "address",
							"name": "_token",
							"type": "address"
						}
					],
					"stateMutability": "nonpayable",
					"type": "constructor"
				},
				{
					"anonymous": false,
					"inputs": [
						{
							"indexed": true,
							"internalType": "address",
							"name": "beneficiary",
							"type": "address"
						},
						{
							"indexed": false,
							"internalType": "uint256",
							"name": "amount",
							"type": "uint256"
						}
					],
					"name": "BeneficiaryAdded",
					"type": "event"
				},
				{
					"anonymous": false,
					"inputs": [
						{
							"indexed": false,
							"internalType": "uint256",
							"name": "startTimeUnix",
							"type": "uint256"
						},
						{
							"indexed": false,
							"internalType": "uint256",
							"name": "durationInDays",
							"type": "uint256"
						},
						{
							"indexed": false,
							"internalType": "uint256",
							"name": "releaseScheduleInMinutes",
							"type": "uint256"
						}
					],
					"name": "NewVestingScheme",
					"type": "event"
				},
				{
					"anonymous": false,
					"inputs": [
						{
							"indexed": true,
							"internalType": "address",
							"name": "previousOwner",
							"type": "address"
						},
						{
							"indexed": true,
							"internalType": "address",
							"name": "newOwner",
							"type": "address"
						}
					],
					"name": "OwnershipTransferred",
					"type": "event"
				},
				{
					"anonymous": false,
					"inputs": [
						{
							"indexed": true,
							"internalType": "address",
							"name": "beneficiary",
							"type": "address"
						},
						{
							"indexed": false,
							"internalType": "uint256",
							"name": "releasedAmount",
							"type": "uint256"
						}
					],
					"name": "Release",
					"type": "event"
				},
				{
					"inputs": [],
					"name": "beneficiaryCountLimit",
					"outputs": [
						{
							"internalType": "uint256",
							"name": "",
							"type": "uint256"
						}
					],
					"stateMutability": "view",
					"type": "function"
				},
				{
					"inputs": [
						{
							"internalType": "uint256",
							"name": "",
							"type": "uint256"
						}
					],
					"name": "beneficiaryList",
					"outputs": [
						{
							"internalType": "address",
							"name": "",
							"type": "address"
						}
					],
					"stateMutability": "view",
					"type": "function"
				},
				{
					"inputs": [],
					"name": "getBeneficiaryCount",
					"outputs": [
						{
							"internalType": "uint256",
							"name": "",
							"type": "uint256"
						}
					],
					"stateMutability": "view",
					"type": "function"
				},
				{
					"inputs": [
						{
							"internalType": "address",
							"name": "_beneficiary",
							"type": "address"
						}
					],
					"name": "getReleasableAmount",
					"outputs": [
						{
							"internalType": "uint256",
							"name": "",
							"type": "uint256"
						}
					],
					"stateMutability": "view",
					"type": "function"
				},
				{
					"inputs": [],
					"name": "getVestingScheme",
					"outputs": [
						{
							"internalType": "uint256",
							"name": "",
							"type": "uint256"
						},
						{
							"internalType": "uint256",
							"name": "",
							"type": "uint256"
						},
						{
							"internalType": "uint256",
							"name": "",
							"type": "uint256"
						}
					],
					"stateMutability": "view",
					"type": "function"
				},
				{
					"inputs": [],
					"name": "minimumDurationInDays",
					"outputs": [
						{
							"internalType": "uint256",
							"name": "",
							"type": "uint256"
						}
					],
					"stateMutability": "view",
					"type": "function"
				},
				{
					"inputs": [],
					"name": "owner",
					"outputs": [
						{
							"internalType": "address",
							"name": "",
							"type": "address"
						}
					],
					"stateMutability": "view",
					"type": "function"
				},
				{
					"inputs": [
						{
							"internalType": "address",
							"name": "_beneficiary",
							"type": "address"
						},
						{
							"internalType": "uint256",
							"name": "_releaseAmount",
							"type": "uint256"
						}
					],
					"name": "release",
					"outputs": [],
					"stateMutability": "nonpayable",
					"type": "function"
				},
				{
					"inputs": [],
					"name": "renounceOwnership",
					"outputs": [],
					"stateMutability": "nonpayable",
					"type": "function"
				},
				{
					"inputs": [
						{
							"internalType": "address",
							"name": "_beneficiary",
							"type": "address"
						},
						{
							"internalType": "uint256",
							"name": "_amount",
							"type": "uint256"
						}
					],
					"name": "setBeneficiaryAddressAndAmount",
					"outputs": [],
					"stateMutability": "nonpayable",
					"type": "function"
				},
				{
					"inputs": [
						{
							"internalType": "uint256",
							"name": "_beneficiaryCountLimit",
							"type": "uint256"
						}
					],
					"name": "setBeneficiaryCountLimit",
					"outputs": [],
					"stateMutability": "nonpayable",
					"type": "function"
				},
				{
					"inputs": [
						{
							"internalType": "uint256",
							"name": "_minimumDurationInDays",
							"type": "uint256"
						}
					],
					"name": "setMinimumDurationInDays",
					"outputs": [],
					"stateMutability": "nonpayable",
					"type": "function"
				},
				{
					"inputs": [
						{
							"internalType": "address",
							"name": "_tokenReserveAddress",
							"type": "address"
						}
					],
					"name": "setTokenReserveAddress",
					"outputs": [],
					"stateMutability": "nonpayable",
					"type": "function"
				},
				{
					"inputs": [
						{
							"internalType": "uint256",
							"name": "_startTimeUnix",
							"type": "uint256"
						},
						{
							"internalType": "uint256",
							"name": "_durationInDays",
							"type": "uint256"
						},
						{
							"internalType": "uint256",
							"name": "_releaseScheduleInMinutes",
							"type": "uint256"
						}
					],
					"name": "setVestingScheme",
					"outputs": [],
					"stateMutability": "nonpayable",
					"type": "function"
				},
				{
					"inputs": [],
					"name": "tokenReserveAddress",
					"outputs": [
						{
							"internalType": "address",
							"name": "",
							"type": "address"
						}
					],
					"stateMutability": "view",
					"type": "function"
				},
				{
					"inputs": [
						{
							"internalType": "address",
							"name": "newOwner",
							"type": "address"
						}
					],
					"name": "transferOwnership",
					"outputs": [],
					"stateMutability": "nonpayable",
					"type": "function"
				}
			],
			"devdoc": {
				"kind": "dev",
				"methods": {
					"owner()": {
						"details": "Returns the address of the current owner."
					},
					"renounceOwnership()": {
						"details": "Leaves the contract without owner. It will not be possible to call `onlyOwner` functions anymore. Can only be called by the current owner. NOTE: Renouncing ownership will leave the contract without an owner, thereby removing any functionality that is only available to the owner."
					},
					"transferOwnership(address)": {
						"details": "Transfers ownership of the contract to a new account (`newOwner`). Can only be called by the current owner."
					}
				},
				"version": 1
			},
			"evm": {
				"assembly": "    /* \"contract/tokenvesting.sol\":416:6422  contract AltTokenVesting is Ownable {\r... */\n  mstore(0x40, 0x80)\n    /* \"contract/tokenvesting.sol\":1439:1582  constructor (address _token) {\r... */\n  callvalue\n  dup1\n  iszero\n  tag_1\n  jumpi\n  0x00\n  dup1\n  revert\ntag_1:\n  pop\n  mload(0x40)\n  sub(codesize, bytecodeSize)\n  dup1\n  bytecodeSize\n  dup4\n  codecopy\n  dup2\n  dup2\n  add\n  0x40\n  mstore\n  dup2\n  add\n  swap1\n  tag_2\n  swap2\n  swap1\n  tag_3\n  jump\t// in\ntag_2:\n    /* \"https://github.com/OpenZeppelin/openzeppelin-contracts/blob/master/contracts/access/Ownable.sol\":921:953  _transferOwnership(_msgSender()) */\n  tag_7\n    /* \"https://github.com/OpenZeppelin/openzeppelin-contracts/blob/master/contracts/access/Ownable.sol\":940:952  _msgSender() */\n  tag_8\n    /* \"https://github.com/OpenZeppelin/openzeppelin-contracts/blob/master/contracts/access/Ownable.sol\":940:950  _msgSender */\n  shl(0x20, tag_9)\n    /* \"https://github.com/OpenZeppelin/openzeppelin-contracts/blob/master/contracts/access/Ownable.sol\":940:952  _msgSender() */\n  0x20\n  shr\n  jump\t// in\ntag_8:\n    /* \"https://github.com/OpenZeppelin/openzeppelin-contracts/blob/master/contracts/access/Ownable.sol\":921:939  _transferOwnership */\n  shl(0x20, tag_10)\n    /* \"https://github.com/OpenZeppelin/openzeppelin-contracts/blob/master/contracts/access/Ownable.sol\":921:953  _transferOwnership(_msgSender()) */\n  0x20\n  shr\n  jump\t// in\ntag_7:\n    /* \"contract/tokenvesting.sol\":1494:1500  _token */\n  dup1\n    /* \"contract/tokenvesting.sol\":1479:1484  token */\n  0x01\n  0x00\n    /* \"contract/tokenvesting.sol\":1479:1501  token = IERC20(_token) */\n  0x0100\n  exp\n  dup2\n  sload\n  dup2\n  0xffffffffffffffffffffffffffffffffffffffff\n  mul\n  not\n  and\n  swap1\n  dup4\n  0xffffffffffffffffffffffffffffffffffffffff\n  and\n  mul\n  or\n  swap1\n  sstore\n  pop\n    /* \"contract/tokenvesting.sol\":1536:1538  10 */\n  0x0a\n    /* \"contract/tokenvesting.sol\":1512:1533  beneficiaryCountLimit */\n  dup1\n    /* \"contract/tokenvesting.sol\":1512:1538  beneficiaryCountLimit = 10 */\n  dup2\n  swap1\n  sstore\n  pop\n    /* \"contract/tokenvesting.sol\":1573:1574  1 */\n  0x01\n    /* \"contract/tokenvesting.sol\":1549:1570  minimumDurationInDays */\n  0x0b\n    /* \"contract/tokenvesting.sol\":1549:1574  minimumDurationInDays = 1 */\n  dup2\n  swap1\n  sstore\n  pop\n    /* \"contract/tokenvesting.sol\":1439:1582  constructor (address _token) {\r... */\n  pop\n    /* \"contract/tokenvesting.sol\":416:6422  contract AltTokenVesting is Ownable {\r... */\n  jump(tag_12)\n    /* \"https://github.com/OpenZeppelin/openzeppelin-contracts/blob/master/contracts/utils/Context.sol\":640:736  function _msgSender() internal view virtual returns (address) {... */\ntag_9:\n    /* \"https://github.com/OpenZeppelin/openzeppelin-contracts/blob/master/contracts/utils/Context.sol\":693:700  address */\n  0x00\n    /* \"https://github.com/OpenZeppelin/openzeppelin-contracts/blob/master/contracts/utils/Context.sol\":719:729  msg.sender */\n  caller\n    /* \"https://github.com/OpenZeppelin/openzeppelin-contracts/blob/master/contracts/utils/Context.sol\":712:729  return msg.sender */\n  swap1\n  pop\n    /* \"https://github.com/OpenZeppelin/openzeppelin-contracts/blob/master/contracts/utils/Context.sol\":640:736  function _msgSender() internal view virtual returns (address) {... */\n  swap1\n  jump\t// out\n    /* \"https://github.com/OpenZeppelin/openzeppelin-contracts/blob/master/contracts/access/Ownable.sol\":2270:2457  function _transferOwnership(address newOwner) internal virtual {... */\ntag_10:\n    /* \"https://github.com/OpenZeppelin/openzeppelin-contracts/blob/master/contracts/access/Ownable.sol\":2343:2359  address oldOwner */\n  0x00\n    /* \"https://github.com/OpenZeppelin/openzeppelin-contracts/blob/master/contracts/access/Ownable.sol\":2362:2368  _owner */\n  dup1\n  0x00\n  swap1\n  sload\n  swap1\n  0x0100\n  exp\n  swap1\n  div\n  0xffffffffffffffffffffffffffffffffffffffff\n  and\n    /* \"https://github.com/OpenZeppelin/openzeppelin-contracts/blob/master/contracts/access/Ownable.sol\":2343:2368  address oldOwner = _owner */\n  swap1\n  pop\n    /* \"https://github.com/OpenZeppelin/openzeppelin-contracts/blob/master/contracts/access/Ownable.sol\":2387:2395  newOwner */\n  dup2\n    /* \"https://github.com/OpenZeppelin/openzeppelin-contracts/blob/master/contracts/access/Ownable.sol\":2378:2384  _owner */\n  0x00\n  dup1\n    /* \"https://github.com/OpenZeppelin/openzeppelin-contracts/blob/master/contracts/access/Ownable.sol\":2378:2395  _owner = newOwner */\n  0x0100\n  exp\n  dup2\n  sload\n  dup2\n  0xffffffffffffffffffffffffffffffffffffffff\n  mul\n  not\n  and\n  swap1\n  dup4\n  0xffffffffffffffffffffffffffffffffffffffff\n  and\n  mul\n  or\n  swap1\n  sstore\n  pop\n    /* \"https://github.com/OpenZeppelin/openzeppelin-contracts/blob/master/contracts/access/Ownable.sol\":2441:2449  newOwner */\n  dup2\n    /* \"https://github.com/OpenZeppelin/openzeppelin-contracts/blob/master/contracts/access/Ownable.sol\":2410:2450  OwnershipTransferred(oldOwner, newOwner) */\n  0xffffffffffffffffffffffffffffffffffffffff\n  and\n    /* \"https://github.com/OpenZeppelin/openzeppelin-contracts/blob/master/contracts/access/Ownable.sol\":2431:2439  oldOwner */\n  dup2\n    /* \"https://github.com/OpenZeppelin/openzeppelin-contracts/blob/master/contracts/access/Ownable.sol\":2410:2450  OwnershipTransferred(oldOwner, newOwner) */\n  0xffffffffffffffffffffffffffffffffffffffff\n  and\n  0x8be0079c531659141344cd1fd0a4f28419497f9722a3daafe3b4186f6b6457e0\n  mload(0x40)\n  mload(0x40)\n  dup1\n  swap2\n  sub\n  swap1\n  log3\n    /* \"https://github.com/OpenZeppelin/openzeppelin-contracts/blob/master/contracts/access/Ownable.sol\":2270:2457  function _transferOwnership(address newOwner) internal virtual {... */\n  pop\n  pop\n  jump\t// out\n    /* \"#utility.yul\":7:150   */\ntag_16:\n  0x00\n    /* \"#utility.yul\":95:101   */\n  dup2\n    /* \"#utility.yul\":89:102   */\n  mload\n    /* \"#utility.yul\":80:102   */\n  swap1\n  pop\n    /* \"#utility.yul\":111:144   */\n  tag_18\n    /* \"#utility.yul\":138:143   */\n  dup2\n    /* \"#utility.yul\":111:144   */\n  tag_19\n  jump\t// in\ntag_18:\n    /* \"#utility.yul\":70:150   */\n  swap3\n  swap2\n  pop\n  pop\n  jump\t// out\n    /* \"#utility.yul\":156:440   */\ntag_3:\n  0x00\n    /* \"#utility.yul\":275:277   */\n  0x20\n    /* \"#utility.yul\":263:272   */\n  dup3\n    /* \"#utility.yul\":254:261   */\n  dup5\n    /* \"#utility.yul\":250:273   */\n  sub\n    /* \"#utility.yul\":246:278   */\n  slt\n    /* \"#utility.yul\":243:245   */\n  iszero\n  tag_21\n  jumpi\n    /* \"#utility.yul\":291:292   */\n  0x00\n    /* \"#utility.yul\":288:289   */\n  dup1\n    /* \"#utility.yul\":281:293   */\n  revert\n    /* \"#utility.yul\":243:245   */\ntag_21:\n    /* \"#utility.yul\":334:335   */\n  0x00\n    /* \"#utility.yul\":359:423   */\n  tag_22\n    /* \"#utility.yul\":415:422   */\n  dup5\n    /* \"#utility.yul\":406:412   */\n  dup3\n    /* \"#utility.yul\":395:404   */\n  dup6\n    /* \"#utility.yul\":391:413   */\n  add\n    /* \"#utility.yul\":359:423   */\n  tag_16\n  jump\t// in\ntag_22:\n    /* \"#utility.yul\":349:423   */\n  swap2\n  pop\n    /* \"#utility.yul\":305:433   */\n  pop\n    /* \"#utility.yul\":233:440   */\n  swap3\n  swap2\n  pop\n  pop\n  jump\t// out\n    /* \"#utility.yul\":446:542   */\ntag_23:\n  0x00\n    /* \"#utility.yul\":512:536   */\n  tag_25\n    /* \"#utility.yul\":530:535   */\n  dup3\n    /* \"#utility.yul\":512:536   */\n  tag_26\n  jump\t// in\ntag_25:\n    /* \"#utility.yul\":501:536   */\n  swap1\n  pop\n    /* \"#utility.yul\":491:542   */\n  swap2\n  swap1\n  pop\n  jump\t// out\n    /* \"#utility.yul\":548:674   */\ntag_26:\n  0x00\n    /* \"#utility.yul\":625:667   */\n  0xffffffffffffffffffffffffffffffffffffffff\n    /* \"#utility.yul\":618:623   */\n  dup3\n    /* \"#utility.yul\":614:668   */\n  and\n    /* \"#utility.yul\":603:668   */\n  swap1\n  pop\n    /* \"#utility.yul\":593:674   */\n  swap2\n  swap1\n  pop\n  jump\t// out\n    /* \"#utility.yul\":680:802   */\ntag_19:\n    /* \"#utility.yul\":753:777   */\n  tag_29\n    /* \"#utility.yul\":771:776   */\n  dup2\n    /* \"#utility.yul\":753:777   */\n  tag_23\n  jump\t// in\ntag_29:\n    /* \"#utility.yul\":746:751   */\n  dup2\n    /* \"#utility.yul\":743:778   */\n  eq\n    /* \"#utility.yul\":733:735   */\n  tag_30\n  jumpi\n    /* \"#utility.yul\":792:793   */\n  0x00\n    /* \"#utility.yul\":789:790   */\n  dup1\n    /* \"#utility.yul\":782:794   */\n  revert\n    /* \"#utility.yul\":733:735   */\ntag_30:\n    /* \"#utility.yul\":723:802   */\n  pop\n  jump\t// out\n    /* \"contract/tokenvesting.sol\":416:6422  contract AltTokenVesting is Ownable {\r... */\ntag_12:\n  dataSize(sub_0)\n  dup1\n  dataOffset(sub_0)\n  0x00\n  codecopy\n  0x00\n  return\nstop\n\nsub_0: assembly {\n        /* \"contract/tokenvesting.sol\":416:6422  contract AltTokenVesting is Ownable {\r... */\n      mstore(0x40, 0x80)\n      callvalue\n      dup1\n      iszero\n      tag_1\n      jumpi\n      0x00\n      dup1\n      revert\n    tag_1:\n      pop\n      jumpi(tag_2, lt(calldatasize, 0x04))\n      shr(0xe0, calldataload(0x00))\n      dup1\n      0x715018a6\n      gt\n      tag_19\n      jumpi\n      dup1\n      0x9e761bbb\n      gt\n      tag_20\n      jumpi\n      dup1\n      0x9e761bbb\n      eq\n      tag_15\n      jumpi\n      dup1\n      0x9f79685e\n      eq\n      tag_16\n      jumpi\n      dup1\n      0xf2fde38b\n      eq\n      tag_17\n      jumpi\n      dup1\n      0xfc99d9a1\n      eq\n      tag_18\n      jumpi\n      jump(tag_2)\n    tag_20:\n      dup1\n      0x715018a6\n      eq\n      tag_11\n      jumpi\n      dup1\n      0x75de48ab\n      eq\n      tag_12\n      jumpi\n      dup1\n      0x8da5cb5b\n      eq\n      tag_13\n      jumpi\n      dup1\n      0x9a6e7fd1\n      eq\n      tag_14\n      jumpi\n      jump(tag_2)\n    tag_19:\n      dup1\n      0x566b041d\n      gt\n      tag_21\n      jumpi\n      dup1\n      0x566b041d\n      eq\n      tag_7\n      jumpi\n      dup1\n      0x59a075ec\n      eq\n      tag_8\n      jumpi\n      dup1\n      0x65473fd2\n      eq\n      tag_9\n      jumpi\n      dup1\n      0x66923995\n      eq\n      tag_10\n      jumpi\n      jump(tag_2)\n    tag_21:\n      dup1\n      0x0357371d\n      eq\n      tag_3\n      jumpi\n      dup1\n      0x2afd1a7d\n      eq\n      tag_4\n      jumpi\n      dup1\n      0x366340ca\n      eq\n      tag_5\n      jumpi\n      dup1\n      0x4a917a2f\n      eq\n      tag_6\n      jumpi\n    tag_2:\n      0x00\n      dup1\n      revert\n        /* \"contract/tokenvesting.sol\":4551:5377  function release (address _beneficiary, uint256 _releaseAmount) public isBeneficiaryValid (_beneficiary) {\r... */\n    tag_3:\n      tag_22\n      0x04\n      dup1\n      calldatasize\n      sub\n      dup2\n      add\n      swap1\n      tag_23\n      swap2\n      swap1\n      tag_24\n      jump\t// in\n    tag_23:\n      tag_25\n      jump\t// in\n    tag_22:\n      stop\n        /* \"contract/tokenvesting.sol\":1878:2114  function getReleasableAmount (address _beneficiary) external view isBeneficiaryValid (_beneficiary) returns (uint256) {\r... */\n    tag_4:\n      tag_26\n      0x04\n      dup1\n      calldatasize\n      sub\n      dup2\n      add\n      swap1\n      tag_27\n      swap2\n      swap1\n      tag_28\n      jump\t// in\n    tag_27:\n      tag_29\n      jump\t// in\n    tag_26:\n      mload(0x40)\n      tag_30\n      swap2\n      swap1\n      tag_31\n      jump\t// in\n    tag_30:\n      mload(0x40)\n      dup1\n      swap2\n      sub\n      swap1\n      return\n        /* \"contract/tokenvesting.sol\":831:867  uint256 public beneficiaryCountLimit */\n    tag_5:\n      tag_32\n      tag_33\n      jump\t// in\n    tag_32:\n      mload(0x40)\n      tag_34\n      swap2\n      swap1\n      tag_31\n      jump\t// in\n    tag_34:\n      mload(0x40)\n      dup1\n      swap2\n      sub\n      swap1\n      return\n        /* \"contract/tokenvesting.sol\":2122:2263  function setTokenReserveAddress (address _tokenReserveAddress) public onlyOwner {\r... */\n    tag_6:\n      tag_35\n      0x04\n      dup1\n      calldatasize\n      sub\n      dup2\n      add\n      swap1\n      tag_36\n      swap2\n      swap1\n      tag_28\n      jump\t// in\n    tag_36:\n      tag_37\n      jump\t// in\n    tag_35:\n      stop\n        /* \"contract/tokenvesting.sol\":2541:2801  function setMinimumDurationInDays (uint256 _minimumDurationInDays) public onlyOwner {\r... */\n    tag_7:\n      tag_38\n      0x04\n      dup1\n      calldatasize\n      sub\n      dup2\n      add\n      swap1\n      tag_39\n      swap2\n      swap1\n      tag_40\n      jump\t// in\n    tag_39:\n      tag_41\n      jump\t// in\n    tag_38:\n      stop\n        /* \"contract/tokenvesting.sol\":874:910  uint256 public minimumDurationInDays */\n    tag_8:\n      tag_42\n      tag_43\n      jump\t// in\n    tag_42:\n      mload(0x40)\n      tag_44\n      swap2\n      swap1\n      tag_31\n      jump\t// in\n    tag_44:\n      mload(0x40)\n      dup1\n      swap2\n      sub\n      swap1\n      return\n        /* \"contract/tokenvesting.sol\":917:951  address public tokenReserveAddress */\n    tag_9:\n      tag_45\n      tag_46\n      jump\t// in\n    tag_45:\n      mload(0x40)\n      tag_47\n      swap2\n      swap1\n      tag_48\n      jump\t// in\n    tag_47:\n      mload(0x40)\n      dup1\n      swap2\n      sub\n      swap1\n      return\n        /* \"contract/tokenvesting.sol\":1708:1870  function getVestingScheme () external view returns (uint256, uint256, uint256) {\r... */\n    tag_10:\n      tag_49\n      tag_50\n      jump\t// in\n    tag_49:\n      mload(0x40)\n      tag_51\n      swap4\n      swap3\n      swap2\n      swap1\n      tag_52\n      jump\t// in\n    tag_51:\n      mload(0x40)\n      dup1\n      swap2\n      sub\n      swap1\n      return\n        /* \"https://github.com/OpenZeppelin/openzeppelin-contracts/blob/master/contracts/access/Ownable.sol\":1668:1769  function renounceOwnership() public virtual onlyOwner {... */\n    tag_11:\n      tag_53\n      tag_54\n      jump\t// in\n    tag_53:\n      stop\n        /* \"contract/tokenvesting.sol\":2271:2533  function setBeneficiaryCountLimit (uint _beneficiaryCountLimit) public onlyOwner {\r... */\n    tag_12:\n      tag_55\n      0x04\n      dup1\n      calldatasize\n      sub\n      dup2\n      add\n      swap1\n      tag_56\n      swap2\n      swap1\n      tag_40\n      jump\t// in\n    tag_56:\n      tag_57\n      jump\t// in\n    tag_55:\n      stop\n        /* \"https://github.com/OpenZeppelin/openzeppelin-contracts/blob/master/contracts/access/Ownable.sol\":1036:1121  function owner() public view virtual returns (address) {... */\n    tag_13:\n      tag_58\n      tag_59\n      jump\t// in\n    tag_58:\n      mload(0x40)\n      tag_60\n      swap2\n      swap1\n      tag_48\n      jump\t// in\n    tag_60:\n      mload(0x40)\n      dup1\n      swap2\n      sub\n      swap1\n      return\n        /* \"contract/tokenvesting.sol\":1590:1700  function getBeneficiaryCount () public view returns (uint256) {\r... */\n    tag_14:\n      tag_61\n      tag_62\n      jump\t// in\n    tag_61:\n      mload(0x40)\n      tag_63\n      swap2\n      swap1\n      tag_31\n      jump\t// in\n    tag_63:\n      mload(0x40)\n      dup1\n      swap2\n      sub\n      swap1\n      return\n        /* \"contract/tokenvesting.sol\":647:679  address[] public beneficiaryList */\n    tag_15:\n      tag_64\n      0x04\n      dup1\n      calldatasize\n      sub\n      dup2\n      add\n      swap1\n      tag_65\n      swap2\n      swap1\n      tag_40\n      jump\t// in\n    tag_65:\n      tag_66\n      jump\t// in\n    tag_64:\n      mload(0x40)\n      tag_67\n      swap2\n      swap1\n      tag_48\n      jump\t// in\n    tag_67:\n      mload(0x40)\n      dup1\n      swap2\n      sub\n      swap1\n      return\n        /* \"contract/tokenvesting.sol\":3560:4543  function setBeneficiaryAddressAndAmount (address _beneficiary, uint256 _amount) public onlyOwner {\r... */\n    tag_16:\n      tag_68\n      0x04\n      dup1\n      calldatasize\n      sub\n      dup2\n      add\n      swap1\n      tag_69\n      swap2\n      swap1\n      tag_24\n      jump\t// in\n    tag_69:\n      tag_70\n      jump\t// in\n    tag_68:\n      stop\n        /* \"https://github.com/OpenZeppelin/openzeppelin-contracts/blob/master/contracts/access/Ownable.sol\":1918:2116  function transferOwnership(address newOwner) public virtual onlyOwner {... */\n    tag_17:\n      tag_71\n      0x04\n      dup1\n      calldatasize\n      sub\n      dup2\n      add\n      swap1\n      tag_72\n      swap2\n      swap1\n      tag_28\n      jump\t// in\n    tag_72:\n      tag_73\n      jump\t// in\n    tag_71:\n      stop\n        /* \"contract/tokenvesting.sol\":2809:3552  function setVestingScheme (uint256 _startTimeUnix, uint256 _durationInDays, uint256 _releaseScheduleInMinutes) public onlyOwner {\r... */\n    tag_18:\n      tag_74\n      0x04\n      dup1\n      calldatasize\n      sub\n      dup2\n      add\n      swap1\n      tag_75\n      swap2\n      swap1\n      tag_76\n      jump\t// in\n    tag_75:\n      tag_77\n      jump\t// in\n    tag_74:\n      stop\n        /* \"contract/tokenvesting.sol\":4551:5377  function release (address _beneficiary, uint256 _releaseAmount) public isBeneficiaryValid (_beneficiary) {\r... */\n    tag_25:\n        /* \"contract/tokenvesting.sol\":4642:4654  _beneficiary */\n      dup2\n        /* \"contract/tokenvesting.sol\":1293:1311  isValidBeneficiary */\n      0x07\n        /* \"contract/tokenvesting.sol\":1293:1325  isValidBeneficiary[_beneficiary] */\n      0x00\n        /* \"contract/tokenvesting.sol\":1312:1324  _beneficiary */\n      dup3\n        /* \"contract/tokenvesting.sol\":1293:1325  isValidBeneficiary[_beneficiary] */\n      0xffffffffffffffffffffffffffffffffffffffff\n      and\n      0xffffffffffffffffffffffffffffffffffffffff\n      and\n      dup2\n      mstore\n      0x20\n      add\n      swap1\n      dup2\n      mstore\n      0x20\n      add\n      0x00\n      keccak256\n      0x00\n      swap1\n      sload\n      swap1\n      0x0100\n      exp\n      swap1\n      div\n      0xff\n      and\n        /* \"contract/tokenvesting.sol\":1293:1356  isValidBeneficiary[_beneficiary] && _beneficiary != address (0) */\n      dup1\n      iszero\n      tag_79\n      jumpi\n      pop\n        /* \"contract/tokenvesting.sol\":1354:1355  0 */\n      0x00\n        /* \"contract/tokenvesting.sol\":1329:1356  _beneficiary != address (0) */\n      0xffffffffffffffffffffffffffffffffffffffff\n      and\n        /* \"contract/tokenvesting.sol\":1329:1341  _beneficiary */\n      dup2\n        /* \"contract/tokenvesting.sol\":1329:1356  _beneficiary != address (0) */\n      0xffffffffffffffffffffffffffffffffffffffff\n      and\n      eq\n      iszero\n        /* \"contract/tokenvesting.sol\":1293:1356  isValidBeneficiary[_beneficiary] && _beneficiary != address (0) */\n    tag_79:\n        /* \"contract/tokenvesting.sol\":1284:1411  require (isValidBeneficiary[_beneficiary] && _beneficiary != address (0), \"TokenVesting: Invalid beneficiary address detected\") */\n      tag_80\n      jumpi\n      mload(0x40)\n      0x08c379a000000000000000000000000000000000000000000000000000000000\n      dup2\n      mstore\n      0x04\n      add\n      tag_81\n      swap1\n      tag_82\n      jump\t// in\n    tag_81:\n      mload(0x40)\n      dup1\n      swap2\n      sub\n      swap1\n      revert\n    tag_80:\n        /* \"contract/tokenvesting.sol\":4692:4699  owner() */\n      tag_84\n        /* \"contract/tokenvesting.sol\":4692:4697  owner */\n      tag_59\n        /* \"contract/tokenvesting.sol\":4692:4699  owner() */\n      jump\t// in\n    tag_84:\n        /* \"contract/tokenvesting.sol\":4676:4699  _msgSender() == owner() */\n      0xffffffffffffffffffffffffffffffffffffffff\n      and\n        /* \"contract/tokenvesting.sol\":4676:4688  _msgSender() */\n      tag_85\n        /* \"contract/tokenvesting.sol\":4676:4686  _msgSender */\n      tag_86\n        /* \"contract/tokenvesting.sol\":4676:4688  _msgSender() */\n      jump\t// in\n    tag_85:\n        /* \"contract/tokenvesting.sol\":4676:4699  _msgSender() == owner() */\n      0xffffffffffffffffffffffffffffffffffffffff\n      and\n      eq\n        /* \"contract/tokenvesting.sol\":4676:4735  _msgSender() == owner() || isValidBeneficiary[_msgSender()] */\n      dup1\n      tag_87\n      jumpi\n      pop\n        /* \"contract/tokenvesting.sol\":4703:4721  isValidBeneficiary */\n      0x07\n        /* \"contract/tokenvesting.sol\":4703:4735  isValidBeneficiary[_msgSender()] */\n      0x00\n        /* \"contract/tokenvesting.sol\":4722:4734  _msgSender() */\n      tag_88\n        /* \"contract/tokenvesting.sol\":4722:4732  _msgSender */\n      tag_86\n        /* \"contract/tokenvesting.sol\":4722:4734  _msgSender() */\n      jump\t// in\n    tag_88:\n        /* \"contract/tokenvesting.sol\":4703:4735  isValidBeneficiary[_msgSender()] */\n      0xffffffffffffffffffffffffffffffffffffffff\n      and\n      0xffffffffffffffffffffffffffffffffffffffff\n      and\n      dup2\n      mstore\n      0x20\n      add\n      swap1\n      dup2\n      mstore\n      0x20\n      add\n      0x00\n      keccak256\n      0x00\n      swap1\n      sload\n      swap1\n      0x0100\n      exp\n      swap1\n      div\n      0xff\n      and\n        /* \"contract/tokenvesting.sol\":4676:4735  _msgSender() == owner() || isValidBeneficiary[_msgSender()] */\n    tag_87:\n        /* \"contract/tokenvesting.sol\":4667:4802  require (_msgSender() == owner() || isValidBeneficiary[_msgSender()], \"TokenVesting: Only owner or a valid beneficiary can be caller.\") */\n      tag_89\n      jumpi\n      mload(0x40)\n      0x08c379a000000000000000000000000000000000000000000000000000000000\n      dup2\n      mstore\n      0x04\n      add\n      tag_90\n      swap1\n      tag_91\n      jump\t// in\n    tag_90:\n      mload(0x40)\n      dup1\n      swap2\n      sub\n      swap1\n      revert\n    tag_89:\n        /* \"contract/tokenvesting.sol\":4840:4846  amount */\n      0x08\n        /* \"contract/tokenvesting.sol\":4840:4860  amount[_beneficiary] */\n      0x00\n        /* \"contract/tokenvesting.sol\":4847:4859  _beneficiary */\n      dup5\n        /* \"contract/tokenvesting.sol\":4840:4860  amount[_beneficiary] */\n      0xffffffffffffffffffffffffffffffffffffffff\n      and\n      0xffffffffffffffffffffffffffffffffffffffff\n      and\n      dup2\n      mstore\n      0x20\n      add\n      swap1\n      dup2\n      mstore\n      0x20\n      add\n      0x00\n      keccak256\n      sload\n        /* \"contract/tokenvesting.sol\":4822:4836  _releaseAmount */\n      dup3\n        /* \"contract/tokenvesting.sol\":4822:4860  _releaseAmount <= amount[_beneficiary] */\n      gt\n      iszero\n        /* \"contract/tokenvesting.sol\":4813:4934  require (_releaseAmount <= amount[_beneficiary], \"TokenVesting: Release amount cannot be more than total vesting amount\") */\n      tag_92\n      jumpi\n      mload(0x40)\n      0x08c379a000000000000000000000000000000000000000000000000000000000\n      dup2\n      mstore\n      0x04\n      add\n      tag_93\n      swap1\n      tag_94\n      jump\t// in\n    tag_93:\n      mload(0x40)\n      dup1\n      swap2\n      sub\n      swap1\n      revert\n    tag_92:\n        /* \"contract/tokenvesting.sol\":4945:4969  uint256 releasableAmount */\n      0x00\n        /* \"contract/tokenvesting.sol\":4972:5008  _getReleaseableAmount (_beneficiary) */\n      tag_95\n        /* \"contract/tokenvesting.sol\":4995:5007  _beneficiary */\n      dup5\n        /* \"contract/tokenvesting.sol\":4972:4993  _getReleaseableAmount */\n      tag_96\n        /* \"contract/tokenvesting.sol\":4972:5008  _getReleaseableAmount (_beneficiary) */\n      jump\t// in\n    tag_95:\n        /* \"contract/tokenvesting.sol\":4945:5008  uint256 releasableAmount = _getReleaseableAmount (_beneficiary) */\n      swap1\n      pop\n        /* \"contract/tokenvesting.sol\":5046:5062  releasableAmount */\n      dup1\n        /* \"contract/tokenvesting.sol\":5028:5042  _releaseAmount */\n      dup4\n        /* \"contract/tokenvesting.sol\":5028:5062  _releaseAmount <= releasableAmount */\n      gt\n      iszero\n        /* \"contract/tokenvesting.sol\":5019:5145  require (_releaseAmount <= releasableAmount, \"TokenVesting: Entered release amount is greater than cuurent releasable amount\") */\n      tag_97\n      jumpi\n      mload(0x40)\n      0x08c379a000000000000000000000000000000000000000000000000000000000\n      dup2\n      mstore\n      0x04\n      add\n      tag_98\n      swap1\n      tag_99\n      jump\t// in\n    tag_98:\n      mload(0x40)\n      dup1\n      swap2\n      sub\n      swap1\n      revert\n    tag_97:\n        /* \"contract/tokenvesting.sol\":5187:5235  amountReleased[_beneficiary].add(_releaseAmount) */\n      tag_100\n        /* \"contract/tokenvesting.sol\":5220:5234  _releaseAmount */\n      dup4\n        /* \"contract/tokenvesting.sol\":5187:5201  amountReleased */\n      0x09\n        /* \"contract/tokenvesting.sol\":5187:5215  amountReleased[_beneficiary] */\n      0x00\n        /* \"contract/tokenvesting.sol\":5202:5214  _beneficiary */\n      dup8\n        /* \"contract/tokenvesting.sol\":5187:5215  amountReleased[_beneficiary] */\n      0xffffffffffffffffffffffffffffffffffffffff\n      and\n      0xffffffffffffffffffffffffffffffffffffffff\n      and\n      dup2\n      mstore\n      0x20\n      add\n      swap1\n      dup2\n      mstore\n      0x20\n      add\n      0x00\n      keccak256\n      sload\n        /* \"contract/tokenvesting.sol\":5187:5219  amountReleased[_beneficiary].add */\n      tag_101\n      swap1\n        /* \"contract/tokenvesting.sol\":5187:5235  amountReleased[_beneficiary].add(_releaseAmount) */\n      swap2\n      swap1\n      0xffffffff\n      and\n      jump\t// in\n    tag_100:\n        /* \"contract/tokenvesting.sol\":5156:5170  amountReleased */\n      0x09\n        /* \"contract/tokenvesting.sol\":5156:5184  amountReleased[_beneficiary] */\n      0x00\n        /* \"contract/tokenvesting.sol\":5171:5183  _beneficiary */\n      dup7\n        /* \"contract/tokenvesting.sol\":5156:5184  amountReleased[_beneficiary] */\n      0xffffffffffffffffffffffffffffffffffffffff\n      and\n      0xffffffffffffffffffffffffffffffffffffffff\n      and\n      dup2\n      mstore\n      0x20\n      add\n      swap1\n      dup2\n      mstore\n      0x20\n      add\n      0x00\n      keccak256\n        /* \"contract/tokenvesting.sol\":5156:5235  amountReleased[_beneficiary] = amountReleased[_beneficiary].add(_releaseAmount) */\n      dup2\n      swap1\n      sstore\n      pop\n        /* \"contract/tokenvesting.sol\":5260:5272  _beneficiary */\n      dup4\n        /* \"contract/tokenvesting.sol\":5251:5289  Release (_beneficiary, _releaseAmount) */\n      0xffffffffffffffffffffffffffffffffffffffff\n      and\n      0xf6334794522b9db534a812aaae1af828a2e96aac68473b58e36d7d0bfd67477b\n        /* \"contract/tokenvesting.sol\":5274:5288  _releaseAmount */\n      dup5\n        /* \"contract/tokenvesting.sol\":5251:5289  Release (_beneficiary, _releaseAmount) */\n      mload(0x40)\n      tag_102\n      swap2\n      swap1\n      tag_31\n      jump\t// in\n    tag_102:\n      mload(0x40)\n      dup1\n      swap2\n      sub\n      swap1\n      log2\n        /* \"contract/tokenvesting.sol\":5300:5305  token */\n      0x01\n      0x00\n      swap1\n      sload\n      swap1\n      0x0100\n      exp\n      swap1\n      div\n      0xffffffffffffffffffffffffffffffffffffffff\n      and\n        /* \"contract/tokenvesting.sol\":5300:5318  token.transferFrom */\n      0xffffffffffffffffffffffffffffffffffffffff\n      and\n      0x23b872dd\n        /* \"contract/tokenvesting.sol\":5319:5338  tokenReserveAddress */\n      0x0c\n      0x00\n      swap1\n      sload\n      swap1\n      0x0100\n      exp\n      swap1\n      div\n      0xffffffffffffffffffffffffffffffffffffffff\n      and\n        /* \"contract/tokenvesting.sol\":5340:5352  _beneficiary */\n      dup7\n        /* \"contract/tokenvesting.sol\":5354:5368  _releaseAmount */\n      dup7\n        /* \"contract/tokenvesting.sol\":5300:5369  token.transferFrom(tokenReserveAddress, _beneficiary, _releaseAmount) */\n      mload(0x40)\n      dup5\n      0xffffffff\n      and\n      0xe0\n      shl\n      dup2\n      mstore\n      0x04\n      add\n      tag_103\n      swap4\n      swap3\n      swap2\n      swap1\n      tag_104\n      jump\t// in\n    tag_103:\n      0x20\n      mload(0x40)\n      dup1\n      dup4\n      sub\n      dup2\n      0x00\n      dup8\n      dup1\n      extcodesize\n      iszero\n      dup1\n      iszero\n      tag_105\n      jumpi\n      0x00\n      dup1\n      revert\n    tag_105:\n      pop\n      gas\n      call\n      iszero\n      dup1\n      iszero\n      tag_107\n      jumpi\n      returndatasize\n      0x00\n      dup1\n      returndatacopy\n      revert(0x00, returndatasize)\n    tag_107:\n      pop\n      pop\n      pop\n      pop\n      mload(0x40)\n      returndatasize\n      not(0x1f)\n      0x1f\n      dup3\n      add\n      and\n      dup3\n      add\n      dup1\n      0x40\n      mstore\n      pop\n      dup2\n      add\n      swap1\n      tag_108\n      swap2\n      swap1\n      tag_109\n      jump\t// in\n    tag_108:\n      pop\n        /* \"contract/tokenvesting.sol\":1422:1423  _ */\n      pop\n        /* \"contract/tokenvesting.sol\":4551:5377  function release (address _beneficiary, uint256 _releaseAmount) public isBeneficiaryValid (_beneficiary) {\r... */\n      pop\n      pop\n      pop\n      jump\t// out\n        /* \"contract/tokenvesting.sol\":1878:2114  function getReleasableAmount (address _beneficiary) external view isBeneficiaryValid (_beneficiary) returns (uint256) {\r... */\n    tag_29:\n        /* \"contract/tokenvesting.sol\":1987:1994  uint256 */\n      0x00\n        /* \"contract/tokenvesting.sol\":1964:1976  _beneficiary */\n      dup2\n        /* \"contract/tokenvesting.sol\":1293:1311  isValidBeneficiary */\n      0x07\n        /* \"contract/tokenvesting.sol\":1293:1325  isValidBeneficiary[_beneficiary] */\n      0x00\n        /* \"contract/tokenvesting.sol\":1312:1324  _beneficiary */\n      dup3\n        /* \"contract/tokenvesting.sol\":1293:1325  isValidBeneficiary[_beneficiary] */\n      0xffffffffffffffffffffffffffffffffffffffff\n      and\n      0xffffffffffffffffffffffffffffffffffffffff\n      and\n      dup2\n      mstore\n      0x20\n      add\n      swap1\n      dup2\n      mstore\n      0x20\n      add\n      0x00\n      keccak256\n      0x00\n      swap1\n      sload\n      swap1\n      0x0100\n      exp\n      swap1\n      div\n      0xff\n      and\n        /* \"contract/tokenvesting.sol\":1293:1356  isValidBeneficiary[_beneficiary] && _beneficiary != address (0) */\n      dup1\n      iszero\n      tag_111\n      jumpi\n      pop\n        /* \"contract/tokenvesting.sol\":1354:1355  0 */\n      0x00\n        /* \"contract/tokenvesting.sol\":1329:1356  _beneficiary != address (0) */\n      0xffffffffffffffffffffffffffffffffffffffff\n      and\n        /* \"contract/tokenvesting.sol\":1329:1341  _beneficiary */\n      dup2\n        /* \"contract/tokenvesting.sol\":1329:1356  _beneficiary != address (0) */\n      0xffffffffffffffffffffffffffffffffffffffff\n      and\n      eq\n      iszero\n        /* \"contract/tokenvesting.sol\":1293:1356  isValidBeneficiary[_beneficiary] && _beneficiary != address (0) */\n    tag_111:\n        /* \"contract/tokenvesting.sol\":1284:1411  require (isValidBeneficiary[_beneficiary] && _beneficiary != address (0), \"TokenVesting: Invalid beneficiary address detected\") */\n      tag_112\n      jumpi\n      mload(0x40)\n      0x08c379a000000000000000000000000000000000000000000000000000000000\n      dup2\n      mstore\n      0x04\n      add\n      tag_113\n      swap1\n      tag_82\n      jump\t// in\n    tag_113:\n      mload(0x40)\n      dup1\n      swap2\n      sub\n      swap1\n      revert\n    tag_112:\n        /* \"contract/tokenvesting.sol\":2007:2032  uint256 _releasableAmount */\n      0x00\n        /* \"contract/tokenvesting.sol\":2035:2071  _getReleaseableAmount (_beneficiary) */\n      tag_115\n        /* \"contract/tokenvesting.sol\":2058:2070  _beneficiary */\n      dup5\n        /* \"contract/tokenvesting.sol\":2035:2056  _getReleaseableAmount */\n      tag_96\n        /* \"contract/tokenvesting.sol\":2035:2071  _getReleaseableAmount (_beneficiary) */\n      jump\t// in\n    tag_115:\n        /* \"contract/tokenvesting.sol\":2007:2071  uint256 _releasableAmount = _getReleaseableAmount (_beneficiary) */\n      swap1\n      pop\n        /* \"contract/tokenvesting.sol\":2089:2106  _releasableAmount */\n      dup1\n        /* \"contract/tokenvesting.sol\":2082:2106  return _releasableAmount */\n      swap3\n      pop\n      pop\n        /* \"contract/tokenvesting.sol\":1878:2114  function getReleasableAmount (address _beneficiary) external view isBeneficiaryValid (_beneficiary) returns (uint256) {\r... */\n      pop\n      swap2\n      swap1\n      pop\n      jump\t// out\n        /* \"contract/tokenvesting.sol\":831:867  uint256 public beneficiaryCountLimit */\n    tag_33:\n      sload(0x0a)\n      dup2\n      jump\t// out\n        /* \"contract/tokenvesting.sol\":2122:2263  function setTokenReserveAddress (address _tokenReserveAddress) public onlyOwner {\r... */\n    tag_37:\n        /* \"https://github.com/OpenZeppelin/openzeppelin-contracts/blob/master/contracts/access/Ownable.sol\":1259:1271  _msgSender() */\n      tag_117\n        /* \"https://github.com/OpenZeppelin/openzeppelin-contracts/blob/master/contracts/access/Ownable.sol\":1259:1269  _msgSender */\n      tag_86\n        /* \"https://github.com/OpenZeppelin/openzeppelin-contracts/blob/master/contracts/access/Ownable.sol\":1259:1271  _msgSender() */\n      jump\t// in\n    tag_117:\n        /* \"https://github.com/OpenZeppelin/openzeppelin-contracts/blob/master/contracts/access/Ownable.sol\":1248:1271  owner() == _msgSender() */\n      0xffffffffffffffffffffffffffffffffffffffff\n      and\n        /* \"https://github.com/OpenZeppelin/openzeppelin-contracts/blob/master/contracts/access/Ownable.sol\":1248:1255  owner() */\n      tag_118\n        /* \"https://github.com/OpenZeppelin/openzeppelin-contracts/blob/master/contracts/access/Ownable.sol\":1248:1253  owner */\n      tag_59\n        /* \"https://github.com/OpenZeppelin/openzeppelin-contracts/blob/master/contracts/access/Ownable.sol\":1248:1255  owner() */\n      jump\t// in\n    tag_118:\n        /* \"https://github.com/OpenZeppelin/openzeppelin-contracts/blob/master/contracts/access/Ownable.sol\":1248:1271  owner() == _msgSender() */\n      0xffffffffffffffffffffffffffffffffffffffff\n      and\n      eq\n        /* \"https://github.com/OpenZeppelin/openzeppelin-contracts/blob/master/contracts/access/Ownable.sol\":1240:1308  require(owner() == _msgSender(), \"Ownable: caller is not the owner\") */\n      tag_119\n      jumpi\n      mload(0x40)\n      0x08c379a000000000000000000000000000000000000000000000000000000000\n      dup2\n      mstore\n      0x04\n      add\n      tag_120\n      swap1\n      tag_121\n      jump\t// in\n    tag_120:\n      mload(0x40)\n      dup1\n      swap2\n      sub\n      swap1\n      revert\n    tag_119:\n        /* \"contract/tokenvesting.sol\":2235:2255  _tokenReserveAddress */\n      dup1\n        /* \"contract/tokenvesting.sol\":2213:2232  tokenReserveAddress */\n      0x0c\n      0x00\n        /* \"contract/tokenvesting.sol\":2213:2255  tokenReserveAddress = _tokenReserveAddress */\n      0x0100\n      exp\n      dup2\n      sload\n      dup2\n      0xffffffffffffffffffffffffffffffffffffffff\n      mul\n      not\n      and\n      swap1\n      dup4\n      0xffffffffffffffffffffffffffffffffffffffff\n      and\n      mul\n      or\n      swap1\n      sstore\n      pop\n        /* \"contract/tokenvesting.sol\":2122:2263  function setTokenReserveAddress (address _tokenReserveAddress) public onlyOwner {\r... */\n      pop\n      jump\t// out\n        /* \"contract/tokenvesting.sol\":2541:2801  function setMinimumDurationInDays (uint256 _minimumDurationInDays) public onlyOwner {\r... */\n    tag_41:\n        /* \"https://github.com/OpenZeppelin/openzeppelin-contracts/blob/master/contracts/access/Ownable.sol\":1259:1271  _msgSender() */\n      tag_124\n        /* \"https://github.com/OpenZeppelin/openzeppelin-contracts/blob/master/contracts/access/Ownable.sol\":1259:1269  _msgSender */\n      tag_86\n        /* \"https://github.com/OpenZeppelin/openzeppelin-contracts/blob/master/contracts/access/Ownable.sol\":1259:1271  _msgSender() */\n      jump\t// in\n    tag_124:\n        /* \"https://github.com/OpenZeppelin/openzeppelin-contracts/blob/master/contracts/access/Ownable.sol\":1248:1271  owner() == _msgSender() */\n      0xffffffffffffffffffffffffffffffffffffffff\n      and\n        /* \"https://github.com/OpenZeppelin/openzeppelin-contracts/blob/master/contracts/access/Ownable.sol\":1248:1255  owner() */\n      tag_125\n        /* \"https://github.com/OpenZeppelin/openzeppelin-contracts/blob/master/contracts/access/Ownable.sol\":1248:1253  owner */\n      tag_59\n        /* \"https://github.com/OpenZeppelin/openzeppelin-contracts/blob/master/contracts/access/Ownable.sol\":1248:1255  owner() */\n      jump\t// in\n    tag_125:\n        /* \"https://github.com/OpenZeppelin/openzeppelin-contracts/blob/master/contracts/access/Ownable.sol\":1248:1271  owner() == _msgSender() */\n      0xffffffffffffffffffffffffffffffffffffffff\n      and\n      eq\n        /* \"https://github.com/OpenZeppelin/openzeppelin-contracts/blob/master/contracts/access/Ownable.sol\":1240:1308  require(owner() == _msgSender(), \"Ownable: caller is not the owner\") */\n      tag_126\n      jumpi\n      mload(0x40)\n      0x08c379a000000000000000000000000000000000000000000000000000000000\n      dup2\n      mstore\n      0x04\n      add\n      tag_127\n      swap1\n      tag_121\n      jump\t// in\n    tag_127:\n      mload(0x40)\n      dup1\n      swap2\n      sub\n      swap1\n      revert\n    tag_126:\n        /* \"contract/tokenvesting.sol\":2671:2672  1 */\n      0x01\n        /* \"contract/tokenvesting.sol\":2645:2667  _minimumDurationInDays */\n      dup2\n        /* \"contract/tokenvesting.sol\":2645:2672  _minimumDurationInDays >= 1 */\n      lt\n      iszero\n        /* \"contract/tokenvesting.sol\":2636:2736  require (_minimumDurationInDays >= 1, \"TokenVesting: Minimum duration cannot be lesser than 1 day.\") */\n      tag_129\n      jumpi\n      mload(0x40)\n      0x08c379a000000000000000000000000000000000000000000000000000000000\n      dup2\n      mstore\n      0x04\n      add\n      tag_130\n      swap1\n      tag_131\n      jump\t// in\n    tag_130:\n      mload(0x40)\n      dup1\n      swap2\n      sub\n      swap1\n      revert\n    tag_129:\n        /* \"contract/tokenvesting.sol\":2771:2793  _minimumDurationInDays */\n      dup1\n        /* \"contract/tokenvesting.sol\":2747:2768  minimumDurationInDays */\n      0x0b\n        /* \"contract/tokenvesting.sol\":2747:2793  minimumDurationInDays = _minimumDurationInDays */\n      dup2\n      swap1\n      sstore\n      pop\n        /* \"contract/tokenvesting.sol\":2541:2801  function setMinimumDurationInDays (uint256 _minimumDurationInDays) public onlyOwner {\r... */\n      pop\n      jump\t// out\n        /* \"contract/tokenvesting.sol\":874:910  uint256 public minimumDurationInDays */\n    tag_43:\n      sload(0x0b)\n      dup2\n      jump\t// out\n        /* \"contract/tokenvesting.sol\":917:951  address public tokenReserveAddress */\n    tag_46:\n      0x0c\n      0x00\n      swap1\n      sload\n      swap1\n      0x0100\n      exp\n      swap1\n      div\n      0xffffffffffffffffffffffffffffffffffffffff\n      and\n      dup2\n      jump\t// out\n        /* \"contract/tokenvesting.sol\":1708:1870  function getVestingScheme () external view returns (uint256, uint256, uint256) {\r... */\n    tag_50:\n        /* \"contract/tokenvesting.sol\":1760:1767  uint256 */\n      0x00\n        /* \"contract/tokenvesting.sol\":1769:1776  uint256 */\n      dup1\n        /* \"contract/tokenvesting.sol\":1778:1785  uint256 */\n      0x00\n        /* \"contract/tokenvesting.sol\":1806:1819  startTimeUnix */\n      sload(0x02)\n        /* \"contract/tokenvesting.sol\":1821:1835  durationInDays */\n      sload(0x03)\n        /* \"contract/tokenvesting.sol\":1837:1861  releaseScheduleInMinutes */\n      sload(0x04)\n        /* \"contract/tokenvesting.sol\":1798:1862  return (startTimeUnix, durationInDays, releaseScheduleInMinutes) */\n      swap3\n      pop\n      swap3\n      pop\n      swap3\n      pop\n        /* \"contract/tokenvesting.sol\":1708:1870  function getVestingScheme () external view returns (uint256, uint256, uint256) {\r... */\n      swap1\n      swap2\n      swap3\n      jump\t// out\n        /* \"https://github.com/OpenZeppelin/openzeppelin-contracts/blob/master/contracts/access/Ownable.sol\":1668:1769  function renounceOwnership() public virtual onlyOwner {... */\n    tag_54:\n        /* \"https://github.com/OpenZeppelin/openzeppelin-contracts/blob/master/contracts/access/Ownable.sol\":1259:1271  _msgSender() */\n      tag_134\n        /* \"https://github.com/OpenZeppelin/openzeppelin-contracts/blob/master/contracts/access/Ownable.sol\":1259:1269  _msgSender */\n      tag_86\n        /* \"https://github.com/OpenZeppelin/openzeppelin-contracts/blob/master/contracts/access/Ownable.sol\":1259:1271  _msgSender() */\n      jump\t// in\n    tag_134:\n        /* \"https://github.com/OpenZeppelin/openzeppelin-contracts/blob/master/contracts/access/Ownable.sol\":1248:1271  owner() == _msgSender() */\n      0xffffffffffffffffffffffffffffffffffffffff\n      and\n        /* \"https://github.com/OpenZeppelin/openzeppelin-contracts/blob/master/contracts/access/Ownable.sol\":1248:1255  owner() */\n      tag_135\n        /* \"https://github.com/OpenZeppelin/openzeppelin-contracts/blob/master/contracts/access/Ownable.sol\":1248:1253  owner */\n      tag_59\n        /* \"https://github.com/OpenZeppelin/openzeppelin-contracts/blob/master/contracts/access/Ownable.sol\":1248:1255  owner() */\n      jump\t// in\n    tag_135:\n        /* \"https://github.com/OpenZeppelin/openzeppelin-contracts/blob/master/contracts/access/Ownable.sol\":1248:1271  owner() == _msgSender() */\n      0xffffffffffffffffffffffffffffffffffffffff\n      and\n      eq\n        /* \"https://github.com/OpenZeppelin/openzeppelin-contracts/blob/master/contracts/access/Ownable.sol\":1240:1308  require(owner() == _msgSender(), \"Ownable: caller is not the owner\") */\n      tag_136\n      jumpi\n      mload(0x40)\n      0x08c379a000000000000000000000000000000000000000000000000000000000\n      dup2\n      mstore\n      0x04\n      add\n      tag_137\n      swap1\n      tag_121\n      jump\t// in\n    tag_137:\n      mload(0x40)\n      dup1\n      swap2\n      sub\n      swap1\n      revert\n    tag_136:\n        /* \"https://github.com/OpenZeppelin/openzeppelin-contracts/blob/master/contracts/access/Ownable.sol\":1732:1762  _transferOwnership(address(0)) */\n      tag_139\n        /* \"https://github.com/OpenZeppelin/openzeppelin-contracts/blob/master/contracts/access/Ownable.sol\":1759:1760  0 */\n      0x00\n        /* \"https://github.com/OpenZeppelin/openzeppelin-contracts/blob/master/contracts/access/Ownable.sol\":1732:1750  _transferOwnership */\n      tag_140\n        /* \"https://github.com/OpenZeppelin/openzeppelin-contracts/blob/master/contracts/access/Ownable.sol\":1732:1762  _transferOwnership(address(0)) */\n      jump\t// in\n    tag_139:\n        /* \"https://github.com/OpenZeppelin/openzeppelin-contracts/blob/master/contracts/access/Ownable.sol\":1668:1769  function renounceOwnership() public virtual onlyOwner {... */\n      jump\t// out\n        /* \"contract/tokenvesting.sol\":2271:2533  function setBeneficiaryCountLimit (uint _beneficiaryCountLimit) public onlyOwner {\r... */\n    tag_57:\n        /* \"https://github.com/OpenZeppelin/openzeppelin-contracts/blob/master/contracts/access/Ownable.sol\":1259:1271  _msgSender() */\n      tag_142\n        /* \"https://github.com/OpenZeppelin/openzeppelin-contracts/blob/master/contracts/access/Ownable.sol\":1259:1269  _msgSender */\n      tag_86\n        /* \"https://github.com/OpenZeppelin/openzeppelin-contracts/blob/master/contracts/access/Ownable.sol\":1259:1271  _msgSender() */\n      jump\t// in\n    tag_142:\n        /* \"https://github.com/OpenZeppelin/openzeppelin-contracts/blob/master/contracts/access/Ownable.sol\":1248:1271  owner() == _msgSender() */\n      0xffffffffffffffffffffffffffffffffffffffff\n      and\n        /* \"https://github.com/OpenZeppelin/openzeppelin-contracts/blob/master/contracts/access/Ownable.sol\":1248:1255  owner() */\n      tag_143\n        /* \"https://github.com/OpenZeppelin/openzeppelin-contracts/blob/master/contracts/access/Ownable.sol\":1248:1253  owner */\n      tag_59\n        /* \"https://github.com/OpenZeppelin/openzeppelin-contracts/blob/master/contracts/access/Ownable.sol\":1248:1255  owner() */\n      jump\t// in\n    tag_143:\n        /* \"https://github.com/OpenZeppelin/openzeppelin-contracts/blob/master/contracts/access/Ownable.sol\":1248:1271  owner() == _msgSender() */\n      0xffffffffffffffffffffffffffffffffffffffff\n      and\n      eq\n        /* \"https://github.com/OpenZeppelin/openzeppelin-contracts/blob/master/contracts/access/Ownable.sol\":1240:1308  require(owner() == _msgSender(), \"Ownable: caller is not the owner\") */\n      tag_144\n      jumpi\n      mload(0x40)\n      0x08c379a000000000000000000000000000000000000000000000000000000000\n      dup2\n      mstore\n      0x04\n      add\n      tag_145\n      swap1\n      tag_121\n      jump\t// in\n    tag_145:\n      mload(0x40)\n      dup1\n      swap2\n      sub\n      swap1\n      revert\n    tag_144:\n        /* \"contract/tokenvesting.sol\":2397:2398  0 */\n      0x00\n        /* \"contract/tokenvesting.sol\":2372:2394  _beneficiaryCountLimit */\n      dup2\n        /* \"contract/tokenvesting.sol\":2372:2398  _beneficiaryCountLimit > 0 */\n      gt\n        /* \"contract/tokenvesting.sol\":2363:2468  require (_beneficiaryCountLimit > 0, \"TokenVesting: Beneficiary count limit should be greater than zero\") */\n      tag_147\n      jumpi\n      mload(0x40)\n      0x08c379a000000000000000000000000000000000000000000000000000000000\n      dup2\n      mstore\n      0x04\n      add\n      tag_148\n      swap1\n      tag_149\n      jump\t// in\n    tag_148:\n      mload(0x40)\n      dup1\n      swap2\n      sub\n      swap1\n      revert\n    tag_147:\n        /* \"contract/tokenvesting.sol\":2503:2525  _beneficiaryCountLimit */\n      dup1\n        /* \"contract/tokenvesting.sol\":2479:2500  beneficiaryCountLimit */\n      0x0a\n        /* \"contract/tokenvesting.sol\":2479:2525  beneficiaryCountLimit = _beneficiaryCountLimit */\n      dup2\n      swap1\n      sstore\n      pop\n        /* \"contract/tokenvesting.sol\":2271:2533  function setBeneficiaryCountLimit (uint _beneficiaryCountLimit) public onlyOwner {\r... */\n      pop\n      jump\t// out\n        /* \"https://github.com/OpenZeppelin/openzeppelin-contracts/blob/master/contracts/access/Ownable.sol\":1036:1121  function owner() public view virtual returns (address) {... */\n    tag_59:\n        /* \"https://github.com/OpenZeppelin/openzeppelin-contracts/blob/master/contracts/access/Ownable.sol\":1082:1089  address */\n      0x00\n        /* \"https://github.com/OpenZeppelin/openzeppelin-contracts/blob/master/contracts/access/Ownable.sol\":1108:1114  _owner */\n      dup1\n      0x00\n      swap1\n      sload\n      swap1\n      0x0100\n      exp\n      swap1\n      div\n      0xffffffffffffffffffffffffffffffffffffffff\n      and\n        /* \"https://github.com/OpenZeppelin/openzeppelin-contracts/blob/master/contracts/access/Ownable.sol\":1101:1114  return _owner */\n      swap1\n      pop\n        /* \"https://github.com/OpenZeppelin/openzeppelin-contracts/blob/master/contracts/access/Ownable.sol\":1036:1121  function owner() public view virtual returns (address) {... */\n      swap1\n      jump\t// out\n        /* \"contract/tokenvesting.sol\":1590:1700  function getBeneficiaryCount () public view returns (uint256) {\r... */\n    tag_62:\n        /* \"contract/tokenvesting.sol\":1643:1650  uint256 */\n      0x00\n        /* \"contract/tokenvesting.sol\":1670:1685  beneficiaryList */\n      0x06\n        /* \"contract/tokenvesting.sol\":1670:1692  beneficiaryList.length */\n      dup1\n      sload\n      swap1\n      pop\n        /* \"contract/tokenvesting.sol\":1663:1692  return beneficiaryList.length */\n      swap1\n      pop\n        /* \"contract/tokenvesting.sol\":1590:1700  function getBeneficiaryCount () public view returns (uint256) {\r... */\n      swap1\n      jump\t// out\n        /* \"contract/tokenvesting.sol\":647:679  address[] public beneficiaryList */\n    tag_66:\n      0x06\n      dup2\n      dup2\n      sload\n      dup2\n      lt\n      tag_152\n      jumpi\n      0x00\n      dup1\n      revert\n    tag_152:\n      swap1\n      0x00\n      mstore\n      keccak256(0x00, 0x20)\n      add\n      0x00\n      swap2\n      pop\n      sload\n      swap1\n      0x0100\n      exp\n      swap1\n      div\n      0xffffffffffffffffffffffffffffffffffffffff\n      and\n      dup2\n      jump\t// out\n        /* \"contract/tokenvesting.sol\":3560:4543  function setBeneficiaryAddressAndAmount (address _beneficiary, uint256 _amount) public onlyOwner {\r... */\n    tag_70:\n        /* \"https://github.com/OpenZeppelin/openzeppelin-contracts/blob/master/contracts/access/Ownable.sol\":1259:1271  _msgSender() */\n      tag_155\n        /* \"https://github.com/OpenZeppelin/openzeppelin-contracts/blob/master/contracts/access/Ownable.sol\":1259:1269  _msgSender */\n      tag_86\n        /* \"https://github.com/OpenZeppelin/openzeppelin-contracts/blob/master/contracts/access/Ownable.sol\":1259:1271  _msgSender() */\n      jump\t// in\n    tag_155:\n        /* \"https://github.com/OpenZeppelin/openzeppelin-contracts/blob/master/contracts/access/Ownable.sol\":1248:1271  owner() == _msgSender() */\n      0xffffffffffffffffffffffffffffffffffffffff\n      and\n        /* \"https://github.com/OpenZeppelin/openzeppelin-contracts/blob/master/contracts/access/Ownable.sol\":1248:1255  owner() */\n      tag_156\n        /* \"https://github.com/OpenZeppelin/openzeppelin-contracts/blob/master/contracts/access/Ownable.sol\":1248:1253  owner */\n      tag_59\n        /* \"https://github.com/OpenZeppelin/openzeppelin-contracts/blob/master/contracts/access/Ownable.sol\":1248:1255  owner() */\n      jump\t// in\n    tag_156:\n        /* \"https://github.com/OpenZeppelin/openzeppelin-contracts/blob/master/contracts/access/Ownable.sol\":1248:1271  owner() == _msgSender() */\n      0xffffffffffffffffffffffffffffffffffffffff\n      and\n      eq\n        /* \"https://github.com/OpenZeppelin/openzeppelin-contracts/blob/master/contracts/access/Ownable.sol\":1240:1308  require(owner() == _msgSender(), \"Ownable: caller is not the owner\") */\n      tag_157\n      jumpi\n      mload(0x40)\n      0x08c379a000000000000000000000000000000000000000000000000000000000\n      dup2\n      mstore\n      0x04\n      add\n      tag_158\n      swap1\n      tag_121\n      jump\t// in\n    tag_158:\n      mload(0x40)\n      dup1\n      swap2\n      sub\n      swap1\n      revert\n    tag_157:\n        /* \"contract/tokenvesting.sol\":3701:3702  0 */\n      0x00\n        /* \"contract/tokenvesting.sol\":3677:3703  _beneficiary != address(0) */\n      0xffffffffffffffffffffffffffffffffffffffff\n      and\n        /* \"contract/tokenvesting.sol\":3677:3689  _beneficiary */\n      dup3\n        /* \"contract/tokenvesting.sol\":3677:3703  _beneficiary != address(0) */\n      0xffffffffffffffffffffffffffffffffffffffff\n      and\n      eq\n      iszero\n        /* \"contract/tokenvesting.sol\":3668:3765  require (_beneficiary != address(0), \"TokenVesting: Zero address cannot be set as a beneficiary\") */\n      tag_160\n      jumpi\n      mload(0x40)\n      0x08c379a000000000000000000000000000000000000000000000000000000000\n      dup2\n      mstore\n      0x04\n      add\n      tag_161\n      swap1\n      tag_162\n      jump\t// in\n    tag_161:\n      mload(0x40)\n      dup1\n      swap2\n      sub\n      swap1\n      revert\n    tag_160:\n        /* \"contract/tokenvesting.sol\":3795:3796  0 */\n      0x00\n        /* \"contract/tokenvesting.sol\":3785:3792  _amount */\n      dup2\n        /* \"contract/tokenvesting.sol\":3785:3796  _amount > 0 */\n      gt\n        /* \"contract/tokenvesting.sol\":3776:3855  require (_amount > 0, \"TokenVesting: Vesting amount must be greater than zero\") */\n      tag_163\n      jumpi\n      mload(0x40)\n      0x08c379a000000000000000000000000000000000000000000000000000000000\n      dup2\n      mstore\n      0x04\n      add\n      tag_164\n      swap1\n      tag_165\n      jump\t// in\n    tag_164:\n      mload(0x40)\n      dup1\n      swap2\n      sub\n      swap1\n      revert\n    tag_163:\n        /* \"contract/tokenvesting.sol\":4093:4114  beneficiaryCountLimit */\n      sload(0x0a)\n        /* \"contract/tokenvesting.sol\":4068:4089  getBeneficiaryCount() */\n      tag_166\n        /* \"contract/tokenvesting.sol\":4068:4087  getBeneficiaryCount */\n      tag_62\n        /* \"contract/tokenvesting.sol\":4068:4089  getBeneficiaryCount() */\n      jump\t// in\n    tag_166:\n        /* \"contract/tokenvesting.sol\":4068:4114  getBeneficiaryCount() <= beneficiaryCountLimit */\n      gt\n      iszero\n        /* \"contract/tokenvesting.sol\":4059:4168  require (getBeneficiaryCount() <= beneficiaryCountLimit, \"TokenVesting: Beneficiary count has reached limit\") */\n      tag_167\n      jumpi\n      mload(0x40)\n      0x08c379a000000000000000000000000000000000000000000000000000000000\n      dup2\n      mstore\n      0x04\n      add\n      tag_168\n      swap1\n      tag_169\n      jump\t// in\n    tag_168:\n      mload(0x40)\n      dup1\n      swap2\n      sub\n      swap1\n      revert\n    tag_167:\n        /* \"contract/tokenvesting.sol\":4189:4207  isValidBeneficiary */\n      0x07\n        /* \"contract/tokenvesting.sol\":4189:4221  isValidBeneficiary[_beneficiary] */\n      0x00\n        /* \"contract/tokenvesting.sol\":4208:4220  _beneficiary */\n      dup4\n        /* \"contract/tokenvesting.sol\":4189:4221  isValidBeneficiary[_beneficiary] */\n      0xffffffffffffffffffffffffffffffffffffffff\n      and\n      0xffffffffffffffffffffffffffffffffffffffff\n      and\n      dup2\n      mstore\n      0x20\n      add\n      swap1\n      dup2\n      mstore\n      0x20\n      add\n      0x00\n      keccak256\n      0x00\n      swap1\n      sload\n      swap1\n      0x0100\n      exp\n      swap1\n      div\n      0xff\n      and\n        /* \"contract/tokenvesting.sol\":4188:4221  !isValidBeneficiary[_beneficiary] */\n      iszero\n        /* \"contract/tokenvesting.sol\":4179:4265  require (!isValidBeneficiary[_beneficiary], \"TokenVesting: Beneficiary already added\") */\n      tag_170\n      jumpi\n      mload(0x40)\n      0x08c379a000000000000000000000000000000000000000000000000000000000\n      dup2\n      mstore\n      0x04\n      add\n      tag_171\n      swap1\n      tag_172\n      jump\t// in\n    tag_171:\n      mload(0x40)\n      dup1\n      swap2\n      sub\n      swap1\n      revert\n    tag_170:\n        /* \"contract/tokenvesting.sol\":4276:4291  beneficiaryList */\n      0x06\n        /* \"contract/tokenvesting.sol\":4297:4309  _beneficiary */\n      dup3\n        /* \"contract/tokenvesting.sol\":4276:4310  beneficiaryList.push(_beneficiary) */\n      swap1\n      dup1\n      0x01\n      dup2\n      sload\n      add\n      dup1\n      dup3\n      sstore\n      dup1\n      swap2\n      pop\n      pop\n      0x01\n      swap1\n      sub\n      swap1\n      0x00\n      mstore\n      keccak256(0x00, 0x20)\n      add\n      0x00\n      swap1\n      swap2\n      swap1\n      swap2\n      swap1\n      swap2\n      0x0100\n      exp\n      dup2\n      sload\n      dup2\n      0xffffffffffffffffffffffffffffffffffffffff\n      mul\n      not\n      and\n      swap1\n      dup4\n      0xffffffffffffffffffffffffffffffffffffffff\n      and\n      mul\n      or\n      swap1\n      sstore\n      pop\n        /* \"contract/tokenvesting.sol\":4344:4351  _amount */\n      dup1\n        /* \"contract/tokenvesting.sol\":4321:4327  amount */\n      0x08\n        /* \"contract/tokenvesting.sol\":4321:4341  amount[_beneficiary] */\n      0x00\n        /* \"contract/tokenvesting.sol\":4328:4340  _beneficiary */\n      dup5\n        /* \"contract/tokenvesting.sol\":4321:4341  amount[_beneficiary] */\n      0xffffffffffffffffffffffffffffffffffffffff\n      and\n      0xffffffffffffffffffffffffffffffffffffffff\n      and\n      dup2\n      mstore\n      0x20\n      add\n      swap1\n      dup2\n      mstore\n      0x20\n      add\n      0x00\n      keccak256\n        /* \"contract/tokenvesting.sol\":4321:4351  amount[_beneficiary] = _amount */\n      dup2\n      swap1\n      sstore\n      pop\n        /* \"contract/tokenvesting.sol\":4384:4416  totalVestableAmount.add(_amount) */\n      tag_174\n        /* \"contract/tokenvesting.sol\":4408:4415  _amount */\n      dup2\n        /* \"contract/tokenvesting.sol\":4384:4403  totalVestableAmount */\n      sload(0x05)\n        /* \"contract/tokenvesting.sol\":4384:4407  totalVestableAmount.add */\n      tag_101\n      swap1\n        /* \"contract/tokenvesting.sol\":4384:4416  totalVestableAmount.add(_amount) */\n      swap2\n      swap1\n      0xffffffff\n      and\n      jump\t// in\n    tag_174:\n        /* \"contract/tokenvesting.sol\":4362:4381  totalVestableAmount */\n      0x05\n        /* \"contract/tokenvesting.sol\":4362:4416  totalVestableAmount = totalVestableAmount.add(_amount) */\n      dup2\n      swap1\n      sstore\n      pop\n        /* \"contract/tokenvesting.sol\":4462:4466  true */\n      0x01\n        /* \"contract/tokenvesting.sol\":4427:4445  isValidBeneficiary */\n      0x07\n        /* \"contract/tokenvesting.sol\":4427:4459  isValidBeneficiary[_beneficiary] */\n      0x00\n        /* \"contract/tokenvesting.sol\":4446:4458  _beneficiary */\n      dup5\n        /* \"contract/tokenvesting.sol\":4427:4459  isValidBeneficiary[_beneficiary] */\n      0xffffffffffffffffffffffffffffffffffffffff\n      and\n      0xffffffffffffffffffffffffffffffffffffffff\n      and\n      dup2\n      mstore\n      0x20\n      add\n      swap1\n      dup2\n      mstore\n      0x20\n      add\n      0x00\n      keccak256\n      0x00\n        /* \"contract/tokenvesting.sol\":4427:4466  isValidBeneficiary[_beneficiary] = true */\n      0x0100\n      exp\n      dup2\n      sload\n      dup2\n      0xff\n      mul\n      not\n      and\n      swap1\n      dup4\n      iszero\n      iszero\n      mul\n      or\n      swap1\n      sstore\n      pop\n        /* \"contract/tokenvesting.sol\":4500:4512  _beneficiary */\n      dup2\n        /* \"contract/tokenvesting.sol\":4482:4535  BeneficiaryAdded (_beneficiary, amount[_beneficiary]) */\n      0xffffffffffffffffffffffffffffffffffffffff\n      and\n      0xe6b83177f11971ba30369bb38b914ffba97d5969a3c857b286fa8fdbb150b3ba\n        /* \"contract/tokenvesting.sol\":4514:4520  amount */\n      0x08\n        /* \"contract/tokenvesting.sol\":4514:4534  amount[_beneficiary] */\n      0x00\n        /* \"contract/tokenvesting.sol\":4521:4533  _beneficiary */\n      dup6\n        /* \"contract/tokenvesting.sol\":4514:4534  amount[_beneficiary] */\n      0xffffffffffffffffffffffffffffffffffffffff\n      and\n      0xffffffffffffffffffffffffffffffffffffffff\n      and\n      dup2\n      mstore\n      0x20\n      add\n      swap1\n      dup2\n      mstore\n      0x20\n      add\n      0x00\n      keccak256\n      sload\n        /* \"contract/tokenvesting.sol\":4482:4535  BeneficiaryAdded (_beneficiary, amount[_beneficiary]) */\n      mload(0x40)\n      tag_175\n      swap2\n      swap1\n      tag_31\n      jump\t// in\n    tag_175:\n      mload(0x40)\n      dup1\n      swap2\n      sub\n      swap1\n      log2\n        /* \"contract/tokenvesting.sol\":3560:4543  function setBeneficiaryAddressAndAmount (address _beneficiary, uint256 _amount) public onlyOwner {\r... */\n      pop\n      pop\n      jump\t// out\n        /* \"https://github.com/OpenZeppelin/openzeppelin-contracts/blob/master/contracts/access/Ownable.sol\":1918:2116  function transferOwnership(address newOwner) public virtual onlyOwner {... */\n    tag_73:\n        /* \"https://github.com/OpenZeppelin/openzeppelin-contracts/blob/master/contracts/access/Ownable.sol\":1259:1271  _msgSender() */\n      tag_177\n        /* \"https://github.com/OpenZeppelin/openzeppelin-contracts/blob/master/contracts/access/Ownable.sol\":1259:1269  _msgSender */\n      tag_86\n        /* \"https://github.com/OpenZeppelin/openzeppelin-contracts/blob/master/contracts/access/Ownable.sol\":1259:1271  _msgSender() */\n      jump\t// in\n    tag_177:\n        /* \"https://github.com/OpenZeppelin/openzeppelin-contracts/blob/master/contracts/access/Ownable.sol\":1248:1271  owner() == _msgSender() */\n      0xffffffffffffffffffffffffffffffffffffffff\n      and\n        /* \"https://github.com/OpenZeppelin/openzeppelin-contracts/blob/master/contracts/access/Ownable.sol\":1248:1255  owner() */\n      tag_178\n        /* \"https://github.com/OpenZeppelin/openzeppelin-contracts/blob/master/contracts/access/Ownable.sol\":1248:1253  owner */\n      tag_59\n        /* \"https://github.com/OpenZeppelin/openzeppelin-contracts/blob/master/contracts/access/Ownable.sol\":1248:1255  owner() */\n      jump\t// in\n    tag_178:\n        /* \"https://github.com/OpenZeppelin/openzeppelin-contracts/blob/master/contracts/access/Ownable.sol\":1248:1271  owner() == _msgSender() */\n      0xffffffffffffffffffffffffffffffffffffffff\n      and\n      eq\n        /* \"https://github.com/OpenZeppelin/openzeppelin-contracts/blob/master/contracts/access/Ownable.sol\":1240:1308  require(owner() == _msgSender(), \"Ownable: caller is not the owner\") */\n      tag_179\n      jumpi\n      mload(0x40)\n      0x08c379a000000000000000000000000000000000000000000000000000000000\n      dup2\n      mstore\n      0x04\n      add\n      tag_180\n      swap1\n      tag_121\n      jump\t// in\n    tag_180:\n      mload(0x40)\n      dup1\n      swap2\n      sub\n      swap1\n      revert\n    tag_179:\n        /* \"https://github.com/OpenZeppelin/openzeppelin-contracts/blob/master/contracts/access/Ownable.sol\":2026:2027  0 */\n      0x00\n        /* \"https://github.com/OpenZeppelin/openzeppelin-contracts/blob/master/contracts/access/Ownable.sol\":2006:2028  newOwner != address(0) */\n      0xffffffffffffffffffffffffffffffffffffffff\n      and\n        /* \"https://github.com/OpenZeppelin/openzeppelin-contracts/blob/master/contracts/access/Ownable.sol\":2006:2014  newOwner */\n      dup2\n        /* \"https://github.com/OpenZeppelin/openzeppelin-contracts/blob/master/contracts/access/Ownable.sol\":2006:2028  newOwner != address(0) */\n      0xffffffffffffffffffffffffffffffffffffffff\n      and\n      eq\n      iszero\n        /* \"https://github.com/OpenZeppelin/openzeppelin-contracts/blob/master/contracts/access/Ownable.sol\":1998:2071  require(newOwner != address(0), \"Ownable: new owner is the zero address\") */\n      tag_182\n      jumpi\n      mload(0x40)\n      0x08c379a000000000000000000000000000000000000000000000000000000000\n      dup2\n      mstore\n      0x04\n      add\n      tag_183\n      swap1\n      tag_184\n      jump\t// in\n    tag_183:\n      mload(0x40)\n      dup1\n      swap2\n      sub\n      swap1\n      revert\n    tag_182:\n        /* \"https://github.com/OpenZeppelin/openzeppelin-contracts/blob/master/contracts/access/Ownable.sol\":2081:2109  _transferOwnership(newOwner) */\n      tag_185\n        /* \"https://github.com/OpenZeppelin/openzeppelin-contracts/blob/master/contracts/access/Ownable.sol\":2100:2108  newOwner */\n      dup2\n        /* \"https://github.com/OpenZeppelin/openzeppelin-contracts/blob/master/contracts/access/Ownable.sol\":2081:2099  _transferOwnership */\n      tag_140\n        /* \"https://github.com/OpenZeppelin/openzeppelin-contracts/blob/master/contracts/access/Ownable.sol\":2081:2109  _transferOwnership(newOwner) */\n      jump\t// in\n    tag_185:\n        /* \"https://github.com/OpenZeppelin/openzeppelin-contracts/blob/master/contracts/access/Ownable.sol\":1918:2116  function transferOwnership(address newOwner) public virtual onlyOwner {... */\n      pop\n      jump\t// out\n        /* \"contract/tokenvesting.sol\":2809:3552  function setVestingScheme (uint256 _startTimeUnix, uint256 _durationInDays, uint256 _releaseScheduleInMinutes) public onlyOwner {\r... */\n    tag_77:\n        /* \"https://github.com/OpenZeppelin/openzeppelin-contracts/blob/master/contracts/access/Ownable.sol\":1259:1271  _msgSender() */\n      tag_187\n        /* \"https://github.com/OpenZeppelin/openzeppelin-contracts/blob/master/contracts/access/Ownable.sol\":1259:1269  _msgSender */\n      tag_86\n        /* \"https://github.com/OpenZeppelin/openzeppelin-contracts/blob/master/contracts/access/Ownable.sol\":1259:1271  _msgSender() */\n      jump\t// in\n    tag_187:\n        /* \"https://github.com/OpenZeppelin/openzeppelin-contracts/blob/master/contracts/access/Ownable.sol\":1248:1271  owner() == _msgSender() */\n      0xffffffffffffffffffffffffffffffffffffffff\n      and\n        /* \"https://github.com/OpenZeppelin/openzeppelin-contracts/blob/master/contracts/access/Ownable.sol\":1248:1255  owner() */\n      tag_188\n        /* \"https://github.com/OpenZeppelin/openzeppelin-contracts/blob/master/contracts/access/Ownable.sol\":1248:1253  owner */\n      tag_59\n        /* \"https://github.com/OpenZeppelin/openzeppelin-contracts/blob/master/contracts/access/Ownable.sol\":1248:1255  owner() */\n      jump\t// in\n    tag_188:\n        /* \"https://github.com/OpenZeppelin/openzeppelin-contracts/blob/master/contracts/access/Ownable.sol\":1248:1271  owner() == _msgSender() */\n      0xffffffffffffffffffffffffffffffffffffffff\n      and\n      eq\n        /* \"https://github.com/OpenZeppelin/openzeppelin-contracts/blob/master/contracts/access/Ownable.sol\":1240:1308  require(owner() == _msgSender(), \"Ownable: caller is not the owner\") */\n      tag_189\n      jumpi\n      mload(0x40)\n      0x08c379a000000000000000000000000000000000000000000000000000000000\n      dup2\n      mstore\n      0x04\n      add\n      tag_190\n      swap1\n      tag_121\n      jump\t// in\n    tag_190:\n      mload(0x40)\n      dup1\n      swap2\n      sub\n      swap1\n      revert\n    tag_189:\n        /* \"contract/tokenvesting.sol\":2975:2976  0 */\n      0x00\n        /* \"contract/tokenvesting.sol\":2957:2971  _startTimeUnix */\n      dup4\n        /* \"contract/tokenvesting.sol\":2957:2976  _startTimeUnix != 0 */\n      eq\n      iszero\n        /* \"contract/tokenvesting.sol\":2957:3015  _startTimeUnix != 0 && _startTimeUnix >= _getCurrentTime() */\n      dup1\n      iszero\n      tag_192\n      jumpi\n      pop\n        /* \"contract/tokenvesting.sol\":2998:3015  _getCurrentTime() */\n      tag_193\n        /* \"contract/tokenvesting.sol\":2998:3013  _getCurrentTime */\n      tag_194\n        /* \"contract/tokenvesting.sol\":2998:3015  _getCurrentTime() */\n      jump\t// in\n    tag_193:\n        /* \"contract/tokenvesting.sol\":2980:2994  _startTimeUnix */\n      dup4\n        /* \"contract/tokenvesting.sol\":2980:3015  _startTimeUnix >= _getCurrentTime() */\n      lt\n      iszero\n        /* \"contract/tokenvesting.sol\":2957:3015  _startTimeUnix != 0 && _startTimeUnix >= _getCurrentTime() */\n    tag_192:\n        /* \"contract/tokenvesting.sol\":2948:3094  require (_startTimeUnix != 0 && _startTimeUnix >= _getCurrentTime(), \"TokenVesting: Invalid start time. Start time can't be before current time.\") */\n      tag_195\n      jumpi\n      mload(0x40)\n      0x08c379a000000000000000000000000000000000000000000000000000000000\n      dup2\n      mstore\n      0x04\n      add\n      tag_196\n      swap1\n      tag_197\n      jump\t// in\n    tag_196:\n      mload(0x40)\n      dup1\n      swap2\n      sub\n      swap1\n      revert\n    tag_195:\n        /* \"contract/tokenvesting.sol\":3133:3134  1 */\n      0x01\n        /* \"contract/tokenvesting.sol\":3114:3129  _durationInDays */\n      dup3\n        /* \"contract/tokenvesting.sol\":3114:3134  _durationInDays >= 1 */\n      lt\n      iszero\n        /* \"contract/tokenvesting.sol\":3105:3186  require (_durationInDays >= 1, \"TokenVesting: Minimum vesting duration is 1 day\") */\n      tag_198\n      jumpi\n      mload(0x40)\n      0x08c379a000000000000000000000000000000000000000000000000000000000\n      dup2\n      mstore\n      0x04\n      add\n      tag_199\n      swap1\n      tag_200\n      jump\t// in\n    tag_199:\n      mload(0x40)\n      dup1\n      swap2\n      sub\n      swap1\n      revert\n    tag_198:\n        /* \"contract/tokenvesting.sol\":3235:3236  1 */\n      0x01\n        /* \"contract/tokenvesting.sol\":3206:3231  _releaseScheduleInMinutes */\n      dup2\n        /* \"contract/tokenvesting.sol\":3206:3236  _releaseScheduleInMinutes >= 1 */\n      lt\n      iszero\n        /* \"contract/tokenvesting.sol\":3197:3303  require (_releaseScheduleInMinutes >= 1, \"TokenVesting: Release schedule cannot be lesser than 1 minute.\") */\n      tag_201\n      jumpi\n      mload(0x40)\n      0x08c379a000000000000000000000000000000000000000000000000000000000\n      dup2\n      mstore\n      0x04\n      add\n      tag_202\n      swap1\n      tag_203\n      jump\t// in\n    tag_202:\n      mload(0x40)\n      dup1\n      swap2\n      sub\n      swap1\n      revert\n    tag_201:\n        /* \"contract/tokenvesting.sol\":3332:3346  _startTimeUnix */\n      dup3\n        /* \"contract/tokenvesting.sol\":3316:3329  startTimeUnix */\n      0x02\n        /* \"contract/tokenvesting.sol\":3316:3346  startTimeUnix = _startTimeUnix */\n      dup2\n      swap1\n      sstore\n      pop\n        /* \"contract/tokenvesting.sol\":3374:3389  _durationInDays */\n      dup2\n        /* \"contract/tokenvesting.sol\":3357:3371  durationInDays */\n      0x03\n        /* \"contract/tokenvesting.sol\":3357:3389  durationInDays = _durationInDays */\n      dup2\n      swap1\n      sstore\n      pop\n        /* \"contract/tokenvesting.sol\":3427:3452  _releaseScheduleInMinutes */\n      dup1\n        /* \"contract/tokenvesting.sol\":3400:3424  releaseScheduleInMinutes */\n      0x04\n        /* \"contract/tokenvesting.sol\":3400:3452  releaseScheduleInMinutes = _releaseScheduleInMinutes */\n      dup2\n      swap1\n      sstore\n      pop\n        /* \"contract/tokenvesting.sol\":3470:3544  NewVestingScheme (startTimeUnix, durationInDays, releaseScheduleInMinutes) */\n      0xfd0bfab6cf562d79ade144330370f03c29b18fbe8d9148a6e052246960ece22a\n        /* \"contract/tokenvesting.sol\":3488:3501  startTimeUnix */\n      sload(0x02)\n        /* \"contract/tokenvesting.sol\":3503:3517  durationInDays */\n      sload(0x03)\n        /* \"contract/tokenvesting.sol\":3519:3543  releaseScheduleInMinutes */\n      sload(0x04)\n        /* \"contract/tokenvesting.sol\":3470:3544  NewVestingScheme (startTimeUnix, durationInDays, releaseScheduleInMinutes) */\n      mload(0x40)\n      tag_204\n      swap4\n      swap3\n      swap2\n      swap1\n      tag_52\n      jump\t// in\n    tag_204:\n      mload(0x40)\n      dup1\n      swap2\n      sub\n      swap1\n      log1\n        /* \"contract/tokenvesting.sol\":2809:3552  function setVestingScheme (uint256 _startTimeUnix, uint256 _durationInDays, uint256 _releaseScheduleInMinutes) public onlyOwner {\r... */\n      pop\n      pop\n      pop\n      jump\t// out\n        /* \"https://github.com/OpenZeppelin/openzeppelin-contracts/blob/master/contracts/utils/Context.sol\":640:736  function _msgSender() internal view virtual returns (address) {... */\n    tag_86:\n        /* \"https://github.com/OpenZeppelin/openzeppelin-contracts/blob/master/contracts/utils/Context.sol\":693:700  address */\n      0x00\n        /* \"https://github.com/OpenZeppelin/openzeppelin-contracts/blob/master/contracts/utils/Context.sol\":719:729  msg.sender */\n      caller\n        /* \"https://github.com/OpenZeppelin/openzeppelin-contracts/blob/master/contracts/utils/Context.sol\":712:729  return msg.sender */\n      swap1\n      pop\n        /* \"https://github.com/OpenZeppelin/openzeppelin-contracts/blob/master/contracts/utils/Context.sol\":640:736  function _msgSender() internal view virtual returns (address) {... */\n      swap1\n      jump\t// out\n        /* \"contract/tokenvesting.sol\":5385:6306  function _getReleaseableAmount (address _beneficiary) internal view returns (uint256) {\r... */\n    tag_96:\n        /* \"contract/tokenvesting.sol\":5462:5469  uint256 */\n      0x00\n        /* \"contract/tokenvesting.sol\":5482:5502  uint256 nowInMinutes */\n      dup1\n        /* \"contract/tokenvesting.sol\":5505:5537  _getCurrentTime().div(1 minutes) */\n      tag_207\n        /* \"contract/tokenvesting.sol\":5527:5536  1 minutes */\n      0x3c\n        /* \"contract/tokenvesting.sol\":5505:5522  _getCurrentTime() */\n      tag_208\n        /* \"contract/tokenvesting.sol\":5505:5520  _getCurrentTime */\n      tag_194\n        /* \"contract/tokenvesting.sol\":5505:5522  _getCurrentTime() */\n      jump\t// in\n    tag_208:\n        /* \"contract/tokenvesting.sol\":5505:5526  _getCurrentTime().div */\n      tag_209\n      swap1\n        /* \"contract/tokenvesting.sol\":5505:5537  _getCurrentTime().div(1 minutes) */\n      swap2\n      swap1\n      0xffffffff\n      and\n      jump\t// in\n    tag_207:\n        /* \"contract/tokenvesting.sol\":5482:5537  uint256 nowInMinutes = _getCurrentTime().div(1 minutes) */\n      swap1\n      pop\n        /* \"contract/tokenvesting.sol\":5548:5574  uint256 startTimeInMinutes */\n      0x00\n        /* \"contract/tokenvesting.sol\":5577:5605  startTimeUnix.div(1 minutes) */\n      tag_210\n        /* \"contract/tokenvesting.sol\":5595:5604  1 minutes */\n      0x3c\n        /* \"contract/tokenvesting.sol\":5577:5590  startTimeUnix */\n      sload(0x02)\n        /* \"contract/tokenvesting.sol\":5577:5594  startTimeUnix.div */\n      tag_209\n      swap1\n        /* \"contract/tokenvesting.sol\":5577:5605  startTimeUnix.div(1 minutes) */\n      swap2\n      swap1\n      0xffffffff\n      and\n      jump\t// in\n    tag_210:\n        /* \"contract/tokenvesting.sol\":5548:5605  uint256 startTimeInMinutes = startTimeUnix.div(1 minutes) */\n      swap1\n      pop\n        /* \"contract/tokenvesting.sol\":5616:5641  uint256 durationInMinutes */\n      0x00\n        /* \"contract/tokenvesting.sol\":5644:5687  (durationInDays.mul(1 days)).div(1 minutes) */\n      tag_211\n        /* \"contract/tokenvesting.sol\":5677:5686  1 minutes */\n      0x3c\n        /* \"contract/tokenvesting.sol\":5645:5671  durationInDays.mul(1 days) */\n      tag_212\n        /* \"contract/tokenvesting.sol\":5664:5670  1 days */\n      0x015180\n        /* \"contract/tokenvesting.sol\":5645:5659  durationInDays */\n      sload(0x03)\n        /* \"contract/tokenvesting.sol\":5645:5663  durationInDays.mul */\n      tag_213\n      swap1\n        /* \"contract/tokenvesting.sol\":5645:5671  durationInDays.mul(1 days) */\n      swap2\n      swap1\n      0xffffffff\n      and\n      jump\t// in\n    tag_212:\n        /* \"contract/tokenvesting.sol\":5644:5676  (durationInDays.mul(1 days)).div */\n      tag_209\n      swap1\n        /* \"contract/tokenvesting.sol\":5644:5687  (durationInDays.mul(1 days)).div(1 minutes) */\n      swap2\n      swap1\n      0xffffffff\n      and\n      jump\t// in\n    tag_211:\n        /* \"contract/tokenvesting.sol\":5616:5687  uint256 durationInMinutes = (durationInDays.mul(1 days)).div(1 minutes) */\n      swap1\n      pop\n        /* \"contract/tokenvesting.sol\":5717:5758  startTimeInMinutes.add(durationInMinutes) */\n      tag_214\n        /* \"contract/tokenvesting.sol\":5740:5757  durationInMinutes */\n      dup2\n        /* \"contract/tokenvesting.sol\":5717:5735  startTimeInMinutes */\n      dup4\n        /* \"contract/tokenvesting.sol\":5717:5739  startTimeInMinutes.add */\n      tag_101\n      swap1\n        /* \"contract/tokenvesting.sol\":5717:5758  startTimeInMinutes.add(durationInMinutes) */\n      swap2\n      swap1\n      0xffffffff\n      and\n      jump\t// in\n    tag_214:\n        /* \"contract/tokenvesting.sol\":5702:5714  nowInMinutes */\n      dup4\n        /* \"contract/tokenvesting.sol\":5702:5758  nowInMinutes < startTimeInMinutes.add(durationInMinutes) */\n      lt\n        /* \"contract/tokenvesting.sol\":5698:6299  if (nowInMinutes < startTimeInMinutes.add(durationInMinutes)) {\r... */\n      iszero\n      tag_215\n      jumpi\n        /* \"contract/tokenvesting.sol\":5775:5812  uint256 timeElapsedWrtReleaseSchedule */\n      0x00\n        /* \"contract/tokenvesting.sol\":5815:5883  (nowInMinutes.sub(startTimeInMinutes)).div(releaseScheduleInMinutes) */\n      tag_216\n        /* \"contract/tokenvesting.sol\":5858:5882  releaseScheduleInMinutes */\n      sload(0x04)\n        /* \"contract/tokenvesting.sol\":5816:5852  nowInMinutes.sub(startTimeInMinutes) */\n      tag_217\n        /* \"contract/tokenvesting.sol\":5833:5851  startTimeInMinutes */\n      dup6\n        /* \"contract/tokenvesting.sol\":5816:5828  nowInMinutes */\n      dup8\n        /* \"contract/tokenvesting.sol\":5816:5832  nowInMinutes.sub */\n      tag_218\n      swap1\n        /* \"contract/tokenvesting.sol\":5816:5852  nowInMinutes.sub(startTimeInMinutes) */\n      swap2\n      swap1\n      0xffffffff\n      and\n      jump\t// in\n    tag_217:\n        /* \"contract/tokenvesting.sol\":5815:5857  (nowInMinutes.sub(startTimeInMinutes)).div */\n      tag_209\n      swap1\n        /* \"contract/tokenvesting.sol\":5815:5883  (nowInMinutes.sub(startTimeInMinutes)).div(releaseScheduleInMinutes) */\n      swap2\n      swap1\n      0xffffffff\n      and\n      jump\t// in\n    tag_216:\n        /* \"contract/tokenvesting.sol\":5775:5883  uint256 timeElapsedWrtReleaseSchedule = (nowInMinutes.sub(startTimeInMinutes)).div(releaseScheduleInMinutes) */\n      swap1\n      pop\n        /* \"contract/tokenvesting.sol\":5898:5932  uint256 durationWrtReleaseSchedule */\n      0x00\n        /* \"contract/tokenvesting.sol\":5935:5982  durationInMinutes.div(releaseScheduleInMinutes) */\n      tag_219\n        /* \"contract/tokenvesting.sol\":5957:5981  releaseScheduleInMinutes */\n      sload(0x04)\n        /* \"contract/tokenvesting.sol\":5935:5952  durationInMinutes */\n      dup5\n        /* \"contract/tokenvesting.sol\":5935:5956  durationInMinutes.div */\n      tag_209\n      swap1\n        /* \"contract/tokenvesting.sol\":5935:5982  durationInMinutes.div(releaseScheduleInMinutes) */\n      swap2\n      swap1\n      0xffffffff\n      and\n      jump\t// in\n    tag_219:\n        /* \"contract/tokenvesting.sol\":5898:5982  uint256 durationWrtReleaseSchedule = durationInMinutes.div(releaseScheduleInMinutes) */\n      swap1\n      pop\n        /* \"contract/tokenvesting.sol\":5997:6021  uint256 releasableAmount */\n      0x00\n        /* \"contract/tokenvesting.sol\":6024:6147  (amount[_beneficiary].mul(timeElapsedWrtReleaseSchedule).div(durationWrtReleaseSchedule)).sub(amountReleased[_beneficiary]) */\n      tag_220\n        /* \"contract/tokenvesting.sol\":6118:6132  amountReleased */\n      0x09\n        /* \"contract/tokenvesting.sol\":6118:6146  amountReleased[_beneficiary] */\n      0x00\n        /* \"contract/tokenvesting.sol\":6133:6145  _beneficiary */\n      dup11\n        /* \"contract/tokenvesting.sol\":6118:6146  amountReleased[_beneficiary] */\n      0xffffffffffffffffffffffffffffffffffffffff\n      and\n      0xffffffffffffffffffffffffffffffffffffffff\n      and\n      dup2\n      mstore\n      0x20\n      add\n      swap1\n      dup2\n      mstore\n      0x20\n      add\n      0x00\n      keccak256\n      sload\n        /* \"contract/tokenvesting.sol\":6025:6112  amount[_beneficiary].mul(timeElapsedWrtReleaseSchedule).div(durationWrtReleaseSchedule) */\n      tag_221\n        /* \"contract/tokenvesting.sol\":6085:6111  durationWrtReleaseSchedule */\n      dup5\n        /* \"contract/tokenvesting.sol\":6025:6080  amount[_beneficiary].mul(timeElapsedWrtReleaseSchedule) */\n      tag_222\n        /* \"contract/tokenvesting.sol\":6050:6079  timeElapsedWrtReleaseSchedule */\n      dup8\n        /* \"contract/tokenvesting.sol\":6025:6031  amount */\n      0x08\n        /* \"contract/tokenvesting.sol\":6025:6045  amount[_beneficiary] */\n      0x00\n        /* \"contract/tokenvesting.sol\":6032:6044  _beneficiary */\n      dup16\n        /* \"contract/tokenvesting.sol\":6025:6045  amount[_beneficiary] */\n      0xffffffffffffffffffffffffffffffffffffffff\n      and\n      0xffffffffffffffffffffffffffffffffffffffff\n      and\n      dup2\n      mstore\n      0x20\n      add\n      swap1\n      dup2\n      mstore\n      0x20\n      add\n      0x00\n      keccak256\n      sload\n        /* \"contract/tokenvesting.sol\":6025:6049  amount[_beneficiary].mul */\n      tag_213\n      swap1\n        /* \"contract/tokenvesting.sol\":6025:6080  amount[_beneficiary].mul(timeElapsedWrtReleaseSchedule) */\n      swap2\n      swap1\n      0xffffffff\n      and\n      jump\t// in\n    tag_222:\n        /* \"contract/tokenvesting.sol\":6025:6084  amount[_beneficiary].mul(timeElapsedWrtReleaseSchedule).div */\n      tag_209\n      swap1\n        /* \"contract/tokenvesting.sol\":6025:6112  amount[_beneficiary].mul(timeElapsedWrtReleaseSchedule).div(durationWrtReleaseSchedule) */\n      swap2\n      swap1\n      0xffffffff\n      and\n      jump\t// in\n    tag_221:\n        /* \"contract/tokenvesting.sol\":6024:6117  (amount[_beneficiary].mul(timeElapsedWrtReleaseSchedule).div(durationWrtReleaseSchedule)).sub */\n      tag_218\n      swap1\n        /* \"contract/tokenvesting.sol\":6024:6147  (amount[_beneficiary].mul(timeElapsedWrtReleaseSchedule).div(durationWrtReleaseSchedule)).sub(amountReleased[_beneficiary]) */\n      swap2\n      swap1\n      0xffffffff\n      and\n      jump\t// in\n    tag_220:\n        /* \"contract/tokenvesting.sol\":5997:6147  uint256 releasableAmount = (amount[_beneficiary].mul(timeElapsedWrtReleaseSchedule).div(durationWrtReleaseSchedule)).sub(amountReleased[_beneficiary]) */\n      swap1\n      pop\n        /* \"contract/tokenvesting.sol\":6169:6185  releasableAmount */\n      dup1\n        /* \"contract/tokenvesting.sol\":6162:6185  return releasableAmount */\n      swap7\n      pop\n      pop\n      pop\n      pop\n      pop\n      pop\n      pop\n      jump(tag_206)\n        /* \"contract/tokenvesting.sol\":5698:6299  if (nowInMinutes < startTimeInMinutes.add(durationInMinutes)) {\r... */\n    tag_215:\n        /* \"contract/tokenvesting.sol\":6233:6287  amount[_beneficiary].sub(amountReleased[_beneficiary]) */\n      tag_224\n        /* \"contract/tokenvesting.sol\":6258:6272  amountReleased */\n      0x09\n        /* \"contract/tokenvesting.sol\":6258:6286  amountReleased[_beneficiary] */\n      0x00\n        /* \"contract/tokenvesting.sol\":6273:6285  _beneficiary */\n      dup8\n        /* \"contract/tokenvesting.sol\":6258:6286  amountReleased[_beneficiary] */\n      0xffffffffffffffffffffffffffffffffffffffff\n      and\n      0xffffffffffffffffffffffffffffffffffffffff\n      and\n      dup2\n      mstore\n      0x20\n      add\n      swap1\n      dup2\n      mstore\n      0x20\n      add\n      0x00\n      keccak256\n      sload\n        /* \"contract/tokenvesting.sol\":6233:6239  amount */\n      0x08\n        /* \"contract/tokenvesting.sol\":6233:6253  amount[_beneficiary] */\n      0x00\n        /* \"contract/tokenvesting.sol\":6240:6252  _beneficiary */\n      dup9\n        /* \"contract/tokenvesting.sol\":6233:6253  amount[_beneficiary] */\n      0xffffffffffffffffffffffffffffffffffffffff\n      and\n      0xffffffffffffffffffffffffffffffffffffffff\n      and\n      dup2\n      mstore\n      0x20\n      add\n      swap1\n      dup2\n      mstore\n      0x20\n      add\n      0x00\n      keccak256\n      sload\n        /* \"contract/tokenvesting.sol\":6233:6257  amount[_beneficiary].sub */\n      tag_218\n      swap1\n        /* \"contract/tokenvesting.sol\":6233:6287  amount[_beneficiary].sub(amountReleased[_beneficiary]) */\n      swap2\n      swap1\n      0xffffffff\n      and\n      jump\t// in\n    tag_224:\n        /* \"contract/tokenvesting.sol\":6226:6287  return amount[_beneficiary].sub(amountReleased[_beneficiary]) */\n      swap4\n      pop\n      pop\n      pop\n      pop\n        /* \"contract/tokenvesting.sol\":5385:6306  function _getReleaseableAmount (address _beneficiary) internal view returns (uint256) {\r... */\n    tag_206:\n      swap2\n      swap1\n      pop\n      jump\t// out\n        /* \"https://github.com/OpenZeppelin/openzeppelin-contracts/blob/master/contracts/utils/math/SafeMath.sol\":2755:2851  function add(uint256 a, uint256 b) internal pure returns (uint256) {... */\n    tag_101:\n        /* \"https://github.com/OpenZeppelin/openzeppelin-contracts/blob/master/contracts/utils/math/SafeMath.sol\":2813:2820  uint256 */\n      0x00\n        /* \"https://github.com/OpenZeppelin/openzeppelin-contracts/blob/master/contracts/utils/math/SafeMath.sol\":2843:2844  b */\n      dup2\n        /* \"https://github.com/OpenZeppelin/openzeppelin-contracts/blob/master/contracts/utils/math/SafeMath.sol\":2839:2840  a */\n      dup4\n        /* \"https://github.com/OpenZeppelin/openzeppelin-contracts/blob/master/contracts/utils/math/SafeMath.sol\":2839:2844  a + b */\n      tag_226\n      swap2\n      swap1\n      tag_227\n      jump\t// in\n    tag_226:\n        /* \"https://github.com/OpenZeppelin/openzeppelin-contracts/blob/master/contracts/utils/math/SafeMath.sol\":2832:2844  return a + b */\n      swap1\n      pop\n        /* \"https://github.com/OpenZeppelin/openzeppelin-contracts/blob/master/contracts/utils/math/SafeMath.sol\":2755:2851  function add(uint256 a, uint256 b) internal pure returns (uint256) {... */\n      swap3\n      swap2\n      pop\n      pop\n      jump\t// out\n        /* \"https://github.com/OpenZeppelin/openzeppelin-contracts/blob/master/contracts/access/Ownable.sol\":2270:2457  function _transferOwnership(address newOwner) internal virtual {... */\n    tag_140:\n        /* \"https://github.com/OpenZeppelin/openzeppelin-contracts/blob/master/contracts/access/Ownable.sol\":2343:2359  address oldOwner */\n      0x00\n        /* \"https://github.com/OpenZeppelin/openzeppelin-contracts/blob/master/contracts/access/Ownable.sol\":2362:2368  _owner */\n      dup1\n      0x00\n      swap1\n      sload\n      swap1\n      0x0100\n      exp\n      swap1\n      div\n      0xffffffffffffffffffffffffffffffffffffffff\n      and\n        /* \"https://github.com/OpenZeppelin/openzeppelin-contracts/blob/master/contracts/access/Ownable.sol\":2343:2368  address oldOwner = _owner */\n      swap1\n      pop\n        /* \"https://github.com/OpenZeppelin/openzeppelin-contracts/blob/master/contracts/access/Ownable.sol\":2387:2395  newOwner */\n      dup2\n        /* \"https://github.com/OpenZeppelin/openzeppelin-contracts/blob/master/contracts/access/Ownable.sol\":2378:2384  _owner */\n      0x00\n      dup1\n        /* \"https://github.com/OpenZeppelin/openzeppelin-contracts/blob/master/contracts/access/Ownable.sol\":2378:2395  _owner = newOwner */\n      0x0100\n      exp\n      dup2\n      sload\n      dup2\n      0xffffffffffffffffffffffffffffffffffffffff\n      mul\n      not\n      and\n      swap1\n      dup4\n      0xffffffffffffffffffffffffffffffffffffffff\n      and\n      mul\n      or\n      swap1\n      sstore\n      pop\n        /* \"https://github.com/OpenZeppelin/openzeppelin-contracts/blob/master/contracts/access/Ownable.sol\":2441:2449  newOwner */\n      dup2\n        /* \"https://github.com/OpenZeppelin/openzeppelin-contracts/blob/master/contracts/access/Ownable.sol\":2410:2450  OwnershipTransferred(oldOwner, newOwner) */\n      0xffffffffffffffffffffffffffffffffffffffff\n      and\n        /* \"https://github.com/OpenZeppelin/openzeppelin-contracts/blob/master/contracts/access/Ownable.sol\":2431:2439  oldOwner */\n      dup2\n        /* \"https://github.com/OpenZeppelin/openzeppelin-contracts/blob/master/contracts/access/Ownable.sol\":2410:2450  OwnershipTransferred(oldOwner, newOwner) */\n      0xffffffffffffffffffffffffffffffffffffffff\n      and\n      0x8be0079c531659141344cd1fd0a4f28419497f9722a3daafe3b4186f6b6457e0\n      mload(0x40)\n      mload(0x40)\n      dup1\n      swap2\n      sub\n      swap1\n      log3\n        /* \"https://github.com/OpenZeppelin/openzeppelin-contracts/blob/master/contracts/access/Ownable.sol\":2270:2457  function _transferOwnership(address newOwner) internal virtual {... */\n      pop\n      pop\n      jump\t// out\n        /* \"contract/tokenvesting.sol\":6314:6415  function _getCurrentTime () internal view returns (uint256) {\r... */\n    tag_194:\n        /* \"contract/tokenvesting.sol\":6365:6372  uint256 */\n      0x00\n        /* \"contract/tokenvesting.sol\":6392:6407  block.timestamp */\n      timestamp\n        /* \"contract/tokenvesting.sol\":6385:6407  return block.timestamp */\n      swap1\n      pop\n        /* \"contract/tokenvesting.sol\":6314:6415  function _getCurrentTime () internal view returns (uint256) {\r... */\n      swap1\n      jump\t// out\n        /* \"https://github.com/OpenZeppelin/openzeppelin-contracts/blob/master/contracts/utils/math/SafeMath.sol\":3850:3946  function div(uint256 a, uint256 b) internal pure returns (uint256) {... */\n    tag_209:\n        /* \"https://github.com/OpenZeppelin/openzeppelin-contracts/blob/master/contracts/utils/math/SafeMath.sol\":3908:3915  uint256 */\n      0x00\n        /* \"https://github.com/OpenZeppelin/openzeppelin-contracts/blob/master/contracts/utils/math/SafeMath.sol\":3938:3939  b */\n      dup2\n        /* \"https://github.com/OpenZeppelin/openzeppelin-contracts/blob/master/contracts/utils/math/SafeMath.sol\":3934:3935  a */\n      dup4\n        /* \"https://github.com/OpenZeppelin/openzeppelin-contracts/blob/master/contracts/utils/math/SafeMath.sol\":3934:3939  a / b */\n      tag_231\n      swap2\n      swap1\n      tag_232\n      jump\t// in\n    tag_231:\n        /* \"https://github.com/OpenZeppelin/openzeppelin-contracts/blob/master/contracts/utils/math/SafeMath.sol\":3927:3939  return a / b */\n      swap1\n      pop\n        /* \"https://github.com/OpenZeppelin/openzeppelin-contracts/blob/master/contracts/utils/math/SafeMath.sol\":3850:3946  function div(uint256 a, uint256 b) internal pure returns (uint256) {... */\n      swap3\n      swap2\n      pop\n      pop\n      jump\t// out\n        /* \"https://github.com/OpenZeppelin/openzeppelin-contracts/blob/master/contracts/utils/math/SafeMath.sol\":3465:3561  function mul(uint256 a, uint256 b) internal pure returns (uint256) {... */\n    tag_213:\n        /* \"https://github.com/OpenZeppelin/openzeppelin-contracts/blob/master/contracts/utils/math/SafeMath.sol\":3523:3530  uint256 */\n      0x00\n        /* \"https://github.com/OpenZeppelin/openzeppelin-contracts/blob/master/contracts/utils/math/SafeMath.sol\":3553:3554  b */\n      dup2\n        /* \"https://github.com/OpenZeppelin/openzeppelin-contracts/blob/master/contracts/utils/math/SafeMath.sol\":3549:3550  a */\n      dup4\n        /* \"https://github.com/OpenZeppelin/openzeppelin-contracts/blob/master/contracts/utils/math/SafeMath.sol\":3549:3554  a * b */\n      tag_234\n      swap2\n      swap1\n      tag_235\n      jump\t// in\n    tag_234:\n        /* \"https://github.com/OpenZeppelin/openzeppelin-contracts/blob/master/contracts/utils/math/SafeMath.sol\":3542:3554  return a * b */\n      swap1\n      pop\n        /* \"https://github.com/OpenZeppelin/openzeppelin-contracts/blob/master/contracts/utils/math/SafeMath.sol\":3465:3561  function mul(uint256 a, uint256 b) internal pure returns (uint256) {... */\n      swap3\n      swap2\n      pop\n      pop\n      jump\t// out\n        /* \"https://github.com/OpenZeppelin/openzeppelin-contracts/blob/master/contracts/utils/math/SafeMath.sol\":3122:3218  function sub(uint256 a, uint256 b) internal pure returns (uint256) {... */\n    tag_218:\n        /* \"https://github.com/OpenZeppelin/openzeppelin-contracts/blob/master/contracts/utils/math/SafeMath.sol\":3180:3187  uint256 */\n      0x00\n        /* \"https://github.com/OpenZeppelin/openzeppelin-contracts/blob/master/contracts/utils/math/SafeMath.sol\":3210:3211  b */\n      dup2\n        /* \"https://github.com/OpenZeppelin/openzeppelin-contracts/blob/master/contracts/utils/math/SafeMath.sol\":3206:3207  a */\n      dup4\n        /* \"https://github.com/OpenZeppelin/openzeppelin-contracts/blob/master/contracts/utils/math/SafeMath.sol\":3206:3211  a - b */\n      tag_237\n      swap2\n      swap1\n      tag_238\n      jump\t// in\n    tag_237:\n        /* \"https://github.com/OpenZeppelin/openzeppelin-contracts/blob/master/contracts/utils/math/SafeMath.sol\":3199:3211  return a - b */\n      swap1\n      pop\n        /* \"https://github.com/OpenZeppelin/openzeppelin-contracts/blob/master/contracts/utils/math/SafeMath.sol\":3122:3218  function sub(uint256 a, uint256 b) internal pure returns (uint256) {... */\n      swap3\n      swap2\n      pop\n      pop\n      jump\t// out\n        /* \"#utility.yul\":7:146   */\n    tag_240:\n      0x00\n        /* \"#utility.yul\":91:97   */\n      dup2\n        /* \"#utility.yul\":78:98   */\n      calldataload\n        /* \"#utility.yul\":69:98   */\n      swap1\n      pop\n        /* \"#utility.yul\":107:140   */\n      tag_242\n        /* \"#utility.yul\":134:139   */\n      dup2\n        /* \"#utility.yul\":107:140   */\n      tag_243\n      jump\t// in\n    tag_242:\n        /* \"#utility.yul\":59:146   */\n      swap3\n      swap2\n      pop\n      pop\n      jump\t// out\n        /* \"#utility.yul\":152:289   */\n    tag_244:\n      0x00\n        /* \"#utility.yul\":237:243   */\n      dup2\n        /* \"#utility.yul\":231:244   */\n      mload\n        /* \"#utility.yul\":222:244   */\n      swap1\n      pop\n        /* \"#utility.yul\":253:283   */\n      tag_246\n        /* \"#utility.yul\":277:282   */\n      dup2\n        /* \"#utility.yul\":253:283   */\n      tag_247\n      jump\t// in\n    tag_246:\n        /* \"#utility.yul\":212:289   */\n      swap3\n      swap2\n      pop\n      pop\n      jump\t// out\n        /* \"#utility.yul\":295:434   */\n    tag_248:\n      0x00\n        /* \"#utility.yul\":379:385   */\n      dup2\n        /* \"#utility.yul\":366:386   */\n      calldataload\n        /* \"#utility.yul\":357:386   */\n      swap1\n      pop\n        /* \"#utility.yul\":395:428   */\n      tag_250\n        /* \"#utility.yul\":422:427   */\n      dup2\n        /* \"#utility.yul\":395:428   */\n      tag_251\n      jump\t// in\n    tag_250:\n        /* \"#utility.yul\":347:434   */\n      swap3\n      swap2\n      pop\n      pop\n      jump\t// out\n        /* \"#utility.yul\":440:702   */\n    tag_28:\n      0x00\n        /* \"#utility.yul\":548:550   */\n      0x20\n        /* \"#utility.yul\":536:545   */\n      dup3\n        /* \"#utility.yul\":527:534   */\n      dup5\n        /* \"#utility.yul\":523:546   */\n      sub\n        /* \"#utility.yul\":519:551   */\n      slt\n        /* \"#utility.yul\":516:518   */\n      iszero\n      tag_253\n      jumpi\n        /* \"#utility.yul\":564:565   */\n      0x00\n        /* \"#utility.yul\":561:562   */\n      dup1\n        /* \"#utility.yul\":554:566   */\n      revert\n        /* \"#utility.yul\":516:518   */\n    tag_253:\n        /* \"#utility.yul\":607:608   */\n      0x00\n        /* \"#utility.yul\":632:685   */\n      tag_254\n        /* \"#utility.yul\":677:684   */\n      dup5\n        /* \"#utility.yul\":668:674   */\n      dup3\n        /* \"#utility.yul\":657:666   */\n      dup6\n        /* \"#utility.yul\":653:675   */\n      add\n        /* \"#utility.yul\":632:685   */\n      tag_240\n      jump\t// in\n    tag_254:\n        /* \"#utility.yul\":622:685   */\n      swap2\n      pop\n        /* \"#utility.yul\":578:695   */\n      pop\n        /* \"#utility.yul\":506:702   */\n      swap3\n      swap2\n      pop\n      pop\n      jump\t// out\n        /* \"#utility.yul\":708:1115   */\n    tag_24:\n      0x00\n      dup1\n        /* \"#utility.yul\":833:835   */\n      0x40\n        /* \"#utility.yul\":821:830   */\n      dup4\n        /* \"#utility.yul\":812:819   */\n      dup6\n        /* \"#utility.yul\":808:831   */\n      sub\n        /* \"#utility.yul\":804:836   */\n      slt\n        /* \"#utility.yul\":801:803   */\n      iszero\n      tag_256\n      jumpi\n        /* \"#utility.yul\":849:850   */\n      0x00\n        /* \"#utility.yul\":846:847   */\n      dup1\n        /* \"#utility.yul\":839:851   */\n      revert\n        /* \"#utility.yul\":801:803   */\n    tag_256:\n        /* \"#utility.yul\":892:893   */\n      0x00\n        /* \"#utility.yul\":917:970   */\n      tag_257\n        /* \"#utility.yul\":962:969   */\n      dup6\n        /* \"#utility.yul\":953:959   */\n      dup3\n        /* \"#utility.yul\":942:951   */\n      dup7\n        /* \"#utility.yul\":938:960   */\n      add\n        /* \"#utility.yul\":917:970   */\n      tag_240\n      jump\t// in\n    tag_257:\n        /* \"#utility.yul\":907:970   */\n      swap3\n      pop\n        /* \"#utility.yul\":863:980   */\n      pop\n        /* \"#utility.yul\":1019:1021   */\n      0x20\n        /* \"#utility.yul\":1045:1098   */\n      tag_258\n        /* \"#utility.yul\":1090:1097   */\n      dup6\n        /* \"#utility.yul\":1081:1087   */\n      dup3\n        /* \"#utility.yul\":1070:1079   */\n      dup7\n        /* \"#utility.yul\":1066:1088   */\n      add\n        /* \"#utility.yul\":1045:1098   */\n      tag_248\n      jump\t// in\n    tag_258:\n        /* \"#utility.yul\":1035:1098   */\n      swap2\n      pop\n        /* \"#utility.yul\":990:1108   */\n      pop\n        /* \"#utility.yul\":791:1115   */\n      swap3\n      pop\n      swap3\n      swap1\n      pop\n      jump\t// out\n        /* \"#utility.yul\":1121:1399   */\n    tag_109:\n      0x00\n        /* \"#utility.yul\":1237:1239   */\n      0x20\n        /* \"#utility.yul\":1225:1234   */\n      dup3\n        /* \"#utility.yul\":1216:1223   */\n      dup5\n        /* \"#utility.yul\":1212:1235   */\n      sub\n        /* \"#utility.yul\":1208:1240   */\n      slt\n        /* \"#utility.yul\":1205:1207   */\n      iszero\n      tag_260\n      jumpi\n        /* \"#utility.yul\":1253:1254   */\n      0x00\n        /* \"#utility.yul\":1250:1251   */\n      dup1\n        /* \"#utility.yul\":1243:1255   */\n      revert\n        /* \"#utility.yul\":1205:1207   */\n    tag_260:\n        /* \"#utility.yul\":1296:1297   */\n      0x00\n        /* \"#utility.yul\":1321:1382   */\n      tag_261\n        /* \"#utility.yul\":1374:1381   */\n      dup5\n        /* \"#utility.yul\":1365:1371   */\n      dup3\n        /* \"#utility.yul\":1354:1363   */\n      dup6\n        /* \"#utility.yul\":1350:1372   */\n      add\n        /* \"#utility.yul\":1321:1382   */\n      tag_244\n      jump\t// in\n    tag_261:\n        /* \"#utility.yul\":1311:1382   */\n      swap2\n      pop\n        /* \"#utility.yul\":1267:1392   */\n      pop\n        /* \"#utility.yul\":1195:1399   */\n      swap3\n      swap2\n      pop\n      pop\n      jump\t// out\n        /* \"#utility.yul\":1405:1667   */\n    tag_40:\n      0x00\n        /* \"#utility.yul\":1513:1515   */\n      0x20\n        /* \"#utility.yul\":1501:1510   */\n      dup3\n        /* \"#utility.yul\":1492:1499   */\n      dup5\n        /* \"#utility.yul\":1488:1511   */\n      sub\n        /* \"#utility.yul\":1484:1516   */\n      slt\n        /* \"#utility.yul\":1481:1483   */\n      iszero\n      tag_263\n      jumpi\n        /* \"#utility.yul\":1529:1530   */\n      0x00\n        /* \"#utility.yul\":1526:1527   */\n      dup1\n        /* \"#utility.yul\":1519:1531   */\n      revert\n        /* \"#utility.yul\":1481:1483   */\n    tag_263:\n        /* \"#utility.yul\":1572:1573   */\n      0x00\n        /* \"#utility.yul\":1597:1650   */\n      tag_264\n        /* \"#utility.yul\":1642:1649   */\n      dup5\n        /* \"#utility.yul\":1633:1639   */\n      dup3\n        /* \"#utility.yul\":1622:1631   */\n      dup6\n        /* \"#utility.yul\":1618:1640   */\n      add\n        /* \"#utility.yul\":1597:1650   */\n      tag_248\n      jump\t// in\n    tag_264:\n        /* \"#utility.yul\":1587:1650   */\n      swap2\n      pop\n        /* \"#utility.yul\":1543:1660   */\n      pop\n        /* \"#utility.yul\":1471:1667   */\n      swap3\n      swap2\n      pop\n      pop\n      jump\t// out\n        /* \"#utility.yul\":1673:2225   */\n    tag_76:\n      0x00\n      dup1\n      0x00\n        /* \"#utility.yul\":1815:1817   */\n      0x60\n        /* \"#utility.yul\":1803:1812   */\n      dup5\n        /* \"#utility.yul\":1794:1801   */\n      dup7\n        /* \"#utility.yul\":1790:1813   */\n      sub\n        /* \"#utility.yul\":1786:1818   */\n      slt\n        /* \"#utility.yul\":1783:1785   */\n      iszero\n      tag_266\n      jumpi\n        /* \"#utility.yul\":1831:1832   */\n      0x00\n        /* \"#utility.yul\":1828:1829   */\n      dup1\n        /* \"#utility.yul\":1821:1833   */\n      revert\n        /* \"#utility.yul\":1783:1785   */\n    tag_266:\n        /* \"#utility.yul\":1874:1875   */\n      0x00\n        /* \"#utility.yul\":1899:1952   */\n      tag_267\n        /* \"#utility.yul\":1944:1951   */\n      dup7\n        /* \"#utility.yul\":1935:1941   */\n      dup3\n        /* \"#utility.yul\":1924:1933   */\n      dup8\n        /* \"#utility.yul\":1920:1942   */\n      add\n        /* \"#utility.yul\":1899:1952   */\n      tag_248\n      jump\t// in\n    tag_267:\n        /* \"#utility.yul\":1889:1952   */\n      swap4\n      pop\n        /* \"#utility.yul\":1845:1962   */\n      pop\n        /* \"#utility.yul\":2001:2003   */\n      0x20\n        /* \"#utility.yul\":2027:2080   */\n      tag_268\n        /* \"#utility.yul\":2072:2079   */\n      dup7\n        /* \"#utility.yul\":2063:2069   */\n      dup3\n        /* \"#utility.yul\":2052:2061   */\n      dup8\n        /* \"#utility.yul\":2048:2070   */\n      add\n        /* \"#utility.yul\":2027:2080   */\n      tag_248\n      jump\t// in\n    tag_268:\n        /* \"#utility.yul\":2017:2080   */\n      swap3\n      pop\n        /* \"#utility.yul\":1972:2090   */\n      pop\n        /* \"#utility.yul\":2129:2131   */\n      0x40\n        /* \"#utility.yul\":2155:2208   */\n      tag_269\n        /* \"#utility.yul\":2200:2207   */\n      dup7\n        /* \"#utility.yul\":2191:2197   */\n      dup3\n        /* \"#utility.yul\":2180:2189   */\n      dup8\n        /* \"#utility.yul\":2176:2198   */\n      add\n        /* \"#utility.yul\":2155:2208   */\n      tag_248\n      jump\t// in\n    tag_269:\n        /* \"#utility.yul\":2145:2208   */\n      swap2\n      pop\n        /* \"#utility.yul\":2100:2218   */\n      pop\n        /* \"#utility.yul\":1773:2225   */\n      swap3\n      pop\n      swap3\n      pop\n      swap3\n      jump\t// out\n        /* \"#utility.yul\":2231:2349   */\n    tag_270:\n        /* \"#utility.yul\":2318:2342   */\n      tag_272\n        /* \"#utility.yul\":2336:2341   */\n      dup2\n        /* \"#utility.yul\":2318:2342   */\n      tag_273\n      jump\t// in\n    tag_272:\n        /* \"#utility.yul\":2313:2316   */\n      dup3\n        /* \"#utility.yul\":2306:2343   */\n      mstore\n        /* \"#utility.yul\":2296:2349   */\n      pop\n      pop\n      jump\t// out\n        /* \"#utility.yul\":2355:2795   */\n    tag_274:\n      0x00\n        /* \"#utility.yul\":2518:2585   */\n      tag_276\n        /* \"#utility.yul\":2582:2584   */\n      0x4a\n        /* \"#utility.yul\":2577:2580   */\n      dup4\n        /* \"#utility.yul\":2518:2585   */\n      tag_277\n      jump\t// in\n    tag_276:\n        /* \"#utility.yul\":2511:2585   */\n      swap2\n      pop\n        /* \"#utility.yul\":2615:2649   */\n      0x546f6b656e56657374696e673a20496e76616c69642073746172742074696d65\n        /* \"#utility.yul\":2611:2612   */\n      0x00\n        /* \"#utility.yul\":2606:2609   */\n      dup4\n        /* \"#utility.yul\":2602:2613   */\n      add\n        /* \"#utility.yul\":2595:2650   */\n      mstore\n        /* \"#utility.yul\":2681:2715   */\n      0x2e2053746172742074696d652063616e2774206265206265666f726520637572\n        /* \"#utility.yul\":2676:2678   */\n      0x20\n        /* \"#utility.yul\":2671:2674   */\n      dup4\n        /* \"#utility.yul\":2667:2679   */\n      add\n        /* \"#utility.yul\":2660:2716   */\n      mstore\n        /* \"#utility.yul\":2747:2759   */\n      0x72656e742074696d652e00000000000000000000000000000000000000000000\n        /* \"#utility.yul\":2742:2744   */\n      0x40\n        /* \"#utility.yul\":2737:2740   */\n      dup4\n        /* \"#utility.yul\":2733:2745   */\n      add\n        /* \"#utility.yul\":2726:2760   */\n      mstore\n        /* \"#utility.yul\":2786:2788   */\n      0x60\n        /* \"#utility.yul\":2781:2784   */\n      dup3\n        /* \"#utility.yul\":2777:2789   */\n      add\n        /* \"#utility.yul\":2770:2789   */\n      swap1\n      pop\n        /* \"#utility.yul\":2501:2795   */\n      swap2\n      swap1\n      pop\n      jump\t// out\n        /* \"#utility.yul\":2801:3195   */\n    tag_278:\n      0x00\n        /* \"#utility.yul\":2964:3031   */\n      tag_280\n        /* \"#utility.yul\":3028:3030   */\n      0x3e\n        /* \"#utility.yul\":3023:3026   */\n      dup4\n        /* \"#utility.yul\":2964:3031   */\n      tag_277\n      jump\t// in\n    tag_280:\n        /* \"#utility.yul\":2957:3031   */\n      swap2\n      pop\n        /* \"#utility.yul\":3061:3095   */\n      0x546f6b656e56657374696e673a204f6e6c79206f776e6572206f722061207661\n        /* \"#utility.yul\":3057:3058   */\n      0x00\n        /* \"#utility.yul\":3052:3055   */\n      dup4\n        /* \"#utility.yul\":3048:3059   */\n      add\n        /* \"#utility.yul\":3041:3096   */\n      mstore\n        /* \"#utility.yul\":3127:3159   */\n      0x6c69642062656e65666963696172792063616e2062652063616c6c65722e0000\n        /* \"#utility.yul\":3122:3124   */\n      0x20\n        /* \"#utility.yul\":3117:3120   */\n      dup4\n        /* \"#utility.yul\":3113:3125   */\n      add\n        /* \"#utility.yul\":3106:3160   */\n      mstore\n        /* \"#utility.yul\":3186:3188   */\n      0x40\n        /* \"#utility.yul\":3181:3184   */\n      dup3\n        /* \"#utility.yul\":3177:3189   */\n      add\n        /* \"#utility.yul\":3170:3189   */\n      swap1\n      pop\n        /* \"#utility.yul\":2947:3195   */\n      swap2\n      swap1\n      pop\n      jump\t// out\n        /* \"#utility.yul\":3201:3571   */\n    tag_281:\n      0x00\n        /* \"#utility.yul\":3364:3431   */\n      tag_283\n        /* \"#utility.yul\":3428:3430   */\n      0x26\n        /* \"#utility.yul\":3423:3426   */\n      dup4\n        /* \"#utility.yul\":3364:3431   */\n      tag_277\n      jump\t// in\n    tag_283:\n        /* \"#utility.yul\":3357:3431   */\n      swap2\n      pop\n        /* \"#utility.yul\":3461:3495   */\n      0x4f776e61626c653a206e6577206f776e657220697320746865207a65726f2061\n        /* \"#utility.yul\":3457:3458   */\n      0x00\n        /* \"#utility.yul\":3452:3455   */\n      dup4\n        /* \"#utility.yul\":3448:3459   */\n      add\n        /* \"#utility.yul\":3441:3496   */\n      mstore\n        /* \"#utility.yul\":3527:3535   */\n      0x6464726573730000000000000000000000000000000000000000000000000000\n        /* \"#utility.yul\":3522:3524   */\n      0x20\n        /* \"#utility.yul\":3517:3520   */\n      dup4\n        /* \"#utility.yul\":3513:3525   */\n      add\n        /* \"#utility.yul\":3506:3536   */\n      mstore\n        /* \"#utility.yul\":3562:3564   */\n      0x40\n        /* \"#utility.yul\":3557:3560   */\n      dup3\n        /* \"#utility.yul\":3553:3565   */\n      add\n        /* \"#utility.yul\":3546:3565   */\n      swap1\n      pop\n        /* \"#utility.yul\":3347:3571   */\n      swap2\n      swap1\n      pop\n      jump\t// out\n        /* \"#utility.yul\":3577:3968   */\n    tag_284:\n      0x00\n        /* \"#utility.yul\":3740:3807   */\n      tag_286\n        /* \"#utility.yul\":3804:3806   */\n      0x3b\n        /* \"#utility.yul\":3799:3802   */\n      dup4\n        /* \"#utility.yul\":3740:3807   */\n      tag_277\n      jump\t// in\n    tag_286:\n        /* \"#utility.yul\":3733:3807   */\n      swap2\n      pop\n        /* \"#utility.yul\":3837:3871   */\n      0x546f6b656e56657374696e673a204d696e696d756d206475726174696f6e2063\n        /* \"#utility.yul\":3833:3834   */\n      0x00\n        /* \"#utility.yul\":3828:3831   */\n      dup4\n        /* \"#utility.yul\":3824:3835   */\n      add\n        /* \"#utility.yul\":3817:3872   */\n      mstore\n        /* \"#utility.yul\":3903:3932   */\n      0x616e6e6f74206265206c6573736572207468616e2031206461792e0000000000\n        /* \"#utility.yul\":3898:3900   */\n      0x20\n        /* \"#utility.yul\":3893:3896   */\n      dup4\n        /* \"#utility.yul\":3889:3901   */\n      add\n        /* \"#utility.yul\":3882:3933   */\n      mstore\n        /* \"#utility.yul\":3959:3961   */\n      0x40\n        /* \"#utility.yul\":3954:3957   */\n      dup3\n        /* \"#utility.yul\":3950:3962   */\n      add\n        /* \"#utility.yul\":3943:3962   */\n      swap1\n      pop\n        /* \"#utility.yul\":3723:3968   */\n      swap2\n      swap1\n      pop\n      jump\t// out\n        /* \"#utility.yul\":3974:4409   */\n    tag_287:\n      0x00\n        /* \"#utility.yul\":4137:4204   */\n      tag_289\n        /* \"#utility.yul\":4201:4203   */\n      0x45\n        /* \"#utility.yul\":4196:4199   */\n      dup4\n        /* \"#utility.yul\":4137:4204   */\n      tag_277\n      jump\t// in\n    tag_289:\n        /* \"#utility.yul\":4130:4204   */\n      swap2\n      pop\n        /* \"#utility.yul\":4234:4268   */\n      0x546f6b656e56657374696e673a2052656c6561736520616d6f756e742063616e\n        /* \"#utility.yul\":4230:4231   */\n      0x00\n        /* \"#utility.yul\":4225:4228   */\n      dup4\n        /* \"#utility.yul\":4221:4232   */\n      add\n        /* \"#utility.yul\":4214:4269   */\n      mstore\n        /* \"#utility.yul\":4300:4334   */\n      0x6e6f74206265206d6f7265207468616e20746f74616c2076657374696e672061\n        /* \"#utility.yul\":4295:4297   */\n      0x20\n        /* \"#utility.yul\":4290:4293   */\n      dup4\n        /* \"#utility.yul\":4286:4298   */\n      add\n        /* \"#utility.yul\":4279:4335   */\n      mstore\n        /* \"#utility.yul\":4366:4373   */\n      0x6d6f756e74000000000000000000000000000000000000000000000000000000\n        /* \"#utility.yul\":4361:4363   */\n      0x40\n        /* \"#utility.yul\":4356:4359   */\n      dup4\n        /* \"#utility.yul\":4352:4364   */\n      add\n        /* \"#utility.yul\":4345:4374   */\n      mstore\n        /* \"#utility.yul\":4400:4402   */\n      0x60\n        /* \"#utility.yul\":4395:4398   */\n      dup3\n        /* \"#utility.yul\":4391:4403   */\n      add\n        /* \"#utility.yul\":4384:4403   */\n      swap1\n      pop\n        /* \"#utility.yul\":4120:4409   */\n      swap2\n      swap1\n      pop\n      jump\t// out\n        /* \"#utility.yul\":4415:4801   */\n    tag_290:\n      0x00\n        /* \"#utility.yul\":4578:4645   */\n      tag_292\n        /* \"#utility.yul\":4642:4644   */\n      0x36\n        /* \"#utility.yul\":4637:4640   */\n      dup4\n        /* \"#utility.yul\":4578:4645   */\n      tag_277\n      jump\t// in\n    tag_292:\n        /* \"#utility.yul\":4571:4645   */\n      swap2\n      pop\n        /* \"#utility.yul\":4675:4709   */\n      0x546f6b656e56657374696e673a2056657374696e6720616d6f756e74206d7573\n        /* \"#utility.yul\":4671:4672   */\n      0x00\n        /* \"#utility.yul\":4666:4669   */\n      dup4\n        /* \"#utility.yul\":4662:4673   */\n      add\n        /* \"#utility.yul\":4655:4710   */\n      mstore\n        /* \"#utility.yul\":4741:4765   */\n      0x742062652067726561746572207468616e207a65726f00000000000000000000\n        /* \"#utility.yul\":4736:4738   */\n      0x20\n        /* \"#utility.yul\":4731:4734   */\n      dup4\n        /* \"#utility.yul\":4727:4739   */\n      add\n        /* \"#utility.yul\":4720:4766   */\n      mstore\n        /* \"#utility.yul\":4792:4794   */\n      0x40\n        /* \"#utility.yul\":4787:4790   */\n      dup3\n        /* \"#utility.yul\":4783:4795   */\n      add\n        /* \"#utility.yul\":4776:4795   */\n      swap1\n      pop\n        /* \"#utility.yul\":4561:4801   */\n      swap2\n      swap1\n      pop\n      jump\t// out\n        /* \"#utility.yul\":4807:5201   */\n    tag_293:\n      0x00\n        /* \"#utility.yul\":4970:5037   */\n      tag_295\n        /* \"#utility.yul\":5034:5036   */\n      0x3e\n        /* \"#utility.yul\":5029:5032   */\n      dup4\n        /* \"#utility.yul\":4970:5037   */\n      tag_277\n      jump\t// in\n    tag_295:\n        /* \"#utility.yul\":4963:5037   */\n      swap2\n      pop\n        /* \"#utility.yul\":5067:5101   */\n      0x546f6b656e56657374696e673a2052656c65617365207363686564756c652063\n        /* \"#utility.yul\":5063:5064   */\n      0x00\n        /* \"#utility.yul\":5058:5061   */\n      dup4\n        /* \"#utility.yul\":5054:5065   */\n      add\n        /* \"#utility.yul\":5047:5102   */\n      mstore\n        /* \"#utility.yul\":5133:5165   */\n      0x616e6e6f74206265206c6573736572207468616e2031206d696e7574652e0000\n        /* \"#utility.yul\":5128:5130   */\n      0x20\n        /* \"#utility.yul\":5123:5126   */\n      dup4\n        /* \"#utility.yul\":5119:5131   */\n      add\n        /* \"#utility.yul\":5112:5166   */\n      mstore\n        /* \"#utility.yul\":5192:5194   */\n      0x40\n        /* \"#utility.yul\":5187:5190   */\n      dup3\n        /* \"#utility.yul\":5183:5195   */\n      add\n        /* \"#utility.yul\":5176:5195   */\n      swap1\n      pop\n        /* \"#utility.yul\":4953:5201   */\n      swap2\n      swap1\n      pop\n      jump\t// out\n        /* \"#utility.yul\":5207:5586   */\n    tag_296:\n      0x00\n        /* \"#utility.yul\":5370:5437   */\n      tag_298\n        /* \"#utility.yul\":5434:5436   */\n      0x2f\n        /* \"#utility.yul\":5429:5432   */\n      dup4\n        /* \"#utility.yul\":5370:5437   */\n      tag_277\n      jump\t// in\n    tag_298:\n        /* \"#utility.yul\":5363:5437   */\n      swap2\n      pop\n        /* \"#utility.yul\":5467:5501   */\n      0x546f6b656e56657374696e673a204d696e696d756d2076657374696e67206475\n        /* \"#utility.yul\":5463:5464   */\n      0x00\n        /* \"#utility.yul\":5458:5461   */\n      dup4\n        /* \"#utility.yul\":5454:5465   */\n      add\n        /* \"#utility.yul\":5447:5502   */\n      mstore\n        /* \"#utility.yul\":5533:5550   */\n      0x726174696f6e2069732031206461790000000000000000000000000000000000\n        /* \"#utility.yul\":5528:5530   */\n      0x20\n        /* \"#utility.yul\":5523:5526   */\n      dup4\n        /* \"#utility.yul\":5519:5531   */\n      add\n        /* \"#utility.yul\":5512:5551   */\n      mstore\n        /* \"#utility.yul\":5577:5579   */\n      0x40\n        /* \"#utility.yul\":5572:5575   */\n      dup3\n        /* \"#utility.yul\":5568:5580   */\n      add\n        /* \"#utility.yul\":5561:5580   */\n      swap1\n      pop\n        /* \"#utility.yul\":5353:5586   */\n      swap2\n      swap1\n      pop\n      jump\t// out\n        /* \"#utility.yul\":5592:5922   */\n    tag_299:\n      0x00\n        /* \"#utility.yul\":5755:5822   */\n      tag_301\n        /* \"#utility.yul\":5819:5821   */\n      0x20\n        /* \"#utility.yul\":5814:5817   */\n      dup4\n        /* \"#utility.yul\":5755:5822   */\n      tag_277\n      jump\t// in\n    tag_301:\n        /* \"#utility.yul\":5748:5822   */\n      swap2\n      pop\n        /* \"#utility.yul\":5852:5886   */\n      0x4f776e61626c653a2063616c6c6572206973206e6f7420746865206f776e6572\n        /* \"#utility.yul\":5848:5849   */\n      0x00\n        /* \"#utility.yul\":5843:5846   */\n      dup4\n        /* \"#utility.yul\":5839:5850   */\n      add\n        /* \"#utility.yul\":5832:5887   */\n      mstore\n        /* \"#utility.yul\":5913:5915   */\n      0x20\n        /* \"#utility.yul\":5908:5911   */\n      dup3\n        /* \"#utility.yul\":5904:5916   */\n      add\n        /* \"#utility.yul\":5897:5916   */\n      swap1\n      pop\n        /* \"#utility.yul\":5738:5922   */\n      swap2\n      swap1\n      pop\n      jump\t// out\n        /* \"#utility.yul\":5928:6317   */\n    tag_302:\n      0x00\n        /* \"#utility.yul\":6091:6158   */\n      tag_304\n        /* \"#utility.yul\":6155:6157   */\n      0x39\n        /* \"#utility.yul\":6150:6153   */\n      dup4\n        /* \"#utility.yul\":6091:6158   */\n      tag_277\n      jump\t// in\n    tag_304:\n        /* \"#utility.yul\":6084:6158   */\n      swap2\n      pop\n        /* \"#utility.yul\":6188:6222   */\n      0x546f6b656e56657374696e673a205a65726f20616464726573732063616e6e6f\n        /* \"#utility.yul\":6184:6185   */\n      0x00\n        /* \"#utility.yul\":6179:6182   */\n      dup4\n        /* \"#utility.yul\":6175:6186   */\n      add\n        /* \"#utility.yul\":6168:6223   */\n      mstore\n        /* \"#utility.yul\":6254:6281   */\n      0x742062652073657420617320612062656e656669636961727900000000000000\n        /* \"#utility.yul\":6249:6251   */\n      0x20\n        /* \"#utility.yul\":6244:6247   */\n      dup4\n        /* \"#utility.yul\":6240:6252   */\n      add\n        /* \"#utility.yul\":6233:6282   */\n      mstore\n        /* \"#utility.yul\":6308:6310   */\n      0x40\n        /* \"#utility.yul\":6303:6306   */\n      dup3\n        /* \"#utility.yul\":6299:6311   */\n      add\n        /* \"#utility.yul\":6292:6311   */\n      swap1\n      pop\n        /* \"#utility.yul\":6074:6317   */\n      swap2\n      swap1\n      pop\n      jump\t// out\n        /* \"#utility.yul\":6323:6767   */\n    tag_305:\n      0x00\n        /* \"#utility.yul\":6486:6553   */\n      tag_307\n        /* \"#utility.yul\":6550:6552   */\n      0x4e\n        /* \"#utility.yul\":6545:6548   */\n      dup4\n        /* \"#utility.yul\":6486:6553   */\n      tag_277\n      jump\t// in\n    tag_307:\n        /* \"#utility.yul\":6479:6553   */\n      swap2\n      pop\n        /* \"#utility.yul\":6583:6617   */\n      0x546f6b656e56657374696e673a20456e74657265642072656c6561736520616d\n        /* \"#utility.yul\":6579:6580   */\n      0x00\n        /* \"#utility.yul\":6574:6577   */\n      dup4\n        /* \"#utility.yul\":6570:6581   */\n      add\n        /* \"#utility.yul\":6563:6618   */\n      mstore\n        /* \"#utility.yul\":6649:6683   */\n      0x6f756e742069732067726561746572207468616e2063757572656e742072656c\n        /* \"#utility.yul\":6644:6646   */\n      0x20\n        /* \"#utility.yul\":6639:6642   */\n      dup4\n        /* \"#utility.yul\":6635:6647   */\n      add\n        /* \"#utility.yul\":6628:6684   */\n      mstore\n        /* \"#utility.yul\":6715:6731   */\n      0x65617361626c6520616d6f756e74000000000000000000000000000000000000\n        /* \"#utility.yul\":6710:6712   */\n      0x40\n        /* \"#utility.yul\":6705:6708   */\n      dup4\n        /* \"#utility.yul\":6701:6713   */\n      add\n        /* \"#utility.yul\":6694:6732   */\n      mstore\n        /* \"#utility.yul\":6758:6760   */\n      0x60\n        /* \"#utility.yul\":6753:6756   */\n      dup3\n        /* \"#utility.yul\":6749:6761   */\n      add\n        /* \"#utility.yul\":6742:6761   */\n      swap1\n      pop\n        /* \"#utility.yul\":6469:6767   */\n      swap2\n      swap1\n      pop\n      jump\t// out\n        /* \"#utility.yul\":6773:7154   */\n    tag_308:\n      0x00\n        /* \"#utility.yul\":6936:7003   */\n      tag_310\n        /* \"#utility.yul\":7000:7002   */\n      0x31\n        /* \"#utility.yul\":6995:6998   */\n      dup4\n        /* \"#utility.yul\":6936:7003   */\n      tag_277\n      jump\t// in\n    tag_310:\n        /* \"#utility.yul\":6929:7003   */\n      swap2\n      pop\n        /* \"#utility.yul\":7033:7067   */\n      0x546f6b656e56657374696e673a2042656e656669636961727920636f756e7420\n        /* \"#utility.yul\":7029:7030   */\n      0x00\n        /* \"#utility.yul\":7024:7027   */\n      dup4\n        /* \"#utility.yul\":7020:7031   */\n      add\n        /* \"#utility.yul\":7013:7068   */\n      mstore\n        /* \"#utility.yul\":7099:7118   */\n      0x6861732072656163686564206c696d6974000000000000000000000000000000\n        /* \"#utility.yul\":7094:7096   */\n      0x20\n        /* \"#utility.yul\":7089:7092   */\n      dup4\n        /* \"#utility.yul\":7085:7097   */\n      add\n        /* \"#utility.yul\":7078:7119   */\n      mstore\n        /* \"#utility.yul\":7145:7147   */\n      0x40\n        /* \"#utility.yul\":7140:7143   */\n      dup3\n        /* \"#utility.yul\":7136:7148   */\n      add\n        /* \"#utility.yul\":7129:7148   */\n      swap1\n      pop\n        /* \"#utility.yul\":6919:7154   */\n      swap2\n      swap1\n      pop\n      jump\t// out\n        /* \"#utility.yul\":7160:7531   */\n    tag_311:\n      0x00\n        /* \"#utility.yul\":7323:7390   */\n      tag_313\n        /* \"#utility.yul\":7387:7389   */\n      0x27\n        /* \"#utility.yul\":7382:7385   */\n      dup4\n        /* \"#utility.yul\":7323:7390   */\n      tag_277\n      jump\t// in\n    tag_313:\n        /* \"#utility.yul\":7316:7390   */\n      swap2\n      pop\n        /* \"#utility.yul\":7420:7454   */\n      0x546f6b656e56657374696e673a2042656e656669636961727920616c72656164\n        /* \"#utility.yul\":7416:7417   */\n      0x00\n        /* \"#utility.yul\":7411:7414   */\n      dup4\n        /* \"#utility.yul\":7407:7418   */\n      add\n        /* \"#utility.yul\":7400:7455   */\n      mstore\n        /* \"#utility.yul\":7486:7495   */\n      0x7920616464656400000000000000000000000000000000000000000000000000\n        /* \"#utility.yul\":7481:7483   */\n      0x20\n        /* \"#utility.yul\":7476:7479   */\n      dup4\n        /* \"#utility.yul\":7472:7484   */\n      add\n        /* \"#utility.yul\":7465:7496   */\n      mstore\n        /* \"#utility.yul\":7522:7524   */\n      0x40\n        /* \"#utility.yul\":7517:7520   */\n      dup3\n        /* \"#utility.yul\":7513:7525   */\n      add\n        /* \"#utility.yul\":7506:7525   */\n      swap1\n      pop\n        /* \"#utility.yul\":7306:7531   */\n      swap2\n      swap1\n      pop\n      jump\t// out\n        /* \"#utility.yul\":7537:7919   */\n    tag_314:\n      0x00\n        /* \"#utility.yul\":7700:7767   */\n      tag_316\n        /* \"#utility.yul\":7764:7766   */\n      0x32\n        /* \"#utility.yul\":7759:7762   */\n      dup4\n        /* \"#utility.yul\":7700:7767   */\n      tag_277\n      jump\t// in\n    tag_316:\n        /* \"#utility.yul\":7693:7767   */\n      swap2\n      pop\n        /* \"#utility.yul\":7797:7831   */\n      0x546f6b656e56657374696e673a20496e76616c69642062656e65666963696172\n        /* \"#utility.yul\":7793:7794   */\n      0x00\n        /* \"#utility.yul\":7788:7791   */\n      dup4\n        /* \"#utility.yul\":7784:7795   */\n      add\n        /* \"#utility.yul\":7777:7832   */\n      mstore\n        /* \"#utility.yul\":7863:7883   */\n      0x7920616464726573732064657465637465640000000000000000000000000000\n        /* \"#utility.yul\":7858:7860   */\n      0x20\n        /* \"#utility.yul\":7853:7856   */\n      dup4\n        /* \"#utility.yul\":7849:7861   */\n      add\n        /* \"#utility.yul\":7842:7884   */\n      mstore\n        /* \"#utility.yul\":7910:7912   */\n      0x40\n        /* \"#utility.yul\":7905:7908   */\n      dup3\n        /* \"#utility.yul\":7901:7913   */\n      add\n        /* \"#utility.yul\":7894:7913   */\n      swap1\n      pop\n        /* \"#utility.yul\":7683:7919   */\n      swap2\n      swap1\n      pop\n      jump\t// out\n        /* \"#utility.yul\":7925:8356   */\n    tag_317:\n      0x00\n        /* \"#utility.yul\":8088:8155   */\n      tag_319\n        /* \"#utility.yul\":8152:8154   */\n      0x41\n        /* \"#utility.yul\":8147:8150   */\n      dup4\n        /* \"#utility.yul\":8088:8155   */\n      tag_277\n      jump\t// in\n    tag_319:\n        /* \"#utility.yul\":8081:8155   */\n      swap2\n      pop\n        /* \"#utility.yul\":8185:8219   */\n      0x546f6b656e56657374696e673a2042656e656669636961727920636f756e7420\n        /* \"#utility.yul\":8181:8182   */\n      0x00\n        /* \"#utility.yul\":8176:8179   */\n      dup4\n        /* \"#utility.yul\":8172:8183   */\n      add\n        /* \"#utility.yul\":8165:8220   */\n      mstore\n        /* \"#utility.yul\":8251:8285   */\n      0x6c696d69742073686f756c642062652067726561746572207468616e207a6572\n        /* \"#utility.yul\":8246:8248   */\n      0x20\n        /* \"#utility.yul\":8241:8244   */\n      dup4\n        /* \"#utility.yul\":8237:8249   */\n      add\n        /* \"#utility.yul\":8230:8286   */\n      mstore\n        /* \"#utility.yul\":8317:8320   */\n      0x6f00000000000000000000000000000000000000000000000000000000000000\n        /* \"#utility.yul\":8312:8314   */\n      0x40\n        /* \"#utility.yul\":8307:8310   */\n      dup4\n        /* \"#utility.yul\":8303:8315   */\n      add\n        /* \"#utility.yul\":8296:8321   */\n      mstore\n        /* \"#utility.yul\":8347:8349   */\n      0x60\n        /* \"#utility.yul\":8342:8345   */\n      dup3\n        /* \"#utility.yul\":8338:8350   */\n      add\n        /* \"#utility.yul\":8331:8350   */\n      swap1\n      pop\n        /* \"#utility.yul\":8071:8356   */\n      swap2\n      swap1\n      pop\n      jump\t// out\n        /* \"#utility.yul\":8362:8480   */\n    tag_320:\n        /* \"#utility.yul\":8449:8473   */\n      tag_322\n        /* \"#utility.yul\":8467:8472   */\n      dup2\n        /* \"#utility.yul\":8449:8473   */\n      tag_323\n      jump\t// in\n    tag_322:\n        /* \"#utility.yul\":8444:8447   */\n      dup3\n        /* \"#utility.yul\":8437:8474   */\n      mstore\n        /* \"#utility.yul\":8427:8480   */\n      pop\n      pop\n      jump\t// out\n        /* \"#utility.yul\":8486:8708   */\n    tag_48:\n      0x00\n        /* \"#utility.yul\":8617:8619   */\n      0x20\n        /* \"#utility.yul\":8606:8615   */\n      dup3\n        /* \"#utility.yul\":8602:8620   */\n      add\n        /* \"#utility.yul\":8594:8620   */\n      swap1\n      pop\n        /* \"#utility.yul\":8630:8701   */\n      tag_325\n        /* \"#utility.yul\":8698:8699   */\n      0x00\n        /* \"#utility.yul\":8687:8696   */\n      dup4\n        /* \"#utility.yul\":8683:8700   */\n      add\n        /* \"#utility.yul\":8674:8680   */\n      dup5\n        /* \"#utility.yul\":8630:8701   */\n      tag_270\n      jump\t// in\n    tag_325:\n        /* \"#utility.yul\":8584:8708   */\n      swap3\n      swap2\n      pop\n      pop\n      jump\t// out\n        /* \"#utility.yul\":8714:9156   */\n    tag_104:\n      0x00\n        /* \"#utility.yul\":8901:8903   */\n      0x60\n        /* \"#utility.yul\":8890:8899   */\n      dup3\n        /* \"#utility.yul\":8886:8904   */\n      add\n        /* \"#utility.yul\":8878:8904   */\n      swap1\n      pop\n        /* \"#utility.yul\":8914:8985   */\n      tag_327\n        /* \"#utility.yul\":8982:8983   */\n      0x00\n        /* \"#utility.yul\":8971:8980   */\n      dup4\n        /* \"#utility.yul\":8967:8984   */\n      add\n        /* \"#utility.yul\":8958:8964   */\n      dup7\n        /* \"#utility.yul\":8914:8985   */\n      tag_270\n      jump\t// in\n    tag_327:\n        /* \"#utility.yul\":8995:9067   */\n      tag_328\n        /* \"#utility.yul\":9063:9065   */\n      0x20\n        /* \"#utility.yul\":9052:9061   */\n      dup4\n        /* \"#utility.yul\":9048:9066   */\n      add\n        /* \"#utility.yul\":9039:9045   */\n      dup6\n        /* \"#utility.yul\":8995:9067   */\n      tag_270\n      jump\t// in\n    tag_328:\n        /* \"#utility.yul\":9077:9149   */\n      tag_329\n        /* \"#utility.yul\":9145:9147   */\n      0x40\n        /* \"#utility.yul\":9134:9143   */\n      dup4\n        /* \"#utility.yul\":9130:9148   */\n      add\n        /* \"#utility.yul\":9121:9127   */\n      dup5\n        /* \"#utility.yul\":9077:9149   */\n      tag_320\n      jump\t// in\n    tag_329:\n        /* \"#utility.yul\":8868:9156   */\n      swap5\n      swap4\n      pop\n      pop\n      pop\n      pop\n      jump\t// out\n        /* \"#utility.yul\":9162:9581   */\n    tag_197:\n      0x00\n        /* \"#utility.yul\":9366:9368   */\n      0x20\n        /* \"#utility.yul\":9355:9364   */\n      dup3\n        /* \"#utility.yul\":9351:9369   */\n      add\n        /* \"#utility.yul\":9343:9369   */\n      swap1\n      pop\n        /* \"#utility.yul\":9415:9424   */\n      dup2\n        /* \"#utility.yul\":9409:9413   */\n      dup2\n        /* \"#utility.yul\":9405:9425   */\n      sub\n        /* \"#utility.yul\":9401:9402   */\n      0x00\n        /* \"#utility.yul\":9390:9399   */\n      dup4\n        /* \"#utility.yul\":9386:9403   */\n      add\n        /* \"#utility.yul\":9379:9426   */\n      mstore\n        /* \"#utility.yul\":9443:9574   */\n      tag_331\n        /* \"#utility.yul\":9569:9573   */\n      dup2\n        /* \"#utility.yul\":9443:9574   */\n      tag_274\n      jump\t// in\n    tag_331:\n        /* \"#utility.yul\":9435:9574   */\n      swap1\n      pop\n        /* \"#utility.yul\":9333:9581   */\n      swap2\n      swap1\n      pop\n      jump\t// out\n        /* \"#utility.yul\":9587:10006   */\n    tag_91:\n      0x00\n        /* \"#utility.yul\":9791:9793   */\n      0x20\n        /* \"#utility.yul\":9780:9789   */\n      dup3\n        /* \"#utility.yul\":9776:9794   */\n      add\n        /* \"#utility.yul\":9768:9794   */\n      swap1\n      pop\n        /* \"#utility.yul\":9840:9849   */\n      dup2\n        /* \"#utility.yul\":9834:9838   */\n      dup2\n        /* \"#utility.yul\":9830:9850   */\n      sub\n        /* \"#utility.yul\":9826:9827   */\n      0x00\n        /* \"#utility.yul\":9815:9824   */\n      dup4\n        /* \"#utility.yul\":9811:9828   */\n      add\n        /* \"#utility.yul\":9804:9851   */\n      mstore\n        /* \"#utility.yul\":9868:9999   */\n      tag_333\n        /* \"#utility.yul\":9994:9998   */\n      dup2\n        /* \"#utility.yul\":9868:9999   */\n      tag_278\n      jump\t// in\n    tag_333:\n        /* \"#utility.yul\":9860:9999   */\n      swap1\n      pop\n        /* \"#utility.yul\":9758:10006   */\n      swap2\n      swap1\n      pop\n      jump\t// out\n        /* \"#utility.yul\":10012:10431   */\n    tag_184:\n      0x00\n        /* \"#utility.yul\":10216:10218   */\n      0x20\n        /* \"#utility.yul\":10205:10214   */\n      dup3\n        /* \"#utility.yul\":10201:10219   */\n      add\n        /* \"#utility.yul\":10193:10219   */\n      swap1\n      pop\n        /* \"#utility.yul\":10265:10274   */\n      dup2\n        /* \"#utility.yul\":10259:10263   */\n      dup2\n        /* \"#utility.yul\":10255:10275   */\n      sub\n        /* \"#utility.yul\":10251:10252   */\n      0x00\n        /* \"#utility.yul\":10240:10249   */\n      dup4\n        /* \"#utility.yul\":10236:10253   */\n      add\n        /* \"#utility.yul\":10229:10276   */\n      mstore\n        /* \"#utility.yul\":10293:10424   */\n      tag_335\n        /* \"#utility.yul\":10419:10423   */\n      dup2\n        /* \"#utility.yul\":10293:10424   */\n      tag_281\n      jump\t// in\n    tag_335:\n        /* \"#utility.yul\":10285:10424   */\n      swap1\n      pop\n        /* \"#utility.yul\":10183:10431   */\n      swap2\n      swap1\n      pop\n      jump\t// out\n        /* \"#utility.yul\":10437:10856   */\n    tag_131:\n      0x00\n        /* \"#utility.yul\":10641:10643   */\n      0x20\n        /* \"#utility.yul\":10630:10639   */\n      dup3\n        /* \"#utility.yul\":10626:10644   */\n      add\n        /* \"#utility.yul\":10618:10644   */\n      swap1\n      pop\n        /* \"#utility.yul\":10690:10699   */\n      dup2\n        /* \"#utility.yul\":10684:10688   */\n      dup2\n        /* \"#utility.yul\":10680:10700   */\n      sub\n        /* \"#utility.yul\":10676:10677   */\n      0x00\n        /* \"#utility.yul\":10665:10674   */\n      dup4\n        /* \"#utility.yul\":10661:10678   */\n      add\n        /* \"#utility.yul\":10654:10701   */\n      mstore\n        /* \"#utility.yul\":10718:10849   */\n      tag_337\n        /* \"#utility.yul\":10844:10848   */\n      dup2\n        /* \"#utility.yul\":10718:10849   */\n      tag_284\n      jump\t// in\n    tag_337:\n        /* \"#utility.yul\":10710:10849   */\n      swap1\n      pop\n        /* \"#utility.yul\":10608:10856   */\n      swap2\n      swap1\n      pop\n      jump\t// out\n        /* \"#utility.yul\":10862:11281   */\n    tag_94:\n      0x00\n        /* \"#utility.yul\":11066:11068   */\n      0x20\n        /* \"#utility.yul\":11055:11064   */\n      dup3\n        /* \"#utility.yul\":11051:11069   */\n      add\n        /* \"#utility.yul\":11043:11069   */\n      swap1\n      pop\n        /* \"#utility.yul\":11115:11124   */\n      dup2\n        /* \"#utility.yul\":11109:11113   */\n      dup2\n        /* \"#utility.yul\":11105:11125   */\n      sub\n        /* \"#utility.yul\":11101:11102   */\n      0x00\n        /* \"#utility.yul\":11090:11099   */\n      dup4\n        /* \"#utility.yul\":11086:11103   */\n      add\n        /* \"#utility.yul\":11079:11126   */\n      mstore\n        /* \"#utility.yul\":11143:11274   */\n      tag_339\n        /* \"#utility.yul\":11269:11273   */\n      dup2\n        /* \"#utility.yul\":11143:11274   */\n      tag_287\n      jump\t// in\n    tag_339:\n        /* \"#utility.yul\":11135:11274   */\n      swap1\n      pop\n        /* \"#utility.yul\":11033:11281   */\n      swap2\n      swap1\n      pop\n      jump\t// out\n        /* \"#utility.yul\":11287:11706   */\n    tag_165:\n      0x00\n        /* \"#utility.yul\":11491:11493   */\n      0x20\n        /* \"#utility.yul\":11480:11489   */\n      dup3\n        /* \"#utility.yul\":11476:11494   */\n      add\n        /* \"#utility.yul\":11468:11494   */\n      swap1\n      pop\n        /* \"#utility.yul\":11540:11549   */\n      dup2\n        /* \"#utility.yul\":11534:11538   */\n      dup2\n        /* \"#utility.yul\":11530:11550   */\n      sub\n        /* \"#utility.yul\":11526:11527   */\n      0x00\n        /* \"#utility.yul\":11515:11524   */\n      dup4\n        /* \"#utility.yul\":11511:11528   */\n      add\n        /* \"#utility.yul\":11504:11551   */\n      mstore\n        /* \"#utility.yul\":11568:11699   */\n      tag_341\n        /* \"#utility.yul\":11694:11698   */\n      dup2\n        /* \"#utility.yul\":11568:11699   */\n      tag_290\n      jump\t// in\n    tag_341:\n        /* \"#utility.yul\":11560:11699   */\n      swap1\n      pop\n        /* \"#utility.yul\":11458:11706   */\n      swap2\n      swap1\n      pop\n      jump\t// out\n        /* \"#utility.yul\":11712:12131   */\n    tag_203:\n      0x00\n        /* \"#utility.yul\":11916:11918   */\n      0x20\n        /* \"#utility.yul\":11905:11914   */\n      dup3\n        /* \"#utility.yul\":11901:11919   */\n      add\n        /* \"#utility.yul\":11893:11919   */\n      swap1\n      pop\n        /* \"#utility.yul\":11965:11974   */\n      dup2\n        /* \"#utility.yul\":11959:11963   */\n      dup2\n        /* \"#utility.yul\":11955:11975   */\n      sub\n        /* \"#utility.yul\":11951:11952   */\n      0x00\n        /* \"#utility.yul\":11940:11949   */\n      dup4\n        /* \"#utility.yul\":11936:11953   */\n      add\n        /* \"#utility.yul\":11929:11976   */\n      mstore\n        /* \"#utility.yul\":11993:12124   */\n      tag_343\n        /* \"#utility.yul\":12119:12123   */\n      dup2\n        /* \"#utility.yul\":11993:12124   */\n      tag_293\n      jump\t// in\n    tag_343:\n        /* \"#utility.yul\":11985:12124   */\n      swap1\n      pop\n        /* \"#utility.yul\":11883:12131   */\n      swap2\n      swap1\n      pop\n      jump\t// out\n        /* \"#utility.yul\":12137:12556   */\n    tag_200:\n      0x00\n        /* \"#utility.yul\":12341:12343   */\n      0x20\n        /* \"#utility.yul\":12330:12339   */\n      dup3\n        /* \"#utility.yul\":12326:12344   */\n      add\n        /* \"#utility.yul\":12318:12344   */\n      swap1\n      pop\n        /* \"#utility.yul\":12390:12399   */\n      dup2\n        /* \"#utility.yul\":12384:12388   */\n      dup2\n        /* \"#utility.yul\":12380:12400   */\n      sub\n        /* \"#utility.yul\":12376:12377   */\n      0x00\n        /* \"#utility.yul\":12365:12374   */\n      dup4\n        /* \"#utility.yul\":12361:12378   */\n      add\n        /* \"#utility.yul\":12354:12401   */\n      mstore\n        /* \"#utility.yul\":12418:12549   */\n      tag_345\n        /* \"#utility.yul\":12544:12548   */\n      dup2\n        /* \"#utility.yul\":12418:12549   */\n      tag_296\n      jump\t// in\n    tag_345:\n        /* \"#utility.yul\":12410:12549   */\n      swap1\n      pop\n        /* \"#utility.yul\":12308:12556   */\n      swap2\n      swap1\n      pop\n      jump\t// out\n        /* \"#utility.yul\":12562:12981   */\n    tag_121:\n      0x00\n        /* \"#utility.yul\":12766:12768   */\n      0x20\n        /* \"#utility.yul\":12755:12764   */\n      dup3\n        /* \"#utility.yul\":12751:12769   */\n      add\n        /* \"#utility.yul\":12743:12769   */\n      swap1\n      pop\n        /* \"#utility.yul\":12815:12824   */\n      dup2\n        /* \"#utility.yul\":12809:12813   */\n      dup2\n        /* \"#utility.yul\":12805:12825   */\n      sub\n        /* \"#utility.yul\":12801:12802   */\n      0x00\n        /* \"#utility.yul\":12790:12799   */\n      dup4\n        /* \"#utility.yul\":12786:12803   */\n      add\n        /* \"#utility.yul\":12779:12826   */\n      mstore\n        /* \"#utility.yul\":12843:12974   */\n      tag_347\n        /* \"#utility.yul\":12969:12973   */\n      dup2\n        /* \"#utility.yul\":12843:12974   */\n      tag_299\n      jump\t// in\n    tag_347:\n        /* \"#utility.yul\":12835:12974   */\n      swap1\n      pop\n        /* \"#utility.yul\":12733:12981   */\n      swap2\n      swap1\n      pop\n      jump\t// out\n        /* \"#utility.yul\":12987:13406   */\n    tag_162:\n      0x00\n        /* \"#utility.yul\":13191:13193   */\n      0x20\n        /* \"#utility.yul\":13180:13189   */\n      dup3\n        /* \"#utility.yul\":13176:13194   */\n      add\n        /* \"#utility.yul\":13168:13194   */\n      swap1\n      pop\n        /* \"#utility.yul\":13240:13249   */\n      dup2\n        /* \"#utility.yul\":13234:13238   */\n      dup2\n        /* \"#utility.yul\":13230:13250   */\n      sub\n        /* \"#utility.yul\":13226:13227   */\n      0x00\n        /* \"#utility.yul\":13215:13224   */\n      dup4\n        /* \"#utility.yul\":13211:13228   */\n      add\n        /* \"#utility.yul\":13204:13251   */\n      mstore\n        /* \"#utility.yul\":13268:13399   */\n      tag_349\n        /* \"#utility.yul\":13394:13398   */\n      dup2\n        /* \"#utility.yul\":13268:13399   */\n      tag_302\n      jump\t// in\n    tag_349:\n        /* \"#utility.yul\":13260:13399   */\n      swap1\n      pop\n        /* \"#utility.yul\":13158:13406   */\n      swap2\n      swap1\n      pop\n      jump\t// out\n        /* \"#utility.yul\":13412:13831   */\n    tag_99:\n      0x00\n        /* \"#utility.yul\":13616:13618   */\n      0x20\n        /* \"#utility.yul\":13605:13614   */\n      dup3\n        /* \"#utility.yul\":13601:13619   */\n      add\n        /* \"#utility.yul\":13593:13619   */\n      swap1\n      pop\n        /* \"#utility.yul\":13665:13674   */\n      dup2\n        /* \"#utility.yul\":13659:13663   */\n      dup2\n        /* \"#utility.yul\":13655:13675   */\n      sub\n        /* \"#utility.yul\":13651:13652   */\n      0x00\n        /* \"#utility.yul\":13640:13649   */\n      dup4\n        /* \"#utility.yul\":13636:13653   */\n      add\n        /* \"#utility.yul\":13629:13676   */\n      mstore\n        /* \"#utility.yul\":13693:13824   */\n      tag_351\n        /* \"#utility.yul\":13819:13823   */\n      dup2\n        /* \"#utility.yul\":13693:13824   */\n      tag_305\n      jump\t// in\n    tag_351:\n        /* \"#utility.yul\":13685:13824   */\n      swap1\n      pop\n        /* \"#utility.yul\":13583:13831   */\n      swap2\n      swap1\n      pop\n      jump\t// out\n        /* \"#utility.yul\":13837:14256   */\n    tag_169:\n      0x00\n        /* \"#utility.yul\":14041:14043   */\n      0x20\n        /* \"#utility.yul\":14030:14039   */\n      dup3\n        /* \"#utility.yul\":14026:14044   */\n      add\n        /* \"#utility.yul\":14018:14044   */\n      swap1\n      pop\n        /* \"#utility.yul\":14090:14099   */\n      dup2\n        /* \"#utility.yul\":14084:14088   */\n      dup2\n        /* \"#utility.yul\":14080:14100   */\n      sub\n        /* \"#utility.yul\":14076:14077   */\n      0x00\n        /* \"#utility.yul\":14065:14074   */\n      dup4\n        /* \"#utility.yul\":14061:14078   */\n      add\n        /* \"#utility.yul\":14054:14101   */\n      mstore\n        /* \"#utility.yul\":14118:14249   */\n      tag_353\n        /* \"#utility.yul\":14244:14248   */\n      dup2\n        /* \"#utility.yul\":14118:14249   */\n      tag_308\n      jump\t// in\n    tag_353:\n        /* \"#utility.yul\":14110:14249   */\n      swap1\n      pop\n        /* \"#utility.yul\":14008:14256   */\n      swap2\n      swap1\n      pop\n      jump\t// out\n        /* \"#utility.yul\":14262:14681   */\n    tag_172:\n      0x00\n        /* \"#utility.yul\":14466:14468   */\n      0x20\n        /* \"#utility.yul\":14455:14464   */\n      dup3\n        /* \"#utility.yul\":14451:14469   */\n      add\n        /* \"#utility.yul\":14443:14469   */\n      swap1\n      pop\n        /* \"#utility.yul\":14515:14524   */\n      dup2\n        /* \"#utility.yul\":14509:14513   */\n      dup2\n        /* \"#utility.yul\":14505:14525   */\n      sub\n        /* \"#utility.yul\":14501:14502   */\n      0x00\n        /* \"#utility.yul\":14490:14499   */\n      dup4\n        /* \"#utility.yul\":14486:14503   */\n      add\n        /* \"#utility.yul\":14479:14526   */\n      mstore\n        /* \"#utility.yul\":14543:14674   */\n      tag_355\n        /* \"#utility.yul\":14669:14673   */\n      dup2\n        /* \"#utility.yul\":14543:14674   */\n      tag_311\n      jump\t// in\n    tag_355:\n        /* \"#utility.yul\":14535:14674   */\n      swap1\n      pop\n        /* \"#utility.yul\":14433:14681   */\n      swap2\n      swap1\n      pop\n      jump\t// out\n        /* \"#utility.yul\":14687:15106   */\n    tag_82:\n      0x00\n        /* \"#utility.yul\":14891:14893   */\n      0x20\n        /* \"#utility.yul\":14880:14889   */\n      dup3\n        /* \"#utility.yul\":14876:14894   */\n      add\n        /* \"#utility.yul\":14868:14894   */\n      swap1\n      pop\n        /* \"#utility.yul\":14940:14949   */\n      dup2\n        /* \"#utility.yul\":14934:14938   */\n      dup2\n        /* \"#utility.yul\":14930:14950   */\n      sub\n        /* \"#utility.yul\":14926:14927   */\n      0x00\n        /* \"#utility.yul\":14915:14924   */\n      dup4\n        /* \"#utility.yul\":14911:14928   */\n      add\n        /* \"#utility.yul\":14904:14951   */\n      mstore\n        /* \"#utility.yul\":14968:15099   */\n      tag_357\n        /* \"#utility.yul\":15094:15098   */\n      dup2\n        /* \"#utility.yul\":14968:15099   */\n      tag_314\n      jump\t// in\n    tag_357:\n        /* \"#utility.yul\":14960:15099   */\n      swap1\n      pop\n        /* \"#utility.yul\":14858:15106   */\n      swap2\n      swap1\n      pop\n      jump\t// out\n        /* \"#utility.yul\":15112:15531   */\n    tag_149:\n      0x00\n        /* \"#utility.yul\":15316:15318   */\n      0x20\n        /* \"#utility.yul\":15305:15314   */\n      dup3\n        /* \"#utility.yul\":15301:15319   */\n      add\n        /* \"#utility.yul\":15293:15319   */\n      swap1\n      pop\n        /* \"#utility.yul\":15365:15374   */\n      dup2\n        /* \"#utility.yul\":15359:15363   */\n      dup2\n        /* \"#utility.yul\":15355:15375   */\n      sub\n        /* \"#utility.yul\":15351:15352   */\n      0x00\n        /* \"#utility.yul\":15340:15349   */\n      dup4\n        /* \"#utility.yul\":15336:15353   */\n      add\n        /* \"#utility.yul\":15329:15376   */\n      mstore\n        /* \"#utility.yul\":15393:15524   */\n      tag_359\n        /* \"#utility.yul\":15519:15523   */\n      dup2\n        /* \"#utility.yul\":15393:15524   */\n      tag_317\n      jump\t// in\n    tag_359:\n        /* \"#utility.yul\":15385:15524   */\n      swap1\n      pop\n        /* \"#utility.yul\":15283:15531   */\n      swap2\n      swap1\n      pop\n      jump\t// out\n        /* \"#utility.yul\":15537:15759   */\n    tag_31:\n      0x00\n        /* \"#utility.yul\":15668:15670   */\n      0x20\n        /* \"#utility.yul\":15657:15666   */\n      dup3\n        /* \"#utility.yul\":15653:15671   */\n      add\n        /* \"#utility.yul\":15645:15671   */\n      swap1\n      pop\n        /* \"#utility.yul\":15681:15752   */\n      tag_361\n        /* \"#utility.yul\":15749:15750   */\n      0x00\n        /* \"#utility.yul\":15738:15747   */\n      dup4\n        /* \"#utility.yul\":15734:15751   */\n      add\n        /* \"#utility.yul\":15725:15731   */\n      dup5\n        /* \"#utility.yul\":15681:15752   */\n      tag_320\n      jump\t// in\n    tag_361:\n        /* \"#utility.yul\":15635:15759   */\n      swap3\n      swap2\n      pop\n      pop\n      jump\t// out\n        /* \"#utility.yul\":15765:16207   */\n    tag_52:\n      0x00\n        /* \"#utility.yul\":15952:15954   */\n      0x60\n        /* \"#utility.yul\":15941:15950   */\n      dup3\n        /* \"#utility.yul\":15937:15955   */\n      add\n        /* \"#utility.yul\":15929:15955   */\n      swap1\n      pop\n        /* \"#utility.yul\":15965:16036   */\n      tag_363\n        /* \"#utility.yul\":16033:16034   */\n      0x00\n        /* \"#utility.yul\":16022:16031   */\n      dup4\n        /* \"#utility.yul\":16018:16035   */\n      add\n        /* \"#utility.yul\":16009:16015   */\n      dup7\n        /* \"#utility.yul\":15965:16036   */\n      tag_320\n      jump\t// in\n    tag_363:\n        /* \"#utility.yul\":16046:16118   */\n      tag_364\n        /* \"#utility.yul\":16114:16116   */\n      0x20\n        /* \"#utility.yul\":16103:16112   */\n      dup4\n        /* \"#utility.yul\":16099:16117   */\n      add\n        /* \"#utility.yul\":16090:16096   */\n      dup6\n        /* \"#utility.yul\":16046:16118   */\n      tag_320\n      jump\t// in\n    tag_364:\n        /* \"#utility.yul\":16128:16200   */\n      tag_365\n        /* \"#utility.yul\":16196:16198   */\n      0x40\n        /* \"#utility.yul\":16185:16194   */\n      dup4\n        /* \"#utility.yul\":16181:16199   */\n      add\n        /* \"#utility.yul\":16172:16178   */\n      dup5\n        /* \"#utility.yul\":16128:16200   */\n      tag_320\n      jump\t// in\n    tag_365:\n        /* \"#utility.yul\":15919:16207   */\n      swap5\n      swap4\n      pop\n      pop\n      pop\n      pop\n      jump\t// out\n        /* \"#utility.yul\":16213:16382   */\n    tag_277:\n      0x00\n        /* \"#utility.yul\":16331:16337   */\n      dup3\n        /* \"#utility.yul\":16326:16329   */\n      dup3\n        /* \"#utility.yul\":16319:16338   */\n      mstore\n        /* \"#utility.yul\":16371:16375   */\n      0x20\n        /* \"#utility.yul\":16366:16369   */\n      dup3\n        /* \"#utility.yul\":16362:16376   */\n      add\n        /* \"#utility.yul\":16347:16376   */\n      swap1\n      pop\n        /* \"#utility.yul\":16309:16382   */\n      swap3\n      swap2\n      pop\n      pop\n      jump\t// out\n        /* \"#utility.yul\":16388:16693   */\n    tag_227:\n      0x00\n        /* \"#utility.yul\":16447:16467   */\n      tag_368\n        /* \"#utility.yul\":16465:16466   */\n      dup3\n        /* \"#utility.yul\":16447:16467   */\n      tag_323\n      jump\t// in\n    tag_368:\n        /* \"#utility.yul\":16442:16467   */\n      swap2\n      pop\n        /* \"#utility.yul\":16481:16501   */\n      tag_369\n        /* \"#utility.yul\":16499:16500   */\n      dup4\n        /* \"#utility.yul\":16481:16501   */\n      tag_323\n      jump\t// in\n    tag_369:\n        /* \"#utility.yul\":16476:16501   */\n      swap3\n      pop\n        /* \"#utility.yul\":16635:16636   */\n      dup3\n        /* \"#utility.yul\":16567:16633   */\n      0xffffffffffffffffffffffffffffffffffffffffffffffffffffffffffffffff\n        /* \"#utility.yul\":16563:16637   */\n      sub\n        /* \"#utility.yul\":16560:16561   */\n      dup3\n        /* \"#utility.yul\":16557:16638   */\n      gt\n        /* \"#utility.yul\":16554:16556   */\n      iszero\n      tag_370\n      jumpi\n        /* \"#utility.yul\":16641:16659   */\n      tag_371\n      tag_372\n      jump\t// in\n    tag_371:\n        /* \"#utility.yul\":16554:16556   */\n    tag_370:\n        /* \"#utility.yul\":16685:16686   */\n      dup3\n        /* \"#utility.yul\":16682:16683   */\n      dup3\n        /* \"#utility.yul\":16678:16687   */\n      add\n        /* \"#utility.yul\":16671:16687   */\n      swap1\n      pop\n        /* \"#utility.yul\":16432:16693   */\n      swap3\n      swap2\n      pop\n      pop\n      jump\t// out\n        /* \"#utility.yul\":16699:16884   */\n    tag_232:\n      0x00\n        /* \"#utility.yul\":16756:16776   */\n      tag_374\n        /* \"#utility.yul\":16774:16775   */\n      dup3\n        /* \"#utility.yul\":16756:16776   */\n      tag_323\n      jump\t// in\n    tag_374:\n        /* \"#utility.yul\":16751:16776   */\n      swap2\n      pop\n        /* \"#utility.yul\":16790:16810   */\n      tag_375\n        /* \"#utility.yul\":16808:16809   */\n      dup4\n        /* \"#utility.yul\":16790:16810   */\n      tag_323\n      jump\t// in\n    tag_375:\n        /* \"#utility.yul\":16785:16810   */\n      swap3\n      pop\n        /* \"#utility.yul\":16829:16830   */\n      dup3\n        /* \"#utility.yul\":16819:16821   */\n      tag_376\n      jumpi\n        /* \"#utility.yul\":16834:16852   */\n      tag_377\n      tag_378\n      jump\t// in\n    tag_377:\n        /* \"#utility.yul\":16819:16821   */\n    tag_376:\n        /* \"#utility.yul\":16876:16877   */\n      dup3\n        /* \"#utility.yul\":16873:16874   */\n      dup3\n        /* \"#utility.yul\":16869:16878   */\n      div\n        /* \"#utility.yul\":16864:16878   */\n      swap1\n      pop\n        /* \"#utility.yul\":16741:16884   */\n      swap3\n      swap2\n      pop\n      pop\n      jump\t// out\n        /* \"#utility.yul\":16890:17238   */\n    tag_235:\n      0x00\n        /* \"#utility.yul\":16953:16973   */\n      tag_380\n        /* \"#utility.yul\":16971:16972   */\n      dup3\n        /* \"#utility.yul\":16953:16973   */\n      tag_323\n      jump\t// in\n    tag_380:\n        /* \"#utility.yul\":16948:16973   */\n      swap2\n      pop\n        /* \"#utility.yul\":16987:17007   */\n      tag_381\n        /* \"#utility.yul\":17005:17006   */\n      dup4\n        /* \"#utility.yul\":16987:17007   */\n      tag_323\n      jump\t// in\n    tag_381:\n        /* \"#utility.yul\":16982:17007   */\n      swap3\n      pop\n        /* \"#utility.yul\":17175:17176   */\n      dup2\n        /* \"#utility.yul\":17107:17173   */\n      0xffffffffffffffffffffffffffffffffffffffffffffffffffffffffffffffff\n        /* \"#utility.yul\":17103:17177   */\n      div\n        /* \"#utility.yul\":17100:17101   */\n      dup4\n        /* \"#utility.yul\":17097:17178   */\n      gt\n        /* \"#utility.yul\":17092:17093   */\n      dup3\n        /* \"#utility.yul\":17085:17094   */\n      iszero\n        /* \"#utility.yul\":17078:17095   */\n      iszero\n        /* \"#utility.yul\":17074:17179   */\n      and\n        /* \"#utility.yul\":17071:17073   */\n      iszero\n      tag_382\n      jumpi\n        /* \"#utility.yul\":17182:17200   */\n      tag_383\n      tag_372\n      jump\t// in\n    tag_383:\n        /* \"#utility.yul\":17071:17073   */\n    tag_382:\n        /* \"#utility.yul\":17230:17231   */\n      dup3\n        /* \"#utility.yul\":17227:17228   */\n      dup3\n        /* \"#utility.yul\":17223:17232   */\n      mul\n        /* \"#utility.yul\":17212:17232   */\n      swap1\n      pop\n        /* \"#utility.yul\":16938:17238   */\n      swap3\n      swap2\n      pop\n      pop\n      jump\t// out\n        /* \"#utility.yul\":17244:17435   */\n    tag_238:\n      0x00\n        /* \"#utility.yul\":17304:17324   */\n      tag_385\n        /* \"#utility.yul\":17322:17323   */\n      dup3\n        /* \"#utility.yul\":17304:17324   */\n      tag_323\n      jump\t// in\n    tag_385:\n        /* \"#utility.yul\":17299:17324   */\n      swap2\n      pop\n        /* \"#utility.yul\":17338:17358   */\n      tag_386\n        /* \"#utility.yul\":17356:17357   */\n      dup4\n        /* \"#utility.yul\":17338:17358   */\n      tag_323\n      jump\t// in\n    tag_386:\n        /* \"#utility.yul\":17333:17358   */\n      swap3\n      pop\n        /* \"#utility.yul\":17377:17378   */\n      dup3\n        /* \"#utility.yul\":17374:17375   */\n      dup3\n        /* \"#utility.yul\":17371:17379   */\n      lt\n        /* \"#utility.yul\":17368:17370   */\n      iszero\n      tag_387\n      jumpi\n        /* \"#utility.yul\":17382:17400   */\n      tag_388\n      tag_372\n      jump\t// in\n    tag_388:\n        /* \"#utility.yul\":17368:17370   */\n    tag_387:\n        /* \"#utility.yul\":17427:17428   */\n      dup3\n        /* \"#utility.yul\":17424:17425   */\n      dup3\n        /* \"#utility.yul\":17420:17429   */\n      sub\n        /* \"#utility.yul\":17412:17429   */\n      swap1\n      pop\n        /* \"#utility.yul\":17289:17435   */\n      swap3\n      swap2\n      pop\n      pop\n      jump\t// out\n        /* \"#utility.yul\":17441:17537   */\n    tag_273:\n      0x00\n        /* \"#utility.yul\":17507:17531   */\n      tag_390\n        /* \"#utility.yul\":17525:17530   */\n      dup3\n        /* \"#utility.yul\":17507:17531   */\n      tag_391\n      jump\t// in\n    tag_390:\n        /* \"#utility.yul\":17496:17531   */\n      swap1\n      pop\n        /* \"#utility.yul\":17486:17537   */\n      swap2\n      swap1\n      pop\n      jump\t// out\n        /* \"#utility.yul\":17543:17633   */\n    tag_392:\n      0x00\n        /* \"#utility.yul\":17620:17625   */\n      dup2\n        /* \"#utility.yul\":17613:17626   */\n      iszero\n        /* \"#utility.yul\":17606:17627   */\n      iszero\n        /* \"#utility.yul\":17595:17627   */\n      swap1\n      pop\n        /* \"#utility.yul\":17585:17633   */\n      swap2\n      swap1\n      pop\n      jump\t// out\n        /* \"#utility.yul\":17639:17765   */\n    tag_391:\n      0x00\n        /* \"#utility.yul\":17716:17758   */\n      0xffffffffffffffffffffffffffffffffffffffff\n        /* \"#utility.yul\":17709:17714   */\n      dup3\n        /* \"#utility.yul\":17705:17759   */\n      and\n        /* \"#utility.yul\":17694:17759   */\n      swap1\n      pop\n        /* \"#utility.yul\":17684:17765   */\n      swap2\n      swap1\n      pop\n      jump\t// out\n        /* \"#utility.yul\":17771:17848   */\n    tag_323:\n      0x00\n        /* \"#utility.yul\":17837:17842   */\n      dup2\n        /* \"#utility.yul\":17826:17842   */\n      swap1\n      pop\n        /* \"#utility.yul\":17816:17848   */\n      swap2\n      swap1\n      pop\n      jump\t// out\n        /* \"#utility.yul\":17854:18034   */\n    tag_372:\n        /* \"#utility.yul\":17902:17979   */\n      0x4e487b7100000000000000000000000000000000000000000000000000000000\n        /* \"#utility.yul\":17899:17900   */\n      0x00\n        /* \"#utility.yul\":17892:17980   */\n      mstore\n        /* \"#utility.yul\":17999:18003   */\n      0x11\n        /* \"#utility.yul\":17996:17997   */\n      0x04\n        /* \"#utility.yul\":17989:18004   */\n      mstore\n        /* \"#utility.yul\":18023:18027   */\n      0x24\n        /* \"#utility.yul\":18020:18021   */\n      0x00\n        /* \"#utility.yul\":18013:18028   */\n      revert\n        /* \"#utility.yul\":18040:18220   */\n    tag_378:\n        /* \"#utility.yul\":18088:18165   */\n      0x4e487b7100000000000000000000000000000000000000000000000000000000\n        /* \"#utility.yul\":18085:18086   */\n      0x00\n        /* \"#utility.yul\":18078:18166   */\n      mstore\n        /* \"#utility.yul\":18185:18189   */\n      0x12\n        /* \"#utility.yul\":18182:18183   */\n      0x04\n        /* \"#utility.yul\":18175:18190   */\n      mstore\n        /* \"#utility.yul\":18209:18213   */\n      0x24\n        /* \"#utility.yul\":18206:18207   */\n      0x00\n        /* \"#utility.yul\":18199:18214   */\n      revert\n        /* \"#utility.yul\":18226:18348   */\n    tag_243:\n        /* \"#utility.yul\":18299:18323   */\n      tag_399\n        /* \"#utility.yul\":18317:18322   */\n      dup2\n        /* \"#utility.yul\":18299:18323   */\n      tag_273\n      jump\t// in\n    tag_399:\n        /* \"#utility.yul\":18292:18297   */\n      dup2\n        /* \"#utility.yul\":18289:18324   */\n      eq\n        /* \"#utility.yul\":18279:18281   */\n      tag_400\n      jumpi\n        /* \"#utility.yul\":18338:18339   */\n      0x00\n        /* \"#utility.yul\":18335:18336   */\n      dup1\n        /* \"#utility.yul\":18328:18340   */\n      revert\n        /* \"#utility.yul\":18279:18281   */\n    tag_400:\n        /* \"#utility.yul\":18269:18348   */\n      pop\n      jump\t// out\n        /* \"#utility.yul\":18354:18470   */\n    tag_247:\n        /* \"#utility.yul\":18424:18445   */\n      tag_402\n        /* \"#utility.yul\":18439:18444   */\n      dup2\n        /* \"#utility.yul\":18424:18445   */\n      tag_392\n      jump\t// in\n    tag_402:\n        /* \"#utility.yul\":18417:18422   */\n      dup2\n        /* \"#utility.yul\":18414:18446   */\n      eq\n        /* \"#utility.yul\":18404:18406   */\n      tag_403\n      jumpi\n        /* \"#utility.yul\":18460:18461   */\n      0x00\n        /* \"#utility.yul\":18457:18458   */\n      dup1\n        /* \"#utility.yul\":18450:18462   */\n      revert\n        /* \"#utility.yul\":18404:18406   */\n    tag_403:\n        /* \"#utility.yul\":18394:18470   */\n      pop\n      jump\t// out\n        /* \"#utility.yul\":18476:18598   */\n    tag_251:\n        /* \"#utility.yul\":18549:18573   */\n      tag_405\n        /* \"#utility.yul\":18567:18572   */\n      dup2\n        /* \"#utility.yul\":18549:18573   */\n      tag_323\n      jump\t// in\n    tag_405:\n        /* \"#utility.yul\":18542:18547   */\n      dup2\n        /* \"#utility.yul\":18539:18574   */\n      eq\n        /* \"#utility.yul\":18529:18531   */\n      tag_406\n      jumpi\n        /* \"#utility.yul\":18588:18589   */\n      0x00\n        /* \"#utility.yul\":18585:18586   */\n      dup1\n        /* \"#utility.yul\":18578:18590   */\n      revert\n        /* \"#utility.yul\":18529:18531   */\n    tag_406:\n        /* \"#utility.yul\":18519:18598   */\n      pop\n      jump\t// out\n\n    auxdata: 0xa26469706673582212205ccf903faff900e077957894135b9635463305a3c31bc5eb30cd7c736881a04d64736f6c63430008000033\n}\n",
				"bytecode": {
					"linkReferences": {},
					"object": "60806040523480156200001157600080fd5b50604051620023fb380380620023fb833981810160405281019062000037919062000191565b620000576200004b620000ae60201b60201c565b620000b660201b60201c565b80600160006101000a81548173ffffffffffffffffffffffffffffffffffffffff021916908373ffffffffffffffffffffffffffffffffffffffff160217905550600a80819055506001600b81905550506200020b565b600033905090565b60008060009054906101000a900473ffffffffffffffffffffffffffffffffffffffff169050816000806101000a81548173ffffffffffffffffffffffffffffffffffffffff021916908373ffffffffffffffffffffffffffffffffffffffff1602179055508173ffffffffffffffffffffffffffffffffffffffff168173ffffffffffffffffffffffffffffffffffffffff167f8be0079c531659141344cd1fd0a4f28419497f9722a3daafe3b4186f6b6457e060405160405180910390a35050565b6000815190506200018b81620001f1565b92915050565b600060208284031215620001a457600080fd5b6000620001b4848285016200017a565b91505092915050565b6000620001ca82620001d1565b9050919050565b600073ffffffffffffffffffffffffffffffffffffffff82169050919050565b620001fc81620001bd565b81146200020857600080fd5b50565b6121e0806200021b6000396000f3fe608060405234801561001057600080fd5b50600436106101005760003560e01c8063715018a6116100975780639e761bbb116100665780639e761bbb146102655780639f79685e14610295578063f2fde38b146102b1578063fc99d9a1146102cd57610100565b8063715018a61461020357806375de48ab1461020d5780638da5cb5b146102295780639a6e7fd11461024757610100565b8063566b041d116100d3578063566b041d1461018b57806359a075ec146101a757806365473fd2146101c557806366923995146101e357610100565b80630357371d146101055780632afd1a7d14610121578063366340ca146101515780634a917a2f1461016f575b600080fd5b61011f600480360381019061011a91906115ae565b6102e9565b005b61013b60048036038101906101369190611585565b610715565b6040516101489190611f47565b60405180910390f35b6101596107f4565b6040516101669190611f47565b60405180910390f35b61018960048036038101906101849190611585565b6107fa565b005b6101a560048036038101906101a09190611613565b6108ba565b005b6101af610984565b6040516101bc9190611f47565b60405180910390f35b6101cd61098a565b6040516101da9190611d15565b60405180910390f35b6101eb6109b0565b6040516101fa93929190611f62565b60405180910390f35b61020b6109c9565b005b61022760048036038101906102229190611613565b610a51565b005b610231610b1a565b60405161023e9190611d15565b60405180910390f35b61024f610b43565b60405161025c9190611f47565b60405180910390f35b61027f600480360381019061027a9190611613565b610b50565b60405161028c9190611d15565b60405180910390f35b6102af60048036038101906102aa91906115ae565b610b8f565b005b6102cb60048036038101906102c69190611585565b610f42565b005b6102e760048036038101906102e2919061163c565b61103a565b005b81600760008273ffffffffffffffffffffffffffffffffffffffff1673ffffffffffffffffffffffffffffffffffffffff16815260200190815260200160002060009054906101000a900460ff1680156103705750600073ffffffffffffffffffffffffffffffffffffffff168173ffffffffffffffffffffffffffffffffffffffff1614155b6103af576040517f08c379a00000000000000000000000000000000000000000000000000000000081526004016103a690611f07565b60405180910390fd5b6103b7610b1a565b73ffffffffffffffffffffffffffffffffffffffff166103d56111f0565b73ffffffffffffffffffffffffffffffffffffffff1614806104475750600760006103fe6111f0565b73ffffffffffffffffffffffffffffffffffffffff1673ffffffffffffffffffffffffffffffffffffffff16815260200190815260200160002060009054906101000a900460ff165b610486576040517f08c379a000000000000000000000000000000000000000000000000000000000815260040161047d90611d87565b60405180910390fd5b600860008473ffffffffffffffffffffffffffffffffffffffff1673ffffffffffffffffffffffffffffffffffffffff16815260200190815260200160002054821115610508576040517f08c379a00000000000000000000000000000000000000000000000000000000081526004016104ff90611de7565b60405180910390fd5b6000610513846111f8565b905080831115610558576040517f08c379a000000000000000000000000000000000000000000000000000000000815260040161054f90611ea7565b60405180910390fd5b6105aa83600960008773ffffffffffffffffffffffffffffffffffffffff1673ffffffffffffffffffffffffffffffffffffffff1681526020019081526020016000205461142290919063ffffffff16565b600960008673ffffffffffffffffffffffffffffffffffffffff1673ffffffffffffffffffffffffffffffffffffffff168152602001908152602001600020819055508373ffffffffffffffffffffffffffffffffffffffff167ff6334794522b9db534a812aaae1af828a2e96aac68473b58e36d7d0bfd67477b846040516106339190611f47565b60405180910390a2600160009054906101000a900473ffffffffffffffffffffffffffffffffffffffff1673ffffffffffffffffffffffffffffffffffffffff166323b872dd600c60009054906101000a900473ffffffffffffffffffffffffffffffffffffffff1686866040518463ffffffff1660e01b81526004016106bc93929190611d30565b602060405180830381600087803b1580156106d657600080fd5b505af11580156106ea573d6000803e3d6000fd5b505050506040513d601f19601f8201168201806040525081019061070e91906115ea565b5050505050565b600081600760008273ffffffffffffffffffffffffffffffffffffffff1673ffffffffffffffffffffffffffffffffffffffff16815260200190815260200160002060009054906101000a900460ff16801561079e5750600073ffffffffffffffffffffffffffffffffffffffff168173ffffffffffffffffffffffffffffffffffffffff1614155b6107dd576040517f08c379a00000000000000000000000000000000000000000000000000000000081526004016107d490611f07565b60405180910390fd5b60006107e8846111f8565b90508092505050919050565b600a5481565b6108026111f0565b73ffffffffffffffffffffffffffffffffffffffff16610820610b1a565b73ffffffffffffffffffffffffffffffffffffffff1614610876576040517f08c379a000000000000000000000000000000000000000000000000000000000815260040161086d90611e67565b60405180910390fd5b80600c60006101000a81548173ffffffffffffffffffffffffffffffffffffffff021916908373ffffffffffffffffffffffffffffffffffffffff16021790555050565b6108c26111f0565b73ffffffffffffffffffffffffffffffffffffffff166108e0610b1a565b73ffffffffffffffffffffffffffffffffffffffff1614610936576040517f08c379a000000000000000000000000000000000000000000000000000000000815260040161092d90611e67565b60405180910390fd5b600181101561097a576040517f08c379a000000000000000000000000000000000000000000000000000000000815260040161097190611dc7565b60405180910390fd5b80600b8190555050565b600b5481565b600c60009054906101000a900473ffffffffffffffffffffffffffffffffffffffff1681565b6000806000600254600354600454925092509250909192565b6109d16111f0565b73ffffffffffffffffffffffffffffffffffffffff166109ef610b1a565b73ffffffffffffffffffffffffffffffffffffffff1614610a45576040517f08c379a0000000000000000000000000000000000000000000000000000000008152600401610a3c90611e67565b60405180910390fd5b610a4f6000611438565b565b610a596111f0565b73ffffffffffffffffffffffffffffffffffffffff16610a77610b1a565b73ffffffffffffffffffffffffffffffffffffffff1614610acd576040517f08c379a0000000000000000000000000000000000000000000000000000000008152600401610ac490611e67565b60405180910390fd5b60008111610b10576040517f08c379a0000000000000000000000000000000000000000000000000000000008152600401610b0790611f27565b60405180910390fd5b80600a8190555050565b60008060009054906101000a900473ffffffffffffffffffffffffffffffffffffffff16905090565b6000600680549050905090565b60068181548110610b6057600080fd5b906000526020600020016000915054906101000a900473ffffffffffffffffffffffffffffffffffffffff1681565b610b976111f0565b73ffffffffffffffffffffffffffffffffffffffff16610bb5610b1a565b73ffffffffffffffffffffffffffffffffffffffff1614610c0b576040517f08c379a0000000000000000000000000000000000000000000000000000000008152600401610c0290611e67565b60405180910390fd5b600073ffffffffffffffffffffffffffffffffffffffff168273ffffffffffffffffffffffffffffffffffffffff161415610c7b576040517f08c379a0000000000000000000000000000000000000000000000000000000008152600401610c7290611e87565b60405180910390fd5b60008111610cbe576040517f08c379a0000000000000000000000000000000000000000000000000000000008152600401610cb590611e07565b60405180910390fd5b600a54610cc9610b43565b1115610d0a576040517f08c379a0000000000000000000000000000000000000000000000000000000008152600401610d0190611ec7565b60405180910390fd5b600760008373ffffffffffffffffffffffffffffffffffffffff1673ffffffffffffffffffffffffffffffffffffffff16815260200190815260200160002060009054906101000a900460ff1615610d97576040517f08c379a0000000000000000000000000000000000000000000000000000000008152600401610d8e90611ee7565b60405180910390fd5b6006829080600181540180825580915050600190039060005260206000200160009091909190916101000a81548173ffffffffffffffffffffffffffffffffffffffff021916908373ffffffffffffffffffffffffffffffffffffffff16021790555080600860008473ffffffffffffffffffffffffffffffffffffffff1673ffffffffffffffffffffffffffffffffffffffff16815260200190815260200160002081905550610e538160055461142290919063ffffffff16565b6005819055506001600760008473ffffffffffffffffffffffffffffffffffffffff1673ffffffffffffffffffffffffffffffffffffffff16815260200190815260200160002060006101000a81548160ff0219169083151502179055508173ffffffffffffffffffffffffffffffffffffffff167fe6b83177f11971ba30369bb38b914ffba97d5969a3c857b286fa8fdbb150b3ba600860008573ffffffffffffffffffffffffffffffffffffffff1673ffffffffffffffffffffffffffffffffffffffff16815260200190815260200160002054604051610f369190611f47565b60405180910390a25050565b610f4a6111f0565b73ffffffffffffffffffffffffffffffffffffffff16610f68610b1a565b73ffffffffffffffffffffffffffffffffffffffff1614610fbe576040517f08c379a0000000000000000000000000000000000000000000000000000000008152600401610fb590611e67565b60405180910390fd5b600073ffffffffffffffffffffffffffffffffffffffff168173ffffffffffffffffffffffffffffffffffffffff16141561102e576040517f08c379a000000000000000000000000000000000000000000000000000000000815260040161102590611da7565b60405180910390fd5b61103781611438565b50565b6110426111f0565b73ffffffffffffffffffffffffffffffffffffffff16611060610b1a565b73ffffffffffffffffffffffffffffffffffffffff16146110b6576040517f08c379a00000000000000000000000000000000000000000000000000000000081526004016110ad90611e67565b60405180910390fd5b600083141580156110ce57506110ca6114fc565b8310155b61110d576040517f08c379a000000000000000000000000000000000000000000000000000000000815260040161110490611d67565b60405180910390fd5b6001821015611151576040517f08c379a000000000000000000000000000000000000000000000000000000000815260040161114890611e47565b60405180910390fd5b6001811015611195576040517f08c379a000000000000000000000000000000000000000000000000000000000815260040161118c90611e27565b60405180910390fd5b8260028190555081600381905550806004819055507ffd0bfab6cf562d79ade144330370f03c29b18fbe8d9148a6e052246960ece22a6002546003546004546040516111e393929190611f62565b60405180910390a1505050565b600033905090565b600080611216603c6112086114fc565b61150490919063ffffffff16565b90506000611230603c60025461150490919063ffffffff16565b9050600061125f603c6112516201518060035461151a90919063ffffffff16565b61150490919063ffffffff16565b9050611274818361142290919063ffffffff16565b8310156113865760006112a4600454611296858761153090919063ffffffff16565b61150490919063ffffffff16565b905060006112bd6004548461150490919063ffffffff16565b90506000611376600960008a73ffffffffffffffffffffffffffffffffffffffff1673ffffffffffffffffffffffffffffffffffffffff168152602001908152602001600020546113688461135a87600860008f73ffffffffffffffffffffffffffffffffffffffff1673ffffffffffffffffffffffffffffffffffffffff1681526020019081526020016000205461151a90919063ffffffff16565b61150490919063ffffffff16565b61153090919063ffffffff16565b905080965050505050505061141d565b611417600960008773ffffffffffffffffffffffffffffffffffffffff1673ffffffffffffffffffffffffffffffffffffffff16815260200190815260200160002054600860008873ffffffffffffffffffffffffffffffffffffffff1673ffffffffffffffffffffffffffffffffffffffff1681526020019081526020016000205461153090919063ffffffff16565b93505050505b919050565b600081836114309190611faa565b905092915050565b60008060009054906101000a900473ffffffffffffffffffffffffffffffffffffffff169050816000806101000a81548173ffffffffffffffffffffffffffffffffffffffff021916908373ffffffffffffffffffffffffffffffffffffffff1602179055508173ffffffffffffffffffffffffffffffffffffffff168173ffffffffffffffffffffffffffffffffffffffff167f8be0079c531659141344cd1fd0a4f28419497f9722a3daafe3b4186f6b6457e060405160405180910390a35050565b600042905090565b600081836115129190612000565b905092915050565b600081836115289190612031565b905092915050565b6000818361153e919061208b565b905092915050565b60008135905061155581612165565b92915050565b60008151905061156a8161217c565b92915050565b60008135905061157f81612193565b92915050565b60006020828403121561159757600080fd5b60006115a584828501611546565b91505092915050565b600080604083850312156115c157600080fd5b60006115cf85828601611546565b92505060206115e085828601611570565b9150509250929050565b6000602082840312156115fc57600080fd5b600061160a8482850161155b565b91505092915050565b60006020828403121561162557600080fd5b600061163384828501611570565b91505092915050565b60008060006060848603121561165157600080fd5b600061165f86828701611570565b935050602061167086828701611570565b925050604061168186828701611570565b9150509250925092565b611694816120bf565b82525050565b60006116a7604a83611f99565b91507f546f6b656e56657374696e673a20496e76616c69642073746172742074696d6560008301527f2e2053746172742074696d652063616e2774206265206265666f72652063757260208301527f72656e742074696d652e000000000000000000000000000000000000000000006040830152606082019050919050565b6000611733603e83611f99565b91507f546f6b656e56657374696e673a204f6e6c79206f776e6572206f72206120766160008301527f6c69642062656e65666963696172792063616e2062652063616c6c65722e00006020830152604082019050919050565b6000611799602683611f99565b91507f4f776e61626c653a206e6577206f776e657220697320746865207a65726f206160008301527f64647265737300000000000000000000000000000000000000000000000000006020830152604082019050919050565b60006117ff603b83611f99565b91507f546f6b656e56657374696e673a204d696e696d756d206475726174696f6e206360008301527f616e6e6f74206265206c6573736572207468616e2031206461792e00000000006020830152604082019050919050565b6000611865604583611f99565b91507f546f6b656e56657374696e673a2052656c6561736520616d6f756e742063616e60008301527f6e6f74206265206d6f7265207468616e20746f74616c2076657374696e67206160208301527f6d6f756e740000000000000000000000000000000000000000000000000000006040830152606082019050919050565b60006118f1603683611f99565b91507f546f6b656e56657374696e673a2056657374696e6720616d6f756e74206d757360008301527f742062652067726561746572207468616e207a65726f000000000000000000006020830152604082019050919050565b6000611957603e83611f99565b91507f546f6b656e56657374696e673a2052656c65617365207363686564756c65206360008301527f616e6e6f74206265206c6573736572207468616e2031206d696e7574652e00006020830152604082019050919050565b60006119bd602f83611f99565b91507f546f6b656e56657374696e673a204d696e696d756d2076657374696e6720647560008301527f726174696f6e20697320312064617900000000000000000000000000000000006020830152604082019050919050565b6000611a23602083611f99565b91507f4f776e61626c653a2063616c6c6572206973206e6f7420746865206f776e65726000830152602082019050919050565b6000611a63603983611f99565b91507f546f6b656e56657374696e673a205a65726f20616464726573732063616e6e6f60008301527f742062652073657420617320612062656e6566696369617279000000000000006020830152604082019050919050565b6000611ac9604e83611f99565b91507f546f6b656e56657374696e673a20456e74657265642072656c6561736520616d60008301527f6f756e742069732067726561746572207468616e2063757572656e742072656c60208301527f65617361626c6520616d6f756e740000000000000000000000000000000000006040830152606082019050919050565b6000611b55603183611f99565b91507f546f6b656e56657374696e673a2042656e656669636961727920636f756e742060008301527f6861732072656163686564206c696d69740000000000000000000000000000006020830152604082019050919050565b6000611bbb602783611f99565b91507f546f6b656e56657374696e673a2042656e656669636961727920616c7265616460008301527f79206164646564000000000000000000000000000000000000000000000000006020830152604082019050919050565b6000611c21603283611f99565b91507f546f6b656e56657374696e673a20496e76616c69642062656e6566696369617260008301527f79206164647265737320646574656374656400000000000000000000000000006020830152604082019050919050565b6000611c87604183611f99565b91507f546f6b656e56657374696e673a2042656e656669636961727920636f756e742060008301527f6c696d69742073686f756c642062652067726561746572207468616e207a657260208301527f6f000000000000000000000000000000000000000000000000000000000000006040830152606082019050919050565b611d0f816120fd565b82525050565b6000602082019050611d2a600083018461168b565b92915050565b6000606082019050611d45600083018661168b565b611d52602083018561168b565b611d5f6040830184611d06565b949350505050565b60006020820190508181036000830152611d808161169a565b9050919050565b60006020820190508181036000830152611da081611726565b9050919050565b60006020820190508181036000830152611dc08161178c565b9050919050565b60006020820190508181036000830152611de0816117f2565b9050919050565b60006020820190508181036000830152611e0081611858565b9050919050565b60006020820190508181036000830152611e20816118e4565b9050919050565b60006020820190508181036000830152611e408161194a565b9050919050565b60006020820190508181036000830152611e60816119b0565b9050919050565b60006020820190508181036000830152611e8081611a16565b9050919050565b60006020820190508181036000830152611ea081611a56565b9050919050565b60006020820190508181036000830152611ec081611abc565b9050919050565b60006020820190508181036000830152611ee081611b48565b9050919050565b60006020820190508181036000830152611f0081611bae565b9050919050565b60006020820190508181036000830152611f2081611c14565b9050919050565b60006020820190508181036000830152611f4081611c7a565b9050919050565b6000602082019050611f5c6000830184611d06565b92915050565b6000606082019050611f776000830186611d06565b611f846020830185611d06565b611f916040830184611d06565b949350505050565b600082825260208201905092915050565b6000611fb5826120fd565b9150611fc0836120fd565b9250827fffffffffffffffffffffffffffffffffffffffffffffffffffffffffffffffff03821115611ff557611ff4612107565b5b828201905092915050565b600061200b826120fd565b9150612016836120fd565b92508261202657612025612136565b5b828204905092915050565b600061203c826120fd565b9150612047836120fd565b9250817fffffffffffffffffffffffffffffffffffffffffffffffffffffffffffffffff04831182151516156120805761207f612107565b5b828202905092915050565b6000612096826120fd565b91506120a1836120fd565b9250828210156120b4576120b3612107565b5b828203905092915050565b60006120ca826120dd565b9050919050565b60008115159050919050565b600073ffffffffffffffffffffffffffffffffffffffff82169050919050565b6000819050919050565b7f4e487b7100000000000000000000000000000000000000000000000000000000600052601160045260246000fd5b7f4e487b7100000000000000000000000000000000000000000000000000000000600052601260045260246000fd5b61216e816120bf565b811461217957600080fd5b50565b612185816120d1565b811461219057600080fd5b50565b61219c816120fd565b81146121a757600080fd5b5056fea26469706673582212205ccf903faff900e077957894135b9635463305a3c31bc5eb30cd7c736881a04d64736f6c63430008000033",
					"opcodes": "PUSH1 0x80 PUSH1 0x40 MSTORE CALLVALUE DUP1 ISZERO PUSH3 0x11 JUMPI PUSH1 0x0 DUP1 REVERT JUMPDEST POP PUSH1 0x40 MLOAD PUSH3 0x23FB CODESIZE SUB DUP1 PUSH3 0x23FB DUP4 CODECOPY DUP2 DUP2 ADD PUSH1 0x40 MSTORE DUP2 ADD SWAP1 PUSH3 0x37 SWAP2 SWAP1 PUSH3 0x191 JUMP JUMPDEST PUSH3 0x57 PUSH3 0x4B PUSH3 0xAE PUSH1 0x20 SHL PUSH1 0x20 SHR JUMP JUMPDEST PUSH3 0xB6 PUSH1 0x20 SHL PUSH1 0x20 SHR JUMP JUMPDEST DUP1 PUSH1 0x1 PUSH1 0x0 PUSH2 0x100 EXP DUP2 SLOAD DUP2 PUSH20 0xFFFFFFFFFFFFFFFFFFFFFFFFFFFFFFFFFFFFFFFF MUL NOT AND SWAP1 DUP4 PUSH20 0xFFFFFFFFFFFFFFFFFFFFFFFFFFFFFFFFFFFFFFFF AND MUL OR SWAP1 SSTORE POP PUSH1 0xA DUP1 DUP2 SWAP1 SSTORE POP PUSH1 0x1 PUSH1 0xB DUP2 SWAP1 SSTORE POP POP PUSH3 0x20B JUMP JUMPDEST PUSH1 0x0 CALLER SWAP1 POP SWAP1 JUMP JUMPDEST PUSH1 0x0 DUP1 PUSH1 0x0 SWAP1 SLOAD SWAP1 PUSH2 0x100 EXP SWAP1 DIV PUSH20 0xFFFFFFFFFFFFFFFFFFFFFFFFFFFFFFFFFFFFFFFF AND SWAP1 POP DUP2 PUSH1 0x0 DUP1 PUSH2 0x100 EXP DUP2 SLOAD DUP2 PUSH20 0xFFFFFFFFFFFFFFFFFFFFFFFFFFFFFFFFFFFFFFFF MUL NOT AND SWAP1 DUP4 PUSH20 0xFFFFFFFFFFFFFFFFFFFFFFFFFFFFFFFFFFFFFFFF AND MUL OR SWAP1 SSTORE POP DUP2 PUSH20 0xFFFFFFFFFFFFFFFFFFFFFFFFFFFFFFFFFFFFFFFF AND DUP2 PUSH20 0xFFFFFFFFFFFFFFFFFFFFFFFFFFFFFFFFFFFFFFFF AND PUSH32 0x8BE0079C531659141344CD1FD0A4F28419497F9722A3DAAFE3B4186F6B6457E0 PUSH1 0x40 MLOAD PUSH1 0x40 MLOAD DUP1 SWAP2 SUB SWAP1 LOG3 POP POP JUMP JUMPDEST PUSH1 0x0 DUP2 MLOAD SWAP1 POP PUSH3 0x18B DUP2 PUSH3 0x1F1 JUMP JUMPDEST SWAP3 SWAP2 POP POP JUMP JUMPDEST PUSH1 0x0 PUSH1 0x20 DUP3 DUP5 SUB SLT ISZERO PUSH3 0x1A4 JUMPI PUSH1 0x0 DUP1 REVERT JUMPDEST PUSH1 0x0 PUSH3 0x1B4 DUP5 DUP3 DUP6 ADD PUSH3 0x17A JUMP JUMPDEST SWAP2 POP POP SWAP3 SWAP2 POP POP JUMP JUMPDEST PUSH1 0x0 PUSH3 0x1CA DUP3 PUSH3 0x1D1 JUMP JUMPDEST SWAP1 POP SWAP2 SWAP1 POP JUMP JUMPDEST PUSH1 0x0 PUSH20 0xFFFFFFFFFFFFFFFFFFFFFFFFFFFFFFFFFFFFFFFF DUP3 AND SWAP1 POP SWAP2 SWAP1 POP JUMP JUMPDEST PUSH3 0x1FC DUP2 PUSH3 0x1BD JUMP JUMPDEST DUP2 EQ PUSH3 0x208 JUMPI PUSH1 0x0 DUP1 REVERT JUMPDEST POP JUMP JUMPDEST PUSH2 0x21E0 DUP1 PUSH3 0x21B PUSH1 0x0 CODECOPY PUSH1 0x0 RETURN INVALID PUSH1 0x80 PUSH1 0x40 MSTORE CALLVALUE DUP1 ISZERO PUSH2 0x10 JUMPI PUSH1 0x0 DUP1 REVERT JUMPDEST POP PUSH1 0x4 CALLDATASIZE LT PUSH2 0x100 JUMPI PUSH1 0x0 CALLDATALOAD PUSH1 0xE0 SHR DUP1 PUSH4 0x715018A6 GT PUSH2 0x97 JUMPI DUP1 PUSH4 0x9E761BBB GT PUSH2 0x66 JUMPI DUP1 PUSH4 0x9E761BBB EQ PUSH2 0x265 JUMPI DUP1 PUSH4 0x9F79685E EQ PUSH2 0x295 JUMPI DUP1 PUSH4 0xF2FDE38B EQ PUSH2 0x2B1 JUMPI DUP1 PUSH4 0xFC99D9A1 EQ PUSH2 0x2CD JUMPI PUSH2 0x100 JUMP JUMPDEST DUP1 PUSH4 0x715018A6 EQ PUSH2 0x203 JUMPI DUP1 PUSH4 0x75DE48AB EQ PUSH2 0x20D JUMPI DUP1 PUSH4 0x8DA5CB5B EQ PUSH2 0x229 JUMPI DUP1 PUSH4 0x9A6E7FD1 EQ PUSH2 0x247 JUMPI PUSH2 0x100 JUMP JUMPDEST DUP1 PUSH4 0x566B041D GT PUSH2 0xD3 JUMPI DUP1 PUSH4 0x566B041D EQ PUSH2 0x18B JUMPI DUP1 PUSH4 0x59A075EC EQ PUSH2 0x1A7 JUMPI DUP1 PUSH4 0x65473FD2 EQ PUSH2 0x1C5 JUMPI DUP1 PUSH4 0x66923995 EQ PUSH2 0x1E3 JUMPI PUSH2 0x100 JUMP JUMPDEST DUP1 PUSH4 0x357371D EQ PUSH2 0x105 JUMPI DUP1 PUSH4 0x2AFD1A7D EQ PUSH2 0x121 JUMPI DUP1 PUSH4 0x366340CA EQ PUSH2 0x151 JUMPI DUP1 PUSH4 0x4A917A2F EQ PUSH2 0x16F JUMPI JUMPDEST PUSH1 0x0 DUP1 REVERT JUMPDEST PUSH2 0x11F PUSH1 0x4 DUP1 CALLDATASIZE SUB DUP2 ADD SWAP1 PUSH2 0x11A SWAP2 SWAP1 PUSH2 0x15AE JUMP JUMPDEST PUSH2 0x2E9 JUMP JUMPDEST STOP JUMPDEST PUSH2 0x13B PUSH1 0x4 DUP1 CALLDATASIZE SUB DUP2 ADD SWAP1 PUSH2 0x136 SWAP2 SWAP1 PUSH2 0x1585 JUMP JUMPDEST PUSH2 0x715 JUMP JUMPDEST PUSH1 0x40 MLOAD PUSH2 0x148 SWAP2 SWAP1 PUSH2 0x1F47 JUMP JUMPDEST PUSH1 0x40 MLOAD DUP1 SWAP2 SUB SWAP1 RETURN JUMPDEST PUSH2 0x159 PUSH2 0x7F4 JUMP JUMPDEST PUSH1 0x40 MLOAD PUSH2 0x166 SWAP2 SWAP1 PUSH2 0x1F47 JUMP JUMPDEST PUSH1 0x40 MLOAD DUP1 SWAP2 SUB SWAP1 RETURN JUMPDEST PUSH2 0x189 PUSH1 0x4 DUP1 CALLDATASIZE SUB DUP2 ADD SWAP1 PUSH2 0x184 SWAP2 SWAP1 PUSH2 0x1585 JUMP JUMPDEST PUSH2 0x7FA JUMP JUMPDEST STOP JUMPDEST PUSH2 0x1A5 PUSH1 0x4 DUP1 CALLDATASIZE SUB DUP2 ADD SWAP1 PUSH2 0x1A0 SWAP2 SWAP1 PUSH2 0x1613 JUMP JUMPDEST PUSH2 0x8BA JUMP JUMPDEST STOP JUMPDEST PUSH2 0x1AF PUSH2 0x984 JUMP JUMPDEST PUSH1 0x40 MLOAD PUSH2 0x1BC SWAP2 SWAP1 PUSH2 0x1F47 JUMP JUMPDEST PUSH1 0x40 MLOAD DUP1 SWAP2 SUB SWAP1 RETURN JUMPDEST PUSH2 0x1CD PUSH2 0x98A JUMP JUMPDEST PUSH1 0x40 MLOAD PUSH2 0x1DA SWAP2 SWAP1 PUSH2 0x1D15 JUMP JUMPDEST PUSH1 0x40 MLOAD DUP1 SWAP2 SUB SWAP1 RETURN JUMPDEST PUSH2 0x1EB PUSH2 0x9B0 JUMP JUMPDEST PUSH1 0x40 MLOAD PUSH2 0x1FA SWAP4 SWAP3 SWAP2 SWAP1 PUSH2 0x1F62 JUMP JUMPDEST PUSH1 0x40 MLOAD DUP1 SWAP2 SUB SWAP1 RETURN JUMPDEST PUSH2 0x20B PUSH2 0x9C9 JUMP JUMPDEST STOP JUMPDEST PUSH2 0x227 PUSH1 0x4 DUP1 CALLDATASIZE SUB DUP2 ADD SWAP1 PUSH2 0x222 SWAP2 SWAP1 PUSH2 0x1613 JUMP JUMPDEST PUSH2 0xA51 JUMP JUMPDEST STOP JUMPDEST PUSH2 0x231 PUSH2 0xB1A JUMP JUMPDEST PUSH1 0x40 MLOAD PUSH2 0x23E SWAP2 SWAP1 PUSH2 0x1D15 JUMP JUMPDEST PUSH1 0x40 MLOAD DUP1 SWAP2 SUB SWAP1 RETURN JUMPDEST PUSH2 0x24F PUSH2 0xB43 JUMP JUMPDEST PUSH1 0x40 MLOAD PUSH2 0x25C SWAP2 SWAP1 PUSH2 0x1F47 JUMP JUMPDEST PUSH1 0x40 MLOAD DUP1 SWAP2 SUB SWAP1 RETURN JUMPDEST PUSH2 0x27F PUSH1 0x4 DUP1 CALLDATASIZE SUB DUP2 ADD SWAP1 PUSH2 0x27A SWAP2 SWAP1 PUSH2 0x1613 JUMP JUMPDEST PUSH2 0xB50 JUMP JUMPDEST PUSH1 0x40 MLOAD PUSH2 0x28C SWAP2 SWAP1 PUSH2 0x1D15 JUMP JUMPDEST PUSH1 0x40 MLOAD DUP1 SWAP2 SUB SWAP1 RETURN JUMPDEST PUSH2 0x2AF PUSH1 0x4 DUP1 CALLDATASIZE SUB DUP2 ADD SWAP1 PUSH2 0x2AA SWAP2 SWAP1 PUSH2 0x15AE JUMP JUMPDEST PUSH2 0xB8F JUMP JUMPDEST STOP JUMPDEST PUSH2 0x2CB PUSH1 0x4 DUP1 CALLDATASIZE SUB DUP2 ADD SWAP1 PUSH2 0x2C6 SWAP2 SWAP1 PUSH2 0x1585 JUMP JUMPDEST PUSH2 0xF42 JUMP JUMPDEST STOP JUMPDEST PUSH2 0x2E7 PUSH1 0x4 DUP1 CALLDATASIZE SUB DUP2 ADD SWAP1 PUSH2 0x2E2 SWAP2 SWAP1 PUSH2 0x163C JUMP JUMPDEST PUSH2 0x103A JUMP JUMPDEST STOP JUMPDEST DUP2 PUSH1 0x7 PUSH1 0x0 DUP3 PUSH20 0xFFFFFFFFFFFFFFFFFFFFFFFFFFFFFFFFFFFFFFFF AND PUSH20 0xFFFFFFFFFFFFFFFFFFFFFFFFFFFFFFFFFFFFFFFF AND DUP2 MSTORE PUSH1 0x20 ADD SWAP1 DUP2 MSTORE PUSH1 0x20 ADD PUSH1 0x0 KECCAK256 PUSH1 0x0 SWAP1 SLOAD SWAP1 PUSH2 0x100 EXP SWAP1 DIV PUSH1 0xFF AND DUP1 ISZERO PUSH2 0x370 JUMPI POP PUSH1 0x0 PUSH20 0xFFFFFFFFFFFFFFFFFFFFFFFFFFFFFFFFFFFFFFFF AND DUP2 PUSH20 0xFFFFFFFFFFFFFFFFFFFFFFFFFFFFFFFFFFFFFFFF AND EQ ISZERO JUMPDEST PUSH2 0x3AF JUMPI PUSH1 0x40 MLOAD PUSH32 0x8C379A000000000000000000000000000000000000000000000000000000000 DUP2 MSTORE PUSH1 0x4 ADD PUSH2 0x3A6 SWAP1 PUSH2 0x1F07 JUMP JUMPDEST PUSH1 0x40 MLOAD DUP1 SWAP2 SUB SWAP1 REVERT JUMPDEST PUSH2 0x3B7 PUSH2 0xB1A JUMP JUMPDEST PUSH20 0xFFFFFFFFFFFFFFFFFFFFFFFFFFFFFFFFFFFFFFFF AND PUSH2 0x3D5 PUSH2 0x11F0 JUMP JUMPDEST PUSH20 0xFFFFFFFFFFFFFFFFFFFFFFFFFFFFFFFFFFFFFFFF AND EQ DUP1 PUSH2 0x447 JUMPI POP PUSH1 0x7 PUSH1 0x0 PUSH2 0x3FE PUSH2 0x11F0 JUMP JUMPDEST PUSH20 0xFFFFFFFFFFFFFFFFFFFFFFFFFFFFFFFFFFFFFFFF AND PUSH20 0xFFFFFFFFFFFFFFFFFFFFFFFFFFFFFFFFFFFFFFFF AND DUP2 MSTORE PUSH1 0x20 ADD SWAP1 DUP2 MSTORE PUSH1 0x20 ADD PUSH1 0x0 KECCAK256 PUSH1 0x0 SWAP1 SLOAD SWAP1 PUSH2 0x100 EXP SWAP1 DIV PUSH1 0xFF AND JUMPDEST PUSH2 0x486 JUMPI PUSH1 0x40 MLOAD PUSH32 0x8C379A000000000000000000000000000000000000000000000000000000000 DUP2 MSTORE PUSH1 0x4 ADD PUSH2 0x47D SWAP1 PUSH2 0x1D87 JUMP JUMPDEST PUSH1 0x40 MLOAD DUP1 SWAP2 SUB SWAP1 REVERT JUMPDEST PUSH1 0x8 PUSH1 0x0 DUP5 PUSH20 0xFFFFFFFFFFFFFFFFFFFFFFFFFFFFFFFFFFFFFFFF AND PUSH20 0xFFFFFFFFFFFFFFFFFFFFFFFFFFFFFFFFFFFFFFFF AND DUP2 MSTORE PUSH1 0x20 ADD SWAP1 DUP2 MSTORE PUSH1 0x20 ADD PUSH1 0x0 KECCAK256 SLOAD DUP3 GT ISZERO PUSH2 0x508 JUMPI PUSH1 0x40 MLOAD PUSH32 0x8C379A000000000000000000000000000000000000000000000000000000000 DUP2 MSTORE PUSH1 0x4 ADD PUSH2 0x4FF SWAP1 PUSH2 0x1DE7 JUMP JUMPDEST PUSH1 0x40 MLOAD DUP1 SWAP2 SUB SWAP1 REVERT JUMPDEST PUSH1 0x0 PUSH2 0x513 DUP5 PUSH2 0x11F8 JUMP JUMPDEST SWAP1 POP DUP1 DUP4 GT ISZERO PUSH2 0x558 JUMPI PUSH1 0x40 MLOAD PUSH32 0x8C379A000000000000000000000000000000000000000000000000000000000 DUP2 MSTORE PUSH1 0x4 ADD PUSH2 0x54F SWAP1 PUSH2 0x1EA7 JUMP JUMPDEST PUSH1 0x40 MLOAD DUP1 SWAP2 SUB SWAP1 REVERT JUMPDEST PUSH2 0x5AA DUP4 PUSH1 0x9 PUSH1 0x0 DUP8 PUSH20 0xFFFFFFFFFFFFFFFFFFFFFFFFFFFFFFFFFFFFFFFF AND PUSH20 0xFFFFFFFFFFFFFFFFFFFFFFFFFFFFFFFFFFFFFFFF AND DUP2 MSTORE PUSH1 0x20 ADD SWAP1 DUP2 MSTORE PUSH1 0x20 ADD PUSH1 0x0 KECCAK256 SLOAD PUSH2 0x1422 SWAP1 SWAP2 SWAP1 PUSH4 0xFFFFFFFF AND JUMP JUMPDEST PUSH1 0x9 PUSH1 0x0 DUP7 PUSH20 0xFFFFFFFFFFFFFFFFFFFFFFFFFFFFFFFFFFFFFFFF AND PUSH20 0xFFFFFFFFFFFFFFFFFFFFFFFFFFFFFFFFFFFFFFFF AND DUP2 MSTORE PUSH1 0x20 ADD SWAP1 DUP2 MSTORE PUSH1 0x20 ADD PUSH1 0x0 KECCAK256 DUP2 SWAP1 SSTORE POP DUP4 PUSH20 0xFFFFFFFFFFFFFFFFFFFFFFFFFFFFFFFFFFFFFFFF AND PUSH32 0xF6334794522B9DB534A812AAAE1AF828A2E96AAC68473B58E36D7D0BFD67477B DUP5 PUSH1 0x40 MLOAD PUSH2 0x633 SWAP2 SWAP1 PUSH2 0x1F47 JUMP JUMPDEST PUSH1 0x40 MLOAD DUP1 SWAP2 SUB SWAP1 LOG2 PUSH1 0x1 PUSH1 0x0 SWAP1 SLOAD SWAP1 PUSH2 0x100 EXP SWAP1 DIV PUSH20 0xFFFFFFFFFFFFFFFFFFFFFFFFFFFFFFFFFFFFFFFF AND PUSH20 0xFFFFFFFFFFFFFFFFFFFFFFFFFFFFFFFFFFFFFFFF AND PUSH4 0x23B872DD PUSH1 0xC PUSH1 0x0 SWAP1 SLOAD SWAP1 PUSH2 0x100 EXP SWAP1 DIV PUSH20 0xFFFFFFFFFFFFFFFFFFFFFFFFFFFFFFFFFFFFFFFF AND DUP7 DUP7 PUSH1 0x40 MLOAD DUP5 PUSH4 0xFFFFFFFF AND PUSH1 0xE0 SHL DUP2 MSTORE PUSH1 0x4 ADD PUSH2 0x6BC SWAP4 SWAP3 SWAP2 SWAP1 PUSH2 0x1D30 JUMP JUMPDEST PUSH1 0x20 PUSH1 0x40 MLOAD DUP1 DUP4 SUB DUP2 PUSH1 0x0 DUP8 DUP1 EXTCODESIZE ISZERO DUP1 ISZERO PUSH2 0x6D6 JUMPI PUSH1 0x0 DUP1 REVERT JUMPDEST POP GAS CALL ISZERO DUP1 ISZERO PUSH2 0x6EA JUMPI RETURNDATASIZE PUSH1 0x0 DUP1 RETURNDATACOPY RETURNDATASIZE PUSH1 0x0 REVERT JUMPDEST POP POP POP POP PUSH1 0x40 MLOAD RETURNDATASIZE PUSH1 0x1F NOT PUSH1 0x1F DUP3 ADD AND DUP3 ADD DUP1 PUSH1 0x40 MSTORE POP DUP2 ADD SWAP1 PUSH2 0x70E SWAP2 SWAP1 PUSH2 0x15EA JUMP JUMPDEST POP POP POP POP POP JUMP JUMPDEST PUSH1 0x0 DUP2 PUSH1 0x7 PUSH1 0x0 DUP3 PUSH20 0xFFFFFFFFFFFFFFFFFFFFFFFFFFFFFFFFFFFFFFFF AND PUSH20 0xFFFFFFFFFFFFFFFFFFFFFFFFFFFFFFFFFFFFFFFF AND DUP2 MSTORE PUSH1 0x20 ADD SWAP1 DUP2 MSTORE PUSH1 0x20 ADD PUSH1 0x0 KECCAK256 PUSH1 0x0 SWAP1 SLOAD SWAP1 PUSH2 0x100 EXP SWAP1 DIV PUSH1 0xFF AND DUP1 ISZERO PUSH2 0x79E JUMPI POP PUSH1 0x0 PUSH20 0xFFFFFFFFFFFFFFFFFFFFFFFFFFFFFFFFFFFFFFFF AND DUP2 PUSH20 0xFFFFFFFFFFFFFFFFFFFFFFFFFFFFFFFFFFFFFFFF AND EQ ISZERO JUMPDEST PUSH2 0x7DD JUMPI PUSH1 0x40 MLOAD PUSH32 0x8C379A000000000000000000000000000000000000000000000000000000000 DUP2 MSTORE PUSH1 0x4 ADD PUSH2 0x7D4 SWAP1 PUSH2 0x1F07 JUMP JUMPDEST PUSH1 0x40 MLOAD DUP1 SWAP2 SUB SWAP1 REVERT JUMPDEST PUSH1 0x0 PUSH2 0x7E8 DUP5 PUSH2 0x11F8 JUMP JUMPDEST SWAP1 POP DUP1 SWAP3 POP POP POP SWAP2 SWAP1 POP JUMP JUMPDEST PUSH1 0xA SLOAD DUP2 JUMP JUMPDEST PUSH2 0x802 PUSH2 0x11F0 JUMP JUMPDEST PUSH20 0xFFFFFFFFFFFFFFFFFFFFFFFFFFFFFFFFFFFFFFFF AND PUSH2 0x820 PUSH2 0xB1A JUMP JUMPDEST PUSH20 0xFFFFFFFFFFFFFFFFFFFFFFFFFFFFFFFFFFFFFFFF AND EQ PUSH2 0x876 JUMPI PUSH1 0x40 MLOAD PUSH32 0x8C379A000000000000000000000000000000000000000000000000000000000 DUP2 MSTORE PUSH1 0x4 ADD PUSH2 0x86D SWAP1 PUSH2 0x1E67 JUMP JUMPDEST PUSH1 0x40 MLOAD DUP1 SWAP2 SUB SWAP1 REVERT JUMPDEST DUP1 PUSH1 0xC PUSH1 0x0 PUSH2 0x100 EXP DUP2 SLOAD DUP2 PUSH20 0xFFFFFFFFFFFFFFFFFFFFFFFFFFFFFFFFFFFFFFFF MUL NOT AND SWAP1 DUP4 PUSH20 0xFFFFFFFFFFFFFFFFFFFFFFFFFFFFFFFFFFFFFFFF AND MUL OR SWAP1 SSTORE POP POP JUMP JUMPDEST PUSH2 0x8C2 PUSH2 0x11F0 JUMP JUMPDEST PUSH20 0xFFFFFFFFFFFFFFFFFFFFFFFFFFFFFFFFFFFFFFFF AND PUSH2 0x8E0 PUSH2 0xB1A JUMP JUMPDEST PUSH20 0xFFFFFFFFFFFFFFFFFFFFFFFFFFFFFFFFFFFFFFFF AND EQ PUSH2 0x936 JUMPI PUSH1 0x40 MLOAD PUSH32 0x8C379A000000000000000000000000000000000000000000000000000000000 DUP2 MSTORE PUSH1 0x4 ADD PUSH2 0x92D SWAP1 PUSH2 0x1E67 JUMP JUMPDEST PUSH1 0x40 MLOAD DUP1 SWAP2 SUB SWAP1 REVERT JUMPDEST PUSH1 0x1 DUP2 LT ISZERO PUSH2 0x97A JUMPI PUSH1 0x40 MLOAD PUSH32 0x8C379A000000000000000000000000000000000000000000000000000000000 DUP2 MSTORE PUSH1 0x4 ADD PUSH2 0x971 SWAP1 PUSH2 0x1DC7 JUMP JUMPDEST PUSH1 0x40 MLOAD DUP1 SWAP2 SUB SWAP1 REVERT JUMPDEST DUP1 PUSH1 0xB DUP2 SWAP1 SSTORE POP POP JUMP JUMPDEST PUSH1 0xB SLOAD DUP2 JUMP JUMPDEST PUSH1 0xC PUSH1 0x0 SWAP1 SLOAD SWAP1 PUSH2 0x100 EXP SWAP1 DIV PUSH20 0xFFFFFFFFFFFFFFFFFFFFFFFFFFFFFFFFFFFFFFFF AND DUP2 JUMP JUMPDEST PUSH1 0x0 DUP1 PUSH1 0x0 PUSH1 0x2 SLOAD PUSH1 0x3 SLOAD PUSH1 0x4 SLOAD SWAP3 POP SWAP3 POP SWAP3 POP SWAP1 SWAP2 SWAP3 JUMP JUMPDEST PUSH2 0x9D1 PUSH2 0x11F0 JUMP JUMPDEST PUSH20 0xFFFFFFFFFFFFFFFFFFFFFFFFFFFFFFFFFFFFFFFF AND PUSH2 0x9EF PUSH2 0xB1A JUMP JUMPDEST PUSH20 0xFFFFFFFFFFFFFFFFFFFFFFFFFFFFFFFFFFFFFFFF AND EQ PUSH2 0xA45 JUMPI PUSH1 0x40 MLOAD PUSH32 0x8C379A000000000000000000000000000000000000000000000000000000000 DUP2 MSTORE PUSH1 0x4 ADD PUSH2 0xA3C SWAP1 PUSH2 0x1E67 JUMP JUMPDEST PUSH1 0x40 MLOAD DUP1 SWAP2 SUB SWAP1 REVERT JUMPDEST PUSH2 0xA4F PUSH1 0x0 PUSH2 0x1438 JUMP JUMPDEST JUMP JUMPDEST PUSH2 0xA59 PUSH2 0x11F0 JUMP JUMPDEST PUSH20 0xFFFFFFFFFFFFFFFFFFFFFFFFFFFFFFFFFFFFFFFF AND PUSH2 0xA77 PUSH2 0xB1A JUMP JUMPDEST PUSH20 0xFFFFFFFFFFFFFFFFFFFFFFFFFFFFFFFFFFFFFFFF AND EQ PUSH2 0xACD JUMPI PUSH1 0x40 MLOAD PUSH32 0x8C379A000000000000000000000000000000000000000000000000000000000 DUP2 MSTORE PUSH1 0x4 ADD PUSH2 0xAC4 SWAP1 PUSH2 0x1E67 JUMP JUMPDEST PUSH1 0x40 MLOAD DUP1 SWAP2 SUB SWAP1 REVERT JUMPDEST PUSH1 0x0 DUP2 GT PUSH2 0xB10 JUMPI PUSH1 0x40 MLOAD PUSH32 0x8C379A000000000000000000000000000000000000000000000000000000000 DUP2 MSTORE PUSH1 0x4 ADD PUSH2 0xB07 SWAP1 PUSH2 0x1F27 JUMP JUMPDEST PUSH1 0x40 MLOAD DUP1 SWAP2 SUB SWAP1 REVERT JUMPDEST DUP1 PUSH1 0xA DUP2 SWAP1 SSTORE POP POP JUMP JUMPDEST PUSH1 0x0 DUP1 PUSH1 0x0 SWAP1 SLOAD SWAP1 PUSH2 0x100 EXP SWAP1 DIV PUSH20 0xFFFFFFFFFFFFFFFFFFFFFFFFFFFFFFFFFFFFFFFF AND SWAP1 POP SWAP1 JUMP JUMPDEST PUSH1 0x0 PUSH1 0x6 DUP1 SLOAD SWAP1 POP SWAP1 POP SWAP1 JUMP JUMPDEST PUSH1 0x6 DUP2 DUP2 SLOAD DUP2 LT PUSH2 0xB60 JUMPI PUSH1 0x0 DUP1 REVERT JUMPDEST SWAP1 PUSH1 0x0 MSTORE PUSH1 0x20 PUSH1 0x0 KECCAK256 ADD PUSH1 0x0 SWAP2 POP SLOAD SWAP1 PUSH2 0x100 EXP SWAP1 DIV PUSH20 0xFFFFFFFFFFFFFFFFFFFFFFFFFFFFFFFFFFFFFFFF AND DUP2 JUMP JUMPDEST PUSH2 0xB97 PUSH2 0x11F0 JUMP JUMPDEST PUSH20 0xFFFFFFFFFFFFFFFFFFFFFFFFFFFFFFFFFFFFFFFF AND PUSH2 0xBB5 PUSH2 0xB1A JUMP JUMPDEST PUSH20 0xFFFFFFFFFFFFFFFFFFFFFFFFFFFFFFFFFFFFFFFF AND EQ PUSH2 0xC0B JUMPI PUSH1 0x40 MLOAD PUSH32 0x8C379A000000000000000000000000000000000000000000000000000000000 DUP2 MSTORE PUSH1 0x4 ADD PUSH2 0xC02 SWAP1 PUSH2 0x1E67 JUMP JUMPDEST PUSH1 0x40 MLOAD DUP1 SWAP2 SUB SWAP1 REVERT JUMPDEST PUSH1 0x0 PUSH20 0xFFFFFFFFFFFFFFFFFFFFFFFFFFFFFFFFFFFFFFFF AND DUP3 PUSH20 0xFFFFFFFFFFFFFFFFFFFFFFFFFFFFFFFFFFFFFFFF AND EQ ISZERO PUSH2 0xC7B JUMPI PUSH1 0x40 MLOAD PUSH32 0x8C379A000000000000000000000000000000000000000000000000000000000 DUP2 MSTORE PUSH1 0x4 ADD PUSH2 0xC72 SWAP1 PUSH2 0x1E87 JUMP JUMPDEST PUSH1 0x40 MLOAD DUP1 SWAP2 SUB SWAP1 REVERT JUMPDEST PUSH1 0x0 DUP2 GT PUSH2 0xCBE JUMPI PUSH1 0x40 MLOAD PUSH32 0x8C379A000000000000000000000000000000000000000000000000000000000 DUP2 MSTORE PUSH1 0x4 ADD PUSH2 0xCB5 SWAP1 PUSH2 0x1E07 JUMP JUMPDEST PUSH1 0x40 MLOAD DUP1 SWAP2 SUB SWAP1 REVERT JUMPDEST PUSH1 0xA SLOAD PUSH2 0xCC9 PUSH2 0xB43 JUMP JUMPDEST GT ISZERO PUSH2 0xD0A JUMPI PUSH1 0x40 MLOAD PUSH32 0x8C379A000000000000000000000000000000000000000000000000000000000 DUP2 MSTORE PUSH1 0x4 ADD PUSH2 0xD01 SWAP1 PUSH2 0x1EC7 JUMP JUMPDEST PUSH1 0x40 MLOAD DUP1 SWAP2 SUB SWAP1 REVERT JUMPDEST PUSH1 0x7 PUSH1 0x0 DUP4 PUSH20 0xFFFFFFFFFFFFFFFFFFFFFFFFFFFFFFFFFFFFFFFF AND PUSH20 0xFFFFFFFFFFFFFFFFFFFFFFFFFFFFFFFFFFFFFFFF AND DUP2 MSTORE PUSH1 0x20 ADD SWAP1 DUP2 MSTORE PUSH1 0x20 ADD PUSH1 0x0 KECCAK256 PUSH1 0x0 SWAP1 SLOAD SWAP1 PUSH2 0x100 EXP SWAP1 DIV PUSH1 0xFF AND ISZERO PUSH2 0xD97 JUMPI PUSH1 0x40 MLOAD PUSH32 0x8C379A000000000000000000000000000000000000000000000000000000000 DUP2 MSTORE PUSH1 0x4 ADD PUSH2 0xD8E SWAP1 PUSH2 0x1EE7 JUMP JUMPDEST PUSH1 0x40 MLOAD DUP1 SWAP2 SUB SWAP1 REVERT JUMPDEST PUSH1 0x6 DUP3 SWAP1 DUP1 PUSH1 0x1 DUP2 SLOAD ADD DUP1 DUP3 SSTORE DUP1 SWAP2 POP POP PUSH1 0x1 SWAP1 SUB SWAP1 PUSH1 0x0 MSTORE PUSH1 0x20 PUSH1 0x0 KECCAK256 ADD PUSH1 0x0 SWAP1 SWAP2 SWAP1 SWAP2 SWAP1 SWAP2 PUSH2 0x100 EXP DUP2 SLOAD DUP2 PUSH20 0xFFFFFFFFFFFFFFFFFFFFFFFFFFFFFFFFFFFFFFFF MUL NOT AND SWAP1 DUP4 PUSH20 0xFFFFFFFFFFFFFFFFFFFFFFFFFFFFFFFFFFFFFFFF AND MUL OR SWAP1 SSTORE POP DUP1 PUSH1 0x8 PUSH1 0x0 DUP5 PUSH20 0xFFFFFFFFFFFFFFFFFFFFFFFFFFFFFFFFFFFFFFFF AND PUSH20 0xFFFFFFFFFFFFFFFFFFFFFFFFFFFFFFFFFFFFFFFF AND DUP2 MSTORE PUSH1 0x20 ADD SWAP1 DUP2 MSTORE PUSH1 0x20 ADD PUSH1 0x0 KECCAK256 DUP2 SWAP1 SSTORE POP PUSH2 0xE53 DUP2 PUSH1 0x5 SLOAD PUSH2 0x1422 SWAP1 SWAP2 SWAP1 PUSH4 0xFFFFFFFF AND JUMP JUMPDEST PUSH1 0x5 DUP2 SWAP1 SSTORE POP PUSH1 0x1 PUSH1 0x7 PUSH1 0x0 DUP5 PUSH20 0xFFFFFFFFFFFFFFFFFFFFFFFFFFFFFFFFFFFFFFFF AND PUSH20 0xFFFFFFFFFFFFFFFFFFFFFFFFFFFFFFFFFFFFFFFF AND DUP2 MSTORE PUSH1 0x20 ADD SWAP1 DUP2 MSTORE PUSH1 0x20 ADD PUSH1 0x0 KECCAK256 PUSH1 0x0 PUSH2 0x100 EXP DUP2 SLOAD DUP2 PUSH1 0xFF MUL NOT AND SWAP1 DUP4 ISZERO ISZERO MUL OR SWAP1 SSTORE POP DUP2 PUSH20 0xFFFFFFFFFFFFFFFFFFFFFFFFFFFFFFFFFFFFFFFF AND PUSH32 0xE6B83177F11971BA30369BB38B914FFBA97D5969A3C857B286FA8FDBB150B3BA PUSH1 0x8 PUSH1 0x0 DUP6 PUSH20 0xFFFFFFFFFFFFFFFFFFFFFFFFFFFFFFFFFFFFFFFF AND PUSH20 0xFFFFFFFFFFFFFFFFFFFFFFFFFFFFFFFFFFFFFFFF AND DUP2 MSTORE PUSH1 0x20 ADD SWAP1 DUP2 MSTORE PUSH1 0x20 ADD PUSH1 0x0 KECCAK256 SLOAD PUSH1 0x40 MLOAD PUSH2 0xF36 SWAP2 SWAP1 PUSH2 0x1F47 JUMP JUMPDEST PUSH1 0x40 MLOAD DUP1 SWAP2 SUB SWAP1 LOG2 POP POP JUMP JUMPDEST PUSH2 0xF4A PUSH2 0x11F0 JUMP JUMPDEST PUSH20 0xFFFFFFFFFFFFFFFFFFFFFFFFFFFFFFFFFFFFFFFF AND PUSH2 0xF68 PUSH2 0xB1A JUMP JUMPDEST PUSH20 0xFFFFFFFFFFFFFFFFFFFFFFFFFFFFFFFFFFFFFFFF AND EQ PUSH2 0xFBE JUMPI PUSH1 0x40 MLOAD PUSH32 0x8C379A000000000000000000000000000000000000000000000000000000000 DUP2 MSTORE PUSH1 0x4 ADD PUSH2 0xFB5 SWAP1 PUSH2 0x1E67 JUMP JUMPDEST PUSH1 0x40 MLOAD DUP1 SWAP2 SUB SWAP1 REVERT JUMPDEST PUSH1 0x0 PUSH20 0xFFFFFFFFFFFFFFFFFFFFFFFFFFFFFFFFFFFFFFFF AND DUP2 PUSH20 0xFFFFFFFFFFFFFFFFFFFFFFFFFFFFFFFFFFFFFFFF AND EQ ISZERO PUSH2 0x102E JUMPI PUSH1 0x40 MLOAD PUSH32 0x8C379A000000000000000000000000000000000000000000000000000000000 DUP2 MSTORE PUSH1 0x4 ADD PUSH2 0x1025 SWAP1 PUSH2 0x1DA7 JUMP JUMPDEST PUSH1 0x40 MLOAD DUP1 SWAP2 SUB SWAP1 REVERT JUMPDEST PUSH2 0x1037 DUP2 PUSH2 0x1438 JUMP JUMPDEST POP JUMP JUMPDEST PUSH2 0x1042 PUSH2 0x11F0 JUMP JUMPDEST PUSH20 0xFFFFFFFFFFFFFFFFFFFFFFFFFFFFFFFFFFFFFFFF AND PUSH2 0x1060 PUSH2 0xB1A JUMP JUMPDEST PUSH20 0xFFFFFFFFFFFFFFFFFFFFFFFFFFFFFFFFFFFFFFFF AND EQ PUSH2 0x10B6 JUMPI PUSH1 0x40 MLOAD PUSH32 0x8C379A000000000000000000000000000000000000000000000000000000000 DUP2 MSTORE PUSH1 0x4 ADD PUSH2 0x10AD SWAP1 PUSH2 0x1E67 JUMP JUMPDEST PUSH1 0x40 MLOAD DUP1 SWAP2 SUB SWAP1 REVERT JUMPDEST PUSH1 0x0 DUP4 EQ ISZERO DUP1 ISZERO PUSH2 0x10CE JUMPI POP PUSH2 0x10CA PUSH2 0x14FC JUMP JUMPDEST DUP4 LT ISZERO JUMPDEST PUSH2 0x110D JUMPI PUSH1 0x40 MLOAD PUSH32 0x8C379A000000000000000000000000000000000000000000000000000000000 DUP2 MSTORE PUSH1 0x4 ADD PUSH2 0x1104 SWAP1 PUSH2 0x1D67 JUMP JUMPDEST PUSH1 0x40 MLOAD DUP1 SWAP2 SUB SWAP1 REVERT JUMPDEST PUSH1 0x1 DUP3 LT ISZERO PUSH2 0x1151 JUMPI PUSH1 0x40 MLOAD PUSH32 0x8C379A000000000000000000000000000000000000000000000000000000000 DUP2 MSTORE PUSH1 0x4 ADD PUSH2 0x1148 SWAP1 PUSH2 0x1E47 JUMP JUMPDEST PUSH1 0x40 MLOAD DUP1 SWAP2 SUB SWAP1 REVERT JUMPDEST PUSH1 0x1 DUP2 LT ISZERO PUSH2 0x1195 JUMPI PUSH1 0x40 MLOAD PUSH32 0x8C379A000000000000000000000000000000000000000000000000000000000 DUP2 MSTORE PUSH1 0x4 ADD PUSH2 0x118C SWAP1 PUSH2 0x1E27 JUMP JUMPDEST PUSH1 0x40 MLOAD DUP1 SWAP2 SUB SWAP1 REVERT JUMPDEST DUP3 PUSH1 0x2 DUP2 SWAP1 SSTORE POP DUP2 PUSH1 0x3 DUP2 SWAP1 SSTORE POP DUP1 PUSH1 0x4 DUP2 SWAP1 SSTORE POP PUSH32 0xFD0BFAB6CF562D79ADE144330370F03C29B18FBE8D9148A6E052246960ECE22A PUSH1 0x2 SLOAD PUSH1 0x3 SLOAD PUSH1 0x4 SLOAD PUSH1 0x40 MLOAD PUSH2 0x11E3 SWAP4 SWAP3 SWAP2 SWAP1 PUSH2 0x1F62 JUMP JUMPDEST PUSH1 0x40 MLOAD DUP1 SWAP2 SUB SWAP1 LOG1 POP POP POP JUMP JUMPDEST PUSH1 0x0 CALLER SWAP1 POP SWAP1 JUMP JUMPDEST PUSH1 0x0 DUP1 PUSH2 0x1216 PUSH1 0x3C PUSH2 0x1208 PUSH2 0x14FC JUMP JUMPDEST PUSH2 0x1504 SWAP1 SWAP2 SWAP1 PUSH4 0xFFFFFFFF AND JUMP JUMPDEST SWAP1 POP PUSH1 0x0 PUSH2 0x1230 PUSH1 0x3C PUSH1 0x2 SLOAD PUSH2 0x1504 SWAP1 SWAP2 SWAP1 PUSH4 0xFFFFFFFF AND JUMP JUMPDEST SWAP1 POP PUSH1 0x0 PUSH2 0x125F PUSH1 0x3C PUSH2 0x1251 PUSH3 0x15180 PUSH1 0x3 SLOAD PUSH2 0x151A SWAP1 SWAP2 SWAP1 PUSH4 0xFFFFFFFF AND JUMP JUMPDEST PUSH2 0x1504 SWAP1 SWAP2 SWAP1 PUSH4 0xFFFFFFFF AND JUMP JUMPDEST SWAP1 POP PUSH2 0x1274 DUP2 DUP4 PUSH2 0x1422 SWAP1 SWAP2 SWAP1 PUSH4 0xFFFFFFFF AND JUMP JUMPDEST DUP4 LT ISZERO PUSH2 0x1386 JUMPI PUSH1 0x0 PUSH2 0x12A4 PUSH1 0x4 SLOAD PUSH2 0x1296 DUP6 DUP8 PUSH2 0x1530 SWAP1 SWAP2 SWAP1 PUSH4 0xFFFFFFFF AND JUMP JUMPDEST PUSH2 0x1504 SWAP1 SWAP2 SWAP1 PUSH4 0xFFFFFFFF AND JUMP JUMPDEST SWAP1 POP PUSH1 0x0 PUSH2 0x12BD PUSH1 0x4 SLOAD DUP5 PUSH2 0x1504 SWAP1 SWAP2 SWAP1 PUSH4 0xFFFFFFFF AND JUMP JUMPDEST SWAP1 POP PUSH1 0x0 PUSH2 0x1376 PUSH1 0x9 PUSH1 0x0 DUP11 PUSH20 0xFFFFFFFFFFFFFFFFFFFFFFFFFFFFFFFFFFFFFFFF AND PUSH20 0xFFFFFFFFFFFFFFFFFFFFFFFFFFFFFFFFFFFFFFFF AND DUP2 MSTORE PUSH1 0x20 ADD SWAP1 DUP2 MSTORE PUSH1 0x20 ADD PUSH1 0x0 KECCAK256 SLOAD PUSH2 0x1368 DUP5 PUSH2 0x135A DUP8 PUSH1 0x8 PUSH1 0x0 DUP16 PUSH20 0xFFFFFFFFFFFFFFFFFFFFFFFFFFFFFFFFFFFFFFFF AND PUSH20 0xFFFFFFFFFFFFFFFFFFFFFFFFFFFFFFFFFFFFFFFF AND DUP2 MSTORE PUSH1 0x20 ADD SWAP1 DUP2 MSTORE PUSH1 0x20 ADD PUSH1 0x0 KECCAK256 SLOAD PUSH2 0x151A SWAP1 SWAP2 SWAP1 PUSH4 0xFFFFFFFF AND JUMP JUMPDEST PUSH2 0x1504 SWAP1 SWAP2 SWAP1 PUSH4 0xFFFFFFFF AND JUMP JUMPDEST PUSH2 0x1530 SWAP1 SWAP2 SWAP1 PUSH4 0xFFFFFFFF AND JUMP JUMPDEST SWAP1 POP DUP1 SWAP7 POP POP POP POP POP POP POP PUSH2 0x141D JUMP JUMPDEST PUSH2 0x1417 PUSH1 0x9 PUSH1 0x0 DUP8 PUSH20 0xFFFFFFFFFFFFFFFFFFFFFFFFFFFFFFFFFFFFFFFF AND PUSH20 0xFFFFFFFFFFFFFFFFFFFFFFFFFFFFFFFFFFFFFFFF AND DUP2 MSTORE PUSH1 0x20 ADD SWAP1 DUP2 MSTORE PUSH1 0x20 ADD PUSH1 0x0 KECCAK256 SLOAD PUSH1 0x8 PUSH1 0x0 DUP9 PUSH20 0xFFFFFFFFFFFFFFFFFFFFFFFFFFFFFFFFFFFFFFFF AND PUSH20 0xFFFFFFFFFFFFFFFFFFFFFFFFFFFFFFFFFFFFFFFF AND DUP2 MSTORE PUSH1 0x20 ADD SWAP1 DUP2 MSTORE PUSH1 0x20 ADD PUSH1 0x0 KECCAK256 SLOAD PUSH2 0x1530 SWAP1 SWAP2 SWAP1 PUSH4 0xFFFFFFFF AND JUMP JUMPDEST SWAP4 POP POP POP POP JUMPDEST SWAP2 SWAP1 POP JUMP JUMPDEST PUSH1 0x0 DUP2 DUP4 PUSH2 0x1430 SWAP2 SWAP1 PUSH2 0x1FAA JUMP JUMPDEST SWAP1 POP SWAP3 SWAP2 POP POP JUMP JUMPDEST PUSH1 0x0 DUP1 PUSH1 0x0 SWAP1 SLOAD SWAP1 PUSH2 0x100 EXP SWAP1 DIV PUSH20 0xFFFFFFFFFFFFFFFFFFFFFFFFFFFFFFFFFFFFFFFF AND SWAP1 POP DUP2 PUSH1 0x0 DUP1 PUSH2 0x100 EXP DUP2 SLOAD DUP2 PUSH20 0xFFFFFFFFFFFFFFFFFFFFFFFFFFFFFFFFFFFFFFFF MUL NOT AND SWAP1 DUP4 PUSH20 0xFFFFFFFFFFFFFFFFFFFFFFFFFFFFFFFFFFFFFFFF AND MUL OR SWAP1 SSTORE POP DUP2 PUSH20 0xFFFFFFFFFFFFFFFFFFFFFFFFFFFFFFFFFFFFFFFF AND DUP2 PUSH20 0xFFFFFFFFFFFFFFFFFFFFFFFFFFFFFFFFFFFFFFFF AND PUSH32 0x8BE0079C531659141344CD1FD0A4F28419497F9722A3DAAFE3B4186F6B6457E0 PUSH1 0x40 MLOAD PUSH1 0x40 MLOAD DUP1 SWAP2 SUB SWAP1 LOG3 POP POP JUMP JUMPDEST PUSH1 0x0 TIMESTAMP SWAP1 POP SWAP1 JUMP JUMPDEST PUSH1 0x0 DUP2 DUP4 PUSH2 0x1512 SWAP2 SWAP1 PUSH2 0x2000 JUMP JUMPDEST SWAP1 POP SWAP3 SWAP2 POP POP JUMP JUMPDEST PUSH1 0x0 DUP2 DUP4 PUSH2 0x1528 SWAP2 SWAP1 PUSH2 0x2031 JUMP JUMPDEST SWAP1 POP SWAP3 SWAP2 POP POP JUMP JUMPDEST PUSH1 0x0 DUP2 DUP4 PUSH2 0x153E SWAP2 SWAP1 PUSH2 0x208B JUMP JUMPDEST SWAP1 POP SWAP3 SWAP2 POP POP JUMP JUMPDEST PUSH1 0x0 DUP2 CALLDATALOAD SWAP1 POP PUSH2 0x1555 DUP2 PUSH2 0x2165 JUMP JUMPDEST SWAP3 SWAP2 POP POP JUMP JUMPDEST PUSH1 0x0 DUP2 MLOAD SWAP1 POP PUSH2 0x156A DUP2 PUSH2 0x217C JUMP JUMPDEST SWAP3 SWAP2 POP POP JUMP JUMPDEST PUSH1 0x0 DUP2 CALLDATALOAD SWAP1 POP PUSH2 0x157F DUP2 PUSH2 0x2193 JUMP JUMPDEST SWAP3 SWAP2 POP POP JUMP JUMPDEST PUSH1 0x0 PUSH1 0x20 DUP3 DUP5 SUB SLT ISZERO PUSH2 0x1597 JUMPI PUSH1 0x0 DUP1 REVERT JUMPDEST PUSH1 0x0 PUSH2 0x15A5 DUP5 DUP3 DUP6 ADD PUSH2 0x1546 JUMP JUMPDEST SWAP2 POP POP SWAP3 SWAP2 POP POP JUMP JUMPDEST PUSH1 0x0 DUP1 PUSH1 0x40 DUP4 DUP6 SUB SLT ISZERO PUSH2 0x15C1 JUMPI PUSH1 0x0 DUP1 REVERT JUMPDEST PUSH1 0x0 PUSH2 0x15CF DUP6 DUP3 DUP7 ADD PUSH2 0x1546 JUMP JUMPDEST SWAP3 POP POP PUSH1 0x20 PUSH2 0x15E0 DUP6 DUP3 DUP7 ADD PUSH2 0x1570 JUMP JUMPDEST SWAP2 POP POP SWAP3 POP SWAP3 SWAP1 POP JUMP JUMPDEST PUSH1 0x0 PUSH1 0x20 DUP3 DUP5 SUB SLT ISZERO PUSH2 0x15FC JUMPI PUSH1 0x0 DUP1 REVERT JUMPDEST PUSH1 0x0 PUSH2 0x160A DUP5 DUP3 DUP6 ADD PUSH2 0x155B JUMP JUMPDEST SWAP2 POP POP SWAP3 SWAP2 POP POP JUMP JUMPDEST PUSH1 0x0 PUSH1 0x20 DUP3 DUP5 SUB SLT ISZERO PUSH2 0x1625 JUMPI PUSH1 0x0 DUP1 REVERT JUMPDEST PUSH1 0x0 PUSH2 0x1633 DUP5 DUP3 DUP6 ADD PUSH2 0x1570 JUMP JUMPDEST SWAP2 POP POP SWAP3 SWAP2 POP POP JUMP JUMPDEST PUSH1 0x0 DUP1 PUSH1 0x0 PUSH1 0x60 DUP5 DUP7 SUB SLT ISZERO PUSH2 0x1651 JUMPI PUSH1 0x0 DUP1 REVERT JUMPDEST PUSH1 0x0 PUSH2 0x165F DUP7 DUP3 DUP8 ADD PUSH2 0x1570 JUMP JUMPDEST SWAP4 POP POP PUSH1 0x20 PUSH2 0x1670 DUP7 DUP3 DUP8 ADD PUSH2 0x1570 JUMP JUMPDEST SWAP3 POP POP PUSH1 0x40 PUSH2 0x1681 DUP7 DUP3 DUP8 ADD PUSH2 0x1570 JUMP JUMPDEST SWAP2 POP POP SWAP3 POP SWAP3 POP SWAP3 JUMP JUMPDEST PUSH2 0x1694 DUP2 PUSH2 0x20BF JUMP JUMPDEST DUP3 MSTORE POP POP JUMP JUMPDEST PUSH1 0x0 PUSH2 0x16A7 PUSH1 0x4A DUP4 PUSH2 0x1F99 JUMP JUMPDEST SWAP2 POP PUSH32 0x546F6B656E56657374696E673A20496E76616C69642073746172742074696D65 PUSH1 0x0 DUP4 ADD MSTORE PUSH32 0x2E2053746172742074696D652063616E2774206265206265666F726520637572 PUSH1 0x20 DUP4 ADD MSTORE PUSH32 0x72656E742074696D652E00000000000000000000000000000000000000000000 PUSH1 0x40 DUP4 ADD MSTORE PUSH1 0x60 DUP3 ADD SWAP1 POP SWAP2 SWAP1 POP JUMP JUMPDEST PUSH1 0x0 PUSH2 0x1733 PUSH1 0x3E DUP4 PUSH2 0x1F99 JUMP JUMPDEST SWAP2 POP PUSH32 0x546F6B656E56657374696E673A204F6E6C79206F776E6572206F722061207661 PUSH1 0x0 DUP4 ADD MSTORE PUSH32 0x6C69642062656E65666963696172792063616E2062652063616C6C65722E0000 PUSH1 0x20 DUP4 ADD MSTORE PUSH1 0x40 DUP3 ADD SWAP1 POP SWAP2 SWAP1 POP JUMP JUMPDEST PUSH1 0x0 PUSH2 0x1799 PUSH1 0x26 DUP4 PUSH2 0x1F99 JUMP JUMPDEST SWAP2 POP PUSH32 0x4F776E61626C653A206E6577206F776E657220697320746865207A65726F2061 PUSH1 0x0 DUP4 ADD MSTORE PUSH32 0x6464726573730000000000000000000000000000000000000000000000000000 PUSH1 0x20 DUP4 ADD MSTORE PUSH1 0x40 DUP3 ADD SWAP1 POP SWAP2 SWAP1 POP JUMP JUMPDEST PUSH1 0x0 PUSH2 0x17FF PUSH1 0x3B DUP4 PUSH2 0x1F99 JUMP JUMPDEST SWAP2 POP PUSH32 0x546F6B656E56657374696E673A204D696E696D756D206475726174696F6E2063 PUSH1 0x0 DUP4 ADD MSTORE PUSH32 0x616E6E6F74206265206C6573736572207468616E2031206461792E0000000000 PUSH1 0x20 DUP4 ADD MSTORE PUSH1 0x40 DUP3 ADD SWAP1 POP SWAP2 SWAP1 POP JUMP JUMPDEST PUSH1 0x0 PUSH2 0x1865 PUSH1 0x45 DUP4 PUSH2 0x1F99 JUMP JUMPDEST SWAP2 POP PUSH32 0x546F6B656E56657374696E673A2052656C6561736520616D6F756E742063616E PUSH1 0x0 DUP4 ADD MSTORE PUSH32 0x6E6F74206265206D6F7265207468616E20746F74616C2076657374696E672061 PUSH1 0x20 DUP4 ADD MSTORE PUSH32 0x6D6F756E74000000000000000000000000000000000000000000000000000000 PUSH1 0x40 DUP4 ADD MSTORE PUSH1 0x60 DUP3 ADD SWAP1 POP SWAP2 SWAP1 POP JUMP JUMPDEST PUSH1 0x0 PUSH2 0x18F1 PUSH1 0x36 DUP4 PUSH2 0x1F99 JUMP JUMPDEST SWAP2 POP PUSH32 0x546F6B656E56657374696E673A2056657374696E6720616D6F756E74206D7573 PUSH1 0x0 DUP4 ADD MSTORE PUSH32 0x742062652067726561746572207468616E207A65726F00000000000000000000 PUSH1 0x20 DUP4 ADD MSTORE PUSH1 0x40 DUP3 ADD SWAP1 POP SWAP2 SWAP1 POP JUMP JUMPDEST PUSH1 0x0 PUSH2 0x1957 PUSH1 0x3E DUP4 PUSH2 0x1F99 JUMP JUMPDEST SWAP2 POP PUSH32 0x546F6B656E56657374696E673A2052656C65617365207363686564756C652063 PUSH1 0x0 DUP4 ADD MSTORE PUSH32 0x616E6E6F74206265206C6573736572207468616E2031206D696E7574652E0000 PUSH1 0x20 DUP4 ADD MSTORE PUSH1 0x40 DUP3 ADD SWAP1 POP SWAP2 SWAP1 POP JUMP JUMPDEST PUSH1 0x0 PUSH2 0x19BD PUSH1 0x2F DUP4 PUSH2 0x1F99 JUMP JUMPDEST SWAP2 POP PUSH32 0x546F6B656E56657374696E673A204D696E696D756D2076657374696E67206475 PUSH1 0x0 DUP4 ADD MSTORE PUSH32 0x726174696F6E2069732031206461790000000000000000000000000000000000 PUSH1 0x20 DUP4 ADD MSTORE PUSH1 0x40 DUP3 ADD SWAP1 POP SWAP2 SWAP1 POP JUMP JUMPDEST PUSH1 0x0 PUSH2 0x1A23 PUSH1 0x20 DUP4 PUSH2 0x1F99 JUMP JUMPDEST SWAP2 POP PUSH32 0x4F776E61626C653A2063616C6C6572206973206E6F7420746865206F776E6572 PUSH1 0x0 DUP4 ADD MSTORE PUSH1 0x20 DUP3 ADD SWAP1 POP SWAP2 SWAP1 POP JUMP JUMPDEST PUSH1 0x0 PUSH2 0x1A63 PUSH1 0x39 DUP4 PUSH2 0x1F99 JUMP JUMPDEST SWAP2 POP PUSH32 0x546F6B656E56657374696E673A205A65726F20616464726573732063616E6E6F PUSH1 0x0 DUP4 ADD MSTORE PUSH32 0x742062652073657420617320612062656E656669636961727900000000000000 PUSH1 0x20 DUP4 ADD MSTORE PUSH1 0x40 DUP3 ADD SWAP1 POP SWAP2 SWAP1 POP JUMP JUMPDEST PUSH1 0x0 PUSH2 0x1AC9 PUSH1 0x4E DUP4 PUSH2 0x1F99 JUMP JUMPDEST SWAP2 POP PUSH32 0x546F6B656E56657374696E673A20456E74657265642072656C6561736520616D PUSH1 0x0 DUP4 ADD MSTORE PUSH32 0x6F756E742069732067726561746572207468616E2063757572656E742072656C PUSH1 0x20 DUP4 ADD MSTORE PUSH32 0x65617361626C6520616D6F756E74000000000000000000000000000000000000 PUSH1 0x40 DUP4 ADD MSTORE PUSH1 0x60 DUP3 ADD SWAP1 POP SWAP2 SWAP1 POP JUMP JUMPDEST PUSH1 0x0 PUSH2 0x1B55 PUSH1 0x31 DUP4 PUSH2 0x1F99 JUMP JUMPDEST SWAP2 POP PUSH32 0x546F6B656E56657374696E673A2042656E656669636961727920636F756E7420 PUSH1 0x0 DUP4 ADD MSTORE PUSH32 0x6861732072656163686564206C696D6974000000000000000000000000000000 PUSH1 0x20 DUP4 ADD MSTORE PUSH1 0x40 DUP3 ADD SWAP1 POP SWAP2 SWAP1 POP JUMP JUMPDEST PUSH1 0x0 PUSH2 0x1BBB PUSH1 0x27 DUP4 PUSH2 0x1F99 JUMP JUMPDEST SWAP2 POP PUSH32 0x546F6B656E56657374696E673A2042656E656669636961727920616C72656164 PUSH1 0x0 DUP4 ADD MSTORE PUSH32 0x7920616464656400000000000000000000000000000000000000000000000000 PUSH1 0x20 DUP4 ADD MSTORE PUSH1 0x40 DUP3 ADD SWAP1 POP SWAP2 SWAP1 POP JUMP JUMPDEST PUSH1 0x0 PUSH2 0x1C21 PUSH1 0x32 DUP4 PUSH2 0x1F99 JUMP JUMPDEST SWAP2 POP PUSH32 0x546F6B656E56657374696E673A20496E76616C69642062656E65666963696172 PUSH1 0x0 DUP4 ADD MSTORE PUSH32 0x7920616464726573732064657465637465640000000000000000000000000000 PUSH1 0x20 DUP4 ADD MSTORE PUSH1 0x40 DUP3 ADD SWAP1 POP SWAP2 SWAP1 POP JUMP JUMPDEST PUSH1 0x0 PUSH2 0x1C87 PUSH1 0x41 DUP4 PUSH2 0x1F99 JUMP JUMPDEST SWAP2 POP PUSH32 0x546F6B656E56657374696E673A2042656E656669636961727920636F756E7420 PUSH1 0x0 DUP4 ADD MSTORE PUSH32 0x6C696D69742073686F756C642062652067726561746572207468616E207A6572 PUSH1 0x20 DUP4 ADD MSTORE PUSH32 0x6F00000000000000000000000000000000000000000000000000000000000000 PUSH1 0x40 DUP4 ADD MSTORE PUSH1 0x60 DUP3 ADD SWAP1 POP SWAP2 SWAP1 POP JUMP JUMPDEST PUSH2 0x1D0F DUP2 PUSH2 0x20FD JUMP JUMPDEST DUP3 MSTORE POP POP JUMP JUMPDEST PUSH1 0x0 PUSH1 0x20 DUP3 ADD SWAP1 POP PUSH2 0x1D2A PUSH1 0x0 DUP4 ADD DUP5 PUSH2 0x168B JUMP JUMPDEST SWAP3 SWAP2 POP POP JUMP JUMPDEST PUSH1 0x0 PUSH1 0x60 DUP3 ADD SWAP1 POP PUSH2 0x1D45 PUSH1 0x0 DUP4 ADD DUP7 PUSH2 0x168B JUMP JUMPDEST PUSH2 0x1D52 PUSH1 0x20 DUP4 ADD DUP6 PUSH2 0x168B JUMP JUMPDEST PUSH2 0x1D5F PUSH1 0x40 DUP4 ADD DUP5 PUSH2 0x1D06 JUMP JUMPDEST SWAP5 SWAP4 POP POP POP POP JUMP JUMPDEST PUSH1 0x0 PUSH1 0x20 DUP3 ADD SWAP1 POP DUP2 DUP2 SUB PUSH1 0x0 DUP4 ADD MSTORE PUSH2 0x1D80 DUP2 PUSH2 0x169A JUMP JUMPDEST SWAP1 POP SWAP2 SWAP1 POP JUMP JUMPDEST PUSH1 0x0 PUSH1 0x20 DUP3 ADD SWAP1 POP DUP2 DUP2 SUB PUSH1 0x0 DUP4 ADD MSTORE PUSH2 0x1DA0 DUP2 PUSH2 0x1726 JUMP JUMPDEST SWAP1 POP SWAP2 SWAP1 POP JUMP JUMPDEST PUSH1 0x0 PUSH1 0x20 DUP3 ADD SWAP1 POP DUP2 DUP2 SUB PUSH1 0x0 DUP4 ADD MSTORE PUSH2 0x1DC0 DUP2 PUSH2 0x178C JUMP JUMPDEST SWAP1 POP SWAP2 SWAP1 POP JUMP JUMPDEST PUSH1 0x0 PUSH1 0x20 DUP3 ADD SWAP1 POP DUP2 DUP2 SUB PUSH1 0x0 DUP4 ADD MSTORE PUSH2 0x1DE0 DUP2 PUSH2 0x17F2 JUMP JUMPDEST SWAP1 POP SWAP2 SWAP1 POP JUMP JUMPDEST PUSH1 0x0 PUSH1 0x20 DUP3 ADD SWAP1 POP DUP2 DUP2 SUB PUSH1 0x0 DUP4 ADD MSTORE PUSH2 0x1E00 DUP2 PUSH2 0x1858 JUMP JUMPDEST SWAP1 POP SWAP2 SWAP1 POP JUMP JUMPDEST PUSH1 0x0 PUSH1 0x20 DUP3 ADD SWAP1 POP DUP2 DUP2 SUB PUSH1 0x0 DUP4 ADD MSTORE PUSH2 0x1E20 DUP2 PUSH2 0x18E4 JUMP JUMPDEST SWAP1 POP SWAP2 SWAP1 POP JUMP JUMPDEST PUSH1 0x0 PUSH1 0x20 DUP3 ADD SWAP1 POP DUP2 DUP2 SUB PUSH1 0x0 DUP4 ADD MSTORE PUSH2 0x1E40 DUP2 PUSH2 0x194A JUMP JUMPDEST SWAP1 POP SWAP2 SWAP1 POP JUMP JUMPDEST PUSH1 0x0 PUSH1 0x20 DUP3 ADD SWAP1 POP DUP2 DUP2 SUB PUSH1 0x0 DUP4 ADD MSTORE PUSH2 0x1E60 DUP2 PUSH2 0x19B0 JUMP JUMPDEST SWAP1 POP SWAP2 SWAP1 POP JUMP JUMPDEST PUSH1 0x0 PUSH1 0x20 DUP3 ADD SWAP1 POP DUP2 DUP2 SUB PUSH1 0x0 DUP4 ADD MSTORE PUSH2 0x1E80 DUP2 PUSH2 0x1A16 JUMP JUMPDEST SWAP1 POP SWAP2 SWAP1 POP JUMP JUMPDEST PUSH1 0x0 PUSH1 0x20 DUP3 ADD SWAP1 POP DUP2 DUP2 SUB PUSH1 0x0 DUP4 ADD MSTORE PUSH2 0x1EA0 DUP2 PUSH2 0x1A56 JUMP JUMPDEST SWAP1 POP SWAP2 SWAP1 POP JUMP JUMPDEST PUSH1 0x0 PUSH1 0x20 DUP3 ADD SWAP1 POP DUP2 DUP2 SUB PUSH1 0x0 DUP4 ADD MSTORE PUSH2 0x1EC0 DUP2 PUSH2 0x1ABC JUMP JUMPDEST SWAP1 POP SWAP2 SWAP1 POP JUMP JUMPDEST PUSH1 0x0 PUSH1 0x20 DUP3 ADD SWAP1 POP DUP2 DUP2 SUB PUSH1 0x0 DUP4 ADD MSTORE PUSH2 0x1EE0 DUP2 PUSH2 0x1B48 JUMP JUMPDEST SWAP1 POP SWAP2 SWAP1 POP JUMP JUMPDEST PUSH1 0x0 PUSH1 0x20 DUP3 ADD SWAP1 POP DUP2 DUP2 SUB PUSH1 0x0 DUP4 ADD MSTORE PUSH2 0x1F00 DUP2 PUSH2 0x1BAE JUMP JUMPDEST SWAP1 POP SWAP2 SWAP1 POP JUMP JUMPDEST PUSH1 0x0 PUSH1 0x20 DUP3 ADD SWAP1 POP DUP2 DUP2 SUB PUSH1 0x0 DUP4 ADD MSTORE PUSH2 0x1F20 DUP2 PUSH2 0x1C14 JUMP JUMPDEST SWAP1 POP SWAP2 SWAP1 POP JUMP JUMPDEST PUSH1 0x0 PUSH1 0x20 DUP3 ADD SWAP1 POP DUP2 DUP2 SUB PUSH1 0x0 DUP4 ADD MSTORE PUSH2 0x1F40 DUP2 PUSH2 0x1C7A JUMP JUMPDEST SWAP1 POP SWAP2 SWAP1 POP JUMP JUMPDEST PUSH1 0x0 PUSH1 0x20 DUP3 ADD SWAP1 POP PUSH2 0x1F5C PUSH1 0x0 DUP4 ADD DUP5 PUSH2 0x1D06 JUMP JUMPDEST SWAP3 SWAP2 POP POP JUMP JUMPDEST PUSH1 0x0 PUSH1 0x60 DUP3 ADD SWAP1 POP PUSH2 0x1F77 PUSH1 0x0 DUP4 ADD DUP7 PUSH2 0x1D06 JUMP JUMPDEST PUSH2 0x1F84 PUSH1 0x20 DUP4 ADD DUP6 PUSH2 0x1D06 JUMP JUMPDEST PUSH2 0x1F91 PUSH1 0x40 DUP4 ADD DUP5 PUSH2 0x1D06 JUMP JUMPDEST SWAP5 SWAP4 POP POP POP POP JUMP JUMPDEST PUSH1 0x0 DUP3 DUP3 MSTORE PUSH1 0x20 DUP3 ADD SWAP1 POP SWAP3 SWAP2 POP POP JUMP JUMPDEST PUSH1 0x0 PUSH2 0x1FB5 DUP3 PUSH2 0x20FD JUMP JUMPDEST SWAP2 POP PUSH2 0x1FC0 DUP4 PUSH2 0x20FD JUMP JUMPDEST SWAP3 POP DUP3 PUSH32 0xFFFFFFFFFFFFFFFFFFFFFFFFFFFFFFFFFFFFFFFFFFFFFFFFFFFFFFFFFFFFFFFF SUB DUP3 GT ISZERO PUSH2 0x1FF5 JUMPI PUSH2 0x1FF4 PUSH2 0x2107 JUMP JUMPDEST JUMPDEST DUP3 DUP3 ADD SWAP1 POP SWAP3 SWAP2 POP POP JUMP JUMPDEST PUSH1 0x0 PUSH2 0x200B DUP3 PUSH2 0x20FD JUMP JUMPDEST SWAP2 POP PUSH2 0x2016 DUP4 PUSH2 0x20FD JUMP JUMPDEST SWAP3 POP DUP3 PUSH2 0x2026 JUMPI PUSH2 0x2025 PUSH2 0x2136 JUMP JUMPDEST JUMPDEST DUP3 DUP3 DIV SWAP1 POP SWAP3 SWAP2 POP POP JUMP JUMPDEST PUSH1 0x0 PUSH2 0x203C DUP3 PUSH2 0x20FD JUMP JUMPDEST SWAP2 POP PUSH2 0x2047 DUP4 PUSH2 0x20FD JUMP JUMPDEST SWAP3 POP DUP2 PUSH32 0xFFFFFFFFFFFFFFFFFFFFFFFFFFFFFFFFFFFFFFFFFFFFFFFFFFFFFFFFFFFFFFFF DIV DUP4 GT DUP3 ISZERO ISZERO AND ISZERO PUSH2 0x2080 JUMPI PUSH2 0x207F PUSH2 0x2107 JUMP JUMPDEST JUMPDEST DUP3 DUP3 MUL SWAP1 POP SWAP3 SWAP2 POP POP JUMP JUMPDEST PUSH1 0x0 PUSH2 0x2096 DUP3 PUSH2 0x20FD JUMP JUMPDEST SWAP2 POP PUSH2 0x20A1 DUP4 PUSH2 0x20FD JUMP JUMPDEST SWAP3 POP DUP3 DUP3 LT ISZERO PUSH2 0x20B4 JUMPI PUSH2 0x20B3 PUSH2 0x2107 JUMP JUMPDEST JUMPDEST DUP3 DUP3 SUB SWAP1 POP SWAP3 SWAP2 POP POP JUMP JUMPDEST PUSH1 0x0 PUSH2 0x20CA DUP3 PUSH2 0x20DD JUMP JUMPDEST SWAP1 POP SWAP2 SWAP1 POP JUMP JUMPDEST PUSH1 0x0 DUP2 ISZERO ISZERO SWAP1 POP SWAP2 SWAP1 POP JUMP JUMPDEST PUSH1 0x0 PUSH20 0xFFFFFFFFFFFFFFFFFFFFFFFFFFFFFFFFFFFFFFFF DUP3 AND SWAP1 POP SWAP2 SWAP1 POP JUMP JUMPDEST PUSH1 0x0 DUP2 SWAP1 POP SWAP2 SWAP1 POP JUMP JUMPDEST PUSH32 0x4E487B7100000000000000000000000000000000000000000000000000000000 PUSH1 0x0 MSTORE PUSH1 0x11 PUSH1 0x4 MSTORE PUSH1 0x24 PUSH1 0x0 REVERT JUMPDEST PUSH32 0x4E487B7100000000000000000000000000000000000000000000000000000000 PUSH1 0x0 MSTORE PUSH1 0x12 PUSH1 0x4 MSTORE PUSH1 0x24 PUSH1 0x0 REVERT JUMPDEST PUSH2 0x216E DUP2 PUSH2 0x20BF JUMP JUMPDEST DUP2 EQ PUSH2 0x2179 JUMPI PUSH1 0x0 DUP1 REVERT JUMPDEST POP JUMP JUMPDEST PUSH2 0x2185 DUP2 PUSH2 0x20D1 JUMP JUMPDEST DUP2 EQ PUSH2 0x2190 JUMPI PUSH1 0x0 DUP1 REVERT JUMPDEST POP JUMP JUMPDEST PUSH2 0x219C DUP2 PUSH2 0x20FD JUMP JUMPDEST DUP2 EQ PUSH2 0x21A7 JUMPI PUSH1 0x0 DUP1 REVERT JUMPDEST POP JUMP INVALID LOG2 PUSH5 0x6970667358 0x22 SLT KECCAK256 0x5C 0xCF SWAP1 EXTCODEHASH 0xAF 0xF9 STOP 0xE0 PUSH24 0x957894135B9635463305A3C31BC5EB30CD7C736881A04D64 PUSH20 0x6F6C634300080000330000000000000000000000 "
				},
				"gasEstimates": {
					"creation": {
						"codeDepositCost": "1734400",
						"executionCost": "infinite",
						"totalCost": "infinite"
					},
					"external": {
						"beneficiaryCountLimit()": "1197",
						"beneficiaryList(uint256)": "2378",
						"getBeneficiaryCount()": "1234",
						"getReleasableAmount(address)": "infinite",
						"getVestingScheme()": "infinite",
						"minimumDurationInDays()": "1174",
						"owner()": "1289",
						"release(address,uint256)": "infinite",
						"renounceOwnership()": "24397",
						"setBeneficiaryAddressAndAmount(address,uint256)": "infinite",
						"setBeneficiaryCountLimit(uint256)": "21428",
						"setMinimumDurationInDays(uint256)": "21409",
						"setTokenReserveAddress(address)": "22352",
						"setVestingScheme(uint256,uint256,uint256)": "infinite",
						"tokenReserveAddress()": "1281",
						"transferOwnership(address)": "24789"
					},
					"internal": {
						"_getCurrentTime()": "22",
						"_getReleaseableAmount(address)": "infinite"
					}
				},
				"methodIdentifiers": {
					"beneficiaryCountLimit()": "366340ca",
					"beneficiaryList(uint256)": "9e761bbb",
					"getBeneficiaryCount()": "9a6e7fd1",
					"getReleasableAmount(address)": "2afd1a7d",
					"getVestingScheme()": "66923995",
					"minimumDurationInDays()": "59a075ec",
					"owner()": "8da5cb5b",
					"release(address,uint256)": "0357371d",
					"renounceOwnership()": "715018a6",
					"setBeneficiaryAddressAndAmount(address,uint256)": "9f79685e",
					"setBeneficiaryCountLimit(uint256)": "75de48ab",
					"setMinimumDurationInDays(uint256)": "566b041d",
					"setTokenReserveAddress(address)": "4a917a2f",
					"setVestingScheme(uint256,uint256,uint256)": "fc99d9a1",
					"tokenReserveAddress()": "65473fd2",
					"transferOwnership(address)": "f2fde38b"
				}
			},
			"storageLayout": {
				"storage": [
					{
						"astId": 533,
						"contract": "contract/tokenvesting.sol:AltTokenVesting",
						"label": "_owner",
						"offset": 0,
						"slot": "0",
						"type": "t_address"
					},
					{
						"astId": 41,
						"contract": "contract/tokenvesting.sol:AltTokenVesting",
						"label": "token",
						"offset": 0,
						"slot": "1",
						"type": "t_contract(IERC20)1294"
					},
					{
						"astId": 43,
						"contract": "contract/tokenvesting.sol:AltTokenVesting",
						"label": "startTimeUnix",
						"offset": 0,
						"slot": "2",
						"type": "t_uint256"
					},
					{
						"astId": 45,
						"contract": "contract/tokenvesting.sol:AltTokenVesting",
						"label": "durationInDays",
						"offset": 0,
						"slot": "3",
						"type": "t_uint256"
					},
					{
						"astId": 47,
						"contract": "contract/tokenvesting.sol:AltTokenVesting",
						"label": "releaseScheduleInMinutes",
						"offset": 0,
						"slot": "4",
						"type": "t_uint256"
					},
					{
						"astId": 49,
						"contract": "contract/tokenvesting.sol:AltTokenVesting",
						"label": "totalVestableAmount",
						"offset": 0,
						"slot": "5",
						"type": "t_uint256"
					},
					{
						"astId": 52,
						"contract": "contract/tokenvesting.sol:AltTokenVesting",
						"label": "beneficiaryList",
						"offset": 0,
						"slot": "6",
						"type": "t_array(t_address)dyn_storage"
					},
					{
						"astId": 56,
						"contract": "contract/tokenvesting.sol:AltTokenVesting",
						"label": "isValidBeneficiary",
						"offset": 0,
						"slot": "7",
						"type": "t_mapping(t_address,t_bool)"
					},
					{
						"astId": 60,
						"contract": "contract/tokenvesting.sol:AltTokenVesting",
						"label": "amount",
						"offset": 0,
						"slot": "8",
						"type": "t_mapping(t_address,t_uint256)"
					},
					{
						"astId": 64,
						"contract": "contract/tokenvesting.sol:AltTokenVesting",
						"label": "amountReleased",
						"offset": 0,
						"slot": "9",
						"type": "t_mapping(t_address,t_uint256)"
					},
					{
						"astId": 66,
						"contract": "contract/tokenvesting.sol:AltTokenVesting",
						"label": "beneficiaryCountLimit",
						"offset": 0,
						"slot": "10",
						"type": "t_uint256"
					},
					{
						"astId": 68,
						"contract": "contract/tokenvesting.sol:AltTokenVesting",
						"label": "minimumDurationInDays",
						"offset": 0,
						"slot": "11",
						"type": "t_uint256"
					},
					{
						"astId": 70,
						"contract": "contract/tokenvesting.sol:AltTokenVesting",
						"label": "tokenReserveAddress",
						"offset": 0,
						"slot": "12",
						"type": "t_address"
					}
				],
				"types": {
					"t_address": {
						"encoding": "inplace",
						"label": "address",
						"numberOfBytes": "20"
					},
					"t_array(t_address)dyn_storage": {
						"base": "t_address",
						"encoding": "dynamic_array",
						"label": "address[]",
						"numberOfBytes": "32"
					},
					"t_bool": {
						"encoding": "inplace",
						"label": "bool",
						"numberOfBytes": "1"
					},
					"t_contract(IERC20)1294": {
						"encoding": "inplace",
						"label": "contract IERC20",
						"numberOfBytes": "20"
					},
					"t_mapping(t_address,t_bool)": {
						"encoding": "mapping",
						"key": "t_address",
						"label": "mapping(address => bool)",
						"numberOfBytes": "32",
						"value": "t_bool"
					},
					"t_mapping(t_address,t_uint256)": {
						"encoding": "mapping",
						"key": "t_address",
						"label": "mapping(address => uint256)",
						"numberOfBytes": "32",
						"value": "t_uint256"
					},
					"t_uint256": {
						"encoding": "inplace",
						"label": "uint256",
						"numberOfBytes": "32"
					}
				}
			},
			"userdoc": {
				"kind": "user",
				"methods": {},
				"version": 1
			}
		}
	}
}