{
	"contract/tokenvesting.sol": {
		"TokenVesting": {
			"abi": [
				{
					"inputs": [
						{
							"internalType": "address",
							"name": "_token",
							"type": "address"
						}
					],
					"stateMutability": "nonpayable",
					"type": "constructor"
				},
				{
					"anonymous": false,
					"inputs": [
						{
							"indexed": true,
							"internalType": "address",
							"name": "beneficiary",
							"type": "address"
						},
						{
							"indexed": false,
							"internalType": "uint256",
							"name": "amount",
							"type": "uint256"
						}
					],
					"name": "BeneficiaryAdded",
					"type": "event"
				},
				{
					"anonymous": false,
					"inputs": [
						{
							"indexed": false,
							"internalType": "uint256",
							"name": "startTimeUnix",
							"type": "uint256"
						},
						{
							"indexed": false,
							"internalType": "uint256",
							"name": "durationInDays",
							"type": "uint256"
						},
						{
							"indexed": false,
							"internalType": "uint256",
							"name": "releaseScheduleInMinutes",
							"type": "uint256"
						}
					],
					"name": "NewVestingScheme",
					"type": "event"
				},
				{
					"anonymous": false,
					"inputs": [
						{
							"indexed": true,
							"internalType": "address",
							"name": "previousOwner",
							"type": "address"
						},
						{
							"indexed": true,
							"internalType": "address",
							"name": "newOwner",
							"type": "address"
						}
					],
					"name": "OwnershipTransferred",
					"type": "event"
				},
				{
					"anonymous": false,
					"inputs": [
						{
							"indexed": true,
							"internalType": "address",
							"name": "beneficiary",
							"type": "address"
						},
						{
							"indexed": false,
							"internalType": "uint256",
							"name": "releasedAmount",
							"type": "uint256"
						}
					],
					"name": "Release",
					"type": "event"
				},
				{
					"inputs": [
						{
							"internalType": "address",
							"name": "",
							"type": "address"
						}
					],
					"name": "amount",
					"outputs": [
						{
							"internalType": "uint256",
							"name": "",
							"type": "uint256"
						}
					],
					"stateMutability": "view",
					"type": "function"
				},
				{
					"inputs": [
						{
							"internalType": "address",
							"name": "",
							"type": "address"
						}
					],
					"name": "amountReleased",
					"outputs": [
						{
							"internalType": "uint256",
							"name": "",
							"type": "uint256"
						}
					],
					"stateMutability": "view",
					"type": "function"
				},
				{
					"inputs": [],
					"name": "beneficiaryCountLimit",
					"outputs": [
						{
							"internalType": "uint256",
							"name": "",
							"type": "uint256"
						}
					],
					"stateMutability": "view",
					"type": "function"
				},
				{
					"inputs": [
						{
							"internalType": "uint256",
							"name": "",
							"type": "uint256"
						}
					],
					"name": "beneficiaryList",
					"outputs": [
						{
							"internalType": "address",
							"name": "",
							"type": "address"
						}
					],
					"stateMutability": "view",
					"type": "function"
				},
				{
					"inputs": [],
					"name": "getBeneficiaryCount",
					"outputs": [
						{
							"internalType": "uint256",
							"name": "",
							"type": "uint256"
						}
					],
					"stateMutability": "view",
					"type": "function"
				},
				{
					"inputs": [
						{
							"internalType": "address",
							"name": "_beneficiary",
							"type": "address"
						}
					],
					"name": "getReleasableAmount",
					"outputs": [
						{
							"internalType": "uint256",
							"name": "",
							"type": "uint256"
						}
					],
					"stateMutability": "view",
					"type": "function"
				},
				{
					"inputs": [],
					"name": "getVestingScheme",
					"outputs": [
						{
							"internalType": "uint256",
							"name": "",
							"type": "uint256"
						},
						{
							"internalType": "uint256",
							"name": "",
							"type": "uint256"
						},
						{
							"internalType": "uint256",
							"name": "",
							"type": "uint256"
						}
					],
					"stateMutability": "view",
					"type": "function"
				},
				{
					"inputs": [
						{
							"internalType": "address",
							"name": "",
							"type": "address"
						}
					],
					"name": "isValidBeneficiary",
					"outputs": [
						{
							"internalType": "bool",
							"name": "",
							"type": "bool"
						}
					],
					"stateMutability": "view",
					"type": "function"
				},
				{
					"inputs": [],
					"name": "minimumDurationInDays",
					"outputs": [
						{
							"internalType": "uint256",
							"name": "",
							"type": "uint256"
						}
					],
					"stateMutability": "view",
					"type": "function"
				},
				{
					"inputs": [],
					"name": "owner",
					"outputs": [
						{
							"internalType": "address",
							"name": "",
							"type": "address"
						}
					],
					"stateMutability": "view",
					"type": "function"
				},
				{
					"inputs": [
						{
							"internalType": "address",
							"name": "_beneficiary",
							"type": "address"
						},
						{
							"internalType": "uint256",
							"name": "_releaseAmount",
							"type": "uint256"
						}
					],
					"name": "release",
					"outputs": [],
					"stateMutability": "nonpayable",
					"type": "function"
				},
				{
					"inputs": [],
					"name": "renounceOwnership",
					"outputs": [],
					"stateMutability": "nonpayable",
					"type": "function"
				},
				{
					"inputs": [
						{
							"internalType": "address",
							"name": "_beneficiary",
							"type": "address"
						},
						{
							"internalType": "uint256",
							"name": "_amount",
							"type": "uint256"
						}
					],
					"name": "setBeneficiaryAddressAndAmount",
					"outputs": [],
					"stateMutability": "nonpayable",
					"type": "function"
				},
				{
					"inputs": [
						{
							"internalType": "uint256",
							"name": "_beneficiaryCountLimit",
							"type": "uint256"
						}
					],
					"name": "setBeneficiaryCountLimit",
					"outputs": [],
					"stateMutability": "nonpayable",
					"type": "function"
				},
				{
					"inputs": [
						{
							"internalType": "uint256",
							"name": "_minimumDurationInDays",
							"type": "uint256"
						}
					],
					"name": "setMinimumDurationInDays",
					"outputs": [],
					"stateMutability": "nonpayable",
					"type": "function"
				},
				{
					"inputs": [
						{
							"internalType": "address",
							"name": "_tokenReserveAddress",
							"type": "address"
						}
					],
					"name": "setTokenReserveAddress",
					"outputs": [],
					"stateMutability": "nonpayable",
					"type": "function"
				},
				{
					"inputs": [
						{
							"internalType": "uint256",
							"name": "_startTimeUnix",
							"type": "uint256"
						},
						{
							"internalType": "uint256",
							"name": "_durationInDays",
							"type": "uint256"
						},
						{
							"internalType": "uint256",
							"name": "_releaseScheduleInMinutes",
							"type": "uint256"
						}
					],
					"name": "setVestingScheme",
					"outputs": [],
					"stateMutability": "nonpayable",
					"type": "function"
				},
				{
					"inputs": [],
					"name": "tokenReserveAddress",
					"outputs": [
						{
							"internalType": "address",
							"name": "",
							"type": "address"
						}
					],
					"stateMutability": "view",
					"type": "function"
				},
				{
					"inputs": [
						{
							"internalType": "address",
							"name": "newOwner",
							"type": "address"
						}
					],
					"name": "transferOwnership",
					"outputs": [],
					"stateMutability": "nonpayable",
					"type": "function"
				}
			],
			"devdoc": {
				"kind": "dev",
				"methods": {
					"constructor": {
						"details": "Creates a token vesting contract.",
						"params": {
							"_token": "address of the ERC20 token contract"
						}
					},
					"getBeneficiaryCount()": {
						"details": "Returns the number of beneficiary addresses added.",
						"returns": {
							"_0": "the number of beneficiary addresses"
						}
					},
					"getReleasableAmount(address)": {
						"details": "Returns the maximum releaseable amount at a given time.",
						"returns": {
							"_0": "releaseable amount"
						}
					},
					"getVestingScheme()": {
						"details": "Returns the details of the current vesting scheme.",
						"returns": {
							"_0": "start unix timestamp, vesting duration in days, release interval in minutes"
						}
					},
					"owner()": {
						"details": "Returns the address of the current owner."
					},
					"renounceOwnership()": {
						"details": "Leaves the contract without owner. It will not be possible to call `onlyOwner` functions anymore. Can only be called by the current owner. NOTE: Renouncing ownership will leave the contract without an owner, thereby removing any functionality that is only available to the owner."
					},
					"setTokenReserveAddress(address)": {
						"details": "Assigns the number token reserve address.",
						"params": {
							"_tokenReserveAddress": "address of the account "
						}
					},
					"transferOwnership(address)": {
						"details": "Transfers ownership of the contract to a new account (`newOwner`). Can only be called by the current owner."
					}
				},
				"title": "TokenVesting",
				"version": 1
			},
			"evm": {
				"assembly": "    /* \"contract/tokenvesting.sol\":479:8022  contract TokenVesting is Ownable {\r... */\n  mstore(0x40, 0x80)\n    /* \"contract/tokenvesting.sol\":2488:2631  constructor (address _token) {\r... */\n  callvalue\n  dup1\n  iszero\n  tag_1\n  jumpi\n  0x00\n  dup1\n  revert\ntag_1:\n  pop\n  mload(0x40)\n  sub(codesize, bytecodeSize)\n  dup1\n  bytecodeSize\n  dup4\n  codecopy\n  dup2\n  dup2\n  add\n  0x40\n  mstore\n  dup2\n  add\n  swap1\n  tag_2\n  swap2\n  swap1\n  tag_3\n  jump\t// in\ntag_2:\n    /* \"https://github.com/OpenZeppelin/openzeppelin-contracts/blob/master/contracts/access/Ownable.sol\":921:953  _transferOwnership(_msgSender()) */\n  tag_7\n    /* \"https://github.com/OpenZeppelin/openzeppelin-contracts/blob/master/contracts/access/Ownable.sol\":940:952  _msgSender() */\n  tag_8\n    /* \"https://github.com/OpenZeppelin/openzeppelin-contracts/blob/master/contracts/access/Ownable.sol\":940:950  _msgSender */\n  shl(0x20, tag_9)\n    /* \"https://github.com/OpenZeppelin/openzeppelin-contracts/blob/master/contracts/access/Ownable.sol\":940:952  _msgSender() */\n  0x20\n  shr\n  jump\t// in\ntag_8:\n    /* \"https://github.com/OpenZeppelin/openzeppelin-contracts/blob/master/contracts/access/Ownable.sol\":921:939  _transferOwnership */\n  shl(0x20, tag_10)\n    /* \"https://github.com/OpenZeppelin/openzeppelin-contracts/blob/master/contracts/access/Ownable.sol\":921:953  _transferOwnership(_msgSender()) */\n  0x20\n  shr\n  jump\t// in\ntag_7:\n    /* \"contract/tokenvesting.sol\":2543:2549  _token */\n  dup1\n    /* \"contract/tokenvesting.sol\":2528:2533  token */\n  0x01\n  0x00\n    /* \"contract/tokenvesting.sol\":2528:2550  token = IERC20(_token) */\n  0x0100\n  exp\n  dup2\n  sload\n  dup2\n  0xffffffffffffffffffffffffffffffffffffffff\n  mul\n  not\n  and\n  swap1\n  dup4\n  0xffffffffffffffffffffffffffffffffffffffff\n  and\n  mul\n  or\n  swap1\n  sstore\n  pop\n    /* \"contract/tokenvesting.sol\":2585:2587  10 */\n  0x0a\n    /* \"contract/tokenvesting.sol\":2561:2582  beneficiaryCountLimit */\n  dup1\n    /* \"contract/tokenvesting.sol\":2561:2587  beneficiaryCountLimit = 10 */\n  dup2\n  swap1\n  sstore\n  pop\n    /* \"contract/tokenvesting.sol\":2622:2623  1 */\n  0x01\n    /* \"contract/tokenvesting.sol\":2598:2619  minimumDurationInDays */\n  0x0b\n    /* \"contract/tokenvesting.sol\":2598:2623  minimumDurationInDays = 1 */\n  dup2\n  swap1\n  sstore\n  pop\n    /* \"contract/tokenvesting.sol\":2488:2631  constructor (address _token) {\r... */\n  pop\n    /* \"contract/tokenvesting.sol\":479:8022  contract TokenVesting is Ownable {\r... */\n  jump(tag_12)\n    /* \"https://github.com/OpenZeppelin/openzeppelin-contracts/blob/master/contracts/utils/Context.sol\":640:736  function _msgSender() internal view virtual returns (address) {... */\ntag_9:\n    /* \"https://github.com/OpenZeppelin/openzeppelin-contracts/blob/master/contracts/utils/Context.sol\":693:700  address */\n  0x00\n    /* \"https://github.com/OpenZeppelin/openzeppelin-contracts/blob/master/contracts/utils/Context.sol\":719:729  msg.sender */\n  caller\n    /* \"https://github.com/OpenZeppelin/openzeppelin-contracts/blob/master/contracts/utils/Context.sol\":712:729  return msg.sender */\n  swap1\n  pop\n    /* \"https://github.com/OpenZeppelin/openzeppelin-contracts/blob/master/contracts/utils/Context.sol\":640:736  function _msgSender() internal view virtual returns (address) {... */\n  swap1\n  jump\t// out\n    /* \"https://github.com/OpenZeppelin/openzeppelin-contracts/blob/master/contracts/access/Ownable.sol\":2270:2457  function _transferOwnership(address newOwner) internal virtual {... */\ntag_10:\n    /* \"https://github.com/OpenZeppelin/openzeppelin-contracts/blob/master/contracts/access/Ownable.sol\":2343:2359  address oldOwner */\n  0x00\n    /* \"https://github.com/OpenZeppelin/openzeppelin-contracts/blob/master/contracts/access/Ownable.sol\":2362:2368  _owner */\n  dup1\n  0x00\n  swap1\n  sload\n  swap1\n  0x0100\n  exp\n  swap1\n  div\n  0xffffffffffffffffffffffffffffffffffffffff\n  and\n    /* \"https://github.com/OpenZeppelin/openzeppelin-contracts/blob/master/contracts/access/Ownable.sol\":2343:2368  address oldOwner = _owner */\n  swap1\n  pop\n    /* \"https://github.com/OpenZeppelin/openzeppelin-contracts/blob/master/contracts/access/Ownable.sol\":2387:2395  newOwner */\n  dup2\n    /* \"https://github.com/OpenZeppelin/openzeppelin-contracts/blob/master/contracts/access/Ownable.sol\":2378:2384  _owner */\n  0x00\n  dup1\n    /* \"https://github.com/OpenZeppelin/openzeppelin-contracts/blob/master/contracts/access/Ownable.sol\":2378:2395  _owner = newOwner */\n  0x0100\n  exp\n  dup2\n  sload\n  dup2\n  0xffffffffffffffffffffffffffffffffffffffff\n  mul\n  not\n  and\n  swap1\n  dup4\n  0xffffffffffffffffffffffffffffffffffffffff\n  and\n  mul\n  or\n  swap1\n  sstore\n  pop\n    /* \"https://github.com/OpenZeppelin/openzeppelin-contracts/blob/master/contracts/access/Ownable.sol\":2441:2449  newOwner */\n  dup2\n    /* \"https://github.com/OpenZeppelin/openzeppelin-contracts/blob/master/contracts/access/Ownable.sol\":2410:2450  OwnershipTransferred(oldOwner, newOwner) */\n  0xffffffffffffffffffffffffffffffffffffffff\n  and\n    /* \"https://github.com/OpenZeppelin/openzeppelin-contracts/blob/master/contracts/access/Ownable.sol\":2431:2439  oldOwner */\n  dup2\n    /* \"https://github.com/OpenZeppelin/openzeppelin-contracts/blob/master/contracts/access/Ownable.sol\":2410:2450  OwnershipTransferred(oldOwner, newOwner) */\n  0xffffffffffffffffffffffffffffffffffffffff\n  and\n  0x8be0079c531659141344cd1fd0a4f28419497f9722a3daafe3b4186f6b6457e0\n  mload(0x40)\n  mload(0x40)\n  dup1\n  swap2\n  sub\n  swap1\n  log3\n    /* \"https://github.com/OpenZeppelin/openzeppelin-contracts/blob/master/contracts/access/Ownable.sol\":2270:2457  function _transferOwnership(address newOwner) internal virtual {... */\n  pop\n  pop\n  jump\t// out\n    /* \"#utility.yul\":7:150   */\ntag_16:\n  0x00\n    /* \"#utility.yul\":95:101   */\n  dup2\n    /* \"#utility.yul\":89:102   */\n  mload\n    /* \"#utility.yul\":80:102   */\n  swap1\n  pop\n    /* \"#utility.yul\":111:144   */\n  tag_18\n    /* \"#utility.yul\":138:143   */\n  dup2\n    /* \"#utility.yul\":111:144   */\n  tag_19\n  jump\t// in\ntag_18:\n    /* \"#utility.yul\":70:150   */\n  swap3\n  swap2\n  pop\n  pop\n  jump\t// out\n    /* \"#utility.yul\":156:440   */\ntag_3:\n  0x00\n    /* \"#utility.yul\":275:277   */\n  0x20\n    /* \"#utility.yul\":263:272   */\n  dup3\n    /* \"#utility.yul\":254:261   */\n  dup5\n    /* \"#utility.yul\":250:273   */\n  sub\n    /* \"#utility.yul\":246:278   */\n  slt\n    /* \"#utility.yul\":243:245   */\n  iszero\n  tag_21\n  jumpi\n    /* \"#utility.yul\":291:292   */\n  0x00\n    /* \"#utility.yul\":288:289   */\n  dup1\n    /* \"#utility.yul\":281:293   */\n  revert\n    /* \"#utility.yul\":243:245   */\ntag_21:\n    /* \"#utility.yul\":334:335   */\n  0x00\n    /* \"#utility.yul\":359:423   */\n  tag_22\n    /* \"#utility.yul\":415:422   */\n  dup5\n    /* \"#utility.yul\":406:412   */\n  dup3\n    /* \"#utility.yul\":395:404   */\n  dup6\n    /* \"#utility.yul\":391:413   */\n  add\n    /* \"#utility.yul\":359:423   */\n  tag_16\n  jump\t// in\ntag_22:\n    /* \"#utility.yul\":349:423   */\n  swap2\n  pop\n    /* \"#utility.yul\":305:433   */\n  pop\n    /* \"#utility.yul\":233:440   */\n  swap3\n  swap2\n  pop\n  pop\n  jump\t// out\n    /* \"#utility.yul\":446:542   */\ntag_23:\n  0x00\n    /* \"#utility.yul\":512:536   */\n  tag_25\n    /* \"#utility.yul\":530:535   */\n  dup3\n    /* \"#utility.yul\":512:536   */\n  tag_26\n  jump\t// in\ntag_25:\n    /* \"#utility.yul\":501:536   */\n  swap1\n  pop\n    /* \"#utility.yul\":491:542   */\n  swap2\n  swap1\n  pop\n  jump\t// out\n    /* \"#utility.yul\":548:674   */\ntag_26:\n  0x00\n    /* \"#utility.yul\":625:667   */\n  0xffffffffffffffffffffffffffffffffffffffff\n    /* \"#utility.yul\":618:623   */\n  dup3\n    /* \"#utility.yul\":614:668   */\n  and\n    /* \"#utility.yul\":603:668   */\n  swap1\n  pop\n    /* \"#utility.yul\":593:674   */\n  swap2\n  swap1\n  pop\n  jump\t// out\n    /* \"#utility.yul\":680:802   */\ntag_19:\n    /* \"#utility.yul\":753:777   */\n  tag_29\n    /* \"#utility.yul\":771:776   */\n  dup2\n    /* \"#utility.yul\":753:777   */\n  tag_23\n  jump\t// in\ntag_29:\n    /* \"#utility.yul\":746:751   */\n  dup2\n    /* \"#utility.yul\":743:778   */\n  eq\n    /* \"#utility.yul\":733:735   */\n  tag_30\n  jumpi\n    /* \"#utility.yul\":792:793   */\n  0x00\n    /* \"#utility.yul\":789:790   */\n  dup1\n    /* \"#utility.yul\":782:794   */\n  revert\n    /* \"#utility.yul\":733:735   */\ntag_30:\n    /* \"#utility.yul\":723:802   */\n  pop\n  jump\t// out\n    /* \"contract/tokenvesting.sol\":479:8022  contract TokenVesting is Ownable {\r... */\ntag_12:\n  dataSize(sub_0)\n  dup1\n  dataOffset(sub_0)\n  0x00\n  codecopy\n  0x00\n  return\nstop\n\nsub_0: assembly {\n        /* \"contract/tokenvesting.sol\":479:8022  contract TokenVesting is Ownable {\r... */\n      mstore(0x40, 0x80)\n      callvalue\n      dup1\n      iszero\n      tag_1\n      jumpi\n      0x00\n      dup1\n      revert\n    tag_1:\n      pop\n      jumpi(tag_2, lt(calldatasize, 0x04))\n      shr(0xe0, calldataload(0x00))\n      dup1\n      0x6b51d347\n      gt\n      tag_22\n      jumpi\n      dup1\n      0x9e761bbb\n      gt\n      tag_23\n      jumpi\n      dup1\n      0x9e761bbb\n      eq\n      tag_17\n      jumpi\n      dup1\n      0x9f79685e\n      eq\n      tag_18\n      jumpi\n      dup1\n      0xb9f0bf66\n      eq\n      tag_19\n      jumpi\n      dup1\n      0xf2fde38b\n      eq\n      tag_20\n      jumpi\n      dup1\n      0xfc99d9a1\n      eq\n      tag_21\n      jumpi\n      jump(tag_2)\n    tag_23:\n      dup1\n      0x6b51d347\n      eq\n      tag_12\n      jumpi\n      dup1\n      0x715018a6\n      eq\n      tag_13\n      jumpi\n      dup1\n      0x75de48ab\n      eq\n      tag_14\n      jumpi\n      dup1\n      0x8da5cb5b\n      eq\n      tag_15\n      jumpi\n      dup1\n      0x9a6e7fd1\n      eq\n      tag_16\n      jumpi\n      jump(tag_2)\n    tag_22:\n      dup1\n      0x4a917a2f\n      gt\n      tag_24\n      jumpi\n      dup1\n      0x4a917a2f\n      eq\n      tag_7\n      jumpi\n      dup1\n      0x566b041d\n      eq\n      tag_8\n      jumpi\n      dup1\n      0x59a075ec\n      eq\n      tag_9\n      jumpi\n      dup1\n      0x65473fd2\n      eq\n      tag_10\n      jumpi\n      dup1\n      0x66923995\n      eq\n      tag_11\n      jumpi\n      jump(tag_2)\n    tag_24:\n      dup1\n      0x0357371d\n      eq\n      tag_3\n      jumpi\n      dup1\n      0x054cacaf\n      eq\n      tag_4\n      jumpi\n      dup1\n      0x2afd1a7d\n      eq\n      tag_5\n      jumpi\n      dup1\n      0x366340ca\n      eq\n      tag_6\n      jumpi\n    tag_2:\n      0x00\n      dup1\n      revert\n        /* \"contract/tokenvesting.sol\":6151:6977  function release (address _beneficiary, uint256 _releaseAmount) public isBeneficiaryValid (_beneficiary) {\r... */\n    tag_3:\n      tag_25\n      0x04\n      dup1\n      calldatasize\n      sub\n      dup2\n      add\n      swap1\n      tag_26\n      swap2\n      swap1\n      tag_27\n      jump\t// in\n    tag_26:\n      tag_28\n      jump\t// in\n    tag_25:\n      stop\n        /* \"contract/tokenvesting.sol\":1002:1053  mapping (address => bool) public isValidBeneficiary */\n    tag_4:\n      tag_29\n      0x04\n      dup1\n      calldatasize\n      sub\n      dup2\n      add\n      swap1\n      tag_30\n      swap2\n      swap1\n      tag_31\n      jump\t// in\n    tag_30:\n      tag_32\n      jump\t// in\n    tag_29:\n      mload(0x40)\n      tag_33\n      swap2\n      swap1\n      tag_34\n      jump\t// in\n    tag_33:\n      mload(0x40)\n      dup1\n      swap2\n      sub\n      swap1\n      return\n        /* \"contract/tokenvesting.sol\":3348:3584  function getReleasableAmount (address _beneficiary) external view isBeneficiaryValid (_beneficiary) returns (uint256) {\r... */\n    tag_5:\n      tag_35\n      0x04\n      dup1\n      calldatasize\n      sub\n      dup2\n      add\n      swap1\n      tag_36\n      swap2\n      swap1\n      tag_31\n      jump\t// in\n    tag_36:\n      tag_37\n      jump\t// in\n    tag_35:\n      mload(0x40)\n      tag_38\n      swap2\n      swap1\n      tag_39\n      jump\t// in\n    tag_38:\n      mload(0x40)\n      dup1\n      swap2\n      sub\n      swap1\n      return\n        /* \"contract/tokenvesting.sol\":1330:1366  uint256 public beneficiaryCountLimit */\n    tag_6:\n      tag_40\n      tag_41\n      jump\t// in\n    tag_40:\n      mload(0x40)\n      tag_42\n      swap2\n      swap1\n      tag_39\n      jump\t// in\n    tag_42:\n      mload(0x40)\n      dup1\n      swap2\n      sub\n      swap1\n      return\n        /* \"contract/tokenvesting.sol\":3722:3863  function setTokenReserveAddress (address _tokenReserveAddress) public onlyOwner {\r... */\n    tag_7:\n      tag_43\n      0x04\n      dup1\n      calldatasize\n      sub\n      dup2\n      add\n      swap1\n      tag_44\n      swap2\n      swap1\n      tag_31\n      jump\t// in\n    tag_44:\n      tag_45\n      jump\t// in\n    tag_43:\n      stop\n        /* \"contract/tokenvesting.sol\":4141:4401  function setMinimumDurationInDays (uint256 _minimumDurationInDays) public onlyOwner {\r... */\n    tag_8:\n      tag_46\n      0x04\n      dup1\n      calldatasize\n      sub\n      dup2\n      add\n      swap1\n      tag_47\n      swap2\n      swap1\n      tag_48\n      jump\t// in\n    tag_47:\n      tag_49\n      jump\t// in\n    tag_46:\n      stop\n        /* \"contract/tokenvesting.sol\":1419:1455  uint256 public minimumDurationInDays */\n    tag_9:\n      tag_50\n      tag_51\n      jump\t// in\n    tag_50:\n      mload(0x40)\n      tag_52\n      swap2\n      swap1\n      tag_39\n      jump\t// in\n    tag_52:\n      mload(0x40)\n      dup1\n      swap2\n      sub\n      swap1\n      return\n        /* \"contract/tokenvesting.sol\":1515:1549  address public tokenReserveAddress */\n    tag_10:\n      tag_53\n      tag_54\n      jump\t// in\n    tag_53:\n      mload(0x40)\n      tag_55\n      swap2\n      swap1\n      tag_56\n      jump\t// in\n    tag_55:\n      mload(0x40)\n      dup1\n      swap2\n      sub\n      swap1\n      return\n        /* \"contract/tokenvesting.sol\":3059:3221  function getVestingScheme () external view returns (uint256, uint256, uint256) {\r... */\n    tag_11:\n      tag_57\n      tag_58\n      jump\t// in\n    tag_57:\n      mload(0x40)\n      tag_59\n      swap4\n      swap3\n      swap2\n      swap1\n      tag_60\n      jump\t// in\n    tag_59:\n      mload(0x40)\n      dup1\n      swap2\n      sub\n      swap1\n      return\n        /* \"contract/tokenvesting.sol\":1219:1269  mapping (address => uint256) public amountReleased */\n    tag_12:\n      tag_61\n      0x04\n      dup1\n      calldatasize\n      sub\n      dup2\n      add\n      swap1\n      tag_62\n      swap2\n      swap1\n      tag_31\n      jump\t// in\n    tag_62:\n      tag_63\n      jump\t// in\n    tag_61:\n      mload(0x40)\n      tag_64\n      swap2\n      swap1\n      tag_39\n      jump\t// in\n    tag_64:\n      mload(0x40)\n      dup1\n      swap2\n      sub\n      swap1\n      return\n        /* \"https://github.com/OpenZeppelin/openzeppelin-contracts/blob/master/contracts/access/Ownable.sol\":1668:1769  function renounceOwnership() public virtual onlyOwner {... */\n    tag_13:\n      tag_65\n      tag_66\n      jump\t// in\n    tag_65:\n      stop\n        /* \"contract/tokenvesting.sol\":3871:4133  function setBeneficiaryCountLimit (uint _beneficiaryCountLimit) public onlyOwner {\r... */\n    tag_14:\n      tag_67\n      0x04\n      dup1\n      calldatasize\n      sub\n      dup2\n      add\n      swap1\n      tag_68\n      swap2\n      swap1\n      tag_48\n      jump\t// in\n    tag_68:\n      tag_69\n      jump\t// in\n    tag_67:\n      stop\n        /* \"https://github.com/OpenZeppelin/openzeppelin-contracts/blob/master/contracts/access/Ownable.sol\":1036:1121  function owner() public view virtual returns (address) {... */\n    tag_15:\n      tag_70\n      tag_71\n      jump\t// in\n    tag_70:\n      mload(0x40)\n      tag_72\n      swap2\n      swap1\n      tag_56\n      jump\t// in\n    tag_72:\n      mload(0x40)\n      dup1\n      swap2\n      sub\n      swap1\n      return\n        /* \"contract/tokenvesting.sol\":2770:2880  function getBeneficiaryCount () public view returns (uint256) {\r... */\n    tag_16:\n      tag_73\n      tag_74\n      jump\t// in\n    tag_73:\n      mload(0x40)\n      tag_75\n      swap2\n      swap1\n      tag_39\n      jump\t// in\n    tag_75:\n      mload(0x40)\n      dup1\n      swap2\n      sub\n      swap1\n      return\n        /* \"contract/tokenvesting.sol\":924:956  address[] public beneficiaryList */\n    tag_17:\n      tag_76\n      0x04\n      dup1\n      calldatasize\n      sub\n      dup2\n      add\n      swap1\n      tag_77\n      swap2\n      swap1\n      tag_48\n      jump\t// in\n    tag_77:\n      tag_78\n      jump\t// in\n    tag_76:\n      mload(0x40)\n      tag_79\n      swap2\n      swap1\n      tag_56\n      jump\t// in\n    tag_79:\n      mload(0x40)\n      dup1\n      swap2\n      sub\n      swap1\n      return\n        /* \"contract/tokenvesting.sol\":5160:6143  function setBeneficiaryAddressAndAmount (address _beneficiary, uint256 _amount) public onlyOwner {\r... */\n    tag_18:\n      tag_80\n      0x04\n      dup1\n      calldatasize\n      sub\n      dup2\n      add\n      swap1\n      tag_81\n      swap2\n      swap1\n      tag_27\n      jump\t// in\n    tag_81:\n      tag_82\n      jump\t// in\n    tag_80:\n      stop\n        /* \"contract/tokenvesting.sol\":1120:1162  mapping (address => uint256) public amount */\n    tag_19:\n      tag_83\n      0x04\n      dup1\n      calldatasize\n      sub\n      dup2\n      add\n      swap1\n      tag_84\n      swap2\n      swap1\n      tag_31\n      jump\t// in\n    tag_84:\n      tag_85\n      jump\t// in\n    tag_83:\n      mload(0x40)\n      tag_86\n      swap2\n      swap1\n      tag_39\n      jump\t// in\n    tag_86:\n      mload(0x40)\n      dup1\n      swap2\n      sub\n      swap1\n      return\n        /* \"https://github.com/OpenZeppelin/openzeppelin-contracts/blob/master/contracts/access/Ownable.sol\":1918:2116  function transferOwnership(address newOwner) public virtual onlyOwner {... */\n    tag_20:\n      tag_87\n      0x04\n      dup1\n      calldatasize\n      sub\n      dup2\n      add\n      swap1\n      tag_88\n      swap2\n      swap1\n      tag_31\n      jump\t// in\n    tag_88:\n      tag_89\n      jump\t// in\n    tag_87:\n      stop\n        /* \"contract/tokenvesting.sol\":4409:5152  function setVestingScheme (uint256 _startTimeUnix, uint256 _durationInDays, uint256 _releaseScheduleInMinutes) public onlyOwner {\r... */\n    tag_21:\n      tag_90\n      0x04\n      dup1\n      calldatasize\n      sub\n      dup2\n      add\n      swap1\n      tag_91\n      swap2\n      swap1\n      tag_92\n      jump\t// in\n    tag_91:\n      tag_93\n      jump\t// in\n    tag_90:\n      stop\n        /* \"contract/tokenvesting.sol\":6151:6977  function release (address _beneficiary, uint256 _releaseAmount) public isBeneficiaryValid (_beneficiary) {\r... */\n    tag_28:\n        /* \"contract/tokenvesting.sol\":6242:6254  _beneficiary */\n      dup2\n        /* \"contract/tokenvesting.sol\":2219:2237  isValidBeneficiary */\n      0x07\n        /* \"contract/tokenvesting.sol\":2219:2251  isValidBeneficiary[_beneficiary] */\n      0x00\n        /* \"contract/tokenvesting.sol\":2238:2250  _beneficiary */\n      dup3\n        /* \"contract/tokenvesting.sol\":2219:2251  isValidBeneficiary[_beneficiary] */\n      0xffffffffffffffffffffffffffffffffffffffff\n      and\n      0xffffffffffffffffffffffffffffffffffffffff\n      and\n      dup2\n      mstore\n      0x20\n      add\n      swap1\n      dup2\n      mstore\n      0x20\n      add\n      0x00\n      keccak256\n      0x00\n      swap1\n      sload\n      swap1\n      0x0100\n      exp\n      swap1\n      div\n      0xff\n      and\n        /* \"contract/tokenvesting.sol\":2219:2282  isValidBeneficiary[_beneficiary] && _beneficiary != address (0) */\n      dup1\n      iszero\n      tag_95\n      jumpi\n      pop\n        /* \"contract/tokenvesting.sol\":2280:2281  0 */\n      0x00\n        /* \"contract/tokenvesting.sol\":2255:2282  _beneficiary != address (0) */\n      0xffffffffffffffffffffffffffffffffffffffff\n      and\n        /* \"contract/tokenvesting.sol\":2255:2267  _beneficiary */\n      dup2\n        /* \"contract/tokenvesting.sol\":2255:2282  _beneficiary != address (0) */\n      0xffffffffffffffffffffffffffffffffffffffff\n      and\n      eq\n      iszero\n        /* \"contract/tokenvesting.sol\":2219:2282  isValidBeneficiary[_beneficiary] && _beneficiary != address (0) */\n    tag_95:\n        /* \"contract/tokenvesting.sol\":2210:2337  require (isValidBeneficiary[_beneficiary] && _beneficiary != address (0), \"TokenVesting: Invalid beneficiary address detected\") */\n      tag_96\n      jumpi\n      mload(0x40)\n      0x08c379a000000000000000000000000000000000000000000000000000000000\n      dup2\n      mstore\n      0x04\n      add\n      tag_97\n      swap1\n      tag_98\n      jump\t// in\n    tag_97:\n      mload(0x40)\n      dup1\n      swap2\n      sub\n      swap1\n      revert\n    tag_96:\n        /* \"contract/tokenvesting.sol\":6292:6299  owner() */\n      tag_100\n        /* \"contract/tokenvesting.sol\":6292:6297  owner */\n      tag_71\n        /* \"contract/tokenvesting.sol\":6292:6299  owner() */\n      jump\t// in\n    tag_100:\n        /* \"contract/tokenvesting.sol\":6276:6299  _msgSender() == owner() */\n      0xffffffffffffffffffffffffffffffffffffffff\n      and\n        /* \"contract/tokenvesting.sol\":6276:6288  _msgSender() */\n      tag_101\n        /* \"contract/tokenvesting.sol\":6276:6286  _msgSender */\n      tag_102\n        /* \"contract/tokenvesting.sol\":6276:6288  _msgSender() */\n      jump\t// in\n    tag_101:\n        /* \"contract/tokenvesting.sol\":6276:6299  _msgSender() == owner() */\n      0xffffffffffffffffffffffffffffffffffffffff\n      and\n      eq\n        /* \"contract/tokenvesting.sol\":6276:6335  _msgSender() == owner() || isValidBeneficiary[_msgSender()] */\n      dup1\n      tag_103\n      jumpi\n      pop\n        /* \"contract/tokenvesting.sol\":6303:6321  isValidBeneficiary */\n      0x07\n        /* \"contract/tokenvesting.sol\":6303:6335  isValidBeneficiary[_msgSender()] */\n      0x00\n        /* \"contract/tokenvesting.sol\":6322:6334  _msgSender() */\n      tag_104\n        /* \"contract/tokenvesting.sol\":6322:6332  _msgSender */\n      tag_102\n        /* \"contract/tokenvesting.sol\":6322:6334  _msgSender() */\n      jump\t// in\n    tag_104:\n        /* \"contract/tokenvesting.sol\":6303:6335  isValidBeneficiary[_msgSender()] */\n      0xffffffffffffffffffffffffffffffffffffffff\n      and\n      0xffffffffffffffffffffffffffffffffffffffff\n      and\n      dup2\n      mstore\n      0x20\n      add\n      swap1\n      dup2\n      mstore\n      0x20\n      add\n      0x00\n      keccak256\n      0x00\n      swap1\n      sload\n      swap1\n      0x0100\n      exp\n      swap1\n      div\n      0xff\n      and\n        /* \"contract/tokenvesting.sol\":6276:6335  _msgSender() == owner() || isValidBeneficiary[_msgSender()] */\n    tag_103:\n        /* \"contract/tokenvesting.sol\":6267:6402  require (_msgSender() == owner() || isValidBeneficiary[_msgSender()], \"TokenVesting: Only owner or a valid beneficiary can be caller.\") */\n      tag_105\n      jumpi\n      mload(0x40)\n      0x08c379a000000000000000000000000000000000000000000000000000000000\n      dup2\n      mstore\n      0x04\n      add\n      tag_106\n      swap1\n      tag_107\n      jump\t// in\n    tag_106:\n      mload(0x40)\n      dup1\n      swap2\n      sub\n      swap1\n      revert\n    tag_105:\n        /* \"contract/tokenvesting.sol\":6440:6446  amount */\n      0x08\n        /* \"contract/tokenvesting.sol\":6440:6460  amount[_beneficiary] */\n      0x00\n        /* \"contract/tokenvesting.sol\":6447:6459  _beneficiary */\n      dup5\n        /* \"contract/tokenvesting.sol\":6440:6460  amount[_beneficiary] */\n      0xffffffffffffffffffffffffffffffffffffffff\n      and\n      0xffffffffffffffffffffffffffffffffffffffff\n      and\n      dup2\n      mstore\n      0x20\n      add\n      swap1\n      dup2\n      mstore\n      0x20\n      add\n      0x00\n      keccak256\n      sload\n        /* \"contract/tokenvesting.sol\":6422:6436  _releaseAmount */\n      dup3\n        /* \"contract/tokenvesting.sol\":6422:6460  _releaseAmount <= amount[_beneficiary] */\n      gt\n      iszero\n        /* \"contract/tokenvesting.sol\":6413:6534  require (_releaseAmount <= amount[_beneficiary], \"TokenVesting: Release amount cannot be more than total vesting amount\") */\n      tag_108\n      jumpi\n      mload(0x40)\n      0x08c379a000000000000000000000000000000000000000000000000000000000\n      dup2\n      mstore\n      0x04\n      add\n      tag_109\n      swap1\n      tag_110\n      jump\t// in\n    tag_109:\n      mload(0x40)\n      dup1\n      swap2\n      sub\n      swap1\n      revert\n    tag_108:\n        /* \"contract/tokenvesting.sol\":6545:6569  uint256 releasableAmount */\n      0x00\n        /* \"contract/tokenvesting.sol\":6572:6608  _getReleaseableAmount (_beneficiary) */\n      tag_111\n        /* \"contract/tokenvesting.sol\":6595:6607  _beneficiary */\n      dup5\n        /* \"contract/tokenvesting.sol\":6572:6593  _getReleaseableAmount */\n      tag_112\n        /* \"contract/tokenvesting.sol\":6572:6608  _getReleaseableAmount (_beneficiary) */\n      jump\t// in\n    tag_111:\n        /* \"contract/tokenvesting.sol\":6545:6608  uint256 releasableAmount = _getReleaseableAmount (_beneficiary) */\n      swap1\n      pop\n        /* \"contract/tokenvesting.sol\":6646:6662  releasableAmount */\n      dup1\n        /* \"contract/tokenvesting.sol\":6628:6642  _releaseAmount */\n      dup4\n        /* \"contract/tokenvesting.sol\":6628:6662  _releaseAmount <= releasableAmount */\n      gt\n      iszero\n        /* \"contract/tokenvesting.sol\":6619:6745  require (_releaseAmount <= releasableAmount, \"TokenVesting: Entered release amount is greater than cuurent releasable amount\") */\n      tag_113\n      jumpi\n      mload(0x40)\n      0x08c379a000000000000000000000000000000000000000000000000000000000\n      dup2\n      mstore\n      0x04\n      add\n      tag_114\n      swap1\n      tag_115\n      jump\t// in\n    tag_114:\n      mload(0x40)\n      dup1\n      swap2\n      sub\n      swap1\n      revert\n    tag_113:\n        /* \"contract/tokenvesting.sol\":6787:6835  amountReleased[_beneficiary].add(_releaseAmount) */\n      tag_116\n        /* \"contract/tokenvesting.sol\":6820:6834  _releaseAmount */\n      dup4\n        /* \"contract/tokenvesting.sol\":6787:6801  amountReleased */\n      0x09\n        /* \"contract/tokenvesting.sol\":6787:6815  amountReleased[_beneficiary] */\n      0x00\n        /* \"contract/tokenvesting.sol\":6802:6814  _beneficiary */\n      dup8\n        /* \"contract/tokenvesting.sol\":6787:6815  amountReleased[_beneficiary] */\n      0xffffffffffffffffffffffffffffffffffffffff\n      and\n      0xffffffffffffffffffffffffffffffffffffffff\n      and\n      dup2\n      mstore\n      0x20\n      add\n      swap1\n      dup2\n      mstore\n      0x20\n      add\n      0x00\n      keccak256\n      sload\n        /* \"contract/tokenvesting.sol\":6787:6819  amountReleased[_beneficiary].add */\n      tag_117\n      swap1\n        /* \"contract/tokenvesting.sol\":6787:6835  amountReleased[_beneficiary].add(_releaseAmount) */\n      swap2\n      swap1\n      0xffffffff\n      and\n      jump\t// in\n    tag_116:\n        /* \"contract/tokenvesting.sol\":6756:6770  amountReleased */\n      0x09\n        /* \"contract/tokenvesting.sol\":6756:6784  amountReleased[_beneficiary] */\n      0x00\n        /* \"contract/tokenvesting.sol\":6771:6783  _beneficiary */\n      dup7\n        /* \"contract/tokenvesting.sol\":6756:6784  amountReleased[_beneficiary] */\n      0xffffffffffffffffffffffffffffffffffffffff\n      and\n      0xffffffffffffffffffffffffffffffffffffffff\n      and\n      dup2\n      mstore\n      0x20\n      add\n      swap1\n      dup2\n      mstore\n      0x20\n      add\n      0x00\n      keccak256\n        /* \"contract/tokenvesting.sol\":6756:6835  amountReleased[_beneficiary] = amountReleased[_beneficiary].add(_releaseAmount) */\n      dup2\n      swap1\n      sstore\n      pop\n        /* \"contract/tokenvesting.sol\":6860:6872  _beneficiary */\n      dup4\n        /* \"contract/tokenvesting.sol\":6851:6889  Release (_beneficiary, _releaseAmount) */\n      0xffffffffffffffffffffffffffffffffffffffff\n      and\n      0xf6334794522b9db534a812aaae1af828a2e96aac68473b58e36d7d0bfd67477b\n        /* \"contract/tokenvesting.sol\":6874:6888  _releaseAmount */\n      dup5\n        /* \"contract/tokenvesting.sol\":6851:6889  Release (_beneficiary, _releaseAmount) */\n      mload(0x40)\n      tag_118\n      swap2\n      swap1\n      tag_39\n      jump\t// in\n    tag_118:\n      mload(0x40)\n      dup1\n      swap2\n      sub\n      swap1\n      log2\n        /* \"contract/tokenvesting.sol\":6900:6905  token */\n      0x01\n      0x00\n      swap1\n      sload\n      swap1\n      0x0100\n      exp\n      swap1\n      div\n      0xffffffffffffffffffffffffffffffffffffffff\n      and\n        /* \"contract/tokenvesting.sol\":6900:6918  token.transferFrom */\n      0xffffffffffffffffffffffffffffffffffffffff\n      and\n      0x23b872dd\n        /* \"contract/tokenvesting.sol\":6919:6938  tokenReserveAddress */\n      0x0c\n      0x00\n      swap1\n      sload\n      swap1\n      0x0100\n      exp\n      swap1\n      div\n      0xffffffffffffffffffffffffffffffffffffffff\n      and\n        /* \"contract/tokenvesting.sol\":6940:6952  _beneficiary */\n      dup7\n        /* \"contract/tokenvesting.sol\":6954:6968  _releaseAmount */\n      dup7\n        /* \"contract/tokenvesting.sol\":6900:6969  token.transferFrom(tokenReserveAddress, _beneficiary, _releaseAmount) */\n      mload(0x40)\n      dup5\n      0xffffffff\n      and\n      0xe0\n      shl\n      dup2\n      mstore\n      0x04\n      add\n      tag_119\n      swap4\n      swap3\n      swap2\n      swap1\n      tag_120\n      jump\t// in\n    tag_119:\n      0x20\n      mload(0x40)\n      dup1\n      dup4\n      sub\n      dup2\n      0x00\n      dup8\n      dup1\n      extcodesize\n      iszero\n      dup1\n      iszero\n      tag_121\n      jumpi\n      0x00\n      dup1\n      revert\n    tag_121:\n      pop\n      gas\n      call\n      iszero\n      dup1\n      iszero\n      tag_123\n      jumpi\n      returndatasize\n      0x00\n      dup1\n      returndatacopy\n      revert(0x00, returndatasize)\n    tag_123:\n      pop\n      pop\n      pop\n      pop\n      mload(0x40)\n      returndatasize\n      not(0x1f)\n      0x1f\n      dup3\n      add\n      and\n      dup3\n      add\n      dup1\n      0x40\n      mstore\n      pop\n      dup2\n      add\n      swap1\n      tag_124\n      swap2\n      swap1\n      tag_125\n      jump\t// in\n    tag_124:\n      pop\n        /* \"contract/tokenvesting.sol\":2348:2349  _ */\n      pop\n        /* \"contract/tokenvesting.sol\":6151:6977  function release (address _beneficiary, uint256 _releaseAmount) public isBeneficiaryValid (_beneficiary) {\r... */\n      pop\n      pop\n      pop\n      jump\t// out\n        /* \"contract/tokenvesting.sol\":1002:1053  mapping (address => bool) public isValidBeneficiary */\n    tag_32:\n      mstore(0x20, 0x07)\n      dup1\n      0x00\n      mstore\n      keccak256(0x00, 0x40)\n      0x00\n      swap2\n      pop\n      sload\n      swap1\n      0x0100\n      exp\n      swap1\n      div\n      0xff\n      and\n      dup2\n      jump\t// out\n        /* \"contract/tokenvesting.sol\":3348:3584  function getReleasableAmount (address _beneficiary) external view isBeneficiaryValid (_beneficiary) returns (uint256) {\r... */\n    tag_37:\n        /* \"contract/tokenvesting.sol\":3457:3464  uint256 */\n      0x00\n        /* \"contract/tokenvesting.sol\":3434:3446  _beneficiary */\n      dup2\n        /* \"contract/tokenvesting.sol\":2219:2237  isValidBeneficiary */\n      0x07\n        /* \"contract/tokenvesting.sol\":2219:2251  isValidBeneficiary[_beneficiary] */\n      0x00\n        /* \"contract/tokenvesting.sol\":2238:2250  _beneficiary */\n      dup3\n        /* \"contract/tokenvesting.sol\":2219:2251  isValidBeneficiary[_beneficiary] */\n      0xffffffffffffffffffffffffffffffffffffffff\n      and\n      0xffffffffffffffffffffffffffffffffffffffff\n      and\n      dup2\n      mstore\n      0x20\n      add\n      swap1\n      dup2\n      mstore\n      0x20\n      add\n      0x00\n      keccak256\n      0x00\n      swap1\n      sload\n      swap1\n      0x0100\n      exp\n      swap1\n      div\n      0xff\n      and\n        /* \"contract/tokenvesting.sol\":2219:2282  isValidBeneficiary[_beneficiary] && _beneficiary != address (0) */\n      dup1\n      iszero\n      tag_127\n      jumpi\n      pop\n        /* \"contract/tokenvesting.sol\":2280:2281  0 */\n      0x00\n        /* \"contract/tokenvesting.sol\":2255:2282  _beneficiary != address (0) */\n      0xffffffffffffffffffffffffffffffffffffffff\n      and\n        /* \"contract/tokenvesting.sol\":2255:2267  _beneficiary */\n      dup2\n        /* \"contract/tokenvesting.sol\":2255:2282  _beneficiary != address (0) */\n      0xffffffffffffffffffffffffffffffffffffffff\n      and\n      eq\n      iszero\n        /* \"contract/tokenvesting.sol\":2219:2282  isValidBeneficiary[_beneficiary] && _beneficiary != address (0) */\n    tag_127:\n        /* \"contract/tokenvesting.sol\":2210:2337  require (isValidBeneficiary[_beneficiary] && _beneficiary != address (0), \"TokenVesting: Invalid beneficiary address detected\") */\n      tag_128\n      jumpi\n      mload(0x40)\n      0x08c379a000000000000000000000000000000000000000000000000000000000\n      dup2\n      mstore\n      0x04\n      add\n      tag_129\n      swap1\n      tag_98\n      jump\t// in\n    tag_129:\n      mload(0x40)\n      dup1\n      swap2\n      sub\n      swap1\n      revert\n    tag_128:\n        /* \"contract/tokenvesting.sol\":3477:3502  uint256 _releasableAmount */\n      0x00\n        /* \"contract/tokenvesting.sol\":3505:3541  _getReleaseableAmount (_beneficiary) */\n      tag_131\n        /* \"contract/tokenvesting.sol\":3528:3540  _beneficiary */\n      dup5\n        /* \"contract/tokenvesting.sol\":3505:3526  _getReleaseableAmount */\n      tag_112\n        /* \"contract/tokenvesting.sol\":3505:3541  _getReleaseableAmount (_beneficiary) */\n      jump\t// in\n    tag_131:\n        /* \"contract/tokenvesting.sol\":3477:3541  uint256 _releasableAmount = _getReleaseableAmount (_beneficiary) */\n      swap1\n      pop\n        /* \"contract/tokenvesting.sol\":3559:3576  _releasableAmount */\n      dup1\n        /* \"contract/tokenvesting.sol\":3552:3576  return _releasableAmount */\n      swap3\n      pop\n      pop\n        /* \"contract/tokenvesting.sol\":3348:3584  function getReleasableAmount (address _beneficiary) external view isBeneficiaryValid (_beneficiary) returns (uint256) {\r... */\n      pop\n      swap2\n      swap1\n      pop\n      jump\t// out\n        /* \"contract/tokenvesting.sol\":1330:1366  uint256 public beneficiaryCountLimit */\n    tag_41:\n      sload(0x0a)\n      dup2\n      jump\t// out\n        /* \"contract/tokenvesting.sol\":3722:3863  function setTokenReserveAddress (address _tokenReserveAddress) public onlyOwner {\r... */\n    tag_45:\n        /* \"https://github.com/OpenZeppelin/openzeppelin-contracts/blob/master/contracts/access/Ownable.sol\":1259:1271  _msgSender() */\n      tag_133\n        /* \"https://github.com/OpenZeppelin/openzeppelin-contracts/blob/master/contracts/access/Ownable.sol\":1259:1269  _msgSender */\n      tag_102\n        /* \"https://github.com/OpenZeppelin/openzeppelin-contracts/blob/master/contracts/access/Ownable.sol\":1259:1271  _msgSender() */\n      jump\t// in\n    tag_133:\n        /* \"https://github.com/OpenZeppelin/openzeppelin-contracts/blob/master/contracts/access/Ownable.sol\":1248:1271  owner() == _msgSender() */\n      0xffffffffffffffffffffffffffffffffffffffff\n      and\n        /* \"https://github.com/OpenZeppelin/openzeppelin-contracts/blob/master/contracts/access/Ownable.sol\":1248:1255  owner() */\n      tag_134\n        /* \"https://github.com/OpenZeppelin/openzeppelin-contracts/blob/master/contracts/access/Ownable.sol\":1248:1253  owner */\n      tag_71\n        /* \"https://github.com/OpenZeppelin/openzeppelin-contracts/blob/master/contracts/access/Ownable.sol\":1248:1255  owner() */\n      jump\t// in\n    tag_134:\n        /* \"https://github.com/OpenZeppelin/openzeppelin-contracts/blob/master/contracts/access/Ownable.sol\":1248:1271  owner() == _msgSender() */\n      0xffffffffffffffffffffffffffffffffffffffff\n      and\n      eq\n        /* \"https://github.com/OpenZeppelin/openzeppelin-contracts/blob/master/contracts/access/Ownable.sol\":1240:1308  require(owner() == _msgSender(), \"Ownable: caller is not the owner\") */\n      tag_135\n      jumpi\n      mload(0x40)\n      0x08c379a000000000000000000000000000000000000000000000000000000000\n      dup2\n      mstore\n      0x04\n      add\n      tag_136\n      swap1\n      tag_137\n      jump\t// in\n    tag_136:\n      mload(0x40)\n      dup1\n      swap2\n      sub\n      swap1\n      revert\n    tag_135:\n        /* \"contract/tokenvesting.sol\":3835:3855  _tokenReserveAddress */\n      dup1\n        /* \"contract/tokenvesting.sol\":3813:3832  tokenReserveAddress */\n      0x0c\n      0x00\n        /* \"contract/tokenvesting.sol\":3813:3855  tokenReserveAddress = _tokenReserveAddress */\n      0x0100\n      exp\n      dup2\n      sload\n      dup2\n      0xffffffffffffffffffffffffffffffffffffffff\n      mul\n      not\n      and\n      swap1\n      dup4\n      0xffffffffffffffffffffffffffffffffffffffff\n      and\n      mul\n      or\n      swap1\n      sstore\n      pop\n        /* \"contract/tokenvesting.sol\":3722:3863  function setTokenReserveAddress (address _tokenReserveAddress) public onlyOwner {\r... */\n      pop\n      jump\t// out\n        /* \"contract/tokenvesting.sol\":4141:4401  function setMinimumDurationInDays (uint256 _minimumDurationInDays) public onlyOwner {\r... */\n    tag_49:\n        /* \"https://github.com/OpenZeppelin/openzeppelin-contracts/blob/master/contracts/access/Ownable.sol\":1259:1271  _msgSender() */\n      tag_140\n        /* \"https://github.com/OpenZeppelin/openzeppelin-contracts/blob/master/contracts/access/Ownable.sol\":1259:1269  _msgSender */\n      tag_102\n        /* \"https://github.com/OpenZeppelin/openzeppelin-contracts/blob/master/contracts/access/Ownable.sol\":1259:1271  _msgSender() */\n      jump\t// in\n    tag_140:\n        /* \"https://github.com/OpenZeppelin/openzeppelin-contracts/blob/master/contracts/access/Ownable.sol\":1248:1271  owner() == _msgSender() */\n      0xffffffffffffffffffffffffffffffffffffffff\n      and\n        /* \"https://github.com/OpenZeppelin/openzeppelin-contracts/blob/master/contracts/access/Ownable.sol\":1248:1255  owner() */\n      tag_141\n        /* \"https://github.com/OpenZeppelin/openzeppelin-contracts/blob/master/contracts/access/Ownable.sol\":1248:1253  owner */\n      tag_71\n        /* \"https://github.com/OpenZeppelin/openzeppelin-contracts/blob/master/contracts/access/Ownable.sol\":1248:1255  owner() */\n      jump\t// in\n    tag_141:\n        /* \"https://github.com/OpenZeppelin/openzeppelin-contracts/blob/master/contracts/access/Ownable.sol\":1248:1271  owner() == _msgSender() */\n      0xffffffffffffffffffffffffffffffffffffffff\n      and\n      eq\n        /* \"https://github.com/OpenZeppelin/openzeppelin-contracts/blob/master/contracts/access/Ownable.sol\":1240:1308  require(owner() == _msgSender(), \"Ownable: caller is not the owner\") */\n      tag_142\n      jumpi\n      mload(0x40)\n      0x08c379a000000000000000000000000000000000000000000000000000000000\n      dup2\n      mstore\n      0x04\n      add\n      tag_143\n      swap1\n      tag_137\n      jump\t// in\n    tag_143:\n      mload(0x40)\n      dup1\n      swap2\n      sub\n      swap1\n      revert\n    tag_142:\n        /* \"contract/tokenvesting.sol\":4271:4272  1 */\n      0x01\n        /* \"contract/tokenvesting.sol\":4245:4267  _minimumDurationInDays */\n      dup2\n        /* \"contract/tokenvesting.sol\":4245:4272  _minimumDurationInDays >= 1 */\n      lt\n      iszero\n        /* \"contract/tokenvesting.sol\":4236:4336  require (_minimumDurationInDays >= 1, \"TokenVesting: Minimum duration cannot be lesser than 1 day.\") */\n      tag_145\n      jumpi\n      mload(0x40)\n      0x08c379a000000000000000000000000000000000000000000000000000000000\n      dup2\n      mstore\n      0x04\n      add\n      tag_146\n      swap1\n      tag_147\n      jump\t// in\n    tag_146:\n      mload(0x40)\n      dup1\n      swap2\n      sub\n      swap1\n      revert\n    tag_145:\n        /* \"contract/tokenvesting.sol\":4371:4393  _minimumDurationInDays */\n      dup1\n        /* \"contract/tokenvesting.sol\":4347:4368  minimumDurationInDays */\n      0x0b\n        /* \"contract/tokenvesting.sol\":4347:4393  minimumDurationInDays = _minimumDurationInDays */\n      dup2\n      swap1\n      sstore\n      pop\n        /* \"contract/tokenvesting.sol\":4141:4401  function setMinimumDurationInDays (uint256 _minimumDurationInDays) public onlyOwner {\r... */\n      pop\n      jump\t// out\n        /* \"contract/tokenvesting.sol\":1419:1455  uint256 public minimumDurationInDays */\n    tag_51:\n      sload(0x0b)\n      dup2\n      jump\t// out\n        /* \"contract/tokenvesting.sol\":1515:1549  address public tokenReserveAddress */\n    tag_54:\n      0x0c\n      0x00\n      swap1\n      sload\n      swap1\n      0x0100\n      exp\n      swap1\n      div\n      0xffffffffffffffffffffffffffffffffffffffff\n      and\n      dup2\n      jump\t// out\n        /* \"contract/tokenvesting.sol\":3059:3221  function getVestingScheme () external view returns (uint256, uint256, uint256) {\r... */\n    tag_58:\n        /* \"contract/tokenvesting.sol\":3111:3118  uint256 */\n      0x00\n        /* \"contract/tokenvesting.sol\":3120:3127  uint256 */\n      dup1\n        /* \"contract/tokenvesting.sol\":3129:3136  uint256 */\n      0x00\n        /* \"contract/tokenvesting.sol\":3157:3170  startTimeUnix */\n      sload(0x02)\n        /* \"contract/tokenvesting.sol\":3172:3186  durationInDays */\n      sload(0x03)\n        /* \"contract/tokenvesting.sol\":3188:3212  releaseScheduleInMinutes */\n      sload(0x04)\n        /* \"contract/tokenvesting.sol\":3149:3213  return (startTimeUnix, durationInDays, releaseScheduleInMinutes) */\n      swap3\n      pop\n      swap3\n      pop\n      swap3\n      pop\n        /* \"contract/tokenvesting.sol\":3059:3221  function getVestingScheme () external view returns (uint256, uint256, uint256) {\r... */\n      swap1\n      swap2\n      swap3\n      jump\t// out\n        /* \"contract/tokenvesting.sol\":1219:1269  mapping (address => uint256) public amountReleased */\n    tag_63:\n      mstore(0x20, 0x09)\n      dup1\n      0x00\n      mstore\n      keccak256(0x00, 0x40)\n      0x00\n      swap2\n      pop\n      swap1\n      pop\n      sload\n      dup2\n      jump\t// out\n        /* \"https://github.com/OpenZeppelin/openzeppelin-contracts/blob/master/contracts/access/Ownable.sol\":1668:1769  function renounceOwnership() public virtual onlyOwner {... */\n    tag_66:\n        /* \"https://github.com/OpenZeppelin/openzeppelin-contracts/blob/master/contracts/access/Ownable.sol\":1259:1271  _msgSender() */\n      tag_150\n        /* \"https://github.com/OpenZeppelin/openzeppelin-contracts/blob/master/contracts/access/Ownable.sol\":1259:1269  _msgSender */\n      tag_102\n        /* \"https://github.com/OpenZeppelin/openzeppelin-contracts/blob/master/contracts/access/Ownable.sol\":1259:1271  _msgSender() */\n      jump\t// in\n    tag_150:\n        /* \"https://github.com/OpenZeppelin/openzeppelin-contracts/blob/master/contracts/access/Ownable.sol\":1248:1271  owner() == _msgSender() */\n      0xffffffffffffffffffffffffffffffffffffffff\n      and\n        /* \"https://github.com/OpenZeppelin/openzeppelin-contracts/blob/master/contracts/access/Ownable.sol\":1248:1255  owner() */\n      tag_151\n        /* \"https://github.com/OpenZeppelin/openzeppelin-contracts/blob/master/contracts/access/Ownable.sol\":1248:1253  owner */\n      tag_71\n        /* \"https://github.com/OpenZeppelin/openzeppelin-contracts/blob/master/contracts/access/Ownable.sol\":1248:1255  owner() */\n      jump\t// in\n    tag_151:\n        /* \"https://github.com/OpenZeppelin/openzeppelin-contracts/blob/master/contracts/access/Ownable.sol\":1248:1271  owner() == _msgSender() */\n      0xffffffffffffffffffffffffffffffffffffffff\n      and\n      eq\n        /* \"https://github.com/OpenZeppelin/openzeppelin-contracts/blob/master/contracts/access/Ownable.sol\":1240:1308  require(owner() == _msgSender(), \"Ownable: caller is not the owner\") */\n      tag_152\n      jumpi\n      mload(0x40)\n      0x08c379a000000000000000000000000000000000000000000000000000000000\n      dup2\n      mstore\n      0x04\n      add\n      tag_153\n      swap1\n      tag_137\n      jump\t// in\n    tag_153:\n      mload(0x40)\n      dup1\n      swap2\n      sub\n      swap1\n      revert\n    tag_152:\n        /* \"https://github.com/OpenZeppelin/openzeppelin-contracts/blob/master/contracts/access/Ownable.sol\":1732:1762  _transferOwnership(address(0)) */\n      tag_155\n        /* \"https://github.com/OpenZeppelin/openzeppelin-contracts/blob/master/contracts/access/Ownable.sol\":1759:1760  0 */\n      0x00\n        /* \"https://github.com/OpenZeppelin/openzeppelin-contracts/blob/master/contracts/access/Ownable.sol\":1732:1750  _transferOwnership */\n      tag_156\n        /* \"https://github.com/OpenZeppelin/openzeppelin-contracts/blob/master/contracts/access/Ownable.sol\":1732:1762  _transferOwnership(address(0)) */\n      jump\t// in\n    tag_155:\n        /* \"https://github.com/OpenZeppelin/openzeppelin-contracts/blob/master/contracts/access/Ownable.sol\":1668:1769  function renounceOwnership() public virtual onlyOwner {... */\n      jump\t// out\n        /* \"contract/tokenvesting.sol\":3871:4133  function setBeneficiaryCountLimit (uint _beneficiaryCountLimit) public onlyOwner {\r... */\n    tag_69:\n        /* \"https://github.com/OpenZeppelin/openzeppelin-contracts/blob/master/contracts/access/Ownable.sol\":1259:1271  _msgSender() */\n      tag_158\n        /* \"https://github.com/OpenZeppelin/openzeppelin-contracts/blob/master/contracts/access/Ownable.sol\":1259:1269  _msgSender */\n      tag_102\n        /* \"https://github.com/OpenZeppelin/openzeppelin-contracts/blob/master/contracts/access/Ownable.sol\":1259:1271  _msgSender() */\n      jump\t// in\n    tag_158:\n        /* \"https://github.com/OpenZeppelin/openzeppelin-contracts/blob/master/contracts/access/Ownable.sol\":1248:1271  owner() == _msgSender() */\n      0xffffffffffffffffffffffffffffffffffffffff\n      and\n        /* \"https://github.com/OpenZeppelin/openzeppelin-contracts/blob/master/contracts/access/Ownable.sol\":1248:1255  owner() */\n      tag_159\n        /* \"https://github.com/OpenZeppelin/openzeppelin-contracts/blob/master/contracts/access/Ownable.sol\":1248:1253  owner */\n      tag_71\n        /* \"https://github.com/OpenZeppelin/openzeppelin-contracts/blob/master/contracts/access/Ownable.sol\":1248:1255  owner() */\n      jump\t// in\n    tag_159:\n        /* \"https://github.com/OpenZeppelin/openzeppelin-contracts/blob/master/contracts/access/Ownable.sol\":1248:1271  owner() == _msgSender() */\n      0xffffffffffffffffffffffffffffffffffffffff\n      and\n      eq\n        /* \"https://github.com/OpenZeppelin/openzeppelin-contracts/blob/master/contracts/access/Ownable.sol\":1240:1308  require(owner() == _msgSender(), \"Ownable: caller is not the owner\") */\n      tag_160\n      jumpi\n      mload(0x40)\n      0x08c379a000000000000000000000000000000000000000000000000000000000\n      dup2\n      mstore\n      0x04\n      add\n      tag_161\n      swap1\n      tag_137\n      jump\t// in\n    tag_161:\n      mload(0x40)\n      dup1\n      swap2\n      sub\n      swap1\n      revert\n    tag_160:\n        /* \"contract/tokenvesting.sol\":3997:3998  0 */\n      0x00\n        /* \"contract/tokenvesting.sol\":3972:3994  _beneficiaryCountLimit */\n      dup2\n        /* \"contract/tokenvesting.sol\":3972:3998  _beneficiaryCountLimit > 0 */\n      gt\n        /* \"contract/tokenvesting.sol\":3963:4068  require (_beneficiaryCountLimit > 0, \"TokenVesting: Beneficiary count limit should be greater than zero\") */\n      tag_163\n      jumpi\n      mload(0x40)\n      0x08c379a000000000000000000000000000000000000000000000000000000000\n      dup2\n      mstore\n      0x04\n      add\n      tag_164\n      swap1\n      tag_165\n      jump\t// in\n    tag_164:\n      mload(0x40)\n      dup1\n      swap2\n      sub\n      swap1\n      revert\n    tag_163:\n        /* \"contract/tokenvesting.sol\":4103:4125  _beneficiaryCountLimit */\n      dup1\n        /* \"contract/tokenvesting.sol\":4079:4100  beneficiaryCountLimit */\n      0x0a\n        /* \"contract/tokenvesting.sol\":4079:4125  beneficiaryCountLimit = _beneficiaryCountLimit */\n      dup2\n      swap1\n      sstore\n      pop\n        /* \"contract/tokenvesting.sol\":3871:4133  function setBeneficiaryCountLimit (uint _beneficiaryCountLimit) public onlyOwner {\r... */\n      pop\n      jump\t// out\n        /* \"https://github.com/OpenZeppelin/openzeppelin-contracts/blob/master/contracts/access/Ownable.sol\":1036:1121  function owner() public view virtual returns (address) {... */\n    tag_71:\n        /* \"https://github.com/OpenZeppelin/openzeppelin-contracts/blob/master/contracts/access/Ownable.sol\":1082:1089  address */\n      0x00\n        /* \"https://github.com/OpenZeppelin/openzeppelin-contracts/blob/master/contracts/access/Ownable.sol\":1108:1114  _owner */\n      dup1\n      0x00\n      swap1\n      sload\n      swap1\n      0x0100\n      exp\n      swap1\n      div\n      0xffffffffffffffffffffffffffffffffffffffff\n      and\n        /* \"https://github.com/OpenZeppelin/openzeppelin-contracts/blob/master/contracts/access/Ownable.sol\":1101:1114  return _owner */\n      swap1\n      pop\n        /* \"https://github.com/OpenZeppelin/openzeppelin-contracts/blob/master/contracts/access/Ownable.sol\":1036:1121  function owner() public view virtual returns (address) {... */\n      swap1\n      jump\t// out\n        /* \"contract/tokenvesting.sol\":2770:2880  function getBeneficiaryCount () public view returns (uint256) {\r... */\n    tag_74:\n        /* \"contract/tokenvesting.sol\":2823:2830  uint256 */\n      0x00\n        /* \"contract/tokenvesting.sol\":2850:2865  beneficiaryList */\n      0x06\n        /* \"contract/tokenvesting.sol\":2850:2872  beneficiaryList.length */\n      dup1\n      sload\n      swap1\n      pop\n        /* \"contract/tokenvesting.sol\":2843:2872  return beneficiaryList.length */\n      swap1\n      pop\n        /* \"contract/tokenvesting.sol\":2770:2880  function getBeneficiaryCount () public view returns (uint256) {\r... */\n      swap1\n      jump\t// out\n        /* \"contract/tokenvesting.sol\":924:956  address[] public beneficiaryList */\n    tag_78:\n      0x06\n      dup2\n      dup2\n      sload\n      dup2\n      lt\n      tag_168\n      jumpi\n      0x00\n      dup1\n      revert\n    tag_168:\n      swap1\n      0x00\n      mstore\n      keccak256(0x00, 0x20)\n      add\n      0x00\n      swap2\n      pop\n      sload\n      swap1\n      0x0100\n      exp\n      swap1\n      div\n      0xffffffffffffffffffffffffffffffffffffffff\n      and\n      dup2\n      jump\t// out\n        /* \"contract/tokenvesting.sol\":5160:6143  function setBeneficiaryAddressAndAmount (address _beneficiary, uint256 _amount) public onlyOwner {\r... */\n    tag_82:\n        /* \"https://github.com/OpenZeppelin/openzeppelin-contracts/blob/master/contracts/access/Ownable.sol\":1259:1271  _msgSender() */\n      tag_171\n        /* \"https://github.com/OpenZeppelin/openzeppelin-contracts/blob/master/contracts/access/Ownable.sol\":1259:1269  _msgSender */\n      tag_102\n        /* \"https://github.com/OpenZeppelin/openzeppelin-contracts/blob/master/contracts/access/Ownable.sol\":1259:1271  _msgSender() */\n      jump\t// in\n    tag_171:\n        /* \"https://github.com/OpenZeppelin/openzeppelin-contracts/blob/master/contracts/access/Ownable.sol\":1248:1271  owner() == _msgSender() */\n      0xffffffffffffffffffffffffffffffffffffffff\n      and\n        /* \"https://github.com/OpenZeppelin/openzeppelin-contracts/blob/master/contracts/access/Ownable.sol\":1248:1255  owner() */\n      tag_172\n        /* \"https://github.com/OpenZeppelin/openzeppelin-contracts/blob/master/contracts/access/Ownable.sol\":1248:1253  owner */\n      tag_71\n        /* \"https://github.com/OpenZeppelin/openzeppelin-contracts/blob/master/contracts/access/Ownable.sol\":1248:1255  owner() */\n      jump\t// in\n    tag_172:\n        /* \"https://github.com/OpenZeppelin/openzeppelin-contracts/blob/master/contracts/access/Ownable.sol\":1248:1271  owner() == _msgSender() */\n      0xffffffffffffffffffffffffffffffffffffffff\n      and\n      eq\n        /* \"https://github.com/OpenZeppelin/openzeppelin-contracts/blob/master/contracts/access/Ownable.sol\":1240:1308  require(owner() == _msgSender(), \"Ownable: caller is not the owner\") */\n      tag_173\n      jumpi\n      mload(0x40)\n      0x08c379a000000000000000000000000000000000000000000000000000000000\n      dup2\n      mstore\n      0x04\n      add\n      tag_174\n      swap1\n      tag_137\n      jump\t// in\n    tag_174:\n      mload(0x40)\n      dup1\n      swap2\n      sub\n      swap1\n      revert\n    tag_173:\n        /* \"contract/tokenvesting.sol\":5301:5302  0 */\n      0x00\n        /* \"contract/tokenvesting.sol\":5277:5303  _beneficiary != address(0) */\n      0xffffffffffffffffffffffffffffffffffffffff\n      and\n        /* \"contract/tokenvesting.sol\":5277:5289  _beneficiary */\n      dup3\n        /* \"contract/tokenvesting.sol\":5277:5303  _beneficiary != address(0) */\n      0xffffffffffffffffffffffffffffffffffffffff\n      and\n      eq\n      iszero\n        /* \"contract/tokenvesting.sol\":5268:5365  require (_beneficiary != address(0), \"TokenVesting: Zero address cannot be set as a beneficiary\") */\n      tag_176\n      jumpi\n      mload(0x40)\n      0x08c379a000000000000000000000000000000000000000000000000000000000\n      dup2\n      mstore\n      0x04\n      add\n      tag_177\n      swap1\n      tag_178\n      jump\t// in\n    tag_177:\n      mload(0x40)\n      dup1\n      swap2\n      sub\n      swap1\n      revert\n    tag_176:\n        /* \"contract/tokenvesting.sol\":5395:5396  0 */\n      0x00\n        /* \"contract/tokenvesting.sol\":5385:5392  _amount */\n      dup2\n        /* \"contract/tokenvesting.sol\":5385:5396  _amount > 0 */\n      gt\n        /* \"contract/tokenvesting.sol\":5376:5455  require (_amount > 0, \"TokenVesting: Vesting amount must be greater than zero\") */\n      tag_179\n      jumpi\n      mload(0x40)\n      0x08c379a000000000000000000000000000000000000000000000000000000000\n      dup2\n      mstore\n      0x04\n      add\n      tag_180\n      swap1\n      tag_181\n      jump\t// in\n    tag_180:\n      mload(0x40)\n      dup1\n      swap2\n      sub\n      swap1\n      revert\n    tag_179:\n        /* \"contract/tokenvesting.sol\":5693:5714  beneficiaryCountLimit */\n      sload(0x0a)\n        /* \"contract/tokenvesting.sol\":5668:5689  getBeneficiaryCount() */\n      tag_182\n        /* \"contract/tokenvesting.sol\":5668:5687  getBeneficiaryCount */\n      tag_74\n        /* \"contract/tokenvesting.sol\":5668:5689  getBeneficiaryCount() */\n      jump\t// in\n    tag_182:\n        /* \"contract/tokenvesting.sol\":5668:5714  getBeneficiaryCount() <= beneficiaryCountLimit */\n      gt\n      iszero\n        /* \"contract/tokenvesting.sol\":5659:5768  require (getBeneficiaryCount() <= beneficiaryCountLimit, \"TokenVesting: Beneficiary count has reached limit\") */\n      tag_183\n      jumpi\n      mload(0x40)\n      0x08c379a000000000000000000000000000000000000000000000000000000000\n      dup2\n      mstore\n      0x04\n      add\n      tag_184\n      swap1\n      tag_185\n      jump\t// in\n    tag_184:\n      mload(0x40)\n      dup1\n      swap2\n      sub\n      swap1\n      revert\n    tag_183:\n        /* \"contract/tokenvesting.sol\":5789:5807  isValidBeneficiary */\n      0x07\n        /* \"contract/tokenvesting.sol\":5789:5821  isValidBeneficiary[_beneficiary] */\n      0x00\n        /* \"contract/tokenvesting.sol\":5808:5820  _beneficiary */\n      dup4\n        /* \"contract/tokenvesting.sol\":5789:5821  isValidBeneficiary[_beneficiary] */\n      0xffffffffffffffffffffffffffffffffffffffff\n      and\n      0xffffffffffffffffffffffffffffffffffffffff\n      and\n      dup2\n      mstore\n      0x20\n      add\n      swap1\n      dup2\n      mstore\n      0x20\n      add\n      0x00\n      keccak256\n      0x00\n      swap1\n      sload\n      swap1\n      0x0100\n      exp\n      swap1\n      div\n      0xff\n      and\n        /* \"contract/tokenvesting.sol\":5788:5821  !isValidBeneficiary[_beneficiary] */\n      iszero\n        /* \"contract/tokenvesting.sol\":5779:5865  require (!isValidBeneficiary[_beneficiary], \"TokenVesting: Beneficiary already added\") */\n      tag_186\n      jumpi\n      mload(0x40)\n      0x08c379a000000000000000000000000000000000000000000000000000000000\n      dup2\n      mstore\n      0x04\n      add\n      tag_187\n      swap1\n      tag_188\n      jump\t// in\n    tag_187:\n      mload(0x40)\n      dup1\n      swap2\n      sub\n      swap1\n      revert\n    tag_186:\n        /* \"contract/tokenvesting.sol\":5876:5891  beneficiaryList */\n      0x06\n        /* \"contract/tokenvesting.sol\":5897:5909  _beneficiary */\n      dup3\n        /* \"contract/tokenvesting.sol\":5876:5910  beneficiaryList.push(_beneficiary) */\n      swap1\n      dup1\n      0x01\n      dup2\n      sload\n      add\n      dup1\n      dup3\n      sstore\n      dup1\n      swap2\n      pop\n      pop\n      0x01\n      swap1\n      sub\n      swap1\n      0x00\n      mstore\n      keccak256(0x00, 0x20)\n      add\n      0x00\n      swap1\n      swap2\n      swap1\n      swap2\n      swap1\n      swap2\n      0x0100\n      exp\n      dup2\n      sload\n      dup2\n      0xffffffffffffffffffffffffffffffffffffffff\n      mul\n      not\n      and\n      swap1\n      dup4\n      0xffffffffffffffffffffffffffffffffffffffff\n      and\n      mul\n      or\n      swap1\n      sstore\n      pop\n        /* \"contract/tokenvesting.sol\":5944:5951  _amount */\n      dup1\n        /* \"contract/tokenvesting.sol\":5921:5927  amount */\n      0x08\n        /* \"contract/tokenvesting.sol\":5921:5941  amount[_beneficiary] */\n      0x00\n        /* \"contract/tokenvesting.sol\":5928:5940  _beneficiary */\n      dup5\n        /* \"contract/tokenvesting.sol\":5921:5941  amount[_beneficiary] */\n      0xffffffffffffffffffffffffffffffffffffffff\n      and\n      0xffffffffffffffffffffffffffffffffffffffff\n      and\n      dup2\n      mstore\n      0x20\n      add\n      swap1\n      dup2\n      mstore\n      0x20\n      add\n      0x00\n      keccak256\n        /* \"contract/tokenvesting.sol\":5921:5951  amount[_beneficiary] = _amount */\n      dup2\n      swap1\n      sstore\n      pop\n        /* \"contract/tokenvesting.sol\":5984:6016  totalVestableAmount.add(_amount) */\n      tag_190\n        /* \"contract/tokenvesting.sol\":6008:6015  _amount */\n      dup2\n        /* \"contract/tokenvesting.sol\":5984:6003  totalVestableAmount */\n      sload(0x05)\n        /* \"contract/tokenvesting.sol\":5984:6007  totalVestableAmount.add */\n      tag_117\n      swap1\n        /* \"contract/tokenvesting.sol\":5984:6016  totalVestableAmount.add(_amount) */\n      swap2\n      swap1\n      0xffffffff\n      and\n      jump\t// in\n    tag_190:\n        /* \"contract/tokenvesting.sol\":5962:5981  totalVestableAmount */\n      0x05\n        /* \"contract/tokenvesting.sol\":5962:6016  totalVestableAmount = totalVestableAmount.add(_amount) */\n      dup2\n      swap1\n      sstore\n      pop\n        /* \"contract/tokenvesting.sol\":6062:6066  true */\n      0x01\n        /* \"contract/tokenvesting.sol\":6027:6045  isValidBeneficiary */\n      0x07\n        /* \"contract/tokenvesting.sol\":6027:6059  isValidBeneficiary[_beneficiary] */\n      0x00\n        /* \"contract/tokenvesting.sol\":6046:6058  _beneficiary */\n      dup5\n        /* \"contract/tokenvesting.sol\":6027:6059  isValidBeneficiary[_beneficiary] */\n      0xffffffffffffffffffffffffffffffffffffffff\n      and\n      0xffffffffffffffffffffffffffffffffffffffff\n      and\n      dup2\n      mstore\n      0x20\n      add\n      swap1\n      dup2\n      mstore\n      0x20\n      add\n      0x00\n      keccak256\n      0x00\n        /* \"contract/tokenvesting.sol\":6027:6066  isValidBeneficiary[_beneficiary] = true */\n      0x0100\n      exp\n      dup2\n      sload\n      dup2\n      0xff\n      mul\n      not\n      and\n      swap1\n      dup4\n      iszero\n      iszero\n      mul\n      or\n      swap1\n      sstore\n      pop\n        /* \"contract/tokenvesting.sol\":6100:6112  _beneficiary */\n      dup2\n        /* \"contract/tokenvesting.sol\":6082:6135  BeneficiaryAdded (_beneficiary, amount[_beneficiary]) */\n      0xffffffffffffffffffffffffffffffffffffffff\n      and\n      0xe6b83177f11971ba30369bb38b914ffba97d5969a3c857b286fa8fdbb150b3ba\n        /* \"contract/tokenvesting.sol\":6114:6120  amount */\n      0x08\n        /* \"contract/tokenvesting.sol\":6114:6134  amount[_beneficiary] */\n      0x00\n        /* \"contract/tokenvesting.sol\":6121:6133  _beneficiary */\n      dup6\n        /* \"contract/tokenvesting.sol\":6114:6134  amount[_beneficiary] */\n      0xffffffffffffffffffffffffffffffffffffffff\n      and\n      0xffffffffffffffffffffffffffffffffffffffff\n      and\n      dup2\n      mstore\n      0x20\n      add\n      swap1\n      dup2\n      mstore\n      0x20\n      add\n      0x00\n      keccak256\n      sload\n        /* \"contract/tokenvesting.sol\":6082:6135  BeneficiaryAdded (_beneficiary, amount[_beneficiary]) */\n      mload(0x40)\n      tag_191\n      swap2\n      swap1\n      tag_39\n      jump\t// in\n    tag_191:\n      mload(0x40)\n      dup1\n      swap2\n      sub\n      swap1\n      log2\n        /* \"contract/tokenvesting.sol\":5160:6143  function setBeneficiaryAddressAndAmount (address _beneficiary, uint256 _amount) public onlyOwner {\r... */\n      pop\n      pop\n      jump\t// out\n        /* \"contract/tokenvesting.sol\":1120:1162  mapping (address => uint256) public amount */\n    tag_85:\n      mstore(0x20, 0x08)\n      dup1\n      0x00\n      mstore\n      keccak256(0x00, 0x40)\n      0x00\n      swap2\n      pop\n      swap1\n      pop\n      sload\n      dup2\n      jump\t// out\n        /* \"https://github.com/OpenZeppelin/openzeppelin-contracts/blob/master/contracts/access/Ownable.sol\":1918:2116  function transferOwnership(address newOwner) public virtual onlyOwner {... */\n    tag_89:\n        /* \"https://github.com/OpenZeppelin/openzeppelin-contracts/blob/master/contracts/access/Ownable.sol\":1259:1271  _msgSender() */\n      tag_193\n        /* \"https://github.com/OpenZeppelin/openzeppelin-contracts/blob/master/contracts/access/Ownable.sol\":1259:1269  _msgSender */\n      tag_102\n        /* \"https://github.com/OpenZeppelin/openzeppelin-contracts/blob/master/contracts/access/Ownable.sol\":1259:1271  _msgSender() */\n      jump\t// in\n    tag_193:\n        /* \"https://github.com/OpenZeppelin/openzeppelin-contracts/blob/master/contracts/access/Ownable.sol\":1248:1271  owner() == _msgSender() */\n      0xffffffffffffffffffffffffffffffffffffffff\n      and\n        /* \"https://github.com/OpenZeppelin/openzeppelin-contracts/blob/master/contracts/access/Ownable.sol\":1248:1255  owner() */\n      tag_194\n        /* \"https://github.com/OpenZeppelin/openzeppelin-contracts/blob/master/contracts/access/Ownable.sol\":1248:1253  owner */\n      tag_71\n        /* \"https://github.com/OpenZeppelin/openzeppelin-contracts/blob/master/contracts/access/Ownable.sol\":1248:1255  owner() */\n      jump\t// in\n    tag_194:\n        /* \"https://github.com/OpenZeppelin/openzeppelin-contracts/blob/master/contracts/access/Ownable.sol\":1248:1271  owner() == _msgSender() */\n      0xffffffffffffffffffffffffffffffffffffffff\n      and\n      eq\n        /* \"https://github.com/OpenZeppelin/openzeppelin-contracts/blob/master/contracts/access/Ownable.sol\":1240:1308  require(owner() == _msgSender(), \"Ownable: caller is not the owner\") */\n      tag_195\n      jumpi\n      mload(0x40)\n      0x08c379a000000000000000000000000000000000000000000000000000000000\n      dup2\n      mstore\n      0x04\n      add\n      tag_196\n      swap1\n      tag_137\n      jump\t// in\n    tag_196:\n      mload(0x40)\n      dup1\n      swap2\n      sub\n      swap1\n      revert\n    tag_195:\n        /* \"https://github.com/OpenZeppelin/openzeppelin-contracts/blob/master/contracts/access/Ownable.sol\":2026:2027  0 */\n      0x00\n        /* \"https://github.com/OpenZeppelin/openzeppelin-contracts/blob/master/contracts/access/Ownable.sol\":2006:2028  newOwner != address(0) */\n      0xffffffffffffffffffffffffffffffffffffffff\n      and\n        /* \"https://github.com/OpenZeppelin/openzeppelin-contracts/blob/master/contracts/access/Ownable.sol\":2006:2014  newOwner */\n      dup2\n        /* \"https://github.com/OpenZeppelin/openzeppelin-contracts/blob/master/contracts/access/Ownable.sol\":2006:2028  newOwner != address(0) */\n      0xffffffffffffffffffffffffffffffffffffffff\n      and\n      eq\n      iszero\n        /* \"https://github.com/OpenZeppelin/openzeppelin-contracts/blob/master/contracts/access/Ownable.sol\":1998:2071  require(newOwner != address(0), \"Ownable: new owner is the zero address\") */\n      tag_198\n      jumpi\n      mload(0x40)\n      0x08c379a000000000000000000000000000000000000000000000000000000000\n      dup2\n      mstore\n      0x04\n      add\n      tag_199\n      swap1\n      tag_200\n      jump\t// in\n    tag_199:\n      mload(0x40)\n      dup1\n      swap2\n      sub\n      swap1\n      revert\n    tag_198:\n        /* \"https://github.com/OpenZeppelin/openzeppelin-contracts/blob/master/contracts/access/Ownable.sol\":2081:2109  _transferOwnership(newOwner) */\n      tag_201\n        /* \"https://github.com/OpenZeppelin/openzeppelin-contracts/blob/master/contracts/access/Ownable.sol\":2100:2108  newOwner */\n      dup2\n        /* \"https://github.com/OpenZeppelin/openzeppelin-contracts/blob/master/contracts/access/Ownable.sol\":2081:2099  _transferOwnership */\n      tag_156\n        /* \"https://github.com/OpenZeppelin/openzeppelin-contracts/blob/master/contracts/access/Ownable.sol\":2081:2109  _transferOwnership(newOwner) */\n      jump\t// in\n    tag_201:\n        /* \"https://github.com/OpenZeppelin/openzeppelin-contracts/blob/master/contracts/access/Ownable.sol\":1918:2116  function transferOwnership(address newOwner) public virtual onlyOwner {... */\n      pop\n      jump\t// out\n        /* \"contract/tokenvesting.sol\":4409:5152  function setVestingScheme (uint256 _startTimeUnix, uint256 _durationInDays, uint256 _releaseScheduleInMinutes) public onlyOwner {\r... */\n    tag_93:\n        /* \"https://github.com/OpenZeppelin/openzeppelin-contracts/blob/master/contracts/access/Ownable.sol\":1259:1271  _msgSender() */\n      tag_203\n        /* \"https://github.com/OpenZeppelin/openzeppelin-contracts/blob/master/contracts/access/Ownable.sol\":1259:1269  _msgSender */\n      tag_102\n        /* \"https://github.com/OpenZeppelin/openzeppelin-contracts/blob/master/contracts/access/Ownable.sol\":1259:1271  _msgSender() */\n      jump\t// in\n    tag_203:\n        /* \"https://github.com/OpenZeppelin/openzeppelin-contracts/blob/master/contracts/access/Ownable.sol\":1248:1271  owner() == _msgSender() */\n      0xffffffffffffffffffffffffffffffffffffffff\n      and\n        /* \"https://github.com/OpenZeppelin/openzeppelin-contracts/blob/master/contracts/access/Ownable.sol\":1248:1255  owner() */\n      tag_204\n        /* \"https://github.com/OpenZeppelin/openzeppelin-contracts/blob/master/contracts/access/Ownable.sol\":1248:1253  owner */\n      tag_71\n        /* \"https://github.com/OpenZeppelin/openzeppelin-contracts/blob/master/contracts/access/Ownable.sol\":1248:1255  owner() */\n      jump\t// in\n    tag_204:\n        /* \"https://github.com/OpenZeppelin/openzeppelin-contracts/blob/master/contracts/access/Ownable.sol\":1248:1271  owner() == _msgSender() */\n      0xffffffffffffffffffffffffffffffffffffffff\n      and\n      eq\n        /* \"https://github.com/OpenZeppelin/openzeppelin-contracts/blob/master/contracts/access/Ownable.sol\":1240:1308  require(owner() == _msgSender(), \"Ownable: caller is not the owner\") */\n      tag_205\n      jumpi\n      mload(0x40)\n      0x08c379a000000000000000000000000000000000000000000000000000000000\n      dup2\n      mstore\n      0x04\n      add\n      tag_206\n      swap1\n      tag_137\n      jump\t// in\n    tag_206:\n      mload(0x40)\n      dup1\n      swap2\n      sub\n      swap1\n      revert\n    tag_205:\n        /* \"contract/tokenvesting.sol\":4575:4576  0 */\n      0x00\n        /* \"contract/tokenvesting.sol\":4557:4571  _startTimeUnix */\n      dup4\n        /* \"contract/tokenvesting.sol\":4557:4576  _startTimeUnix != 0 */\n      eq\n      iszero\n        /* \"contract/tokenvesting.sol\":4557:4615  _startTimeUnix != 0 && _startTimeUnix >= _getCurrentTime() */\n      dup1\n      iszero\n      tag_208\n      jumpi\n      pop\n        /* \"contract/tokenvesting.sol\":4598:4615  _getCurrentTime() */\n      tag_209\n        /* \"contract/tokenvesting.sol\":4598:4613  _getCurrentTime */\n      tag_210\n        /* \"contract/tokenvesting.sol\":4598:4615  _getCurrentTime() */\n      jump\t// in\n    tag_209:\n        /* \"contract/tokenvesting.sol\":4580:4594  _startTimeUnix */\n      dup4\n        /* \"contract/tokenvesting.sol\":4580:4615  _startTimeUnix >= _getCurrentTime() */\n      lt\n      iszero\n        /* \"contract/tokenvesting.sol\":4557:4615  _startTimeUnix != 0 && _startTimeUnix >= _getCurrentTime() */\n    tag_208:\n        /* \"contract/tokenvesting.sol\":4548:4694  require (_startTimeUnix != 0 && _startTimeUnix >= _getCurrentTime(), \"TokenVesting: Invalid start time. Start time can't be before current time.\") */\n      tag_211\n      jumpi\n      mload(0x40)\n      0x08c379a000000000000000000000000000000000000000000000000000000000\n      dup2\n      mstore\n      0x04\n      add\n      tag_212\n      swap1\n      tag_213\n      jump\t// in\n    tag_212:\n      mload(0x40)\n      dup1\n      swap2\n      sub\n      swap1\n      revert\n    tag_211:\n        /* \"contract/tokenvesting.sol\":4733:4734  1 */\n      0x01\n        /* \"contract/tokenvesting.sol\":4714:4729  _durationInDays */\n      dup3\n        /* \"contract/tokenvesting.sol\":4714:4734  _durationInDays >= 1 */\n      lt\n      iszero\n        /* \"contract/tokenvesting.sol\":4705:4786  require (_durationInDays >= 1, \"TokenVesting: Minimum vesting duration is 1 day\") */\n      tag_214\n      jumpi\n      mload(0x40)\n      0x08c379a000000000000000000000000000000000000000000000000000000000\n      dup2\n      mstore\n      0x04\n      add\n      tag_215\n      swap1\n      tag_216\n      jump\t// in\n    tag_215:\n      mload(0x40)\n      dup1\n      swap2\n      sub\n      swap1\n      revert\n    tag_214:\n        /* \"contract/tokenvesting.sol\":4835:4836  1 */\n      0x01\n        /* \"contract/tokenvesting.sol\":4806:4831  _releaseScheduleInMinutes */\n      dup2\n        /* \"contract/tokenvesting.sol\":4806:4836  _releaseScheduleInMinutes >= 1 */\n      lt\n      iszero\n        /* \"contract/tokenvesting.sol\":4797:4903  require (_releaseScheduleInMinutes >= 1, \"TokenVesting: Release schedule cannot be lesser than 1 minute.\") */\n      tag_217\n      jumpi\n      mload(0x40)\n      0x08c379a000000000000000000000000000000000000000000000000000000000\n      dup2\n      mstore\n      0x04\n      add\n      tag_218\n      swap1\n      tag_219\n      jump\t// in\n    tag_218:\n      mload(0x40)\n      dup1\n      swap2\n      sub\n      swap1\n      revert\n    tag_217:\n        /* \"contract/tokenvesting.sol\":4932:4946  _startTimeUnix */\n      dup3\n        /* \"contract/tokenvesting.sol\":4916:4929  startTimeUnix */\n      0x02\n        /* \"contract/tokenvesting.sol\":4916:4946  startTimeUnix = _startTimeUnix */\n      dup2\n      swap1\n      sstore\n      pop\n        /* \"contract/tokenvesting.sol\":4974:4989  _durationInDays */\n      dup2\n        /* \"contract/tokenvesting.sol\":4957:4971  durationInDays */\n      0x03\n        /* \"contract/tokenvesting.sol\":4957:4989  durationInDays = _durationInDays */\n      dup2\n      swap1\n      sstore\n      pop\n        /* \"contract/tokenvesting.sol\":5027:5052  _releaseScheduleInMinutes */\n      dup1\n        /* \"contract/tokenvesting.sol\":5000:5024  releaseScheduleInMinutes */\n      0x04\n        /* \"contract/tokenvesting.sol\":5000:5052  releaseScheduleInMinutes = _releaseScheduleInMinutes */\n      dup2\n      swap1\n      sstore\n      pop\n        /* \"contract/tokenvesting.sol\":5070:5144  NewVestingScheme (startTimeUnix, durationInDays, releaseScheduleInMinutes) */\n      0xfd0bfab6cf562d79ade144330370f03c29b18fbe8d9148a6e052246960ece22a\n        /* \"contract/tokenvesting.sol\":5088:5101  startTimeUnix */\n      sload(0x02)\n        /* \"contract/tokenvesting.sol\":5103:5117  durationInDays */\n      sload(0x03)\n        /* \"contract/tokenvesting.sol\":5119:5143  releaseScheduleInMinutes */\n      sload(0x04)\n        /* \"contract/tokenvesting.sol\":5070:5144  NewVestingScheme (startTimeUnix, durationInDays, releaseScheduleInMinutes) */\n      mload(0x40)\n      tag_220\n      swap4\n      swap3\n      swap2\n      swap1\n      tag_60\n      jump\t// in\n    tag_220:\n      mload(0x40)\n      dup1\n      swap2\n      sub\n      swap1\n      log1\n        /* \"contract/tokenvesting.sol\":4409:5152  function setVestingScheme (uint256 _startTimeUnix, uint256 _durationInDays, uint256 _releaseScheduleInMinutes) public onlyOwner {\r... */\n      pop\n      pop\n      pop\n      jump\t// out\n        /* \"https://github.com/OpenZeppelin/openzeppelin-contracts/blob/master/contracts/utils/Context.sol\":640:736  function _msgSender() internal view virtual returns (address) {... */\n    tag_102:\n        /* \"https://github.com/OpenZeppelin/openzeppelin-contracts/blob/master/contracts/utils/Context.sol\":693:700  address */\n      0x00\n        /* \"https://github.com/OpenZeppelin/openzeppelin-contracts/blob/master/contracts/utils/Context.sol\":719:729  msg.sender */\n      caller\n        /* \"https://github.com/OpenZeppelin/openzeppelin-contracts/blob/master/contracts/utils/Context.sol\":712:729  return msg.sender */\n      swap1\n      pop\n        /* \"https://github.com/OpenZeppelin/openzeppelin-contracts/blob/master/contracts/utils/Context.sol\":640:736  function _msgSender() internal view virtual returns (address) {... */\n      swap1\n      jump\t// out\n        /* \"contract/tokenvesting.sol\":6985:7906  function _getReleaseableAmount (address _beneficiary) internal view returns (uint256) {\r... */\n    tag_112:\n        /* \"contract/tokenvesting.sol\":7062:7069  uint256 */\n      0x00\n        /* \"contract/tokenvesting.sol\":7082:7102  uint256 nowInMinutes */\n      dup1\n        /* \"contract/tokenvesting.sol\":7105:7137  _getCurrentTime().div(1 minutes) */\n      tag_223\n        /* \"contract/tokenvesting.sol\":7127:7136  1 minutes */\n      0x3c\n        /* \"contract/tokenvesting.sol\":7105:7122  _getCurrentTime() */\n      tag_224\n        /* \"contract/tokenvesting.sol\":7105:7120  _getCurrentTime */\n      tag_210\n        /* \"contract/tokenvesting.sol\":7105:7122  _getCurrentTime() */\n      jump\t// in\n    tag_224:\n        /* \"contract/tokenvesting.sol\":7105:7126  _getCurrentTime().div */\n      tag_225\n      swap1\n        /* \"contract/tokenvesting.sol\":7105:7137  _getCurrentTime().div(1 minutes) */\n      swap2\n      swap1\n      0xffffffff\n      and\n      jump\t// in\n    tag_223:\n        /* \"contract/tokenvesting.sol\":7082:7137  uint256 nowInMinutes = _getCurrentTime().div(1 minutes) */\n      swap1\n      pop\n        /* \"contract/tokenvesting.sol\":7148:7174  uint256 startTimeInMinutes */\n      0x00\n        /* \"contract/tokenvesting.sol\":7177:7205  startTimeUnix.div(1 minutes) */\n      tag_226\n        /* \"contract/tokenvesting.sol\":7195:7204  1 minutes */\n      0x3c\n        /* \"contract/tokenvesting.sol\":7177:7190  startTimeUnix */\n      sload(0x02)\n        /* \"contract/tokenvesting.sol\":7177:7194  startTimeUnix.div */\n      tag_225\n      swap1\n        /* \"contract/tokenvesting.sol\":7177:7205  startTimeUnix.div(1 minutes) */\n      swap2\n      swap1\n      0xffffffff\n      and\n      jump\t// in\n    tag_226:\n        /* \"contract/tokenvesting.sol\":7148:7205  uint256 startTimeInMinutes = startTimeUnix.div(1 minutes) */\n      swap1\n      pop\n        /* \"contract/tokenvesting.sol\":7216:7241  uint256 durationInMinutes */\n      0x00\n        /* \"contract/tokenvesting.sol\":7244:7287  (durationInDays.mul(1 days)).div(1 minutes) */\n      tag_227\n        /* \"contract/tokenvesting.sol\":7277:7286  1 minutes */\n      0x3c\n        /* \"contract/tokenvesting.sol\":7245:7271  durationInDays.mul(1 days) */\n      tag_228\n        /* \"contract/tokenvesting.sol\":7264:7270  1 days */\n      0x015180\n        /* \"contract/tokenvesting.sol\":7245:7259  durationInDays */\n      sload(0x03)\n        /* \"contract/tokenvesting.sol\":7245:7263  durationInDays.mul */\n      tag_229\n      swap1\n        /* \"contract/tokenvesting.sol\":7245:7271  durationInDays.mul(1 days) */\n      swap2\n      swap1\n      0xffffffff\n      and\n      jump\t// in\n    tag_228:\n        /* \"contract/tokenvesting.sol\":7244:7276  (durationInDays.mul(1 days)).div */\n      tag_225\n      swap1\n        /* \"contract/tokenvesting.sol\":7244:7287  (durationInDays.mul(1 days)).div(1 minutes) */\n      swap2\n      swap1\n      0xffffffff\n      and\n      jump\t// in\n    tag_227:\n        /* \"contract/tokenvesting.sol\":7216:7287  uint256 durationInMinutes = (durationInDays.mul(1 days)).div(1 minutes) */\n      swap1\n      pop\n        /* \"contract/tokenvesting.sol\":7317:7358  startTimeInMinutes.add(durationInMinutes) */\n      tag_230\n        /* \"contract/tokenvesting.sol\":7340:7357  durationInMinutes */\n      dup2\n        /* \"contract/tokenvesting.sol\":7317:7335  startTimeInMinutes */\n      dup4\n        /* \"contract/tokenvesting.sol\":7317:7339  startTimeInMinutes.add */\n      tag_117\n      swap1\n        /* \"contract/tokenvesting.sol\":7317:7358  startTimeInMinutes.add(durationInMinutes) */\n      swap2\n      swap1\n      0xffffffff\n      and\n      jump\t// in\n    tag_230:\n        /* \"contract/tokenvesting.sol\":7302:7314  nowInMinutes */\n      dup4\n        /* \"contract/tokenvesting.sol\":7302:7358  nowInMinutes < startTimeInMinutes.add(durationInMinutes) */\n      lt\n        /* \"contract/tokenvesting.sol\":7298:7899  if (nowInMinutes < startTimeInMinutes.add(durationInMinutes)) {\r... */\n      iszero\n      tag_231\n      jumpi\n        /* \"contract/tokenvesting.sol\":7375:7412  uint256 timeElapsedWrtReleaseSchedule */\n      0x00\n        /* \"contract/tokenvesting.sol\":7415:7483  (nowInMinutes.sub(startTimeInMinutes)).div(releaseScheduleInMinutes) */\n      tag_232\n        /* \"contract/tokenvesting.sol\":7458:7482  releaseScheduleInMinutes */\n      sload(0x04)\n        /* \"contract/tokenvesting.sol\":7416:7452  nowInMinutes.sub(startTimeInMinutes) */\n      tag_233\n        /* \"contract/tokenvesting.sol\":7433:7451  startTimeInMinutes */\n      dup6\n        /* \"contract/tokenvesting.sol\":7416:7428  nowInMinutes */\n      dup8\n        /* \"contract/tokenvesting.sol\":7416:7432  nowInMinutes.sub */\n      tag_234\n      swap1\n        /* \"contract/tokenvesting.sol\":7416:7452  nowInMinutes.sub(startTimeInMinutes) */\n      swap2\n      swap1\n      0xffffffff\n      and\n      jump\t// in\n    tag_233:\n        /* \"contract/tokenvesting.sol\":7415:7457  (nowInMinutes.sub(startTimeInMinutes)).div */\n      tag_225\n      swap1\n        /* \"contract/tokenvesting.sol\":7415:7483  (nowInMinutes.sub(startTimeInMinutes)).div(releaseScheduleInMinutes) */\n      swap2\n      swap1\n      0xffffffff\n      and\n      jump\t// in\n    tag_232:\n        /* \"contract/tokenvesting.sol\":7375:7483  uint256 timeElapsedWrtReleaseSchedule = (nowInMinutes.sub(startTimeInMinutes)).div(releaseScheduleInMinutes) */\n      swap1\n      pop\n        /* \"contract/tokenvesting.sol\":7498:7532  uint256 durationWrtReleaseSchedule */\n      0x00\n        /* \"contract/tokenvesting.sol\":7535:7582  durationInMinutes.div(releaseScheduleInMinutes) */\n      tag_235\n        /* \"contract/tokenvesting.sol\":7557:7581  releaseScheduleInMinutes */\n      sload(0x04)\n        /* \"contract/tokenvesting.sol\":7535:7552  durationInMinutes */\n      dup5\n        /* \"contract/tokenvesting.sol\":7535:7556  durationInMinutes.div */\n      tag_225\n      swap1\n        /* \"contract/tokenvesting.sol\":7535:7582  durationInMinutes.div(releaseScheduleInMinutes) */\n      swap2\n      swap1\n      0xffffffff\n      and\n      jump\t// in\n    tag_235:\n        /* \"contract/tokenvesting.sol\":7498:7582  uint256 durationWrtReleaseSchedule = durationInMinutes.div(releaseScheduleInMinutes) */\n      swap1\n      pop\n        /* \"contract/tokenvesting.sol\":7597:7621  uint256 releasableAmount */\n      0x00\n        /* \"contract/tokenvesting.sol\":7624:7747  (amount[_beneficiary].mul(timeElapsedWrtReleaseSchedule).div(durationWrtReleaseSchedule)).sub(amountReleased[_beneficiary]) */\n      tag_236\n        /* \"contract/tokenvesting.sol\":7718:7732  amountReleased */\n      0x09\n        /* \"contract/tokenvesting.sol\":7718:7746  amountReleased[_beneficiary] */\n      0x00\n        /* \"contract/tokenvesting.sol\":7733:7745  _beneficiary */\n      dup11\n        /* \"contract/tokenvesting.sol\":7718:7746  amountReleased[_beneficiary] */\n      0xffffffffffffffffffffffffffffffffffffffff\n      and\n      0xffffffffffffffffffffffffffffffffffffffff\n      and\n      dup2\n      mstore\n      0x20\n      add\n      swap1\n      dup2\n      mstore\n      0x20\n      add\n      0x00\n      keccak256\n      sload\n        /* \"contract/tokenvesting.sol\":7625:7712  amount[_beneficiary].mul(timeElapsedWrtReleaseSchedule).div(durationWrtReleaseSchedule) */\n      tag_237\n        /* \"contract/tokenvesting.sol\":7685:7711  durationWrtReleaseSchedule */\n      dup5\n        /* \"contract/tokenvesting.sol\":7625:7680  amount[_beneficiary].mul(timeElapsedWrtReleaseSchedule) */\n      tag_238\n        /* \"contract/tokenvesting.sol\":7650:7679  timeElapsedWrtReleaseSchedule */\n      dup8\n        /* \"contract/tokenvesting.sol\":7625:7631  amount */\n      0x08\n        /* \"contract/tokenvesting.sol\":7625:7645  amount[_beneficiary] */\n      0x00\n        /* \"contract/tokenvesting.sol\":7632:7644  _beneficiary */\n      dup16\n        /* \"contract/tokenvesting.sol\":7625:7645  amount[_beneficiary] */\n      0xffffffffffffffffffffffffffffffffffffffff\n      and\n      0xffffffffffffffffffffffffffffffffffffffff\n      and\n      dup2\n      mstore\n      0x20\n      add\n      swap1\n      dup2\n      mstore\n      0x20\n      add\n      0x00\n      keccak256\n      sload\n        /* \"contract/tokenvesting.sol\":7625:7649  amount[_beneficiary].mul */\n      tag_229\n      swap1\n        /* \"contract/tokenvesting.sol\":7625:7680  amount[_beneficiary].mul(timeElapsedWrtReleaseSchedule) */\n      swap2\n      swap1\n      0xffffffff\n      and\n      jump\t// in\n    tag_238:\n        /* \"contract/tokenvesting.sol\":7625:7684  amount[_beneficiary].mul(timeElapsedWrtReleaseSchedule).div */\n      tag_225\n      swap1\n        /* \"contract/tokenvesting.sol\":7625:7712  amount[_beneficiary].mul(timeElapsedWrtReleaseSchedule).div(durationWrtReleaseSchedule) */\n      swap2\n      swap1\n      0xffffffff\n      and\n      jump\t// in\n    tag_237:\n        /* \"contract/tokenvesting.sol\":7624:7717  (amount[_beneficiary].mul(timeElapsedWrtReleaseSchedule).div(durationWrtReleaseSchedule)).sub */\n      tag_234\n      swap1\n        /* \"contract/tokenvesting.sol\":7624:7747  (amount[_beneficiary].mul(timeElapsedWrtReleaseSchedule).div(durationWrtReleaseSchedule)).sub(amountReleased[_beneficiary]) */\n      swap2\n      swap1\n      0xffffffff\n      and\n      jump\t// in\n    tag_236:\n        /* \"contract/tokenvesting.sol\":7597:7747  uint256 releasableAmount = (amount[_beneficiary].mul(timeElapsedWrtReleaseSchedule).div(durationWrtReleaseSchedule)).sub(amountReleased[_beneficiary]) */\n      swap1\n      pop\n        /* \"contract/tokenvesting.sol\":7769:7785  releasableAmount */\n      dup1\n        /* \"contract/tokenvesting.sol\":7762:7785  return releasableAmount */\n      swap7\n      pop\n      pop\n      pop\n      pop\n      pop\n      pop\n      pop\n      jump(tag_222)\n        /* \"contract/tokenvesting.sol\":7298:7899  if (nowInMinutes < startTimeInMinutes.add(durationInMinutes)) {\r... */\n    tag_231:\n        /* \"contract/tokenvesting.sol\":7833:7887  amount[_beneficiary].sub(amountReleased[_beneficiary]) */\n      tag_240\n        /* \"contract/tokenvesting.sol\":7858:7872  amountReleased */\n      0x09\n        /* \"contract/tokenvesting.sol\":7858:7886  amountReleased[_beneficiary] */\n      0x00\n        /* \"contract/tokenvesting.sol\":7873:7885  _beneficiary */\n      dup8\n        /* \"contract/tokenvesting.sol\":7858:7886  amountReleased[_beneficiary] */\n      0xffffffffffffffffffffffffffffffffffffffff\n      and\n      0xffffffffffffffffffffffffffffffffffffffff\n      and\n      dup2\n      mstore\n      0x20\n      add\n      swap1\n      dup2\n      mstore\n      0x20\n      add\n      0x00\n      keccak256\n      sload\n        /* \"contract/tokenvesting.sol\":7833:7839  amount */\n      0x08\n        /* \"contract/tokenvesting.sol\":7833:7853  amount[_beneficiary] */\n      0x00\n        /* \"contract/tokenvesting.sol\":7840:7852  _beneficiary */\n      dup9\n        /* \"contract/tokenvesting.sol\":7833:7853  amount[_beneficiary] */\n      0xffffffffffffffffffffffffffffffffffffffff\n      and\n      0xffffffffffffffffffffffffffffffffffffffff\n      and\n      dup2\n      mstore\n      0x20\n      add\n      swap1\n      dup2\n      mstore\n      0x20\n      add\n      0x00\n      keccak256\n      sload\n        /* \"contract/tokenvesting.sol\":7833:7857  amount[_beneficiary].sub */\n      tag_234\n      swap1\n        /* \"contract/tokenvesting.sol\":7833:7887  amount[_beneficiary].sub(amountReleased[_beneficiary]) */\n      swap2\n      swap1\n      0xffffffff\n      and\n      jump\t// in\n    tag_240:\n        /* \"contract/tokenvesting.sol\":7826:7887  return amount[_beneficiary].sub(amountReleased[_beneficiary]) */\n      swap4\n      pop\n      pop\n      pop\n      pop\n        /* \"contract/tokenvesting.sol\":6985:7906  function _getReleaseableAmount (address _beneficiary) internal view returns (uint256) {\r... */\n    tag_222:\n      swap2\n      swap1\n      pop\n      jump\t// out\n        /* \"https://github.com/OpenZeppelin/openzeppelin-contracts/blob/master/contracts/utils/math/SafeMath.sol\":2755:2851  function add(uint256 a, uint256 b) internal pure returns (uint256) {... */\n    tag_117:\n        /* \"https://github.com/OpenZeppelin/openzeppelin-contracts/blob/master/contracts/utils/math/SafeMath.sol\":2813:2820  uint256 */\n      0x00\n        /* \"https://github.com/OpenZeppelin/openzeppelin-contracts/blob/master/contracts/utils/math/SafeMath.sol\":2843:2844  b */\n      dup2\n        /* \"https://github.com/OpenZeppelin/openzeppelin-contracts/blob/master/contracts/utils/math/SafeMath.sol\":2839:2840  a */\n      dup4\n        /* \"https://github.com/OpenZeppelin/openzeppelin-contracts/blob/master/contracts/utils/math/SafeMath.sol\":2839:2844  a + b */\n      tag_242\n      swap2\n      swap1\n      tag_243\n      jump\t// in\n    tag_242:\n        /* \"https://github.com/OpenZeppelin/openzeppelin-contracts/blob/master/contracts/utils/math/SafeMath.sol\":2832:2844  return a + b */\n      swap1\n      pop\n        /* \"https://github.com/OpenZeppelin/openzeppelin-contracts/blob/master/contracts/utils/math/SafeMath.sol\":2755:2851  function add(uint256 a, uint256 b) internal pure returns (uint256) {... */\n      swap3\n      swap2\n      pop\n      pop\n      jump\t// out\n        /* \"https://github.com/OpenZeppelin/openzeppelin-contracts/blob/master/contracts/access/Ownable.sol\":2270:2457  function _transferOwnership(address newOwner) internal virtual {... */\n    tag_156:\n        /* \"https://github.com/OpenZeppelin/openzeppelin-contracts/blob/master/contracts/access/Ownable.sol\":2343:2359  address oldOwner */\n      0x00\n        /* \"https://github.com/OpenZeppelin/openzeppelin-contracts/blob/master/contracts/access/Ownable.sol\":2362:2368  _owner */\n      dup1\n      0x00\n      swap1\n      sload\n      swap1\n      0x0100\n      exp\n      swap1\n      div\n      0xffffffffffffffffffffffffffffffffffffffff\n      and\n        /* \"https://github.com/OpenZeppelin/openzeppelin-contracts/blob/master/contracts/access/Ownable.sol\":2343:2368  address oldOwner = _owner */\n      swap1\n      pop\n        /* \"https://github.com/OpenZeppelin/openzeppelin-contracts/blob/master/contracts/access/Ownable.sol\":2387:2395  newOwner */\n      dup2\n        /* \"https://github.com/OpenZeppelin/openzeppelin-contracts/blob/master/contracts/access/Ownable.sol\":2378:2384  _owner */\n      0x00\n      dup1\n        /* \"https://github.com/OpenZeppelin/openzeppelin-contracts/blob/master/contracts/access/Ownable.sol\":2378:2395  _owner = newOwner */\n      0x0100\n      exp\n      dup2\n      sload\n      dup2\n      0xffffffffffffffffffffffffffffffffffffffff\n      mul\n      not\n      and\n      swap1\n      dup4\n      0xffffffffffffffffffffffffffffffffffffffff\n      and\n      mul\n      or\n      swap1\n      sstore\n      pop\n        /* \"https://github.com/OpenZeppelin/openzeppelin-contracts/blob/master/contracts/access/Ownable.sol\":2441:2449  newOwner */\n      dup2\n        /* \"https://github.com/OpenZeppelin/openzeppelin-contracts/blob/master/contracts/access/Ownable.sol\":2410:2450  OwnershipTransferred(oldOwner, newOwner) */\n      0xffffffffffffffffffffffffffffffffffffffff\n      and\n        /* \"https://github.com/OpenZeppelin/openzeppelin-contracts/blob/master/contracts/access/Ownable.sol\":2431:2439  oldOwner */\n      dup2\n        /* \"https://github.com/OpenZeppelin/openzeppelin-contracts/blob/master/contracts/access/Ownable.sol\":2410:2450  OwnershipTransferred(oldOwner, newOwner) */\n      0xffffffffffffffffffffffffffffffffffffffff\n      and\n      0x8be0079c531659141344cd1fd0a4f28419497f9722a3daafe3b4186f6b6457e0\n      mload(0x40)\n      mload(0x40)\n      dup1\n      swap2\n      sub\n      swap1\n      log3\n        /* \"https://github.com/OpenZeppelin/openzeppelin-contracts/blob/master/contracts/access/Ownable.sol\":2270:2457  function _transferOwnership(address newOwner) internal virtual {... */\n      pop\n      pop\n      jump\t// out\n        /* \"contract/tokenvesting.sol\":7914:8015  function _getCurrentTime () internal view returns (uint256) {\r... */\n    tag_210:\n        /* \"contract/tokenvesting.sol\":7965:7972  uint256 */\n      0x00\n        /* \"contract/tokenvesting.sol\":7992:8007  block.timestamp */\n      timestamp\n        /* \"contract/tokenvesting.sol\":7985:8007  return block.timestamp */\n      swap1\n      pop\n        /* \"contract/tokenvesting.sol\":7914:8015  function _getCurrentTime () internal view returns (uint256) {\r... */\n      swap1\n      jump\t// out\n        /* \"https://github.com/OpenZeppelin/openzeppelin-contracts/blob/master/contracts/utils/math/SafeMath.sol\":3850:3946  function div(uint256 a, uint256 b) internal pure returns (uint256) {... */\n    tag_225:\n        /* \"https://github.com/OpenZeppelin/openzeppelin-contracts/blob/master/contracts/utils/math/SafeMath.sol\":3908:3915  uint256 */\n      0x00\n        /* \"https://github.com/OpenZeppelin/openzeppelin-contracts/blob/master/contracts/utils/math/SafeMath.sol\":3938:3939  b */\n      dup2\n        /* \"https://github.com/OpenZeppelin/openzeppelin-contracts/blob/master/contracts/utils/math/SafeMath.sol\":3934:3935  a */\n      dup4\n        /* \"https://github.com/OpenZeppelin/openzeppelin-contracts/blob/master/contracts/utils/math/SafeMath.sol\":3934:3939  a / b */\n      tag_247\n      swap2\n      swap1\n      tag_248\n      jump\t// in\n    tag_247:\n        /* \"https://github.com/OpenZeppelin/openzeppelin-contracts/blob/master/contracts/utils/math/SafeMath.sol\":3927:3939  return a / b */\n      swap1\n      pop\n        /* \"https://github.com/OpenZeppelin/openzeppelin-contracts/blob/master/contracts/utils/math/SafeMath.sol\":3850:3946  function div(uint256 a, uint256 b) internal pure returns (uint256) {... */\n      swap3\n      swap2\n      pop\n      pop\n      jump\t// out\n        /* \"https://github.com/OpenZeppelin/openzeppelin-contracts/blob/master/contracts/utils/math/SafeMath.sol\":3465:3561  function mul(uint256 a, uint256 b) internal pure returns (uint256) {... */\n    tag_229:\n        /* \"https://github.com/OpenZeppelin/openzeppelin-contracts/blob/master/contracts/utils/math/SafeMath.sol\":3523:3530  uint256 */\n      0x00\n        /* \"https://github.com/OpenZeppelin/openzeppelin-contracts/blob/master/contracts/utils/math/SafeMath.sol\":3553:3554  b */\n      dup2\n        /* \"https://github.com/OpenZeppelin/openzeppelin-contracts/blob/master/contracts/utils/math/SafeMath.sol\":3549:3550  a */\n      dup4\n        /* \"https://github.com/OpenZeppelin/openzeppelin-contracts/blob/master/contracts/utils/math/SafeMath.sol\":3549:3554  a * b */\n      tag_250\n      swap2\n      swap1\n      tag_251\n      jump\t// in\n    tag_250:\n        /* \"https://github.com/OpenZeppelin/openzeppelin-contracts/blob/master/contracts/utils/math/SafeMath.sol\":3542:3554  return a * b */\n      swap1\n      pop\n        /* \"https://github.com/OpenZeppelin/openzeppelin-contracts/blob/master/contracts/utils/math/SafeMath.sol\":3465:3561  function mul(uint256 a, uint256 b) internal pure returns (uint256) {... */\n      swap3\n      swap2\n      pop\n      pop\n      jump\t// out\n        /* \"https://github.com/OpenZeppelin/openzeppelin-contracts/blob/master/contracts/utils/math/SafeMath.sol\":3122:3218  function sub(uint256 a, uint256 b) internal pure returns (uint256) {... */\n    tag_234:\n        /* \"https://github.com/OpenZeppelin/openzeppelin-contracts/blob/master/contracts/utils/math/SafeMath.sol\":3180:3187  uint256 */\n      0x00\n        /* \"https://github.com/OpenZeppelin/openzeppelin-contracts/blob/master/contracts/utils/math/SafeMath.sol\":3210:3211  b */\n      dup2\n        /* \"https://github.com/OpenZeppelin/openzeppelin-contracts/blob/master/contracts/utils/math/SafeMath.sol\":3206:3207  a */\n      dup4\n        /* \"https://github.com/OpenZeppelin/openzeppelin-contracts/blob/master/contracts/utils/math/SafeMath.sol\":3206:3211  a - b */\n      tag_253\n      swap2\n      swap1\n      tag_254\n      jump\t// in\n    tag_253:\n        /* \"https://github.com/OpenZeppelin/openzeppelin-contracts/blob/master/contracts/utils/math/SafeMath.sol\":3199:3211  return a - b */\n      swap1\n      pop\n        /* \"https://github.com/OpenZeppelin/openzeppelin-contracts/blob/master/contracts/utils/math/SafeMath.sol\":3122:3218  function sub(uint256 a, uint256 b) internal pure returns (uint256) {... */\n      swap3\n      swap2\n      pop\n      pop\n      jump\t// out\n        /* \"#utility.yul\":7:146   */\n    tag_256:\n      0x00\n        /* \"#utility.yul\":91:97   */\n      dup2\n        /* \"#utility.yul\":78:98   */\n      calldataload\n        /* \"#utility.yul\":69:98   */\n      swap1\n      pop\n        /* \"#utility.yul\":107:140   */\n      tag_258\n        /* \"#utility.yul\":134:139   */\n      dup2\n        /* \"#utility.yul\":107:140   */\n      tag_259\n      jump\t// in\n    tag_258:\n        /* \"#utility.yul\":59:146   */\n      swap3\n      swap2\n      pop\n      pop\n      jump\t// out\n        /* \"#utility.yul\":152:289   */\n    tag_260:\n      0x00\n        /* \"#utility.yul\":237:243   */\n      dup2\n        /* \"#utility.yul\":231:244   */\n      mload\n        /* \"#utility.yul\":222:244   */\n      swap1\n      pop\n        /* \"#utility.yul\":253:283   */\n      tag_262\n        /* \"#utility.yul\":277:282   */\n      dup2\n        /* \"#utility.yul\":253:283   */\n      tag_263\n      jump\t// in\n    tag_262:\n        /* \"#utility.yul\":212:289   */\n      swap3\n      swap2\n      pop\n      pop\n      jump\t// out\n        /* \"#utility.yul\":295:434   */\n    tag_264:\n      0x00\n        /* \"#utility.yul\":379:385   */\n      dup2\n        /* \"#utility.yul\":366:386   */\n      calldataload\n        /* \"#utility.yul\":357:386   */\n      swap1\n      pop\n        /* \"#utility.yul\":395:428   */\n      tag_266\n        /* \"#utility.yul\":422:427   */\n      dup2\n        /* \"#utility.yul\":395:428   */\n      tag_267\n      jump\t// in\n    tag_266:\n        /* \"#utility.yul\":347:434   */\n      swap3\n      swap2\n      pop\n      pop\n      jump\t// out\n        /* \"#utility.yul\":440:702   */\n    tag_31:\n      0x00\n        /* \"#utility.yul\":548:550   */\n      0x20\n        /* \"#utility.yul\":536:545   */\n      dup3\n        /* \"#utility.yul\":527:534   */\n      dup5\n        /* \"#utility.yul\":523:546   */\n      sub\n        /* \"#utility.yul\":519:551   */\n      slt\n        /* \"#utility.yul\":516:518   */\n      iszero\n      tag_269\n      jumpi\n        /* \"#utility.yul\":564:565   */\n      0x00\n        /* \"#utility.yul\":561:562   */\n      dup1\n        /* \"#utility.yul\":554:566   */\n      revert\n        /* \"#utility.yul\":516:518   */\n    tag_269:\n        /* \"#utility.yul\":607:608   */\n      0x00\n        /* \"#utility.yul\":632:685   */\n      tag_270\n        /* \"#utility.yul\":677:684   */\n      dup5\n        /* \"#utility.yul\":668:674   */\n      dup3\n        /* \"#utility.yul\":657:666   */\n      dup6\n        /* \"#utility.yul\":653:675   */\n      add\n        /* \"#utility.yul\":632:685   */\n      tag_256\n      jump\t// in\n    tag_270:\n        /* \"#utility.yul\":622:685   */\n      swap2\n      pop\n        /* \"#utility.yul\":578:695   */\n      pop\n        /* \"#utility.yul\":506:702   */\n      swap3\n      swap2\n      pop\n      pop\n      jump\t// out\n        /* \"#utility.yul\":708:1115   */\n    tag_27:\n      0x00\n      dup1\n        /* \"#utility.yul\":833:835   */\n      0x40\n        /* \"#utility.yul\":821:830   */\n      dup4\n        /* \"#utility.yul\":812:819   */\n      dup6\n        /* \"#utility.yul\":808:831   */\n      sub\n        /* \"#utility.yul\":804:836   */\n      slt\n        /* \"#utility.yul\":801:803   */\n      iszero\n      tag_272\n      jumpi\n        /* \"#utility.yul\":849:850   */\n      0x00\n        /* \"#utility.yul\":846:847   */\n      dup1\n        /* \"#utility.yul\":839:851   */\n      revert\n        /* \"#utility.yul\":801:803   */\n    tag_272:\n        /* \"#utility.yul\":892:893   */\n      0x00\n        /* \"#utility.yul\":917:970   */\n      tag_273\n        /* \"#utility.yul\":962:969   */\n      dup6\n        /* \"#utility.yul\":953:959   */\n      dup3\n        /* \"#utility.yul\":942:951   */\n      dup7\n        /* \"#utility.yul\":938:960   */\n      add\n        /* \"#utility.yul\":917:970   */\n      tag_256\n      jump\t// in\n    tag_273:\n        /* \"#utility.yul\":907:970   */\n      swap3\n      pop\n        /* \"#utility.yul\":863:980   */\n      pop\n        /* \"#utility.yul\":1019:1021   */\n      0x20\n        /* \"#utility.yul\":1045:1098   */\n      tag_274\n        /* \"#utility.yul\":1090:1097   */\n      dup6\n        /* \"#utility.yul\":1081:1087   */\n      dup3\n        /* \"#utility.yul\":1070:1079   */\n      dup7\n        /* \"#utility.yul\":1066:1088   */\n      add\n        /* \"#utility.yul\":1045:1098   */\n      tag_264\n      jump\t// in\n    tag_274:\n        /* \"#utility.yul\":1035:1098   */\n      swap2\n      pop\n        /* \"#utility.yul\":990:1108   */\n      pop\n        /* \"#utility.yul\":791:1115   */\n      swap3\n      pop\n      swap3\n      swap1\n      pop\n      jump\t// out\n        /* \"#utility.yul\":1121:1399   */\n    tag_125:\n      0x00\n        /* \"#utility.yul\":1237:1239   */\n      0x20\n        /* \"#utility.yul\":1225:1234   */\n      dup3\n        /* \"#utility.yul\":1216:1223   */\n      dup5\n        /* \"#utility.yul\":1212:1235   */\n      sub\n        /* \"#utility.yul\":1208:1240   */\n      slt\n        /* \"#utility.yul\":1205:1207   */\n      iszero\n      tag_276\n      jumpi\n        /* \"#utility.yul\":1253:1254   */\n      0x00\n        /* \"#utility.yul\":1250:1251   */\n      dup1\n        /* \"#utility.yul\":1243:1255   */\n      revert\n        /* \"#utility.yul\":1205:1207   */\n    tag_276:\n        /* \"#utility.yul\":1296:1297   */\n      0x00\n        /* \"#utility.yul\":1321:1382   */\n      tag_277\n        /* \"#utility.yul\":1374:1381   */\n      dup5\n        /* \"#utility.yul\":1365:1371   */\n      dup3\n        /* \"#utility.yul\":1354:1363   */\n      dup6\n        /* \"#utility.yul\":1350:1372   */\n      add\n        /* \"#utility.yul\":1321:1382   */\n      tag_260\n      jump\t// in\n    tag_277:\n        /* \"#utility.yul\":1311:1382   */\n      swap2\n      pop\n        /* \"#utility.yul\":1267:1392   */\n      pop\n        /* \"#utility.yul\":1195:1399   */\n      swap3\n      swap2\n      pop\n      pop\n      jump\t// out\n        /* \"#utility.yul\":1405:1667   */\n    tag_48:\n      0x00\n        /* \"#utility.yul\":1513:1515   */\n      0x20\n        /* \"#utility.yul\":1501:1510   */\n      dup3\n        /* \"#utility.yul\":1492:1499   */\n      dup5\n        /* \"#utility.yul\":1488:1511   */\n      sub\n        /* \"#utility.yul\":1484:1516   */\n      slt\n        /* \"#utility.yul\":1481:1483   */\n      iszero\n      tag_279\n      jumpi\n        /* \"#utility.yul\":1529:1530   */\n      0x00\n        /* \"#utility.yul\":1526:1527   */\n      dup1\n        /* \"#utility.yul\":1519:1531   */\n      revert\n        /* \"#utility.yul\":1481:1483   */\n    tag_279:\n        /* \"#utility.yul\":1572:1573   */\n      0x00\n        /* \"#utility.yul\":1597:1650   */\n      tag_280\n        /* \"#utility.yul\":1642:1649   */\n      dup5\n        /* \"#utility.yul\":1633:1639   */\n      dup3\n        /* \"#utility.yul\":1622:1631   */\n      dup6\n        /* \"#utility.yul\":1618:1640   */\n      add\n        /* \"#utility.yul\":1597:1650   */\n      tag_264\n      jump\t// in\n    tag_280:\n        /* \"#utility.yul\":1587:1650   */\n      swap2\n      pop\n        /* \"#utility.yul\":1543:1660   */\n      pop\n        /* \"#utility.yul\":1471:1667   */\n      swap3\n      swap2\n      pop\n      pop\n      jump\t// out\n        /* \"#utility.yul\":1673:2225   */\n    tag_92:\n      0x00\n      dup1\n      0x00\n        /* \"#utility.yul\":1815:1817   */\n      0x60\n        /* \"#utility.yul\":1803:1812   */\n      dup5\n        /* \"#utility.yul\":1794:1801   */\n      dup7\n        /* \"#utility.yul\":1790:1813   */\n      sub\n        /* \"#utility.yul\":1786:1818   */\n      slt\n        /* \"#utility.yul\":1783:1785   */\n      iszero\n      tag_282\n      jumpi\n        /* \"#utility.yul\":1831:1832   */\n      0x00\n        /* \"#utility.yul\":1828:1829   */\n      dup1\n        /* \"#utility.yul\":1821:1833   */\n      revert\n        /* \"#utility.yul\":1783:1785   */\n    tag_282:\n        /* \"#utility.yul\":1874:1875   */\n      0x00\n        /* \"#utility.yul\":1899:1952   */\n      tag_283\n        /* \"#utility.yul\":1944:1951   */\n      dup7\n        /* \"#utility.yul\":1935:1941   */\n      dup3\n        /* \"#utility.yul\":1924:1933   */\n      dup8\n        /* \"#utility.yul\":1920:1942   */\n      add\n        /* \"#utility.yul\":1899:1952   */\n      tag_264\n      jump\t// in\n    tag_283:\n        /* \"#utility.yul\":1889:1952   */\n      swap4\n      pop\n        /* \"#utility.yul\":1845:1962   */\n      pop\n        /* \"#utility.yul\":2001:2003   */\n      0x20\n        /* \"#utility.yul\":2027:2080   */\n      tag_284\n        /* \"#utility.yul\":2072:2079   */\n      dup7\n        /* \"#utility.yul\":2063:2069   */\n      dup3\n        /* \"#utility.yul\":2052:2061   */\n      dup8\n        /* \"#utility.yul\":2048:2070   */\n      add\n        /* \"#utility.yul\":2027:2080   */\n      tag_264\n      jump\t// in\n    tag_284:\n        /* \"#utility.yul\":2017:2080   */\n      swap3\n      pop\n        /* \"#utility.yul\":1972:2090   */\n      pop\n        /* \"#utility.yul\":2129:2131   */\n      0x40\n        /* \"#utility.yul\":2155:2208   */\n      tag_285\n        /* \"#utility.yul\":2200:2207   */\n      dup7\n        /* \"#utility.yul\":2191:2197   */\n      dup3\n        /* \"#utility.yul\":2180:2189   */\n      dup8\n        /* \"#utility.yul\":2176:2198   */\n      add\n        /* \"#utility.yul\":2155:2208   */\n      tag_264\n      jump\t// in\n    tag_285:\n        /* \"#utility.yul\":2145:2208   */\n      swap2\n      pop\n        /* \"#utility.yul\":2100:2218   */\n      pop\n        /* \"#utility.yul\":1773:2225   */\n      swap3\n      pop\n      swap3\n      pop\n      swap3\n      jump\t// out\n        /* \"#utility.yul\":2231:2349   */\n    tag_286:\n        /* \"#utility.yul\":2318:2342   */\n      tag_288\n        /* \"#utility.yul\":2336:2341   */\n      dup2\n        /* \"#utility.yul\":2318:2342   */\n      tag_289\n      jump\t// in\n    tag_288:\n        /* \"#utility.yul\":2313:2316   */\n      dup3\n        /* \"#utility.yul\":2306:2343   */\n      mstore\n        /* \"#utility.yul\":2296:2349   */\n      pop\n      pop\n      jump\t// out\n        /* \"#utility.yul\":2355:2464   */\n    tag_290:\n        /* \"#utility.yul\":2436:2457   */\n      tag_292\n        /* \"#utility.yul\":2451:2456   */\n      dup2\n        /* \"#utility.yul\":2436:2457   */\n      tag_293\n      jump\t// in\n    tag_292:\n        /* \"#utility.yul\":2431:2434   */\n      dup3\n        /* \"#utility.yul\":2424:2458   */\n      mstore\n        /* \"#utility.yul\":2414:2464   */\n      pop\n      pop\n      jump\t// out\n        /* \"#utility.yul\":2470:2910   */\n    tag_294:\n      0x00\n        /* \"#utility.yul\":2633:2700   */\n      tag_296\n        /* \"#utility.yul\":2697:2699   */\n      0x4a\n        /* \"#utility.yul\":2692:2695   */\n      dup4\n        /* \"#utility.yul\":2633:2700   */\n      tag_297\n      jump\t// in\n    tag_296:\n        /* \"#utility.yul\":2626:2700   */\n      swap2\n      pop\n        /* \"#utility.yul\":2730:2764   */\n      0x546f6b656e56657374696e673a20496e76616c69642073746172742074696d65\n        /* \"#utility.yul\":2726:2727   */\n      0x00\n        /* \"#utility.yul\":2721:2724   */\n      dup4\n        /* \"#utility.yul\":2717:2728   */\n      add\n        /* \"#utility.yul\":2710:2765   */\n      mstore\n        /* \"#utility.yul\":2796:2830   */\n      0x2e2053746172742074696d652063616e2774206265206265666f726520637572\n        /* \"#utility.yul\":2791:2793   */\n      0x20\n        /* \"#utility.yul\":2786:2789   */\n      dup4\n        /* \"#utility.yul\":2782:2794   */\n      add\n        /* \"#utility.yul\":2775:2831   */\n      mstore\n        /* \"#utility.yul\":2862:2874   */\n      0x72656e742074696d652e00000000000000000000000000000000000000000000\n        /* \"#utility.yul\":2857:2859   */\n      0x40\n        /* \"#utility.yul\":2852:2855   */\n      dup4\n        /* \"#utility.yul\":2848:2860   */\n      add\n        /* \"#utility.yul\":2841:2875   */\n      mstore\n        /* \"#utility.yul\":2901:2903   */\n      0x60\n        /* \"#utility.yul\":2896:2899   */\n      dup3\n        /* \"#utility.yul\":2892:2904   */\n      add\n        /* \"#utility.yul\":2885:2904   */\n      swap1\n      pop\n        /* \"#utility.yul\":2616:2910   */\n      swap2\n      swap1\n      pop\n      jump\t// out\n        /* \"#utility.yul\":2916:3310   */\n    tag_298:\n      0x00\n        /* \"#utility.yul\":3079:3146   */\n      tag_300\n        /* \"#utility.yul\":3143:3145   */\n      0x3e\n        /* \"#utility.yul\":3138:3141   */\n      dup4\n        /* \"#utility.yul\":3079:3146   */\n      tag_297\n      jump\t// in\n    tag_300:\n        /* \"#utility.yul\":3072:3146   */\n      swap2\n      pop\n        /* \"#utility.yul\":3176:3210   */\n      0x546f6b656e56657374696e673a204f6e6c79206f776e6572206f722061207661\n        /* \"#utility.yul\":3172:3173   */\n      0x00\n        /* \"#utility.yul\":3167:3170   */\n      dup4\n        /* \"#utility.yul\":3163:3174   */\n      add\n        /* \"#utility.yul\":3156:3211   */\n      mstore\n        /* \"#utility.yul\":3242:3274   */\n      0x6c69642062656e65666963696172792063616e2062652063616c6c65722e0000\n        /* \"#utility.yul\":3237:3239   */\n      0x20\n        /* \"#utility.yul\":3232:3235   */\n      dup4\n        /* \"#utility.yul\":3228:3240   */\n      add\n        /* \"#utility.yul\":3221:3275   */\n      mstore\n        /* \"#utility.yul\":3301:3303   */\n      0x40\n        /* \"#utility.yul\":3296:3299   */\n      dup3\n        /* \"#utility.yul\":3292:3304   */\n      add\n        /* \"#utility.yul\":3285:3304   */\n      swap1\n      pop\n        /* \"#utility.yul\":3062:3310   */\n      swap2\n      swap1\n      pop\n      jump\t// out\n        /* \"#utility.yul\":3316:3686   */\n    tag_301:\n      0x00\n        /* \"#utility.yul\":3479:3546   */\n      tag_303\n        /* \"#utility.yul\":3543:3545   */\n      0x26\n        /* \"#utility.yul\":3538:3541   */\n      dup4\n        /* \"#utility.yul\":3479:3546   */\n      tag_297\n      jump\t// in\n    tag_303:\n        /* \"#utility.yul\":3472:3546   */\n      swap2\n      pop\n        /* \"#utility.yul\":3576:3610   */\n      0x4f776e61626c653a206e6577206f776e657220697320746865207a65726f2061\n        /* \"#utility.yul\":3572:3573   */\n      0x00\n        /* \"#utility.yul\":3567:3570   */\n      dup4\n        /* \"#utility.yul\":3563:3574   */\n      add\n        /* \"#utility.yul\":3556:3611   */\n      mstore\n        /* \"#utility.yul\":3642:3650   */\n      0x6464726573730000000000000000000000000000000000000000000000000000\n        /* \"#utility.yul\":3637:3639   */\n      0x20\n        /* \"#utility.yul\":3632:3635   */\n      dup4\n        /* \"#utility.yul\":3628:3640   */\n      add\n        /* \"#utility.yul\":3621:3651   */\n      mstore\n        /* \"#utility.yul\":3677:3679   */\n      0x40\n        /* \"#utility.yul\":3672:3675   */\n      dup3\n        /* \"#utility.yul\":3668:3680   */\n      add\n        /* \"#utility.yul\":3661:3680   */\n      swap1\n      pop\n        /* \"#utility.yul\":3462:3686   */\n      swap2\n      swap1\n      pop\n      jump\t// out\n        /* \"#utility.yul\":3692:4083   */\n    tag_304:\n      0x00\n        /* \"#utility.yul\":3855:3922   */\n      tag_306\n        /* \"#utility.yul\":3919:3921   */\n      0x3b\n        /* \"#utility.yul\":3914:3917   */\n      dup4\n        /* \"#utility.yul\":3855:3922   */\n      tag_297\n      jump\t// in\n    tag_306:\n        /* \"#utility.yul\":3848:3922   */\n      swap2\n      pop\n        /* \"#utility.yul\":3952:3986   */\n      0x546f6b656e56657374696e673a204d696e696d756d206475726174696f6e2063\n        /* \"#utility.yul\":3948:3949   */\n      0x00\n        /* \"#utility.yul\":3943:3946   */\n      dup4\n        /* \"#utility.yul\":3939:3950   */\n      add\n        /* \"#utility.yul\":3932:3987   */\n      mstore\n        /* \"#utility.yul\":4018:4047   */\n      0x616e6e6f74206265206c6573736572207468616e2031206461792e0000000000\n        /* \"#utility.yul\":4013:4015   */\n      0x20\n        /* \"#utility.yul\":4008:4011   */\n      dup4\n        /* \"#utility.yul\":4004:4016   */\n      add\n        /* \"#utility.yul\":3997:4048   */\n      mstore\n        /* \"#utility.yul\":4074:4076   */\n      0x40\n        /* \"#utility.yul\":4069:4072   */\n      dup3\n        /* \"#utility.yul\":4065:4077   */\n      add\n        /* \"#utility.yul\":4058:4077   */\n      swap1\n      pop\n        /* \"#utility.yul\":3838:4083   */\n      swap2\n      swap1\n      pop\n      jump\t// out\n        /* \"#utility.yul\":4089:4524   */\n    tag_307:\n      0x00\n        /* \"#utility.yul\":4252:4319   */\n      tag_309\n        /* \"#utility.yul\":4316:4318   */\n      0x45\n        /* \"#utility.yul\":4311:4314   */\n      dup4\n        /* \"#utility.yul\":4252:4319   */\n      tag_297\n      jump\t// in\n    tag_309:\n        /* \"#utility.yul\":4245:4319   */\n      swap2\n      pop\n        /* \"#utility.yul\":4349:4383   */\n      0x546f6b656e56657374696e673a2052656c6561736520616d6f756e742063616e\n        /* \"#utility.yul\":4345:4346   */\n      0x00\n        /* \"#utility.yul\":4340:4343   */\n      dup4\n        /* \"#utility.yul\":4336:4347   */\n      add\n        /* \"#utility.yul\":4329:4384   */\n      mstore\n        /* \"#utility.yul\":4415:4449   */\n      0x6e6f74206265206d6f7265207468616e20746f74616c2076657374696e672061\n        /* \"#utility.yul\":4410:4412   */\n      0x20\n        /* \"#utility.yul\":4405:4408   */\n      dup4\n        /* \"#utility.yul\":4401:4413   */\n      add\n        /* \"#utility.yul\":4394:4450   */\n      mstore\n        /* \"#utility.yul\":4481:4488   */\n      0x6d6f756e74000000000000000000000000000000000000000000000000000000\n        /* \"#utility.yul\":4476:4478   */\n      0x40\n        /* \"#utility.yul\":4471:4474   */\n      dup4\n        /* \"#utility.yul\":4467:4479   */\n      add\n        /* \"#utility.yul\":4460:4489   */\n      mstore\n        /* \"#utility.yul\":4515:4517   */\n      0x60\n        /* \"#utility.yul\":4510:4513   */\n      dup3\n        /* \"#utility.yul\":4506:4518   */\n      add\n        /* \"#utility.yul\":4499:4518   */\n      swap1\n      pop\n        /* \"#utility.yul\":4235:4524   */\n      swap2\n      swap1\n      pop\n      jump\t// out\n        /* \"#utility.yul\":4530:4916   */\n    tag_310:\n      0x00\n        /* \"#utility.yul\":4693:4760   */\n      tag_312\n        /* \"#utility.yul\":4757:4759   */\n      0x36\n        /* \"#utility.yul\":4752:4755   */\n      dup4\n        /* \"#utility.yul\":4693:4760   */\n      tag_297\n      jump\t// in\n    tag_312:\n        /* \"#utility.yul\":4686:4760   */\n      swap2\n      pop\n        /* \"#utility.yul\":4790:4824   */\n      0x546f6b656e56657374696e673a2056657374696e6720616d6f756e74206d7573\n        /* \"#utility.yul\":4786:4787   */\n      0x00\n        /* \"#utility.yul\":4781:4784   */\n      dup4\n        /* \"#utility.yul\":4777:4788   */\n      add\n        /* \"#utility.yul\":4770:4825   */\n      mstore\n        /* \"#utility.yul\":4856:4880   */\n      0x742062652067726561746572207468616e207a65726f00000000000000000000\n        /* \"#utility.yul\":4851:4853   */\n      0x20\n        /* \"#utility.yul\":4846:4849   */\n      dup4\n        /* \"#utility.yul\":4842:4854   */\n      add\n        /* \"#utility.yul\":4835:4881   */\n      mstore\n        /* \"#utility.yul\":4907:4909   */\n      0x40\n        /* \"#utility.yul\":4902:4905   */\n      dup3\n        /* \"#utility.yul\":4898:4910   */\n      add\n        /* \"#utility.yul\":4891:4910   */\n      swap1\n      pop\n        /* \"#utility.yul\":4676:4916   */\n      swap2\n      swap1\n      pop\n      jump\t// out\n        /* \"#utility.yul\":4922:5316   */\n    tag_313:\n      0x00\n        /* \"#utility.yul\":5085:5152   */\n      tag_315\n        /* \"#utility.yul\":5149:5151   */\n      0x3e\n        /* \"#utility.yul\":5144:5147   */\n      dup4\n        /* \"#utility.yul\":5085:5152   */\n      tag_297\n      jump\t// in\n    tag_315:\n        /* \"#utility.yul\":5078:5152   */\n      swap2\n      pop\n        /* \"#utility.yul\":5182:5216   */\n      0x546f6b656e56657374696e673a2052656c65617365207363686564756c652063\n        /* \"#utility.yul\":5178:5179   */\n      0x00\n        /* \"#utility.yul\":5173:5176   */\n      dup4\n        /* \"#utility.yul\":5169:5180   */\n      add\n        /* \"#utility.yul\":5162:5217   */\n      mstore\n        /* \"#utility.yul\":5248:5280   */\n      0x616e6e6f74206265206c6573736572207468616e2031206d696e7574652e0000\n        /* \"#utility.yul\":5243:5245   */\n      0x20\n        /* \"#utility.yul\":5238:5241   */\n      dup4\n        /* \"#utility.yul\":5234:5246   */\n      add\n        /* \"#utility.yul\":5227:5281   */\n      mstore\n        /* \"#utility.yul\":5307:5309   */\n      0x40\n        /* \"#utility.yul\":5302:5305   */\n      dup3\n        /* \"#utility.yul\":5298:5310   */\n      add\n        /* \"#utility.yul\":5291:5310   */\n      swap1\n      pop\n        /* \"#utility.yul\":5068:5316   */\n      swap2\n      swap1\n      pop\n      jump\t// out\n        /* \"#utility.yul\":5322:5701   */\n    tag_316:\n      0x00\n        /* \"#utility.yul\":5485:5552   */\n      tag_318\n        /* \"#utility.yul\":5549:5551   */\n      0x2f\n        /* \"#utility.yul\":5544:5547   */\n      dup4\n        /* \"#utility.yul\":5485:5552   */\n      tag_297\n      jump\t// in\n    tag_318:\n        /* \"#utility.yul\":5478:5552   */\n      swap2\n      pop\n        /* \"#utility.yul\":5582:5616   */\n      0x546f6b656e56657374696e673a204d696e696d756d2076657374696e67206475\n        /* \"#utility.yul\":5578:5579   */\n      0x00\n        /* \"#utility.yul\":5573:5576   */\n      dup4\n        /* \"#utility.yul\":5569:5580   */\n      add\n        /* \"#utility.yul\":5562:5617   */\n      mstore\n        /* \"#utility.yul\":5648:5665   */\n      0x726174696f6e2069732031206461790000000000000000000000000000000000\n        /* \"#utility.yul\":5643:5645   */\n      0x20\n        /* \"#utility.yul\":5638:5641   */\n      dup4\n        /* \"#utility.yul\":5634:5646   */\n      add\n        /* \"#utility.yul\":5627:5666   */\n      mstore\n        /* \"#utility.yul\":5692:5694   */\n      0x40\n        /* \"#utility.yul\":5687:5690   */\n      dup3\n        /* \"#utility.yul\":5683:5695   */\n      add\n        /* \"#utility.yul\":5676:5695   */\n      swap1\n      pop\n        /* \"#utility.yul\":5468:5701   */\n      swap2\n      swap1\n      pop\n      jump\t// out\n        /* \"#utility.yul\":5707:6037   */\n    tag_319:\n      0x00\n        /* \"#utility.yul\":5870:5937   */\n      tag_321\n        /* \"#utility.yul\":5934:5936   */\n      0x20\n        /* \"#utility.yul\":5929:5932   */\n      dup4\n        /* \"#utility.yul\":5870:5937   */\n      tag_297\n      jump\t// in\n    tag_321:\n        /* \"#utility.yul\":5863:5937   */\n      swap2\n      pop\n        /* \"#utility.yul\":5967:6001   */\n      0x4f776e61626c653a2063616c6c6572206973206e6f7420746865206f776e6572\n        /* \"#utility.yul\":5963:5964   */\n      0x00\n        /* \"#utility.yul\":5958:5961   */\n      dup4\n        /* \"#utility.yul\":5954:5965   */\n      add\n        /* \"#utility.yul\":5947:6002   */\n      mstore\n        /* \"#utility.yul\":6028:6030   */\n      0x20\n        /* \"#utility.yul\":6023:6026   */\n      dup3\n        /* \"#utility.yul\":6019:6031   */\n      add\n        /* \"#utility.yul\":6012:6031   */\n      swap1\n      pop\n        /* \"#utility.yul\":5853:6037   */\n      swap2\n      swap1\n      pop\n      jump\t// out\n        /* \"#utility.yul\":6043:6432   */\n    tag_322:\n      0x00\n        /* \"#utility.yul\":6206:6273   */\n      tag_324\n        /* \"#utility.yul\":6270:6272   */\n      0x39\n        /* \"#utility.yul\":6265:6268   */\n      dup4\n        /* \"#utility.yul\":6206:6273   */\n      tag_297\n      jump\t// in\n    tag_324:\n        /* \"#utility.yul\":6199:6273   */\n      swap2\n      pop\n        /* \"#utility.yul\":6303:6337   */\n      0x546f6b656e56657374696e673a205a65726f20616464726573732063616e6e6f\n        /* \"#utility.yul\":6299:6300   */\n      0x00\n        /* \"#utility.yul\":6294:6297   */\n      dup4\n        /* \"#utility.yul\":6290:6301   */\n      add\n        /* \"#utility.yul\":6283:6338   */\n      mstore\n        /* \"#utility.yul\":6369:6396   */\n      0x742062652073657420617320612062656e656669636961727900000000000000\n        /* \"#utility.yul\":6364:6366   */\n      0x20\n        /* \"#utility.yul\":6359:6362   */\n      dup4\n        /* \"#utility.yul\":6355:6367   */\n      add\n        /* \"#utility.yul\":6348:6397   */\n      mstore\n        /* \"#utility.yul\":6423:6425   */\n      0x40\n        /* \"#utility.yul\":6418:6421   */\n      dup3\n        /* \"#utility.yul\":6414:6426   */\n      add\n        /* \"#utility.yul\":6407:6426   */\n      swap1\n      pop\n        /* \"#utility.yul\":6189:6432   */\n      swap2\n      swap1\n      pop\n      jump\t// out\n        /* \"#utility.yul\":6438:6882   */\n    tag_325:\n      0x00\n        /* \"#utility.yul\":6601:6668   */\n      tag_327\n        /* \"#utility.yul\":6665:6667   */\n      0x4e\n        /* \"#utility.yul\":6660:6663   */\n      dup4\n        /* \"#utility.yul\":6601:6668   */\n      tag_297\n      jump\t// in\n    tag_327:\n        /* \"#utility.yul\":6594:6668   */\n      swap2\n      pop\n        /* \"#utility.yul\":6698:6732   */\n      0x546f6b656e56657374696e673a20456e74657265642072656c6561736520616d\n        /* \"#utility.yul\":6694:6695   */\n      0x00\n        /* \"#utility.yul\":6689:6692   */\n      dup4\n        /* \"#utility.yul\":6685:6696   */\n      add\n        /* \"#utility.yul\":6678:6733   */\n      mstore\n        /* \"#utility.yul\":6764:6798   */\n      0x6f756e742069732067726561746572207468616e2063757572656e742072656c\n        /* \"#utility.yul\":6759:6761   */\n      0x20\n        /* \"#utility.yul\":6754:6757   */\n      dup4\n        /* \"#utility.yul\":6750:6762   */\n      add\n        /* \"#utility.yul\":6743:6799   */\n      mstore\n        /* \"#utility.yul\":6830:6846   */\n      0x65617361626c6520616d6f756e74000000000000000000000000000000000000\n        /* \"#utility.yul\":6825:6827   */\n      0x40\n        /* \"#utility.yul\":6820:6823   */\n      dup4\n        /* \"#utility.yul\":6816:6828   */\n      add\n        /* \"#utility.yul\":6809:6847   */\n      mstore\n        /* \"#utility.yul\":6873:6875   */\n      0x60\n        /* \"#utility.yul\":6868:6871   */\n      dup3\n        /* \"#utility.yul\":6864:6876   */\n      add\n        /* \"#utility.yul\":6857:6876   */\n      swap1\n      pop\n        /* \"#utility.yul\":6584:6882   */\n      swap2\n      swap1\n      pop\n      jump\t// out\n        /* \"#utility.yul\":6888:7269   */\n    tag_328:\n      0x00\n        /* \"#utility.yul\":7051:7118   */\n      tag_330\n        /* \"#utility.yul\":7115:7117   */\n      0x31\n        /* \"#utility.yul\":7110:7113   */\n      dup4\n        /* \"#utility.yul\":7051:7118   */\n      tag_297\n      jump\t// in\n    tag_330:\n        /* \"#utility.yul\":7044:7118   */\n      swap2\n      pop\n        /* \"#utility.yul\":7148:7182   */\n      0x546f6b656e56657374696e673a2042656e656669636961727920636f756e7420\n        /* \"#utility.yul\":7144:7145   */\n      0x00\n        /* \"#utility.yul\":7139:7142   */\n      dup4\n        /* \"#utility.yul\":7135:7146   */\n      add\n        /* \"#utility.yul\":7128:7183   */\n      mstore\n        /* \"#utility.yul\":7214:7233   */\n      0x6861732072656163686564206c696d6974000000000000000000000000000000\n        /* \"#utility.yul\":7209:7211   */\n      0x20\n        /* \"#utility.yul\":7204:7207   */\n      dup4\n        /* \"#utility.yul\":7200:7212   */\n      add\n        /* \"#utility.yul\":7193:7234   */\n      mstore\n        /* \"#utility.yul\":7260:7262   */\n      0x40\n        /* \"#utility.yul\":7255:7258   */\n      dup3\n        /* \"#utility.yul\":7251:7263   */\n      add\n        /* \"#utility.yul\":7244:7263   */\n      swap1\n      pop\n        /* \"#utility.yul\":7034:7269   */\n      swap2\n      swap1\n      pop\n      jump\t// out\n        /* \"#utility.yul\":7275:7646   */\n    tag_331:\n      0x00\n        /* \"#utility.yul\":7438:7505   */\n      tag_333\n        /* \"#utility.yul\":7502:7504   */\n      0x27\n        /* \"#utility.yul\":7497:7500   */\n      dup4\n        /* \"#utility.yul\":7438:7505   */\n      tag_297\n      jump\t// in\n    tag_333:\n        /* \"#utility.yul\":7431:7505   */\n      swap2\n      pop\n        /* \"#utility.yul\":7535:7569   */\n      0x546f6b656e56657374696e673a2042656e656669636961727920616c72656164\n        /* \"#utility.yul\":7531:7532   */\n      0x00\n        /* \"#utility.yul\":7526:7529   */\n      dup4\n        /* \"#utility.yul\":7522:7533   */\n      add\n        /* \"#utility.yul\":7515:7570   */\n      mstore\n        /* \"#utility.yul\":7601:7610   */\n      0x7920616464656400000000000000000000000000000000000000000000000000\n        /* \"#utility.yul\":7596:7598   */\n      0x20\n        /* \"#utility.yul\":7591:7594   */\n      dup4\n        /* \"#utility.yul\":7587:7599   */\n      add\n        /* \"#utility.yul\":7580:7611   */\n      mstore\n        /* \"#utility.yul\":7637:7639   */\n      0x40\n        /* \"#utility.yul\":7632:7635   */\n      dup3\n        /* \"#utility.yul\":7628:7640   */\n      add\n        /* \"#utility.yul\":7621:7640   */\n      swap1\n      pop\n        /* \"#utility.yul\":7421:7646   */\n      swap2\n      swap1\n      pop\n      jump\t// out\n        /* \"#utility.yul\":7652:8034   */\n    tag_334:\n      0x00\n        /* \"#utility.yul\":7815:7882   */\n      tag_336\n        /* \"#utility.yul\":7879:7881   */\n      0x32\n        /* \"#utility.yul\":7874:7877   */\n      dup4\n        /* \"#utility.yul\":7815:7882   */\n      tag_297\n      jump\t// in\n    tag_336:\n        /* \"#utility.yul\":7808:7882   */\n      swap2\n      pop\n        /* \"#utility.yul\":7912:7946   */\n      0x546f6b656e56657374696e673a20496e76616c69642062656e65666963696172\n        /* \"#utility.yul\":7908:7909   */\n      0x00\n        /* \"#utility.yul\":7903:7906   */\n      dup4\n        /* \"#utility.yul\":7899:7910   */\n      add\n        /* \"#utility.yul\":7892:7947   */\n      mstore\n        /* \"#utility.yul\":7978:7998   */\n      0x7920616464726573732064657465637465640000000000000000000000000000\n        /* \"#utility.yul\":7973:7975   */\n      0x20\n        /* \"#utility.yul\":7968:7971   */\n      dup4\n        /* \"#utility.yul\":7964:7976   */\n      add\n        /* \"#utility.yul\":7957:7999   */\n      mstore\n        /* \"#utility.yul\":8025:8027   */\n      0x40\n        /* \"#utility.yul\":8020:8023   */\n      dup3\n        /* \"#utility.yul\":8016:8028   */\n      add\n        /* \"#utility.yul\":8009:8028   */\n      swap1\n      pop\n        /* \"#utility.yul\":7798:8034   */\n      swap2\n      swap1\n      pop\n      jump\t// out\n        /* \"#utility.yul\":8040:8471   */\n    tag_337:\n      0x00\n        /* \"#utility.yul\":8203:8270   */\n      tag_339\n        /* \"#utility.yul\":8267:8269   */\n      0x41\n        /* \"#utility.yul\":8262:8265   */\n      dup4\n        /* \"#utility.yul\":8203:8270   */\n      tag_297\n      jump\t// in\n    tag_339:\n        /* \"#utility.yul\":8196:8270   */\n      swap2\n      pop\n        /* \"#utility.yul\":8300:8334   */\n      0x546f6b656e56657374696e673a2042656e656669636961727920636f756e7420\n        /* \"#utility.yul\":8296:8297   */\n      0x00\n        /* \"#utility.yul\":8291:8294   */\n      dup4\n        /* \"#utility.yul\":8287:8298   */\n      add\n        /* \"#utility.yul\":8280:8335   */\n      mstore\n        /* \"#utility.yul\":8366:8400   */\n      0x6c696d69742073686f756c642062652067726561746572207468616e207a6572\n        /* \"#utility.yul\":8361:8363   */\n      0x20\n        /* \"#utility.yul\":8356:8359   */\n      dup4\n        /* \"#utility.yul\":8352:8364   */\n      add\n        /* \"#utility.yul\":8345:8401   */\n      mstore\n        /* \"#utility.yul\":8432:8435   */\n      0x6f00000000000000000000000000000000000000000000000000000000000000\n        /* \"#utility.yul\":8427:8429   */\n      0x40\n        /* \"#utility.yul\":8422:8425   */\n      dup4\n        /* \"#utility.yul\":8418:8430   */\n      add\n        /* \"#utility.yul\":8411:8436   */\n      mstore\n        /* \"#utility.yul\":8462:8464   */\n      0x60\n        /* \"#utility.yul\":8457:8460   */\n      dup3\n        /* \"#utility.yul\":8453:8465   */\n      add\n        /* \"#utility.yul\":8446:8465   */\n      swap1\n      pop\n        /* \"#utility.yul\":8186:8471   */\n      swap2\n      swap1\n      pop\n      jump\t// out\n        /* \"#utility.yul\":8477:8595   */\n    tag_340:\n        /* \"#utility.yul\":8564:8588   */\n      tag_342\n        /* \"#utility.yul\":8582:8587   */\n      dup2\n        /* \"#utility.yul\":8564:8588   */\n      tag_343\n      jump\t// in\n    tag_342:\n        /* \"#utility.yul\":8559:8562   */\n      dup3\n        /* \"#utility.yul\":8552:8589   */\n      mstore\n        /* \"#utility.yul\":8542:8595   */\n      pop\n      pop\n      jump\t// out\n        /* \"#utility.yul\":8601:8823   */\n    tag_56:\n      0x00\n        /* \"#utility.yul\":8732:8734   */\n      0x20\n        /* \"#utility.yul\":8721:8730   */\n      dup3\n        /* \"#utility.yul\":8717:8735   */\n      add\n        /* \"#utility.yul\":8709:8735   */\n      swap1\n      pop\n        /* \"#utility.yul\":8745:8816   */\n      tag_345\n        /* \"#utility.yul\":8813:8814   */\n      0x00\n        /* \"#utility.yul\":8802:8811   */\n      dup4\n        /* \"#utility.yul\":8798:8815   */\n      add\n        /* \"#utility.yul\":8789:8795   */\n      dup5\n        /* \"#utility.yul\":8745:8816   */\n      tag_286\n      jump\t// in\n    tag_345:\n        /* \"#utility.yul\":8699:8823   */\n      swap3\n      swap2\n      pop\n      pop\n      jump\t// out\n        /* \"#utility.yul\":8829:9271   */\n    tag_120:\n      0x00\n        /* \"#utility.yul\":9016:9018   */\n      0x60\n        /* \"#utility.yul\":9005:9014   */\n      dup3\n        /* \"#utility.yul\":9001:9019   */\n      add\n        /* \"#utility.yul\":8993:9019   */\n      swap1\n      pop\n        /* \"#utility.yul\":9029:9100   */\n      tag_347\n        /* \"#utility.yul\":9097:9098   */\n      0x00\n        /* \"#utility.yul\":9086:9095   */\n      dup4\n        /* \"#utility.yul\":9082:9099   */\n      add\n        /* \"#utility.yul\":9073:9079   */\n      dup7\n        /* \"#utility.yul\":9029:9100   */\n      tag_286\n      jump\t// in\n    tag_347:\n        /* \"#utility.yul\":9110:9182   */\n      tag_348\n        /* \"#utility.yul\":9178:9180   */\n      0x20\n        /* \"#utility.yul\":9167:9176   */\n      dup4\n        /* \"#utility.yul\":9163:9181   */\n      add\n        /* \"#utility.yul\":9154:9160   */\n      dup6\n        /* \"#utility.yul\":9110:9182   */\n      tag_286\n      jump\t// in\n    tag_348:\n        /* \"#utility.yul\":9192:9264   */\n      tag_349\n        /* \"#utility.yul\":9260:9262   */\n      0x40\n        /* \"#utility.yul\":9249:9258   */\n      dup4\n        /* \"#utility.yul\":9245:9263   */\n      add\n        /* \"#utility.yul\":9236:9242   */\n      dup5\n        /* \"#utility.yul\":9192:9264   */\n      tag_340\n      jump\t// in\n    tag_349:\n        /* \"#utility.yul\":8983:9271   */\n      swap5\n      swap4\n      pop\n      pop\n      pop\n      pop\n      jump\t// out\n        /* \"#utility.yul\":9277:9487   */\n    tag_34:\n      0x00\n        /* \"#utility.yul\":9402:9404   */\n      0x20\n        /* \"#utility.yul\":9391:9400   */\n      dup3\n        /* \"#utility.yul\":9387:9405   */\n      add\n        /* \"#utility.yul\":9379:9405   */\n      swap1\n      pop\n        /* \"#utility.yul\":9415:9480   */\n      tag_351\n        /* \"#utility.yul\":9477:9478   */\n      0x00\n        /* \"#utility.yul\":9466:9475   */\n      dup4\n        /* \"#utility.yul\":9462:9479   */\n      add\n        /* \"#utility.yul\":9453:9459   */\n      dup5\n        /* \"#utility.yul\":9415:9480   */\n      tag_290\n      jump\t// in\n    tag_351:\n        /* \"#utility.yul\":9369:9487   */\n      swap3\n      swap2\n      pop\n      pop\n      jump\t// out\n        /* \"#utility.yul\":9493:9912   */\n    tag_213:\n      0x00\n        /* \"#utility.yul\":9697:9699   */\n      0x20\n        /* \"#utility.yul\":9686:9695   */\n      dup3\n        /* \"#utility.yul\":9682:9700   */\n      add\n        /* \"#utility.yul\":9674:9700   */\n      swap1\n      pop\n        /* \"#utility.yul\":9746:9755   */\n      dup2\n        /* \"#utility.yul\":9740:9744   */\n      dup2\n        /* \"#utility.yul\":9736:9756   */\n      sub\n        /* \"#utility.yul\":9732:9733   */\n      0x00\n        /* \"#utility.yul\":9721:9730   */\n      dup4\n        /* \"#utility.yul\":9717:9734   */\n      add\n        /* \"#utility.yul\":9710:9757   */\n      mstore\n        /* \"#utility.yul\":9774:9905   */\n      tag_353\n        /* \"#utility.yul\":9900:9904   */\n      dup2\n        /* \"#utility.yul\":9774:9905   */\n      tag_294\n      jump\t// in\n    tag_353:\n        /* \"#utility.yul\":9766:9905   */\n      swap1\n      pop\n        /* \"#utility.yul\":9664:9912   */\n      swap2\n      swap1\n      pop\n      jump\t// out\n        /* \"#utility.yul\":9918:10337   */\n    tag_107:\n      0x00\n        /* \"#utility.yul\":10122:10124   */\n      0x20\n        /* \"#utility.yul\":10111:10120   */\n      dup3\n        /* \"#utility.yul\":10107:10125   */\n      add\n        /* \"#utility.yul\":10099:10125   */\n      swap1\n      pop\n        /* \"#utility.yul\":10171:10180   */\n      dup2\n        /* \"#utility.yul\":10165:10169   */\n      dup2\n        /* \"#utility.yul\":10161:10181   */\n      sub\n        /* \"#utility.yul\":10157:10158   */\n      0x00\n        /* \"#utility.yul\":10146:10155   */\n      dup4\n        /* \"#utility.yul\":10142:10159   */\n      add\n        /* \"#utility.yul\":10135:10182   */\n      mstore\n        /* \"#utility.yul\":10199:10330   */\n      tag_355\n        /* \"#utility.yul\":10325:10329   */\n      dup2\n        /* \"#utility.yul\":10199:10330   */\n      tag_298\n      jump\t// in\n    tag_355:\n        /* \"#utility.yul\":10191:10330   */\n      swap1\n      pop\n        /* \"#utility.yul\":10089:10337   */\n      swap2\n      swap1\n      pop\n      jump\t// out\n        /* \"#utility.yul\":10343:10762   */\n    tag_200:\n      0x00\n        /* \"#utility.yul\":10547:10549   */\n      0x20\n        /* \"#utility.yul\":10536:10545   */\n      dup3\n        /* \"#utility.yul\":10532:10550   */\n      add\n        /* \"#utility.yul\":10524:10550   */\n      swap1\n      pop\n        /* \"#utility.yul\":10596:10605   */\n      dup2\n        /* \"#utility.yul\":10590:10594   */\n      dup2\n        /* \"#utility.yul\":10586:10606   */\n      sub\n        /* \"#utility.yul\":10582:10583   */\n      0x00\n        /* \"#utility.yul\":10571:10580   */\n      dup4\n        /* \"#utility.yul\":10567:10584   */\n      add\n        /* \"#utility.yul\":10560:10607   */\n      mstore\n        /* \"#utility.yul\":10624:10755   */\n      tag_357\n        /* \"#utility.yul\":10750:10754   */\n      dup2\n        /* \"#utility.yul\":10624:10755   */\n      tag_301\n      jump\t// in\n    tag_357:\n        /* \"#utility.yul\":10616:10755   */\n      swap1\n      pop\n        /* \"#utility.yul\":10514:10762   */\n      swap2\n      swap1\n      pop\n      jump\t// out\n        /* \"#utility.yul\":10768:11187   */\n    tag_147:\n      0x00\n        /* \"#utility.yul\":10972:10974   */\n      0x20\n        /* \"#utility.yul\":10961:10970   */\n      dup3\n        /* \"#utility.yul\":10957:10975   */\n      add\n        /* \"#utility.yul\":10949:10975   */\n      swap1\n      pop\n        /* \"#utility.yul\":11021:11030   */\n      dup2\n        /* \"#utility.yul\":11015:11019   */\n      dup2\n        /* \"#utility.yul\":11011:11031   */\n      sub\n        /* \"#utility.yul\":11007:11008   */\n      0x00\n        /* \"#utility.yul\":10996:11005   */\n      dup4\n        /* \"#utility.yul\":10992:11009   */\n      add\n        /* \"#utility.yul\":10985:11032   */\n      mstore\n        /* \"#utility.yul\":11049:11180   */\n      tag_359\n        /* \"#utility.yul\":11175:11179   */\n      dup2\n        /* \"#utility.yul\":11049:11180   */\n      tag_304\n      jump\t// in\n    tag_359:\n        /* \"#utility.yul\":11041:11180   */\n      swap1\n      pop\n        /* \"#utility.yul\":10939:11187   */\n      swap2\n      swap1\n      pop\n      jump\t// out\n        /* \"#utility.yul\":11193:11612   */\n    tag_110:\n      0x00\n        /* \"#utility.yul\":11397:11399   */\n      0x20\n        /* \"#utility.yul\":11386:11395   */\n      dup3\n        /* \"#utility.yul\":11382:11400   */\n      add\n        /* \"#utility.yul\":11374:11400   */\n      swap1\n      pop\n        /* \"#utility.yul\":11446:11455   */\n      dup2\n        /* \"#utility.yul\":11440:11444   */\n      dup2\n        /* \"#utility.yul\":11436:11456   */\n      sub\n        /* \"#utility.yul\":11432:11433   */\n      0x00\n        /* \"#utility.yul\":11421:11430   */\n      dup4\n        /* \"#utility.yul\":11417:11434   */\n      add\n        /* \"#utility.yul\":11410:11457   */\n      mstore\n        /* \"#utility.yul\":11474:11605   */\n      tag_361\n        /* \"#utility.yul\":11600:11604   */\n      dup2\n        /* \"#utility.yul\":11474:11605   */\n      tag_307\n      jump\t// in\n    tag_361:\n        /* \"#utility.yul\":11466:11605   */\n      swap1\n      pop\n        /* \"#utility.yul\":11364:11612   */\n      swap2\n      swap1\n      pop\n      jump\t// out\n        /* \"#utility.yul\":11618:12037   */\n    tag_181:\n      0x00\n        /* \"#utility.yul\":11822:11824   */\n      0x20\n        /* \"#utility.yul\":11811:11820   */\n      dup3\n        /* \"#utility.yul\":11807:11825   */\n      add\n        /* \"#utility.yul\":11799:11825   */\n      swap1\n      pop\n        /* \"#utility.yul\":11871:11880   */\n      dup2\n        /* \"#utility.yul\":11865:11869   */\n      dup2\n        /* \"#utility.yul\":11861:11881   */\n      sub\n        /* \"#utility.yul\":11857:11858   */\n      0x00\n        /* \"#utility.yul\":11846:11855   */\n      dup4\n        /* \"#utility.yul\":11842:11859   */\n      add\n        /* \"#utility.yul\":11835:11882   */\n      mstore\n        /* \"#utility.yul\":11899:12030   */\n      tag_363\n        /* \"#utility.yul\":12025:12029   */\n      dup2\n        /* \"#utility.yul\":11899:12030   */\n      tag_310\n      jump\t// in\n    tag_363:\n        /* \"#utility.yul\":11891:12030   */\n      swap1\n      pop\n        /* \"#utility.yul\":11789:12037   */\n      swap2\n      swap1\n      pop\n      jump\t// out\n        /* \"#utility.yul\":12043:12462   */\n    tag_219:\n      0x00\n        /* \"#utility.yul\":12247:12249   */\n      0x20\n        /* \"#utility.yul\":12236:12245   */\n      dup3\n        /* \"#utility.yul\":12232:12250   */\n      add\n        /* \"#utility.yul\":12224:12250   */\n      swap1\n      pop\n        /* \"#utility.yul\":12296:12305   */\n      dup2\n        /* \"#utility.yul\":12290:12294   */\n      dup2\n        /* \"#utility.yul\":12286:12306   */\n      sub\n        /* \"#utility.yul\":12282:12283   */\n      0x00\n        /* \"#utility.yul\":12271:12280   */\n      dup4\n        /* \"#utility.yul\":12267:12284   */\n      add\n        /* \"#utility.yul\":12260:12307   */\n      mstore\n        /* \"#utility.yul\":12324:12455   */\n      tag_365\n        /* \"#utility.yul\":12450:12454   */\n      dup2\n        /* \"#utility.yul\":12324:12455   */\n      tag_313\n      jump\t// in\n    tag_365:\n        /* \"#utility.yul\":12316:12455   */\n      swap1\n      pop\n        /* \"#utility.yul\":12214:12462   */\n      swap2\n      swap1\n      pop\n      jump\t// out\n        /* \"#utility.yul\":12468:12887   */\n    tag_216:\n      0x00\n        /* \"#utility.yul\":12672:12674   */\n      0x20\n        /* \"#utility.yul\":12661:12670   */\n      dup3\n        /* \"#utility.yul\":12657:12675   */\n      add\n        /* \"#utility.yul\":12649:12675   */\n      swap1\n      pop\n        /* \"#utility.yul\":12721:12730   */\n      dup2\n        /* \"#utility.yul\":12715:12719   */\n      dup2\n        /* \"#utility.yul\":12711:12731   */\n      sub\n        /* \"#utility.yul\":12707:12708   */\n      0x00\n        /* \"#utility.yul\":12696:12705   */\n      dup4\n        /* \"#utility.yul\":12692:12709   */\n      add\n        /* \"#utility.yul\":12685:12732   */\n      mstore\n        /* \"#utility.yul\":12749:12880   */\n      tag_367\n        /* \"#utility.yul\":12875:12879   */\n      dup2\n        /* \"#utility.yul\":12749:12880   */\n      tag_316\n      jump\t// in\n    tag_367:\n        /* \"#utility.yul\":12741:12880   */\n      swap1\n      pop\n        /* \"#utility.yul\":12639:12887   */\n      swap2\n      swap1\n      pop\n      jump\t// out\n        /* \"#utility.yul\":12893:13312   */\n    tag_137:\n      0x00\n        /* \"#utility.yul\":13097:13099   */\n      0x20\n        /* \"#utility.yul\":13086:13095   */\n      dup3\n        /* \"#utility.yul\":13082:13100   */\n      add\n        /* \"#utility.yul\":13074:13100   */\n      swap1\n      pop\n        /* \"#utility.yul\":13146:13155   */\n      dup2\n        /* \"#utility.yul\":13140:13144   */\n      dup2\n        /* \"#utility.yul\":13136:13156   */\n      sub\n        /* \"#utility.yul\":13132:13133   */\n      0x00\n        /* \"#utility.yul\":13121:13130   */\n      dup4\n        /* \"#utility.yul\":13117:13134   */\n      add\n        /* \"#utility.yul\":13110:13157   */\n      mstore\n        /* \"#utility.yul\":13174:13305   */\n      tag_369\n        /* \"#utility.yul\":13300:13304   */\n      dup2\n        /* \"#utility.yul\":13174:13305   */\n      tag_319\n      jump\t// in\n    tag_369:\n        /* \"#utility.yul\":13166:13305   */\n      swap1\n      pop\n        /* \"#utility.yul\":13064:13312   */\n      swap2\n      swap1\n      pop\n      jump\t// out\n        /* \"#utility.yul\":13318:13737   */\n    tag_178:\n      0x00\n        /* \"#utility.yul\":13522:13524   */\n      0x20\n        /* \"#utility.yul\":13511:13520   */\n      dup3\n        /* \"#utility.yul\":13507:13525   */\n      add\n        /* \"#utility.yul\":13499:13525   */\n      swap1\n      pop\n        /* \"#utility.yul\":13571:13580   */\n      dup2\n        /* \"#utility.yul\":13565:13569   */\n      dup2\n        /* \"#utility.yul\":13561:13581   */\n      sub\n        /* \"#utility.yul\":13557:13558   */\n      0x00\n        /* \"#utility.yul\":13546:13555   */\n      dup4\n        /* \"#utility.yul\":13542:13559   */\n      add\n        /* \"#utility.yul\":13535:13582   */\n      mstore\n        /* \"#utility.yul\":13599:13730   */\n      tag_371\n        /* \"#utility.yul\":13725:13729   */\n      dup2\n        /* \"#utility.yul\":13599:13730   */\n      tag_322\n      jump\t// in\n    tag_371:\n        /* \"#utility.yul\":13591:13730   */\n      swap1\n      pop\n        /* \"#utility.yul\":13489:13737   */\n      swap2\n      swap1\n      pop\n      jump\t// out\n        /* \"#utility.yul\":13743:14162   */\n    tag_115:\n      0x00\n        /* \"#utility.yul\":13947:13949   */\n      0x20\n        /* \"#utility.yul\":13936:13945   */\n      dup3\n        /* \"#utility.yul\":13932:13950   */\n      add\n        /* \"#utility.yul\":13924:13950   */\n      swap1\n      pop\n        /* \"#utility.yul\":13996:14005   */\n      dup2\n        /* \"#utility.yul\":13990:13994   */\n      dup2\n        /* \"#utility.yul\":13986:14006   */\n      sub\n        /* \"#utility.yul\":13982:13983   */\n      0x00\n        /* \"#utility.yul\":13971:13980   */\n      dup4\n        /* \"#utility.yul\":13967:13984   */\n      add\n        /* \"#utility.yul\":13960:14007   */\n      mstore\n        /* \"#utility.yul\":14024:14155   */\n      tag_373\n        /* \"#utility.yul\":14150:14154   */\n      dup2\n        /* \"#utility.yul\":14024:14155   */\n      tag_325\n      jump\t// in\n    tag_373:\n        /* \"#utility.yul\":14016:14155   */\n      swap1\n      pop\n        /* \"#utility.yul\":13914:14162   */\n      swap2\n      swap1\n      pop\n      jump\t// out\n        /* \"#utility.yul\":14168:14587   */\n    tag_185:\n      0x00\n        /* \"#utility.yul\":14372:14374   */\n      0x20\n        /* \"#utility.yul\":14361:14370   */\n      dup3\n        /* \"#utility.yul\":14357:14375   */\n      add\n        /* \"#utility.yul\":14349:14375   */\n      swap1\n      pop\n        /* \"#utility.yul\":14421:14430   */\n      dup2\n        /* \"#utility.yul\":14415:14419   */\n      dup2\n        /* \"#utility.yul\":14411:14431   */\n      sub\n        /* \"#utility.yul\":14407:14408   */\n      0x00\n        /* \"#utility.yul\":14396:14405   */\n      dup4\n        /* \"#utility.yul\":14392:14409   */\n      add\n        /* \"#utility.yul\":14385:14432   */\n      mstore\n        /* \"#utility.yul\":14449:14580   */\n      tag_375\n        /* \"#utility.yul\":14575:14579   */\n      dup2\n        /* \"#utility.yul\":14449:14580   */\n      tag_328\n      jump\t// in\n    tag_375:\n        /* \"#utility.yul\":14441:14580   */\n      swap1\n      pop\n        /* \"#utility.yul\":14339:14587   */\n      swap2\n      swap1\n      pop\n      jump\t// out\n        /* \"#utility.yul\":14593:15012   */\n    tag_188:\n      0x00\n        /* \"#utility.yul\":14797:14799   */\n      0x20\n        /* \"#utility.yul\":14786:14795   */\n      dup3\n        /* \"#utility.yul\":14782:14800   */\n      add\n        /* \"#utility.yul\":14774:14800   */\n      swap1\n      pop\n        /* \"#utility.yul\":14846:14855   */\n      dup2\n        /* \"#utility.yul\":14840:14844   */\n      dup2\n        /* \"#utility.yul\":14836:14856   */\n      sub\n        /* \"#utility.yul\":14832:14833   */\n      0x00\n        /* \"#utility.yul\":14821:14830   */\n      dup4\n        /* \"#utility.yul\":14817:14834   */\n      add\n        /* \"#utility.yul\":14810:14857   */\n      mstore\n        /* \"#utility.yul\":14874:15005   */\n      tag_377\n        /* \"#utility.yul\":15000:15004   */\n      dup2\n        /* \"#utility.yul\":14874:15005   */\n      tag_331\n      jump\t// in\n    tag_377:\n        /* \"#utility.yul\":14866:15005   */\n      swap1\n      pop\n        /* \"#utility.yul\":14764:15012   */\n      swap2\n      swap1\n      pop\n      jump\t// out\n        /* \"#utility.yul\":15018:15437   */\n    tag_98:\n      0x00\n        /* \"#utility.yul\":15222:15224   */\n      0x20\n        /* \"#utility.yul\":15211:15220   */\n      dup3\n        /* \"#utility.yul\":15207:15225   */\n      add\n        /* \"#utility.yul\":15199:15225   */\n      swap1\n      pop\n        /* \"#utility.yul\":15271:15280   */\n      dup2\n        /* \"#utility.yul\":15265:15269   */\n      dup2\n        /* \"#utility.yul\":15261:15281   */\n      sub\n        /* \"#utility.yul\":15257:15258   */\n      0x00\n        /* \"#utility.yul\":15246:15255   */\n      dup4\n        /* \"#utility.yul\":15242:15259   */\n      add\n        /* \"#utility.yul\":15235:15282   */\n      mstore\n        /* \"#utility.yul\":15299:15430   */\n      tag_379\n        /* \"#utility.yul\":15425:15429   */\n      dup2\n        /* \"#utility.yul\":15299:15430   */\n      tag_334\n      jump\t// in\n    tag_379:\n        /* \"#utility.yul\":15291:15430   */\n      swap1\n      pop\n        /* \"#utility.yul\":15189:15437   */\n      swap2\n      swap1\n      pop\n      jump\t// out\n        /* \"#utility.yul\":15443:15862   */\n    tag_165:\n      0x00\n        /* \"#utility.yul\":15647:15649   */\n      0x20\n        /* \"#utility.yul\":15636:15645   */\n      dup3\n        /* \"#utility.yul\":15632:15650   */\n      add\n        /* \"#utility.yul\":15624:15650   */\n      swap1\n      pop\n        /* \"#utility.yul\":15696:15705   */\n      dup2\n        /* \"#utility.yul\":15690:15694   */\n      dup2\n        /* \"#utility.yul\":15686:15706   */\n      sub\n        /* \"#utility.yul\":15682:15683   */\n      0x00\n        /* \"#utility.yul\":15671:15680   */\n      dup4\n        /* \"#utility.yul\":15667:15684   */\n      add\n        /* \"#utility.yul\":15660:15707   */\n      mstore\n        /* \"#utility.yul\":15724:15855   */\n      tag_381\n        /* \"#utility.yul\":15850:15854   */\n      dup2\n        /* \"#utility.yul\":15724:15855   */\n      tag_337\n      jump\t// in\n    tag_381:\n        /* \"#utility.yul\":15716:15855   */\n      swap1\n      pop\n        /* \"#utility.yul\":15614:15862   */\n      swap2\n      swap1\n      pop\n      jump\t// out\n        /* \"#utility.yul\":15868:16090   */\n    tag_39:\n      0x00\n        /* \"#utility.yul\":15999:16001   */\n      0x20\n        /* \"#utility.yul\":15988:15997   */\n      dup3\n        /* \"#utility.yul\":15984:16002   */\n      add\n        /* \"#utility.yul\":15976:16002   */\n      swap1\n      pop\n        /* \"#utility.yul\":16012:16083   */\n      tag_383\n        /* \"#utility.yul\":16080:16081   */\n      0x00\n        /* \"#utility.yul\":16069:16078   */\n      dup4\n        /* \"#utility.yul\":16065:16082   */\n      add\n        /* \"#utility.yul\":16056:16062   */\n      dup5\n        /* \"#utility.yul\":16012:16083   */\n      tag_340\n      jump\t// in\n    tag_383:\n        /* \"#utility.yul\":15966:16090   */\n      swap3\n      swap2\n      pop\n      pop\n      jump\t// out\n        /* \"#utility.yul\":16096:16538   */\n    tag_60:\n      0x00\n        /* \"#utility.yul\":16283:16285   */\n      0x60\n        /* \"#utility.yul\":16272:16281   */\n      dup3\n        /* \"#utility.yul\":16268:16286   */\n      add\n        /* \"#utility.yul\":16260:16286   */\n      swap1\n      pop\n        /* \"#utility.yul\":16296:16367   */\n      tag_385\n        /* \"#utility.yul\":16364:16365   */\n      0x00\n        /* \"#utility.yul\":16353:16362   */\n      dup4\n        /* \"#utility.yul\":16349:16366   */\n      add\n        /* \"#utility.yul\":16340:16346   */\n      dup7\n        /* \"#utility.yul\":16296:16367   */\n      tag_340\n      jump\t// in\n    tag_385:\n        /* \"#utility.yul\":16377:16449   */\n      tag_386\n        /* \"#utility.yul\":16445:16447   */\n      0x20\n        /* \"#utility.yul\":16434:16443   */\n      dup4\n        /* \"#utility.yul\":16430:16448   */\n      add\n        /* \"#utility.yul\":16421:16427   */\n      dup6\n        /* \"#utility.yul\":16377:16449   */\n      tag_340\n      jump\t// in\n    tag_386:\n        /* \"#utility.yul\":16459:16531   */\n      tag_387\n        /* \"#utility.yul\":16527:16529   */\n      0x40\n        /* \"#utility.yul\":16516:16525   */\n      dup4\n        /* \"#utility.yul\":16512:16530   */\n      add\n        /* \"#utility.yul\":16503:16509   */\n      dup5\n        /* \"#utility.yul\":16459:16531   */\n      tag_340\n      jump\t// in\n    tag_387:\n        /* \"#utility.yul\":16250:16538   */\n      swap5\n      swap4\n      pop\n      pop\n      pop\n      pop\n      jump\t// out\n        /* \"#utility.yul\":16544:16713   */\n    tag_297:\n      0x00\n        /* \"#utility.yul\":16662:16668   */\n      dup3\n        /* \"#utility.yul\":16657:16660   */\n      dup3\n        /* \"#utility.yul\":16650:16669   */\n      mstore\n        /* \"#utility.yul\":16702:16706   */\n      0x20\n        /* \"#utility.yul\":16697:16700   */\n      dup3\n        /* \"#utility.yul\":16693:16707   */\n      add\n        /* \"#utility.yul\":16678:16707   */\n      swap1\n      pop\n        /* \"#utility.yul\":16640:16713   */\n      swap3\n      swap2\n      pop\n      pop\n      jump\t// out\n        /* \"#utility.yul\":16719:17024   */\n    tag_243:\n      0x00\n        /* \"#utility.yul\":16778:16798   */\n      tag_390\n        /* \"#utility.yul\":16796:16797   */\n      dup3\n        /* \"#utility.yul\":16778:16798   */\n      tag_343\n      jump\t// in\n    tag_390:\n        /* \"#utility.yul\":16773:16798   */\n      swap2\n      pop\n        /* \"#utility.yul\":16812:16832   */\n      tag_391\n        /* \"#utility.yul\":16830:16831   */\n      dup4\n        /* \"#utility.yul\":16812:16832   */\n      tag_343\n      jump\t// in\n    tag_391:\n        /* \"#utility.yul\":16807:16832   */\n      swap3\n      pop\n        /* \"#utility.yul\":16966:16967   */\n      dup3\n        /* \"#utility.yul\":16898:16964   */\n      0xffffffffffffffffffffffffffffffffffffffffffffffffffffffffffffffff\n        /* \"#utility.yul\":16894:16968   */\n      sub\n        /* \"#utility.yul\":16891:16892   */\n      dup3\n        /* \"#utility.yul\":16888:16969   */\n      gt\n        /* \"#utility.yul\":16885:16887   */\n      iszero\n      tag_392\n      jumpi\n        /* \"#utility.yul\":16972:16990   */\n      tag_393\n      tag_394\n      jump\t// in\n    tag_393:\n        /* \"#utility.yul\":16885:16887   */\n    tag_392:\n        /* \"#utility.yul\":17016:17017   */\n      dup3\n        /* \"#utility.yul\":17013:17014   */\n      dup3\n        /* \"#utility.yul\":17009:17018   */\n      add\n        /* \"#utility.yul\":17002:17018   */\n      swap1\n      pop\n        /* \"#utility.yul\":16763:17024   */\n      swap3\n      swap2\n      pop\n      pop\n      jump\t// out\n        /* \"#utility.yul\":17030:17215   */\n    tag_248:\n      0x00\n        /* \"#utility.yul\":17087:17107   */\n      tag_396\n        /* \"#utility.yul\":17105:17106   */\n      dup3\n        /* \"#utility.yul\":17087:17107   */\n      tag_343\n      jump\t// in\n    tag_396:\n        /* \"#utility.yul\":17082:17107   */\n      swap2\n      pop\n        /* \"#utility.yul\":17121:17141   */\n      tag_397\n        /* \"#utility.yul\":17139:17140   */\n      dup4\n        /* \"#utility.yul\":17121:17141   */\n      tag_343\n      jump\t// in\n    tag_397:\n        /* \"#utility.yul\":17116:17141   */\n      swap3\n      pop\n        /* \"#utility.yul\":17160:17161   */\n      dup3\n        /* \"#utility.yul\":17150:17152   */\n      tag_398\n      jumpi\n        /* \"#utility.yul\":17165:17183   */\n      tag_399\n      tag_400\n      jump\t// in\n    tag_399:\n        /* \"#utility.yul\":17150:17152   */\n    tag_398:\n        /* \"#utility.yul\":17207:17208   */\n      dup3\n        /* \"#utility.yul\":17204:17205   */\n      dup3\n        /* \"#utility.yul\":17200:17209   */\n      div\n        /* \"#utility.yul\":17195:17209   */\n      swap1\n      pop\n        /* \"#utility.yul\":17072:17215   */\n      swap3\n      swap2\n      pop\n      pop\n      jump\t// out\n        /* \"#utility.yul\":17221:17569   */\n    tag_251:\n      0x00\n        /* \"#utility.yul\":17284:17304   */\n      tag_402\n        /* \"#utility.yul\":17302:17303   */\n      dup3\n        /* \"#utility.yul\":17284:17304   */\n      tag_343\n      jump\t// in\n    tag_402:\n        /* \"#utility.yul\":17279:17304   */\n      swap2\n      pop\n        /* \"#utility.yul\":17318:17338   */\n      tag_403\n        /* \"#utility.yul\":17336:17337   */\n      dup4\n        /* \"#utility.yul\":17318:17338   */\n      tag_343\n      jump\t// in\n    tag_403:\n        /* \"#utility.yul\":17313:17338   */\n      swap3\n      pop\n        /* \"#utility.yul\":17506:17507   */\n      dup2\n        /* \"#utility.yul\":17438:17504   */\n      0xffffffffffffffffffffffffffffffffffffffffffffffffffffffffffffffff\n        /* \"#utility.yul\":17434:17508   */\n      div\n        /* \"#utility.yul\":17431:17432   */\n      dup4\n        /* \"#utility.yul\":17428:17509   */\n      gt\n        /* \"#utility.yul\":17423:17424   */\n      dup3\n        /* \"#utility.yul\":17416:17425   */\n      iszero\n        /* \"#utility.yul\":17409:17426   */\n      iszero\n        /* \"#utility.yul\":17405:17510   */\n      and\n        /* \"#utility.yul\":17402:17404   */\n      iszero\n      tag_404\n      jumpi\n        /* \"#utility.yul\":17513:17531   */\n      tag_405\n      tag_394\n      jump\t// in\n    tag_405:\n        /* \"#utility.yul\":17402:17404   */\n    tag_404:\n        /* \"#utility.yul\":17561:17562   */\n      dup3\n        /* \"#utility.yul\":17558:17559   */\n      dup3\n        /* \"#utility.yul\":17554:17563   */\n      mul\n        /* \"#utility.yul\":17543:17563   */\n      swap1\n      pop\n        /* \"#utility.yul\":17269:17569   */\n      swap3\n      swap2\n      pop\n      pop\n      jump\t// out\n        /* \"#utility.yul\":17575:17766   */\n    tag_254:\n      0x00\n        /* \"#utility.yul\":17635:17655   */\n      tag_407\n        /* \"#utility.yul\":17653:17654   */\n      dup3\n        /* \"#utility.yul\":17635:17655   */\n      tag_343\n      jump\t// in\n    tag_407:\n        /* \"#utility.yul\":17630:17655   */\n      swap2\n      pop\n        /* \"#utility.yul\":17669:17689   */\n      tag_408\n        /* \"#utility.yul\":17687:17688   */\n      dup4\n        /* \"#utility.yul\":17669:17689   */\n      tag_343\n      jump\t// in\n    tag_408:\n        /* \"#utility.yul\":17664:17689   */\n      swap3\n      pop\n        /* \"#utility.yul\":17708:17709   */\n      dup3\n        /* \"#utility.yul\":17705:17706   */\n      dup3\n        /* \"#utility.yul\":17702:17710   */\n      lt\n        /* \"#utility.yul\":17699:17701   */\n      iszero\n      tag_409\n      jumpi\n        /* \"#utility.yul\":17713:17731   */\n      tag_410\n      tag_394\n      jump\t// in\n    tag_410:\n        /* \"#utility.yul\":17699:17701   */\n    tag_409:\n        /* \"#utility.yul\":17758:17759   */\n      dup3\n        /* \"#utility.yul\":17755:17756   */\n      dup3\n        /* \"#utility.yul\":17751:17760   */\n      sub\n        /* \"#utility.yul\":17743:17760   */\n      swap1\n      pop\n        /* \"#utility.yul\":17620:17766   */\n      swap3\n      swap2\n      pop\n      pop\n      jump\t// out\n        /* \"#utility.yul\":17772:17868   */\n    tag_289:\n      0x00\n        /* \"#utility.yul\":17838:17862   */\n      tag_412\n        /* \"#utility.yul\":17856:17861   */\n      dup3\n        /* \"#utility.yul\":17838:17862   */\n      tag_413\n      jump\t// in\n    tag_412:\n        /* \"#utility.yul\":17827:17862   */\n      swap1\n      pop\n        /* \"#utility.yul\":17817:17868   */\n      swap2\n      swap1\n      pop\n      jump\t// out\n        /* \"#utility.yul\":17874:17964   */\n    tag_293:\n      0x00\n        /* \"#utility.yul\":17951:17956   */\n      dup2\n        /* \"#utility.yul\":17944:17957   */\n      iszero\n        /* \"#utility.yul\":17937:17958   */\n      iszero\n        /* \"#utility.yul\":17926:17958   */\n      swap1\n      pop\n        /* \"#utility.yul\":17916:17964   */\n      swap2\n      swap1\n      pop\n      jump\t// out\n        /* \"#utility.yul\":17970:18096   */\n    tag_413:\n      0x00\n        /* \"#utility.yul\":18047:18089   */\n      0xffffffffffffffffffffffffffffffffffffffff\n        /* \"#utility.yul\":18040:18045   */\n      dup3\n        /* \"#utility.yul\":18036:18090   */\n      and\n        /* \"#utility.yul\":18025:18090   */\n      swap1\n      pop\n        /* \"#utility.yul\":18015:18096   */\n      swap2\n      swap1\n      pop\n      jump\t// out\n        /* \"#utility.yul\":18102:18179   */\n    tag_343:\n      0x00\n        /* \"#utility.yul\":18168:18173   */\n      dup2\n        /* \"#utility.yul\":18157:18173   */\n      swap1\n      pop\n        /* \"#utility.yul\":18147:18179   */\n      swap2\n      swap1\n      pop\n      jump\t// out\n        /* \"#utility.yul\":18185:18365   */\n    tag_394:\n        /* \"#utility.yul\":18233:18310   */\n      0x4e487b7100000000000000000000000000000000000000000000000000000000\n        /* \"#utility.yul\":18230:18231   */\n      0x00\n        /* \"#utility.yul\":18223:18311   */\n      mstore\n        /* \"#utility.yul\":18330:18334   */\n      0x11\n        /* \"#utility.yul\":18327:18328   */\n      0x04\n        /* \"#utility.yul\":18320:18335   */\n      mstore\n        /* \"#utility.yul\":18354:18358   */\n      0x24\n        /* \"#utility.yul\":18351:18352   */\n      0x00\n        /* \"#utility.yul\":18344:18359   */\n      revert\n        /* \"#utility.yul\":18371:18551   */\n    tag_400:\n        /* \"#utility.yul\":18419:18496   */\n      0x4e487b7100000000000000000000000000000000000000000000000000000000\n        /* \"#utility.yul\":18416:18417   */\n      0x00\n        /* \"#utility.yul\":18409:18497   */\n      mstore\n        /* \"#utility.yul\":18516:18520   */\n      0x12\n        /* \"#utility.yul\":18513:18514   */\n      0x04\n        /* \"#utility.yul\":18506:18521   */\n      mstore\n        /* \"#utility.yul\":18540:18544   */\n      0x24\n        /* \"#utility.yul\":18537:18538   */\n      0x00\n        /* \"#utility.yul\":18530:18545   */\n      revert\n        /* \"#utility.yul\":18557:18679   */\n    tag_259:\n        /* \"#utility.yul\":18630:18654   */\n      tag_420\n        /* \"#utility.yul\":18648:18653   */\n      dup2\n        /* \"#utility.yul\":18630:18654   */\n      tag_289\n      jump\t// in\n    tag_420:\n        /* \"#utility.yul\":18623:18628   */\n      dup2\n        /* \"#utility.yul\":18620:18655   */\n      eq\n        /* \"#utility.yul\":18610:18612   */\n      tag_421\n      jumpi\n        /* \"#utility.yul\":18669:18670   */\n      0x00\n        /* \"#utility.yul\":18666:18667   */\n      dup1\n        /* \"#utility.yul\":18659:18671   */\n      revert\n        /* \"#utility.yul\":18610:18612   */\n    tag_421:\n        /* \"#utility.yul\":18600:18679   */\n      pop\n      jump\t// out\n        /* \"#utility.yul\":18685:18801   */\n    tag_263:\n        /* \"#utility.yul\":18755:18776   */\n      tag_423\n        /* \"#utility.yul\":18770:18775   */\n      dup2\n        /* \"#utility.yul\":18755:18776   */\n      tag_293\n      jump\t// in\n    tag_423:\n        /* \"#utility.yul\":18748:18753   */\n      dup2\n        /* \"#utility.yul\":18745:18777   */\n      eq\n        /* \"#utility.yul\":18735:18737   */\n      tag_424\n      jumpi\n        /* \"#utility.yul\":18791:18792   */\n      0x00\n        /* \"#utility.yul\":18788:18789   */\n      dup1\n        /* \"#utility.yul\":18781:18793   */\n      revert\n        /* \"#utility.yul\":18735:18737   */\n    tag_424:\n        /* \"#utility.yul\":18725:18801   */\n      pop\n      jump\t// out\n        /* \"#utility.yul\":18807:18929   */\n    tag_267:\n        /* \"#utility.yul\":18880:18904   */\n      tag_426\n        /* \"#utility.yul\":18898:18903   */\n      dup2\n        /* \"#utility.yul\":18880:18904   */\n      tag_343\n      jump\t// in\n    tag_426:\n        /* \"#utility.yul\":18873:18878   */\n      dup2\n        /* \"#utility.yul\":18870:18905   */\n      eq\n        /* \"#utility.yul\":18860:18862   */\n      tag_427\n      jumpi\n        /* \"#utility.yul\":18919:18920   */\n      0x00\n        /* \"#utility.yul\":18916:18917   */\n      dup1\n        /* \"#utility.yul\":18909:18921   */\n      revert\n        /* \"#utility.yul\":18860:18862   */\n    tag_427:\n        /* \"#utility.yul\":18850:18929   */\n      pop\n      jump\t// out\n\n    auxdata: 0xa2646970667358221220fdde729fc2eff198ab9db23da839a8b370a07c579fbd70fe6067e2e522ba235264736f6c63430008000033\n}\n",
				"bytecode": {
					"linkReferences": {},
					"object": "60806040523480156200001157600080fd5b506040516200252638038062002526833981810160405281019062000037919062000191565b620000576200004b620000ae60201b60201c565b620000b660201b60201c565b80600160006101000a81548173ffffffffffffffffffffffffffffffffffffffff021916908373ffffffffffffffffffffffffffffffffffffffff160217905550600a80819055506001600b81905550506200020b565b600033905090565b60008060009054906101000a900473ffffffffffffffffffffffffffffffffffffffff169050816000806101000a81548173ffffffffffffffffffffffffffffffffffffffff021916908373ffffffffffffffffffffffffffffffffffffffff1602179055508173ffffffffffffffffffffffffffffffffffffffff168173ffffffffffffffffffffffffffffffffffffffff167f8be0079c531659141344cd1fd0a4f28419497f9722a3daafe3b4186f6b6457e060405160405180910390a35050565b6000815190506200018b81620001f1565b92915050565b600060208284031215620001a457600080fd5b6000620001b4848285016200017a565b91505092915050565b6000620001ca82620001d1565b9050919050565b600073ffffffffffffffffffffffffffffffffffffffff82169050919050565b620001fc81620001bd565b81146200020857600080fd5b50565b61230b806200021b6000396000f3fe608060405234801561001057600080fd5b50600436106101215760003560e01c80636b51d347116100ad5780639e761bbb116100715780639e761bbb146102e65780639f79685e14610316578063b9f0bf6614610332578063f2fde38b14610362578063fc99d9a11461037e57610121565b80636b51d34714610254578063715018a61461028457806375de48ab1461028e5780638da5cb5b146102aa5780639a6e7fd1146102c857610121565b80634a917a2f116100f45780634a917a2f146101c0578063566b041d146101dc57806359a075ec146101f857806365473fd214610216578063669239951461023457610121565b80630357371d14610126578063054cacaf146101425780632afd1a7d14610172578063366340ca146101a2575b600080fd5b610140600480360381019061013b91906116af565b61039a565b005b61015c60048036038101906101579190611686565b6107c6565b6040516101699190611e77565b60405180910390f35b61018c60048036038101906101879190611686565b6107e6565b6040516101999190612072565b60405180910390f35b6101aa6108c5565b6040516101b79190612072565b60405180910390f35b6101da60048036038101906101d59190611686565b6108cb565b005b6101f660048036038101906101f19190611714565b61098b565b005b610200610a55565b60405161020d9190612072565b60405180910390f35b61021e610a5b565b60405161022b9190611e25565b60405180910390f35b61023c610a81565b60405161024b9392919061208d565b60405180910390f35b61026e60048036038101906102699190611686565b610a9a565b60405161027b9190612072565b60405180910390f35b61028c610ab2565b005b6102a860048036038101906102a39190611714565b610b3a565b005b6102b2610c03565b6040516102bf9190611e25565b60405180910390f35b6102d0610c2c565b6040516102dd9190612072565b60405180910390f35b61030060048036038101906102fb9190611714565b610c39565b60405161030d9190611e25565b60405180910390f35b610330600480360381019061032b91906116af565b610c78565b005b61034c60048036038101906103479190611686565b61102b565b6040516103599190612072565b60405180910390f35b61037c60048036038101906103779190611686565b611043565b005b6103986004803603810190610393919061173d565b61113b565b005b81600760008273ffffffffffffffffffffffffffffffffffffffff1673ffffffffffffffffffffffffffffffffffffffff16815260200190815260200160002060009054906101000a900460ff1680156104215750600073ffffffffffffffffffffffffffffffffffffffff168173ffffffffffffffffffffffffffffffffffffffff1614155b610460576040517f08c379a000000000000000000000000000000000000000000000000000000000815260040161045790612032565b60405180910390fd5b610468610c03565b73ffffffffffffffffffffffffffffffffffffffff166104866112f1565b73ffffffffffffffffffffffffffffffffffffffff1614806104f85750600760006104af6112f1565b73ffffffffffffffffffffffffffffffffffffffff1673ffffffffffffffffffffffffffffffffffffffff16815260200190815260200160002060009054906101000a900460ff165b610537576040517f08c379a000000000000000000000000000000000000000000000000000000000815260040161052e90611eb2565b60405180910390fd5b600860008473ffffffffffffffffffffffffffffffffffffffff1673ffffffffffffffffffffffffffffffffffffffff168152602001908152602001600020548211156105b9576040517f08c379a00000000000000000000000000000000000000000000000000000000081526004016105b090611f12565b60405180910390fd5b60006105c4846112f9565b905080831115610609576040517f08c379a000000000000000000000000000000000000000000000000000000000815260040161060090611fd2565b60405180910390fd5b61065b83600960008773ffffffffffffffffffffffffffffffffffffffff1673ffffffffffffffffffffffffffffffffffffffff1681526020019081526020016000205461152390919063ffffffff16565b600960008673ffffffffffffffffffffffffffffffffffffffff1673ffffffffffffffffffffffffffffffffffffffff168152602001908152602001600020819055508373ffffffffffffffffffffffffffffffffffffffff167ff6334794522b9db534a812aaae1af828a2e96aac68473b58e36d7d0bfd67477b846040516106e49190612072565b60405180910390a2600160009054906101000a900473ffffffffffffffffffffffffffffffffffffffff1673ffffffffffffffffffffffffffffffffffffffff166323b872dd600c60009054906101000a900473ffffffffffffffffffffffffffffffffffffffff1686866040518463ffffffff1660e01b815260040161076d93929190611e40565b602060405180830381600087803b15801561078757600080fd5b505af115801561079b573d6000803e3d6000fd5b505050506040513d601f19601f820116820180604052508101906107bf91906116eb565b5050505050565b60076020528060005260406000206000915054906101000a900460ff1681565b600081600760008273ffffffffffffffffffffffffffffffffffffffff1673ffffffffffffffffffffffffffffffffffffffff16815260200190815260200160002060009054906101000a900460ff16801561086f5750600073ffffffffffffffffffffffffffffffffffffffff168173ffffffffffffffffffffffffffffffffffffffff1614155b6108ae576040517f08c379a00000000000000000000000000000000000000000000000000000000081526004016108a590612032565b60405180910390fd5b60006108b9846112f9565b90508092505050919050565b600a5481565b6108d36112f1565b73ffffffffffffffffffffffffffffffffffffffff166108f1610c03565b73ffffffffffffffffffffffffffffffffffffffff1614610947576040517f08c379a000000000000000000000000000000000000000000000000000000000815260040161093e90611f92565b60405180910390fd5b80600c60006101000a81548173ffffffffffffffffffffffffffffffffffffffff021916908373ffffffffffffffffffffffffffffffffffffffff16021790555050565b6109936112f1565b73ffffffffffffffffffffffffffffffffffffffff166109b1610c03565b73ffffffffffffffffffffffffffffffffffffffff1614610a07576040517f08c379a00000000000000000000000000000000000000000000000000000000081526004016109fe90611f92565b60405180910390fd5b6001811015610a4b576040517f08c379a0000000000000000000000000000000000000000000000000000000008152600401610a4290611ef2565b60405180910390fd5b80600b8190555050565b600b5481565b600c60009054906101000a900473ffffffffffffffffffffffffffffffffffffffff1681565b6000806000600254600354600454925092509250909192565b60096020528060005260406000206000915090505481565b610aba6112f1565b73ffffffffffffffffffffffffffffffffffffffff16610ad8610c03565b73ffffffffffffffffffffffffffffffffffffffff1614610b2e576040517f08c379a0000000000000000000000000000000000000000000000000000000008152600401610b2590611f92565b60405180910390fd5b610b386000611539565b565b610b426112f1565b73ffffffffffffffffffffffffffffffffffffffff16610b60610c03565b73ffffffffffffffffffffffffffffffffffffffff1614610bb6576040517f08c379a0000000000000000000000000000000000000000000000000000000008152600401610bad90611f92565b60405180910390fd5b60008111610bf9576040517f08c379a0000000000000000000000000000000000000000000000000000000008152600401610bf090612052565b60405180910390fd5b80600a8190555050565b60008060009054906101000a900473ffffffffffffffffffffffffffffffffffffffff16905090565b6000600680549050905090565b60068181548110610c4957600080fd5b906000526020600020016000915054906101000a900473ffffffffffffffffffffffffffffffffffffffff1681565b610c806112f1565b73ffffffffffffffffffffffffffffffffffffffff16610c9e610c03565b73ffffffffffffffffffffffffffffffffffffffff1614610cf4576040517f08c379a0000000000000000000000000000000000000000000000000000000008152600401610ceb90611f92565b60405180910390fd5b600073ffffffffffffffffffffffffffffffffffffffff168273ffffffffffffffffffffffffffffffffffffffff161415610d64576040517f08c379a0000000000000000000000000000000000000000000000000000000008152600401610d5b90611fb2565b60405180910390fd5b60008111610da7576040517f08c379a0000000000000000000000000000000000000000000000000000000008152600401610d9e90611f32565b60405180910390fd5b600a54610db2610c2c565b1115610df3576040517f08c379a0000000000000000000000000000000000000000000000000000000008152600401610dea90611ff2565b60405180910390fd5b600760008373ffffffffffffffffffffffffffffffffffffffff1673ffffffffffffffffffffffffffffffffffffffff16815260200190815260200160002060009054906101000a900460ff1615610e80576040517f08c379a0000000000000000000000000000000000000000000000000000000008152600401610e7790612012565b60405180910390fd5b6006829080600181540180825580915050600190039060005260206000200160009091909190916101000a81548173ffffffffffffffffffffffffffffffffffffffff021916908373ffffffffffffffffffffffffffffffffffffffff16021790555080600860008473ffffffffffffffffffffffffffffffffffffffff1673ffffffffffffffffffffffffffffffffffffffff16815260200190815260200160002081905550610f3c8160055461152390919063ffffffff16565b6005819055506001600760008473ffffffffffffffffffffffffffffffffffffffff1673ffffffffffffffffffffffffffffffffffffffff16815260200190815260200160002060006101000a81548160ff0219169083151502179055508173ffffffffffffffffffffffffffffffffffffffff167fe6b83177f11971ba30369bb38b914ffba97d5969a3c857b286fa8fdbb150b3ba600860008573ffffffffffffffffffffffffffffffffffffffff1673ffffffffffffffffffffffffffffffffffffffff1681526020019081526020016000205460405161101f9190612072565b60405180910390a25050565b60086020528060005260406000206000915090505481565b61104b6112f1565b73ffffffffffffffffffffffffffffffffffffffff16611069610c03565b73ffffffffffffffffffffffffffffffffffffffff16146110bf576040517f08c379a00000000000000000000000000000000000000000000000000000000081526004016110b690611f92565b60405180910390fd5b600073ffffffffffffffffffffffffffffffffffffffff168173ffffffffffffffffffffffffffffffffffffffff16141561112f576040517f08c379a000000000000000000000000000000000000000000000000000000000815260040161112690611ed2565b60405180910390fd5b61113881611539565b50565b6111436112f1565b73ffffffffffffffffffffffffffffffffffffffff16611161610c03565b73ffffffffffffffffffffffffffffffffffffffff16146111b7576040517f08c379a00000000000000000000000000000000000000000000000000000000081526004016111ae90611f92565b60405180910390fd5b600083141580156111cf57506111cb6115fd565b8310155b61120e576040517f08c379a000000000000000000000000000000000000000000000000000000000815260040161120590611e92565b60405180910390fd5b6001821015611252576040517f08c379a000000000000000000000000000000000000000000000000000000000815260040161124990611f72565b60405180910390fd5b6001811015611296576040517f08c379a000000000000000000000000000000000000000000000000000000000815260040161128d90611f52565b60405180910390fd5b8260028190555081600381905550806004819055507ffd0bfab6cf562d79ade144330370f03c29b18fbe8d9148a6e052246960ece22a6002546003546004546040516112e49392919061208d565b60405180910390a1505050565b600033905090565b600080611317603c6113096115fd565b61160590919063ffffffff16565b90506000611331603c60025461160590919063ffffffff16565b90506000611360603c6113526201518060035461161b90919063ffffffff16565b61160590919063ffffffff16565b9050611375818361152390919063ffffffff16565b8310156114875760006113a5600454611397858761163190919063ffffffff16565b61160590919063ffffffff16565b905060006113be6004548461160590919063ffffffff16565b90506000611477600960008a73ffffffffffffffffffffffffffffffffffffffff1673ffffffffffffffffffffffffffffffffffffffff168152602001908152602001600020546114698461145b87600860008f73ffffffffffffffffffffffffffffffffffffffff1673ffffffffffffffffffffffffffffffffffffffff1681526020019081526020016000205461161b90919063ffffffff16565b61160590919063ffffffff16565b61163190919063ffffffff16565b905080965050505050505061151e565b611518600960008773ffffffffffffffffffffffffffffffffffffffff1673ffffffffffffffffffffffffffffffffffffffff16815260200190815260200160002054600860008873ffffffffffffffffffffffffffffffffffffffff1673ffffffffffffffffffffffffffffffffffffffff1681526020019081526020016000205461163190919063ffffffff16565b93505050505b919050565b6000818361153191906120d5565b905092915050565b60008060009054906101000a900473ffffffffffffffffffffffffffffffffffffffff169050816000806101000a81548173ffffffffffffffffffffffffffffffffffffffff021916908373ffffffffffffffffffffffffffffffffffffffff1602179055508173ffffffffffffffffffffffffffffffffffffffff168173ffffffffffffffffffffffffffffffffffffffff167f8be0079c531659141344cd1fd0a4f28419497f9722a3daafe3b4186f6b6457e060405160405180910390a35050565b600042905090565b60008183611613919061212b565b905092915050565b60008183611629919061215c565b905092915050565b6000818361163f91906121b6565b905092915050565b60008135905061165681612290565b92915050565b60008151905061166b816122a7565b92915050565b600081359050611680816122be565b92915050565b60006020828403121561169857600080fd5b60006116a684828501611647565b91505092915050565b600080604083850312156116c257600080fd5b60006116d085828601611647565b92505060206116e185828601611671565b9150509250929050565b6000602082840312156116fd57600080fd5b600061170b8482850161165c565b91505092915050565b60006020828403121561172657600080fd5b600061173484828501611671565b91505092915050565b60008060006060848603121561175257600080fd5b600061176086828701611671565b935050602061177186828701611671565b925050604061178286828701611671565b9150509250925092565b611795816121ea565b82525050565b6117a4816121fc565b82525050565b60006117b7604a836120c4565b91507f546f6b656e56657374696e673a20496e76616c69642073746172742074696d6560008301527f2e2053746172742074696d652063616e2774206265206265666f72652063757260208301527f72656e742074696d652e000000000000000000000000000000000000000000006040830152606082019050919050565b6000611843603e836120c4565b91507f546f6b656e56657374696e673a204f6e6c79206f776e6572206f72206120766160008301527f6c69642062656e65666963696172792063616e2062652063616c6c65722e00006020830152604082019050919050565b60006118a96026836120c4565b91507f4f776e61626c653a206e6577206f776e657220697320746865207a65726f206160008301527f64647265737300000000000000000000000000000000000000000000000000006020830152604082019050919050565b600061190f603b836120c4565b91507f546f6b656e56657374696e673a204d696e696d756d206475726174696f6e206360008301527f616e6e6f74206265206c6573736572207468616e2031206461792e00000000006020830152604082019050919050565b60006119756045836120c4565b91507f546f6b656e56657374696e673a2052656c6561736520616d6f756e742063616e60008301527f6e6f74206265206d6f7265207468616e20746f74616c2076657374696e67206160208301527f6d6f756e740000000000000000000000000000000000000000000000000000006040830152606082019050919050565b6000611a016036836120c4565b91507f546f6b656e56657374696e673a2056657374696e6720616d6f756e74206d757360008301527f742062652067726561746572207468616e207a65726f000000000000000000006020830152604082019050919050565b6000611a67603e836120c4565b91507f546f6b656e56657374696e673a2052656c65617365207363686564756c65206360008301527f616e6e6f74206265206c6573736572207468616e2031206d696e7574652e00006020830152604082019050919050565b6000611acd602f836120c4565b91507f546f6b656e56657374696e673a204d696e696d756d2076657374696e6720647560008301527f726174696f6e20697320312064617900000000000000000000000000000000006020830152604082019050919050565b6000611b336020836120c4565b91507f4f776e61626c653a2063616c6c6572206973206e6f7420746865206f776e65726000830152602082019050919050565b6000611b736039836120c4565b91507f546f6b656e56657374696e673a205a65726f20616464726573732063616e6e6f60008301527f742062652073657420617320612062656e6566696369617279000000000000006020830152604082019050919050565b6000611bd9604e836120c4565b91507f546f6b656e56657374696e673a20456e74657265642072656c6561736520616d60008301527f6f756e742069732067726561746572207468616e2063757572656e742072656c60208301527f65617361626c6520616d6f756e740000000000000000000000000000000000006040830152606082019050919050565b6000611c656031836120c4565b91507f546f6b656e56657374696e673a2042656e656669636961727920636f756e742060008301527f6861732072656163686564206c696d69740000000000000000000000000000006020830152604082019050919050565b6000611ccb6027836120c4565b91507f546f6b656e56657374696e673a2042656e656669636961727920616c7265616460008301527f79206164646564000000000000000000000000000000000000000000000000006020830152604082019050919050565b6000611d316032836120c4565b91507f546f6b656e56657374696e673a20496e76616c69642062656e6566696369617260008301527f79206164647265737320646574656374656400000000000000000000000000006020830152604082019050919050565b6000611d976041836120c4565b91507f546f6b656e56657374696e673a2042656e656669636961727920636f756e742060008301527f6c696d69742073686f756c642062652067726561746572207468616e207a657260208301527f6f000000000000000000000000000000000000000000000000000000000000006040830152606082019050919050565b611e1f81612228565b82525050565b6000602082019050611e3a600083018461178c565b92915050565b6000606082019050611e55600083018661178c565b611e62602083018561178c565b611e6f6040830184611e16565b949350505050565b6000602082019050611e8c600083018461179b565b92915050565b60006020820190508181036000830152611eab816117aa565b9050919050565b60006020820190508181036000830152611ecb81611836565b9050919050565b60006020820190508181036000830152611eeb8161189c565b9050919050565b60006020820190508181036000830152611f0b81611902565b9050919050565b60006020820190508181036000830152611f2b81611968565b9050919050565b60006020820190508181036000830152611f4b816119f4565b9050919050565b60006020820190508181036000830152611f6b81611a5a565b9050919050565b60006020820190508181036000830152611f8b81611ac0565b9050919050565b60006020820190508181036000830152611fab81611b26565b9050919050565b60006020820190508181036000830152611fcb81611b66565b9050919050565b60006020820190508181036000830152611feb81611bcc565b9050919050565b6000602082019050818103600083015261200b81611c58565b9050919050565b6000602082019050818103600083015261202b81611cbe565b9050919050565b6000602082019050818103600083015261204b81611d24565b9050919050565b6000602082019050818103600083015261206b81611d8a565b9050919050565b60006020820190506120876000830184611e16565b92915050565b60006060820190506120a26000830186611e16565b6120af6020830185611e16565b6120bc6040830184611e16565b949350505050565b600082825260208201905092915050565b60006120e082612228565b91506120eb83612228565b9250827fffffffffffffffffffffffffffffffffffffffffffffffffffffffffffffffff038211156121205761211f612232565b5b828201905092915050565b600061213682612228565b915061214183612228565b92508261215157612150612261565b5b828204905092915050565b600061216782612228565b915061217283612228565b9250817fffffffffffffffffffffffffffffffffffffffffffffffffffffffffffffffff04831182151516156121ab576121aa612232565b5b828202905092915050565b60006121c182612228565b91506121cc83612228565b9250828210156121df576121de612232565b5b828203905092915050565b60006121f582612208565b9050919050565b60008115159050919050565b600073ffffffffffffffffffffffffffffffffffffffff82169050919050565b6000819050919050565b7f4e487b7100000000000000000000000000000000000000000000000000000000600052601160045260246000fd5b7f4e487b7100000000000000000000000000000000000000000000000000000000600052601260045260246000fd5b612299816121ea565b81146122a457600080fd5b50565b6122b0816121fc565b81146122bb57600080fd5b50565b6122c781612228565b81146122d257600080fd5b5056fea2646970667358221220fdde729fc2eff198ab9db23da839a8b370a07c579fbd70fe6067e2e522ba235264736f6c63430008000033",
					"opcodes": "PUSH1 0x80 PUSH1 0x40 MSTORE CALLVALUE DUP1 ISZERO PUSH3 0x11 JUMPI PUSH1 0x0 DUP1 REVERT JUMPDEST POP PUSH1 0x40 MLOAD PUSH3 0x2526 CODESIZE SUB DUP1 PUSH3 0x2526 DUP4 CODECOPY DUP2 DUP2 ADD PUSH1 0x40 MSTORE DUP2 ADD SWAP1 PUSH3 0x37 SWAP2 SWAP1 PUSH3 0x191 JUMP JUMPDEST PUSH3 0x57 PUSH3 0x4B PUSH3 0xAE PUSH1 0x20 SHL PUSH1 0x20 SHR JUMP JUMPDEST PUSH3 0xB6 PUSH1 0x20 SHL PUSH1 0x20 SHR JUMP JUMPDEST DUP1 PUSH1 0x1 PUSH1 0x0 PUSH2 0x100 EXP DUP2 SLOAD DUP2 PUSH20 0xFFFFFFFFFFFFFFFFFFFFFFFFFFFFFFFFFFFFFFFF MUL NOT AND SWAP1 DUP4 PUSH20 0xFFFFFFFFFFFFFFFFFFFFFFFFFFFFFFFFFFFFFFFF AND MUL OR SWAP1 SSTORE POP PUSH1 0xA DUP1 DUP2 SWAP1 SSTORE POP PUSH1 0x1 PUSH1 0xB DUP2 SWAP1 SSTORE POP POP PUSH3 0x20B JUMP JUMPDEST PUSH1 0x0 CALLER SWAP1 POP SWAP1 JUMP JUMPDEST PUSH1 0x0 DUP1 PUSH1 0x0 SWAP1 SLOAD SWAP1 PUSH2 0x100 EXP SWAP1 DIV PUSH20 0xFFFFFFFFFFFFFFFFFFFFFFFFFFFFFFFFFFFFFFFF AND SWAP1 POP DUP2 PUSH1 0x0 DUP1 PUSH2 0x100 EXP DUP2 SLOAD DUP2 PUSH20 0xFFFFFFFFFFFFFFFFFFFFFFFFFFFFFFFFFFFFFFFF MUL NOT AND SWAP1 DUP4 PUSH20 0xFFFFFFFFFFFFFFFFFFFFFFFFFFFFFFFFFFFFFFFF AND MUL OR SWAP1 SSTORE POP DUP2 PUSH20 0xFFFFFFFFFFFFFFFFFFFFFFFFFFFFFFFFFFFFFFFF AND DUP2 PUSH20 0xFFFFFFFFFFFFFFFFFFFFFFFFFFFFFFFFFFFFFFFF AND PUSH32 0x8BE0079C531659141344CD1FD0A4F28419497F9722A3DAAFE3B4186F6B6457E0 PUSH1 0x40 MLOAD PUSH1 0x40 MLOAD DUP1 SWAP2 SUB SWAP1 LOG3 POP POP JUMP JUMPDEST PUSH1 0x0 DUP2 MLOAD SWAP1 POP PUSH3 0x18B DUP2 PUSH3 0x1F1 JUMP JUMPDEST SWAP3 SWAP2 POP POP JUMP JUMPDEST PUSH1 0x0 PUSH1 0x20 DUP3 DUP5 SUB SLT ISZERO PUSH3 0x1A4 JUMPI PUSH1 0x0 DUP1 REVERT JUMPDEST PUSH1 0x0 PUSH3 0x1B4 DUP5 DUP3 DUP6 ADD PUSH3 0x17A JUMP JUMPDEST SWAP2 POP POP SWAP3 SWAP2 POP POP JUMP JUMPDEST PUSH1 0x0 PUSH3 0x1CA DUP3 PUSH3 0x1D1 JUMP JUMPDEST SWAP1 POP SWAP2 SWAP1 POP JUMP JUMPDEST PUSH1 0x0 PUSH20 0xFFFFFFFFFFFFFFFFFFFFFFFFFFFFFFFFFFFFFFFF DUP3 AND SWAP1 POP SWAP2 SWAP1 POP JUMP JUMPDEST PUSH3 0x1FC DUP2 PUSH3 0x1BD JUMP JUMPDEST DUP2 EQ PUSH3 0x208 JUMPI PUSH1 0x0 DUP1 REVERT JUMPDEST POP JUMP JUMPDEST PUSH2 0x230B DUP1 PUSH3 0x21B PUSH1 0x0 CODECOPY PUSH1 0x0 RETURN INVALID PUSH1 0x80 PUSH1 0x40 MSTORE CALLVALUE DUP1 ISZERO PUSH2 0x10 JUMPI PUSH1 0x0 DUP1 REVERT JUMPDEST POP PUSH1 0x4 CALLDATASIZE LT PUSH2 0x121 JUMPI PUSH1 0x0 CALLDATALOAD PUSH1 0xE0 SHR DUP1 PUSH4 0x6B51D347 GT PUSH2 0xAD JUMPI DUP1 PUSH4 0x9E761BBB GT PUSH2 0x71 JUMPI DUP1 PUSH4 0x9E761BBB EQ PUSH2 0x2E6 JUMPI DUP1 PUSH4 0x9F79685E EQ PUSH2 0x316 JUMPI DUP1 PUSH4 0xB9F0BF66 EQ PUSH2 0x332 JUMPI DUP1 PUSH4 0xF2FDE38B EQ PUSH2 0x362 JUMPI DUP1 PUSH4 0xFC99D9A1 EQ PUSH2 0x37E JUMPI PUSH2 0x121 JUMP JUMPDEST DUP1 PUSH4 0x6B51D347 EQ PUSH2 0x254 JUMPI DUP1 PUSH4 0x715018A6 EQ PUSH2 0x284 JUMPI DUP1 PUSH4 0x75DE48AB EQ PUSH2 0x28E JUMPI DUP1 PUSH4 0x8DA5CB5B EQ PUSH2 0x2AA JUMPI DUP1 PUSH4 0x9A6E7FD1 EQ PUSH2 0x2C8 JUMPI PUSH2 0x121 JUMP JUMPDEST DUP1 PUSH4 0x4A917A2F GT PUSH2 0xF4 JUMPI DUP1 PUSH4 0x4A917A2F EQ PUSH2 0x1C0 JUMPI DUP1 PUSH4 0x566B041D EQ PUSH2 0x1DC JUMPI DUP1 PUSH4 0x59A075EC EQ PUSH2 0x1F8 JUMPI DUP1 PUSH4 0x65473FD2 EQ PUSH2 0x216 JUMPI DUP1 PUSH4 0x66923995 EQ PUSH2 0x234 JUMPI PUSH2 0x121 JUMP JUMPDEST DUP1 PUSH4 0x357371D EQ PUSH2 0x126 JUMPI DUP1 PUSH4 0x54CACAF EQ PUSH2 0x142 JUMPI DUP1 PUSH4 0x2AFD1A7D EQ PUSH2 0x172 JUMPI DUP1 PUSH4 0x366340CA EQ PUSH2 0x1A2 JUMPI JUMPDEST PUSH1 0x0 DUP1 REVERT JUMPDEST PUSH2 0x140 PUSH1 0x4 DUP1 CALLDATASIZE SUB DUP2 ADD SWAP1 PUSH2 0x13B SWAP2 SWAP1 PUSH2 0x16AF JUMP JUMPDEST PUSH2 0x39A JUMP JUMPDEST STOP JUMPDEST PUSH2 0x15C PUSH1 0x4 DUP1 CALLDATASIZE SUB DUP2 ADD SWAP1 PUSH2 0x157 SWAP2 SWAP1 PUSH2 0x1686 JUMP JUMPDEST PUSH2 0x7C6 JUMP JUMPDEST PUSH1 0x40 MLOAD PUSH2 0x169 SWAP2 SWAP1 PUSH2 0x1E77 JUMP JUMPDEST PUSH1 0x40 MLOAD DUP1 SWAP2 SUB SWAP1 RETURN JUMPDEST PUSH2 0x18C PUSH1 0x4 DUP1 CALLDATASIZE SUB DUP2 ADD SWAP1 PUSH2 0x187 SWAP2 SWAP1 PUSH2 0x1686 JUMP JUMPDEST PUSH2 0x7E6 JUMP JUMPDEST PUSH1 0x40 MLOAD PUSH2 0x199 SWAP2 SWAP1 PUSH2 0x2072 JUMP JUMPDEST PUSH1 0x40 MLOAD DUP1 SWAP2 SUB SWAP1 RETURN JUMPDEST PUSH2 0x1AA PUSH2 0x8C5 JUMP JUMPDEST PUSH1 0x40 MLOAD PUSH2 0x1B7 SWAP2 SWAP1 PUSH2 0x2072 JUMP JUMPDEST PUSH1 0x40 MLOAD DUP1 SWAP2 SUB SWAP1 RETURN JUMPDEST PUSH2 0x1DA PUSH1 0x4 DUP1 CALLDATASIZE SUB DUP2 ADD SWAP1 PUSH2 0x1D5 SWAP2 SWAP1 PUSH2 0x1686 JUMP JUMPDEST PUSH2 0x8CB JUMP JUMPDEST STOP JUMPDEST PUSH2 0x1F6 PUSH1 0x4 DUP1 CALLDATASIZE SUB DUP2 ADD SWAP1 PUSH2 0x1F1 SWAP2 SWAP1 PUSH2 0x1714 JUMP JUMPDEST PUSH2 0x98B JUMP JUMPDEST STOP JUMPDEST PUSH2 0x200 PUSH2 0xA55 JUMP JUMPDEST PUSH1 0x40 MLOAD PUSH2 0x20D SWAP2 SWAP1 PUSH2 0x2072 JUMP JUMPDEST PUSH1 0x40 MLOAD DUP1 SWAP2 SUB SWAP1 RETURN JUMPDEST PUSH2 0x21E PUSH2 0xA5B JUMP JUMPDEST PUSH1 0x40 MLOAD PUSH2 0x22B SWAP2 SWAP1 PUSH2 0x1E25 JUMP JUMPDEST PUSH1 0x40 MLOAD DUP1 SWAP2 SUB SWAP1 RETURN JUMPDEST PUSH2 0x23C PUSH2 0xA81 JUMP JUMPDEST PUSH1 0x40 MLOAD PUSH2 0x24B SWAP4 SWAP3 SWAP2 SWAP1 PUSH2 0x208D JUMP JUMPDEST PUSH1 0x40 MLOAD DUP1 SWAP2 SUB SWAP1 RETURN JUMPDEST PUSH2 0x26E PUSH1 0x4 DUP1 CALLDATASIZE SUB DUP2 ADD SWAP1 PUSH2 0x269 SWAP2 SWAP1 PUSH2 0x1686 JUMP JUMPDEST PUSH2 0xA9A JUMP JUMPDEST PUSH1 0x40 MLOAD PUSH2 0x27B SWAP2 SWAP1 PUSH2 0x2072 JUMP JUMPDEST PUSH1 0x40 MLOAD DUP1 SWAP2 SUB SWAP1 RETURN JUMPDEST PUSH2 0x28C PUSH2 0xAB2 JUMP JUMPDEST STOP JUMPDEST PUSH2 0x2A8 PUSH1 0x4 DUP1 CALLDATASIZE SUB DUP2 ADD SWAP1 PUSH2 0x2A3 SWAP2 SWAP1 PUSH2 0x1714 JUMP JUMPDEST PUSH2 0xB3A JUMP JUMPDEST STOP JUMPDEST PUSH2 0x2B2 PUSH2 0xC03 JUMP JUMPDEST PUSH1 0x40 MLOAD PUSH2 0x2BF SWAP2 SWAP1 PUSH2 0x1E25 JUMP JUMPDEST PUSH1 0x40 MLOAD DUP1 SWAP2 SUB SWAP1 RETURN JUMPDEST PUSH2 0x2D0 PUSH2 0xC2C JUMP JUMPDEST PUSH1 0x40 MLOAD PUSH2 0x2DD SWAP2 SWAP1 PUSH2 0x2072 JUMP JUMPDEST PUSH1 0x40 MLOAD DUP1 SWAP2 SUB SWAP1 RETURN JUMPDEST PUSH2 0x300 PUSH1 0x4 DUP1 CALLDATASIZE SUB DUP2 ADD SWAP1 PUSH2 0x2FB SWAP2 SWAP1 PUSH2 0x1714 JUMP JUMPDEST PUSH2 0xC39 JUMP JUMPDEST PUSH1 0x40 MLOAD PUSH2 0x30D SWAP2 SWAP1 PUSH2 0x1E25 JUMP JUMPDEST PUSH1 0x40 MLOAD DUP1 SWAP2 SUB SWAP1 RETURN JUMPDEST PUSH2 0x330 PUSH1 0x4 DUP1 CALLDATASIZE SUB DUP2 ADD SWAP1 PUSH2 0x32B SWAP2 SWAP1 PUSH2 0x16AF JUMP JUMPDEST PUSH2 0xC78 JUMP JUMPDEST STOP JUMPDEST PUSH2 0x34C PUSH1 0x4 DUP1 CALLDATASIZE SUB DUP2 ADD SWAP1 PUSH2 0x347 SWAP2 SWAP1 PUSH2 0x1686 JUMP JUMPDEST PUSH2 0x102B JUMP JUMPDEST PUSH1 0x40 MLOAD PUSH2 0x359 SWAP2 SWAP1 PUSH2 0x2072 JUMP JUMPDEST PUSH1 0x40 MLOAD DUP1 SWAP2 SUB SWAP1 RETURN JUMPDEST PUSH2 0x37C PUSH1 0x4 DUP1 CALLDATASIZE SUB DUP2 ADD SWAP1 PUSH2 0x377 SWAP2 SWAP1 PUSH2 0x1686 JUMP JUMPDEST PUSH2 0x1043 JUMP JUMPDEST STOP JUMPDEST PUSH2 0x398 PUSH1 0x4 DUP1 CALLDATASIZE SUB DUP2 ADD SWAP1 PUSH2 0x393 SWAP2 SWAP1 PUSH2 0x173D JUMP JUMPDEST PUSH2 0x113B JUMP JUMPDEST STOP JUMPDEST DUP2 PUSH1 0x7 PUSH1 0x0 DUP3 PUSH20 0xFFFFFFFFFFFFFFFFFFFFFFFFFFFFFFFFFFFFFFFF AND PUSH20 0xFFFFFFFFFFFFFFFFFFFFFFFFFFFFFFFFFFFFFFFF AND DUP2 MSTORE PUSH1 0x20 ADD SWAP1 DUP2 MSTORE PUSH1 0x20 ADD PUSH1 0x0 KECCAK256 PUSH1 0x0 SWAP1 SLOAD SWAP1 PUSH2 0x100 EXP SWAP1 DIV PUSH1 0xFF AND DUP1 ISZERO PUSH2 0x421 JUMPI POP PUSH1 0x0 PUSH20 0xFFFFFFFFFFFFFFFFFFFFFFFFFFFFFFFFFFFFFFFF AND DUP2 PUSH20 0xFFFFFFFFFFFFFFFFFFFFFFFFFFFFFFFFFFFFFFFF AND EQ ISZERO JUMPDEST PUSH2 0x460 JUMPI PUSH1 0x40 MLOAD PUSH32 0x8C379A000000000000000000000000000000000000000000000000000000000 DUP2 MSTORE PUSH1 0x4 ADD PUSH2 0x457 SWAP1 PUSH2 0x2032 JUMP JUMPDEST PUSH1 0x40 MLOAD DUP1 SWAP2 SUB SWAP1 REVERT JUMPDEST PUSH2 0x468 PUSH2 0xC03 JUMP JUMPDEST PUSH20 0xFFFFFFFFFFFFFFFFFFFFFFFFFFFFFFFFFFFFFFFF AND PUSH2 0x486 PUSH2 0x12F1 JUMP JUMPDEST PUSH20 0xFFFFFFFFFFFFFFFFFFFFFFFFFFFFFFFFFFFFFFFF AND EQ DUP1 PUSH2 0x4F8 JUMPI POP PUSH1 0x7 PUSH1 0x0 PUSH2 0x4AF PUSH2 0x12F1 JUMP JUMPDEST PUSH20 0xFFFFFFFFFFFFFFFFFFFFFFFFFFFFFFFFFFFFFFFF AND PUSH20 0xFFFFFFFFFFFFFFFFFFFFFFFFFFFFFFFFFFFFFFFF AND DUP2 MSTORE PUSH1 0x20 ADD SWAP1 DUP2 MSTORE PUSH1 0x20 ADD PUSH1 0x0 KECCAK256 PUSH1 0x0 SWAP1 SLOAD SWAP1 PUSH2 0x100 EXP SWAP1 DIV PUSH1 0xFF AND JUMPDEST PUSH2 0x537 JUMPI PUSH1 0x40 MLOAD PUSH32 0x8C379A000000000000000000000000000000000000000000000000000000000 DUP2 MSTORE PUSH1 0x4 ADD PUSH2 0x52E SWAP1 PUSH2 0x1EB2 JUMP JUMPDEST PUSH1 0x40 MLOAD DUP1 SWAP2 SUB SWAP1 REVERT JUMPDEST PUSH1 0x8 PUSH1 0x0 DUP5 PUSH20 0xFFFFFFFFFFFFFFFFFFFFFFFFFFFFFFFFFFFFFFFF AND PUSH20 0xFFFFFFFFFFFFFFFFFFFFFFFFFFFFFFFFFFFFFFFF AND DUP2 MSTORE PUSH1 0x20 ADD SWAP1 DUP2 MSTORE PUSH1 0x20 ADD PUSH1 0x0 KECCAK256 SLOAD DUP3 GT ISZERO PUSH2 0x5B9 JUMPI PUSH1 0x40 MLOAD PUSH32 0x8C379A000000000000000000000000000000000000000000000000000000000 DUP2 MSTORE PUSH1 0x4 ADD PUSH2 0x5B0 SWAP1 PUSH2 0x1F12 JUMP JUMPDEST PUSH1 0x40 MLOAD DUP1 SWAP2 SUB SWAP1 REVERT JUMPDEST PUSH1 0x0 PUSH2 0x5C4 DUP5 PUSH2 0x12F9 JUMP JUMPDEST SWAP1 POP DUP1 DUP4 GT ISZERO PUSH2 0x609 JUMPI PUSH1 0x40 MLOAD PUSH32 0x8C379A000000000000000000000000000000000000000000000000000000000 DUP2 MSTORE PUSH1 0x4 ADD PUSH2 0x600 SWAP1 PUSH2 0x1FD2 JUMP JUMPDEST PUSH1 0x40 MLOAD DUP1 SWAP2 SUB SWAP1 REVERT JUMPDEST PUSH2 0x65B DUP4 PUSH1 0x9 PUSH1 0x0 DUP8 PUSH20 0xFFFFFFFFFFFFFFFFFFFFFFFFFFFFFFFFFFFFFFFF AND PUSH20 0xFFFFFFFFFFFFFFFFFFFFFFFFFFFFFFFFFFFFFFFF AND DUP2 MSTORE PUSH1 0x20 ADD SWAP1 DUP2 MSTORE PUSH1 0x20 ADD PUSH1 0x0 KECCAK256 SLOAD PUSH2 0x1523 SWAP1 SWAP2 SWAP1 PUSH4 0xFFFFFFFF AND JUMP JUMPDEST PUSH1 0x9 PUSH1 0x0 DUP7 PUSH20 0xFFFFFFFFFFFFFFFFFFFFFFFFFFFFFFFFFFFFFFFF AND PUSH20 0xFFFFFFFFFFFFFFFFFFFFFFFFFFFFFFFFFFFFFFFF AND DUP2 MSTORE PUSH1 0x20 ADD SWAP1 DUP2 MSTORE PUSH1 0x20 ADD PUSH1 0x0 KECCAK256 DUP2 SWAP1 SSTORE POP DUP4 PUSH20 0xFFFFFFFFFFFFFFFFFFFFFFFFFFFFFFFFFFFFFFFF AND PUSH32 0xF6334794522B9DB534A812AAAE1AF828A2E96AAC68473B58E36D7D0BFD67477B DUP5 PUSH1 0x40 MLOAD PUSH2 0x6E4 SWAP2 SWAP1 PUSH2 0x2072 JUMP JUMPDEST PUSH1 0x40 MLOAD DUP1 SWAP2 SUB SWAP1 LOG2 PUSH1 0x1 PUSH1 0x0 SWAP1 SLOAD SWAP1 PUSH2 0x100 EXP SWAP1 DIV PUSH20 0xFFFFFFFFFFFFFFFFFFFFFFFFFFFFFFFFFFFFFFFF AND PUSH20 0xFFFFFFFFFFFFFFFFFFFFFFFFFFFFFFFFFFFFFFFF AND PUSH4 0x23B872DD PUSH1 0xC PUSH1 0x0 SWAP1 SLOAD SWAP1 PUSH2 0x100 EXP SWAP1 DIV PUSH20 0xFFFFFFFFFFFFFFFFFFFFFFFFFFFFFFFFFFFFFFFF AND DUP7 DUP7 PUSH1 0x40 MLOAD DUP5 PUSH4 0xFFFFFFFF AND PUSH1 0xE0 SHL DUP2 MSTORE PUSH1 0x4 ADD PUSH2 0x76D SWAP4 SWAP3 SWAP2 SWAP1 PUSH2 0x1E40 JUMP JUMPDEST PUSH1 0x20 PUSH1 0x40 MLOAD DUP1 DUP4 SUB DUP2 PUSH1 0x0 DUP8 DUP1 EXTCODESIZE ISZERO DUP1 ISZERO PUSH2 0x787 JUMPI PUSH1 0x0 DUP1 REVERT JUMPDEST POP GAS CALL ISZERO DUP1 ISZERO PUSH2 0x79B JUMPI RETURNDATASIZE PUSH1 0x0 DUP1 RETURNDATACOPY RETURNDATASIZE PUSH1 0x0 REVERT JUMPDEST POP POP POP POP PUSH1 0x40 MLOAD RETURNDATASIZE PUSH1 0x1F NOT PUSH1 0x1F DUP3 ADD AND DUP3 ADD DUP1 PUSH1 0x40 MSTORE POP DUP2 ADD SWAP1 PUSH2 0x7BF SWAP2 SWAP1 PUSH2 0x16EB JUMP JUMPDEST POP POP POP POP POP JUMP JUMPDEST PUSH1 0x7 PUSH1 0x20 MSTORE DUP1 PUSH1 0x0 MSTORE PUSH1 0x40 PUSH1 0x0 KECCAK256 PUSH1 0x0 SWAP2 POP SLOAD SWAP1 PUSH2 0x100 EXP SWAP1 DIV PUSH1 0xFF AND DUP2 JUMP JUMPDEST PUSH1 0x0 DUP2 PUSH1 0x7 PUSH1 0x0 DUP3 PUSH20 0xFFFFFFFFFFFFFFFFFFFFFFFFFFFFFFFFFFFFFFFF AND PUSH20 0xFFFFFFFFFFFFFFFFFFFFFFFFFFFFFFFFFFFFFFFF AND DUP2 MSTORE PUSH1 0x20 ADD SWAP1 DUP2 MSTORE PUSH1 0x20 ADD PUSH1 0x0 KECCAK256 PUSH1 0x0 SWAP1 SLOAD SWAP1 PUSH2 0x100 EXP SWAP1 DIV PUSH1 0xFF AND DUP1 ISZERO PUSH2 0x86F JUMPI POP PUSH1 0x0 PUSH20 0xFFFFFFFFFFFFFFFFFFFFFFFFFFFFFFFFFFFFFFFF AND DUP2 PUSH20 0xFFFFFFFFFFFFFFFFFFFFFFFFFFFFFFFFFFFFFFFF AND EQ ISZERO JUMPDEST PUSH2 0x8AE JUMPI PUSH1 0x40 MLOAD PUSH32 0x8C379A000000000000000000000000000000000000000000000000000000000 DUP2 MSTORE PUSH1 0x4 ADD PUSH2 0x8A5 SWAP1 PUSH2 0x2032 JUMP JUMPDEST PUSH1 0x40 MLOAD DUP1 SWAP2 SUB SWAP1 REVERT JUMPDEST PUSH1 0x0 PUSH2 0x8B9 DUP5 PUSH2 0x12F9 JUMP JUMPDEST SWAP1 POP DUP1 SWAP3 POP POP POP SWAP2 SWAP1 POP JUMP JUMPDEST PUSH1 0xA SLOAD DUP2 JUMP JUMPDEST PUSH2 0x8D3 PUSH2 0x12F1 JUMP JUMPDEST PUSH20 0xFFFFFFFFFFFFFFFFFFFFFFFFFFFFFFFFFFFFFFFF AND PUSH2 0x8F1 PUSH2 0xC03 JUMP JUMPDEST PUSH20 0xFFFFFFFFFFFFFFFFFFFFFFFFFFFFFFFFFFFFFFFF AND EQ PUSH2 0x947 JUMPI PUSH1 0x40 MLOAD PUSH32 0x8C379A000000000000000000000000000000000000000000000000000000000 DUP2 MSTORE PUSH1 0x4 ADD PUSH2 0x93E SWAP1 PUSH2 0x1F92 JUMP JUMPDEST PUSH1 0x40 MLOAD DUP1 SWAP2 SUB SWAP1 REVERT JUMPDEST DUP1 PUSH1 0xC PUSH1 0x0 PUSH2 0x100 EXP DUP2 SLOAD DUP2 PUSH20 0xFFFFFFFFFFFFFFFFFFFFFFFFFFFFFFFFFFFFFFFF MUL NOT AND SWAP1 DUP4 PUSH20 0xFFFFFFFFFFFFFFFFFFFFFFFFFFFFFFFFFFFFFFFF AND MUL OR SWAP1 SSTORE POP POP JUMP JUMPDEST PUSH2 0x993 PUSH2 0x12F1 JUMP JUMPDEST PUSH20 0xFFFFFFFFFFFFFFFFFFFFFFFFFFFFFFFFFFFFFFFF AND PUSH2 0x9B1 PUSH2 0xC03 JUMP JUMPDEST PUSH20 0xFFFFFFFFFFFFFFFFFFFFFFFFFFFFFFFFFFFFFFFF AND EQ PUSH2 0xA07 JUMPI PUSH1 0x40 MLOAD PUSH32 0x8C379A000000000000000000000000000000000000000000000000000000000 DUP2 MSTORE PUSH1 0x4 ADD PUSH2 0x9FE SWAP1 PUSH2 0x1F92 JUMP JUMPDEST PUSH1 0x40 MLOAD DUP1 SWAP2 SUB SWAP1 REVERT JUMPDEST PUSH1 0x1 DUP2 LT ISZERO PUSH2 0xA4B JUMPI PUSH1 0x40 MLOAD PUSH32 0x8C379A000000000000000000000000000000000000000000000000000000000 DUP2 MSTORE PUSH1 0x4 ADD PUSH2 0xA42 SWAP1 PUSH2 0x1EF2 JUMP JUMPDEST PUSH1 0x40 MLOAD DUP1 SWAP2 SUB SWAP1 REVERT JUMPDEST DUP1 PUSH1 0xB DUP2 SWAP1 SSTORE POP POP JUMP JUMPDEST PUSH1 0xB SLOAD DUP2 JUMP JUMPDEST PUSH1 0xC PUSH1 0x0 SWAP1 SLOAD SWAP1 PUSH2 0x100 EXP SWAP1 DIV PUSH20 0xFFFFFFFFFFFFFFFFFFFFFFFFFFFFFFFFFFFFFFFF AND DUP2 JUMP JUMPDEST PUSH1 0x0 DUP1 PUSH1 0x0 PUSH1 0x2 SLOAD PUSH1 0x3 SLOAD PUSH1 0x4 SLOAD SWAP3 POP SWAP3 POP SWAP3 POP SWAP1 SWAP2 SWAP3 JUMP JUMPDEST PUSH1 0x9 PUSH1 0x20 MSTORE DUP1 PUSH1 0x0 MSTORE PUSH1 0x40 PUSH1 0x0 KECCAK256 PUSH1 0x0 SWAP2 POP SWAP1 POP SLOAD DUP2 JUMP JUMPDEST PUSH2 0xABA PUSH2 0x12F1 JUMP JUMPDEST PUSH20 0xFFFFFFFFFFFFFFFFFFFFFFFFFFFFFFFFFFFFFFFF AND PUSH2 0xAD8 PUSH2 0xC03 JUMP JUMPDEST PUSH20 0xFFFFFFFFFFFFFFFFFFFFFFFFFFFFFFFFFFFFFFFF AND EQ PUSH2 0xB2E JUMPI PUSH1 0x40 MLOAD PUSH32 0x8C379A000000000000000000000000000000000000000000000000000000000 DUP2 MSTORE PUSH1 0x4 ADD PUSH2 0xB25 SWAP1 PUSH2 0x1F92 JUMP JUMPDEST PUSH1 0x40 MLOAD DUP1 SWAP2 SUB SWAP1 REVERT JUMPDEST PUSH2 0xB38 PUSH1 0x0 PUSH2 0x1539 JUMP JUMPDEST JUMP JUMPDEST PUSH2 0xB42 PUSH2 0x12F1 JUMP JUMPDEST PUSH20 0xFFFFFFFFFFFFFFFFFFFFFFFFFFFFFFFFFFFFFFFF AND PUSH2 0xB60 PUSH2 0xC03 JUMP JUMPDEST PUSH20 0xFFFFFFFFFFFFFFFFFFFFFFFFFFFFFFFFFFFFFFFF AND EQ PUSH2 0xBB6 JUMPI PUSH1 0x40 MLOAD PUSH32 0x8C379A000000000000000000000000000000000000000000000000000000000 DUP2 MSTORE PUSH1 0x4 ADD PUSH2 0xBAD SWAP1 PUSH2 0x1F92 JUMP JUMPDEST PUSH1 0x40 MLOAD DUP1 SWAP2 SUB SWAP1 REVERT JUMPDEST PUSH1 0x0 DUP2 GT PUSH2 0xBF9 JUMPI PUSH1 0x40 MLOAD PUSH32 0x8C379A000000000000000000000000000000000000000000000000000000000 DUP2 MSTORE PUSH1 0x4 ADD PUSH2 0xBF0 SWAP1 PUSH2 0x2052 JUMP JUMPDEST PUSH1 0x40 MLOAD DUP1 SWAP2 SUB SWAP1 REVERT JUMPDEST DUP1 PUSH1 0xA DUP2 SWAP1 SSTORE POP POP JUMP JUMPDEST PUSH1 0x0 DUP1 PUSH1 0x0 SWAP1 SLOAD SWAP1 PUSH2 0x100 EXP SWAP1 DIV PUSH20 0xFFFFFFFFFFFFFFFFFFFFFFFFFFFFFFFFFFFFFFFF AND SWAP1 POP SWAP1 JUMP JUMPDEST PUSH1 0x0 PUSH1 0x6 DUP1 SLOAD SWAP1 POP SWAP1 POP SWAP1 JUMP JUMPDEST PUSH1 0x6 DUP2 DUP2 SLOAD DUP2 LT PUSH2 0xC49 JUMPI PUSH1 0x0 DUP1 REVERT JUMPDEST SWAP1 PUSH1 0x0 MSTORE PUSH1 0x20 PUSH1 0x0 KECCAK256 ADD PUSH1 0x0 SWAP2 POP SLOAD SWAP1 PUSH2 0x100 EXP SWAP1 DIV PUSH20 0xFFFFFFFFFFFFFFFFFFFFFFFFFFFFFFFFFFFFFFFF AND DUP2 JUMP JUMPDEST PUSH2 0xC80 PUSH2 0x12F1 JUMP JUMPDEST PUSH20 0xFFFFFFFFFFFFFFFFFFFFFFFFFFFFFFFFFFFFFFFF AND PUSH2 0xC9E PUSH2 0xC03 JUMP JUMPDEST PUSH20 0xFFFFFFFFFFFFFFFFFFFFFFFFFFFFFFFFFFFFFFFF AND EQ PUSH2 0xCF4 JUMPI PUSH1 0x40 MLOAD PUSH32 0x8C379A000000000000000000000000000000000000000000000000000000000 DUP2 MSTORE PUSH1 0x4 ADD PUSH2 0xCEB SWAP1 PUSH2 0x1F92 JUMP JUMPDEST PUSH1 0x40 MLOAD DUP1 SWAP2 SUB SWAP1 REVERT JUMPDEST PUSH1 0x0 PUSH20 0xFFFFFFFFFFFFFFFFFFFFFFFFFFFFFFFFFFFFFFFF AND DUP3 PUSH20 0xFFFFFFFFFFFFFFFFFFFFFFFFFFFFFFFFFFFFFFFF AND EQ ISZERO PUSH2 0xD64 JUMPI PUSH1 0x40 MLOAD PUSH32 0x8C379A000000000000000000000000000000000000000000000000000000000 DUP2 MSTORE PUSH1 0x4 ADD PUSH2 0xD5B SWAP1 PUSH2 0x1FB2 JUMP JUMPDEST PUSH1 0x40 MLOAD DUP1 SWAP2 SUB SWAP1 REVERT JUMPDEST PUSH1 0x0 DUP2 GT PUSH2 0xDA7 JUMPI PUSH1 0x40 MLOAD PUSH32 0x8C379A000000000000000000000000000000000000000000000000000000000 DUP2 MSTORE PUSH1 0x4 ADD PUSH2 0xD9E SWAP1 PUSH2 0x1F32 JUMP JUMPDEST PUSH1 0x40 MLOAD DUP1 SWAP2 SUB SWAP1 REVERT JUMPDEST PUSH1 0xA SLOAD PUSH2 0xDB2 PUSH2 0xC2C JUMP JUMPDEST GT ISZERO PUSH2 0xDF3 JUMPI PUSH1 0x40 MLOAD PUSH32 0x8C379A000000000000000000000000000000000000000000000000000000000 DUP2 MSTORE PUSH1 0x4 ADD PUSH2 0xDEA SWAP1 PUSH2 0x1FF2 JUMP JUMPDEST PUSH1 0x40 MLOAD DUP1 SWAP2 SUB SWAP1 REVERT JUMPDEST PUSH1 0x7 PUSH1 0x0 DUP4 PUSH20 0xFFFFFFFFFFFFFFFFFFFFFFFFFFFFFFFFFFFFFFFF AND PUSH20 0xFFFFFFFFFFFFFFFFFFFFFFFFFFFFFFFFFFFFFFFF AND DUP2 MSTORE PUSH1 0x20 ADD SWAP1 DUP2 MSTORE PUSH1 0x20 ADD PUSH1 0x0 KECCAK256 PUSH1 0x0 SWAP1 SLOAD SWAP1 PUSH2 0x100 EXP SWAP1 DIV PUSH1 0xFF AND ISZERO PUSH2 0xE80 JUMPI PUSH1 0x40 MLOAD PUSH32 0x8C379A000000000000000000000000000000000000000000000000000000000 DUP2 MSTORE PUSH1 0x4 ADD PUSH2 0xE77 SWAP1 PUSH2 0x2012 JUMP JUMPDEST PUSH1 0x40 MLOAD DUP1 SWAP2 SUB SWAP1 REVERT JUMPDEST PUSH1 0x6 DUP3 SWAP1 DUP1 PUSH1 0x1 DUP2 SLOAD ADD DUP1 DUP3 SSTORE DUP1 SWAP2 POP POP PUSH1 0x1 SWAP1 SUB SWAP1 PUSH1 0x0 MSTORE PUSH1 0x20 PUSH1 0x0 KECCAK256 ADD PUSH1 0x0 SWAP1 SWAP2 SWAP1 SWAP2 SWAP1 SWAP2 PUSH2 0x100 EXP DUP2 SLOAD DUP2 PUSH20 0xFFFFFFFFFFFFFFFFFFFFFFFFFFFFFFFFFFFFFFFF MUL NOT AND SWAP1 DUP4 PUSH20 0xFFFFFFFFFFFFFFFFFFFFFFFFFFFFFFFFFFFFFFFF AND MUL OR SWAP1 SSTORE POP DUP1 PUSH1 0x8 PUSH1 0x0 DUP5 PUSH20 0xFFFFFFFFFFFFFFFFFFFFFFFFFFFFFFFFFFFFFFFF AND PUSH20 0xFFFFFFFFFFFFFFFFFFFFFFFFFFFFFFFFFFFFFFFF AND DUP2 MSTORE PUSH1 0x20 ADD SWAP1 DUP2 MSTORE PUSH1 0x20 ADD PUSH1 0x0 KECCAK256 DUP2 SWAP1 SSTORE POP PUSH2 0xF3C DUP2 PUSH1 0x5 SLOAD PUSH2 0x1523 SWAP1 SWAP2 SWAP1 PUSH4 0xFFFFFFFF AND JUMP JUMPDEST PUSH1 0x5 DUP2 SWAP1 SSTORE POP PUSH1 0x1 PUSH1 0x7 PUSH1 0x0 DUP5 PUSH20 0xFFFFFFFFFFFFFFFFFFFFFFFFFFFFFFFFFFFFFFFF AND PUSH20 0xFFFFFFFFFFFFFFFFFFFFFFFFFFFFFFFFFFFFFFFF AND DUP2 MSTORE PUSH1 0x20 ADD SWAP1 DUP2 MSTORE PUSH1 0x20 ADD PUSH1 0x0 KECCAK256 PUSH1 0x0 PUSH2 0x100 EXP DUP2 SLOAD DUP2 PUSH1 0xFF MUL NOT AND SWAP1 DUP4 ISZERO ISZERO MUL OR SWAP1 SSTORE POP DUP2 PUSH20 0xFFFFFFFFFFFFFFFFFFFFFFFFFFFFFFFFFFFFFFFF AND PUSH32 0xE6B83177F11971BA30369BB38B914FFBA97D5969A3C857B286FA8FDBB150B3BA PUSH1 0x8 PUSH1 0x0 DUP6 PUSH20 0xFFFFFFFFFFFFFFFFFFFFFFFFFFFFFFFFFFFFFFFF AND PUSH20 0xFFFFFFFFFFFFFFFFFFFFFFFFFFFFFFFFFFFFFFFF AND DUP2 MSTORE PUSH1 0x20 ADD SWAP1 DUP2 MSTORE PUSH1 0x20 ADD PUSH1 0x0 KECCAK256 SLOAD PUSH1 0x40 MLOAD PUSH2 0x101F SWAP2 SWAP1 PUSH2 0x2072 JUMP JUMPDEST PUSH1 0x40 MLOAD DUP1 SWAP2 SUB SWAP1 LOG2 POP POP JUMP JUMPDEST PUSH1 0x8 PUSH1 0x20 MSTORE DUP1 PUSH1 0x0 MSTORE PUSH1 0x40 PUSH1 0x0 KECCAK256 PUSH1 0x0 SWAP2 POP SWAP1 POP SLOAD DUP2 JUMP JUMPDEST PUSH2 0x104B PUSH2 0x12F1 JUMP JUMPDEST PUSH20 0xFFFFFFFFFFFFFFFFFFFFFFFFFFFFFFFFFFFFFFFF AND PUSH2 0x1069 PUSH2 0xC03 JUMP JUMPDEST PUSH20 0xFFFFFFFFFFFFFFFFFFFFFFFFFFFFFFFFFFFFFFFF AND EQ PUSH2 0x10BF JUMPI PUSH1 0x40 MLOAD PUSH32 0x8C379A000000000000000000000000000000000000000000000000000000000 DUP2 MSTORE PUSH1 0x4 ADD PUSH2 0x10B6 SWAP1 PUSH2 0x1F92 JUMP JUMPDEST PUSH1 0x40 MLOAD DUP1 SWAP2 SUB SWAP1 REVERT JUMPDEST PUSH1 0x0 PUSH20 0xFFFFFFFFFFFFFFFFFFFFFFFFFFFFFFFFFFFFFFFF AND DUP2 PUSH20 0xFFFFFFFFFFFFFFFFFFFFFFFFFFFFFFFFFFFFFFFF AND EQ ISZERO PUSH2 0x112F JUMPI PUSH1 0x40 MLOAD PUSH32 0x8C379A000000000000000000000000000000000000000000000000000000000 DUP2 MSTORE PUSH1 0x4 ADD PUSH2 0x1126 SWAP1 PUSH2 0x1ED2 JUMP JUMPDEST PUSH1 0x40 MLOAD DUP1 SWAP2 SUB SWAP1 REVERT JUMPDEST PUSH2 0x1138 DUP2 PUSH2 0x1539 JUMP JUMPDEST POP JUMP JUMPDEST PUSH2 0x1143 PUSH2 0x12F1 JUMP JUMPDEST PUSH20 0xFFFFFFFFFFFFFFFFFFFFFFFFFFFFFFFFFFFFFFFF AND PUSH2 0x1161 PUSH2 0xC03 JUMP JUMPDEST PUSH20 0xFFFFFFFFFFFFFFFFFFFFFFFFFFFFFFFFFFFFFFFF AND EQ PUSH2 0x11B7 JUMPI PUSH1 0x40 MLOAD PUSH32 0x8C379A000000000000000000000000000000000000000000000000000000000 DUP2 MSTORE PUSH1 0x4 ADD PUSH2 0x11AE SWAP1 PUSH2 0x1F92 JUMP JUMPDEST PUSH1 0x40 MLOAD DUP1 SWAP2 SUB SWAP1 REVERT JUMPDEST PUSH1 0x0 DUP4 EQ ISZERO DUP1 ISZERO PUSH2 0x11CF JUMPI POP PUSH2 0x11CB PUSH2 0x15FD JUMP JUMPDEST DUP4 LT ISZERO JUMPDEST PUSH2 0x120E JUMPI PUSH1 0x40 MLOAD PUSH32 0x8C379A000000000000000000000000000000000000000000000000000000000 DUP2 MSTORE PUSH1 0x4 ADD PUSH2 0x1205 SWAP1 PUSH2 0x1E92 JUMP JUMPDEST PUSH1 0x40 MLOAD DUP1 SWAP2 SUB SWAP1 REVERT JUMPDEST PUSH1 0x1 DUP3 LT ISZERO PUSH2 0x1252 JUMPI PUSH1 0x40 MLOAD PUSH32 0x8C379A000000000000000000000000000000000000000000000000000000000 DUP2 MSTORE PUSH1 0x4 ADD PUSH2 0x1249 SWAP1 PUSH2 0x1F72 JUMP JUMPDEST PUSH1 0x40 MLOAD DUP1 SWAP2 SUB SWAP1 REVERT JUMPDEST PUSH1 0x1 DUP2 LT ISZERO PUSH2 0x1296 JUMPI PUSH1 0x40 MLOAD PUSH32 0x8C379A000000000000000000000000000000000000000000000000000000000 DUP2 MSTORE PUSH1 0x4 ADD PUSH2 0x128D SWAP1 PUSH2 0x1F52 JUMP JUMPDEST PUSH1 0x40 MLOAD DUP1 SWAP2 SUB SWAP1 REVERT JUMPDEST DUP3 PUSH1 0x2 DUP2 SWAP1 SSTORE POP DUP2 PUSH1 0x3 DUP2 SWAP1 SSTORE POP DUP1 PUSH1 0x4 DUP2 SWAP1 SSTORE POP PUSH32 0xFD0BFAB6CF562D79ADE144330370F03C29B18FBE8D9148A6E052246960ECE22A PUSH1 0x2 SLOAD PUSH1 0x3 SLOAD PUSH1 0x4 SLOAD PUSH1 0x40 MLOAD PUSH2 0x12E4 SWAP4 SWAP3 SWAP2 SWAP1 PUSH2 0x208D JUMP JUMPDEST PUSH1 0x40 MLOAD DUP1 SWAP2 SUB SWAP1 LOG1 POP POP POP JUMP JUMPDEST PUSH1 0x0 CALLER SWAP1 POP SWAP1 JUMP JUMPDEST PUSH1 0x0 DUP1 PUSH2 0x1317 PUSH1 0x3C PUSH2 0x1309 PUSH2 0x15FD JUMP JUMPDEST PUSH2 0x1605 SWAP1 SWAP2 SWAP1 PUSH4 0xFFFFFFFF AND JUMP JUMPDEST SWAP1 POP PUSH1 0x0 PUSH2 0x1331 PUSH1 0x3C PUSH1 0x2 SLOAD PUSH2 0x1605 SWAP1 SWAP2 SWAP1 PUSH4 0xFFFFFFFF AND JUMP JUMPDEST SWAP1 POP PUSH1 0x0 PUSH2 0x1360 PUSH1 0x3C PUSH2 0x1352 PUSH3 0x15180 PUSH1 0x3 SLOAD PUSH2 0x161B SWAP1 SWAP2 SWAP1 PUSH4 0xFFFFFFFF AND JUMP JUMPDEST PUSH2 0x1605 SWAP1 SWAP2 SWAP1 PUSH4 0xFFFFFFFF AND JUMP JUMPDEST SWAP1 POP PUSH2 0x1375 DUP2 DUP4 PUSH2 0x1523 SWAP1 SWAP2 SWAP1 PUSH4 0xFFFFFFFF AND JUMP JUMPDEST DUP4 LT ISZERO PUSH2 0x1487 JUMPI PUSH1 0x0 PUSH2 0x13A5 PUSH1 0x4 SLOAD PUSH2 0x1397 DUP6 DUP8 PUSH2 0x1631 SWAP1 SWAP2 SWAP1 PUSH4 0xFFFFFFFF AND JUMP JUMPDEST PUSH2 0x1605 SWAP1 SWAP2 SWAP1 PUSH4 0xFFFFFFFF AND JUMP JUMPDEST SWAP1 POP PUSH1 0x0 PUSH2 0x13BE PUSH1 0x4 SLOAD DUP5 PUSH2 0x1605 SWAP1 SWAP2 SWAP1 PUSH4 0xFFFFFFFF AND JUMP JUMPDEST SWAP1 POP PUSH1 0x0 PUSH2 0x1477 PUSH1 0x9 PUSH1 0x0 DUP11 PUSH20 0xFFFFFFFFFFFFFFFFFFFFFFFFFFFFFFFFFFFFFFFF AND PUSH20 0xFFFFFFFFFFFFFFFFFFFFFFFFFFFFFFFFFFFFFFFF AND DUP2 MSTORE PUSH1 0x20 ADD SWAP1 DUP2 MSTORE PUSH1 0x20 ADD PUSH1 0x0 KECCAK256 SLOAD PUSH2 0x1469 DUP5 PUSH2 0x145B DUP8 PUSH1 0x8 PUSH1 0x0 DUP16 PUSH20 0xFFFFFFFFFFFFFFFFFFFFFFFFFFFFFFFFFFFFFFFF AND PUSH20 0xFFFFFFFFFFFFFFFFFFFFFFFFFFFFFFFFFFFFFFFF AND DUP2 MSTORE PUSH1 0x20 ADD SWAP1 DUP2 MSTORE PUSH1 0x20 ADD PUSH1 0x0 KECCAK256 SLOAD PUSH2 0x161B SWAP1 SWAP2 SWAP1 PUSH4 0xFFFFFFFF AND JUMP JUMPDEST PUSH2 0x1605 SWAP1 SWAP2 SWAP1 PUSH4 0xFFFFFFFF AND JUMP JUMPDEST PUSH2 0x1631 SWAP1 SWAP2 SWAP1 PUSH4 0xFFFFFFFF AND JUMP JUMPDEST SWAP1 POP DUP1 SWAP7 POP POP POP POP POP POP POP PUSH2 0x151E JUMP JUMPDEST PUSH2 0x1518 PUSH1 0x9 PUSH1 0x0 DUP8 PUSH20 0xFFFFFFFFFFFFFFFFFFFFFFFFFFFFFFFFFFFFFFFF AND PUSH20 0xFFFFFFFFFFFFFFFFFFFFFFFFFFFFFFFFFFFFFFFF AND DUP2 MSTORE PUSH1 0x20 ADD SWAP1 DUP2 MSTORE PUSH1 0x20 ADD PUSH1 0x0 KECCAK256 SLOAD PUSH1 0x8 PUSH1 0x0 DUP9 PUSH20 0xFFFFFFFFFFFFFFFFFFFFFFFFFFFFFFFFFFFFFFFF AND PUSH20 0xFFFFFFFFFFFFFFFFFFFFFFFFFFFFFFFFFFFFFFFF AND DUP2 MSTORE PUSH1 0x20 ADD SWAP1 DUP2 MSTORE PUSH1 0x20 ADD PUSH1 0x0 KECCAK256 SLOAD PUSH2 0x1631 SWAP1 SWAP2 SWAP1 PUSH4 0xFFFFFFFF AND JUMP JUMPDEST SWAP4 POP POP POP POP JUMPDEST SWAP2 SWAP1 POP JUMP JUMPDEST PUSH1 0x0 DUP2 DUP4 PUSH2 0x1531 SWAP2 SWAP1 PUSH2 0x20D5 JUMP JUMPDEST SWAP1 POP SWAP3 SWAP2 POP POP JUMP JUMPDEST PUSH1 0x0 DUP1 PUSH1 0x0 SWAP1 SLOAD SWAP1 PUSH2 0x100 EXP SWAP1 DIV PUSH20 0xFFFFFFFFFFFFFFFFFFFFFFFFFFFFFFFFFFFFFFFF AND SWAP1 POP DUP2 PUSH1 0x0 DUP1 PUSH2 0x100 EXP DUP2 SLOAD DUP2 PUSH20 0xFFFFFFFFFFFFFFFFFFFFFFFFFFFFFFFFFFFFFFFF MUL NOT AND SWAP1 DUP4 PUSH20 0xFFFFFFFFFFFFFFFFFFFFFFFFFFFFFFFFFFFFFFFF AND MUL OR SWAP1 SSTORE POP DUP2 PUSH20 0xFFFFFFFFFFFFFFFFFFFFFFFFFFFFFFFFFFFFFFFF AND DUP2 PUSH20 0xFFFFFFFFFFFFFFFFFFFFFFFFFFFFFFFFFFFFFFFF AND PUSH32 0x8BE0079C531659141344CD1FD0A4F28419497F9722A3DAAFE3B4186F6B6457E0 PUSH1 0x40 MLOAD PUSH1 0x40 MLOAD DUP1 SWAP2 SUB SWAP1 LOG3 POP POP JUMP JUMPDEST PUSH1 0x0 TIMESTAMP SWAP1 POP SWAP1 JUMP JUMPDEST PUSH1 0x0 DUP2 DUP4 PUSH2 0x1613 SWAP2 SWAP1 PUSH2 0x212B JUMP JUMPDEST SWAP1 POP SWAP3 SWAP2 POP POP JUMP JUMPDEST PUSH1 0x0 DUP2 DUP4 PUSH2 0x1629 SWAP2 SWAP1 PUSH2 0x215C JUMP JUMPDEST SWAP1 POP SWAP3 SWAP2 POP POP JUMP JUMPDEST PUSH1 0x0 DUP2 DUP4 PUSH2 0x163F SWAP2 SWAP1 PUSH2 0x21B6 JUMP JUMPDEST SWAP1 POP SWAP3 SWAP2 POP POP JUMP JUMPDEST PUSH1 0x0 DUP2 CALLDATALOAD SWAP1 POP PUSH2 0x1656 DUP2 PUSH2 0x2290 JUMP JUMPDEST SWAP3 SWAP2 POP POP JUMP JUMPDEST PUSH1 0x0 DUP2 MLOAD SWAP1 POP PUSH2 0x166B DUP2 PUSH2 0x22A7 JUMP JUMPDEST SWAP3 SWAP2 POP POP JUMP JUMPDEST PUSH1 0x0 DUP2 CALLDATALOAD SWAP1 POP PUSH2 0x1680 DUP2 PUSH2 0x22BE JUMP JUMPDEST SWAP3 SWAP2 POP POP JUMP JUMPDEST PUSH1 0x0 PUSH1 0x20 DUP3 DUP5 SUB SLT ISZERO PUSH2 0x1698 JUMPI PUSH1 0x0 DUP1 REVERT JUMPDEST PUSH1 0x0 PUSH2 0x16A6 DUP5 DUP3 DUP6 ADD PUSH2 0x1647 JUMP JUMPDEST SWAP2 POP POP SWAP3 SWAP2 POP POP JUMP JUMPDEST PUSH1 0x0 DUP1 PUSH1 0x40 DUP4 DUP6 SUB SLT ISZERO PUSH2 0x16C2 JUMPI PUSH1 0x0 DUP1 REVERT JUMPDEST PUSH1 0x0 PUSH2 0x16D0 DUP6 DUP3 DUP7 ADD PUSH2 0x1647 JUMP JUMPDEST SWAP3 POP POP PUSH1 0x20 PUSH2 0x16E1 DUP6 DUP3 DUP7 ADD PUSH2 0x1671 JUMP JUMPDEST SWAP2 POP POP SWAP3 POP SWAP3 SWAP1 POP JUMP JUMPDEST PUSH1 0x0 PUSH1 0x20 DUP3 DUP5 SUB SLT ISZERO PUSH2 0x16FD JUMPI PUSH1 0x0 DUP1 REVERT JUMPDEST PUSH1 0x0 PUSH2 0x170B DUP5 DUP3 DUP6 ADD PUSH2 0x165C JUMP JUMPDEST SWAP2 POP POP SWAP3 SWAP2 POP POP JUMP JUMPDEST PUSH1 0x0 PUSH1 0x20 DUP3 DUP5 SUB SLT ISZERO PUSH2 0x1726 JUMPI PUSH1 0x0 DUP1 REVERT JUMPDEST PUSH1 0x0 PUSH2 0x1734 DUP5 DUP3 DUP6 ADD PUSH2 0x1671 JUMP JUMPDEST SWAP2 POP POP SWAP3 SWAP2 POP POP JUMP JUMPDEST PUSH1 0x0 DUP1 PUSH1 0x0 PUSH1 0x60 DUP5 DUP7 SUB SLT ISZERO PUSH2 0x1752 JUMPI PUSH1 0x0 DUP1 REVERT JUMPDEST PUSH1 0x0 PUSH2 0x1760 DUP7 DUP3 DUP8 ADD PUSH2 0x1671 JUMP JUMPDEST SWAP4 POP POP PUSH1 0x20 PUSH2 0x1771 DUP7 DUP3 DUP8 ADD PUSH2 0x1671 JUMP JUMPDEST SWAP3 POP POP PUSH1 0x40 PUSH2 0x1782 DUP7 DUP3 DUP8 ADD PUSH2 0x1671 JUMP JUMPDEST SWAP2 POP POP SWAP3 POP SWAP3 POP SWAP3 JUMP JUMPDEST PUSH2 0x1795 DUP2 PUSH2 0x21EA JUMP JUMPDEST DUP3 MSTORE POP POP JUMP JUMPDEST PUSH2 0x17A4 DUP2 PUSH2 0x21FC JUMP JUMPDEST DUP3 MSTORE POP POP JUMP JUMPDEST PUSH1 0x0 PUSH2 0x17B7 PUSH1 0x4A DUP4 PUSH2 0x20C4 JUMP JUMPDEST SWAP2 POP PUSH32 0x546F6B656E56657374696E673A20496E76616C69642073746172742074696D65 PUSH1 0x0 DUP4 ADD MSTORE PUSH32 0x2E2053746172742074696D652063616E2774206265206265666F726520637572 PUSH1 0x20 DUP4 ADD MSTORE PUSH32 0x72656E742074696D652E00000000000000000000000000000000000000000000 PUSH1 0x40 DUP4 ADD MSTORE PUSH1 0x60 DUP3 ADD SWAP1 POP SWAP2 SWAP1 POP JUMP JUMPDEST PUSH1 0x0 PUSH2 0x1843 PUSH1 0x3E DUP4 PUSH2 0x20C4 JUMP JUMPDEST SWAP2 POP PUSH32 0x546F6B656E56657374696E673A204F6E6C79206F776E6572206F722061207661 PUSH1 0x0 DUP4 ADD MSTORE PUSH32 0x6C69642062656E65666963696172792063616E2062652063616C6C65722E0000 PUSH1 0x20 DUP4 ADD MSTORE PUSH1 0x40 DUP3 ADD SWAP1 POP SWAP2 SWAP1 POP JUMP JUMPDEST PUSH1 0x0 PUSH2 0x18A9 PUSH1 0x26 DUP4 PUSH2 0x20C4 JUMP JUMPDEST SWAP2 POP PUSH32 0x4F776E61626C653A206E6577206F776E657220697320746865207A65726F2061 PUSH1 0x0 DUP4 ADD MSTORE PUSH32 0x6464726573730000000000000000000000000000000000000000000000000000 PUSH1 0x20 DUP4 ADD MSTORE PUSH1 0x40 DUP3 ADD SWAP1 POP SWAP2 SWAP1 POP JUMP JUMPDEST PUSH1 0x0 PUSH2 0x190F PUSH1 0x3B DUP4 PUSH2 0x20C4 JUMP JUMPDEST SWAP2 POP PUSH32 0x546F6B656E56657374696E673A204D696E696D756D206475726174696F6E2063 PUSH1 0x0 DUP4 ADD MSTORE PUSH32 0x616E6E6F74206265206C6573736572207468616E2031206461792E0000000000 PUSH1 0x20 DUP4 ADD MSTORE PUSH1 0x40 DUP3 ADD SWAP1 POP SWAP2 SWAP1 POP JUMP JUMPDEST PUSH1 0x0 PUSH2 0x1975 PUSH1 0x45 DUP4 PUSH2 0x20C4 JUMP JUMPDEST SWAP2 POP PUSH32 0x546F6B656E56657374696E673A2052656C6561736520616D6F756E742063616E PUSH1 0x0 DUP4 ADD MSTORE PUSH32 0x6E6F74206265206D6F7265207468616E20746F74616C2076657374696E672061 PUSH1 0x20 DUP4 ADD MSTORE PUSH32 0x6D6F756E74000000000000000000000000000000000000000000000000000000 PUSH1 0x40 DUP4 ADD MSTORE PUSH1 0x60 DUP3 ADD SWAP1 POP SWAP2 SWAP1 POP JUMP JUMPDEST PUSH1 0x0 PUSH2 0x1A01 PUSH1 0x36 DUP4 PUSH2 0x20C4 JUMP JUMPDEST SWAP2 POP PUSH32 0x546F6B656E56657374696E673A2056657374696E6720616D6F756E74206D7573 PUSH1 0x0 DUP4 ADD MSTORE PUSH32 0x742062652067726561746572207468616E207A65726F00000000000000000000 PUSH1 0x20 DUP4 ADD MSTORE PUSH1 0x40 DUP3 ADD SWAP1 POP SWAP2 SWAP1 POP JUMP JUMPDEST PUSH1 0x0 PUSH2 0x1A67 PUSH1 0x3E DUP4 PUSH2 0x20C4 JUMP JUMPDEST SWAP2 POP PUSH32 0x546F6B656E56657374696E673A2052656C65617365207363686564756C652063 PUSH1 0x0 DUP4 ADD MSTORE PUSH32 0x616E6E6F74206265206C6573736572207468616E2031206D696E7574652E0000 PUSH1 0x20 DUP4 ADD MSTORE PUSH1 0x40 DUP3 ADD SWAP1 POP SWAP2 SWAP1 POP JUMP JUMPDEST PUSH1 0x0 PUSH2 0x1ACD PUSH1 0x2F DUP4 PUSH2 0x20C4 JUMP JUMPDEST SWAP2 POP PUSH32 0x546F6B656E56657374696E673A204D696E696D756D2076657374696E67206475 PUSH1 0x0 DUP4 ADD MSTORE PUSH32 0x726174696F6E2069732031206461790000000000000000000000000000000000 PUSH1 0x20 DUP4 ADD MSTORE PUSH1 0x40 DUP3 ADD SWAP1 POP SWAP2 SWAP1 POP JUMP JUMPDEST PUSH1 0x0 PUSH2 0x1B33 PUSH1 0x20 DUP4 PUSH2 0x20C4 JUMP JUMPDEST SWAP2 POP PUSH32 0x4F776E61626C653A2063616C6C6572206973206E6F7420746865206F776E6572 PUSH1 0x0 DUP4 ADD MSTORE PUSH1 0x20 DUP3 ADD SWAP1 POP SWAP2 SWAP1 POP JUMP JUMPDEST PUSH1 0x0 PUSH2 0x1B73 PUSH1 0x39 DUP4 PUSH2 0x20C4 JUMP JUMPDEST SWAP2 POP PUSH32 0x546F6B656E56657374696E673A205A65726F20616464726573732063616E6E6F PUSH1 0x0 DUP4 ADD MSTORE PUSH32 0x742062652073657420617320612062656E656669636961727900000000000000 PUSH1 0x20 DUP4 ADD MSTORE PUSH1 0x40 DUP3 ADD SWAP1 POP SWAP2 SWAP1 POP JUMP JUMPDEST PUSH1 0x0 PUSH2 0x1BD9 PUSH1 0x4E DUP4 PUSH2 0x20C4 JUMP JUMPDEST SWAP2 POP PUSH32 0x546F6B656E56657374696E673A20456E74657265642072656C6561736520616D PUSH1 0x0 DUP4 ADD MSTORE PUSH32 0x6F756E742069732067726561746572207468616E2063757572656E742072656C PUSH1 0x20 DUP4 ADD MSTORE PUSH32 0x65617361626C6520616D6F756E74000000000000000000000000000000000000 PUSH1 0x40 DUP4 ADD MSTORE PUSH1 0x60 DUP3 ADD SWAP1 POP SWAP2 SWAP1 POP JUMP JUMPDEST PUSH1 0x0 PUSH2 0x1C65 PUSH1 0x31 DUP4 PUSH2 0x20C4 JUMP JUMPDEST SWAP2 POP PUSH32 0x546F6B656E56657374696E673A2042656E656669636961727920636F756E7420 PUSH1 0x0 DUP4 ADD MSTORE PUSH32 0x6861732072656163686564206C696D6974000000000000000000000000000000 PUSH1 0x20 DUP4 ADD MSTORE PUSH1 0x40 DUP3 ADD SWAP1 POP SWAP2 SWAP1 POP JUMP JUMPDEST PUSH1 0x0 PUSH2 0x1CCB PUSH1 0x27 DUP4 PUSH2 0x20C4 JUMP JUMPDEST SWAP2 POP PUSH32 0x546F6B656E56657374696E673A2042656E656669636961727920616C72656164 PUSH1 0x0 DUP4 ADD MSTORE PUSH32 0x7920616464656400000000000000000000000000000000000000000000000000 PUSH1 0x20 DUP4 ADD MSTORE PUSH1 0x40 DUP3 ADD SWAP1 POP SWAP2 SWAP1 POP JUMP JUMPDEST PUSH1 0x0 PUSH2 0x1D31 PUSH1 0x32 DUP4 PUSH2 0x20C4 JUMP JUMPDEST SWAP2 POP PUSH32 0x546F6B656E56657374696E673A20496E76616C69642062656E65666963696172 PUSH1 0x0 DUP4 ADD MSTORE PUSH32 0x7920616464726573732064657465637465640000000000000000000000000000 PUSH1 0x20 DUP4 ADD MSTORE PUSH1 0x40 DUP3 ADD SWAP1 POP SWAP2 SWAP1 POP JUMP JUMPDEST PUSH1 0x0 PUSH2 0x1D97 PUSH1 0x41 DUP4 PUSH2 0x20C4 JUMP JUMPDEST SWAP2 POP PUSH32 0x546F6B656E56657374696E673A2042656E656669636961727920636F756E7420 PUSH1 0x0 DUP4 ADD MSTORE PUSH32 0x6C696D69742073686F756C642062652067726561746572207468616E207A6572 PUSH1 0x20 DUP4 ADD MSTORE PUSH32 0x6F00000000000000000000000000000000000000000000000000000000000000 PUSH1 0x40 DUP4 ADD MSTORE PUSH1 0x60 DUP3 ADD SWAP1 POP SWAP2 SWAP1 POP JUMP JUMPDEST PUSH2 0x1E1F DUP2 PUSH2 0x2228 JUMP JUMPDEST DUP3 MSTORE POP POP JUMP JUMPDEST PUSH1 0x0 PUSH1 0x20 DUP3 ADD SWAP1 POP PUSH2 0x1E3A PUSH1 0x0 DUP4 ADD DUP5 PUSH2 0x178C JUMP JUMPDEST SWAP3 SWAP2 POP POP JUMP JUMPDEST PUSH1 0x0 PUSH1 0x60 DUP3 ADD SWAP1 POP PUSH2 0x1E55 PUSH1 0x0 DUP4 ADD DUP7 PUSH2 0x178C JUMP JUMPDEST PUSH2 0x1E62 PUSH1 0x20 DUP4 ADD DUP6 PUSH2 0x178C JUMP JUMPDEST PUSH2 0x1E6F PUSH1 0x40 DUP4 ADD DUP5 PUSH2 0x1E16 JUMP JUMPDEST SWAP5 SWAP4 POP POP POP POP JUMP JUMPDEST PUSH1 0x0 PUSH1 0x20 DUP3 ADD SWAP1 POP PUSH2 0x1E8C PUSH1 0x0 DUP4 ADD DUP5 PUSH2 0x179B JUMP JUMPDEST SWAP3 SWAP2 POP POP JUMP JUMPDEST PUSH1 0x0 PUSH1 0x20 DUP3 ADD SWAP1 POP DUP2 DUP2 SUB PUSH1 0x0 DUP4 ADD MSTORE PUSH2 0x1EAB DUP2 PUSH2 0x17AA JUMP JUMPDEST SWAP1 POP SWAP2 SWAP1 POP JUMP JUMPDEST PUSH1 0x0 PUSH1 0x20 DUP3 ADD SWAP1 POP DUP2 DUP2 SUB PUSH1 0x0 DUP4 ADD MSTORE PUSH2 0x1ECB DUP2 PUSH2 0x1836 JUMP JUMPDEST SWAP1 POP SWAP2 SWAP1 POP JUMP JUMPDEST PUSH1 0x0 PUSH1 0x20 DUP3 ADD SWAP1 POP DUP2 DUP2 SUB PUSH1 0x0 DUP4 ADD MSTORE PUSH2 0x1EEB DUP2 PUSH2 0x189C JUMP JUMPDEST SWAP1 POP SWAP2 SWAP1 POP JUMP JUMPDEST PUSH1 0x0 PUSH1 0x20 DUP3 ADD SWAP1 POP DUP2 DUP2 SUB PUSH1 0x0 DUP4 ADD MSTORE PUSH2 0x1F0B DUP2 PUSH2 0x1902 JUMP JUMPDEST SWAP1 POP SWAP2 SWAP1 POP JUMP JUMPDEST PUSH1 0x0 PUSH1 0x20 DUP3 ADD SWAP1 POP DUP2 DUP2 SUB PUSH1 0x0 DUP4 ADD MSTORE PUSH2 0x1F2B DUP2 PUSH2 0x1968 JUMP JUMPDEST SWAP1 POP SWAP2 SWAP1 POP JUMP JUMPDEST PUSH1 0x0 PUSH1 0x20 DUP3 ADD SWAP1 POP DUP2 DUP2 SUB PUSH1 0x0 DUP4 ADD MSTORE PUSH2 0x1F4B DUP2 PUSH2 0x19F4 JUMP JUMPDEST SWAP1 POP SWAP2 SWAP1 POP JUMP JUMPDEST PUSH1 0x0 PUSH1 0x20 DUP3 ADD SWAP1 POP DUP2 DUP2 SUB PUSH1 0x0 DUP4 ADD MSTORE PUSH2 0x1F6B DUP2 PUSH2 0x1A5A JUMP JUMPDEST SWAP1 POP SWAP2 SWAP1 POP JUMP JUMPDEST PUSH1 0x0 PUSH1 0x20 DUP3 ADD SWAP1 POP DUP2 DUP2 SUB PUSH1 0x0 DUP4 ADD MSTORE PUSH2 0x1F8B DUP2 PUSH2 0x1AC0 JUMP JUMPDEST SWAP1 POP SWAP2 SWAP1 POP JUMP JUMPDEST PUSH1 0x0 PUSH1 0x20 DUP3 ADD SWAP1 POP DUP2 DUP2 SUB PUSH1 0x0 DUP4 ADD MSTORE PUSH2 0x1FAB DUP2 PUSH2 0x1B26 JUMP JUMPDEST SWAP1 POP SWAP2 SWAP1 POP JUMP JUMPDEST PUSH1 0x0 PUSH1 0x20 DUP3 ADD SWAP1 POP DUP2 DUP2 SUB PUSH1 0x0 DUP4 ADD MSTORE PUSH2 0x1FCB DUP2 PUSH2 0x1B66 JUMP JUMPDEST SWAP1 POP SWAP2 SWAP1 POP JUMP JUMPDEST PUSH1 0x0 PUSH1 0x20 DUP3 ADD SWAP1 POP DUP2 DUP2 SUB PUSH1 0x0 DUP4 ADD MSTORE PUSH2 0x1FEB DUP2 PUSH2 0x1BCC JUMP JUMPDEST SWAP1 POP SWAP2 SWAP1 POP JUMP JUMPDEST PUSH1 0x0 PUSH1 0x20 DUP3 ADD SWAP1 POP DUP2 DUP2 SUB PUSH1 0x0 DUP4 ADD MSTORE PUSH2 0x200B DUP2 PUSH2 0x1C58 JUMP JUMPDEST SWAP1 POP SWAP2 SWAP1 POP JUMP JUMPDEST PUSH1 0x0 PUSH1 0x20 DUP3 ADD SWAP1 POP DUP2 DUP2 SUB PUSH1 0x0 DUP4 ADD MSTORE PUSH2 0x202B DUP2 PUSH2 0x1CBE JUMP JUMPDEST SWAP1 POP SWAP2 SWAP1 POP JUMP JUMPDEST PUSH1 0x0 PUSH1 0x20 DUP3 ADD SWAP1 POP DUP2 DUP2 SUB PUSH1 0x0 DUP4 ADD MSTORE PUSH2 0x204B DUP2 PUSH2 0x1D24 JUMP JUMPDEST SWAP1 POP SWAP2 SWAP1 POP JUMP JUMPDEST PUSH1 0x0 PUSH1 0x20 DUP3 ADD SWAP1 POP DUP2 DUP2 SUB PUSH1 0x0 DUP4 ADD MSTORE PUSH2 0x206B DUP2 PUSH2 0x1D8A JUMP JUMPDEST SWAP1 POP SWAP2 SWAP1 POP JUMP JUMPDEST PUSH1 0x0 PUSH1 0x20 DUP3 ADD SWAP1 POP PUSH2 0x2087 PUSH1 0x0 DUP4 ADD DUP5 PUSH2 0x1E16 JUMP JUMPDEST SWAP3 SWAP2 POP POP JUMP JUMPDEST PUSH1 0x0 PUSH1 0x60 DUP3 ADD SWAP1 POP PUSH2 0x20A2 PUSH1 0x0 DUP4 ADD DUP7 PUSH2 0x1E16 JUMP JUMPDEST PUSH2 0x20AF PUSH1 0x20 DUP4 ADD DUP6 PUSH2 0x1E16 JUMP JUMPDEST PUSH2 0x20BC PUSH1 0x40 DUP4 ADD DUP5 PUSH2 0x1E16 JUMP JUMPDEST SWAP5 SWAP4 POP POP POP POP JUMP JUMPDEST PUSH1 0x0 DUP3 DUP3 MSTORE PUSH1 0x20 DUP3 ADD SWAP1 POP SWAP3 SWAP2 POP POP JUMP JUMPDEST PUSH1 0x0 PUSH2 0x20E0 DUP3 PUSH2 0x2228 JUMP JUMPDEST SWAP2 POP PUSH2 0x20EB DUP4 PUSH2 0x2228 JUMP JUMPDEST SWAP3 POP DUP3 PUSH32 0xFFFFFFFFFFFFFFFFFFFFFFFFFFFFFFFFFFFFFFFFFFFFFFFFFFFFFFFFFFFFFFFF SUB DUP3 GT ISZERO PUSH2 0x2120 JUMPI PUSH2 0x211F PUSH2 0x2232 JUMP JUMPDEST JUMPDEST DUP3 DUP3 ADD SWAP1 POP SWAP3 SWAP2 POP POP JUMP JUMPDEST PUSH1 0x0 PUSH2 0x2136 DUP3 PUSH2 0x2228 JUMP JUMPDEST SWAP2 POP PUSH2 0x2141 DUP4 PUSH2 0x2228 JUMP JUMPDEST SWAP3 POP DUP3 PUSH2 0x2151 JUMPI PUSH2 0x2150 PUSH2 0x2261 JUMP JUMPDEST JUMPDEST DUP3 DUP3 DIV SWAP1 POP SWAP3 SWAP2 POP POP JUMP JUMPDEST PUSH1 0x0 PUSH2 0x2167 DUP3 PUSH2 0x2228 JUMP JUMPDEST SWAP2 POP PUSH2 0x2172 DUP4 PUSH2 0x2228 JUMP JUMPDEST SWAP3 POP DUP2 PUSH32 0xFFFFFFFFFFFFFFFFFFFFFFFFFFFFFFFFFFFFFFFFFFFFFFFFFFFFFFFFFFFFFFFF DIV DUP4 GT DUP3 ISZERO ISZERO AND ISZERO PUSH2 0x21AB JUMPI PUSH2 0x21AA PUSH2 0x2232 JUMP JUMPDEST JUMPDEST DUP3 DUP3 MUL SWAP1 POP SWAP3 SWAP2 POP POP JUMP JUMPDEST PUSH1 0x0 PUSH2 0x21C1 DUP3 PUSH2 0x2228 JUMP JUMPDEST SWAP2 POP PUSH2 0x21CC DUP4 PUSH2 0x2228 JUMP JUMPDEST SWAP3 POP DUP3 DUP3 LT ISZERO PUSH2 0x21DF JUMPI PUSH2 0x21DE PUSH2 0x2232 JUMP JUMPDEST JUMPDEST DUP3 DUP3 SUB SWAP1 POP SWAP3 SWAP2 POP POP JUMP JUMPDEST PUSH1 0x0 PUSH2 0x21F5 DUP3 PUSH2 0x2208 JUMP JUMPDEST SWAP1 POP SWAP2 SWAP1 POP JUMP JUMPDEST PUSH1 0x0 DUP2 ISZERO ISZERO SWAP1 POP SWAP2 SWAP1 POP JUMP JUMPDEST PUSH1 0x0 PUSH20 0xFFFFFFFFFFFFFFFFFFFFFFFFFFFFFFFFFFFFFFFF DUP3 AND SWAP1 POP SWAP2 SWAP1 POP JUMP JUMPDEST PUSH1 0x0 DUP2 SWAP1 POP SWAP2 SWAP1 POP JUMP JUMPDEST PUSH32 0x4E487B7100000000000000000000000000000000000000000000000000000000 PUSH1 0x0 MSTORE PUSH1 0x11 PUSH1 0x4 MSTORE PUSH1 0x24 PUSH1 0x0 REVERT JUMPDEST PUSH32 0x4E487B7100000000000000000000000000000000000000000000000000000000 PUSH1 0x0 MSTORE PUSH1 0x12 PUSH1 0x4 MSTORE PUSH1 0x24 PUSH1 0x0 REVERT JUMPDEST PUSH2 0x2299 DUP2 PUSH2 0x21EA JUMP JUMPDEST DUP2 EQ PUSH2 0x22A4 JUMPI PUSH1 0x0 DUP1 REVERT JUMPDEST POP JUMP JUMPDEST PUSH2 0x22B0 DUP2 PUSH2 0x21FC JUMP JUMPDEST DUP2 EQ PUSH2 0x22BB JUMPI PUSH1 0x0 DUP1 REVERT JUMPDEST POP JUMP JUMPDEST PUSH2 0x22C7 DUP2 PUSH2 0x2228 JUMP JUMPDEST DUP2 EQ PUSH2 0x22D2 JUMPI PUSH1 0x0 DUP1 REVERT JUMPDEST POP JUMP INVALID LOG2 PUSH5 0x6970667358 0x22 SLT KECCAK256 REVERT 0xDE PUSH19 0x9FC2EFF198AB9DB23DA839A8B370A07C579FBD PUSH17 0xFE6067E2E522BA235264736F6C63430008 STOP STOP CALLER "
				},
				"gasEstimates": {
					"creation": {
						"codeDepositCost": "1794200",
						"executionCost": "infinite",
						"totalCost": "infinite"
					},
					"external": {
						"amount(address)": "1580",
						"amountReleased(address)": "1537",
						"beneficiaryCountLimit()": "1219",
						"beneficiaryList(uint256)": "2378",
						"getBeneficiaryCount()": "1256",
						"getReleasableAmount(address)": "infinite",
						"getVestingScheme()": "infinite",
						"isValidBeneficiary(address)": "1591",
						"minimumDurationInDays()": "1196",
						"owner()": "1311",
						"release(address,uint256)": "infinite",
						"renounceOwnership()": "24419",
						"setBeneficiaryAddressAndAmount(address,uint256)": "infinite",
						"setBeneficiaryCountLimit(uint256)": "21450",
						"setMinimumDurationInDays(uint256)": "21431",
						"setTokenReserveAddress(address)": "22285",
						"setVestingScheme(uint256,uint256,uint256)": "infinite",
						"tokenReserveAddress()": "1303",
						"transferOwnership(address)": "24811"
					},
					"internal": {
						"_getCurrentTime()": "22",
						"_getReleaseableAmount(address)": "infinite"
					}
				},
				"methodIdentifiers": {
					"amount(address)": "b9f0bf66",
					"amountReleased(address)": "6b51d347",
					"beneficiaryCountLimit()": "366340ca",
					"beneficiaryList(uint256)": "9e761bbb",
					"getBeneficiaryCount()": "9a6e7fd1",
					"getReleasableAmount(address)": "2afd1a7d",
					"getVestingScheme()": "66923995",
					"isValidBeneficiary(address)": "054cacaf",
					"minimumDurationInDays()": "59a075ec",
					"owner()": "8da5cb5b",
					"release(address,uint256)": "0357371d",
					"renounceOwnership()": "715018a6",
					"setBeneficiaryAddressAndAmount(address,uint256)": "9f79685e",
					"setBeneficiaryCountLimit(uint256)": "75de48ab",
					"setMinimumDurationInDays(uint256)": "566b041d",
					"setTokenReserveAddress(address)": "4a917a2f",
					"setVestingScheme(uint256,uint256,uint256)": "fc99d9a1",
					"tokenReserveAddress()": "65473fd2",
					"transferOwnership(address)": "f2fde38b"
				}
			},
			"storageLayout": {
				"storage": [
					{
						"astId": 542,
						"contract": "contract/tokenvesting.sol:TokenVesting",
						"label": "_owner",
						"offset": 0,
						"slot": "0",
						"type": "t_address"
					},
					{
						"astId": 44,
						"contract": "contract/tokenvesting.sol:TokenVesting",
						"label": "token",
						"offset": 0,
						"slot": "1",
						"type": "t_contract(IERC20)1303"
					},
					{
						"astId": 46,
						"contract": "contract/tokenvesting.sol:TokenVesting",
						"label": "startTimeUnix",
						"offset": 0,
						"slot": "2",
						"type": "t_uint256"
					},
					{
						"astId": 48,
						"contract": "contract/tokenvesting.sol:TokenVesting",
						"label": "durationInDays",
						"offset": 0,
						"slot": "3",
						"type": "t_uint256"
					},
					{
						"astId": 50,
						"contract": "contract/tokenvesting.sol:TokenVesting",
						"label": "releaseScheduleInMinutes",
						"offset": 0,
						"slot": "4",
						"type": "t_uint256"
					},
					{
						"astId": 52,
						"contract": "contract/tokenvesting.sol:TokenVesting",
						"label": "totalVestableAmount",
						"offset": 0,
						"slot": "5",
						"type": "t_uint256"
					},
					{
						"astId": 55,
						"contract": "contract/tokenvesting.sol:TokenVesting",
						"label": "beneficiaryList",
						"offset": 0,
						"slot": "6",
						"type": "t_array(t_address)dyn_storage"
					},
					{
						"astId": 59,
						"contract": "contract/tokenvesting.sol:TokenVesting",
						"label": "isValidBeneficiary",
						"offset": 0,
						"slot": "7",
						"type": "t_mapping(t_address,t_bool)"
					},
					{
						"astId": 63,
						"contract": "contract/tokenvesting.sol:TokenVesting",
						"label": "amount",
						"offset": 0,
						"slot": "8",
						"type": "t_mapping(t_address,t_uint256)"
					},
					{
						"astId": 67,
						"contract": "contract/tokenvesting.sol:TokenVesting",
						"label": "amountReleased",
						"offset": 0,
						"slot": "9",
						"type": "t_mapping(t_address,t_uint256)"
					},
					{
						"astId": 69,
						"contract": "contract/tokenvesting.sol:TokenVesting",
						"label": "beneficiaryCountLimit",
						"offset": 0,
						"slot": "10",
						"type": "t_uint256"
					},
					{
						"astId": 71,
						"contract": "contract/tokenvesting.sol:TokenVesting",
						"label": "minimumDurationInDays",
						"offset": 0,
						"slot": "11",
						"type": "t_uint256"
					},
					{
						"astId": 73,
						"contract": "contract/tokenvesting.sol:TokenVesting",
						"label": "tokenReserveAddress",
						"offset": 0,
						"slot": "12",
						"type": "t_address"
					}
				],
				"types": {
					"t_address": {
						"encoding": "inplace",
						"label": "address",
						"numberOfBytes": "20"
					},
					"t_array(t_address)dyn_storage": {
						"base": "t_address",
						"encoding": "dynamic_array",
						"label": "address[]",
						"numberOfBytes": "32"
					},
					"t_bool": {
						"encoding": "inplace",
						"label": "bool",
						"numberOfBytes": "1"
					},
					"t_contract(IERC20)1303": {
						"encoding": "inplace",
						"label": "contract IERC20",
						"numberOfBytes": "20"
					},
					"t_mapping(t_address,t_bool)": {
						"encoding": "mapping",
						"key": "t_address",
						"label": "mapping(address => bool)",
						"numberOfBytes": "32",
						"value": "t_bool"
					},
					"t_mapping(t_address,t_uint256)": {
						"encoding": "mapping",
						"key": "t_address",
						"label": "mapping(address => uint256)",
						"numberOfBytes": "32",
						"value": "t_uint256"
					},
					"t_uint256": {
						"encoding": "inplace",
						"label": "uint256",
						"numberOfBytes": "32"
					}
				}
			},
			"userdoc": {
				"kind": "user",
				"methods": {},
				"version": 1
			}
		}
	}
}