{
	"contract/tokenvesting.sol": {
		"TokenVesting": {
			"abi": [
				{
					"inputs": [
						{
							"internalType": "address",
							"name": "_token",
							"type": "address"
						}
					],
					"stateMutability": "nonpayable",
					"type": "constructor"
				},
				{
					"anonymous": false,
					"inputs": [
						{
							"indexed": true,
							"internalType": "address",
							"name": "previousOwner",
							"type": "address"
						},
						{
							"indexed": true,
							"internalType": "address",
							"name": "newOwner",
							"type": "address"
						}
					],
					"name": "OwnershipTransferred",
					"type": "event"
				},
				{
					"anonymous": false,
					"inputs": [
						{
							"components": [
								{
									"internalType": "address",
									"name": "beneficiary",
									"type": "address"
								},
								{
									"internalType": "uint256",
									"name": "startTime",
									"type": "uint256"
								},
								{
									"internalType": "uint256",
									"name": "duration",
									"type": "uint256"
								},
								{
									"internalType": "uint256",
									"name": "releaseSchedule",
									"type": "uint256"
								},
								{
									"internalType": "uint256",
									"name": "amount",
									"type": "uint256"
								},
								{
									"internalType": "uint256",
									"name": "tokensReleased",
									"type": "uint256"
								},
								{
									"internalType": "bool",
									"name": "isValid",
									"type": "bool"
								}
							],
							"indexed": false,
							"internalType": "struct TokenVesting.vestingScheme",
							"name": "",
							"type": "tuple"
						}
					],
					"name": "VestingSchemeCreation",
					"type": "event"
				},
				{
					"stateMutability": "payable",
					"type": "fallback"
				},
				{
					"inputs": [
						{
							"internalType": "address",
							"name": "_beneficiary",
							"type": "address"
						},
						{
							"internalType": "uint256",
							"name": "_startTime",
							"type": "uint256"
						},
						{
							"internalType": "uint256",
							"name": "_duration",
							"type": "uint256"
						},
						{
							"internalType": "uint256",
							"name": "_releaseSchedule",
							"type": "uint256"
						},
						{
							"internalType": "uint256",
							"name": "_amount",
							"type": "uint256"
						}
					],
					"name": "createVestingScheme",
					"outputs": [],
					"stateMutability": "nonpayable",
					"type": "function"
				},
				{
					"inputs": [],
					"name": "getBeneficiarySchemeCountLimit",
					"outputs": [
						{
							"internalType": "uint256",
							"name": "",
							"type": "uint256"
						}
					],
					"stateMutability": "view",
					"type": "function"
				},
				{
					"inputs": [],
					"name": "getSchemeCount",
					"outputs": [
						{
							"internalType": "uint256",
							"name": "",
							"type": "uint256"
						}
					],
					"stateMutability": "view",
					"type": "function"
				},
				{
					"inputs": [],
					"name": "getSchemeCountLimit",
					"outputs": [
						{
							"internalType": "uint256",
							"name": "",
							"type": "uint256"
						}
					],
					"stateMutability": "view",
					"type": "function"
				},
				{
					"inputs": [
						{
							"internalType": "address",
							"name": "_beneficiary",
							"type": "address"
						}
					],
					"name": "getSchemeIdsByBeneficiary",
					"outputs": [
						{
							"internalType": "uint256[]",
							"name": "",
							"type": "uint256[]"
						}
					],
					"stateMutability": "view",
					"type": "function"
				},
				{
					"inputs": [
						{
							"internalType": "uint256",
							"name": "_schemeId",
							"type": "uint256"
						}
					],
					"name": "getUnvestedAmountById",
					"outputs": [
						{
							"internalType": "uint256",
							"name": "",
							"type": "uint256"
						}
					],
					"stateMutability": "view",
					"type": "function"
				},
				{
					"inputs": [
						{
							"internalType": "uint256",
							"name": "_schemeId",
							"type": "uint256"
						}
					],
					"name": "getVestingSchemeById",
					"outputs": [
						{
							"components": [
								{
									"internalType": "address",
									"name": "beneficiary",
									"type": "address"
								},
								{
									"internalType": "uint256",
									"name": "startTime",
									"type": "uint256"
								},
								{
									"internalType": "uint256",
									"name": "duration",
									"type": "uint256"
								},
								{
									"internalType": "uint256",
									"name": "releaseSchedule",
									"type": "uint256"
								},
								{
									"internalType": "uint256",
									"name": "amount",
									"type": "uint256"
								},
								{
									"internalType": "uint256",
									"name": "tokensReleased",
									"type": "uint256"
								},
								{
									"internalType": "bool",
									"name": "isValid",
									"type": "bool"
								}
							],
							"internalType": "struct TokenVesting.vestingScheme",
							"name": "",
							"type": "tuple"
						}
					],
					"stateMutability": "view",
					"type": "function"
				},
				{
					"inputs": [],
					"name": "owner",
					"outputs": [
						{
							"internalType": "address",
							"name": "",
							"type": "address"
						}
					],
					"stateMutability": "view",
					"type": "function"
				},
				{
					"inputs": [
						{
							"internalType": "uint256",
							"name": "_schemeId",
							"type": "uint256"
						},
						{
							"internalType": "uint256",
							"name": "_amount",
							"type": "uint256"
						}
					],
					"name": "releaseTokens",
					"outputs": [],
					"stateMutability": "nonpayable",
					"type": "function"
				},
				{
					"inputs": [],
					"name": "renounceOwnership",
					"outputs": [],
					"stateMutability": "nonpayable",
					"type": "function"
				},
				{
					"inputs": [
						{
							"internalType": "uint256",
							"name": "_beneficiarySchemeCountLimit",
							"type": "uint256"
						}
					],
					"name": "setBeneficiarySchemeCountLimit",
					"outputs": [],
					"stateMutability": "nonpayable",
					"type": "function"
				},
				{
					"inputs": [
						{
							"internalType": "uint256",
							"name": "_schemeCountLimit",
							"type": "uint256"
						}
					],
					"name": "setSchemeCountLimit",
					"outputs": [],
					"stateMutability": "nonpayable",
					"type": "function"
				},
				{
					"inputs": [
						{
							"internalType": "address",
							"name": "newOwner",
							"type": "address"
						}
					],
					"name": "transferOwnership",
					"outputs": [],
					"stateMutability": "nonpayable",
					"type": "function"
				},
				{
					"stateMutability": "payable",
					"type": "receive"
				}
			],
			"devdoc": {
				"kind": "dev",
				"methods": {
					"owner()": {
						"details": "Returns the address of the current owner."
					},
					"renounceOwnership()": {
						"details": "Leaves the contract without owner. It will not be possible to call `onlyOwner` functions anymore. Can only be called by the current owner. NOTE: Renouncing ownership will leave the contract without an owner, thereby removing any functionality that is only available to the owner."
					},
					"transferOwnership(address)": {
						"details": "Transfers ownership of the contract to a new account (`newOwner`). Can only be called by the current owner."
					}
				},
				"version": 1
			},
			"evm": {
				"assembly": "    /* \"contract/tokenvesting.sol\":522:5337  contract TokenVesting is Ownable {\r... */\n  mstore(0x40, 0x80)\n    /* \"contract/tokenvesting.sol\":1302:1471  constructor (address _token) notZeroAddress (_token) {\r... */\n  callvalue\n  dup1\n  iszero\n  tag_1\n  jumpi\n  0x00\n  dup1\n  revert\ntag_1:\n  pop\n  mload(0x40)\n  sub(codesize, bytecodeSize)\n  dup1\n  bytecodeSize\n  dup4\n  codecopy\n  dup2\n  dup2\n  add\n  0x40\n  mstore\n  dup2\n  add\n  swap1\n  tag_2\n  swap2\n  swap1\n  tag_3\n  jump\t// in\ntag_2:\n    /* \"https://github.com/OpenZeppelin/openzeppelin-contracts/blob/master/contracts/access/Ownable.sol\":921:953  _transferOwnership(_msgSender()) */\n  tag_7\n    /* \"https://github.com/OpenZeppelin/openzeppelin-contracts/blob/master/contracts/access/Ownable.sol\":940:952  _msgSender() */\n  tag_8\n    /* \"https://github.com/OpenZeppelin/openzeppelin-contracts/blob/master/contracts/access/Ownable.sol\":940:950  _msgSender */\n  shl(0x20, tag_9)\n    /* \"https://github.com/OpenZeppelin/openzeppelin-contracts/blob/master/contracts/access/Ownable.sol\":940:952  _msgSender() */\n  0x20\n  shr\n  jump\t// in\ntag_8:\n    /* \"https://github.com/OpenZeppelin/openzeppelin-contracts/blob/master/contracts/access/Ownable.sol\":921:939  _transferOwnership */\n  shl(0x20, tag_10)\n    /* \"https://github.com/OpenZeppelin/openzeppelin-contracts/blob/master/contracts/access/Ownable.sol\":921:953  _transferOwnership(_msgSender()) */\n  0x20\n  shr\n  jump\t// in\ntag_7:\n    /* \"contract/tokenvesting.sol\":1347:1353  _token */\n  dup1\n    /* \"contract/tokenvesting.sol\":1271:1272  0 */\n  0x00\n    /* \"contract/tokenvesting.sol\":1253:1273  _token != address(0) */\n  0xffffffffffffffffffffffffffffffffffffffff\n  and\n    /* \"contract/tokenvesting.sol\":1253:1259  _token */\n  dup2\n    /* \"contract/tokenvesting.sol\":1253:1273  _token != address(0) */\n  0xffffffffffffffffffffffffffffffffffffffff\n  and\n  eq\n  iszero\n    /* \"contract/tokenvesting.sol\":1244:1274  require (_token != address(0)) */\n  tag_12\n  jumpi\n  0x00\n  dup1\n  revert\ntag_12:\n    /* \"contract/tokenvesting.sol\":1382:1388  _token */\n  dup2\n    /* \"contract/tokenvesting.sol\":1366:1371  token */\n  0x01\n  0x00\n    /* \"contract/tokenvesting.sol\":1366:1389  token = IERC20 (_token) */\n  0x0100\n  exp\n  dup2\n  sload\n  dup2\n  0xffffffffffffffffffffffffffffffffffffffff\n  mul\n  not\n  and\n  swap1\n  dup4\n  0xffffffffffffffffffffffffffffffffffffffff\n  and\n  mul\n  or\n  swap1\n  sstore\n  pop\n    /* \"contract/tokenvesting.sol\":1419:1421  10 */\n  0x0a\n    /* \"contract/tokenvesting.sol\":1400:1416  schemeCountLimit */\n  0x03\n    /* \"contract/tokenvesting.sol\":1400:1421  schemeCountLimit = 10 */\n  dup2\n  swap1\n  sstore\n  pop\n    /* \"contract/tokenvesting.sol\":1462:1463  1 */\n  0x01\n    /* \"contract/tokenvesting.sol\":1432:1459  beneficiarySchemeCountLimit */\n  0x05\n    /* \"contract/tokenvesting.sol\":1432:1463  beneficiarySchemeCountLimit = 1 */\n  dup2\n  swap1\n  sstore\n  pop\n    /* \"contract/tokenvesting.sol\":1302:1471  constructor (address _token) notZeroAddress (_token) {\r... */\n  pop\n  pop\n    /* \"contract/tokenvesting.sol\":522:5337  contract TokenVesting is Ownable {\r... */\n  jump(tag_14)\n    /* \"https://github.com/OpenZeppelin/openzeppelin-contracts/blob/master/contracts/utils/Context.sol\":640:736  function _msgSender() internal view virtual returns (address) {... */\ntag_9:\n    /* \"https://github.com/OpenZeppelin/openzeppelin-contracts/blob/master/contracts/utils/Context.sol\":693:700  address */\n  0x00\n    /* \"https://github.com/OpenZeppelin/openzeppelin-contracts/blob/master/contracts/utils/Context.sol\":719:729  msg.sender */\n  caller\n    /* \"https://github.com/OpenZeppelin/openzeppelin-contracts/blob/master/contracts/utils/Context.sol\":712:729  return msg.sender */\n  swap1\n  pop\n    /* \"https://github.com/OpenZeppelin/openzeppelin-contracts/blob/master/contracts/utils/Context.sol\":640:736  function _msgSender() internal view virtual returns (address) {... */\n  swap1\n  jump\t// out\n    /* \"https://github.com/OpenZeppelin/openzeppelin-contracts/blob/master/contracts/access/Ownable.sol\":2270:2457  function _transferOwnership(address newOwner) internal virtual {... */\ntag_10:\n    /* \"https://github.com/OpenZeppelin/openzeppelin-contracts/blob/master/contracts/access/Ownable.sol\":2343:2359  address oldOwner */\n  0x00\n    /* \"https://github.com/OpenZeppelin/openzeppelin-contracts/blob/master/contracts/access/Ownable.sol\":2362:2368  _owner */\n  dup1\n  0x00\n  swap1\n  sload\n  swap1\n  0x0100\n  exp\n  swap1\n  div\n  0xffffffffffffffffffffffffffffffffffffffff\n  and\n    /* \"https://github.com/OpenZeppelin/openzeppelin-contracts/blob/master/contracts/access/Ownable.sol\":2343:2368  address oldOwner = _owner */\n  swap1\n  pop\n    /* \"https://github.com/OpenZeppelin/openzeppelin-contracts/blob/master/contracts/access/Ownable.sol\":2387:2395  newOwner */\n  dup2\n    /* \"https://github.com/OpenZeppelin/openzeppelin-contracts/blob/master/contracts/access/Ownable.sol\":2378:2384  _owner */\n  0x00\n  dup1\n    /* \"https://github.com/OpenZeppelin/openzeppelin-contracts/blob/master/contracts/access/Ownable.sol\":2378:2395  _owner = newOwner */\n  0x0100\n  exp\n  dup2\n  sload\n  dup2\n  0xffffffffffffffffffffffffffffffffffffffff\n  mul\n  not\n  and\n  swap1\n  dup4\n  0xffffffffffffffffffffffffffffffffffffffff\n  and\n  mul\n  or\n  swap1\n  sstore\n  pop\n    /* \"https://github.com/OpenZeppelin/openzeppelin-contracts/blob/master/contracts/access/Ownable.sol\":2441:2449  newOwner */\n  dup2\n    /* \"https://github.com/OpenZeppelin/openzeppelin-contracts/blob/master/contracts/access/Ownable.sol\":2410:2450  OwnershipTransferred(oldOwner, newOwner) */\n  0xffffffffffffffffffffffffffffffffffffffff\n  and\n    /* \"https://github.com/OpenZeppelin/openzeppelin-contracts/blob/master/contracts/access/Ownable.sol\":2431:2439  oldOwner */\n  dup2\n    /* \"https://github.com/OpenZeppelin/openzeppelin-contracts/blob/master/contracts/access/Ownable.sol\":2410:2450  OwnershipTransferred(oldOwner, newOwner) */\n  0xffffffffffffffffffffffffffffffffffffffff\n  and\n  0x8be0079c531659141344cd1fd0a4f28419497f9722a3daafe3b4186f6b6457e0\n  mload(0x40)\n  mload(0x40)\n  dup1\n  swap2\n  sub\n  swap1\n  log3\n    /* \"https://github.com/OpenZeppelin/openzeppelin-contracts/blob/master/contracts/access/Ownable.sol\":2270:2457  function _transferOwnership(address newOwner) internal virtual {... */\n  pop\n  pop\n  jump\t// out\n    /* \"#utility.yul\":7:150   */\ntag_18:\n  0x00\n    /* \"#utility.yul\":95:101   */\n  dup2\n    /* \"#utility.yul\":89:102   */\n  mload\n    /* \"#utility.yul\":80:102   */\n  swap1\n  pop\n    /* \"#utility.yul\":111:144   */\n  tag_20\n    /* \"#utility.yul\":138:143   */\n  dup2\n    /* \"#utility.yul\":111:144   */\n  tag_21\n  jump\t// in\ntag_20:\n    /* \"#utility.yul\":70:150   */\n  swap3\n  swap2\n  pop\n  pop\n  jump\t// out\n    /* \"#utility.yul\":156:440   */\ntag_3:\n  0x00\n    /* \"#utility.yul\":275:277   */\n  0x20\n    /* \"#utility.yul\":263:272   */\n  dup3\n    /* \"#utility.yul\":254:261   */\n  dup5\n    /* \"#utility.yul\":250:273   */\n  sub\n    /* \"#utility.yul\":246:278   */\n  slt\n    /* \"#utility.yul\":243:245   */\n  iszero\n  tag_23\n  jumpi\n    /* \"#utility.yul\":291:292   */\n  0x00\n    /* \"#utility.yul\":288:289   */\n  dup1\n    /* \"#utility.yul\":281:293   */\n  revert\n    /* \"#utility.yul\":243:245   */\ntag_23:\n    /* \"#utility.yul\":334:335   */\n  0x00\n    /* \"#utility.yul\":359:423   */\n  tag_24\n    /* \"#utility.yul\":415:422   */\n  dup5\n    /* \"#utility.yul\":406:412   */\n  dup3\n    /* \"#utility.yul\":395:404   */\n  dup6\n    /* \"#utility.yul\":391:413   */\n  add\n    /* \"#utility.yul\":359:423   */\n  tag_18\n  jump\t// in\ntag_24:\n    /* \"#utility.yul\":349:423   */\n  swap2\n  pop\n    /* \"#utility.yul\":305:433   */\n  pop\n    /* \"#utility.yul\":233:440   */\n  swap3\n  swap2\n  pop\n  pop\n  jump\t// out\n    /* \"#utility.yul\":446:542   */\ntag_25:\n  0x00\n    /* \"#utility.yul\":512:536   */\n  tag_27\n    /* \"#utility.yul\":530:535   */\n  dup3\n    /* \"#utility.yul\":512:536   */\n  tag_28\n  jump\t// in\ntag_27:\n    /* \"#utility.yul\":501:536   */\n  swap1\n  pop\n    /* \"#utility.yul\":491:542   */\n  swap2\n  swap1\n  pop\n  jump\t// out\n    /* \"#utility.yul\":548:674   */\ntag_28:\n  0x00\n    /* \"#utility.yul\":625:667   */\n  0xffffffffffffffffffffffffffffffffffffffff\n    /* \"#utility.yul\":618:623   */\n  dup3\n    /* \"#utility.yul\":614:668   */\n  and\n    /* \"#utility.yul\":603:668   */\n  swap1\n  pop\n    /* \"#utility.yul\":593:674   */\n  swap2\n  swap1\n  pop\n  jump\t// out\n    /* \"#utility.yul\":680:802   */\ntag_21:\n    /* \"#utility.yul\":753:777   */\n  tag_31\n    /* \"#utility.yul\":771:776   */\n  dup2\n    /* \"#utility.yul\":753:777   */\n  tag_25\n  jump\t// in\ntag_31:\n    /* \"#utility.yul\":746:751   */\n  dup2\n    /* \"#utility.yul\":743:778   */\n  eq\n    /* \"#utility.yul\":733:735   */\n  tag_32\n  jumpi\n    /* \"#utility.yul\":792:793   */\n  0x00\n    /* \"#utility.yul\":789:790   */\n  dup1\n    /* \"#utility.yul\":782:794   */\n  revert\n    /* \"#utility.yul\":733:735   */\ntag_32:\n    /* \"#utility.yul\":723:802   */\n  pop\n  jump\t// out\n    /* \"contract/tokenvesting.sol\":522:5337  contract TokenVesting is Ownable {\r... */\ntag_14:\n  dataSize(sub_0)\n  dup1\n  dataOffset(sub_0)\n  0x00\n  codecopy\n  0x00\n  return\nstop\n\nsub_0: assembly {\n        /* \"contract/tokenvesting.sol\":522:5337  contract TokenVesting is Ownable {\r... */\n      mstore(0x40, 0x80)\n      jumpi(tag_1, lt(calldatasize, 0x04))\n      shr(0xe0, calldataload(0x00))\n      dup1\n      0x78651b42\n      gt\n      tag_16\n      jumpi\n      dup1\n      0x9c42ad76\n      gt\n      tag_17\n      jumpi\n      dup1\n      0x9c42ad76\n      eq\n      tag_12\n      jumpi\n      dup1\n      0xc93a7f6e\n      eq\n      tag_13\n      jumpi\n      dup1\n      0xdecb4abc\n      eq\n      tag_14\n      jumpi\n      dup1\n      0xf2fde38b\n      eq\n      tag_15\n      jumpi\n      jump(tag_2)\n    tag_17:\n      dup1\n      0x78651b42\n      eq\n      tag_9\n      jumpi\n      dup1\n      0x8446464e\n      eq\n      tag_10\n      jumpi\n      dup1\n      0x8da5cb5b\n      eq\n      tag_11\n      jumpi\n      jump(tag_2)\n    tag_16:\n      dup1\n      0x110809c7\n      eq\n      tag_3\n      jumpi\n      dup1\n      0x11e1512d\n      eq\n      tag_4\n      jumpi\n      dup1\n      0x1a360f35\n      eq\n      tag_5\n      jumpi\n      dup1\n      0x3cfde549\n      eq\n      tag_6\n      jumpi\n      dup1\n      0x3f4dd268\n      eq\n      tag_7\n      jumpi\n      dup1\n      0x715018a6\n      eq\n      tag_8\n      jumpi\n      jump(tag_2)\n    tag_1:\n      jumpi(tag_2, calldatasize)\n      stop\n    tag_2:\n      stop\n        /* \"contract/tokenvesting.sol\":2914:3039  function setSchemeCountLimit (uint _schemeCountLimit) public onlyOwner{\r... */\n    tag_3:\n      callvalue\n      dup1\n      iszero\n      tag_22\n      jumpi\n      0x00\n      dup1\n      revert\n    tag_22:\n      pop\n      tag_23\n      0x04\n      dup1\n      calldatasize\n      sub\n      dup2\n      add\n      swap1\n      tag_24\n      swap2\n      swap1\n      tag_25\n      jump\t// in\n    tag_24:\n      tag_26\n      jump\t// in\n    tag_23:\n      stop\n        /* \"contract/tokenvesting.sol\":3047:3217  function setBeneficiarySchemeCountLimit (uint _beneficiarySchemeCountLimit) public onlyOwner {\r... */\n    tag_4:\n      callvalue\n      dup1\n      iszero\n      tag_27\n      jumpi\n      0x00\n      dup1\n      revert\n    tag_27:\n      pop\n      tag_28\n      0x04\n      dup1\n      calldatasize\n      sub\n      dup2\n      add\n      swap1\n      tag_29\n      swap2\n      swap1\n      tag_25\n      jump\t// in\n    tag_29:\n      tag_30\n      jump\t// in\n    tag_28:\n      stop\n        /* \"contract/tokenvesting.sol\":2695:2801  function getSchemeCountLimit () external view returns (uint256) {\r... */\n    tag_5:\n      callvalue\n      dup1\n      iszero\n      tag_31\n      jumpi\n      0x00\n      dup1\n      revert\n    tag_31:\n      pop\n      tag_32\n      tag_33\n      jump\t// in\n    tag_32:\n      mload(0x40)\n      tag_34\n      swap2\n      swap1\n      tag_35\n      jump\t// in\n    tag_34:\n      mload(0x40)\n      dup1\n      swap2\n      sub\n      swap1\n      return\n        /* \"contract/tokenvesting.sol\":2057:2216  function getSchemeIdsByBeneficiary (address _beneficiary) external view returns (uint256[] memory) {\r... */\n    tag_6:\n      callvalue\n      dup1\n      iszero\n      tag_36\n      jumpi\n      0x00\n      dup1\n      revert\n    tag_36:\n      pop\n      tag_37\n      0x04\n      dup1\n      calldatasize\n      sub\n      dup2\n      add\n      swap1\n      tag_38\n      swap2\n      swap1\n      tag_39\n      jump\t// in\n    tag_38:\n      tag_40\n      jump\t// in\n    tag_37:\n      mload(0x40)\n      tag_41\n      swap2\n      swap1\n      tag_42\n      jump\t// in\n    tag_41:\n      mload(0x40)\n      dup1\n      swap2\n      sub\n      swap1\n      return\n        /* \"contract/tokenvesting.sol\":4341:5020  function releaseTokens (\r... */\n    tag_7:\n      callvalue\n      dup1\n      iszero\n      tag_43\n      jumpi\n      0x00\n      dup1\n      revert\n    tag_43:\n      pop\n      tag_44\n      0x04\n      dup1\n      calldatasize\n      sub\n      dup2\n      add\n      swap1\n      tag_45\n      swap2\n      swap1\n      tag_46\n      jump\t// in\n    tag_45:\n      tag_47\n      jump\t// in\n    tag_44:\n      stop\n        /* \"https://github.com/OpenZeppelin/openzeppelin-contracts/blob/master/contracts/access/Ownable.sol\":1668:1769  function renounceOwnership() public virtual onlyOwner {... */\n    tag_8:\n      callvalue\n      dup1\n      iszero\n      tag_48\n      jumpi\n      0x00\n      dup1\n      revert\n    tag_48:\n      pop\n      tag_49\n      tag_50\n      jump\t// in\n    tag_49:\n      stop\n        /* \"contract/tokenvesting.sol\":2809:2905  function getSchemeCount () external view returns (uint256) {\r... */\n    tag_9:\n      callvalue\n      dup1\n      iszero\n      tag_51\n      jumpi\n      0x00\n      dup1\n      revert\n    tag_51:\n      pop\n      tag_52\n      tag_53\n      jump\t// in\n    tag_52:\n      mload(0x40)\n      tag_54\n      swap2\n      swap1\n      tag_35\n      jump\t// in\n    tag_54:\n      mload(0x40)\n      dup1\n      swap2\n      sub\n      swap1\n      return\n        /* \"contract/tokenvesting.sol\":3225:4333  function createVestingScheme (\r... */\n    tag_10:\n      callvalue\n      dup1\n      iszero\n      tag_55\n      jumpi\n      0x00\n      dup1\n      revert\n    tag_55:\n      pop\n      tag_56\n      0x04\n      dup1\n      calldatasize\n      sub\n      dup2\n      add\n      swap1\n      tag_57\n      swap2\n      swap1\n      tag_58\n      jump\t// in\n    tag_57:\n      tag_59\n      jump\t// in\n    tag_56:\n      stop\n        /* \"https://github.com/OpenZeppelin/openzeppelin-contracts/blob/master/contracts/access/Ownable.sol\":1036:1121  function owner() public view virtual returns (address) {... */\n    tag_11:\n      callvalue\n      dup1\n      iszero\n      tag_60\n      jumpi\n      0x00\n      dup1\n      revert\n    tag_60:\n      pop\n      tag_61\n      tag_62\n      jump\t// in\n    tag_61:\n      mload(0x40)\n      tag_63\n      swap2\n      swap1\n      tag_64\n      jump\t// in\n    tag_63:\n      mload(0x40)\n      dup1\n      swap2\n      sub\n      swap1\n      return\n        /* \"contract/tokenvesting.sol\":2224:2687  function getUnvestedAmountById (uint256 _schemeId) external view returns (uint256) {\r... */\n    tag_12:\n      callvalue\n      dup1\n      iszero\n      tag_65\n      jumpi\n      0x00\n      dup1\n      revert\n    tag_65:\n      pop\n      tag_66\n      0x04\n      dup1\n      calldatasize\n      sub\n      dup2\n      add\n      swap1\n      tag_67\n      swap2\n      swap1\n      tag_25\n      jump\t// in\n    tag_67:\n      tag_68\n      jump\t// in\n    tag_66:\n      mload(0x40)\n      tag_69\n      swap2\n      swap1\n      tag_35\n      jump\t// in\n    tag_69:\n      mload(0x40)\n      dup1\n      swap2\n      sub\n      swap1\n      return\n        /* \"contract/tokenvesting.sol\":1921:2049  function getBeneficiarySchemeCountLimit () external view returns (uint256) {\r... */\n    tag_13:\n      callvalue\n      dup1\n      iszero\n      tag_70\n      jumpi\n      0x00\n      dup1\n      revert\n    tag_70:\n      pop\n      tag_71\n      tag_72\n      jump\t// in\n    tag_71:\n      mload(0x40)\n      tag_73\n      swap2\n      swap1\n      tag_35\n      jump\t// in\n    tag_73:\n      mload(0x40)\n      dup1\n      swap2\n      sub\n      swap1\n      return\n        /* \"contract/tokenvesting.sol\":1554:1913  function getVestingSchemeById (uint _schemeId) \r... */\n    tag_14:\n      callvalue\n      dup1\n      iszero\n      tag_74\n      jumpi\n      0x00\n      dup1\n      revert\n    tag_74:\n      pop\n      tag_75\n      0x04\n      dup1\n      calldatasize\n      sub\n      dup2\n      add\n      swap1\n      tag_76\n      swap2\n      swap1\n      tag_25\n      jump\t// in\n    tag_76:\n      tag_77\n      jump\t// in\n    tag_75:\n      mload(0x40)\n      tag_78\n      swap2\n      swap1\n      tag_79\n      jump\t// in\n    tag_78:\n      mload(0x40)\n      dup1\n      swap2\n      sub\n      swap1\n      return\n        /* \"https://github.com/OpenZeppelin/openzeppelin-contracts/blob/master/contracts/access/Ownable.sol\":1918:2116  function transferOwnership(address newOwner) public virtual onlyOwner {... */\n    tag_15:\n      callvalue\n      dup1\n      iszero\n      tag_80\n      jumpi\n      0x00\n      dup1\n      revert\n    tag_80:\n      pop\n      tag_81\n      0x04\n      dup1\n      calldatasize\n      sub\n      dup2\n      add\n      swap1\n      tag_82\n      swap2\n      swap1\n      tag_39\n      jump\t// in\n    tag_82:\n      tag_83\n      jump\t// in\n    tag_81:\n      stop\n        /* \"contract/tokenvesting.sol\":2914:3039  function setSchemeCountLimit (uint _schemeCountLimit) public onlyOwner{\r... */\n    tag_26:\n        /* \"https://github.com/OpenZeppelin/openzeppelin-contracts/blob/master/contracts/access/Ownable.sol\":1259:1271  _msgSender() */\n      tag_85\n        /* \"https://github.com/OpenZeppelin/openzeppelin-contracts/blob/master/contracts/access/Ownable.sol\":1259:1269  _msgSender */\n      tag_86\n        /* \"https://github.com/OpenZeppelin/openzeppelin-contracts/blob/master/contracts/access/Ownable.sol\":1259:1271  _msgSender() */\n      jump\t// in\n    tag_85:\n        /* \"https://github.com/OpenZeppelin/openzeppelin-contracts/blob/master/contracts/access/Ownable.sol\":1248:1271  owner() == _msgSender() */\n      0xffffffffffffffffffffffffffffffffffffffff\n      and\n        /* \"https://github.com/OpenZeppelin/openzeppelin-contracts/blob/master/contracts/access/Ownable.sol\":1248:1255  owner() */\n      tag_87\n        /* \"https://github.com/OpenZeppelin/openzeppelin-contracts/blob/master/contracts/access/Ownable.sol\":1248:1253  owner */\n      tag_62\n        /* \"https://github.com/OpenZeppelin/openzeppelin-contracts/blob/master/contracts/access/Ownable.sol\":1248:1255  owner() */\n      jump\t// in\n    tag_87:\n        /* \"https://github.com/OpenZeppelin/openzeppelin-contracts/blob/master/contracts/access/Ownable.sol\":1248:1271  owner() == _msgSender() */\n      0xffffffffffffffffffffffffffffffffffffffff\n      and\n      eq\n        /* \"https://github.com/OpenZeppelin/openzeppelin-contracts/blob/master/contracts/access/Ownable.sol\":1240:1308  require(owner() == _msgSender(), \"Ownable: caller is not the owner\") */\n      tag_88\n      jumpi\n      mload(0x40)\n      0x08c379a000000000000000000000000000000000000000000000000000000000\n      dup2\n      mstore\n      0x04\n      add\n      tag_89\n      swap1\n      tag_90\n      jump\t// in\n    tag_89:\n      mload(0x40)\n      dup1\n      swap2\n      sub\n      swap1\n      revert\n    tag_88:\n        /* \"contract/tokenvesting.sol\":3014:3031  _schemeCountLimit */\n      dup1\n        /* \"contract/tokenvesting.sol\":2995:3011  schemeCountLimit */\n      0x03\n        /* \"contract/tokenvesting.sol\":2995:3031  schemeCountLimit = _schemeCountLimit */\n      dup2\n      swap1\n      sstore\n      pop\n        /* \"contract/tokenvesting.sol\":2914:3039  function setSchemeCountLimit (uint _schemeCountLimit) public onlyOwner{\r... */\n      pop\n      jump\t// out\n        /* \"contract/tokenvesting.sol\":3047:3217  function setBeneficiarySchemeCountLimit (uint _beneficiarySchemeCountLimit) public onlyOwner {\r... */\n    tag_30:\n        /* \"https://github.com/OpenZeppelin/openzeppelin-contracts/blob/master/contracts/access/Ownable.sol\":1259:1271  _msgSender() */\n      tag_93\n        /* \"https://github.com/OpenZeppelin/openzeppelin-contracts/blob/master/contracts/access/Ownable.sol\":1259:1269  _msgSender */\n      tag_86\n        /* \"https://github.com/OpenZeppelin/openzeppelin-contracts/blob/master/contracts/access/Ownable.sol\":1259:1271  _msgSender() */\n      jump\t// in\n    tag_93:\n        /* \"https://github.com/OpenZeppelin/openzeppelin-contracts/blob/master/contracts/access/Ownable.sol\":1248:1271  owner() == _msgSender() */\n      0xffffffffffffffffffffffffffffffffffffffff\n      and\n        /* \"https://github.com/OpenZeppelin/openzeppelin-contracts/blob/master/contracts/access/Ownable.sol\":1248:1255  owner() */\n      tag_94\n        /* \"https://github.com/OpenZeppelin/openzeppelin-contracts/blob/master/contracts/access/Ownable.sol\":1248:1253  owner */\n      tag_62\n        /* \"https://github.com/OpenZeppelin/openzeppelin-contracts/blob/master/contracts/access/Ownable.sol\":1248:1255  owner() */\n      jump\t// in\n    tag_94:\n        /* \"https://github.com/OpenZeppelin/openzeppelin-contracts/blob/master/contracts/access/Ownable.sol\":1248:1271  owner() == _msgSender() */\n      0xffffffffffffffffffffffffffffffffffffffff\n      and\n      eq\n        /* \"https://github.com/OpenZeppelin/openzeppelin-contracts/blob/master/contracts/access/Ownable.sol\":1240:1308  require(owner() == _msgSender(), \"Ownable: caller is not the owner\") */\n      tag_95\n      jumpi\n      mload(0x40)\n      0x08c379a000000000000000000000000000000000000000000000000000000000\n      dup2\n      mstore\n      0x04\n      add\n      tag_96\n      swap1\n      tag_90\n      jump\t// in\n    tag_96:\n      mload(0x40)\n      dup1\n      swap2\n      sub\n      swap1\n      revert\n    tag_95:\n        /* \"contract/tokenvesting.sol\":3181:3209  _beneficiarySchemeCountLimit */\n      dup1\n        /* \"contract/tokenvesting.sol\":3151:3178  beneficiarySchemeCountLimit */\n      0x05\n        /* \"contract/tokenvesting.sol\":3151:3209  beneficiarySchemeCountLimit = _beneficiarySchemeCountLimit */\n      dup2\n      swap1\n      sstore\n      pop\n        /* \"contract/tokenvesting.sol\":3047:3217  function setBeneficiarySchemeCountLimit (uint _beneficiarySchemeCountLimit) public onlyOwner {\r... */\n      pop\n      jump\t// out\n        /* \"contract/tokenvesting.sol\":2695:2801  function getSchemeCountLimit () external view returns (uint256) {\r... */\n    tag_33:\n        /* \"contract/tokenvesting.sol\":2750:2757  uint256 */\n      0x00\n        /* \"contract/tokenvesting.sol\":2777:2793  schemeCountLimit */\n      sload(0x03)\n        /* \"contract/tokenvesting.sol\":2770:2793  return schemeCountLimit */\n      swap1\n      pop\n        /* \"contract/tokenvesting.sol\":2695:2801  function getSchemeCountLimit () external view returns (uint256) {\r... */\n      swap1\n      jump\t// out\n        /* \"contract/tokenvesting.sol\":2057:2216  function getSchemeIdsByBeneficiary (address _beneficiary) external view returns (uint256[] memory) {\r... */\n    tag_40:\n        /* \"contract/tokenvesting.sol\":2138:2154  uint256[] memory */\n      0x60\n        /* \"contract/tokenvesting.sol\":2174:2194  beneficiarySchemeIds */\n      0x07\n        /* \"contract/tokenvesting.sol\":2174:2208  beneficiarySchemeIds[_beneficiary] */\n      0x00\n        /* \"contract/tokenvesting.sol\":2195:2207  _beneficiary */\n      dup4\n        /* \"contract/tokenvesting.sol\":2174:2208  beneficiarySchemeIds[_beneficiary] */\n      0xffffffffffffffffffffffffffffffffffffffff\n      and\n      0xffffffffffffffffffffffffffffffffffffffff\n      and\n      dup2\n      mstore\n      0x20\n      add\n      swap1\n      dup2\n      mstore\n      0x20\n      add\n      0x00\n      keccak256\n        /* \"contract/tokenvesting.sol\":2167:2208  return beneficiarySchemeIds[_beneficiary] */\n      dup1\n      sload\n      dup1\n      0x20\n      mul\n      0x20\n      add\n      mload(0x40)\n      swap1\n      dup2\n      add\n      0x40\n      mstore\n      dup1\n      swap3\n      swap2\n      swap1\n      dup2\n      dup2\n      mstore\n      0x20\n      add\n      dup3\n      dup1\n      sload\n      dup1\n      iszero\n      tag_100\n      jumpi\n      0x20\n      mul\n      dup3\n      add\n      swap2\n      swap1\n      0x00\n      mstore\n      keccak256(0x00, 0x20)\n      swap1\n    tag_101:\n      dup2\n      sload\n      dup2\n      mstore\n      0x20\n      add\n      swap1\n      0x01\n      add\n      swap1\n      dup1\n      dup4\n      gt\n      tag_101\n      jumpi\n    tag_100:\n      pop\n      pop\n      pop\n      pop\n      pop\n      swap1\n      pop\n        /* \"contract/tokenvesting.sol\":2057:2216  function getSchemeIdsByBeneficiary (address _beneficiary) external view returns (uint256[] memory) {\r... */\n      swap2\n      swap1\n      pop\n      jump\t// out\n        /* \"contract/tokenvesting.sol\":4341:5020  function releaseTokens (\r... */\n    tag_47:\n        /* \"contract/tokenvesting.sol\":4488:4492  true */\n      0x01\n        /* \"contract/tokenvesting.sol\":4459:4492  schemes[schemeId].isValid == true */\n      iszero\n      iszero\n        /* \"contract/tokenvesting.sol\":4459:4466  schemes */\n      0x06\n        /* \"contract/tokenvesting.sol\":4459:4476  schemes[schemeId] */\n      0x00\n        /* \"contract/tokenvesting.sol\":4467:4475  schemeId */\n      sload(0x02)\n        /* \"contract/tokenvesting.sol\":4459:4476  schemes[schemeId] */\n      dup2\n      mstore\n      0x20\n      add\n      swap1\n      dup2\n      mstore\n      0x20\n      add\n      0x00\n      keccak256\n        /* \"contract/tokenvesting.sol\":4459:4484  schemes[schemeId].isValid */\n      0x06\n      add\n      0x00\n      swap1\n      sload\n      swap1\n      0x0100\n      exp\n      swap1\n      div\n      0xff\n      and\n        /* \"contract/tokenvesting.sol\":4459:4492  schemes[schemeId].isValid == true */\n      iszero\n      iszero\n      eq\n        /* \"contract/tokenvesting.sol\":4450:4493  require (schemes[schemeId].isValid == true) */\n      tag_103\n      jumpi\n      0x00\n      dup1\n      revert\n    tag_103:\n        /* \"contract/tokenvesting.sol\":4536:4543  owner() */\n      tag_104\n        /* \"contract/tokenvesting.sol\":4536:4541  owner */\n      tag_62\n        /* \"contract/tokenvesting.sol\":4536:4543  owner() */\n      jump\t// in\n    tag_104:\n        /* \"contract/tokenvesting.sol\":4520:4543  _msgSender() == owner() */\n      0xffffffffffffffffffffffffffffffffffffffff\n      and\n        /* \"contract/tokenvesting.sol\":4520:4532  _msgSender() */\n      tag_105\n        /* \"contract/tokenvesting.sol\":4520:4530  _msgSender */\n      tag_86\n        /* \"contract/tokenvesting.sol\":4520:4532  _msgSender() */\n      jump\t// in\n    tag_105:\n        /* \"contract/tokenvesting.sol\":4520:4543  _msgSender() == owner() */\n      0xffffffffffffffffffffffffffffffffffffffff\n      and\n      eq\n        /* \"contract/tokenvesting.sol\":4520:4592  _msgSender() == owner() || _msgSender() == schemes[schemeId].beneficiary */\n      dup1\n      tag_106\n      jumpi\n      pop\n        /* \"contract/tokenvesting.sol\":4563:4570  schemes */\n      0x06\n        /* \"contract/tokenvesting.sol\":4563:4580  schemes[schemeId] */\n      0x00\n        /* \"contract/tokenvesting.sol\":4571:4579  schemeId */\n      sload(0x02)\n        /* \"contract/tokenvesting.sol\":4563:4580  schemes[schemeId] */\n      dup2\n      mstore\n      0x20\n      add\n      swap1\n      dup2\n      mstore\n      0x20\n      add\n      0x00\n      keccak256\n        /* \"contract/tokenvesting.sol\":4563:4592  schemes[schemeId].beneficiary */\n      0x00\n      add\n      0x00\n      swap1\n      sload\n      swap1\n      0x0100\n      exp\n      swap1\n      div\n      0xffffffffffffffffffffffffffffffffffffffff\n      and\n        /* \"contract/tokenvesting.sol\":4547:4592  _msgSender() == schemes[schemeId].beneficiary */\n      0xffffffffffffffffffffffffffffffffffffffff\n      and\n        /* \"contract/tokenvesting.sol\":4547:4559  _msgSender() */\n      tag_107\n        /* \"contract/tokenvesting.sol\":4547:4557  _msgSender */\n      tag_86\n        /* \"contract/tokenvesting.sol\":4547:4559  _msgSender() */\n      jump\t// in\n    tag_107:\n        /* \"contract/tokenvesting.sol\":4547:4592  _msgSender() == schemes[schemeId].beneficiary */\n      0xffffffffffffffffffffffffffffffffffffffff\n      and\n      eq\n        /* \"contract/tokenvesting.sol\":4520:4592  _msgSender() == owner() || _msgSender() == schemes[schemeId].beneficiary */\n    tag_106:\n        /* \"contract/tokenvesting.sol\":4511:4646  require (_msgSender() == owner() || _msgSender() == schemes[schemeId].beneficiary, \"TokenVesting: Caller must be owner or beneficiary\") */\n      tag_108\n      jumpi\n      mload(0x40)\n      0x08c379a000000000000000000000000000000000000000000000000000000000\n      dup2\n      mstore\n      0x04\n      add\n      tag_109\n      swap1\n      tag_110\n      jump\t// in\n    tag_109:\n      mload(0x40)\n      dup1\n      swap2\n      sub\n      swap1\n      revert\n    tag_108:\n        /* \"contract/tokenvesting.sol\":4659:4686  vestingScheme memory scheme */\n      0x00\n        /* \"contract/tokenvesting.sol\":4689:4696  schemes */\n      0x06\n        /* \"contract/tokenvesting.sol\":4689:4706  schemes[schemeId] */\n      0x00\n        /* \"contract/tokenvesting.sol\":4697:4705  schemeId */\n      sload(0x02)\n        /* \"contract/tokenvesting.sol\":4689:4706  schemes[schemeId] */\n      dup2\n      mstore\n      0x20\n      add\n      swap1\n      dup2\n      mstore\n      0x20\n      add\n      0x00\n      keccak256\n        /* \"contract/tokenvesting.sol\":4659:4706  vestingScheme memory scheme = schemes[schemeId] */\n      mload(0x40)\n      dup1\n      0xe0\n      add\n      0x40\n      mstore\n      swap1\n      dup2\n      0x00\n      dup3\n      add\n      0x00\n      swap1\n      sload\n      swap1\n      0x0100\n      exp\n      swap1\n      div\n      0xffffffffffffffffffffffffffffffffffffffff\n      and\n      0xffffffffffffffffffffffffffffffffffffffff\n      and\n      0xffffffffffffffffffffffffffffffffffffffff\n      and\n      dup2\n      mstore\n      0x20\n      add\n      0x01\n      dup3\n      add\n      sload\n      dup2\n      mstore\n      0x20\n      add\n      0x02\n      dup3\n      add\n      sload\n      dup2\n      mstore\n      0x20\n      add\n      0x03\n      dup3\n      add\n      sload\n      dup2\n      mstore\n      0x20\n      add\n      0x04\n      dup3\n      add\n      sload\n      dup2\n      mstore\n      0x20\n      add\n      0x05\n      dup3\n      add\n      sload\n      dup2\n      mstore\n      0x20\n      add\n      0x06\n      dup3\n      add\n      0x00\n      swap1\n      sload\n      swap1\n      0x0100\n      exp\n      swap1\n      div\n      0xff\n      and\n      iszero\n      iszero\n      iszero\n      iszero\n      dup2\n      mstore\n      pop\n      pop\n      swap1\n      pop\n        /* \"contract/tokenvesting.sol\":4924:4958  scheme.tokensReleased.add(_amount) */\n      tag_111\n        /* \"contract/tokenvesting.sol\":4950:4957  _amount */\n      dup3\n        /* \"contract/tokenvesting.sol\":4924:4930  scheme */\n      dup3\n        /* \"contract/tokenvesting.sol\":4924:4945  scheme.tokensReleased */\n      0xa0\n      add\n      mload\n        /* \"contract/tokenvesting.sol\":4924:4949  scheme.tokensReleased.add */\n      tag_112\n      swap1\n        /* \"contract/tokenvesting.sol\":4924:4958  scheme.tokensReleased.add(_amount) */\n      swap2\n      swap1\n      0xffffffff\n      and\n      jump\t// in\n    tag_111:\n        /* \"contract/tokenvesting.sol\":4900:4906  scheme */\n      dup2\n        /* \"contract/tokenvesting.sol\":4900:4921  scheme.tokensReleased */\n      0xa0\n      add\n        /* \"contract/tokenvesting.sol\":4900:4958  scheme.tokensReleased = scheme.tokensReleased.add(_amount) */\n      dup2\n      dup2\n      mstore\n      pop\n      pop\n        /* \"contract/tokenvesting.sol\":4969:4974  token */\n      0x01\n      0x00\n      swap1\n      sload\n      swap1\n      0x0100\n      exp\n      swap1\n      div\n      0xffffffffffffffffffffffffffffffffffffffff\n      and\n        /* \"contract/tokenvesting.sol\":4969:4983  token.transfer */\n      0xffffffffffffffffffffffffffffffffffffffff\n      and\n      0xa9059cbb\n        /* \"contract/tokenvesting.sol\":4984:4990  scheme */\n      dup3\n        /* \"contract/tokenvesting.sol\":4984:5002  scheme.beneficiary */\n      0x00\n      add\n      mload\n        /* \"contract/tokenvesting.sol\":5004:5011  _amount */\n      dup5\n        /* \"contract/tokenvesting.sol\":4969:5012  token.transfer(scheme.beneficiary, _amount) */\n      mload(0x40)\n      dup4\n      0xffffffff\n      and\n      0xe0\n      shl\n      dup2\n      mstore\n      0x04\n      add\n      tag_113\n      swap3\n      swap2\n      swap1\n      tag_114\n      jump\t// in\n    tag_113:\n      0x20\n      mload(0x40)\n      dup1\n      dup4\n      sub\n      dup2\n      0x00\n      dup8\n      dup1\n      extcodesize\n      iszero\n      dup1\n      iszero\n      tag_115\n      jumpi\n      0x00\n      dup1\n      revert\n    tag_115:\n      pop\n      gas\n      call\n      iszero\n      dup1\n      iszero\n      tag_117\n      jumpi\n      returndatasize\n      0x00\n      dup1\n      returndatacopy\n      revert(0x00, returndatasize)\n    tag_117:\n      pop\n      pop\n      pop\n      pop\n      mload(0x40)\n      returndatasize\n      not(0x1f)\n      0x1f\n      dup3\n      add\n      and\n      dup3\n      add\n      dup1\n      0x40\n      mstore\n      pop\n      dup2\n      add\n      swap1\n      tag_118\n      swap2\n      swap1\n      tag_119\n      jump\t// in\n    tag_118:\n      pop\n        /* \"contract/tokenvesting.sol\":4341:5020  function releaseTokens (\r... */\n      pop\n      pop\n      pop\n      jump\t// out\n        /* \"https://github.com/OpenZeppelin/openzeppelin-contracts/blob/master/contracts/access/Ownable.sol\":1668:1769  function renounceOwnership() public virtual onlyOwner {... */\n    tag_50:\n        /* \"https://github.com/OpenZeppelin/openzeppelin-contracts/blob/master/contracts/access/Ownable.sol\":1259:1271  _msgSender() */\n      tag_121\n        /* \"https://github.com/OpenZeppelin/openzeppelin-contracts/blob/master/contracts/access/Ownable.sol\":1259:1269  _msgSender */\n      tag_86\n        /* \"https://github.com/OpenZeppelin/openzeppelin-contracts/blob/master/contracts/access/Ownable.sol\":1259:1271  _msgSender() */\n      jump\t// in\n    tag_121:\n        /* \"https://github.com/OpenZeppelin/openzeppelin-contracts/blob/master/contracts/access/Ownable.sol\":1248:1271  owner() == _msgSender() */\n      0xffffffffffffffffffffffffffffffffffffffff\n      and\n        /* \"https://github.com/OpenZeppelin/openzeppelin-contracts/blob/master/contracts/access/Ownable.sol\":1248:1255  owner() */\n      tag_122\n        /* \"https://github.com/OpenZeppelin/openzeppelin-contracts/blob/master/contracts/access/Ownable.sol\":1248:1253  owner */\n      tag_62\n        /* \"https://github.com/OpenZeppelin/openzeppelin-contracts/blob/master/contracts/access/Ownable.sol\":1248:1255  owner() */\n      jump\t// in\n    tag_122:\n        /* \"https://github.com/OpenZeppelin/openzeppelin-contracts/blob/master/contracts/access/Ownable.sol\":1248:1271  owner() == _msgSender() */\n      0xffffffffffffffffffffffffffffffffffffffff\n      and\n      eq\n        /* \"https://github.com/OpenZeppelin/openzeppelin-contracts/blob/master/contracts/access/Ownable.sol\":1240:1308  require(owner() == _msgSender(), \"Ownable: caller is not the owner\") */\n      tag_123\n      jumpi\n      mload(0x40)\n      0x08c379a000000000000000000000000000000000000000000000000000000000\n      dup2\n      mstore\n      0x04\n      add\n      tag_124\n      swap1\n      tag_90\n      jump\t// in\n    tag_124:\n      mload(0x40)\n      dup1\n      swap2\n      sub\n      swap1\n      revert\n    tag_123:\n        /* \"https://github.com/OpenZeppelin/openzeppelin-contracts/blob/master/contracts/access/Ownable.sol\":1732:1762  _transferOwnership(address(0)) */\n      tag_126\n        /* \"https://github.com/OpenZeppelin/openzeppelin-contracts/blob/master/contracts/access/Ownable.sol\":1759:1760  0 */\n      0x00\n        /* \"https://github.com/OpenZeppelin/openzeppelin-contracts/blob/master/contracts/access/Ownable.sol\":1732:1750  _transferOwnership */\n      tag_127\n        /* \"https://github.com/OpenZeppelin/openzeppelin-contracts/blob/master/contracts/access/Ownable.sol\":1732:1762  _transferOwnership(address(0)) */\n      jump\t// in\n    tag_126:\n        /* \"https://github.com/OpenZeppelin/openzeppelin-contracts/blob/master/contracts/access/Ownable.sol\":1668:1769  function renounceOwnership() public virtual onlyOwner {... */\n      jump\t// out\n        /* \"contract/tokenvesting.sol\":2809:2905  function getSchemeCount () external view returns (uint256) {\r... */\n    tag_53:\n        /* \"contract/tokenvesting.sol\":2859:2866  uint256 */\n      0x00\n        /* \"contract/tokenvesting.sol\":2886:2897  schemeCount */\n      sload(0x04)\n        /* \"contract/tokenvesting.sol\":2879:2897  return schemeCount */\n      swap1\n      pop\n        /* \"contract/tokenvesting.sol\":2809:2905  function getSchemeCount () external view returns (uint256) {\r... */\n      swap1\n      jump\t// out\n        /* \"contract/tokenvesting.sol\":3225:4333  function createVestingScheme (\r... */\n    tag_59:\n        /* \"https://github.com/OpenZeppelin/openzeppelin-contracts/blob/master/contracts/access/Ownable.sol\":1259:1271  _msgSender() */\n      tag_130\n        /* \"https://github.com/OpenZeppelin/openzeppelin-contracts/blob/master/contracts/access/Ownable.sol\":1259:1269  _msgSender */\n      tag_86\n        /* \"https://github.com/OpenZeppelin/openzeppelin-contracts/blob/master/contracts/access/Ownable.sol\":1259:1271  _msgSender() */\n      jump\t// in\n    tag_130:\n        /* \"https://github.com/OpenZeppelin/openzeppelin-contracts/blob/master/contracts/access/Ownable.sol\":1248:1271  owner() == _msgSender() */\n      0xffffffffffffffffffffffffffffffffffffffff\n      and\n        /* \"https://github.com/OpenZeppelin/openzeppelin-contracts/blob/master/contracts/access/Ownable.sol\":1248:1255  owner() */\n      tag_131\n        /* \"https://github.com/OpenZeppelin/openzeppelin-contracts/blob/master/contracts/access/Ownable.sol\":1248:1253  owner */\n      tag_62\n        /* \"https://github.com/OpenZeppelin/openzeppelin-contracts/blob/master/contracts/access/Ownable.sol\":1248:1255  owner() */\n      jump\t// in\n    tag_131:\n        /* \"https://github.com/OpenZeppelin/openzeppelin-contracts/blob/master/contracts/access/Ownable.sol\":1248:1271  owner() == _msgSender() */\n      0xffffffffffffffffffffffffffffffffffffffff\n      and\n      eq\n        /* \"https://github.com/OpenZeppelin/openzeppelin-contracts/blob/master/contracts/access/Ownable.sol\":1240:1308  require(owner() == _msgSender(), \"Ownable: caller is not the owner\") */\n      tag_132\n      jumpi\n      mload(0x40)\n      0x08c379a000000000000000000000000000000000000000000000000000000000\n      dup2\n      mstore\n      0x04\n      add\n      tag_133\n      swap1\n      tag_90\n      jump\t// in\n    tag_133:\n      mload(0x40)\n      dup1\n      swap2\n      sub\n      swap1\n      revert\n    tag_132:\n        /* \"contract/tokenvesting.sol\":3473:3474  0 */\n      0x00\n        /* \"contract/tokenvesting.sol\":3449:3475  _beneficiary != address(0) */\n      0xffffffffffffffffffffffffffffffffffffffff\n      and\n        /* \"contract/tokenvesting.sol\":3449:3461  _beneficiary */\n      dup6\n        /* \"contract/tokenvesting.sol\":3449:3475  _beneficiary != address(0) */\n      0xffffffffffffffffffffffffffffffffffffffff\n      and\n      eq\n      iszero\n        /* \"contract/tokenvesting.sol\":3440:3532  require (_beneficiary != address(0), \"TokenVesting: Cannot add zero address as beneficiary\") */\n      tag_135\n      jumpi\n      mload(0x40)\n      0x08c379a000000000000000000000000000000000000000000000000000000000\n      dup2\n      mstore\n      0x04\n      add\n      tag_136\n      swap1\n      tag_137\n      jump\t// in\n    tag_136:\n      mload(0x40)\n      dup1\n      swap2\n      sub\n      swap1\n      revert\n    tag_135:\n        /* \"contract/tokenvesting.sol\":3564:3565  0 */\n      0x00\n        /* \"contract/tokenvesting.sol\":3552:3561  _duration */\n      dup4\n        /* \"contract/tokenvesting.sol\":3552:3565  _duration > 0 */\n      gt\n        /* \"contract/tokenvesting.sol\":3543:3624  require (_duration > 0, \"TokenVesting: Vesting period must be greater than zero\") */\n      tag_138\n      jumpi\n      mload(0x40)\n      0x08c379a000000000000000000000000000000000000000000000000000000000\n      dup2\n      mstore\n      0x04\n      add\n      tag_139\n      swap1\n      tag_140\n      jump\t// in\n    tag_139:\n      mload(0x40)\n      dup1\n      swap2\n      sub\n      swap1\n      revert\n    tag_138:\n        /* \"contract/tokenvesting.sol\":3654:3655  0 */\n      0x00\n        /* \"contract/tokenvesting.sol\":3644:3651  _amount */\n      dup2\n        /* \"contract/tokenvesting.sol\":3644:3655  _amount > 0 */\n      gt\n        /* \"contract/tokenvesting.sol\":3635:3712  require (_amount > 0, \"TokenVesting: Vestable amount must be greater than 0\") */\n      tag_141\n      jumpi\n      mload(0x40)\n      0x08c379a000000000000000000000000000000000000000000000000000000000\n      dup2\n      mstore\n      0x04\n      add\n      tag_142\n      swap1\n      tag_143\n      jump\t// in\n    tag_142:\n      mload(0x40)\n      dup1\n      swap2\n      sub\n      swap1\n      revert\n    tag_141:\n        /* \"contract/tokenvesting.sol\":3776:3803  beneficiarySchemeCountLimit */\n      sload(0x05)\n        /* \"contract/tokenvesting.sol\":3732:3752  beneficiarySchemeIds */\n      0x07\n        /* \"contract/tokenvesting.sol\":3732:3766  beneficiarySchemeIds[_beneficiary] */\n      0x00\n        /* \"contract/tokenvesting.sol\":3753:3765  _beneficiary */\n      dup8\n        /* \"contract/tokenvesting.sol\":3732:3766  beneficiarySchemeIds[_beneficiary] */\n      0xffffffffffffffffffffffffffffffffffffffff\n      and\n      0xffffffffffffffffffffffffffffffffffffffff\n      and\n      dup2\n      mstore\n      0x20\n      add\n      swap1\n      dup2\n      mstore\n      0x20\n      add\n      0x00\n      keccak256\n        /* \"contract/tokenvesting.sol\":3732:3773  beneficiarySchemeIds[_beneficiary].length */\n      dup1\n      sload\n      swap1\n      pop\n        /* \"contract/tokenvesting.sol\":3732:3803  beneficiarySchemeIds[_beneficiary].length < beneficiarySchemeCountLimit */\n      lt\n        /* \"contract/tokenvesting.sol\":3723:3874  require (beneficiarySchemeIds[_beneficiary].length < beneficiarySchemeCountLimit, \"TokenVesting: Scheme count for this beneficiary has reached limit.\") */\n      tag_144\n      jumpi\n      mload(0x40)\n      0x08c379a000000000000000000000000000000000000000000000000000000000\n      dup2\n      mstore\n      0x04\n      add\n      tag_145\n      swap1\n      tag_146\n      jump\t// in\n    tag_145:\n      mload(0x40)\n      dup1\n      swap2\n      sub\n      swap1\n      revert\n    tag_144:\n        /* \"contract/tokenvesting.sol\":3887:3914  vestingScheme memory scheme */\n      0x00\n        /* \"contract/tokenvesting.sol\":3917:4075  vestingScheme (\r... */\n      mload(0x40)\n      dup1\n      0xe0\n      add\n      0x40\n      mstore\n      dup1\n        /* \"contract/tokenvesting.sol\":3943:3955  _beneficiary */\n      dup8\n        /* \"contract/tokenvesting.sol\":3917:4075  vestingScheme (\r... */\n      0xffffffffffffffffffffffffffffffffffffffff\n      and\n      dup2\n      mstore\n      0x20\n      add\n        /* \"contract/tokenvesting.sol\":3967:3977  _startTime */\n      dup7\n        /* \"contract/tokenvesting.sol\":3917:4075  vestingScheme (\r... */\n      dup2\n      mstore\n      0x20\n      add\n        /* \"contract/tokenvesting.sol\":3989:3998  _duration */\n      dup6\n        /* \"contract/tokenvesting.sol\":3917:4075  vestingScheme (\r... */\n      dup2\n      mstore\n      0x20\n      add\n        /* \"contract/tokenvesting.sol\":4010:4026  _releaseSchedule */\n      dup5\n        /* \"contract/tokenvesting.sol\":3917:4075  vestingScheme (\r... */\n      dup2\n      mstore\n      0x20\n      add\n        /* \"contract/tokenvesting.sol\":4038:4045  _amount */\n      dup4\n        /* \"contract/tokenvesting.sol\":3917:4075  vestingScheme (\r... */\n      dup2\n      mstore\n      0x20\n      add\n        /* \"contract/tokenvesting.sol\":4057:4058  0 */\n      0x00\n        /* \"contract/tokenvesting.sol\":3917:4075  vestingScheme (\r... */\n      dup2\n      mstore\n      0x20\n      add\n        /* \"contract/tokenvesting.sol\":4070:4074  true */\n      0x01\n        /* \"contract/tokenvesting.sol\":3917:4075  vestingScheme (\r... */\n      iszero\n      iszero\n      dup2\n      mstore\n      pop\n        /* \"contract/tokenvesting.sol\":3887:4075  vestingScheme memory scheme = vestingScheme (\r... */\n      swap1\n      pop\n        /* \"contract/tokenvesting.sol\":4099:4147  _calculateNewSchemeId(_beneficiary, schemeCount) */\n      tag_147\n        /* \"contract/tokenvesting.sol\":4121:4133  _beneficiary */\n      dup7\n        /* \"contract/tokenvesting.sol\":4135:4146  schemeCount */\n      sload(0x04)\n        /* \"contract/tokenvesting.sol\":4099:4120  _calculateNewSchemeId */\n      tag_148\n        /* \"contract/tokenvesting.sol\":4099:4147  _calculateNewSchemeId(_beneficiary, schemeCount) */\n      jump\t// in\n    tag_147:\n        /* \"contract/tokenvesting.sol\":4088:4096  schemeId */\n      0x02\n        /* \"contract/tokenvesting.sol\":4088:4147  schemeId = _calculateNewSchemeId(_beneficiary, schemeCount) */\n      dup2\n      swap1\n      sstore\n      pop\n        /* \"contract/tokenvesting.sol\":4158:4178  beneficiarySchemeIds */\n      0x07\n        /* \"contract/tokenvesting.sol\":4158:4198  beneficiarySchemeIds[scheme.beneficiary] */\n      0x00\n        /* \"contract/tokenvesting.sol\":4179:4185  scheme */\n      dup3\n        /* \"contract/tokenvesting.sol\":4179:4197  scheme.beneficiary */\n      0x00\n      add\n      mload\n        /* \"contract/tokenvesting.sol\":4158:4198  beneficiarySchemeIds[scheme.beneficiary] */\n      0xffffffffffffffffffffffffffffffffffffffff\n      and\n      0xffffffffffffffffffffffffffffffffffffffff\n      and\n      dup2\n      mstore\n      0x20\n      add\n      swap1\n      dup2\n      mstore\n      0x20\n      add\n      0x00\n      keccak256\n        /* \"contract/tokenvesting.sol\":4204:4212  schemeId */\n      sload(0x02)\n        /* \"contract/tokenvesting.sol\":4158:4213  beneficiarySchemeIds[scheme.beneficiary].push(schemeId) */\n      swap1\n      dup1\n      0x01\n      dup2\n      sload\n      add\n      dup1\n      dup3\n      sstore\n      dup1\n      swap2\n      pop\n      pop\n      0x01\n      swap1\n      sub\n      swap1\n      0x00\n      mstore\n      keccak256(0x00, 0x20)\n      add\n      0x00\n      swap1\n      swap2\n      swap1\n      swap2\n      swap1\n      swap2\n      pop\n      sstore\n        /* \"contract/tokenvesting.sol\":4244:4250  scheme */\n      dup1\n        /* \"contract/tokenvesting.sol\":4224:4231  schemes */\n      0x06\n        /* \"contract/tokenvesting.sol\":4224:4241  schemes[schemeId] */\n      0x00\n        /* \"contract/tokenvesting.sol\":4232:4240  schemeId */\n      sload(0x02)\n        /* \"contract/tokenvesting.sol\":4224:4241  schemes[schemeId] */\n      dup2\n      mstore\n      0x20\n      add\n      swap1\n      dup2\n      mstore\n      0x20\n      add\n      0x00\n      keccak256\n        /* \"contract/tokenvesting.sol\":4224:4250  schemes[schemeId] = scheme */\n      0x00\n      dup3\n      add\n      mload\n      dup2\n      0x00\n      add\n      exp(0x0100, 0x00)\n      dup2\n      sload\n      dup2\n      0xffffffffffffffffffffffffffffffffffffffff\n      mul\n      not\n      and\n      swap1\n      dup4\n      0xffffffffffffffffffffffffffffffffffffffff\n      and\n      mul\n      or\n      swap1\n      sstore\n      pop\n      0x20\n      dup3\n      add\n      mload\n      dup2\n      0x01\n      add\n      sstore\n      0x40\n      dup3\n      add\n      mload\n      dup2\n      0x02\n      add\n      sstore\n      0x60\n      dup3\n      add\n      mload\n      dup2\n      0x03\n      add\n      sstore\n      0x80\n      dup3\n      add\n      mload\n      dup2\n      0x04\n      add\n      sstore\n      0xa0\n      dup3\n      add\n      mload\n      dup2\n      0x05\n      add\n      sstore\n      0xc0\n      dup3\n      add\n      mload\n      dup2\n      0x06\n      add\n      exp(0x0100, 0x00)\n      dup2\n      sload\n      dup2\n      0xff\n      mul\n      not\n      and\n      swap1\n      dup4\n      iszero\n      iszero\n      mul\n      or\n      swap1\n      sstore\n      pop\n      swap1\n      pop\n      pop\n        /* \"contract/tokenvesting.sol\":4261:4279  schemeCount.add(1) */\n      tag_150\n        /* \"contract/tokenvesting.sol\":4277:4278  1 */\n      0x01\n        /* \"contract/tokenvesting.sol\":4261:4272  schemeCount */\n      sload(0x04)\n        /* \"contract/tokenvesting.sol\":4261:4276  schemeCount.add */\n      tag_112\n      swap1\n        /* \"contract/tokenvesting.sol\":4261:4279  schemeCount.add(1) */\n      swap2\n      swap1\n      0xffffffff\n      and\n      jump\t// in\n    tag_150:\n      pop\n        /* \"contract/tokenvesting.sol\":4295:4325  VestingSchemeCreation (scheme) */\n      0x03ac17a064e5f9f8a942a4e1b3d07157fa74128806fab9b656a6b986182ffad1\n        /* \"contract/tokenvesting.sol\":4318:4324  scheme */\n      dup2\n        /* \"contract/tokenvesting.sol\":4295:4325  VestingSchemeCreation (scheme) */\n      mload(0x40)\n      tag_151\n      swap2\n      swap1\n      tag_79\n      jump\t// in\n    tag_151:\n      mload(0x40)\n      dup1\n      swap2\n      sub\n      swap1\n      log1\n        /* \"https://github.com/OpenZeppelin/openzeppelin-contracts/blob/master/contracts/access/Ownable.sol\":1318:1319  _ */\n      pop\n        /* \"contract/tokenvesting.sol\":3225:4333  function createVestingScheme (\r... */\n      pop\n      pop\n      pop\n      pop\n      pop\n      jump\t// out\n        /* \"https://github.com/OpenZeppelin/openzeppelin-contracts/blob/master/contracts/access/Ownable.sol\":1036:1121  function owner() public view virtual returns (address) {... */\n    tag_62:\n        /* \"https://github.com/OpenZeppelin/openzeppelin-contracts/blob/master/contracts/access/Ownable.sol\":1082:1089  address */\n      0x00\n        /* \"https://github.com/OpenZeppelin/openzeppelin-contracts/blob/master/contracts/access/Ownable.sol\":1108:1114  _owner */\n      dup1\n      0x00\n      swap1\n      sload\n      swap1\n      0x0100\n      exp\n      swap1\n      div\n      0xffffffffffffffffffffffffffffffffffffffff\n      and\n        /* \"https://github.com/OpenZeppelin/openzeppelin-contracts/blob/master/contracts/access/Ownable.sol\":1101:1114  return _owner */\n      swap1\n      pop\n        /* \"https://github.com/OpenZeppelin/openzeppelin-contracts/blob/master/contracts/access/Ownable.sol\":1036:1121  function owner() public view virtual returns (address) {... */\n      swap1\n      jump\t// out\n        /* \"contract/tokenvesting.sol\":2224:2687  function getUnvestedAmountById (uint256 _schemeId) external view returns (uint256) {\r... */\n    tag_68:\n        /* \"contract/tokenvesting.sol\":2298:2305  uint256 */\n      0x00\n        /* \"contract/tokenvesting.sol\":2339:2347  schemeId */\n      sload(0x02)\n        /* \"contract/tokenvesting.sol\":2327:2336  _schemeId */\n      dup3\n        /* \"contract/tokenvesting.sol\":2327:2347  _schemeId < schemeId */\n      lt\n        /* \"contract/tokenvesting.sol\":2318:2389  require (_schemeId < schemeId, \"TokenVesting: Scheme Id out of bounds\") */\n      tag_154\n      jumpi\n      mload(0x40)\n      0x08c379a000000000000000000000000000000000000000000000000000000000\n      dup2\n      mstore\n      0x04\n      add\n      tag_155\n      swap1\n      tag_156\n      jump\t// in\n    tag_155:\n      mload(0x40)\n      dup1\n      swap2\n      sub\n      swap1\n      revert\n    tag_154:\n        /* \"contract/tokenvesting.sol\":2439:2443  true */\n      0x01\n        /* \"contract/tokenvesting.sol\":2409:2443  schemes[_schemeId].isValid == true */\n      iszero\n      iszero\n        /* \"contract/tokenvesting.sol\":2409:2416  schemes */\n      0x06\n        /* \"contract/tokenvesting.sol\":2409:2427  schemes[_schemeId] */\n      0x00\n        /* \"contract/tokenvesting.sol\":2417:2426  _schemeId */\n      dup5\n        /* \"contract/tokenvesting.sol\":2409:2427  schemes[_schemeId] */\n      dup2\n      mstore\n      0x20\n      add\n      swap1\n      dup2\n      mstore\n      0x20\n      add\n      0x00\n      keccak256\n        /* \"contract/tokenvesting.sol\":2409:2435  schemes[_schemeId].isValid */\n      0x06\n      add\n      0x00\n      swap1\n      sload\n      swap1\n      0x0100\n      exp\n      swap1\n      div\n      0xff\n      and\n        /* \"contract/tokenvesting.sol\":2409:2443  schemes[_schemeId].isValid == true */\n      iszero\n      iszero\n      eq\n        /* \"contract/tokenvesting.sol\":2400:2512  require (schemes[_schemeId].isValid == true, \"TokenVesting: Vesting Scheme is either deleted or does not exist\") */\n      tag_157\n      jumpi\n      mload(0x40)\n      0x08c379a000000000000000000000000000000000000000000000000000000000\n      dup2\n      mstore\n      0x04\n      add\n      tag_158\n      swap1\n      tag_159\n      jump\t// in\n    tag_158:\n      mload(0x40)\n      dup1\n      swap2\n      sub\n      swap1\n      revert\n    tag_157:\n        /* \"contract/tokenvesting.sol\":2523:2550  vestingScheme memory scheme */\n      0x00\n        /* \"contract/tokenvesting.sol\":2553:2560  schemes */\n      0x06\n        /* \"contract/tokenvesting.sol\":2553:2571  schemes[_schemeId] */\n      0x00\n        /* \"contract/tokenvesting.sol\":2561:2570  _schemeId */\n      dup5\n        /* \"contract/tokenvesting.sol\":2553:2571  schemes[_schemeId] */\n      dup2\n      mstore\n      0x20\n      add\n      swap1\n      dup2\n      mstore\n      0x20\n      add\n      0x00\n      keccak256\n        /* \"contract/tokenvesting.sol\":2523:2571  vestingScheme memory scheme = schemes[_schemeId] */\n      mload(0x40)\n      dup1\n      0xe0\n      add\n      0x40\n      mstore\n      swap1\n      dup2\n      0x00\n      dup3\n      add\n      0x00\n      swap1\n      sload\n      swap1\n      0x0100\n      exp\n      swap1\n      div\n      0xffffffffffffffffffffffffffffffffffffffff\n      and\n      0xffffffffffffffffffffffffffffffffffffffff\n      and\n      0xffffffffffffffffffffffffffffffffffffffff\n      and\n      dup2\n      mstore\n      0x20\n      add\n      0x01\n      dup3\n      add\n      sload\n      dup2\n      mstore\n      0x20\n      add\n      0x02\n      dup3\n      add\n      sload\n      dup2\n      mstore\n      0x20\n      add\n      0x03\n      dup3\n      add\n      sload\n      dup2\n      mstore\n      0x20\n      add\n      0x04\n      dup3\n      add\n      sload\n      dup2\n      mstore\n      0x20\n      add\n      0x05\n      dup3\n      add\n      sload\n      dup2\n      mstore\n      0x20\n      add\n      0x06\n      dup3\n      add\n      0x00\n      swap1\n      sload\n      swap1\n      0x0100\n      exp\n      swap1\n      div\n      0xff\n      and\n      iszero\n      iszero\n      iszero\n      iszero\n      dup2\n      mstore\n      pop\n      pop\n      swap1\n      pop\n        /* \"contract/tokenvesting.sol\":2582:2604  uint256 unvestedAmount */\n      0x00\n        /* \"contract/tokenvesting.sol\":2607:2647  scheme.amount.sub(scheme.tokensReleased) */\n      tag_160\n        /* \"contract/tokenvesting.sol\":2625:2631  scheme */\n      dup3\n        /* \"contract/tokenvesting.sol\":2625:2646  scheme.tokensReleased */\n      0xa0\n      add\n      mload\n        /* \"contract/tokenvesting.sol\":2607:2613  scheme */\n      dup4\n        /* \"contract/tokenvesting.sol\":2607:2620  scheme.amount */\n      0x80\n      add\n      mload\n        /* \"contract/tokenvesting.sol\":2607:2624  scheme.amount.sub */\n      tag_161\n      swap1\n        /* \"contract/tokenvesting.sol\":2607:2647  scheme.amount.sub(scheme.tokensReleased) */\n      swap2\n      swap1\n      0xffffffff\n      and\n      jump\t// in\n    tag_160:\n        /* \"contract/tokenvesting.sol\":2582:2647  uint256 unvestedAmount = scheme.amount.sub(scheme.tokensReleased) */\n      swap1\n      pop\n        /* \"contract/tokenvesting.sol\":2665:2679  unvestedAmount */\n      dup1\n        /* \"contract/tokenvesting.sol\":2658:2679  return unvestedAmount */\n      swap3\n      pop\n      pop\n      pop\n        /* \"contract/tokenvesting.sol\":2224:2687  function getUnvestedAmountById (uint256 _schemeId) external view returns (uint256) {\r... */\n      swap2\n      swap1\n      pop\n      jump\t// out\n        /* \"contract/tokenvesting.sol\":1921:2049  function getBeneficiarySchemeCountLimit () external view returns (uint256) {\r... */\n    tag_72:\n        /* \"contract/tokenvesting.sol\":1987:1994  uint256 */\n      0x00\n        /* \"contract/tokenvesting.sol\":2014:2041  beneficiarySchemeCountLimit */\n      sload(0x05)\n        /* \"contract/tokenvesting.sol\":2007:2041  return beneficiarySchemeCountLimit */\n      swap1\n      pop\n        /* \"contract/tokenvesting.sol\":1921:2049  function getBeneficiarySchemeCountLimit () external view returns (uint256) {\r... */\n      swap1\n      jump\t// out\n        /* \"contract/tokenvesting.sol\":1554:1913  function getVestingSchemeById (uint _schemeId) \r... */\n    tag_77:\n        /* \"contract/tokenvesting.sol\":1642:1662  vestingScheme memory */\n      tag_163\n      tag_164\n      jump\t// in\n    tag_163:\n        /* \"contract/tokenvesting.sol\":1696:1704  schemeId */\n      sload(0x02)\n        /* \"contract/tokenvesting.sol\":1684:1693  _schemeId */\n      dup3\n        /* \"contract/tokenvesting.sol\":1684:1704  _schemeId < schemeId */\n      lt\n        /* \"contract/tokenvesting.sol\":1675:1746  require (_schemeId < schemeId, \"TokenVesting: Scheme Id out of bounds\") */\n      tag_166\n      jumpi\n      mload(0x40)\n      0x08c379a000000000000000000000000000000000000000000000000000000000\n      dup2\n      mstore\n      0x04\n      add\n      tag_167\n      swap1\n      tag_156\n      jump\t// in\n    tag_167:\n      mload(0x40)\n      dup1\n      swap2\n      sub\n      swap1\n      revert\n    tag_166:\n        /* \"contract/tokenvesting.sol\":1796:1800  true */\n      0x01\n        /* \"contract/tokenvesting.sol\":1766:1800  schemes[_schemeId].isValid == true */\n      iszero\n      iszero\n        /* \"contract/tokenvesting.sol\":1766:1773  schemes */\n      0x06\n        /* \"contract/tokenvesting.sol\":1766:1784  schemes[_schemeId] */\n      0x00\n        /* \"contract/tokenvesting.sol\":1774:1783  _schemeId */\n      dup5\n        /* \"contract/tokenvesting.sol\":1766:1784  schemes[_schemeId] */\n      dup2\n      mstore\n      0x20\n      add\n      swap1\n      dup2\n      mstore\n      0x20\n      add\n      0x00\n      keccak256\n        /* \"contract/tokenvesting.sol\":1766:1792  schemes[_schemeId].isValid */\n      0x06\n      add\n      0x00\n      swap1\n      sload\n      swap1\n      0x0100\n      exp\n      swap1\n      div\n      0xff\n      and\n        /* \"contract/tokenvesting.sol\":1766:1800  schemes[_schemeId].isValid == true */\n      iszero\n      iszero\n      eq\n        /* \"contract/tokenvesting.sol\":1757:1869  require (schemes[_schemeId].isValid == true, \"TokenVesting: Vesting Scheme is either deleted or does not exist\") */\n      tag_168\n      jumpi\n      mload(0x40)\n      0x08c379a000000000000000000000000000000000000000000000000000000000\n      dup2\n      mstore\n      0x04\n      add\n      tag_169\n      swap1\n      tag_159\n      jump\t// in\n    tag_169:\n      mload(0x40)\n      dup1\n      swap2\n      sub\n      swap1\n      revert\n    tag_168:\n        /* \"contract/tokenvesting.sol\":1887:1894  schemes */\n      0x06\n        /* \"contract/tokenvesting.sol\":1887:1905  schemes[_schemeId] */\n      0x00\n        /* \"contract/tokenvesting.sol\":1895:1904  _schemeId */\n      dup4\n        /* \"contract/tokenvesting.sol\":1887:1905  schemes[_schemeId] */\n      dup2\n      mstore\n      0x20\n      add\n      swap1\n      dup2\n      mstore\n      0x20\n      add\n      0x00\n      keccak256\n        /* \"contract/tokenvesting.sol\":1880:1905  return schemes[_schemeId] */\n      mload(0x40)\n      dup1\n      0xe0\n      add\n      0x40\n      mstore\n      swap1\n      dup2\n      0x00\n      dup3\n      add\n      0x00\n      swap1\n      sload\n      swap1\n      0x0100\n      exp\n      swap1\n      div\n      0xffffffffffffffffffffffffffffffffffffffff\n      and\n      0xffffffffffffffffffffffffffffffffffffffff\n      and\n      0xffffffffffffffffffffffffffffffffffffffff\n      and\n      dup2\n      mstore\n      0x20\n      add\n      0x01\n      dup3\n      add\n      sload\n      dup2\n      mstore\n      0x20\n      add\n      0x02\n      dup3\n      add\n      sload\n      dup2\n      mstore\n      0x20\n      add\n      0x03\n      dup3\n      add\n      sload\n      dup2\n      mstore\n      0x20\n      add\n      0x04\n      dup3\n      add\n      sload\n      dup2\n      mstore\n      0x20\n      add\n      0x05\n      dup3\n      add\n      sload\n      dup2\n      mstore\n      0x20\n      add\n      0x06\n      dup3\n      add\n      0x00\n      swap1\n      sload\n      swap1\n      0x0100\n      exp\n      swap1\n      div\n      0xff\n      and\n      iszero\n      iszero\n      iszero\n      iszero\n      dup2\n      mstore\n      pop\n      pop\n      swap1\n      pop\n        /* \"contract/tokenvesting.sol\":1554:1913  function getVestingSchemeById (uint _schemeId) \r... */\n      swap2\n      swap1\n      pop\n      jump\t// out\n        /* \"https://github.com/OpenZeppelin/openzeppelin-contracts/blob/master/contracts/access/Ownable.sol\":1918:2116  function transferOwnership(address newOwner) public virtual onlyOwner {... */\n    tag_83:\n        /* \"https://github.com/OpenZeppelin/openzeppelin-contracts/blob/master/contracts/access/Ownable.sol\":1259:1271  _msgSender() */\n      tag_171\n        /* \"https://github.com/OpenZeppelin/openzeppelin-contracts/blob/master/contracts/access/Ownable.sol\":1259:1269  _msgSender */\n      tag_86\n        /* \"https://github.com/OpenZeppelin/openzeppelin-contracts/blob/master/contracts/access/Ownable.sol\":1259:1271  _msgSender() */\n      jump\t// in\n    tag_171:\n        /* \"https://github.com/OpenZeppelin/openzeppelin-contracts/blob/master/contracts/access/Ownable.sol\":1248:1271  owner() == _msgSender() */\n      0xffffffffffffffffffffffffffffffffffffffff\n      and\n        /* \"https://github.com/OpenZeppelin/openzeppelin-contracts/blob/master/contracts/access/Ownable.sol\":1248:1255  owner() */\n      tag_172\n        /* \"https://github.com/OpenZeppelin/openzeppelin-contracts/blob/master/contracts/access/Ownable.sol\":1248:1253  owner */\n      tag_62\n        /* \"https://github.com/OpenZeppelin/openzeppelin-contracts/blob/master/contracts/access/Ownable.sol\":1248:1255  owner() */\n      jump\t// in\n    tag_172:\n        /* \"https://github.com/OpenZeppelin/openzeppelin-contracts/blob/master/contracts/access/Ownable.sol\":1248:1271  owner() == _msgSender() */\n      0xffffffffffffffffffffffffffffffffffffffff\n      and\n      eq\n        /* \"https://github.com/OpenZeppelin/openzeppelin-contracts/blob/master/contracts/access/Ownable.sol\":1240:1308  require(owner() == _msgSender(), \"Ownable: caller is not the owner\") */\n      tag_173\n      jumpi\n      mload(0x40)\n      0x08c379a000000000000000000000000000000000000000000000000000000000\n      dup2\n      mstore\n      0x04\n      add\n      tag_174\n      swap1\n      tag_90\n      jump\t// in\n    tag_174:\n      mload(0x40)\n      dup1\n      swap2\n      sub\n      swap1\n      revert\n    tag_173:\n        /* \"https://github.com/OpenZeppelin/openzeppelin-contracts/blob/master/contracts/access/Ownable.sol\":2026:2027  0 */\n      0x00\n        /* \"https://github.com/OpenZeppelin/openzeppelin-contracts/blob/master/contracts/access/Ownable.sol\":2006:2028  newOwner != address(0) */\n      0xffffffffffffffffffffffffffffffffffffffff\n      and\n        /* \"https://github.com/OpenZeppelin/openzeppelin-contracts/blob/master/contracts/access/Ownable.sol\":2006:2014  newOwner */\n      dup2\n        /* \"https://github.com/OpenZeppelin/openzeppelin-contracts/blob/master/contracts/access/Ownable.sol\":2006:2028  newOwner != address(0) */\n      0xffffffffffffffffffffffffffffffffffffffff\n      and\n      eq\n      iszero\n        /* \"https://github.com/OpenZeppelin/openzeppelin-contracts/blob/master/contracts/access/Ownable.sol\":1998:2071  require(newOwner != address(0), \"Ownable: new owner is the zero address\") */\n      tag_176\n      jumpi\n      mload(0x40)\n      0x08c379a000000000000000000000000000000000000000000000000000000000\n      dup2\n      mstore\n      0x04\n      add\n      tag_177\n      swap1\n      tag_178\n      jump\t// in\n    tag_177:\n      mload(0x40)\n      dup1\n      swap2\n      sub\n      swap1\n      revert\n    tag_176:\n        /* \"https://github.com/OpenZeppelin/openzeppelin-contracts/blob/master/contracts/access/Ownable.sol\":2081:2109  _transferOwnership(newOwner) */\n      tag_179\n        /* \"https://github.com/OpenZeppelin/openzeppelin-contracts/blob/master/contracts/access/Ownable.sol\":2100:2108  newOwner */\n      dup2\n        /* \"https://github.com/OpenZeppelin/openzeppelin-contracts/blob/master/contracts/access/Ownable.sol\":2081:2099  _transferOwnership */\n      tag_127\n        /* \"https://github.com/OpenZeppelin/openzeppelin-contracts/blob/master/contracts/access/Ownable.sol\":2081:2109  _transferOwnership(newOwner) */\n      jump\t// in\n    tag_179:\n        /* \"https://github.com/OpenZeppelin/openzeppelin-contracts/blob/master/contracts/access/Ownable.sol\":1918:2116  function transferOwnership(address newOwner) public virtual onlyOwner {... */\n      pop\n      jump\t// out\n        /* \"https://github.com/OpenZeppelin/openzeppelin-contracts/blob/master/contracts/utils/Context.sol\":640:736  function _msgSender() internal view virtual returns (address) {... */\n    tag_86:\n        /* \"https://github.com/OpenZeppelin/openzeppelin-contracts/blob/master/contracts/utils/Context.sol\":693:700  address */\n      0x00\n        /* \"https://github.com/OpenZeppelin/openzeppelin-contracts/blob/master/contracts/utils/Context.sol\":719:729  msg.sender */\n      caller\n        /* \"https://github.com/OpenZeppelin/openzeppelin-contracts/blob/master/contracts/utils/Context.sol\":712:729  return msg.sender */\n      swap1\n      pop\n        /* \"https://github.com/OpenZeppelin/openzeppelin-contracts/blob/master/contracts/utils/Context.sol\":640:736  function _msgSender() internal view virtual returns (address) {... */\n      swap1\n      jump\t// out\n        /* \"https://github.com/OpenZeppelin/openzeppelin-contracts/blob/master/contracts/utils/math/SafeMath.sol\":2755:2851  function add(uint256 a, uint256 b) internal pure returns (uint256) {... */\n    tag_112:\n        /* \"https://github.com/OpenZeppelin/openzeppelin-contracts/blob/master/contracts/utils/math/SafeMath.sol\":2813:2820  uint256 */\n      0x00\n        /* \"https://github.com/OpenZeppelin/openzeppelin-contracts/blob/master/contracts/utils/math/SafeMath.sol\":2843:2844  b */\n      dup2\n        /* \"https://github.com/OpenZeppelin/openzeppelin-contracts/blob/master/contracts/utils/math/SafeMath.sol\":2839:2840  a */\n      dup4\n        /* \"https://github.com/OpenZeppelin/openzeppelin-contracts/blob/master/contracts/utils/math/SafeMath.sol\":2839:2844  a + b */\n      tag_182\n      swap2\n      swap1\n      tag_183\n      jump\t// in\n    tag_182:\n        /* \"https://github.com/OpenZeppelin/openzeppelin-contracts/blob/master/contracts/utils/math/SafeMath.sol\":2832:2844  return a + b */\n      swap1\n      pop\n        /* \"https://github.com/OpenZeppelin/openzeppelin-contracts/blob/master/contracts/utils/math/SafeMath.sol\":2755:2851  function add(uint256 a, uint256 b) internal pure returns (uint256) {... */\n      swap3\n      swap2\n      pop\n      pop\n      jump\t// out\n        /* \"https://github.com/OpenZeppelin/openzeppelin-contracts/blob/master/contracts/access/Ownable.sol\":2270:2457  function _transferOwnership(address newOwner) internal virtual {... */\n    tag_127:\n        /* \"https://github.com/OpenZeppelin/openzeppelin-contracts/blob/master/contracts/access/Ownable.sol\":2343:2359  address oldOwner */\n      0x00\n        /* \"https://github.com/OpenZeppelin/openzeppelin-contracts/blob/master/contracts/access/Ownable.sol\":2362:2368  _owner */\n      dup1\n      0x00\n      swap1\n      sload\n      swap1\n      0x0100\n      exp\n      swap1\n      div\n      0xffffffffffffffffffffffffffffffffffffffff\n      and\n        /* \"https://github.com/OpenZeppelin/openzeppelin-contracts/blob/master/contracts/access/Ownable.sol\":2343:2368  address oldOwner = _owner */\n      swap1\n      pop\n        /* \"https://github.com/OpenZeppelin/openzeppelin-contracts/blob/master/contracts/access/Ownable.sol\":2387:2395  newOwner */\n      dup2\n        /* \"https://github.com/OpenZeppelin/openzeppelin-contracts/blob/master/contracts/access/Ownable.sol\":2378:2384  _owner */\n      0x00\n      dup1\n        /* \"https://github.com/OpenZeppelin/openzeppelin-contracts/blob/master/contracts/access/Ownable.sol\":2378:2395  _owner = newOwner */\n      0x0100\n      exp\n      dup2\n      sload\n      dup2\n      0xffffffffffffffffffffffffffffffffffffffff\n      mul\n      not\n      and\n      swap1\n      dup4\n      0xffffffffffffffffffffffffffffffffffffffff\n      and\n      mul\n      or\n      swap1\n      sstore\n      pop\n        /* \"https://github.com/OpenZeppelin/openzeppelin-contracts/blob/master/contracts/access/Ownable.sol\":2441:2449  newOwner */\n      dup2\n        /* \"https://github.com/OpenZeppelin/openzeppelin-contracts/blob/master/contracts/access/Ownable.sol\":2410:2450  OwnershipTransferred(oldOwner, newOwner) */\n      0xffffffffffffffffffffffffffffffffffffffff\n      and\n        /* \"https://github.com/OpenZeppelin/openzeppelin-contracts/blob/master/contracts/access/Ownable.sol\":2431:2439  oldOwner */\n      dup2\n        /* \"https://github.com/OpenZeppelin/openzeppelin-contracts/blob/master/contracts/access/Ownable.sol\":2410:2450  OwnershipTransferred(oldOwner, newOwner) */\n      0xffffffffffffffffffffffffffffffffffffffff\n      and\n      0x8be0079c531659141344cd1fd0a4f28419497f9722a3daafe3b4186f6b6457e0\n      mload(0x40)\n      mload(0x40)\n      dup1\n      swap2\n      sub\n      swap1\n      log3\n        /* \"https://github.com/OpenZeppelin/openzeppelin-contracts/blob/master/contracts/access/Ownable.sol\":2270:2457  function _transferOwnership(address newOwner) internal virtual {... */\n      pop\n      pop\n      jump\t// out\n        /* \"contract/tokenvesting.sol\":5032:5229  function _calculateNewSchemeId (address _beneficiary, uint256 index) internal pure returns (uint256) {\r... */\n    tag_148:\n        /* \"contract/tokenvesting.sol\":5124:5131  uint256 */\n      0x00\n        /* \"contract/tokenvesting.sol\":5211:5221  1000000000 */\n      0x3b9aca00\n        /* \"contract/tokenvesting.sol\":5186:5198  _beneficiary */\n      dup4\n        /* \"contract/tokenvesting.sol\":5200:5205  index */\n      dup4\n        /* \"contract/tokenvesting.sol\":5169:5206  abi.encodePacked(_beneficiary, index) */\n      add(0x20, mload(0x40))\n      tag_186\n      swap3\n      swap2\n      swap1\n      tag_187\n      jump\t// in\n    tag_186:\n      mload(0x40)\n      0x20\n      dup2\n      dup4\n      sub\n      sub\n      dup2\n      mstore\n      swap1\n      0x40\n      mstore\n        /* \"contract/tokenvesting.sol\":5159:5207  keccak256(abi.encodePacked(_beneficiary, index)) */\n      dup1\n      mload\n      swap1\n      0x20\n      add\n      keccak256\n        /* \"contract/tokenvesting.sol\":5151:5208  uint256(keccak256(abi.encodePacked(_beneficiary, index))) */\n      0x00\n      shr\n        /* \"contract/tokenvesting.sol\":5151:5221  uint256(keccak256(abi.encodePacked(_beneficiary, index))) % 1000000000 */\n      tag_188\n      swap2\n      swap1\n      tag_189\n      jump\t// in\n    tag_188:\n        /* \"contract/tokenvesting.sol\":5144:5221  return uint256(keccak256(abi.encodePacked(_beneficiary, index))) % 1000000000 */\n      swap1\n      pop\n        /* \"contract/tokenvesting.sol\":5032:5229  function _calculateNewSchemeId (address _beneficiary, uint256 index) internal pure returns (uint256) {\r... */\n      swap3\n      swap2\n      pop\n      pop\n      jump\t// out\n        /* \"https://github.com/OpenZeppelin/openzeppelin-contracts/blob/master/contracts/utils/math/SafeMath.sol\":3122:3218  function sub(uint256 a, uint256 b) internal pure returns (uint256) {... */\n    tag_161:\n        /* \"https://github.com/OpenZeppelin/openzeppelin-contracts/blob/master/contracts/utils/math/SafeMath.sol\":3180:3187  uint256 */\n      0x00\n        /* \"https://github.com/OpenZeppelin/openzeppelin-contracts/blob/master/contracts/utils/math/SafeMath.sol\":3210:3211  b */\n      dup2\n        /* \"https://github.com/OpenZeppelin/openzeppelin-contracts/blob/master/contracts/utils/math/SafeMath.sol\":3206:3207  a */\n      dup4\n        /* \"https://github.com/OpenZeppelin/openzeppelin-contracts/blob/master/contracts/utils/math/SafeMath.sol\":3206:3211  a - b */\n      tag_191\n      swap2\n      swap1\n      tag_192\n      jump\t// in\n    tag_191:\n        /* \"https://github.com/OpenZeppelin/openzeppelin-contracts/blob/master/contracts/utils/math/SafeMath.sol\":3199:3211  return a - b */\n      swap1\n      pop\n        /* \"https://github.com/OpenZeppelin/openzeppelin-contracts/blob/master/contracts/utils/math/SafeMath.sol\":3122:3218  function sub(uint256 a, uint256 b) internal pure returns (uint256) {... */\n      swap3\n      swap2\n      pop\n      pop\n      jump\t// out\n    tag_164:\n      mload(0x40)\n      dup1\n      0xe0\n      add\n      0x40\n      mstore\n      dup1\n      and(0xffffffffffffffffffffffffffffffffffffffff, 0x00)\n      dup2\n      mstore\n      0x20\n      add\n      0x00\n      dup2\n      mstore\n      0x20\n      add\n      0x00\n      dup2\n      mstore\n      0x20\n      add\n      0x00\n      dup2\n      mstore\n      0x20\n      add\n      0x00\n      dup2\n      mstore\n      0x20\n      add\n      0x00\n      dup2\n      mstore\n      0x20\n      add\n      iszero(iszero(0x00))\n      dup2\n      mstore\n      pop\n      swap1\n      jump\t// out\n        /* \"#utility.yul\":7:146   */\n    tag_194:\n      0x00\n        /* \"#utility.yul\":91:97   */\n      dup2\n        /* \"#utility.yul\":78:98   */\n      calldataload\n        /* \"#utility.yul\":69:98   */\n      swap1\n      pop\n        /* \"#utility.yul\":107:140   */\n      tag_196\n        /* \"#utility.yul\":134:139   */\n      dup2\n        /* \"#utility.yul\":107:140   */\n      tag_197\n      jump\t// in\n    tag_196:\n        /* \"#utility.yul\":59:146   */\n      swap3\n      swap2\n      pop\n      pop\n      jump\t// out\n        /* \"#utility.yul\":152:289   */\n    tag_198:\n      0x00\n        /* \"#utility.yul\":237:243   */\n      dup2\n        /* \"#utility.yul\":231:244   */\n      mload\n        /* \"#utility.yul\":222:244   */\n      swap1\n      pop\n        /* \"#utility.yul\":253:283   */\n      tag_200\n        /* \"#utility.yul\":277:282   */\n      dup2\n        /* \"#utility.yul\":253:283   */\n      tag_201\n      jump\t// in\n    tag_200:\n        /* \"#utility.yul\":212:289   */\n      swap3\n      swap2\n      pop\n      pop\n      jump\t// out\n        /* \"#utility.yul\":295:434   */\n    tag_202:\n      0x00\n        /* \"#utility.yul\":379:385   */\n      dup2\n        /* \"#utility.yul\":366:386   */\n      calldataload\n        /* \"#utility.yul\":357:386   */\n      swap1\n      pop\n        /* \"#utility.yul\":395:428   */\n      tag_204\n        /* \"#utility.yul\":422:427   */\n      dup2\n        /* \"#utility.yul\":395:428   */\n      tag_205\n      jump\t// in\n    tag_204:\n        /* \"#utility.yul\":347:434   */\n      swap3\n      swap2\n      pop\n      pop\n      jump\t// out\n        /* \"#utility.yul\":440:702   */\n    tag_39:\n      0x00\n        /* \"#utility.yul\":548:550   */\n      0x20\n        /* \"#utility.yul\":536:545   */\n      dup3\n        /* \"#utility.yul\":527:534   */\n      dup5\n        /* \"#utility.yul\":523:546   */\n      sub\n        /* \"#utility.yul\":519:551   */\n      slt\n        /* \"#utility.yul\":516:518   */\n      iszero\n      tag_207\n      jumpi\n        /* \"#utility.yul\":564:565   */\n      0x00\n        /* \"#utility.yul\":561:562   */\n      dup1\n        /* \"#utility.yul\":554:566   */\n      revert\n        /* \"#utility.yul\":516:518   */\n    tag_207:\n        /* \"#utility.yul\":607:608   */\n      0x00\n        /* \"#utility.yul\":632:685   */\n      tag_208\n        /* \"#utility.yul\":677:684   */\n      dup5\n        /* \"#utility.yul\":668:674   */\n      dup3\n        /* \"#utility.yul\":657:666   */\n      dup6\n        /* \"#utility.yul\":653:675   */\n      add\n        /* \"#utility.yul\":632:685   */\n      tag_194\n      jump\t// in\n    tag_208:\n        /* \"#utility.yul\":622:685   */\n      swap2\n      pop\n        /* \"#utility.yul\":578:695   */\n      pop\n        /* \"#utility.yul\":506:702   */\n      swap3\n      swap2\n      pop\n      pop\n      jump\t// out\n        /* \"#utility.yul\":708:1552   */\n    tag_58:\n      0x00\n      dup1\n      0x00\n      dup1\n      0x00\n        /* \"#utility.yul\":884:887   */\n      0xa0\n        /* \"#utility.yul\":872:881   */\n      dup7\n        /* \"#utility.yul\":863:870   */\n      dup9\n        /* \"#utility.yul\":859:882   */\n      sub\n        /* \"#utility.yul\":855:888   */\n      slt\n        /* \"#utility.yul\":852:854   */\n      iszero\n      tag_210\n      jumpi\n        /* \"#utility.yul\":901:902   */\n      0x00\n        /* \"#utility.yul\":898:899   */\n      dup1\n        /* \"#utility.yul\":891:903   */\n      revert\n        /* \"#utility.yul\":852:854   */\n    tag_210:\n        /* \"#utility.yul\":944:945   */\n      0x00\n        /* \"#utility.yul\":969:1022   */\n      tag_211\n        /* \"#utility.yul\":1014:1021   */\n      dup9\n        /* \"#utility.yul\":1005:1011   */\n      dup3\n        /* \"#utility.yul\":994:1003   */\n      dup10\n        /* \"#utility.yul\":990:1012   */\n      add\n        /* \"#utility.yul\":969:1022   */\n      tag_194\n      jump\t// in\n    tag_211:\n        /* \"#utility.yul\":959:1022   */\n      swap6\n      pop\n        /* \"#utility.yul\":915:1032   */\n      pop\n        /* \"#utility.yul\":1071:1073   */\n      0x20\n        /* \"#utility.yul\":1097:1150   */\n      tag_212\n        /* \"#utility.yul\":1142:1149   */\n      dup9\n        /* \"#utility.yul\":1133:1139   */\n      dup3\n        /* \"#utility.yul\":1122:1131   */\n      dup10\n        /* \"#utility.yul\":1118:1140   */\n      add\n        /* \"#utility.yul\":1097:1150   */\n      tag_202\n      jump\t// in\n    tag_212:\n        /* \"#utility.yul\":1087:1150   */\n      swap5\n      pop\n        /* \"#utility.yul\":1042:1160   */\n      pop\n        /* \"#utility.yul\":1199:1201   */\n      0x40\n        /* \"#utility.yul\":1225:1278   */\n      tag_213\n        /* \"#utility.yul\":1270:1277   */\n      dup9\n        /* \"#utility.yul\":1261:1267   */\n      dup3\n        /* \"#utility.yul\":1250:1259   */\n      dup10\n        /* \"#utility.yul\":1246:1268   */\n      add\n        /* \"#utility.yul\":1225:1278   */\n      tag_202\n      jump\t// in\n    tag_213:\n        /* \"#utility.yul\":1215:1278   */\n      swap4\n      pop\n        /* \"#utility.yul\":1170:1288   */\n      pop\n        /* \"#utility.yul\":1327:1329   */\n      0x60\n        /* \"#utility.yul\":1353:1406   */\n      tag_214\n        /* \"#utility.yul\":1398:1405   */\n      dup9\n        /* \"#utility.yul\":1389:1395   */\n      dup3\n        /* \"#utility.yul\":1378:1387   */\n      dup10\n        /* \"#utility.yul\":1374:1396   */\n      add\n        /* \"#utility.yul\":1353:1406   */\n      tag_202\n      jump\t// in\n    tag_214:\n        /* \"#utility.yul\":1343:1406   */\n      swap3\n      pop\n        /* \"#utility.yul\":1298:1416   */\n      pop\n        /* \"#utility.yul\":1455:1458   */\n      0x80\n        /* \"#utility.yul\":1482:1535   */\n      tag_215\n        /* \"#utility.yul\":1527:1534   */\n      dup9\n        /* \"#utility.yul\":1518:1524   */\n      dup3\n        /* \"#utility.yul\":1507:1516   */\n      dup10\n        /* \"#utility.yul\":1503:1525   */\n      add\n        /* \"#utility.yul\":1482:1535   */\n      tag_202\n      jump\t// in\n    tag_215:\n        /* \"#utility.yul\":1472:1535   */\n      swap2\n      pop\n        /* \"#utility.yul\":1426:1545   */\n      pop\n        /* \"#utility.yul\":842:1552   */\n      swap3\n      swap6\n      pop\n      swap3\n      swap6\n      swap1\n      swap4\n      pop\n      jump\t// out\n        /* \"#utility.yul\":1558:1836   */\n    tag_119:\n      0x00\n        /* \"#utility.yul\":1674:1676   */\n      0x20\n        /* \"#utility.yul\":1662:1671   */\n      dup3\n        /* \"#utility.yul\":1653:1660   */\n      dup5\n        /* \"#utility.yul\":1649:1672   */\n      sub\n        /* \"#utility.yul\":1645:1677   */\n      slt\n        /* \"#utility.yul\":1642:1644   */\n      iszero\n      tag_217\n      jumpi\n        /* \"#utility.yul\":1690:1691   */\n      0x00\n        /* \"#utility.yul\":1687:1688   */\n      dup1\n        /* \"#utility.yul\":1680:1692   */\n      revert\n        /* \"#utility.yul\":1642:1644   */\n    tag_217:\n        /* \"#utility.yul\":1733:1734   */\n      0x00\n        /* \"#utility.yul\":1758:1819   */\n      tag_218\n        /* \"#utility.yul\":1811:1818   */\n      dup5\n        /* \"#utility.yul\":1802:1808   */\n      dup3\n        /* \"#utility.yul\":1791:1800   */\n      dup6\n        /* \"#utility.yul\":1787:1809   */\n      add\n        /* \"#utility.yul\":1758:1819   */\n      tag_198\n      jump\t// in\n    tag_218:\n        /* \"#utility.yul\":1748:1819   */\n      swap2\n      pop\n        /* \"#utility.yul\":1704:1829   */\n      pop\n        /* \"#utility.yul\":1632:1836   */\n      swap3\n      swap2\n      pop\n      pop\n      jump\t// out\n        /* \"#utility.yul\":1842:2104   */\n    tag_25:\n      0x00\n        /* \"#utility.yul\":1950:1952   */\n      0x20\n        /* \"#utility.yul\":1938:1947   */\n      dup3\n        /* \"#utility.yul\":1929:1936   */\n      dup5\n        /* \"#utility.yul\":1925:1948   */\n      sub\n        /* \"#utility.yul\":1921:1953   */\n      slt\n        /* \"#utility.yul\":1918:1920   */\n      iszero\n      tag_220\n      jumpi\n        /* \"#utility.yul\":1966:1967   */\n      0x00\n        /* \"#utility.yul\":1963:1964   */\n      dup1\n        /* \"#utility.yul\":1956:1968   */\n      revert\n        /* \"#utility.yul\":1918:1920   */\n    tag_220:\n        /* \"#utility.yul\":2009:2010   */\n      0x00\n        /* \"#utility.yul\":2034:2087   */\n      tag_221\n        /* \"#utility.yul\":2079:2086   */\n      dup5\n        /* \"#utility.yul\":2070:2076   */\n      dup3\n        /* \"#utility.yul\":2059:2068   */\n      dup6\n        /* \"#utility.yul\":2055:2077   */\n      add\n        /* \"#utility.yul\":2034:2087   */\n      tag_202\n      jump\t// in\n    tag_221:\n        /* \"#utility.yul\":2024:2087   */\n      swap2\n      pop\n        /* \"#utility.yul\":1980:2097   */\n      pop\n        /* \"#utility.yul\":1908:2104   */\n      swap3\n      swap2\n      pop\n      pop\n      jump\t// out\n        /* \"#utility.yul\":2110:2517   */\n    tag_46:\n      0x00\n      dup1\n        /* \"#utility.yul\":2235:2237   */\n      0x40\n        /* \"#utility.yul\":2223:2232   */\n      dup4\n        /* \"#utility.yul\":2214:2221   */\n      dup6\n        /* \"#utility.yul\":2210:2233   */\n      sub\n        /* \"#utility.yul\":2206:2238   */\n      slt\n        /* \"#utility.yul\":2203:2205   */\n      iszero\n      tag_223\n      jumpi\n        /* \"#utility.yul\":2251:2252   */\n      0x00\n        /* \"#utility.yul\":2248:2249   */\n      dup1\n        /* \"#utility.yul\":2241:2253   */\n      revert\n        /* \"#utility.yul\":2203:2205   */\n    tag_223:\n        /* \"#utility.yul\":2294:2295   */\n      0x00\n        /* \"#utility.yul\":2319:2372   */\n      tag_224\n        /* \"#utility.yul\":2364:2371   */\n      dup6\n        /* \"#utility.yul\":2355:2361   */\n      dup3\n        /* \"#utility.yul\":2344:2353   */\n      dup7\n        /* \"#utility.yul\":2340:2362   */\n      add\n        /* \"#utility.yul\":2319:2372   */\n      tag_202\n      jump\t// in\n    tag_224:\n        /* \"#utility.yul\":2309:2372   */\n      swap3\n      pop\n        /* \"#utility.yul\":2265:2382   */\n      pop\n        /* \"#utility.yul\":2421:2423   */\n      0x20\n        /* \"#utility.yul\":2447:2500   */\n      tag_225\n        /* \"#utility.yul\":2492:2499   */\n      dup6\n        /* \"#utility.yul\":2483:2489   */\n      dup3\n        /* \"#utility.yul\":2472:2481   */\n      dup7\n        /* \"#utility.yul\":2468:2490   */\n      add\n        /* \"#utility.yul\":2447:2500   */\n      tag_202\n      jump\t// in\n    tag_225:\n        /* \"#utility.yul\":2437:2500   */\n      swap2\n      pop\n        /* \"#utility.yul\":2392:2510   */\n      pop\n        /* \"#utility.yul\":2193:2517   */\n      swap3\n      pop\n      swap3\n      swap1\n      pop\n      jump\t// out\n        /* \"#utility.yul\":2523:2702   */\n    tag_226:\n      0x00\n        /* \"#utility.yul\":2613:2659   */\n      tag_228\n        /* \"#utility.yul\":2655:2658   */\n      dup4\n        /* \"#utility.yul\":2647:2653   */\n      dup4\n        /* \"#utility.yul\":2613:2659   */\n      tag_229\n      jump\t// in\n    tag_228:\n        /* \"#utility.yul\":2691:2695   */\n      0x20\n        /* \"#utility.yul\":2686:2689   */\n      dup4\n        /* \"#utility.yul\":2682:2696   */\n      add\n        /* \"#utility.yul\":2668:2696   */\n      swap1\n      pop\n        /* \"#utility.yul\":2603:2702   */\n      swap3\n      swap2\n      pop\n      pop\n      jump\t// out\n        /* \"#utility.yul\":2708:2816   */\n    tag_230:\n        /* \"#utility.yul\":2785:2809   */\n      tag_232\n        /* \"#utility.yul\":2803:2808   */\n      dup2\n        /* \"#utility.yul\":2785:2809   */\n      tag_233\n      jump\t// in\n    tag_232:\n        /* \"#utility.yul\":2780:2783   */\n      dup3\n        /* \"#utility.yul\":2773:2810   */\n      mstore\n        /* \"#utility.yul\":2763:2816   */\n      pop\n      pop\n      jump\t// out\n        /* \"#utility.yul\":2822:2940   */\n    tag_234:\n        /* \"#utility.yul\":2909:2933   */\n      tag_236\n        /* \"#utility.yul\":2927:2932   */\n      dup2\n        /* \"#utility.yul\":2909:2933   */\n      tag_233\n      jump\t// in\n    tag_236:\n        /* \"#utility.yul\":2904:2907   */\n      dup3\n        /* \"#utility.yul\":2897:2934   */\n      mstore\n        /* \"#utility.yul\":2887:2940   */\n      pop\n      pop\n      jump\t// out\n        /* \"#utility.yul\":2946:3103   */\n    tag_237:\n        /* \"#utility.yul\":3051:3096   */\n      tag_239\n        /* \"#utility.yul\":3071:3095   */\n      tag_240\n        /* \"#utility.yul\":3089:3094   */\n      dup3\n        /* \"#utility.yul\":3071:3095   */\n      tag_233\n      jump\t// in\n    tag_240:\n        /* \"#utility.yul\":3051:3096   */\n      tag_241\n      jump\t// in\n    tag_239:\n        /* \"#utility.yul\":3046:3049   */\n      dup3\n        /* \"#utility.yul\":3039:3097   */\n      mstore\n        /* \"#utility.yul\":3029:3103   */\n      pop\n      pop\n      jump\t// out\n        /* \"#utility.yul\":3139:3871   */\n    tag_242:\n      0x00\n        /* \"#utility.yul\":3287:3341   */\n      tag_244\n        /* \"#utility.yul\":3335:3340   */\n      dup3\n        /* \"#utility.yul\":3287:3341   */\n      tag_245\n      jump\t// in\n    tag_244:\n        /* \"#utility.yul\":3357:3443   */\n      tag_246\n        /* \"#utility.yul\":3436:3442   */\n      dup2\n        /* \"#utility.yul\":3431:3434   */\n      dup6\n        /* \"#utility.yul\":3357:3443   */\n      tag_247\n      jump\t// in\n    tag_246:\n        /* \"#utility.yul\":3350:3443   */\n      swap4\n      pop\n        /* \"#utility.yul\":3467:3523   */\n      tag_248\n        /* \"#utility.yul\":3517:3522   */\n      dup4\n        /* \"#utility.yul\":3467:3523   */\n      tag_249\n      jump\t// in\n    tag_248:\n        /* \"#utility.yul\":3546:3553   */\n      dup1\n        /* \"#utility.yul\":3577:3578   */\n      0x00\n        /* \"#utility.yul\":3562:3846   */\n    tag_250:\n        /* \"#utility.yul\":3587:3593   */\n      dup4\n        /* \"#utility.yul\":3584:3585   */\n      dup2\n        /* \"#utility.yul\":3581:3594   */\n      lt\n        /* \"#utility.yul\":3562:3846   */\n      iszero\n      tag_252\n      jumpi\n        /* \"#utility.yul\":3663:3669   */\n      dup2\n        /* \"#utility.yul\":3657:3670   */\n      mload\n        /* \"#utility.yul\":3690:3753   */\n      tag_253\n        /* \"#utility.yul\":3749:3752   */\n      dup9\n        /* \"#utility.yul\":3734:3747   */\n      dup3\n        /* \"#utility.yul\":3690:3753   */\n      tag_226\n      jump\t// in\n    tag_253:\n        /* \"#utility.yul\":3683:3753   */\n      swap8\n      pop\n        /* \"#utility.yul\":3776:3836   */\n      tag_254\n        /* \"#utility.yul\":3829:3835   */\n      dup4\n        /* \"#utility.yul\":3776:3836   */\n      tag_255\n      jump\t// in\n    tag_254:\n        /* \"#utility.yul\":3766:3836   */\n      swap3\n      pop\n        /* \"#utility.yul\":3622:3846   */\n      pop\n        /* \"#utility.yul\":3609:3610   */\n      0x01\n        /* \"#utility.yul\":3606:3607   */\n      dup2\n        /* \"#utility.yul\":3602:3611   */\n      add\n        /* \"#utility.yul\":3597:3611   */\n      swap1\n      pop\n        /* \"#utility.yul\":3562:3846   */\n      jump(tag_250)\n    tag_252:\n        /* \"#utility.yul\":3566:3580   */\n      pop\n        /* \"#utility.yul\":3862:3865   */\n      dup6\n        /* \"#utility.yul\":3855:3865   */\n      swap4\n      pop\n        /* \"#utility.yul\":3263:3871   */\n      pop\n      pop\n      pop\n      swap3\n      swap2\n      pop\n      pop\n      jump\t// out\n        /* \"#utility.yul\":3877:3976   */\n    tag_256:\n        /* \"#utility.yul\":3948:3969   */\n      tag_258\n        /* \"#utility.yul\":3963:3968   */\n      dup2\n        /* \"#utility.yul\":3948:3969   */\n      tag_259\n      jump\t// in\n    tag_258:\n        /* \"#utility.yul\":3943:3946   */\n      dup3\n        /* \"#utility.yul\":3936:3970   */\n      mstore\n        /* \"#utility.yul\":3926:3976   */\n      pop\n      pop\n      jump\t// out\n        /* \"#utility.yul\":3982:4351   */\n    tag_260:\n      0x00\n        /* \"#utility.yul\":4145:4212   */\n      tag_262\n        /* \"#utility.yul\":4209:4211   */\n      0x25\n        /* \"#utility.yul\":4204:4207   */\n      dup4\n        /* \"#utility.yul\":4145:4212   */\n      tag_263\n      jump\t// in\n    tag_262:\n        /* \"#utility.yul\":4138:4212   */\n      swap2\n      pop\n        /* \"#utility.yul\":4242:4276   */\n      0x546f6b656e56657374696e673a20536368656d65204964206f7574206f662062\n        /* \"#utility.yul\":4238:4239   */\n      0x00\n        /* \"#utility.yul\":4233:4236   */\n      dup4\n        /* \"#utility.yul\":4229:4240   */\n      add\n        /* \"#utility.yul\":4222:4277   */\n      mstore\n        /* \"#utility.yul\":4308:4315   */\n      0x6f756e6473000000000000000000000000000000000000000000000000000000\n        /* \"#utility.yul\":4303:4305   */\n      0x20\n        /* \"#utility.yul\":4298:4301   */\n      dup4\n        /* \"#utility.yul\":4294:4306   */\n      add\n        /* \"#utility.yul\":4287:4316   */\n      mstore\n        /* \"#utility.yul\":4342:4344   */\n      0x40\n        /* \"#utility.yul\":4337:4340   */\n      dup3\n        /* \"#utility.yul\":4333:4345   */\n      add\n        /* \"#utility.yul\":4326:4345   */\n      swap1\n      pop\n        /* \"#utility.yul\":4128:4351   */\n      swap2\n      swap1\n      pop\n      jump\t// out\n        /* \"#utility.yul\":4357:4727   */\n    tag_264:\n      0x00\n        /* \"#utility.yul\":4520:4587   */\n      tag_266\n        /* \"#utility.yul\":4584:4586   */\n      0x26\n        /* \"#utility.yul\":4579:4582   */\n      dup4\n        /* \"#utility.yul\":4520:4587   */\n      tag_263\n      jump\t// in\n    tag_266:\n        /* \"#utility.yul\":4513:4587   */\n      swap2\n      pop\n        /* \"#utility.yul\":4617:4651   */\n      0x4f776e61626c653a206e6577206f776e657220697320746865207a65726f2061\n        /* \"#utility.yul\":4613:4614   */\n      0x00\n        /* \"#utility.yul\":4608:4611   */\n      dup4\n        /* \"#utility.yul\":4604:4615   */\n      add\n        /* \"#utility.yul\":4597:4652   */\n      mstore\n        /* \"#utility.yul\":4683:4691   */\n      0x6464726573730000000000000000000000000000000000000000000000000000\n        /* \"#utility.yul\":4678:4680   */\n      0x20\n        /* \"#utility.yul\":4673:4676   */\n      dup4\n        /* \"#utility.yul\":4669:4681   */\n      add\n        /* \"#utility.yul\":4662:4692   */\n      mstore\n        /* \"#utility.yul\":4718:4720   */\n      0x40\n        /* \"#utility.yul\":4713:4716   */\n      dup3\n        /* \"#utility.yul\":4709:4721   */\n      add\n        /* \"#utility.yul\":4702:4721   */\n      swap1\n      pop\n        /* \"#utility.yul\":4503:4727   */\n      swap2\n      swap1\n      pop\n      jump\t// out\n        /* \"#utility.yul\":4733:5119   */\n    tag_267:\n      0x00\n        /* \"#utility.yul\":4896:4963   */\n      tag_269\n        /* \"#utility.yul\":4960:4962   */\n      0x36\n        /* \"#utility.yul\":4955:4958   */\n      dup4\n        /* \"#utility.yul\":4896:4963   */\n      tag_263\n      jump\t// in\n    tag_269:\n        /* \"#utility.yul\":4889:4963   */\n      swap2\n      pop\n        /* \"#utility.yul\":4993:5027   */\n      0x546f6b656e56657374696e673a2056657374696e6720706572696f64206d7573\n        /* \"#utility.yul\":4989:4990   */\n      0x00\n        /* \"#utility.yul\":4984:4987   */\n      dup4\n        /* \"#utility.yul\":4980:4991   */\n      add\n        /* \"#utility.yul\":4973:5028   */\n      mstore\n        /* \"#utility.yul\":5059:5083   */\n      0x742062652067726561746572207468616e207a65726f00000000000000000000\n        /* \"#utility.yul\":5054:5056   */\n      0x20\n        /* \"#utility.yul\":5049:5052   */\n      dup4\n        /* \"#utility.yul\":5045:5057   */\n      add\n        /* \"#utility.yul\":5038:5084   */\n      mstore\n        /* \"#utility.yul\":5110:5112   */\n      0x40\n        /* \"#utility.yul\":5105:5108   */\n      dup3\n        /* \"#utility.yul\":5101:5113   */\n      add\n        /* \"#utility.yul\":5094:5113   */\n      swap1\n      pop\n        /* \"#utility.yul\":4879:5119   */\n      swap2\n      swap1\n      pop\n      jump\t// out\n        /* \"#utility.yul\":5125:5557   */\n    tag_270:\n      0x00\n        /* \"#utility.yul\":5288:5355   */\n      tag_272\n        /* \"#utility.yul\":5352:5354   */\n      0x42\n        /* \"#utility.yul\":5347:5350   */\n      dup4\n        /* \"#utility.yul\":5288:5355   */\n      tag_263\n      jump\t// in\n    tag_272:\n        /* \"#utility.yul\":5281:5355   */\n      swap2\n      pop\n        /* \"#utility.yul\":5385:5419   */\n      0x546f6b656e56657374696e673a20536368656d6520636f756e7420666f722074\n        /* \"#utility.yul\":5381:5382   */\n      0x00\n        /* \"#utility.yul\":5376:5379   */\n      dup4\n        /* \"#utility.yul\":5372:5383   */\n      add\n        /* \"#utility.yul\":5365:5420   */\n      mstore\n        /* \"#utility.yul\":5451:5485   */\n      0x6869732062656e6566696369617279206861732072656163686564206c696d69\n        /* \"#utility.yul\":5446:5448   */\n      0x20\n        /* \"#utility.yul\":5441:5444   */\n      dup4\n        /* \"#utility.yul\":5437:5449   */\n      add\n        /* \"#utility.yul\":5430:5486   */\n      mstore\n        /* \"#utility.yul\":5517:5521   */\n      0x742e000000000000000000000000000000000000000000000000000000000000\n        /* \"#utility.yul\":5512:5514   */\n      0x40\n        /* \"#utility.yul\":5507:5510   */\n      dup4\n        /* \"#utility.yul\":5503:5515   */\n      add\n        /* \"#utility.yul\":5496:5522   */\n      mstore\n        /* \"#utility.yul\":5548:5550   */\n      0x60\n        /* \"#utility.yul\":5543:5546   */\n      dup3\n        /* \"#utility.yul\":5539:5551   */\n      add\n        /* \"#utility.yul\":5532:5551   */\n      swap1\n      pop\n        /* \"#utility.yul\":5271:5557   */\n      swap2\n      swap1\n      pop\n      jump\t// out\n        /* \"#utility.yul\":5563:5947   */\n    tag_273:\n      0x00\n        /* \"#utility.yul\":5726:5793   */\n      tag_275\n        /* \"#utility.yul\":5790:5792   */\n      0x34\n        /* \"#utility.yul\":5785:5788   */\n      dup4\n        /* \"#utility.yul\":5726:5793   */\n      tag_263\n      jump\t// in\n    tag_275:\n        /* \"#utility.yul\":5719:5793   */\n      swap2\n      pop\n        /* \"#utility.yul\":5823:5857   */\n      0x546f6b656e56657374696e673a2043616e6e6f7420616464207a65726f206164\n        /* \"#utility.yul\":5819:5820   */\n      0x00\n        /* \"#utility.yul\":5814:5817   */\n      dup4\n        /* \"#utility.yul\":5810:5821   */\n      add\n        /* \"#utility.yul\":5803:5858   */\n      mstore\n        /* \"#utility.yul\":5889:5911   */\n      0x64726573732061732062656e6566696369617279000000000000000000000000\n        /* \"#utility.yul\":5884:5886   */\n      0x20\n        /* \"#utility.yul\":5879:5882   */\n      dup4\n        /* \"#utility.yul\":5875:5887   */\n      add\n        /* \"#utility.yul\":5868:5912   */\n      mstore\n        /* \"#utility.yul\":5938:5940   */\n      0x40\n        /* \"#utility.yul\":5933:5936   */\n      dup3\n        /* \"#utility.yul\":5929:5941   */\n      add\n        /* \"#utility.yul\":5922:5941   */\n      swap1\n      pop\n        /* \"#utility.yul\":5709:5947   */\n      swap2\n      swap1\n      pop\n      jump\t// out\n        /* \"#utility.yul\":5953:6349   */\n    tag_276:\n      0x00\n        /* \"#utility.yul\":6116:6183   */\n      tag_278\n        /* \"#utility.yul\":6180:6182   */\n      0x40\n        /* \"#utility.yul\":6175:6178   */\n      dup4\n        /* \"#utility.yul\":6116:6183   */\n      tag_263\n      jump\t// in\n    tag_278:\n        /* \"#utility.yul\":6109:6183   */\n      swap2\n      pop\n        /* \"#utility.yul\":6213:6247   */\n      0x546f6b656e56657374696e673a2056657374696e6720536368656d6520697320\n        /* \"#utility.yul\":6209:6210   */\n      0x00\n        /* \"#utility.yul\":6204:6207   */\n      dup4\n        /* \"#utility.yul\":6200:6211   */\n      add\n        /* \"#utility.yul\":6193:6248   */\n      mstore\n        /* \"#utility.yul\":6279:6313   */\n      0x6569746865722064656c65746564206f7220646f6573206e6f74206578697374\n        /* \"#utility.yul\":6274:6276   */\n      0x20\n        /* \"#utility.yul\":6269:6272   */\n      dup4\n        /* \"#utility.yul\":6265:6277   */\n      add\n        /* \"#utility.yul\":6258:6314   */\n      mstore\n        /* \"#utility.yul\":6340:6342   */\n      0x40\n        /* \"#utility.yul\":6335:6338   */\n      dup3\n        /* \"#utility.yul\":6331:6343   */\n      add\n        /* \"#utility.yul\":6324:6343   */\n      swap1\n      pop\n        /* \"#utility.yul\":6099:6349   */\n      swap2\n      swap1\n      pop\n      jump\t// out\n        /* \"#utility.yul\":6355:6739   */\n    tag_279:\n      0x00\n        /* \"#utility.yul\":6518:6585   */\n      tag_281\n        /* \"#utility.yul\":6582:6584   */\n      0x34\n        /* \"#utility.yul\":6577:6580   */\n      dup4\n        /* \"#utility.yul\":6518:6585   */\n      tag_263\n      jump\t// in\n    tag_281:\n        /* \"#utility.yul\":6511:6585   */\n      swap2\n      pop\n        /* \"#utility.yul\":6615:6649   */\n      0x546f6b656e56657374696e673a205665737461626c6520616d6f756e74206d75\n        /* \"#utility.yul\":6611:6612   */\n      0x00\n        /* \"#utility.yul\":6606:6609   */\n      dup4\n        /* \"#utility.yul\":6602:6613   */\n      add\n        /* \"#utility.yul\":6595:6650   */\n      mstore\n        /* \"#utility.yul\":6681:6703   */\n      0x73742062652067726561746572207468616e2030000000000000000000000000\n        /* \"#utility.yul\":6676:6678   */\n      0x20\n        /* \"#utility.yul\":6671:6674   */\n      dup4\n        /* \"#utility.yul\":6667:6679   */\n      add\n        /* \"#utility.yul\":6660:6704   */\n      mstore\n        /* \"#utility.yul\":6730:6732   */\n      0x40\n        /* \"#utility.yul\":6725:6728   */\n      dup3\n        /* \"#utility.yul\":6721:6733   */\n      add\n        /* \"#utility.yul\":6714:6733   */\n      swap1\n      pop\n        /* \"#utility.yul\":6501:6739   */\n      swap2\n      swap1\n      pop\n      jump\t// out\n        /* \"#utility.yul\":6745:7075   */\n    tag_282:\n      0x00\n        /* \"#utility.yul\":6908:6975   */\n      tag_284\n        /* \"#utility.yul\":6972:6974   */\n      0x20\n        /* \"#utility.yul\":6967:6970   */\n      dup4\n        /* \"#utility.yul\":6908:6975   */\n      tag_263\n      jump\t// in\n    tag_284:\n        /* \"#utility.yul\":6901:6975   */\n      swap2\n      pop\n        /* \"#utility.yul\":7005:7039   */\n      0x4f776e61626c653a2063616c6c6572206973206e6f7420746865206f776e6572\n        /* \"#utility.yul\":7001:7002   */\n      0x00\n        /* \"#utility.yul\":6996:6999   */\n      dup4\n        /* \"#utility.yul\":6992:7003   */\n      add\n        /* \"#utility.yul\":6985:7040   */\n      mstore\n        /* \"#utility.yul\":7066:7068   */\n      0x20\n        /* \"#utility.yul\":7061:7064   */\n      dup3\n        /* \"#utility.yul\":7057:7069   */\n      add\n        /* \"#utility.yul\":7050:7069   */\n      swap1\n      pop\n        /* \"#utility.yul\":6891:7075   */\n      swap2\n      swap1\n      pop\n      jump\t// out\n        /* \"#utility.yul\":7081:7462   */\n    tag_285:\n      0x00\n        /* \"#utility.yul\":7244:7311   */\n      tag_287\n        /* \"#utility.yul\":7308:7310   */\n      0x31\n        /* \"#utility.yul\":7303:7306   */\n      dup4\n        /* \"#utility.yul\":7244:7311   */\n      tag_263\n      jump\t// in\n    tag_287:\n        /* \"#utility.yul\":7237:7311   */\n      swap2\n      pop\n        /* \"#utility.yul\":7341:7375   */\n      0x546f6b656e56657374696e673a2043616c6c6572206d757374206265206f776e\n        /* \"#utility.yul\":7337:7338   */\n      0x00\n        /* \"#utility.yul\":7332:7335   */\n      dup4\n        /* \"#utility.yul\":7328:7339   */\n      add\n        /* \"#utility.yul\":7321:7376   */\n      mstore\n        /* \"#utility.yul\":7407:7426   */\n      0x6572206f722062656e6566696369617279000000000000000000000000000000\n        /* \"#utility.yul\":7402:7404   */\n      0x20\n        /* \"#utility.yul\":7397:7400   */\n      dup4\n        /* \"#utility.yul\":7393:7405   */\n      add\n        /* \"#utility.yul\":7386:7427   */\n      mstore\n        /* \"#utility.yul\":7453:7455   */\n      0x40\n        /* \"#utility.yul\":7448:7451   */\n      dup3\n        /* \"#utility.yul\":7444:7456   */\n      add\n        /* \"#utility.yul\":7437:7456   */\n      swap1\n      pop\n        /* \"#utility.yul\":7227:7462   */\n      swap2\n      swap1\n      pop\n      jump\t// out\n        /* \"#utility.yul\":7546:8967   */\n    tag_288:\n        /* \"#utility.yul\":7701:7705   */\n      0xe0\n        /* \"#utility.yul\":7696:7699   */\n      dup3\n        /* \"#utility.yul\":7692:7706   */\n      add\n        /* \"#utility.yul\":7795:7799   */\n      0x00\n        /* \"#utility.yul\":7788:7793   */\n      dup3\n        /* \"#utility.yul\":7784:7800   */\n      add\n        /* \"#utility.yul\":7778:7801   */\n      mload\n        /* \"#utility.yul\":7814:7877   */\n      tag_290\n        /* \"#utility.yul\":7871:7875   */\n      0x00\n        /* \"#utility.yul\":7866:7869   */\n      dup6\n        /* \"#utility.yul\":7862:7876   */\n      add\n        /* \"#utility.yul\":7848:7860   */\n      dup3\n        /* \"#utility.yul\":7814:7877   */\n      tag_230\n      jump\t// in\n    tag_290:\n        /* \"#utility.yul\":7716:7887   */\n      pop\n        /* \"#utility.yul\":7974:7978   */\n      0x20\n        /* \"#utility.yul\":7967:7972   */\n      dup3\n        /* \"#utility.yul\":7963:7979   */\n      add\n        /* \"#utility.yul\":7957:7980   */\n      mload\n        /* \"#utility.yul\":7993:8056   */\n      tag_291\n        /* \"#utility.yul\":8050:8054   */\n      0x20\n        /* \"#utility.yul\":8045:8048   */\n      dup6\n        /* \"#utility.yul\":8041:8055   */\n      add\n        /* \"#utility.yul\":8027:8039   */\n      dup3\n        /* \"#utility.yul\":7993:8056   */\n      tag_229\n      jump\t// in\n    tag_291:\n        /* \"#utility.yul\":7897:8066   */\n      pop\n        /* \"#utility.yul\":8152:8156   */\n      0x40\n        /* \"#utility.yul\":8145:8150   */\n      dup3\n        /* \"#utility.yul\":8141:8157   */\n      add\n        /* \"#utility.yul\":8135:8158   */\n      mload\n        /* \"#utility.yul\":8171:8234   */\n      tag_292\n        /* \"#utility.yul\":8228:8232   */\n      0x40\n        /* \"#utility.yul\":8223:8226   */\n      dup6\n        /* \"#utility.yul\":8219:8233   */\n      add\n        /* \"#utility.yul\":8205:8217   */\n      dup3\n        /* \"#utility.yul\":8171:8234   */\n      tag_229\n      jump\t// in\n    tag_292:\n        /* \"#utility.yul\":8076:8244   */\n      pop\n        /* \"#utility.yul\":8337:8341   */\n      0x60\n        /* \"#utility.yul\":8330:8335   */\n      dup3\n        /* \"#utility.yul\":8326:8342   */\n      add\n        /* \"#utility.yul\":8320:8343   */\n      mload\n        /* \"#utility.yul\":8356:8419   */\n      tag_293\n        /* \"#utility.yul\":8413:8417   */\n      0x60\n        /* \"#utility.yul\":8408:8411   */\n      dup6\n        /* \"#utility.yul\":8404:8418   */\n      add\n        /* \"#utility.yul\":8390:8402   */\n      dup3\n        /* \"#utility.yul\":8356:8419   */\n      tag_229\n      jump\t// in\n    tag_293:\n        /* \"#utility.yul\":8254:8429   */\n      pop\n        /* \"#utility.yul\":8513:8517   */\n      0x80\n        /* \"#utility.yul\":8506:8511   */\n      dup3\n        /* \"#utility.yul\":8502:8518   */\n      add\n        /* \"#utility.yul\":8496:8519   */\n      mload\n        /* \"#utility.yul\":8532:8595   */\n      tag_294\n        /* \"#utility.yul\":8589:8593   */\n      0x80\n        /* \"#utility.yul\":8584:8587   */\n      dup6\n        /* \"#utility.yul\":8580:8594   */\n      add\n        /* \"#utility.yul\":8566:8578   */\n      dup3\n        /* \"#utility.yul\":8532:8595   */\n      tag_229\n      jump\t// in\n    tag_294:\n        /* \"#utility.yul\":8439:8605   */\n      pop\n        /* \"#utility.yul\":8697:8701   */\n      0xa0\n        /* \"#utility.yul\":8690:8695   */\n      dup3\n        /* \"#utility.yul\":8686:8702   */\n      add\n        /* \"#utility.yul\":8680:8703   */\n      mload\n        /* \"#utility.yul\":8716:8779   */\n      tag_295\n        /* \"#utility.yul\":8773:8777   */\n      0xa0\n        /* \"#utility.yul\":8768:8771   */\n      dup6\n        /* \"#utility.yul\":8764:8778   */\n      add\n        /* \"#utility.yul\":8750:8762   */\n      dup3\n        /* \"#utility.yul\":8716:8779   */\n      tag_229\n      jump\t// in\n    tag_295:\n        /* \"#utility.yul\":8615:8789   */\n      pop\n        /* \"#utility.yul\":8874:8878   */\n      0xc0\n        /* \"#utility.yul\":8867:8872   */\n      dup3\n        /* \"#utility.yul\":8863:8879   */\n      add\n        /* \"#utility.yul\":8857:8880   */\n      mload\n        /* \"#utility.yul\":8893:8950   */\n      tag_296\n        /* \"#utility.yul\":8944:8948   */\n      0xc0\n        /* \"#utility.yul\":8939:8942   */\n      dup6\n        /* \"#utility.yul\":8935:8949   */\n      add\n        /* \"#utility.yul\":8921:8933   */\n      dup3\n        /* \"#utility.yul\":8893:8950   */\n      tag_256\n      jump\t// in\n    tag_296:\n        /* \"#utility.yul\":8799:8960   */\n      pop\n        /* \"#utility.yul\":7670:8967   */\n      pop\n      pop\n      pop\n      jump\t// out\n        /* \"#utility.yul\":8973:9081   */\n    tag_229:\n        /* \"#utility.yul\":9050:9074   */\n      tag_298\n        /* \"#utility.yul\":9068:9073   */\n      dup2\n        /* \"#utility.yul\":9050:9074   */\n      tag_299\n      jump\t// in\n    tag_298:\n        /* \"#utility.yul\":9045:9048   */\n      dup3\n        /* \"#utility.yul\":9038:9075   */\n      mstore\n        /* \"#utility.yul\":9028:9081   */\n      pop\n      pop\n      jump\t// out\n        /* \"#utility.yul\":9087:9205   */\n    tag_300:\n        /* \"#utility.yul\":9174:9198   */\n      tag_302\n        /* \"#utility.yul\":9192:9197   */\n      dup2\n        /* \"#utility.yul\":9174:9198   */\n      tag_299\n      jump\t// in\n    tag_302:\n        /* \"#utility.yul\":9169:9172   */\n      dup3\n        /* \"#utility.yul\":9162:9199   */\n      mstore\n        /* \"#utility.yul\":9152:9205   */\n      pop\n      pop\n      jump\t// out\n        /* \"#utility.yul\":9211:9368   */\n    tag_303:\n        /* \"#utility.yul\":9316:9361   */\n      tag_305\n        /* \"#utility.yul\":9336:9360   */\n      tag_306\n        /* \"#utility.yul\":9354:9359   */\n      dup3\n        /* \"#utility.yul\":9336:9360   */\n      tag_299\n      jump\t// in\n    tag_306:\n        /* \"#utility.yul\":9316:9361   */\n      tag_307\n      jump\t// in\n    tag_305:\n        /* \"#utility.yul\":9311:9314   */\n      dup3\n        /* \"#utility.yul\":9304:9362   */\n      mstore\n        /* \"#utility.yul\":9294:9368   */\n      pop\n      pop\n      jump\t// out\n        /* \"#utility.yul\":9374:9771   */\n    tag_187:\n      0x00\n        /* \"#utility.yul\":9529:9604   */\n      tag_309\n        /* \"#utility.yul\":9600:9603   */\n      dup3\n        /* \"#utility.yul\":9591:9597   */\n      dup6\n        /* \"#utility.yul\":9529:9604   */\n      tag_237\n      jump\t// in\n    tag_309:\n        /* \"#utility.yul\":9629:9631   */\n      0x14\n        /* \"#utility.yul\":9624:9627   */\n      dup3\n        /* \"#utility.yul\":9620:9632   */\n      add\n        /* \"#utility.yul\":9613:9632   */\n      swap2\n      pop\n        /* \"#utility.yul\":9642:9717   */\n      tag_310\n        /* \"#utility.yul\":9713:9716   */\n      dup3\n        /* \"#utility.yul\":9704:9710   */\n      dup5\n        /* \"#utility.yul\":9642:9717   */\n      tag_303\n      jump\t// in\n    tag_310:\n        /* \"#utility.yul\":9742:9744   */\n      0x20\n        /* \"#utility.yul\":9737:9740   */\n      dup3\n        /* \"#utility.yul\":9733:9745   */\n      add\n        /* \"#utility.yul\":9726:9745   */\n      swap2\n      pop\n        /* \"#utility.yul\":9762:9765   */\n      dup2\n        /* \"#utility.yul\":9755:9765   */\n      swap1\n      pop\n        /* \"#utility.yul\":9518:9771   */\n      swap4\n      swap3\n      pop\n      pop\n      pop\n      jump\t// out\n        /* \"#utility.yul\":9777:9999   */\n    tag_64:\n      0x00\n        /* \"#utility.yul\":9908:9910   */\n      0x20\n        /* \"#utility.yul\":9897:9906   */\n      dup3\n        /* \"#utility.yul\":9893:9911   */\n      add\n        /* \"#utility.yul\":9885:9911   */\n      swap1\n      pop\n        /* \"#utility.yul\":9921:9992   */\n      tag_312\n        /* \"#utility.yul\":9989:9990   */\n      0x00\n        /* \"#utility.yul\":9978:9987   */\n      dup4\n        /* \"#utility.yul\":9974:9991   */\n      add\n        /* \"#utility.yul\":9965:9971   */\n      dup5\n        /* \"#utility.yul\":9921:9992   */\n      tag_234\n      jump\t// in\n    tag_312:\n        /* \"#utility.yul\":9875:9999   */\n      swap3\n      swap2\n      pop\n      pop\n      jump\t// out\n        /* \"#utility.yul\":10005:10337   */\n    tag_114:\n      0x00\n        /* \"#utility.yul\":10164:10166   */\n      0x40\n        /* \"#utility.yul\":10153:10162   */\n      dup3\n        /* \"#utility.yul\":10149:10167   */\n      add\n        /* \"#utility.yul\":10141:10167   */\n      swap1\n      pop\n        /* \"#utility.yul\":10177:10248   */\n      tag_314\n        /* \"#utility.yul\":10245:10246   */\n      0x00\n        /* \"#utility.yul\":10234:10243   */\n      dup4\n        /* \"#utility.yul\":10230:10247   */\n      add\n        /* \"#utility.yul\":10221:10227   */\n      dup6\n        /* \"#utility.yul\":10177:10248   */\n      tag_234\n      jump\t// in\n    tag_314:\n        /* \"#utility.yul\":10258:10330   */\n      tag_315\n        /* \"#utility.yul\":10326:10328   */\n      0x20\n        /* \"#utility.yul\":10315:10324   */\n      dup4\n        /* \"#utility.yul\":10311:10329   */\n      add\n        /* \"#utility.yul\":10302:10308   */\n      dup5\n        /* \"#utility.yul\":10258:10330   */\n      tag_300\n      jump\t// in\n    tag_315:\n        /* \"#utility.yul\":10131:10337   */\n      swap4\n      swap3\n      pop\n      pop\n      pop\n      jump\t// out\n        /* \"#utility.yul\":10343:10716   */\n    tag_42:\n      0x00\n        /* \"#utility.yul\":10524:10526   */\n      0x20\n        /* \"#utility.yul\":10513:10522   */\n      dup3\n        /* \"#utility.yul\":10509:10527   */\n      add\n        /* \"#utility.yul\":10501:10527   */\n      swap1\n      pop\n        /* \"#utility.yul\":10573:10582   */\n      dup2\n        /* \"#utility.yul\":10567:10571   */\n      dup2\n        /* \"#utility.yul\":10563:10583   */\n      sub\n        /* \"#utility.yul\":10559:10560   */\n      0x00\n        /* \"#utility.yul\":10548:10557   */\n      dup4\n        /* \"#utility.yul\":10544:10561   */\n      add\n        /* \"#utility.yul\":10537:10584   */\n      mstore\n        /* \"#utility.yul\":10601:10709   */\n      tag_317\n        /* \"#utility.yul\":10704:10708   */\n      dup2\n        /* \"#utility.yul\":10695:10701   */\n      dup5\n        /* \"#utility.yul\":10601:10709   */\n      tag_242\n      jump\t// in\n    tag_317:\n        /* \"#utility.yul\":10593:10709   */\n      swap1\n      pop\n        /* \"#utility.yul\":10491:10716   */\n      swap3\n      swap2\n      pop\n      pop\n      jump\t// out\n        /* \"#utility.yul\":10722:11141   */\n    tag_156:\n      0x00\n        /* \"#utility.yul\":10926:10928   */\n      0x20\n        /* \"#utility.yul\":10915:10924   */\n      dup3\n        /* \"#utility.yul\":10911:10929   */\n      add\n        /* \"#utility.yul\":10903:10929   */\n      swap1\n      pop\n        /* \"#utility.yul\":10975:10984   */\n      dup2\n        /* \"#utility.yul\":10969:10973   */\n      dup2\n        /* \"#utility.yul\":10965:10985   */\n      sub\n        /* \"#utility.yul\":10961:10962   */\n      0x00\n        /* \"#utility.yul\":10950:10959   */\n      dup4\n        /* \"#utility.yul\":10946:10963   */\n      add\n        /* \"#utility.yul\":10939:10986   */\n      mstore\n        /* \"#utility.yul\":11003:11134   */\n      tag_319\n        /* \"#utility.yul\":11129:11133   */\n      dup2\n        /* \"#utility.yul\":11003:11134   */\n      tag_260\n      jump\t// in\n    tag_319:\n        /* \"#utility.yul\":10995:11134   */\n      swap1\n      pop\n        /* \"#utility.yul\":10893:11141   */\n      swap2\n      swap1\n      pop\n      jump\t// out\n        /* \"#utility.yul\":11147:11566   */\n    tag_178:\n      0x00\n        /* \"#utility.yul\":11351:11353   */\n      0x20\n        /* \"#utility.yul\":11340:11349   */\n      dup3\n        /* \"#utility.yul\":11336:11354   */\n      add\n        /* \"#utility.yul\":11328:11354   */\n      swap1\n      pop\n        /* \"#utility.yul\":11400:11409   */\n      dup2\n        /* \"#utility.yul\":11394:11398   */\n      dup2\n        /* \"#utility.yul\":11390:11410   */\n      sub\n        /* \"#utility.yul\":11386:11387   */\n      0x00\n        /* \"#utility.yul\":11375:11384   */\n      dup4\n        /* \"#utility.yul\":11371:11388   */\n      add\n        /* \"#utility.yul\":11364:11411   */\n      mstore\n        /* \"#utility.yul\":11428:11559   */\n      tag_321\n        /* \"#utility.yul\":11554:11558   */\n      dup2\n        /* \"#utility.yul\":11428:11559   */\n      tag_264\n      jump\t// in\n    tag_321:\n        /* \"#utility.yul\":11420:11559   */\n      swap1\n      pop\n        /* \"#utility.yul\":11318:11566   */\n      swap2\n      swap1\n      pop\n      jump\t// out\n        /* \"#utility.yul\":11572:11991   */\n    tag_140:\n      0x00\n        /* \"#utility.yul\":11776:11778   */\n      0x20\n        /* \"#utility.yul\":11765:11774   */\n      dup3\n        /* \"#utility.yul\":11761:11779   */\n      add\n        /* \"#utility.yul\":11753:11779   */\n      swap1\n      pop\n        /* \"#utility.yul\":11825:11834   */\n      dup2\n        /* \"#utility.yul\":11819:11823   */\n      dup2\n        /* \"#utility.yul\":11815:11835   */\n      sub\n        /* \"#utility.yul\":11811:11812   */\n      0x00\n        /* \"#utility.yul\":11800:11809   */\n      dup4\n        /* \"#utility.yul\":11796:11813   */\n      add\n        /* \"#utility.yul\":11789:11836   */\n      mstore\n        /* \"#utility.yul\":11853:11984   */\n      tag_323\n        /* \"#utility.yul\":11979:11983   */\n      dup2\n        /* \"#utility.yul\":11853:11984   */\n      tag_267\n      jump\t// in\n    tag_323:\n        /* \"#utility.yul\":11845:11984   */\n      swap1\n      pop\n        /* \"#utility.yul\":11743:11991   */\n      swap2\n      swap1\n      pop\n      jump\t// out\n        /* \"#utility.yul\":11997:12416   */\n    tag_146:\n      0x00\n        /* \"#utility.yul\":12201:12203   */\n      0x20\n        /* \"#utility.yul\":12190:12199   */\n      dup3\n        /* \"#utility.yul\":12186:12204   */\n      add\n        /* \"#utility.yul\":12178:12204   */\n      swap1\n      pop\n        /* \"#utility.yul\":12250:12259   */\n      dup2\n        /* \"#utility.yul\":12244:12248   */\n      dup2\n        /* \"#utility.yul\":12240:12260   */\n      sub\n        /* \"#utility.yul\":12236:12237   */\n      0x00\n        /* \"#utility.yul\":12225:12234   */\n      dup4\n        /* \"#utility.yul\":12221:12238   */\n      add\n        /* \"#utility.yul\":12214:12261   */\n      mstore\n        /* \"#utility.yul\":12278:12409   */\n      tag_325\n        /* \"#utility.yul\":12404:12408   */\n      dup2\n        /* \"#utility.yul\":12278:12409   */\n      tag_270\n      jump\t// in\n    tag_325:\n        /* \"#utility.yul\":12270:12409   */\n      swap1\n      pop\n        /* \"#utility.yul\":12168:12416   */\n      swap2\n      swap1\n      pop\n      jump\t// out\n        /* \"#utility.yul\":12422:12841   */\n    tag_137:\n      0x00\n        /* \"#utility.yul\":12626:12628   */\n      0x20\n        /* \"#utility.yul\":12615:12624   */\n      dup3\n        /* \"#utility.yul\":12611:12629   */\n      add\n        /* \"#utility.yul\":12603:12629   */\n      swap1\n      pop\n        /* \"#utility.yul\":12675:12684   */\n      dup2\n        /* \"#utility.yul\":12669:12673   */\n      dup2\n        /* \"#utility.yul\":12665:12685   */\n      sub\n        /* \"#utility.yul\":12661:12662   */\n      0x00\n        /* \"#utility.yul\":12650:12659   */\n      dup4\n        /* \"#utility.yul\":12646:12663   */\n      add\n        /* \"#utility.yul\":12639:12686   */\n      mstore\n        /* \"#utility.yul\":12703:12834   */\n      tag_327\n        /* \"#utility.yul\":12829:12833   */\n      dup2\n        /* \"#utility.yul\":12703:12834   */\n      tag_273\n      jump\t// in\n    tag_327:\n        /* \"#utility.yul\":12695:12834   */\n      swap1\n      pop\n        /* \"#utility.yul\":12593:12841   */\n      swap2\n      swap1\n      pop\n      jump\t// out\n        /* \"#utility.yul\":12847:13266   */\n    tag_159:\n      0x00\n        /* \"#utility.yul\":13051:13053   */\n      0x20\n        /* \"#utility.yul\":13040:13049   */\n      dup3\n        /* \"#utility.yul\":13036:13054   */\n      add\n        /* \"#utility.yul\":13028:13054   */\n      swap1\n      pop\n        /* \"#utility.yul\":13100:13109   */\n      dup2\n        /* \"#utility.yul\":13094:13098   */\n      dup2\n        /* \"#utility.yul\":13090:13110   */\n      sub\n        /* \"#utility.yul\":13086:13087   */\n      0x00\n        /* \"#utility.yul\":13075:13084   */\n      dup4\n        /* \"#utility.yul\":13071:13088   */\n      add\n        /* \"#utility.yul\":13064:13111   */\n      mstore\n        /* \"#utility.yul\":13128:13259   */\n      tag_329\n        /* \"#utility.yul\":13254:13258   */\n      dup2\n        /* \"#utility.yul\":13128:13259   */\n      tag_276\n      jump\t// in\n    tag_329:\n        /* \"#utility.yul\":13120:13259   */\n      swap1\n      pop\n        /* \"#utility.yul\":13018:13266   */\n      swap2\n      swap1\n      pop\n      jump\t// out\n        /* \"#utility.yul\":13272:13691   */\n    tag_143:\n      0x00\n        /* \"#utility.yul\":13476:13478   */\n      0x20\n        /* \"#utility.yul\":13465:13474   */\n      dup3\n        /* \"#utility.yul\":13461:13479   */\n      add\n        /* \"#utility.yul\":13453:13479   */\n      swap1\n      pop\n        /* \"#utility.yul\":13525:13534   */\n      dup2\n        /* \"#utility.yul\":13519:13523   */\n      dup2\n        /* \"#utility.yul\":13515:13535   */\n      sub\n        /* \"#utility.yul\":13511:13512   */\n      0x00\n        /* \"#utility.yul\":13500:13509   */\n      dup4\n        /* \"#utility.yul\":13496:13513   */\n      add\n        /* \"#utility.yul\":13489:13536   */\n      mstore\n        /* \"#utility.yul\":13553:13684   */\n      tag_331\n        /* \"#utility.yul\":13679:13683   */\n      dup2\n        /* \"#utility.yul\":13553:13684   */\n      tag_279\n      jump\t// in\n    tag_331:\n        /* \"#utility.yul\":13545:13684   */\n      swap1\n      pop\n        /* \"#utility.yul\":13443:13691   */\n      swap2\n      swap1\n      pop\n      jump\t// out\n        /* \"#utility.yul\":13697:14116   */\n    tag_90:\n      0x00\n        /* \"#utility.yul\":13901:13903   */\n      0x20\n        /* \"#utility.yul\":13890:13899   */\n      dup3\n        /* \"#utility.yul\":13886:13904   */\n      add\n        /* \"#utility.yul\":13878:13904   */\n      swap1\n      pop\n        /* \"#utility.yul\":13950:13959   */\n      dup2\n        /* \"#utility.yul\":13944:13948   */\n      dup2\n        /* \"#utility.yul\":13940:13960   */\n      sub\n        /* \"#utility.yul\":13936:13937   */\n      0x00\n        /* \"#utility.yul\":13925:13934   */\n      dup4\n        /* \"#utility.yul\":13921:13938   */\n      add\n        /* \"#utility.yul\":13914:13961   */\n      mstore\n        /* \"#utility.yul\":13978:14109   */\n      tag_333\n        /* \"#utility.yul\":14104:14108   */\n      dup2\n        /* \"#utility.yul\":13978:14109   */\n      tag_282\n      jump\t// in\n    tag_333:\n        /* \"#utility.yul\":13970:14109   */\n      swap1\n      pop\n        /* \"#utility.yul\":13868:14116   */\n      swap2\n      swap1\n      pop\n      jump\t// out\n        /* \"#utility.yul\":14122:14541   */\n    tag_110:\n      0x00\n        /* \"#utility.yul\":14326:14328   */\n      0x20\n        /* \"#utility.yul\":14315:14324   */\n      dup3\n        /* \"#utility.yul\":14311:14329   */\n      add\n        /* \"#utility.yul\":14303:14329   */\n      swap1\n      pop\n        /* \"#utility.yul\":14375:14384   */\n      dup2\n        /* \"#utility.yul\":14369:14373   */\n      dup2\n        /* \"#utility.yul\":14365:14385   */\n      sub\n        /* \"#utility.yul\":14361:14362   */\n      0x00\n        /* \"#utility.yul\":14350:14359   */\n      dup4\n        /* \"#utility.yul\":14346:14363   */\n      add\n        /* \"#utility.yul\":14339:14386   */\n      mstore\n        /* \"#utility.yul\":14403:14534   */\n      tag_335\n        /* \"#utility.yul\":14529:14533   */\n      dup2\n        /* \"#utility.yul\":14403:14534   */\n      tag_285\n      jump\t// in\n    tag_335:\n        /* \"#utility.yul\":14395:14534   */\n      swap1\n      pop\n        /* \"#utility.yul\":14293:14541   */\n      swap2\n      swap1\n      pop\n      jump\t// out\n        /* \"#utility.yul\":14547:14886   */\n    tag_79:\n      0x00\n        /* \"#utility.yul\":14736:14739   */\n      0xe0\n        /* \"#utility.yul\":14725:14734   */\n      dup3\n        /* \"#utility.yul\":14721:14740   */\n      add\n        /* \"#utility.yul\":14713:14740   */\n      swap1\n      pop\n        /* \"#utility.yul\":14750:14879   */\n      tag_337\n        /* \"#utility.yul\":14876:14877   */\n      0x00\n        /* \"#utility.yul\":14865:14874   */\n      dup4\n        /* \"#utility.yul\":14861:14878   */\n      add\n        /* \"#utility.yul\":14852:14858   */\n      dup5\n        /* \"#utility.yul\":14750:14879   */\n      tag_288\n      jump\t// in\n    tag_337:\n        /* \"#utility.yul\":14703:14886   */\n      swap3\n      swap2\n      pop\n      pop\n      jump\t// out\n        /* \"#utility.yul\":14892:15114   */\n    tag_35:\n      0x00\n        /* \"#utility.yul\":15023:15025   */\n      0x20\n        /* \"#utility.yul\":15012:15021   */\n      dup3\n        /* \"#utility.yul\":15008:15026   */\n      add\n        /* \"#utility.yul\":15000:15026   */\n      swap1\n      pop\n        /* \"#utility.yul\":15036:15107   */\n      tag_339\n        /* \"#utility.yul\":15104:15105   */\n      0x00\n        /* \"#utility.yul\":15093:15102   */\n      dup4\n        /* \"#utility.yul\":15089:15106   */\n      add\n        /* \"#utility.yul\":15080:15086   */\n      dup5\n        /* \"#utility.yul\":15036:15107   */\n      tag_300\n      jump\t// in\n    tag_339:\n        /* \"#utility.yul\":14990:15114   */\n      swap3\n      swap2\n      pop\n      pop\n      jump\t// out\n        /* \"#utility.yul\":15120:15252   */\n    tag_249:\n      0x00\n        /* \"#utility.yul\":15210:15213   */\n      dup2\n        /* \"#utility.yul\":15202:15213   */\n      swap1\n      pop\n        /* \"#utility.yul\":15240:15244   */\n      0x20\n        /* \"#utility.yul\":15235:15238   */\n      dup3\n        /* \"#utility.yul\":15231:15245   */\n      add\n        /* \"#utility.yul\":15223:15245   */\n      swap1\n      pop\n        /* \"#utility.yul\":15192:15252   */\n      swap2\n      swap1\n      pop\n      jump\t// out\n        /* \"#utility.yul\":15258:15372   */\n    tag_245:\n      0x00\n        /* \"#utility.yul\":15359:15364   */\n      dup2\n        /* \"#utility.yul\":15353:15365   */\n      mload\n        /* \"#utility.yul\":15343:15365   */\n      swap1\n      pop\n        /* \"#utility.yul\":15332:15372   */\n      swap2\n      swap1\n      pop\n      jump\t// out\n        /* \"#utility.yul\":15378:15491   */\n    tag_255:\n      0x00\n        /* \"#utility.yul\":15480:15484   */\n      0x20\n        /* \"#utility.yul\":15475:15478   */\n      dup3\n        /* \"#utility.yul\":15471:15485   */\n      add\n        /* \"#utility.yul\":15463:15485   */\n      swap1\n      pop\n        /* \"#utility.yul\":15453:15491   */\n      swap2\n      swap1\n      pop\n      jump\t// out\n        /* \"#utility.yul\":15497:15681   */\n    tag_247:\n      0x00\n        /* \"#utility.yul\":15630:15636   */\n      dup3\n        /* \"#utility.yul\":15625:15628   */\n      dup3\n        /* \"#utility.yul\":15618:15637   */\n      mstore\n        /* \"#utility.yul\":15670:15674   */\n      0x20\n        /* \"#utility.yul\":15665:15668   */\n      dup3\n        /* \"#utility.yul\":15661:15675   */\n      add\n        /* \"#utility.yul\":15646:15675   */\n      swap1\n      pop\n        /* \"#utility.yul\":15608:15681   */\n      swap3\n      swap2\n      pop\n      pop\n      jump\t// out\n        /* \"#utility.yul\":15687:15856   */\n    tag_263:\n      0x00\n        /* \"#utility.yul\":15805:15811   */\n      dup3\n        /* \"#utility.yul\":15800:15803   */\n      dup3\n        /* \"#utility.yul\":15793:15812   */\n      mstore\n        /* \"#utility.yul\":15845:15849   */\n      0x20\n        /* \"#utility.yul\":15840:15843   */\n      dup3\n        /* \"#utility.yul\":15836:15850   */\n      add\n        /* \"#utility.yul\":15821:15850   */\n      swap1\n      pop\n        /* \"#utility.yul\":15783:15856   */\n      swap3\n      swap2\n      pop\n      pop\n      jump\t// out\n        /* \"#utility.yul\":15862:16167   */\n    tag_183:\n      0x00\n        /* \"#utility.yul\":15921:15941   */\n      tag_346\n        /* \"#utility.yul\":15939:15940   */\n      dup3\n        /* \"#utility.yul\":15921:15941   */\n      tag_299\n      jump\t// in\n    tag_346:\n        /* \"#utility.yul\":15916:15941   */\n      swap2\n      pop\n        /* \"#utility.yul\":15955:15975   */\n      tag_347\n        /* \"#utility.yul\":15973:15974   */\n      dup4\n        /* \"#utility.yul\":15955:15975   */\n      tag_299\n      jump\t// in\n    tag_347:\n        /* \"#utility.yul\":15950:15975   */\n      swap3\n      pop\n        /* \"#utility.yul\":16109:16110   */\n      dup3\n        /* \"#utility.yul\":16041:16107   */\n      0xffffffffffffffffffffffffffffffffffffffffffffffffffffffffffffffff\n        /* \"#utility.yul\":16037:16111   */\n      sub\n        /* \"#utility.yul\":16034:16035   */\n      dup3\n        /* \"#utility.yul\":16031:16112   */\n      gt\n        /* \"#utility.yul\":16028:16030   */\n      iszero\n      tag_348\n      jumpi\n        /* \"#utility.yul\":16115:16133   */\n      tag_349\n      tag_350\n      jump\t// in\n    tag_349:\n        /* \"#utility.yul\":16028:16030   */\n    tag_348:\n        /* \"#utility.yul\":16159:16160   */\n      dup3\n        /* \"#utility.yul\":16156:16157   */\n      dup3\n        /* \"#utility.yul\":16152:16161   */\n      add\n        /* \"#utility.yul\":16145:16161   */\n      swap1\n      pop\n        /* \"#utility.yul\":15906:16167   */\n      swap3\n      swap2\n      pop\n      pop\n      jump\t// out\n        /* \"#utility.yul\":16173:16364   */\n    tag_192:\n      0x00\n        /* \"#utility.yul\":16233:16253   */\n      tag_352\n        /* \"#utility.yul\":16251:16252   */\n      dup3\n        /* \"#utility.yul\":16233:16253   */\n      tag_299\n      jump\t// in\n    tag_352:\n        /* \"#utility.yul\":16228:16253   */\n      swap2\n      pop\n        /* \"#utility.yul\":16267:16287   */\n      tag_353\n        /* \"#utility.yul\":16285:16286   */\n      dup4\n        /* \"#utility.yul\":16267:16287   */\n      tag_299\n      jump\t// in\n    tag_353:\n        /* \"#utility.yul\":16262:16287   */\n      swap3\n      pop\n        /* \"#utility.yul\":16306:16307   */\n      dup3\n        /* \"#utility.yul\":16303:16304   */\n      dup3\n        /* \"#utility.yul\":16300:16308   */\n      lt\n        /* \"#utility.yul\":16297:16299   */\n      iszero\n      tag_354\n      jumpi\n        /* \"#utility.yul\":16311:16329   */\n      tag_355\n      tag_350\n      jump\t// in\n    tag_355:\n        /* \"#utility.yul\":16297:16299   */\n    tag_354:\n        /* \"#utility.yul\":16356:16357   */\n      dup3\n        /* \"#utility.yul\":16353:16354   */\n      dup3\n        /* \"#utility.yul\":16349:16358   */\n      sub\n        /* \"#utility.yul\":16341:16358   */\n      swap1\n      pop\n        /* \"#utility.yul\":16218:16364   */\n      swap3\n      swap2\n      pop\n      pop\n      jump\t// out\n        /* \"#utility.yul\":16370:16466   */\n    tag_233:\n      0x00\n        /* \"#utility.yul\":16436:16460   */\n      tag_357\n        /* \"#utility.yul\":16454:16459   */\n      dup3\n        /* \"#utility.yul\":16436:16460   */\n      tag_358\n      jump\t// in\n    tag_357:\n        /* \"#utility.yul\":16425:16460   */\n      swap1\n      pop\n        /* \"#utility.yul\":16415:16466   */\n      swap2\n      swap1\n      pop\n      jump\t// out\n        /* \"#utility.yul\":16472:16562   */\n    tag_259:\n      0x00\n        /* \"#utility.yul\":16549:16554   */\n      dup2\n        /* \"#utility.yul\":16542:16555   */\n      iszero\n        /* \"#utility.yul\":16535:16556   */\n      iszero\n        /* \"#utility.yul\":16524:16556   */\n      swap1\n      pop\n        /* \"#utility.yul\":16514:16562   */\n      swap2\n      swap1\n      pop\n      jump\t// out\n        /* \"#utility.yul\":16568:16694   */\n    tag_358:\n      0x00\n        /* \"#utility.yul\":16645:16687   */\n      0xffffffffffffffffffffffffffffffffffffffff\n        /* \"#utility.yul\":16638:16643   */\n      dup3\n        /* \"#utility.yul\":16634:16688   */\n      and\n        /* \"#utility.yul\":16623:16688   */\n      swap1\n      pop\n        /* \"#utility.yul\":16613:16694   */\n      swap2\n      swap1\n      pop\n      jump\t// out\n        /* \"#utility.yul\":16700:16777   */\n    tag_299:\n      0x00\n        /* \"#utility.yul\":16766:16771   */\n      dup2\n        /* \"#utility.yul\":16755:16771   */\n      swap1\n      pop\n        /* \"#utility.yul\":16745:16777   */\n      swap2\n      swap1\n      pop\n      jump\t// out\n        /* \"#utility.yul\":16783:16883   */\n    tag_241:\n      0x00\n        /* \"#utility.yul\":16851:16877   */\n      tag_363\n        /* \"#utility.yul\":16871:16876   */\n      dup3\n        /* \"#utility.yul\":16851:16877   */\n      tag_364\n      jump\t// in\n    tag_363:\n        /* \"#utility.yul\":16840:16877   */\n      swap1\n      pop\n        /* \"#utility.yul\":16830:16883   */\n      swap2\n      swap1\n      pop\n      jump\t// out\n        /* \"#utility.yul\":16889:16983   */\n    tag_364:\n      0x00\n        /* \"#utility.yul\":16957:16977   */\n      tag_366\n        /* \"#utility.yul\":16971:16976   */\n      dup3\n        /* \"#utility.yul\":16957:16977   */\n      tag_367\n      jump\t// in\n    tag_366:\n        /* \"#utility.yul\":16946:16977   */\n      swap1\n      pop\n        /* \"#utility.yul\":16936:16983   */\n      swap2\n      swap1\n      pop\n      jump\t// out\n        /* \"#utility.yul\":16989:17068   */\n    tag_307:\n      0x00\n        /* \"#utility.yul\":17057:17062   */\n      dup2\n        /* \"#utility.yul\":17046:17062   */\n      swap1\n      pop\n        /* \"#utility.yul\":17036:17068   */\n      swap2\n      swap1\n      pop\n      jump\t// out\n        /* \"#utility.yul\":17074:17250   */\n    tag_189:\n      0x00\n        /* \"#utility.yul\":17123:17143   */\n      tag_370\n        /* \"#utility.yul\":17141:17142   */\n      dup3\n        /* \"#utility.yul\":17123:17143   */\n      tag_299\n      jump\t// in\n    tag_370:\n        /* \"#utility.yul\":17118:17143   */\n      swap2\n      pop\n        /* \"#utility.yul\":17157:17177   */\n      tag_371\n        /* \"#utility.yul\":17175:17176   */\n      dup4\n        /* \"#utility.yul\":17157:17177   */\n      tag_299\n      jump\t// in\n    tag_371:\n        /* \"#utility.yul\":17152:17177   */\n      swap3\n      pop\n        /* \"#utility.yul\":17196:17197   */\n      dup3\n        /* \"#utility.yul\":17186:17188   */\n      tag_372\n      jumpi\n        /* \"#utility.yul\":17201:17219   */\n      tag_373\n      tag_374\n      jump\t// in\n    tag_373:\n        /* \"#utility.yul\":17186:17188   */\n    tag_372:\n        /* \"#utility.yul\":17242:17243   */\n      dup3\n        /* \"#utility.yul\":17239:17240   */\n      dup3\n        /* \"#utility.yul\":17235:17244   */\n      mod\n        /* \"#utility.yul\":17230:17244   */\n      swap1\n      pop\n        /* \"#utility.yul\":17108:17250   */\n      swap3\n      swap2\n      pop\n      pop\n      jump\t// out\n        /* \"#utility.yul\":17256:17436   */\n    tag_350:\n        /* \"#utility.yul\":17304:17381   */\n      0x4e487b7100000000000000000000000000000000000000000000000000000000\n        /* \"#utility.yul\":17301:17302   */\n      0x00\n        /* \"#utility.yul\":17294:17382   */\n      mstore\n        /* \"#utility.yul\":17401:17405   */\n      0x11\n        /* \"#utility.yul\":17398:17399   */\n      0x04\n        /* \"#utility.yul\":17391:17406   */\n      mstore\n        /* \"#utility.yul\":17425:17429   */\n      0x24\n        /* \"#utility.yul\":17422:17423   */\n      0x00\n        /* \"#utility.yul\":17415:17430   */\n      revert\n        /* \"#utility.yul\":17442:17622   */\n    tag_374:\n        /* \"#utility.yul\":17490:17567   */\n      0x4e487b7100000000000000000000000000000000000000000000000000000000\n        /* \"#utility.yul\":17487:17488   */\n      0x00\n        /* \"#utility.yul\":17480:17568   */\n      mstore\n        /* \"#utility.yul\":17587:17591   */\n      0x12\n        /* \"#utility.yul\":17584:17585   */\n      0x04\n        /* \"#utility.yul\":17577:17592   */\n      mstore\n        /* \"#utility.yul\":17611:17615   */\n      0x24\n        /* \"#utility.yul\":17608:17609   */\n      0x00\n        /* \"#utility.yul\":17601:17616   */\n      revert\n        /* \"#utility.yul\":17628:17722   */\n    tag_367:\n      0x00\n        /* \"#utility.yul\":17709:17714   */\n      dup2\n        /* \"#utility.yul\":17705:17707   */\n      0x60\n        /* \"#utility.yul\":17701:17715   */\n      shl\n        /* \"#utility.yul\":17680:17715   */\n      swap1\n      pop\n        /* \"#utility.yul\":17670:17722   */\n      swap2\n      swap1\n      pop\n      jump\t// out\n        /* \"#utility.yul\":17728:17850   */\n    tag_197:\n        /* \"#utility.yul\":17801:17825   */\n      tag_379\n        /* \"#utility.yul\":17819:17824   */\n      dup2\n        /* \"#utility.yul\":17801:17825   */\n      tag_233\n      jump\t// in\n    tag_379:\n        /* \"#utility.yul\":17794:17799   */\n      dup2\n        /* \"#utility.yul\":17791:17826   */\n      eq\n        /* \"#utility.yul\":17781:17783   */\n      tag_380\n      jumpi\n        /* \"#utility.yul\":17840:17841   */\n      0x00\n        /* \"#utility.yul\":17837:17838   */\n      dup1\n        /* \"#utility.yul\":17830:17842   */\n      revert\n        /* \"#utility.yul\":17781:17783   */\n    tag_380:\n        /* \"#utility.yul\":17771:17850   */\n      pop\n      jump\t// out\n        /* \"#utility.yul\":17856:17972   */\n    tag_201:\n        /* \"#utility.yul\":17926:17947   */\n      tag_382\n        /* \"#utility.yul\":17941:17946   */\n      dup2\n        /* \"#utility.yul\":17926:17947   */\n      tag_259\n      jump\t// in\n    tag_382:\n        /* \"#utility.yul\":17919:17924   */\n      dup2\n        /* \"#utility.yul\":17916:17948   */\n      eq\n        /* \"#utility.yul\":17906:17908   */\n      tag_383\n      jumpi\n        /* \"#utility.yul\":17962:17963   */\n      0x00\n        /* \"#utility.yul\":17959:17960   */\n      dup1\n        /* \"#utility.yul\":17952:17964   */\n      revert\n        /* \"#utility.yul\":17906:17908   */\n    tag_383:\n        /* \"#utility.yul\":17896:17972   */\n      pop\n      jump\t// out\n        /* \"#utility.yul\":17978:18100   */\n    tag_205:\n        /* \"#utility.yul\":18051:18075   */\n      tag_385\n        /* \"#utility.yul\":18069:18074   */\n      dup2\n        /* \"#utility.yul\":18051:18075   */\n      tag_299\n      jump\t// in\n    tag_385:\n        /* \"#utility.yul\":18044:18049   */\n      dup2\n        /* \"#utility.yul\":18041:18076   */\n      eq\n        /* \"#utility.yul\":18031:18033   */\n      tag_386\n      jumpi\n        /* \"#utility.yul\":18090:18091   */\n      0x00\n        /* \"#utility.yul\":18087:18088   */\n      dup1\n        /* \"#utility.yul\":18080:18092   */\n      revert\n        /* \"#utility.yul\":18031:18033   */\n    tag_386:\n        /* \"#utility.yul\":18021:18100   */\n      pop\n      jump\t// out\n\n    auxdata: 0xa264697066735822122056afafe944378df7fa84454064002b7b3392edc3566b0dda11b89451eebe8ef364736f6c63430008000033\n}\n",
				"bytecode": {
					"linkReferences": {},
					"object": "60806040523480156200001157600080fd5b5060405162001ee638038062001ee68339818101604052810190620000379190620001cf565b620000576200004b620000ec60201b60201c565b620000f460201b60201c565b80600073ffffffffffffffffffffffffffffffffffffffff168173ffffffffffffffffffffffffffffffffffffffff1614156200009357600080fd5b81600160006101000a81548173ffffffffffffffffffffffffffffffffffffffff021916908373ffffffffffffffffffffffffffffffffffffffff160217905550600a6003819055506001600581905550505062000249565b600033905090565b60008060009054906101000a900473ffffffffffffffffffffffffffffffffffffffff169050816000806101000a81548173ffffffffffffffffffffffffffffffffffffffff021916908373ffffffffffffffffffffffffffffffffffffffff1602179055508173ffffffffffffffffffffffffffffffffffffffff168173ffffffffffffffffffffffffffffffffffffffff167f8be0079c531659141344cd1fd0a4f28419497f9722a3daafe3b4186f6b6457e060405160405180910390a35050565b600081519050620001c9816200022f565b92915050565b600060208284031215620001e257600080fd5b6000620001f284828501620001b8565b91505092915050565b600062000208826200020f565b9050919050565b600073ffffffffffffffffffffffffffffffffffffffff82169050919050565b6200023a81620001fb565b81146200024657600080fd5b50565b611c8d80620002596000396000f3fe6080604052600436106100c65760003560e01c806378651b421161007f5780639c42ad76116100595780639c42ad7614610248578063c93a7f6e14610285578063decb4abc146102b0578063f2fde38b146102ed576100cd565b806378651b42146101c95780638446464e146101f45780638da5cb5b1461021d576100cd565b8063110809c7146100cf57806311e1512d146100f85780631a360f35146101215780633cfde5491461014c5780633f4dd26814610189578063715018a6146101b2576100cd565b366100cd57005b005b3480156100db57600080fd5b506100f660048036038101906100f191906112cc565b610316565b005b34801561010457600080fd5b5061011f600480360381019061011a91906112cc565b61039c565b005b34801561012d57600080fd5b50610136610422565b6040516101439190611a11565b60405180910390f35b34801561015857600080fd5b50610173600480360381019061016e9190611203565b61042c565b60405161018091906118b4565b60405180910390f35b34801561019557600080fd5b506101b060048036038101906101ab91906112f5565b6104c3565b005b3480156101be57600080fd5b506101c761078a565b005b3480156101d557600080fd5b506101de610812565b6040516101eb9190611a11565b60405180910390f35b34801561020057600080fd5b5061021b6004803603810190610216919061122c565b61081c565b005b34801561022957600080fd5b50610232610beb565b60405161023f9190611870565b60405180910390f35b34801561025457600080fd5b5061026f600480360381019061026a91906112cc565b610c14565b60405161027c9190611a11565b60405180910390f35b34801561029157600080fd5b5061029a610db2565b6040516102a79190611a11565b60405180910390f35b3480156102bc57600080fd5b506102d760048036038101906102d291906112cc565b610dbc565b6040516102e491906119f6565b60405180910390f35b3480156102f957600080fd5b50610314600480360381019061030f9190611203565b610f3a565b005b61031e611032565b73ffffffffffffffffffffffffffffffffffffffff1661033c610beb565b73ffffffffffffffffffffffffffffffffffffffff1614610392576040517f08c379a0000000000000000000000000000000000000000000000000000000008152600401610389906119b6565b60405180910390fd5b8060038190555050565b6103a4611032565b73ffffffffffffffffffffffffffffffffffffffff166103c2610beb565b73ffffffffffffffffffffffffffffffffffffffff1614610418576040517f08c379a000000000000000000000000000000000000000000000000000000000815260040161040f906119b6565b60405180910390fd5b8060058190555050565b6000600354905090565b6060600760008373ffffffffffffffffffffffffffffffffffffffff1673ffffffffffffffffffffffffffffffffffffffff1681526020019081526020016000208054806020026020016040519081016040528092919081815260200182805480156104b757602002820191906000526020600020905b8154815260200190600101908083116104a3575b50505050509050919050565b6001151560066000600254815260200190815260200160002060060160009054906101000a900460ff161515146104f957600080fd5b610501610beb565b73ffffffffffffffffffffffffffffffffffffffff1661051f611032565b73ffffffffffffffffffffffffffffffffffffffff1614806105ab575060066000600254815260200190815260200160002060000160009054906101000a900473ffffffffffffffffffffffffffffffffffffffff1673ffffffffffffffffffffffffffffffffffffffff16610593611032565b73ffffffffffffffffffffffffffffffffffffffff16145b6105ea576040517f08c379a00000000000000000000000000000000000000000000000000000000081526004016105e1906119d6565b60405180910390fd5b60006006600060025481526020019081526020016000206040518060e00160405290816000820160009054906101000a900473ffffffffffffffffffffffffffffffffffffffff1673ffffffffffffffffffffffffffffffffffffffff1673ffffffffffffffffffffffffffffffffffffffff16815260200160018201548152602001600282015481526020016003820154815260200160048201548152602001600582015481526020016006820160009054906101000a900460ff16151515158152505090506106c8828260a0015161103a90919063ffffffff16565b8160a0018181525050600160009054906101000a900473ffffffffffffffffffffffffffffffffffffffff1673ffffffffffffffffffffffffffffffffffffffff1663a9059cbb8260000151846040518363ffffffff1660e01b815260040161073292919061188b565b602060405180830381600087803b15801561074c57600080fd5b505af1158015610760573d6000803e3d6000fd5b505050506040513d601f19601f8201168201806040525081019061078491906112a3565b50505050565b610792611032565b73ffffffffffffffffffffffffffffffffffffffff166107b0610beb565b73ffffffffffffffffffffffffffffffffffffffff1614610806576040517f08c379a00000000000000000000000000000000000000000000000000000000081526004016107fd906119b6565b60405180910390fd5b6108106000611050565b565b6000600454905090565b610824611032565b73ffffffffffffffffffffffffffffffffffffffff16610842610beb565b73ffffffffffffffffffffffffffffffffffffffff1614610898576040517f08c379a000000000000000000000000000000000000000000000000000000000815260040161088f906119b6565b60405180910390fd5b600073ffffffffffffffffffffffffffffffffffffffff168573ffffffffffffffffffffffffffffffffffffffff161415610908576040517f08c379a00000000000000000000000000000000000000000000000000000000081526004016108ff90611956565b60405180910390fd5b6000831161094b576040517f08c379a000000000000000000000000000000000000000000000000000000000815260040161094290611916565b60405180910390fd5b6000811161098e576040517f08c379a000000000000000000000000000000000000000000000000000000000815260040161098590611996565b60405180910390fd5b600554600760008773ffffffffffffffffffffffffffffffffffffffff1673ffffffffffffffffffffffffffffffffffffffff1681526020019081526020016000208054905010610a14576040517f08c379a0000000000000000000000000000000000000000000000000000000008152600401610a0b90611936565b60405180910390fd5b60006040518060e001604052808773ffffffffffffffffffffffffffffffffffffffff16815260200186815260200185815260200184815260200183815260200160008152602001600115158152509050610a7186600454611114565b60028190555060076000826000015173ffffffffffffffffffffffffffffffffffffffff1673ffffffffffffffffffffffffffffffffffffffff16815260200190815260200160002060025490806001815401808255809150506001900390600052602060002001600090919091909150558060066000600254815260200190815260200160002060008201518160000160006101000a81548173ffffffffffffffffffffffffffffffffffffffff021916908373ffffffffffffffffffffffffffffffffffffffff1602179055506020820151816001015560408201518160020155606082015181600301556080820151816004015560a0820151816005015560c08201518160060160006101000a81548160ff021916908315150217905550905050610bab600160045461103a90919063ffffffff16565b507f03ac17a064e5f9f8a942a4e1b3d07157fa74128806fab9b656a6b986182ffad181604051610bdb91906119f6565b60405180910390a1505050505050565b60008060009054906101000a900473ffffffffffffffffffffffffffffffffffffffff16905090565b60006002548210610c5a576040517f08c379a0000000000000000000000000000000000000000000000000000000008152600401610c51906118d6565b60405180910390fd5b600115156006600084815260200190815260200160002060060160009054906101000a900460ff16151514610cc4576040517f08c379a0000000000000000000000000000000000000000000000000000000008152600401610cbb90611976565b60405180910390fd5b6000600660008481526020019081526020016000206040518060e00160405290816000820160009054906101000a900473ffffffffffffffffffffffffffffffffffffffff1673ffffffffffffffffffffffffffffffffffffffff1673ffffffffffffffffffffffffffffffffffffffff16815260200160018201548152602001600282015481526020016003820154815260200160048201548152602001600582015481526020016006820160009054906101000a900460ff16151515158152505090506000610da68260a00151836080015161115990919063ffffffff16565b90508092505050919050565b6000600554905090565b610dc461116f565b6002548210610e08576040517f08c379a0000000000000000000000000000000000000000000000000000000008152600401610dff906118d6565b60405180910390fd5b600115156006600084815260200190815260200160002060060160009054906101000a900460ff16151514610e72576040517f08c379a0000000000000000000000000000000000000000000000000000000008152600401610e6990611976565b60405180910390fd5b600660008381526020019081526020016000206040518060e00160405290816000820160009054906101000a900473ffffffffffffffffffffffffffffffffffffffff1673ffffffffffffffffffffffffffffffffffffffff1673ffffffffffffffffffffffffffffffffffffffff16815260200160018201548152602001600282015481526020016003820154815260200160048201548152602001600582015481526020016006820160009054906101000a900460ff1615151515815250509050919050565b610f42611032565b73ffffffffffffffffffffffffffffffffffffffff16610f60610beb565b73ffffffffffffffffffffffffffffffffffffffff1614610fb6576040517f08c379a0000000000000000000000000000000000000000000000000000000008152600401610fad906119b6565b60405180910390fd5b600073ffffffffffffffffffffffffffffffffffffffff168173ffffffffffffffffffffffffffffffffffffffff161415611026576040517f08c379a000000000000000000000000000000000000000000000000000000000815260040161101d906118f6565b60405180910390fd5b61102f81611050565b50565b600033905090565b600081836110489190611a76565b905092915050565b60008060009054906101000a900473ffffffffffffffffffffffffffffffffffffffff169050816000806101000a81548173ffffffffffffffffffffffffffffffffffffffff021916908373ffffffffffffffffffffffffffffffffffffffff1602179055508173ffffffffffffffffffffffffffffffffffffffff168173ffffffffffffffffffffffffffffffffffffffff167f8be0079c531659141344cd1fd0a4f28419497f9722a3daafe3b4186f6b6457e060405160405180910390a35050565b6000633b9aca00838360405160200161112e929190611844565b6040516020818303038152906040528051906020012060001c6111519190611b76565b905092915050565b600081836111679190611acc565b905092915050565b6040518060e00160405280600073ffffffffffffffffffffffffffffffffffffffff16815260200160008152602001600081526020016000815260200160008152602001600081526020016000151581525090565b6000813590506111d381611c12565b92915050565b6000815190506111e881611c29565b92915050565b6000813590506111fd81611c40565b92915050565b60006020828403121561121557600080fd5b6000611223848285016111c4565b91505092915050565b600080600080600060a0868803121561124457600080fd5b6000611252888289016111c4565b9550506020611263888289016111ee565b9450506040611274888289016111ee565b9350506060611285888289016111ee565b9250506080611296888289016111ee565b9150509295509295909350565b6000602082840312156112b557600080fd5b60006112c3848285016111d9565b91505092915050565b6000602082840312156112de57600080fd5b60006112ec848285016111ee565b91505092915050565b6000806040838503121561130857600080fd5b6000611316858286016111ee565b9250506020611327858286016111ee565b9150509250929050565b600061133d838361180f565b60208301905092915050565b61135281611b00565b82525050565b61136181611b00565b82525050565b61137861137382611b00565b611b48565b82525050565b600061138982611a3c565b6113938185611a54565b935061139e83611a2c565b8060005b838110156113cf5781516113b68882611331565b97506113c183611a47565b9250506001810190506113a2565b5085935050505092915050565b6113e581611b12565b82525050565b60006113f8602583611a65565b91507f546f6b656e56657374696e673a20536368656d65204964206f7574206f66206260008301527f6f756e64730000000000000000000000000000000000000000000000000000006020830152604082019050919050565b600061145e602683611a65565b91507f4f776e61626c653a206e6577206f776e657220697320746865207a65726f206160008301527f64647265737300000000000000000000000000000000000000000000000000006020830152604082019050919050565b60006114c4603683611a65565b91507f546f6b656e56657374696e673a2056657374696e6720706572696f64206d757360008301527f742062652067726561746572207468616e207a65726f000000000000000000006020830152604082019050919050565b600061152a604283611a65565b91507f546f6b656e56657374696e673a20536368656d6520636f756e7420666f72207460008301527f6869732062656e6566696369617279206861732072656163686564206c696d6960208301527f742e0000000000000000000000000000000000000000000000000000000000006040830152606082019050919050565b60006115b6603483611a65565b91507f546f6b656e56657374696e673a2043616e6e6f7420616464207a65726f20616460008301527f64726573732061732062656e65666963696172790000000000000000000000006020830152604082019050919050565b600061161c604083611a65565b91507f546f6b656e56657374696e673a2056657374696e6720536368656d652069732060008301527f6569746865722064656c65746564206f7220646f6573206e6f742065786973746020830152604082019050919050565b6000611682603483611a65565b91507f546f6b656e56657374696e673a205665737461626c6520616d6f756e74206d7560008301527f73742062652067726561746572207468616e20300000000000000000000000006020830152604082019050919050565b60006116e8602083611a65565b91507f4f776e61626c653a2063616c6c6572206973206e6f7420746865206f776e65726000830152602082019050919050565b6000611728603183611a65565b91507f546f6b656e56657374696e673a2043616c6c6572206d757374206265206f776e60008301527f6572206f722062656e65666963696172790000000000000000000000000000006020830152604082019050919050565b60e0820160008201516117976000850182611349565b5060208201516117aa602085018261180f565b5060408201516117bd604085018261180f565b5060608201516117d0606085018261180f565b5060808201516117e3608085018261180f565b5060a08201516117f660a085018261180f565b5060c082015161180960c08501826113dc565b50505050565b61181881611b3e565b82525050565b61182781611b3e565b82525050565b61183e61183982611b3e565b611b6c565b82525050565b60006118508285611367565b601482019150611860828461182d565b6020820191508190509392505050565b60006020820190506118856000830184611358565b92915050565b60006040820190506118a06000830185611358565b6118ad602083018461181e565b9392505050565b600060208201905081810360008301526118ce818461137e565b905092915050565b600060208201905081810360008301526118ef816113eb565b9050919050565b6000602082019050818103600083015261190f81611451565b9050919050565b6000602082019050818103600083015261192f816114b7565b9050919050565b6000602082019050818103600083015261194f8161151d565b9050919050565b6000602082019050818103600083015261196f816115a9565b9050919050565b6000602082019050818103600083015261198f8161160f565b9050919050565b600060208201905081810360008301526119af81611675565b9050919050565b600060208201905081810360008301526119cf816116db565b9050919050565b600060208201905081810360008301526119ef8161171b565b9050919050565b600060e082019050611a0b6000830184611781565b92915050565b6000602082019050611a26600083018461181e565b92915050565b6000819050602082019050919050565b600081519050919050565b6000602082019050919050565b600082825260208201905092915050565b600082825260208201905092915050565b6000611a8182611b3e565b9150611a8c83611b3e565b9250827fffffffffffffffffffffffffffffffffffffffffffffffffffffffffffffffff03821115611ac157611ac0611ba7565b5b828201905092915050565b6000611ad782611b3e565b9150611ae283611b3e565b925082821015611af557611af4611ba7565b5b828203905092915050565b6000611b0b82611b1e565b9050919050565b60008115159050919050565b600073ffffffffffffffffffffffffffffffffffffffff82169050919050565b6000819050919050565b6000611b5382611b5a565b9050919050565b6000611b6582611c05565b9050919050565b6000819050919050565b6000611b8182611b3e565b9150611b8c83611b3e565b925082611b9c57611b9b611bd6565b5b828206905092915050565b7f4e487b7100000000000000000000000000000000000000000000000000000000600052601160045260246000fd5b7f4e487b7100000000000000000000000000000000000000000000000000000000600052601260045260246000fd5b60008160601b9050919050565b611c1b81611b00565b8114611c2657600080fd5b50565b611c3281611b12565b8114611c3d57600080fd5b50565b611c4981611b3e565b8114611c5457600080fd5b5056fea264697066735822122056afafe944378df7fa84454064002b7b3392edc3566b0dda11b89451eebe8ef364736f6c63430008000033",
					"opcodes": "PUSH1 0x80 PUSH1 0x40 MSTORE CALLVALUE DUP1 ISZERO PUSH3 0x11 JUMPI PUSH1 0x0 DUP1 REVERT JUMPDEST POP PUSH1 0x40 MLOAD PUSH3 0x1EE6 CODESIZE SUB DUP1 PUSH3 0x1EE6 DUP4 CODECOPY DUP2 DUP2 ADD PUSH1 0x40 MSTORE DUP2 ADD SWAP1 PUSH3 0x37 SWAP2 SWAP1 PUSH3 0x1CF JUMP JUMPDEST PUSH3 0x57 PUSH3 0x4B PUSH3 0xEC PUSH1 0x20 SHL PUSH1 0x20 SHR JUMP JUMPDEST PUSH3 0xF4 PUSH1 0x20 SHL PUSH1 0x20 SHR JUMP JUMPDEST DUP1 PUSH1 0x0 PUSH20 0xFFFFFFFFFFFFFFFFFFFFFFFFFFFFFFFFFFFFFFFF AND DUP2 PUSH20 0xFFFFFFFFFFFFFFFFFFFFFFFFFFFFFFFFFFFFFFFF AND EQ ISZERO PUSH3 0x93 JUMPI PUSH1 0x0 DUP1 REVERT JUMPDEST DUP2 PUSH1 0x1 PUSH1 0x0 PUSH2 0x100 EXP DUP2 SLOAD DUP2 PUSH20 0xFFFFFFFFFFFFFFFFFFFFFFFFFFFFFFFFFFFFFFFF MUL NOT AND SWAP1 DUP4 PUSH20 0xFFFFFFFFFFFFFFFFFFFFFFFFFFFFFFFFFFFFFFFF AND MUL OR SWAP1 SSTORE POP PUSH1 0xA PUSH1 0x3 DUP2 SWAP1 SSTORE POP PUSH1 0x1 PUSH1 0x5 DUP2 SWAP1 SSTORE POP POP POP PUSH3 0x249 JUMP JUMPDEST PUSH1 0x0 CALLER SWAP1 POP SWAP1 JUMP JUMPDEST PUSH1 0x0 DUP1 PUSH1 0x0 SWAP1 SLOAD SWAP1 PUSH2 0x100 EXP SWAP1 DIV PUSH20 0xFFFFFFFFFFFFFFFFFFFFFFFFFFFFFFFFFFFFFFFF AND SWAP1 POP DUP2 PUSH1 0x0 DUP1 PUSH2 0x100 EXP DUP2 SLOAD DUP2 PUSH20 0xFFFFFFFFFFFFFFFFFFFFFFFFFFFFFFFFFFFFFFFF MUL NOT AND SWAP1 DUP4 PUSH20 0xFFFFFFFFFFFFFFFFFFFFFFFFFFFFFFFFFFFFFFFF AND MUL OR SWAP1 SSTORE POP DUP2 PUSH20 0xFFFFFFFFFFFFFFFFFFFFFFFFFFFFFFFFFFFFFFFF AND DUP2 PUSH20 0xFFFFFFFFFFFFFFFFFFFFFFFFFFFFFFFFFFFFFFFF AND PUSH32 0x8BE0079C531659141344CD1FD0A4F28419497F9722A3DAAFE3B4186F6B6457E0 PUSH1 0x40 MLOAD PUSH1 0x40 MLOAD DUP1 SWAP2 SUB SWAP1 LOG3 POP POP JUMP JUMPDEST PUSH1 0x0 DUP2 MLOAD SWAP1 POP PUSH3 0x1C9 DUP2 PUSH3 0x22F JUMP JUMPDEST SWAP3 SWAP2 POP POP JUMP JUMPDEST PUSH1 0x0 PUSH1 0x20 DUP3 DUP5 SUB SLT ISZERO PUSH3 0x1E2 JUMPI PUSH1 0x0 DUP1 REVERT JUMPDEST PUSH1 0x0 PUSH3 0x1F2 DUP5 DUP3 DUP6 ADD PUSH3 0x1B8 JUMP JUMPDEST SWAP2 POP POP SWAP3 SWAP2 POP POP JUMP JUMPDEST PUSH1 0x0 PUSH3 0x208 DUP3 PUSH3 0x20F JUMP JUMPDEST SWAP1 POP SWAP2 SWAP1 POP JUMP JUMPDEST PUSH1 0x0 PUSH20 0xFFFFFFFFFFFFFFFFFFFFFFFFFFFFFFFFFFFFFFFF DUP3 AND SWAP1 POP SWAP2 SWAP1 POP JUMP JUMPDEST PUSH3 0x23A DUP2 PUSH3 0x1FB JUMP JUMPDEST DUP2 EQ PUSH3 0x246 JUMPI PUSH1 0x0 DUP1 REVERT JUMPDEST POP JUMP JUMPDEST PUSH2 0x1C8D DUP1 PUSH3 0x259 PUSH1 0x0 CODECOPY PUSH1 0x0 RETURN INVALID PUSH1 0x80 PUSH1 0x40 MSTORE PUSH1 0x4 CALLDATASIZE LT PUSH2 0xC6 JUMPI PUSH1 0x0 CALLDATALOAD PUSH1 0xE0 SHR DUP1 PUSH4 0x78651B42 GT PUSH2 0x7F JUMPI DUP1 PUSH4 0x9C42AD76 GT PUSH2 0x59 JUMPI DUP1 PUSH4 0x9C42AD76 EQ PUSH2 0x248 JUMPI DUP1 PUSH4 0xC93A7F6E EQ PUSH2 0x285 JUMPI DUP1 PUSH4 0xDECB4ABC EQ PUSH2 0x2B0 JUMPI DUP1 PUSH4 0xF2FDE38B EQ PUSH2 0x2ED JUMPI PUSH2 0xCD JUMP JUMPDEST DUP1 PUSH4 0x78651B42 EQ PUSH2 0x1C9 JUMPI DUP1 PUSH4 0x8446464E EQ PUSH2 0x1F4 JUMPI DUP1 PUSH4 0x8DA5CB5B EQ PUSH2 0x21D JUMPI PUSH2 0xCD JUMP JUMPDEST DUP1 PUSH4 0x110809C7 EQ PUSH2 0xCF JUMPI DUP1 PUSH4 0x11E1512D EQ PUSH2 0xF8 JUMPI DUP1 PUSH4 0x1A360F35 EQ PUSH2 0x121 JUMPI DUP1 PUSH4 0x3CFDE549 EQ PUSH2 0x14C JUMPI DUP1 PUSH4 0x3F4DD268 EQ PUSH2 0x189 JUMPI DUP1 PUSH4 0x715018A6 EQ PUSH2 0x1B2 JUMPI PUSH2 0xCD JUMP JUMPDEST CALLDATASIZE PUSH2 0xCD JUMPI STOP JUMPDEST STOP JUMPDEST CALLVALUE DUP1 ISZERO PUSH2 0xDB JUMPI PUSH1 0x0 DUP1 REVERT JUMPDEST POP PUSH2 0xF6 PUSH1 0x4 DUP1 CALLDATASIZE SUB DUP2 ADD SWAP1 PUSH2 0xF1 SWAP2 SWAP1 PUSH2 0x12CC JUMP JUMPDEST PUSH2 0x316 JUMP JUMPDEST STOP JUMPDEST CALLVALUE DUP1 ISZERO PUSH2 0x104 JUMPI PUSH1 0x0 DUP1 REVERT JUMPDEST POP PUSH2 0x11F PUSH1 0x4 DUP1 CALLDATASIZE SUB DUP2 ADD SWAP1 PUSH2 0x11A SWAP2 SWAP1 PUSH2 0x12CC JUMP JUMPDEST PUSH2 0x39C JUMP JUMPDEST STOP JUMPDEST CALLVALUE DUP1 ISZERO PUSH2 0x12D JUMPI PUSH1 0x0 DUP1 REVERT JUMPDEST POP PUSH2 0x136 PUSH2 0x422 JUMP JUMPDEST PUSH1 0x40 MLOAD PUSH2 0x143 SWAP2 SWAP1 PUSH2 0x1A11 JUMP JUMPDEST PUSH1 0x40 MLOAD DUP1 SWAP2 SUB SWAP1 RETURN JUMPDEST CALLVALUE DUP1 ISZERO PUSH2 0x158 JUMPI PUSH1 0x0 DUP1 REVERT JUMPDEST POP PUSH2 0x173 PUSH1 0x4 DUP1 CALLDATASIZE SUB DUP2 ADD SWAP1 PUSH2 0x16E SWAP2 SWAP1 PUSH2 0x1203 JUMP JUMPDEST PUSH2 0x42C JUMP JUMPDEST PUSH1 0x40 MLOAD PUSH2 0x180 SWAP2 SWAP1 PUSH2 0x18B4 JUMP JUMPDEST PUSH1 0x40 MLOAD DUP1 SWAP2 SUB SWAP1 RETURN JUMPDEST CALLVALUE DUP1 ISZERO PUSH2 0x195 JUMPI PUSH1 0x0 DUP1 REVERT JUMPDEST POP PUSH2 0x1B0 PUSH1 0x4 DUP1 CALLDATASIZE SUB DUP2 ADD SWAP1 PUSH2 0x1AB SWAP2 SWAP1 PUSH2 0x12F5 JUMP JUMPDEST PUSH2 0x4C3 JUMP JUMPDEST STOP JUMPDEST CALLVALUE DUP1 ISZERO PUSH2 0x1BE JUMPI PUSH1 0x0 DUP1 REVERT JUMPDEST POP PUSH2 0x1C7 PUSH2 0x78A JUMP JUMPDEST STOP JUMPDEST CALLVALUE DUP1 ISZERO PUSH2 0x1D5 JUMPI PUSH1 0x0 DUP1 REVERT JUMPDEST POP PUSH2 0x1DE PUSH2 0x812 JUMP JUMPDEST PUSH1 0x40 MLOAD PUSH2 0x1EB SWAP2 SWAP1 PUSH2 0x1A11 JUMP JUMPDEST PUSH1 0x40 MLOAD DUP1 SWAP2 SUB SWAP1 RETURN JUMPDEST CALLVALUE DUP1 ISZERO PUSH2 0x200 JUMPI PUSH1 0x0 DUP1 REVERT JUMPDEST POP PUSH2 0x21B PUSH1 0x4 DUP1 CALLDATASIZE SUB DUP2 ADD SWAP1 PUSH2 0x216 SWAP2 SWAP1 PUSH2 0x122C JUMP JUMPDEST PUSH2 0x81C JUMP JUMPDEST STOP JUMPDEST CALLVALUE DUP1 ISZERO PUSH2 0x229 JUMPI PUSH1 0x0 DUP1 REVERT JUMPDEST POP PUSH2 0x232 PUSH2 0xBEB JUMP JUMPDEST PUSH1 0x40 MLOAD PUSH2 0x23F SWAP2 SWAP1 PUSH2 0x1870 JUMP JUMPDEST PUSH1 0x40 MLOAD DUP1 SWAP2 SUB SWAP1 RETURN JUMPDEST CALLVALUE DUP1 ISZERO PUSH2 0x254 JUMPI PUSH1 0x0 DUP1 REVERT JUMPDEST POP PUSH2 0x26F PUSH1 0x4 DUP1 CALLDATASIZE SUB DUP2 ADD SWAP1 PUSH2 0x26A SWAP2 SWAP1 PUSH2 0x12CC JUMP JUMPDEST PUSH2 0xC14 JUMP JUMPDEST PUSH1 0x40 MLOAD PUSH2 0x27C SWAP2 SWAP1 PUSH2 0x1A11 JUMP JUMPDEST PUSH1 0x40 MLOAD DUP1 SWAP2 SUB SWAP1 RETURN JUMPDEST CALLVALUE DUP1 ISZERO PUSH2 0x291 JUMPI PUSH1 0x0 DUP1 REVERT JUMPDEST POP PUSH2 0x29A PUSH2 0xDB2 JUMP JUMPDEST PUSH1 0x40 MLOAD PUSH2 0x2A7 SWAP2 SWAP1 PUSH2 0x1A11 JUMP JUMPDEST PUSH1 0x40 MLOAD DUP1 SWAP2 SUB SWAP1 RETURN JUMPDEST CALLVALUE DUP1 ISZERO PUSH2 0x2BC JUMPI PUSH1 0x0 DUP1 REVERT JUMPDEST POP PUSH2 0x2D7 PUSH1 0x4 DUP1 CALLDATASIZE SUB DUP2 ADD SWAP1 PUSH2 0x2D2 SWAP2 SWAP1 PUSH2 0x12CC JUMP JUMPDEST PUSH2 0xDBC JUMP JUMPDEST PUSH1 0x40 MLOAD PUSH2 0x2E4 SWAP2 SWAP1 PUSH2 0x19F6 JUMP JUMPDEST PUSH1 0x40 MLOAD DUP1 SWAP2 SUB SWAP1 RETURN JUMPDEST CALLVALUE DUP1 ISZERO PUSH2 0x2F9 JUMPI PUSH1 0x0 DUP1 REVERT JUMPDEST POP PUSH2 0x314 PUSH1 0x4 DUP1 CALLDATASIZE SUB DUP2 ADD SWAP1 PUSH2 0x30F SWAP2 SWAP1 PUSH2 0x1203 JUMP JUMPDEST PUSH2 0xF3A JUMP JUMPDEST STOP JUMPDEST PUSH2 0x31E PUSH2 0x1032 JUMP JUMPDEST PUSH20 0xFFFFFFFFFFFFFFFFFFFFFFFFFFFFFFFFFFFFFFFF AND PUSH2 0x33C PUSH2 0xBEB JUMP JUMPDEST PUSH20 0xFFFFFFFFFFFFFFFFFFFFFFFFFFFFFFFFFFFFFFFF AND EQ PUSH2 0x392 JUMPI PUSH1 0x40 MLOAD PUSH32 0x8C379A000000000000000000000000000000000000000000000000000000000 DUP2 MSTORE PUSH1 0x4 ADD PUSH2 0x389 SWAP1 PUSH2 0x19B6 JUMP JUMPDEST PUSH1 0x40 MLOAD DUP1 SWAP2 SUB SWAP1 REVERT JUMPDEST DUP1 PUSH1 0x3 DUP2 SWAP1 SSTORE POP POP JUMP JUMPDEST PUSH2 0x3A4 PUSH2 0x1032 JUMP JUMPDEST PUSH20 0xFFFFFFFFFFFFFFFFFFFFFFFFFFFFFFFFFFFFFFFF AND PUSH2 0x3C2 PUSH2 0xBEB JUMP JUMPDEST PUSH20 0xFFFFFFFFFFFFFFFFFFFFFFFFFFFFFFFFFFFFFFFF AND EQ PUSH2 0x418 JUMPI PUSH1 0x40 MLOAD PUSH32 0x8C379A000000000000000000000000000000000000000000000000000000000 DUP2 MSTORE PUSH1 0x4 ADD PUSH2 0x40F SWAP1 PUSH2 0x19B6 JUMP JUMPDEST PUSH1 0x40 MLOAD DUP1 SWAP2 SUB SWAP1 REVERT JUMPDEST DUP1 PUSH1 0x5 DUP2 SWAP1 SSTORE POP POP JUMP JUMPDEST PUSH1 0x0 PUSH1 0x3 SLOAD SWAP1 POP SWAP1 JUMP JUMPDEST PUSH1 0x60 PUSH1 0x7 PUSH1 0x0 DUP4 PUSH20 0xFFFFFFFFFFFFFFFFFFFFFFFFFFFFFFFFFFFFFFFF AND PUSH20 0xFFFFFFFFFFFFFFFFFFFFFFFFFFFFFFFFFFFFFFFF AND DUP2 MSTORE PUSH1 0x20 ADD SWAP1 DUP2 MSTORE PUSH1 0x20 ADD PUSH1 0x0 KECCAK256 DUP1 SLOAD DUP1 PUSH1 0x20 MUL PUSH1 0x20 ADD PUSH1 0x40 MLOAD SWAP1 DUP2 ADD PUSH1 0x40 MSTORE DUP1 SWAP3 SWAP2 SWAP1 DUP2 DUP2 MSTORE PUSH1 0x20 ADD DUP3 DUP1 SLOAD DUP1 ISZERO PUSH2 0x4B7 JUMPI PUSH1 0x20 MUL DUP3 ADD SWAP2 SWAP1 PUSH1 0x0 MSTORE PUSH1 0x20 PUSH1 0x0 KECCAK256 SWAP1 JUMPDEST DUP2 SLOAD DUP2 MSTORE PUSH1 0x20 ADD SWAP1 PUSH1 0x1 ADD SWAP1 DUP1 DUP4 GT PUSH2 0x4A3 JUMPI JUMPDEST POP POP POP POP POP SWAP1 POP SWAP2 SWAP1 POP JUMP JUMPDEST PUSH1 0x1 ISZERO ISZERO PUSH1 0x6 PUSH1 0x0 PUSH1 0x2 SLOAD DUP2 MSTORE PUSH1 0x20 ADD SWAP1 DUP2 MSTORE PUSH1 0x20 ADD PUSH1 0x0 KECCAK256 PUSH1 0x6 ADD PUSH1 0x0 SWAP1 SLOAD SWAP1 PUSH2 0x100 EXP SWAP1 DIV PUSH1 0xFF AND ISZERO ISZERO EQ PUSH2 0x4F9 JUMPI PUSH1 0x0 DUP1 REVERT JUMPDEST PUSH2 0x501 PUSH2 0xBEB JUMP JUMPDEST PUSH20 0xFFFFFFFFFFFFFFFFFFFFFFFFFFFFFFFFFFFFFFFF AND PUSH2 0x51F PUSH2 0x1032 JUMP JUMPDEST PUSH20 0xFFFFFFFFFFFFFFFFFFFFFFFFFFFFFFFFFFFFFFFF AND EQ DUP1 PUSH2 0x5AB JUMPI POP PUSH1 0x6 PUSH1 0x0 PUSH1 0x2 SLOAD DUP2 MSTORE PUSH1 0x20 ADD SWAP1 DUP2 MSTORE PUSH1 0x20 ADD PUSH1 0x0 KECCAK256 PUSH1 0x0 ADD PUSH1 0x0 SWAP1 SLOAD SWAP1 PUSH2 0x100 EXP SWAP1 DIV PUSH20 0xFFFFFFFFFFFFFFFFFFFFFFFFFFFFFFFFFFFFFFFF AND PUSH20 0xFFFFFFFFFFFFFFFFFFFFFFFFFFFFFFFFFFFFFFFF AND PUSH2 0x593 PUSH2 0x1032 JUMP JUMPDEST PUSH20 0xFFFFFFFFFFFFFFFFFFFFFFFFFFFFFFFFFFFFFFFF AND EQ JUMPDEST PUSH2 0x5EA JUMPI PUSH1 0x40 MLOAD PUSH32 0x8C379A000000000000000000000000000000000000000000000000000000000 DUP2 MSTORE PUSH1 0x4 ADD PUSH2 0x5E1 SWAP1 PUSH2 0x19D6 JUMP JUMPDEST PUSH1 0x40 MLOAD DUP1 SWAP2 SUB SWAP1 REVERT JUMPDEST PUSH1 0x0 PUSH1 0x6 PUSH1 0x0 PUSH1 0x2 SLOAD DUP2 MSTORE PUSH1 0x20 ADD SWAP1 DUP2 MSTORE PUSH1 0x20 ADD PUSH1 0x0 KECCAK256 PUSH1 0x40 MLOAD DUP1 PUSH1 0xE0 ADD PUSH1 0x40 MSTORE SWAP1 DUP2 PUSH1 0x0 DUP3 ADD PUSH1 0x0 SWAP1 SLOAD SWAP1 PUSH2 0x100 EXP SWAP1 DIV PUSH20 0xFFFFFFFFFFFFFFFFFFFFFFFFFFFFFFFFFFFFFFFF AND PUSH20 0xFFFFFFFFFFFFFFFFFFFFFFFFFFFFFFFFFFFFFFFF AND PUSH20 0xFFFFFFFFFFFFFFFFFFFFFFFFFFFFFFFFFFFFFFFF AND DUP2 MSTORE PUSH1 0x20 ADD PUSH1 0x1 DUP3 ADD SLOAD DUP2 MSTORE PUSH1 0x20 ADD PUSH1 0x2 DUP3 ADD SLOAD DUP2 MSTORE PUSH1 0x20 ADD PUSH1 0x3 DUP3 ADD SLOAD DUP2 MSTORE PUSH1 0x20 ADD PUSH1 0x4 DUP3 ADD SLOAD DUP2 MSTORE PUSH1 0x20 ADD PUSH1 0x5 DUP3 ADD SLOAD DUP2 MSTORE PUSH1 0x20 ADD PUSH1 0x6 DUP3 ADD PUSH1 0x0 SWAP1 SLOAD SWAP1 PUSH2 0x100 EXP SWAP1 DIV PUSH1 0xFF AND ISZERO ISZERO ISZERO ISZERO DUP2 MSTORE POP POP SWAP1 POP PUSH2 0x6C8 DUP3 DUP3 PUSH1 0xA0 ADD MLOAD PUSH2 0x103A SWAP1 SWAP2 SWAP1 PUSH4 0xFFFFFFFF AND JUMP JUMPDEST DUP2 PUSH1 0xA0 ADD DUP2 DUP2 MSTORE POP POP PUSH1 0x1 PUSH1 0x0 SWAP1 SLOAD SWAP1 PUSH2 0x100 EXP SWAP1 DIV PUSH20 0xFFFFFFFFFFFFFFFFFFFFFFFFFFFFFFFFFFFFFFFF AND PUSH20 0xFFFFFFFFFFFFFFFFFFFFFFFFFFFFFFFFFFFFFFFF AND PUSH4 0xA9059CBB DUP3 PUSH1 0x0 ADD MLOAD DUP5 PUSH1 0x40 MLOAD DUP4 PUSH4 0xFFFFFFFF AND PUSH1 0xE0 SHL DUP2 MSTORE PUSH1 0x4 ADD PUSH2 0x732 SWAP3 SWAP2 SWAP1 PUSH2 0x188B JUMP JUMPDEST PUSH1 0x20 PUSH1 0x40 MLOAD DUP1 DUP4 SUB DUP2 PUSH1 0x0 DUP8 DUP1 EXTCODESIZE ISZERO DUP1 ISZERO PUSH2 0x74C JUMPI PUSH1 0x0 DUP1 REVERT JUMPDEST POP GAS CALL ISZERO DUP1 ISZERO PUSH2 0x760 JUMPI RETURNDATASIZE PUSH1 0x0 DUP1 RETURNDATACOPY RETURNDATASIZE PUSH1 0x0 REVERT JUMPDEST POP POP POP POP PUSH1 0x40 MLOAD RETURNDATASIZE PUSH1 0x1F NOT PUSH1 0x1F DUP3 ADD AND DUP3 ADD DUP1 PUSH1 0x40 MSTORE POP DUP2 ADD SWAP1 PUSH2 0x784 SWAP2 SWAP1 PUSH2 0x12A3 JUMP JUMPDEST POP POP POP POP JUMP JUMPDEST PUSH2 0x792 PUSH2 0x1032 JUMP JUMPDEST PUSH20 0xFFFFFFFFFFFFFFFFFFFFFFFFFFFFFFFFFFFFFFFF AND PUSH2 0x7B0 PUSH2 0xBEB JUMP JUMPDEST PUSH20 0xFFFFFFFFFFFFFFFFFFFFFFFFFFFFFFFFFFFFFFFF AND EQ PUSH2 0x806 JUMPI PUSH1 0x40 MLOAD PUSH32 0x8C379A000000000000000000000000000000000000000000000000000000000 DUP2 MSTORE PUSH1 0x4 ADD PUSH2 0x7FD SWAP1 PUSH2 0x19B6 JUMP JUMPDEST PUSH1 0x40 MLOAD DUP1 SWAP2 SUB SWAP1 REVERT JUMPDEST PUSH2 0x810 PUSH1 0x0 PUSH2 0x1050 JUMP JUMPDEST JUMP JUMPDEST PUSH1 0x0 PUSH1 0x4 SLOAD SWAP1 POP SWAP1 JUMP JUMPDEST PUSH2 0x824 PUSH2 0x1032 JUMP JUMPDEST PUSH20 0xFFFFFFFFFFFFFFFFFFFFFFFFFFFFFFFFFFFFFFFF AND PUSH2 0x842 PUSH2 0xBEB JUMP JUMPDEST PUSH20 0xFFFFFFFFFFFFFFFFFFFFFFFFFFFFFFFFFFFFFFFF AND EQ PUSH2 0x898 JUMPI PUSH1 0x40 MLOAD PUSH32 0x8C379A000000000000000000000000000000000000000000000000000000000 DUP2 MSTORE PUSH1 0x4 ADD PUSH2 0x88F SWAP1 PUSH2 0x19B6 JUMP JUMPDEST PUSH1 0x40 MLOAD DUP1 SWAP2 SUB SWAP1 REVERT JUMPDEST PUSH1 0x0 PUSH20 0xFFFFFFFFFFFFFFFFFFFFFFFFFFFFFFFFFFFFFFFF AND DUP6 PUSH20 0xFFFFFFFFFFFFFFFFFFFFFFFFFFFFFFFFFFFFFFFF AND EQ ISZERO PUSH2 0x908 JUMPI PUSH1 0x40 MLOAD PUSH32 0x8C379A000000000000000000000000000000000000000000000000000000000 DUP2 MSTORE PUSH1 0x4 ADD PUSH2 0x8FF SWAP1 PUSH2 0x1956 JUMP JUMPDEST PUSH1 0x40 MLOAD DUP1 SWAP2 SUB SWAP1 REVERT JUMPDEST PUSH1 0x0 DUP4 GT PUSH2 0x94B JUMPI PUSH1 0x40 MLOAD PUSH32 0x8C379A000000000000000000000000000000000000000000000000000000000 DUP2 MSTORE PUSH1 0x4 ADD PUSH2 0x942 SWAP1 PUSH2 0x1916 JUMP JUMPDEST PUSH1 0x40 MLOAD DUP1 SWAP2 SUB SWAP1 REVERT JUMPDEST PUSH1 0x0 DUP2 GT PUSH2 0x98E JUMPI PUSH1 0x40 MLOAD PUSH32 0x8C379A000000000000000000000000000000000000000000000000000000000 DUP2 MSTORE PUSH1 0x4 ADD PUSH2 0x985 SWAP1 PUSH2 0x1996 JUMP JUMPDEST PUSH1 0x40 MLOAD DUP1 SWAP2 SUB SWAP1 REVERT JUMPDEST PUSH1 0x5 SLOAD PUSH1 0x7 PUSH1 0x0 DUP8 PUSH20 0xFFFFFFFFFFFFFFFFFFFFFFFFFFFFFFFFFFFFFFFF AND PUSH20 0xFFFFFFFFFFFFFFFFFFFFFFFFFFFFFFFFFFFFFFFF AND DUP2 MSTORE PUSH1 0x20 ADD SWAP1 DUP2 MSTORE PUSH1 0x20 ADD PUSH1 0x0 KECCAK256 DUP1 SLOAD SWAP1 POP LT PUSH2 0xA14 JUMPI PUSH1 0x40 MLOAD PUSH32 0x8C379A000000000000000000000000000000000000000000000000000000000 DUP2 MSTORE PUSH1 0x4 ADD PUSH2 0xA0B SWAP1 PUSH2 0x1936 JUMP JUMPDEST PUSH1 0x40 MLOAD DUP1 SWAP2 SUB SWAP1 REVERT JUMPDEST PUSH1 0x0 PUSH1 0x40 MLOAD DUP1 PUSH1 0xE0 ADD PUSH1 0x40 MSTORE DUP1 DUP8 PUSH20 0xFFFFFFFFFFFFFFFFFFFFFFFFFFFFFFFFFFFFFFFF AND DUP2 MSTORE PUSH1 0x20 ADD DUP7 DUP2 MSTORE PUSH1 0x20 ADD DUP6 DUP2 MSTORE PUSH1 0x20 ADD DUP5 DUP2 MSTORE PUSH1 0x20 ADD DUP4 DUP2 MSTORE PUSH1 0x20 ADD PUSH1 0x0 DUP2 MSTORE PUSH1 0x20 ADD PUSH1 0x1 ISZERO ISZERO DUP2 MSTORE POP SWAP1 POP PUSH2 0xA71 DUP7 PUSH1 0x4 SLOAD PUSH2 0x1114 JUMP JUMPDEST PUSH1 0x2 DUP2 SWAP1 SSTORE POP PUSH1 0x7 PUSH1 0x0 DUP3 PUSH1 0x0 ADD MLOAD PUSH20 0xFFFFFFFFFFFFFFFFFFFFFFFFFFFFFFFFFFFFFFFF AND PUSH20 0xFFFFFFFFFFFFFFFFFFFFFFFFFFFFFFFFFFFFFFFF AND DUP2 MSTORE PUSH1 0x20 ADD SWAP1 DUP2 MSTORE PUSH1 0x20 ADD PUSH1 0x0 KECCAK256 PUSH1 0x2 SLOAD SWAP1 DUP1 PUSH1 0x1 DUP2 SLOAD ADD DUP1 DUP3 SSTORE DUP1 SWAP2 POP POP PUSH1 0x1 SWAP1 SUB SWAP1 PUSH1 0x0 MSTORE PUSH1 0x20 PUSH1 0x0 KECCAK256 ADD PUSH1 0x0 SWAP1 SWAP2 SWAP1 SWAP2 SWAP1 SWAP2 POP SSTORE DUP1 PUSH1 0x6 PUSH1 0x0 PUSH1 0x2 SLOAD DUP2 MSTORE PUSH1 0x20 ADD SWAP1 DUP2 MSTORE PUSH1 0x20 ADD PUSH1 0x0 KECCAK256 PUSH1 0x0 DUP3 ADD MLOAD DUP2 PUSH1 0x0 ADD PUSH1 0x0 PUSH2 0x100 EXP DUP2 SLOAD DUP2 PUSH20 0xFFFFFFFFFFFFFFFFFFFFFFFFFFFFFFFFFFFFFFFF MUL NOT AND SWAP1 DUP4 PUSH20 0xFFFFFFFFFFFFFFFFFFFFFFFFFFFFFFFFFFFFFFFF AND MUL OR SWAP1 SSTORE POP PUSH1 0x20 DUP3 ADD MLOAD DUP2 PUSH1 0x1 ADD SSTORE PUSH1 0x40 DUP3 ADD MLOAD DUP2 PUSH1 0x2 ADD SSTORE PUSH1 0x60 DUP3 ADD MLOAD DUP2 PUSH1 0x3 ADD SSTORE PUSH1 0x80 DUP3 ADD MLOAD DUP2 PUSH1 0x4 ADD SSTORE PUSH1 0xA0 DUP3 ADD MLOAD DUP2 PUSH1 0x5 ADD SSTORE PUSH1 0xC0 DUP3 ADD MLOAD DUP2 PUSH1 0x6 ADD PUSH1 0x0 PUSH2 0x100 EXP DUP2 SLOAD DUP2 PUSH1 0xFF MUL NOT AND SWAP1 DUP4 ISZERO ISZERO MUL OR SWAP1 SSTORE POP SWAP1 POP POP PUSH2 0xBAB PUSH1 0x1 PUSH1 0x4 SLOAD PUSH2 0x103A SWAP1 SWAP2 SWAP1 PUSH4 0xFFFFFFFF AND JUMP JUMPDEST POP PUSH32 0x3AC17A064E5F9F8A942A4E1B3D07157FA74128806FAB9B656A6B986182FFAD1 DUP2 PUSH1 0x40 MLOAD PUSH2 0xBDB SWAP2 SWAP1 PUSH2 0x19F6 JUMP JUMPDEST PUSH1 0x40 MLOAD DUP1 SWAP2 SUB SWAP1 LOG1 POP POP POP POP POP POP JUMP JUMPDEST PUSH1 0x0 DUP1 PUSH1 0x0 SWAP1 SLOAD SWAP1 PUSH2 0x100 EXP SWAP1 DIV PUSH20 0xFFFFFFFFFFFFFFFFFFFFFFFFFFFFFFFFFFFFFFFF AND SWAP1 POP SWAP1 JUMP JUMPDEST PUSH1 0x0 PUSH1 0x2 SLOAD DUP3 LT PUSH2 0xC5A JUMPI PUSH1 0x40 MLOAD PUSH32 0x8C379A000000000000000000000000000000000000000000000000000000000 DUP2 MSTORE PUSH1 0x4 ADD PUSH2 0xC51 SWAP1 PUSH2 0x18D6 JUMP JUMPDEST PUSH1 0x40 MLOAD DUP1 SWAP2 SUB SWAP1 REVERT JUMPDEST PUSH1 0x1 ISZERO ISZERO PUSH1 0x6 PUSH1 0x0 DUP5 DUP2 MSTORE PUSH1 0x20 ADD SWAP1 DUP2 MSTORE PUSH1 0x20 ADD PUSH1 0x0 KECCAK256 PUSH1 0x6 ADD PUSH1 0x0 SWAP1 SLOAD SWAP1 PUSH2 0x100 EXP SWAP1 DIV PUSH1 0xFF AND ISZERO ISZERO EQ PUSH2 0xCC4 JUMPI PUSH1 0x40 MLOAD PUSH32 0x8C379A000000000000000000000000000000000000000000000000000000000 DUP2 MSTORE PUSH1 0x4 ADD PUSH2 0xCBB SWAP1 PUSH2 0x1976 JUMP JUMPDEST PUSH1 0x40 MLOAD DUP1 SWAP2 SUB SWAP1 REVERT JUMPDEST PUSH1 0x0 PUSH1 0x6 PUSH1 0x0 DUP5 DUP2 MSTORE PUSH1 0x20 ADD SWAP1 DUP2 MSTORE PUSH1 0x20 ADD PUSH1 0x0 KECCAK256 PUSH1 0x40 MLOAD DUP1 PUSH1 0xE0 ADD PUSH1 0x40 MSTORE SWAP1 DUP2 PUSH1 0x0 DUP3 ADD PUSH1 0x0 SWAP1 SLOAD SWAP1 PUSH2 0x100 EXP SWAP1 DIV PUSH20 0xFFFFFFFFFFFFFFFFFFFFFFFFFFFFFFFFFFFFFFFF AND PUSH20 0xFFFFFFFFFFFFFFFFFFFFFFFFFFFFFFFFFFFFFFFF AND PUSH20 0xFFFFFFFFFFFFFFFFFFFFFFFFFFFFFFFFFFFFFFFF AND DUP2 MSTORE PUSH1 0x20 ADD PUSH1 0x1 DUP3 ADD SLOAD DUP2 MSTORE PUSH1 0x20 ADD PUSH1 0x2 DUP3 ADD SLOAD DUP2 MSTORE PUSH1 0x20 ADD PUSH1 0x3 DUP3 ADD SLOAD DUP2 MSTORE PUSH1 0x20 ADD PUSH1 0x4 DUP3 ADD SLOAD DUP2 MSTORE PUSH1 0x20 ADD PUSH1 0x5 DUP3 ADD SLOAD DUP2 MSTORE PUSH1 0x20 ADD PUSH1 0x6 DUP3 ADD PUSH1 0x0 SWAP1 SLOAD SWAP1 PUSH2 0x100 EXP SWAP1 DIV PUSH1 0xFF AND ISZERO ISZERO ISZERO ISZERO DUP2 MSTORE POP POP SWAP1 POP PUSH1 0x0 PUSH2 0xDA6 DUP3 PUSH1 0xA0 ADD MLOAD DUP4 PUSH1 0x80 ADD MLOAD PUSH2 0x1159 SWAP1 SWAP2 SWAP1 PUSH4 0xFFFFFFFF AND JUMP JUMPDEST SWAP1 POP DUP1 SWAP3 POP POP POP SWAP2 SWAP1 POP JUMP JUMPDEST PUSH1 0x0 PUSH1 0x5 SLOAD SWAP1 POP SWAP1 JUMP JUMPDEST PUSH2 0xDC4 PUSH2 0x116F JUMP JUMPDEST PUSH1 0x2 SLOAD DUP3 LT PUSH2 0xE08 JUMPI PUSH1 0x40 MLOAD PUSH32 0x8C379A000000000000000000000000000000000000000000000000000000000 DUP2 MSTORE PUSH1 0x4 ADD PUSH2 0xDFF SWAP1 PUSH2 0x18D6 JUMP JUMPDEST PUSH1 0x40 MLOAD DUP1 SWAP2 SUB SWAP1 REVERT JUMPDEST PUSH1 0x1 ISZERO ISZERO PUSH1 0x6 PUSH1 0x0 DUP5 DUP2 MSTORE PUSH1 0x20 ADD SWAP1 DUP2 MSTORE PUSH1 0x20 ADD PUSH1 0x0 KECCAK256 PUSH1 0x6 ADD PUSH1 0x0 SWAP1 SLOAD SWAP1 PUSH2 0x100 EXP SWAP1 DIV PUSH1 0xFF AND ISZERO ISZERO EQ PUSH2 0xE72 JUMPI PUSH1 0x40 MLOAD PUSH32 0x8C379A000000000000000000000000000000000000000000000000000000000 DUP2 MSTORE PUSH1 0x4 ADD PUSH2 0xE69 SWAP1 PUSH2 0x1976 JUMP JUMPDEST PUSH1 0x40 MLOAD DUP1 SWAP2 SUB SWAP1 REVERT JUMPDEST PUSH1 0x6 PUSH1 0x0 DUP4 DUP2 MSTORE PUSH1 0x20 ADD SWAP1 DUP2 MSTORE PUSH1 0x20 ADD PUSH1 0x0 KECCAK256 PUSH1 0x40 MLOAD DUP1 PUSH1 0xE0 ADD PUSH1 0x40 MSTORE SWAP1 DUP2 PUSH1 0x0 DUP3 ADD PUSH1 0x0 SWAP1 SLOAD SWAP1 PUSH2 0x100 EXP SWAP1 DIV PUSH20 0xFFFFFFFFFFFFFFFFFFFFFFFFFFFFFFFFFFFFFFFF AND PUSH20 0xFFFFFFFFFFFFFFFFFFFFFFFFFFFFFFFFFFFFFFFF AND PUSH20 0xFFFFFFFFFFFFFFFFFFFFFFFFFFFFFFFFFFFFFFFF AND DUP2 MSTORE PUSH1 0x20 ADD PUSH1 0x1 DUP3 ADD SLOAD DUP2 MSTORE PUSH1 0x20 ADD PUSH1 0x2 DUP3 ADD SLOAD DUP2 MSTORE PUSH1 0x20 ADD PUSH1 0x3 DUP3 ADD SLOAD DUP2 MSTORE PUSH1 0x20 ADD PUSH1 0x4 DUP3 ADD SLOAD DUP2 MSTORE PUSH1 0x20 ADD PUSH1 0x5 DUP3 ADD SLOAD DUP2 MSTORE PUSH1 0x20 ADD PUSH1 0x6 DUP3 ADD PUSH1 0x0 SWAP1 SLOAD SWAP1 PUSH2 0x100 EXP SWAP1 DIV PUSH1 0xFF AND ISZERO ISZERO ISZERO ISZERO DUP2 MSTORE POP POP SWAP1 POP SWAP2 SWAP1 POP JUMP JUMPDEST PUSH2 0xF42 PUSH2 0x1032 JUMP JUMPDEST PUSH20 0xFFFFFFFFFFFFFFFFFFFFFFFFFFFFFFFFFFFFFFFF AND PUSH2 0xF60 PUSH2 0xBEB JUMP JUMPDEST PUSH20 0xFFFFFFFFFFFFFFFFFFFFFFFFFFFFFFFFFFFFFFFF AND EQ PUSH2 0xFB6 JUMPI PUSH1 0x40 MLOAD PUSH32 0x8C379A000000000000000000000000000000000000000000000000000000000 DUP2 MSTORE PUSH1 0x4 ADD PUSH2 0xFAD SWAP1 PUSH2 0x19B6 JUMP JUMPDEST PUSH1 0x40 MLOAD DUP1 SWAP2 SUB SWAP1 REVERT JUMPDEST PUSH1 0x0 PUSH20 0xFFFFFFFFFFFFFFFFFFFFFFFFFFFFFFFFFFFFFFFF AND DUP2 PUSH20 0xFFFFFFFFFFFFFFFFFFFFFFFFFFFFFFFFFFFFFFFF AND EQ ISZERO PUSH2 0x1026 JUMPI PUSH1 0x40 MLOAD PUSH32 0x8C379A000000000000000000000000000000000000000000000000000000000 DUP2 MSTORE PUSH1 0x4 ADD PUSH2 0x101D SWAP1 PUSH2 0x18F6 JUMP JUMPDEST PUSH1 0x40 MLOAD DUP1 SWAP2 SUB SWAP1 REVERT JUMPDEST PUSH2 0x102F DUP2 PUSH2 0x1050 JUMP JUMPDEST POP JUMP JUMPDEST PUSH1 0x0 CALLER SWAP1 POP SWAP1 JUMP JUMPDEST PUSH1 0x0 DUP2 DUP4 PUSH2 0x1048 SWAP2 SWAP1 PUSH2 0x1A76 JUMP JUMPDEST SWAP1 POP SWAP3 SWAP2 POP POP JUMP JUMPDEST PUSH1 0x0 DUP1 PUSH1 0x0 SWAP1 SLOAD SWAP1 PUSH2 0x100 EXP SWAP1 DIV PUSH20 0xFFFFFFFFFFFFFFFFFFFFFFFFFFFFFFFFFFFFFFFF AND SWAP1 POP DUP2 PUSH1 0x0 DUP1 PUSH2 0x100 EXP DUP2 SLOAD DUP2 PUSH20 0xFFFFFFFFFFFFFFFFFFFFFFFFFFFFFFFFFFFFFFFF MUL NOT AND SWAP1 DUP4 PUSH20 0xFFFFFFFFFFFFFFFFFFFFFFFFFFFFFFFFFFFFFFFF AND MUL OR SWAP1 SSTORE POP DUP2 PUSH20 0xFFFFFFFFFFFFFFFFFFFFFFFFFFFFFFFFFFFFFFFF AND DUP2 PUSH20 0xFFFFFFFFFFFFFFFFFFFFFFFFFFFFFFFFFFFFFFFF AND PUSH32 0x8BE0079C531659141344CD1FD0A4F28419497F9722A3DAAFE3B4186F6B6457E0 PUSH1 0x40 MLOAD PUSH1 0x40 MLOAD DUP1 SWAP2 SUB SWAP1 LOG3 POP POP JUMP JUMPDEST PUSH1 0x0 PUSH4 0x3B9ACA00 DUP4 DUP4 PUSH1 0x40 MLOAD PUSH1 0x20 ADD PUSH2 0x112E SWAP3 SWAP2 SWAP1 PUSH2 0x1844 JUMP JUMPDEST PUSH1 0x40 MLOAD PUSH1 0x20 DUP2 DUP4 SUB SUB DUP2 MSTORE SWAP1 PUSH1 0x40 MSTORE DUP1 MLOAD SWAP1 PUSH1 0x20 ADD KECCAK256 PUSH1 0x0 SHR PUSH2 0x1151 SWAP2 SWAP1 PUSH2 0x1B76 JUMP JUMPDEST SWAP1 POP SWAP3 SWAP2 POP POP JUMP JUMPDEST PUSH1 0x0 DUP2 DUP4 PUSH2 0x1167 SWAP2 SWAP1 PUSH2 0x1ACC JUMP JUMPDEST SWAP1 POP SWAP3 SWAP2 POP POP JUMP JUMPDEST PUSH1 0x40 MLOAD DUP1 PUSH1 0xE0 ADD PUSH1 0x40 MSTORE DUP1 PUSH1 0x0 PUSH20 0xFFFFFFFFFFFFFFFFFFFFFFFFFFFFFFFFFFFFFFFF AND DUP2 MSTORE PUSH1 0x20 ADD PUSH1 0x0 DUP2 MSTORE PUSH1 0x20 ADD PUSH1 0x0 DUP2 MSTORE PUSH1 0x20 ADD PUSH1 0x0 DUP2 MSTORE PUSH1 0x20 ADD PUSH1 0x0 DUP2 MSTORE PUSH1 0x20 ADD PUSH1 0x0 DUP2 MSTORE PUSH1 0x20 ADD PUSH1 0x0 ISZERO ISZERO DUP2 MSTORE POP SWAP1 JUMP JUMPDEST PUSH1 0x0 DUP2 CALLDATALOAD SWAP1 POP PUSH2 0x11D3 DUP2 PUSH2 0x1C12 JUMP JUMPDEST SWAP3 SWAP2 POP POP JUMP JUMPDEST PUSH1 0x0 DUP2 MLOAD SWAP1 POP PUSH2 0x11E8 DUP2 PUSH2 0x1C29 JUMP JUMPDEST SWAP3 SWAP2 POP POP JUMP JUMPDEST PUSH1 0x0 DUP2 CALLDATALOAD SWAP1 POP PUSH2 0x11FD DUP2 PUSH2 0x1C40 JUMP JUMPDEST SWAP3 SWAP2 POP POP JUMP JUMPDEST PUSH1 0x0 PUSH1 0x20 DUP3 DUP5 SUB SLT ISZERO PUSH2 0x1215 JUMPI PUSH1 0x0 DUP1 REVERT JUMPDEST PUSH1 0x0 PUSH2 0x1223 DUP5 DUP3 DUP6 ADD PUSH2 0x11C4 JUMP JUMPDEST SWAP2 POP POP SWAP3 SWAP2 POP POP JUMP JUMPDEST PUSH1 0x0 DUP1 PUSH1 0x0 DUP1 PUSH1 0x0 PUSH1 0xA0 DUP7 DUP9 SUB SLT ISZERO PUSH2 0x1244 JUMPI PUSH1 0x0 DUP1 REVERT JUMPDEST PUSH1 0x0 PUSH2 0x1252 DUP9 DUP3 DUP10 ADD PUSH2 0x11C4 JUMP JUMPDEST SWAP6 POP POP PUSH1 0x20 PUSH2 0x1263 DUP9 DUP3 DUP10 ADD PUSH2 0x11EE JUMP JUMPDEST SWAP5 POP POP PUSH1 0x40 PUSH2 0x1274 DUP9 DUP3 DUP10 ADD PUSH2 0x11EE JUMP JUMPDEST SWAP4 POP POP PUSH1 0x60 PUSH2 0x1285 DUP9 DUP3 DUP10 ADD PUSH2 0x11EE JUMP JUMPDEST SWAP3 POP POP PUSH1 0x80 PUSH2 0x1296 DUP9 DUP3 DUP10 ADD PUSH2 0x11EE JUMP JUMPDEST SWAP2 POP POP SWAP3 SWAP6 POP SWAP3 SWAP6 SWAP1 SWAP4 POP JUMP JUMPDEST PUSH1 0x0 PUSH1 0x20 DUP3 DUP5 SUB SLT ISZERO PUSH2 0x12B5 JUMPI PUSH1 0x0 DUP1 REVERT JUMPDEST PUSH1 0x0 PUSH2 0x12C3 DUP5 DUP3 DUP6 ADD PUSH2 0x11D9 JUMP JUMPDEST SWAP2 POP POP SWAP3 SWAP2 POP POP JUMP JUMPDEST PUSH1 0x0 PUSH1 0x20 DUP3 DUP5 SUB SLT ISZERO PUSH2 0x12DE JUMPI PUSH1 0x0 DUP1 REVERT JUMPDEST PUSH1 0x0 PUSH2 0x12EC DUP5 DUP3 DUP6 ADD PUSH2 0x11EE JUMP JUMPDEST SWAP2 POP POP SWAP3 SWAP2 POP POP JUMP JUMPDEST PUSH1 0x0 DUP1 PUSH1 0x40 DUP4 DUP6 SUB SLT ISZERO PUSH2 0x1308 JUMPI PUSH1 0x0 DUP1 REVERT JUMPDEST PUSH1 0x0 PUSH2 0x1316 DUP6 DUP3 DUP7 ADD PUSH2 0x11EE JUMP JUMPDEST SWAP3 POP POP PUSH1 0x20 PUSH2 0x1327 DUP6 DUP3 DUP7 ADD PUSH2 0x11EE JUMP JUMPDEST SWAP2 POP POP SWAP3 POP SWAP3 SWAP1 POP JUMP JUMPDEST PUSH1 0x0 PUSH2 0x133D DUP4 DUP4 PUSH2 0x180F JUMP JUMPDEST PUSH1 0x20 DUP4 ADD SWAP1 POP SWAP3 SWAP2 POP POP JUMP JUMPDEST PUSH2 0x1352 DUP2 PUSH2 0x1B00 JUMP JUMPDEST DUP3 MSTORE POP POP JUMP JUMPDEST PUSH2 0x1361 DUP2 PUSH2 0x1B00 JUMP JUMPDEST DUP3 MSTORE POP POP JUMP JUMPDEST PUSH2 0x1378 PUSH2 0x1373 DUP3 PUSH2 0x1B00 JUMP JUMPDEST PUSH2 0x1B48 JUMP JUMPDEST DUP3 MSTORE POP POP JUMP JUMPDEST PUSH1 0x0 PUSH2 0x1389 DUP3 PUSH2 0x1A3C JUMP JUMPDEST PUSH2 0x1393 DUP2 DUP6 PUSH2 0x1A54 JUMP JUMPDEST SWAP4 POP PUSH2 0x139E DUP4 PUSH2 0x1A2C JUMP JUMPDEST DUP1 PUSH1 0x0 JUMPDEST DUP4 DUP2 LT ISZERO PUSH2 0x13CF JUMPI DUP2 MLOAD PUSH2 0x13B6 DUP9 DUP3 PUSH2 0x1331 JUMP JUMPDEST SWAP8 POP PUSH2 0x13C1 DUP4 PUSH2 0x1A47 JUMP JUMPDEST SWAP3 POP POP PUSH1 0x1 DUP2 ADD SWAP1 POP PUSH2 0x13A2 JUMP JUMPDEST POP DUP6 SWAP4 POP POP POP POP SWAP3 SWAP2 POP POP JUMP JUMPDEST PUSH2 0x13E5 DUP2 PUSH2 0x1B12 JUMP JUMPDEST DUP3 MSTORE POP POP JUMP JUMPDEST PUSH1 0x0 PUSH2 0x13F8 PUSH1 0x25 DUP4 PUSH2 0x1A65 JUMP JUMPDEST SWAP2 POP PUSH32 0x546F6B656E56657374696E673A20536368656D65204964206F7574206F662062 PUSH1 0x0 DUP4 ADD MSTORE PUSH32 0x6F756E6473000000000000000000000000000000000000000000000000000000 PUSH1 0x20 DUP4 ADD MSTORE PUSH1 0x40 DUP3 ADD SWAP1 POP SWAP2 SWAP1 POP JUMP JUMPDEST PUSH1 0x0 PUSH2 0x145E PUSH1 0x26 DUP4 PUSH2 0x1A65 JUMP JUMPDEST SWAP2 POP PUSH32 0x4F776E61626C653A206E6577206F776E657220697320746865207A65726F2061 PUSH1 0x0 DUP4 ADD MSTORE PUSH32 0x6464726573730000000000000000000000000000000000000000000000000000 PUSH1 0x20 DUP4 ADD MSTORE PUSH1 0x40 DUP3 ADD SWAP1 POP SWAP2 SWAP1 POP JUMP JUMPDEST PUSH1 0x0 PUSH2 0x14C4 PUSH1 0x36 DUP4 PUSH2 0x1A65 JUMP JUMPDEST SWAP2 POP PUSH32 0x546F6B656E56657374696E673A2056657374696E6720706572696F64206D7573 PUSH1 0x0 DUP4 ADD MSTORE PUSH32 0x742062652067726561746572207468616E207A65726F00000000000000000000 PUSH1 0x20 DUP4 ADD MSTORE PUSH1 0x40 DUP3 ADD SWAP1 POP SWAP2 SWAP1 POP JUMP JUMPDEST PUSH1 0x0 PUSH2 0x152A PUSH1 0x42 DUP4 PUSH2 0x1A65 JUMP JUMPDEST SWAP2 POP PUSH32 0x546F6B656E56657374696E673A20536368656D6520636F756E7420666F722074 PUSH1 0x0 DUP4 ADD MSTORE PUSH32 0x6869732062656E6566696369617279206861732072656163686564206C696D69 PUSH1 0x20 DUP4 ADD MSTORE PUSH32 0x742E000000000000000000000000000000000000000000000000000000000000 PUSH1 0x40 DUP4 ADD MSTORE PUSH1 0x60 DUP3 ADD SWAP1 POP SWAP2 SWAP1 POP JUMP JUMPDEST PUSH1 0x0 PUSH2 0x15B6 PUSH1 0x34 DUP4 PUSH2 0x1A65 JUMP JUMPDEST SWAP2 POP PUSH32 0x546F6B656E56657374696E673A2043616E6E6F7420616464207A65726F206164 PUSH1 0x0 DUP4 ADD MSTORE PUSH32 0x64726573732061732062656E6566696369617279000000000000000000000000 PUSH1 0x20 DUP4 ADD MSTORE PUSH1 0x40 DUP3 ADD SWAP1 POP SWAP2 SWAP1 POP JUMP JUMPDEST PUSH1 0x0 PUSH2 0x161C PUSH1 0x40 DUP4 PUSH2 0x1A65 JUMP JUMPDEST SWAP2 POP PUSH32 0x546F6B656E56657374696E673A2056657374696E6720536368656D6520697320 PUSH1 0x0 DUP4 ADD MSTORE PUSH32 0x6569746865722064656C65746564206F7220646F6573206E6F74206578697374 PUSH1 0x20 DUP4 ADD MSTORE PUSH1 0x40 DUP3 ADD SWAP1 POP SWAP2 SWAP1 POP JUMP JUMPDEST PUSH1 0x0 PUSH2 0x1682 PUSH1 0x34 DUP4 PUSH2 0x1A65 JUMP JUMPDEST SWAP2 POP PUSH32 0x546F6B656E56657374696E673A205665737461626C6520616D6F756E74206D75 PUSH1 0x0 DUP4 ADD MSTORE PUSH32 0x73742062652067726561746572207468616E2030000000000000000000000000 PUSH1 0x20 DUP4 ADD MSTORE PUSH1 0x40 DUP3 ADD SWAP1 POP SWAP2 SWAP1 POP JUMP JUMPDEST PUSH1 0x0 PUSH2 0x16E8 PUSH1 0x20 DUP4 PUSH2 0x1A65 JUMP JUMPDEST SWAP2 POP PUSH32 0x4F776E61626C653A2063616C6C6572206973206E6F7420746865206F776E6572 PUSH1 0x0 DUP4 ADD MSTORE PUSH1 0x20 DUP3 ADD SWAP1 POP SWAP2 SWAP1 POP JUMP JUMPDEST PUSH1 0x0 PUSH2 0x1728 PUSH1 0x31 DUP4 PUSH2 0x1A65 JUMP JUMPDEST SWAP2 POP PUSH32 0x546F6B656E56657374696E673A2043616C6C6572206D757374206265206F776E PUSH1 0x0 DUP4 ADD MSTORE PUSH32 0x6572206F722062656E6566696369617279000000000000000000000000000000 PUSH1 0x20 DUP4 ADD MSTORE PUSH1 0x40 DUP3 ADD SWAP1 POP SWAP2 SWAP1 POP JUMP JUMPDEST PUSH1 0xE0 DUP3 ADD PUSH1 0x0 DUP3 ADD MLOAD PUSH2 0x1797 PUSH1 0x0 DUP6 ADD DUP3 PUSH2 0x1349 JUMP JUMPDEST POP PUSH1 0x20 DUP3 ADD MLOAD PUSH2 0x17AA PUSH1 0x20 DUP6 ADD DUP3 PUSH2 0x180F JUMP JUMPDEST POP PUSH1 0x40 DUP3 ADD MLOAD PUSH2 0x17BD PUSH1 0x40 DUP6 ADD DUP3 PUSH2 0x180F JUMP JUMPDEST POP PUSH1 0x60 DUP3 ADD MLOAD PUSH2 0x17D0 PUSH1 0x60 DUP6 ADD DUP3 PUSH2 0x180F JUMP JUMPDEST POP PUSH1 0x80 DUP3 ADD MLOAD PUSH2 0x17E3 PUSH1 0x80 DUP6 ADD DUP3 PUSH2 0x180F JUMP JUMPDEST POP PUSH1 0xA0 DUP3 ADD MLOAD PUSH2 0x17F6 PUSH1 0xA0 DUP6 ADD DUP3 PUSH2 0x180F JUMP JUMPDEST POP PUSH1 0xC0 DUP3 ADD MLOAD PUSH2 0x1809 PUSH1 0xC0 DUP6 ADD DUP3 PUSH2 0x13DC JUMP JUMPDEST POP POP POP POP JUMP JUMPDEST PUSH2 0x1818 DUP2 PUSH2 0x1B3E JUMP JUMPDEST DUP3 MSTORE POP POP JUMP JUMPDEST PUSH2 0x1827 DUP2 PUSH2 0x1B3E JUMP JUMPDEST DUP3 MSTORE POP POP JUMP JUMPDEST PUSH2 0x183E PUSH2 0x1839 DUP3 PUSH2 0x1B3E JUMP JUMPDEST PUSH2 0x1B6C JUMP JUMPDEST DUP3 MSTORE POP POP JUMP JUMPDEST PUSH1 0x0 PUSH2 0x1850 DUP3 DUP6 PUSH2 0x1367 JUMP JUMPDEST PUSH1 0x14 DUP3 ADD SWAP2 POP PUSH2 0x1860 DUP3 DUP5 PUSH2 0x182D JUMP JUMPDEST PUSH1 0x20 DUP3 ADD SWAP2 POP DUP2 SWAP1 POP SWAP4 SWAP3 POP POP POP JUMP JUMPDEST PUSH1 0x0 PUSH1 0x20 DUP3 ADD SWAP1 POP PUSH2 0x1885 PUSH1 0x0 DUP4 ADD DUP5 PUSH2 0x1358 JUMP JUMPDEST SWAP3 SWAP2 POP POP JUMP JUMPDEST PUSH1 0x0 PUSH1 0x40 DUP3 ADD SWAP1 POP PUSH2 0x18A0 PUSH1 0x0 DUP4 ADD DUP6 PUSH2 0x1358 JUMP JUMPDEST PUSH2 0x18AD PUSH1 0x20 DUP4 ADD DUP5 PUSH2 0x181E JUMP JUMPDEST SWAP4 SWAP3 POP POP POP JUMP JUMPDEST PUSH1 0x0 PUSH1 0x20 DUP3 ADD SWAP1 POP DUP2 DUP2 SUB PUSH1 0x0 DUP4 ADD MSTORE PUSH2 0x18CE DUP2 DUP5 PUSH2 0x137E JUMP JUMPDEST SWAP1 POP SWAP3 SWAP2 POP POP JUMP JUMPDEST PUSH1 0x0 PUSH1 0x20 DUP3 ADD SWAP1 POP DUP2 DUP2 SUB PUSH1 0x0 DUP4 ADD MSTORE PUSH2 0x18EF DUP2 PUSH2 0x13EB JUMP JUMPDEST SWAP1 POP SWAP2 SWAP1 POP JUMP JUMPDEST PUSH1 0x0 PUSH1 0x20 DUP3 ADD SWAP1 POP DUP2 DUP2 SUB PUSH1 0x0 DUP4 ADD MSTORE PUSH2 0x190F DUP2 PUSH2 0x1451 JUMP JUMPDEST SWAP1 POP SWAP2 SWAP1 POP JUMP JUMPDEST PUSH1 0x0 PUSH1 0x20 DUP3 ADD SWAP1 POP DUP2 DUP2 SUB PUSH1 0x0 DUP4 ADD MSTORE PUSH2 0x192F DUP2 PUSH2 0x14B7 JUMP JUMPDEST SWAP1 POP SWAP2 SWAP1 POP JUMP JUMPDEST PUSH1 0x0 PUSH1 0x20 DUP3 ADD SWAP1 POP DUP2 DUP2 SUB PUSH1 0x0 DUP4 ADD MSTORE PUSH2 0x194F DUP2 PUSH2 0x151D JUMP JUMPDEST SWAP1 POP SWAP2 SWAP1 POP JUMP JUMPDEST PUSH1 0x0 PUSH1 0x20 DUP3 ADD SWAP1 POP DUP2 DUP2 SUB PUSH1 0x0 DUP4 ADD MSTORE PUSH2 0x196F DUP2 PUSH2 0x15A9 JUMP JUMPDEST SWAP1 POP SWAP2 SWAP1 POP JUMP JUMPDEST PUSH1 0x0 PUSH1 0x20 DUP3 ADD SWAP1 POP DUP2 DUP2 SUB PUSH1 0x0 DUP4 ADD MSTORE PUSH2 0x198F DUP2 PUSH2 0x160F JUMP JUMPDEST SWAP1 POP SWAP2 SWAP1 POP JUMP JUMPDEST PUSH1 0x0 PUSH1 0x20 DUP3 ADD SWAP1 POP DUP2 DUP2 SUB PUSH1 0x0 DUP4 ADD MSTORE PUSH2 0x19AF DUP2 PUSH2 0x1675 JUMP JUMPDEST SWAP1 POP SWAP2 SWAP1 POP JUMP JUMPDEST PUSH1 0x0 PUSH1 0x20 DUP3 ADD SWAP1 POP DUP2 DUP2 SUB PUSH1 0x0 DUP4 ADD MSTORE PUSH2 0x19CF DUP2 PUSH2 0x16DB JUMP JUMPDEST SWAP1 POP SWAP2 SWAP1 POP JUMP JUMPDEST PUSH1 0x0 PUSH1 0x20 DUP3 ADD SWAP1 POP DUP2 DUP2 SUB PUSH1 0x0 DUP4 ADD MSTORE PUSH2 0x19EF DUP2 PUSH2 0x171B JUMP JUMPDEST SWAP1 POP SWAP2 SWAP1 POP JUMP JUMPDEST PUSH1 0x0 PUSH1 0xE0 DUP3 ADD SWAP1 POP PUSH2 0x1A0B PUSH1 0x0 DUP4 ADD DUP5 PUSH2 0x1781 JUMP JUMPDEST SWAP3 SWAP2 POP POP JUMP JUMPDEST PUSH1 0x0 PUSH1 0x20 DUP3 ADD SWAP1 POP PUSH2 0x1A26 PUSH1 0x0 DUP4 ADD DUP5 PUSH2 0x181E JUMP JUMPDEST SWAP3 SWAP2 POP POP JUMP JUMPDEST PUSH1 0x0 DUP2 SWAP1 POP PUSH1 0x20 DUP3 ADD SWAP1 POP SWAP2 SWAP1 POP JUMP JUMPDEST PUSH1 0x0 DUP2 MLOAD SWAP1 POP SWAP2 SWAP1 POP JUMP JUMPDEST PUSH1 0x0 PUSH1 0x20 DUP3 ADD SWAP1 POP SWAP2 SWAP1 POP JUMP JUMPDEST PUSH1 0x0 DUP3 DUP3 MSTORE PUSH1 0x20 DUP3 ADD SWAP1 POP SWAP3 SWAP2 POP POP JUMP JUMPDEST PUSH1 0x0 DUP3 DUP3 MSTORE PUSH1 0x20 DUP3 ADD SWAP1 POP SWAP3 SWAP2 POP POP JUMP JUMPDEST PUSH1 0x0 PUSH2 0x1A81 DUP3 PUSH2 0x1B3E JUMP JUMPDEST SWAP2 POP PUSH2 0x1A8C DUP4 PUSH2 0x1B3E JUMP JUMPDEST SWAP3 POP DUP3 PUSH32 0xFFFFFFFFFFFFFFFFFFFFFFFFFFFFFFFFFFFFFFFFFFFFFFFFFFFFFFFFFFFFFFFF SUB DUP3 GT ISZERO PUSH2 0x1AC1 JUMPI PUSH2 0x1AC0 PUSH2 0x1BA7 JUMP JUMPDEST JUMPDEST DUP3 DUP3 ADD SWAP1 POP SWAP3 SWAP2 POP POP JUMP JUMPDEST PUSH1 0x0 PUSH2 0x1AD7 DUP3 PUSH2 0x1B3E JUMP JUMPDEST SWAP2 POP PUSH2 0x1AE2 DUP4 PUSH2 0x1B3E JUMP JUMPDEST SWAP3 POP DUP3 DUP3 LT ISZERO PUSH2 0x1AF5 JUMPI PUSH2 0x1AF4 PUSH2 0x1BA7 JUMP JUMPDEST JUMPDEST DUP3 DUP3 SUB SWAP1 POP SWAP3 SWAP2 POP POP JUMP JUMPDEST PUSH1 0x0 PUSH2 0x1B0B DUP3 PUSH2 0x1B1E JUMP JUMPDEST SWAP1 POP SWAP2 SWAP1 POP JUMP JUMPDEST PUSH1 0x0 DUP2 ISZERO ISZERO SWAP1 POP SWAP2 SWAP1 POP JUMP JUMPDEST PUSH1 0x0 PUSH20 0xFFFFFFFFFFFFFFFFFFFFFFFFFFFFFFFFFFFFFFFF DUP3 AND SWAP1 POP SWAP2 SWAP1 POP JUMP JUMPDEST PUSH1 0x0 DUP2 SWAP1 POP SWAP2 SWAP1 POP JUMP JUMPDEST PUSH1 0x0 PUSH2 0x1B53 DUP3 PUSH2 0x1B5A JUMP JUMPDEST SWAP1 POP SWAP2 SWAP1 POP JUMP JUMPDEST PUSH1 0x0 PUSH2 0x1B65 DUP3 PUSH2 0x1C05 JUMP JUMPDEST SWAP1 POP SWAP2 SWAP1 POP JUMP JUMPDEST PUSH1 0x0 DUP2 SWAP1 POP SWAP2 SWAP1 POP JUMP JUMPDEST PUSH1 0x0 PUSH2 0x1B81 DUP3 PUSH2 0x1B3E JUMP JUMPDEST SWAP2 POP PUSH2 0x1B8C DUP4 PUSH2 0x1B3E JUMP JUMPDEST SWAP3 POP DUP3 PUSH2 0x1B9C JUMPI PUSH2 0x1B9B PUSH2 0x1BD6 JUMP JUMPDEST JUMPDEST DUP3 DUP3 MOD SWAP1 POP SWAP3 SWAP2 POP POP JUMP JUMPDEST PUSH32 0x4E487B7100000000000000000000000000000000000000000000000000000000 PUSH1 0x0 MSTORE PUSH1 0x11 PUSH1 0x4 MSTORE PUSH1 0x24 PUSH1 0x0 REVERT JUMPDEST PUSH32 0x4E487B7100000000000000000000000000000000000000000000000000000000 PUSH1 0x0 MSTORE PUSH1 0x12 PUSH1 0x4 MSTORE PUSH1 0x24 PUSH1 0x0 REVERT JUMPDEST PUSH1 0x0 DUP2 PUSH1 0x60 SHL SWAP1 POP SWAP2 SWAP1 POP JUMP JUMPDEST PUSH2 0x1C1B DUP2 PUSH2 0x1B00 JUMP JUMPDEST DUP2 EQ PUSH2 0x1C26 JUMPI PUSH1 0x0 DUP1 REVERT JUMPDEST POP JUMP JUMPDEST PUSH2 0x1C32 DUP2 PUSH2 0x1B12 JUMP JUMPDEST DUP2 EQ PUSH2 0x1C3D JUMPI PUSH1 0x0 DUP1 REVERT JUMPDEST POP JUMP JUMPDEST PUSH2 0x1C49 DUP2 PUSH2 0x1B3E JUMP JUMPDEST DUP2 EQ PUSH2 0x1C54 JUMPI PUSH1 0x0 DUP1 REVERT JUMPDEST POP JUMP INVALID LOG2 PUSH5 0x6970667358 0x22 SLT KECCAK256 JUMP 0xAF 0xAF 0xE9 DIFFICULTY CALLDATACOPY DUP14 0xF7 STATICCALL DUP5 GASLIMIT BLOCKHASH PUSH5 0x2B7B3392 0xED 0xC3 JUMP PUSH12 0xDDA11B89451EEBE8EF36473 PUSH16 0x6C634300080000330000000000000000 "
				},
				"gasEstimates": {
					"creation": {
						"codeDepositCost": "1461800",
						"executionCost": "infinite",
						"totalCost": "infinite"
					},
					"external": {
						"": "218",
						"createVestingScheme(address,uint256,uint256,uint256,uint256)": "infinite",
						"getBeneficiarySchemeCountLimit()": "1181",
						"getSchemeCount()": "1160",
						"getSchemeCountLimit()": "1182",
						"getSchemeIdsByBeneficiary(address)": "infinite",
						"getUnvestedAmountById(uint256)": "infinite",
						"getVestingSchemeById(uint256)": "infinite",
						"owner()": "1289",
						"releaseTokens(uint256,uint256)": "infinite",
						"renounceOwnership()": "24485",
						"setBeneficiarySchemeCountLimit(uint256)": "21383",
						"setSchemeCountLimit(uint256)": "21361",
						"transferOwnership(address)": "24811"
					},
					"internal": {
						"_calculateNewSchemeId(address,uint256)": "infinite",
						"_now()": "infinite"
					}
				},
				"methodIdentifiers": {
					"createVestingScheme(address,uint256,uint256,uint256,uint256)": "8446464e",
					"getBeneficiarySchemeCountLimit()": "c93a7f6e",
					"getSchemeCount()": "78651b42",
					"getSchemeCountLimit()": "1a360f35",
					"getSchemeIdsByBeneficiary(address)": "3cfde549",
					"getUnvestedAmountById(uint256)": "9c42ad76",
					"getVestingSchemeById(uint256)": "decb4abc",
					"owner()": "8da5cb5b",
					"releaseTokens(uint256,uint256)": "3f4dd268",
					"renounceOwnership()": "715018a6",
					"setBeneficiarySchemeCountLimit(uint256)": "11e1512d",
					"setSchemeCountLimit(uint256)": "110809c7",
					"transferOwnership(address)": "f2fde38b"
				}
			},
			"storageLayout": {
				"storage": [
					{
						"astId": 455,
						"contract": "contract/tokenvesting.sol:TokenVesting",
						"label": "_owner",
						"offset": 0,
						"slot": "0",
						"type": "t_address"
					},
					{
						"astId": 43,
						"contract": "contract/tokenvesting.sol:TokenVesting",
						"label": "token",
						"offset": 0,
						"slot": "1",
						"type": "t_contract(IERC20)1216"
					},
					{
						"astId": 60,
						"contract": "contract/tokenvesting.sol:TokenVesting",
						"label": "schemeId",
						"offset": 0,
						"slot": "2",
						"type": "t_uint256"
					},
					{
						"astId": 62,
						"contract": "contract/tokenvesting.sol:TokenVesting",
						"label": "schemeCountLimit",
						"offset": 0,
						"slot": "3",
						"type": "t_uint256"
					},
					{
						"astId": 64,
						"contract": "contract/tokenvesting.sol:TokenVesting",
						"label": "schemeCount",
						"offset": 0,
						"slot": "4",
						"type": "t_uint256"
					},
					{
						"astId": 66,
						"contract": "contract/tokenvesting.sol:TokenVesting",
						"label": "beneficiarySchemeCountLimit",
						"offset": 0,
						"slot": "5",
						"type": "t_uint256"
					},
					{
						"astId": 71,
						"contract": "contract/tokenvesting.sol:TokenVesting",
						"label": "schemes",
						"offset": 0,
						"slot": "6",
						"type": "t_mapping(t_uint256,t_struct(vestingScheme)58_storage)"
					},
					{
						"astId": 76,
						"contract": "contract/tokenvesting.sol:TokenVesting",
						"label": "beneficiarySchemeIds",
						"offset": 0,
						"slot": "7",
						"type": "t_mapping(t_address,t_array(t_uint256)dyn_storage)"
					}
				],
				"types": {
					"t_address": {
						"encoding": "inplace",
						"label": "address",
						"numberOfBytes": "20"
					},
					"t_array(t_uint256)dyn_storage": {
						"base": "t_uint256",
						"encoding": "dynamic_array",
						"label": "uint256[]",
						"numberOfBytes": "32"
					},
					"t_bool": {
						"encoding": "inplace",
						"label": "bool",
						"numberOfBytes": "1"
					},
					"t_contract(IERC20)1216": {
						"encoding": "inplace",
						"label": "contract IERC20",
						"numberOfBytes": "20"
					},
					"t_mapping(t_address,t_array(t_uint256)dyn_storage)": {
						"encoding": "mapping",
						"key": "t_address",
						"label": "mapping(address => uint256[])",
						"numberOfBytes": "32",
						"value": "t_array(t_uint256)dyn_storage"
					},
					"t_mapping(t_uint256,t_struct(vestingScheme)58_storage)": {
						"encoding": "mapping",
						"key": "t_uint256",
						"label": "mapping(uint256 => struct TokenVesting.vestingScheme)",
						"numberOfBytes": "32",
						"value": "t_struct(vestingScheme)58_storage"
					},
					"t_struct(vestingScheme)58_storage": {
						"encoding": "inplace",
						"label": "struct TokenVesting.vestingScheme",
						"members": [
							{
								"astId": 45,
								"contract": "contract/tokenvesting.sol:TokenVesting",
								"label": "beneficiary",
								"offset": 0,
								"slot": "0",
								"type": "t_address"
							},
							{
								"astId": 47,
								"contract": "contract/tokenvesting.sol:TokenVesting",
								"label": "startTime",
								"offset": 0,
								"slot": "1",
								"type": "t_uint256"
							},
							{
								"astId": 49,
								"contract": "contract/tokenvesting.sol:TokenVesting",
								"label": "duration",
								"offset": 0,
								"slot": "2",
								"type": "t_uint256"
							},
							{
								"astId": 51,
								"contract": "contract/tokenvesting.sol:TokenVesting",
								"label": "releaseSchedule",
								"offset": 0,
								"slot": "3",
								"type": "t_uint256"
							},
							{
								"astId": 53,
								"contract": "contract/tokenvesting.sol:TokenVesting",
								"label": "amount",
								"offset": 0,
								"slot": "4",
								"type": "t_uint256"
							},
							{
								"astId": 55,
								"contract": "contract/tokenvesting.sol:TokenVesting",
								"label": "tokensReleased",
								"offset": 0,
								"slot": "5",
								"type": "t_uint256"
							},
							{
								"astId": 57,
								"contract": "contract/tokenvesting.sol:TokenVesting",
								"label": "isValid",
								"offset": 0,
								"slot": "6",
								"type": "t_bool"
							}
						],
						"numberOfBytes": "224"
					},
					"t_uint256": {
						"encoding": "inplace",
						"label": "uint256",
						"numberOfBytes": "32"
					}
				}
			},
			"userdoc": {
				"kind": "user",
				"methods": {},
				"version": 1
			}
		}
	}
}