{
	"contract/tokenvesting.sol": {
		"TokenVesting": {
			"abi": [
				{
					"inputs": [
						{
							"internalType": "address",
							"name": "_token",
							"type": "address"
						}
					],
					"stateMutability": "nonpayable",
					"type": "constructor"
				},
				{
					"anonymous": false,
					"inputs": [
						{
							"indexed": true,
							"internalType": "address",
							"name": "previousOwner",
							"type": "address"
						},
						{
							"indexed": true,
							"internalType": "address",
							"name": "newOwner",
							"type": "address"
						}
					],
					"name": "OwnershipTransferred",
					"type": "event"
				},
				{
					"anonymous": false,
					"inputs": [
						{
							"components": [
								{
									"internalType": "address",
									"name": "_beneficiary",
									"type": "address"
								},
								{
									"internalType": "uint256",
									"name": "_startTime",
									"type": "uint256"
								},
								{
									"internalType": "uint256",
									"name": "_duration",
									"type": "uint256"
								},
								{
									"internalType": "uint256",
									"name": "_releaseSchedule",
									"type": "uint256"
								},
								{
									"internalType": "uint256",
									"name": "_amount",
									"type": "uint256"
								},
								{
									"internalType": "uint256",
									"name": "_tokesReleased",
									"type": "uint256"
								},
								{
									"internalType": "bool",
									"name": "_isValid",
									"type": "bool"
								}
							],
							"indexed": false,
							"internalType": "struct TokenVesting.vestingScheme",
							"name": "",
							"type": "tuple"
						}
					],
					"name": "VestingShemeCreation",
					"type": "event"
				},
				{
					"stateMutability": "payable",
					"type": "fallback"
				},
				{
					"inputs": [
						{
							"internalType": "address",
							"name": "beneficiary_",
							"type": "address"
						},
						{
							"internalType": "uint256",
							"name": "startTime_",
							"type": "uint256"
						},
						{
							"internalType": "uint256",
							"name": "duration_",
							"type": "uint256"
						},
						{
							"internalType": "uint256",
							"name": "releaseSchedule_",
							"type": "uint256"
						},
						{
							"internalType": "uint256",
							"name": "amount_",
							"type": "uint256"
						}
					],
					"name": "createVestingScheme",
					"outputs": [],
					"stateMutability": "nonpayable",
					"type": "function"
				},
				{
					"inputs": [
						{
							"internalType": "uint256",
							"name": "_schemeId",
							"type": "uint256"
						}
					],
					"name": "getVestingSchemeById",
					"outputs": [
						{
							"components": [
								{
									"internalType": "address",
									"name": "_beneficiary",
									"type": "address"
								},
								{
									"internalType": "uint256",
									"name": "_startTime",
									"type": "uint256"
								},
								{
									"internalType": "uint256",
									"name": "_duration",
									"type": "uint256"
								},
								{
									"internalType": "uint256",
									"name": "_releaseSchedule",
									"type": "uint256"
								},
								{
									"internalType": "uint256",
									"name": "_amount",
									"type": "uint256"
								},
								{
									"internalType": "uint256",
									"name": "_tokesReleased",
									"type": "uint256"
								},
								{
									"internalType": "bool",
									"name": "_isValid",
									"type": "bool"
								}
							],
							"internalType": "struct TokenVesting.vestingScheme",
							"name": "",
							"type": "tuple"
						}
					],
					"stateMutability": "view",
					"type": "function"
				},
				{
					"inputs": [],
					"name": "owner",
					"outputs": [
						{
							"internalType": "address",
							"name": "",
							"type": "address"
						}
					],
					"stateMutability": "view",
					"type": "function"
				},
				{
					"inputs": [
						{
							"internalType": "uint256",
							"name": "_schemeId",
							"type": "uint256"
						},
						{
							"internalType": "uint256",
							"name": "_amount",
							"type": "uint256"
						}
					],
					"name": "releaseTokens",
					"outputs": [],
					"stateMutability": "nonpayable",
					"type": "function"
				},
				{
					"inputs": [],
					"name": "renounceOwnership",
					"outputs": [],
					"stateMutability": "nonpayable",
					"type": "function"
				},
				{
					"inputs": [
						{
							"internalType": "address",
							"name": "newOwner",
							"type": "address"
						}
					],
					"name": "transferOwnership",
					"outputs": [],
					"stateMutability": "nonpayable",
					"type": "function"
				},
				{
					"stateMutability": "payable",
					"type": "receive"
				}
			],
			"devdoc": {
				"kind": "dev",
				"methods": {
					"owner()": {
						"details": "Returns the address of the current owner."
					},
					"renounceOwnership()": {
						"details": "Leaves the contract without owner. It will not be possible to call `onlyOwner` functions anymore. Can only be called by the current owner. NOTE: Renouncing ownership will leave the contract without an owner, thereby removing any functionality that is only available to the owner."
					},
					"transferOwnership(address)": {
						"details": "Transfers ownership of the contract to a new account (`newOwner`). Can only be called by the current owner."
					}
				},
				"version": 1
			},
			"evm": {
				"assembly": "    /* \"contract/tokenvesting.sol\":522:2606  contract TokenVesting is Ownable {\r... */\n  mstore(0x40, 0x80)\n    /* \"contract/tokenvesting.sol\":1126:1221  constructor (address _token) notZeroAddress (_token) {\r... */\n  callvalue\n  dup1\n  iszero\n  tag_1\n  jumpi\n  0x00\n  dup1\n  revert\ntag_1:\n  pop\n  mload(0x40)\n  sub(codesize, bytecodeSize)\n  dup1\n  bytecodeSize\n  dup4\n  codecopy\n  dup2\n  dup2\n  add\n  0x40\n  mstore\n  dup2\n  add\n  swap1\n  tag_2\n  swap2\n  swap1\n  tag_3\n  jump\t// in\ntag_2:\n    /* \"https://github.com/OpenZeppelin/openzeppelin-contracts/blob/master/contracts/access/Ownable.sol\":921:953  _transferOwnership(_msgSender()) */\n  tag_7\n    /* \"https://github.com/OpenZeppelin/openzeppelin-contracts/blob/master/contracts/access/Ownable.sol\":940:952  _msgSender() */\n  tag_8\n    /* \"https://github.com/OpenZeppelin/openzeppelin-contracts/blob/master/contracts/access/Ownable.sol\":940:950  _msgSender */\n  shl(0x20, tag_9)\n    /* \"https://github.com/OpenZeppelin/openzeppelin-contracts/blob/master/contracts/access/Ownable.sol\":940:952  _msgSender() */\n  0x20\n  shr\n  jump\t// in\ntag_8:\n    /* \"https://github.com/OpenZeppelin/openzeppelin-contracts/blob/master/contracts/access/Ownable.sol\":921:939  _transferOwnership */\n  shl(0x20, tag_10)\n    /* \"https://github.com/OpenZeppelin/openzeppelin-contracts/blob/master/contracts/access/Ownable.sol\":921:953  _transferOwnership(_msgSender()) */\n  0x20\n  shr\n  jump\t// in\ntag_7:\n    /* \"contract/tokenvesting.sol\":1171:1177  _token */\n  dup1\n    /* \"contract/tokenvesting.sol\":1095:1096  0 */\n  0x00\n    /* \"contract/tokenvesting.sol\":1077:1097  _token != address(0) */\n  0xffffffffffffffffffffffffffffffffffffffff\n  and\n    /* \"contract/tokenvesting.sol\":1077:1083  _token */\n  dup2\n    /* \"contract/tokenvesting.sol\":1077:1097  _token != address(0) */\n  0xffffffffffffffffffffffffffffffffffffffff\n  and\n  eq\n  iszero\n    /* \"contract/tokenvesting.sol\":1068:1098  require (_token != address(0)) */\n  tag_12\n  jumpi\n  0x00\n  dup1\n  revert\ntag_12:\n    /* \"contract/tokenvesting.sol\":1206:1212  _token */\n  dup2\n    /* \"contract/tokenvesting.sol\":1190:1195  token */\n  0x01\n  0x00\n    /* \"contract/tokenvesting.sol\":1190:1213  token = IERC20 (_token) */\n  0x0100\n  exp\n  dup2\n  sload\n  dup2\n  0xffffffffffffffffffffffffffffffffffffffff\n  mul\n  not\n  and\n  swap1\n  dup4\n  0xffffffffffffffffffffffffffffffffffffffff\n  and\n  mul\n  or\n  swap1\n  sstore\n  pop\n    /* \"contract/tokenvesting.sol\":1126:1221  constructor (address _token) notZeroAddress (_token) {\r... */\n  pop\n  pop\n    /* \"contract/tokenvesting.sol\":522:2606  contract TokenVesting is Ownable {\r... */\n  jump(tag_14)\n    /* \"https://github.com/OpenZeppelin/openzeppelin-contracts/blob/master/contracts/utils/Context.sol\":640:736  function _msgSender() internal view virtual returns (address) {... */\ntag_9:\n    /* \"https://github.com/OpenZeppelin/openzeppelin-contracts/blob/master/contracts/utils/Context.sol\":693:700  address */\n  0x00\n    /* \"https://github.com/OpenZeppelin/openzeppelin-contracts/blob/master/contracts/utils/Context.sol\":719:729  msg.sender */\n  caller\n    /* \"https://github.com/OpenZeppelin/openzeppelin-contracts/blob/master/contracts/utils/Context.sol\":712:729  return msg.sender */\n  swap1\n  pop\n    /* \"https://github.com/OpenZeppelin/openzeppelin-contracts/blob/master/contracts/utils/Context.sol\":640:736  function _msgSender() internal view virtual returns (address) {... */\n  swap1\n  jump\t// out\n    /* \"https://github.com/OpenZeppelin/openzeppelin-contracts/blob/master/contracts/access/Ownable.sol\":2270:2457  function _transferOwnership(address newOwner) internal virtual {... */\ntag_10:\n    /* \"https://github.com/OpenZeppelin/openzeppelin-contracts/blob/master/contracts/access/Ownable.sol\":2343:2359  address oldOwner */\n  0x00\n    /* \"https://github.com/OpenZeppelin/openzeppelin-contracts/blob/master/contracts/access/Ownable.sol\":2362:2368  _owner */\n  dup1\n  0x00\n  swap1\n  sload\n  swap1\n  0x0100\n  exp\n  swap1\n  div\n  0xffffffffffffffffffffffffffffffffffffffff\n  and\n    /* \"https://github.com/OpenZeppelin/openzeppelin-contracts/blob/master/contracts/access/Ownable.sol\":2343:2368  address oldOwner = _owner */\n  swap1\n  pop\n    /* \"https://github.com/OpenZeppelin/openzeppelin-contracts/blob/master/contracts/access/Ownable.sol\":2387:2395  newOwner */\n  dup2\n    /* \"https://github.com/OpenZeppelin/openzeppelin-contracts/blob/master/contracts/access/Ownable.sol\":2378:2384  _owner */\n  0x00\n  dup1\n    /* \"https://github.com/OpenZeppelin/openzeppelin-contracts/blob/master/contracts/access/Ownable.sol\":2378:2395  _owner = newOwner */\n  0x0100\n  exp\n  dup2\n  sload\n  dup2\n  0xffffffffffffffffffffffffffffffffffffffff\n  mul\n  not\n  and\n  swap1\n  dup4\n  0xffffffffffffffffffffffffffffffffffffffff\n  and\n  mul\n  or\n  swap1\n  sstore\n  pop\n    /* \"https://github.com/OpenZeppelin/openzeppelin-contracts/blob/master/contracts/access/Ownable.sol\":2441:2449  newOwner */\n  dup2\n    /* \"https://github.com/OpenZeppelin/openzeppelin-contracts/blob/master/contracts/access/Ownable.sol\":2410:2450  OwnershipTransferred(oldOwner, newOwner) */\n  0xffffffffffffffffffffffffffffffffffffffff\n  and\n    /* \"https://github.com/OpenZeppelin/openzeppelin-contracts/blob/master/contracts/access/Ownable.sol\":2431:2439  oldOwner */\n  dup2\n    /* \"https://github.com/OpenZeppelin/openzeppelin-contracts/blob/master/contracts/access/Ownable.sol\":2410:2450  OwnershipTransferred(oldOwner, newOwner) */\n  0xffffffffffffffffffffffffffffffffffffffff\n  and\n  0x8be0079c531659141344cd1fd0a4f28419497f9722a3daafe3b4186f6b6457e0\n  mload(0x40)\n  mload(0x40)\n  dup1\n  swap2\n  sub\n  swap1\n  log3\n    /* \"https://github.com/OpenZeppelin/openzeppelin-contracts/blob/master/contracts/access/Ownable.sol\":2270:2457  function _transferOwnership(address newOwner) internal virtual {... */\n  pop\n  pop\n  jump\t// out\n    /* \"#utility.yul\":7:150   */\ntag_18:\n  0x00\n    /* \"#utility.yul\":95:101   */\n  dup2\n    /* \"#utility.yul\":89:102   */\n  mload\n    /* \"#utility.yul\":80:102   */\n  swap1\n  pop\n    /* \"#utility.yul\":111:144   */\n  tag_20\n    /* \"#utility.yul\":138:143   */\n  dup2\n    /* \"#utility.yul\":111:144   */\n  tag_21\n  jump\t// in\ntag_20:\n    /* \"#utility.yul\":70:150   */\n  swap3\n  swap2\n  pop\n  pop\n  jump\t// out\n    /* \"#utility.yul\":156:440   */\ntag_3:\n  0x00\n    /* \"#utility.yul\":275:277   */\n  0x20\n    /* \"#utility.yul\":263:272   */\n  dup3\n    /* \"#utility.yul\":254:261   */\n  dup5\n    /* \"#utility.yul\":250:273   */\n  sub\n    /* \"#utility.yul\":246:278   */\n  slt\n    /* \"#utility.yul\":243:245   */\n  iszero\n  tag_23\n  jumpi\n    /* \"#utility.yul\":291:292   */\n  0x00\n    /* \"#utility.yul\":288:289   */\n  dup1\n    /* \"#utility.yul\":281:293   */\n  revert\n    /* \"#utility.yul\":243:245   */\ntag_23:\n    /* \"#utility.yul\":334:335   */\n  0x00\n    /* \"#utility.yul\":359:423   */\n  tag_24\n    /* \"#utility.yul\":415:422   */\n  dup5\n    /* \"#utility.yul\":406:412   */\n  dup3\n    /* \"#utility.yul\":395:404   */\n  dup6\n    /* \"#utility.yul\":391:413   */\n  add\n    /* \"#utility.yul\":359:423   */\n  tag_18\n  jump\t// in\ntag_24:\n    /* \"#utility.yul\":349:423   */\n  swap2\n  pop\n    /* \"#utility.yul\":305:433   */\n  pop\n    /* \"#utility.yul\":233:440   */\n  swap3\n  swap2\n  pop\n  pop\n  jump\t// out\n    /* \"#utility.yul\":446:542   */\ntag_25:\n  0x00\n    /* \"#utility.yul\":512:536   */\n  tag_27\n    /* \"#utility.yul\":530:535   */\n  dup3\n    /* \"#utility.yul\":512:536   */\n  tag_28\n  jump\t// in\ntag_27:\n    /* \"#utility.yul\":501:536   */\n  swap1\n  pop\n    /* \"#utility.yul\":491:542   */\n  swap2\n  swap1\n  pop\n  jump\t// out\n    /* \"#utility.yul\":548:674   */\ntag_28:\n  0x00\n    /* \"#utility.yul\":625:667   */\n  0xffffffffffffffffffffffffffffffffffffffff\n    /* \"#utility.yul\":618:623   */\n  dup3\n    /* \"#utility.yul\":614:668   */\n  and\n    /* \"#utility.yul\":603:668   */\n  swap1\n  pop\n    /* \"#utility.yul\":593:674   */\n  swap2\n  swap1\n  pop\n  jump\t// out\n    /* \"#utility.yul\":680:802   */\ntag_21:\n    /* \"#utility.yul\":753:777   */\n  tag_31\n    /* \"#utility.yul\":771:776   */\n  dup2\n    /* \"#utility.yul\":753:777   */\n  tag_25\n  jump\t// in\ntag_31:\n    /* \"#utility.yul\":746:751   */\n  dup2\n    /* \"#utility.yul\":743:778   */\n  eq\n    /* \"#utility.yul\":733:735   */\n  tag_32\n  jumpi\n    /* \"#utility.yul\":792:793   */\n  0x00\n    /* \"#utility.yul\":789:790   */\n  dup1\n    /* \"#utility.yul\":782:794   */\n  revert\n    /* \"#utility.yul\":733:735   */\ntag_32:\n    /* \"#utility.yul\":723:802   */\n  pop\n  jump\t// out\n    /* \"contract/tokenvesting.sol\":522:2606  contract TokenVesting is Ownable {\r... */\ntag_14:\n  dataSize(sub_0)\n  dup1\n  dataOffset(sub_0)\n  0x00\n  codecopy\n  0x00\n  return\nstop\n\nsub_0: assembly {\n        /* \"contract/tokenvesting.sol\":522:2606  contract TokenVesting is Ownable {\r... */\n      mstore(0x40, 0x80)\n      jumpi(tag_1, lt(calldatasize, 0x04))\n      shr(0xe0, calldataload(0x00))\n      dup1\n      0x3f4dd268\n      eq\n      tag_3\n      jumpi\n      dup1\n      0x715018a6\n      eq\n      tag_4\n      jumpi\n      dup1\n      0x8446464e\n      eq\n      tag_5\n      jumpi\n      dup1\n      0x8da5cb5b\n      eq\n      tag_6\n      jumpi\n      dup1\n      0xdecb4abc\n      eq\n      tag_7\n      jumpi\n      dup1\n      0xf2fde38b\n      eq\n      tag_8\n      jumpi\n      jump(tag_2)\n    tag_1:\n      jumpi(tag_2, calldatasize)\n      stop\n    tag_2:\n      stop\n        /* \"contract/tokenvesting.sol\":2485:2597  function releaseTokens (\r... */\n    tag_3:\n      callvalue\n      dup1\n      iszero\n      tag_13\n      jumpi\n      0x00\n      dup1\n      revert\n    tag_13:\n      pop\n      tag_14\n      0x04\n      dup1\n      calldatasize\n      sub\n      dup2\n      add\n      swap1\n      tag_15\n      swap2\n      swap1\n      tag_16\n      jump\t// in\n    tag_15:\n      tag_17\n      jump\t// in\n    tag_14:\n      stop\n        /* \"https://github.com/OpenZeppelin/openzeppelin-contracts/blob/master/contracts/access/Ownable.sol\":1668:1769  function renounceOwnership() public virtual onlyOwner {... */\n    tag_4:\n      callvalue\n      dup1\n      iszero\n      tag_18\n      jumpi\n      0x00\n      dup1\n      revert\n    tag_18:\n      pop\n      tag_19\n      tag_20\n      jump\t// in\n    tag_19:\n      stop\n        /* \"contract/tokenvesting.sol\":1672:2477  function createVestingScheme (\r... */\n    tag_5:\n      callvalue\n      dup1\n      iszero\n      tag_21\n      jumpi\n      0x00\n      dup1\n      revert\n    tag_21:\n      pop\n      tag_22\n      0x04\n      dup1\n      calldatasize\n      sub\n      dup2\n      add\n      swap1\n      tag_23\n      swap2\n      swap1\n      tag_24\n      jump\t// in\n    tag_23:\n      tag_25\n      jump\t// in\n    tag_22:\n      stop\n        /* \"https://github.com/OpenZeppelin/openzeppelin-contracts/blob/master/contracts/access/Ownable.sol\":1036:1121  function owner() public view virtual returns (address) {... */\n    tag_6:\n      callvalue\n      dup1\n      iszero\n      tag_26\n      jumpi\n      0x00\n      dup1\n      revert\n    tag_26:\n      pop\n      tag_27\n      tag_28\n      jump\t// in\n    tag_27:\n      mload(0x40)\n      tag_29\n      swap2\n      swap1\n      tag_30\n      jump\t// in\n    tag_29:\n      mload(0x40)\n      dup1\n      swap2\n      sub\n      swap1\n      return\n        /* \"contract/tokenvesting.sol\":1304:1664  function getVestingSchemeById (uint _schemeId) \r... */\n    tag_7:\n      callvalue\n      dup1\n      iszero\n      tag_31\n      jumpi\n      0x00\n      dup1\n      revert\n    tag_31:\n      pop\n      tag_32\n      0x04\n      dup1\n      calldatasize\n      sub\n      dup2\n      add\n      swap1\n      tag_33\n      swap2\n      swap1\n      tag_34\n      jump\t// in\n    tag_33:\n      tag_35\n      jump\t// in\n    tag_32:\n      mload(0x40)\n      tag_36\n      swap2\n      swap1\n      tag_37\n      jump\t// in\n    tag_36:\n      mload(0x40)\n      dup1\n      swap2\n      sub\n      swap1\n      return\n        /* \"https://github.com/OpenZeppelin/openzeppelin-contracts/blob/master/contracts/access/Ownable.sol\":1918:2116  function transferOwnership(address newOwner) public virtual onlyOwner {... */\n    tag_8:\n      callvalue\n      dup1\n      iszero\n      tag_38\n      jumpi\n      0x00\n      dup1\n      revert\n    tag_38:\n      pop\n      tag_39\n      0x04\n      dup1\n      calldatasize\n      sub\n      dup2\n      add\n      swap1\n      tag_40\n      swap2\n      swap1\n      tag_41\n      jump\t// in\n    tag_40:\n      tag_42\n      jump\t// in\n    tag_39:\n      stop\n        /* \"contract/tokenvesting.sol\":2485:2597  function releaseTokens (\r... */\n    tag_17:\n      pop\n      pop\n      jump\t// out\n        /* \"https://github.com/OpenZeppelin/openzeppelin-contracts/blob/master/contracts/access/Ownable.sol\":1668:1769  function renounceOwnership() public virtual onlyOwner {... */\n    tag_20:\n        /* \"https://github.com/OpenZeppelin/openzeppelin-contracts/blob/master/contracts/access/Ownable.sol\":1259:1271  _msgSender() */\n      tag_45\n        /* \"https://github.com/OpenZeppelin/openzeppelin-contracts/blob/master/contracts/access/Ownable.sol\":1259:1269  _msgSender */\n      tag_46\n        /* \"https://github.com/OpenZeppelin/openzeppelin-contracts/blob/master/contracts/access/Ownable.sol\":1259:1271  _msgSender() */\n      jump\t// in\n    tag_45:\n        /* \"https://github.com/OpenZeppelin/openzeppelin-contracts/blob/master/contracts/access/Ownable.sol\":1248:1271  owner() == _msgSender() */\n      0xffffffffffffffffffffffffffffffffffffffff\n      and\n        /* \"https://github.com/OpenZeppelin/openzeppelin-contracts/blob/master/contracts/access/Ownable.sol\":1248:1255  owner() */\n      tag_47\n        /* \"https://github.com/OpenZeppelin/openzeppelin-contracts/blob/master/contracts/access/Ownable.sol\":1248:1253  owner */\n      tag_28\n        /* \"https://github.com/OpenZeppelin/openzeppelin-contracts/blob/master/contracts/access/Ownable.sol\":1248:1255  owner() */\n      jump\t// in\n    tag_47:\n        /* \"https://github.com/OpenZeppelin/openzeppelin-contracts/blob/master/contracts/access/Ownable.sol\":1248:1271  owner() == _msgSender() */\n      0xffffffffffffffffffffffffffffffffffffffff\n      and\n      eq\n        /* \"https://github.com/OpenZeppelin/openzeppelin-contracts/blob/master/contracts/access/Ownable.sol\":1240:1308  require(owner() == _msgSender(), \"Ownable: caller is not the owner\") */\n      tag_48\n      jumpi\n      mload(0x40)\n      0x08c379a000000000000000000000000000000000000000000000000000000000\n      dup2\n      mstore\n      0x04\n      add\n      tag_49\n      swap1\n      tag_50\n      jump\t// in\n    tag_49:\n      mload(0x40)\n      dup1\n      swap2\n      sub\n      swap1\n      revert\n    tag_48:\n        /* \"https://github.com/OpenZeppelin/openzeppelin-contracts/blob/master/contracts/access/Ownable.sol\":1732:1762  _transferOwnership(address(0)) */\n      tag_52\n        /* \"https://github.com/OpenZeppelin/openzeppelin-contracts/blob/master/contracts/access/Ownable.sol\":1759:1760  0 */\n      0x00\n        /* \"https://github.com/OpenZeppelin/openzeppelin-contracts/blob/master/contracts/access/Ownable.sol\":1732:1750  _transferOwnership */\n      tag_53\n        /* \"https://github.com/OpenZeppelin/openzeppelin-contracts/blob/master/contracts/access/Ownable.sol\":1732:1762  _transferOwnership(address(0)) */\n      jump\t// in\n    tag_52:\n        /* \"https://github.com/OpenZeppelin/openzeppelin-contracts/blob/master/contracts/access/Ownable.sol\":1668:1769  function renounceOwnership() public virtual onlyOwner {... */\n      jump\t// out\n        /* \"contract/tokenvesting.sol\":1672:2477  function createVestingScheme (\r... */\n    tag_25:\n        /* \"https://github.com/OpenZeppelin/openzeppelin-contracts/blob/master/contracts/access/Ownable.sol\":1259:1271  _msgSender() */\n      tag_55\n        /* \"https://github.com/OpenZeppelin/openzeppelin-contracts/blob/master/contracts/access/Ownable.sol\":1259:1269  _msgSender */\n      tag_46\n        /* \"https://github.com/OpenZeppelin/openzeppelin-contracts/blob/master/contracts/access/Ownable.sol\":1259:1271  _msgSender() */\n      jump\t// in\n    tag_55:\n        /* \"https://github.com/OpenZeppelin/openzeppelin-contracts/blob/master/contracts/access/Ownable.sol\":1248:1271  owner() == _msgSender() */\n      0xffffffffffffffffffffffffffffffffffffffff\n      and\n        /* \"https://github.com/OpenZeppelin/openzeppelin-contracts/blob/master/contracts/access/Ownable.sol\":1248:1255  owner() */\n      tag_56\n        /* \"https://github.com/OpenZeppelin/openzeppelin-contracts/blob/master/contracts/access/Ownable.sol\":1248:1253  owner */\n      tag_28\n        /* \"https://github.com/OpenZeppelin/openzeppelin-contracts/blob/master/contracts/access/Ownable.sol\":1248:1255  owner() */\n      jump\t// in\n    tag_56:\n        /* \"https://github.com/OpenZeppelin/openzeppelin-contracts/blob/master/contracts/access/Ownable.sol\":1248:1271  owner() == _msgSender() */\n      0xffffffffffffffffffffffffffffffffffffffff\n      and\n      eq\n        /* \"https://github.com/OpenZeppelin/openzeppelin-contracts/blob/master/contracts/access/Ownable.sol\":1240:1308  require(owner() == _msgSender(), \"Ownable: caller is not the owner\") */\n      tag_57\n      jumpi\n      mload(0x40)\n      0x08c379a000000000000000000000000000000000000000000000000000000000\n      dup2\n      mstore\n      0x04\n      add\n      tag_58\n      swap1\n      tag_50\n      jump\t// in\n    tag_58:\n      mload(0x40)\n      dup1\n      swap2\n      sub\n      swap1\n      revert\n    tag_57:\n        /* \"contract/tokenvesting.sol\":1920:1921  0 */\n      0x00\n        /* \"contract/tokenvesting.sol\":1896:1922  beneficiary_ != address(0) */\n      0xffffffffffffffffffffffffffffffffffffffff\n      and\n        /* \"contract/tokenvesting.sol\":1896:1908  beneficiary_ */\n      dup6\n        /* \"contract/tokenvesting.sol\":1896:1922  beneficiary_ != address(0) */\n      0xffffffffffffffffffffffffffffffffffffffff\n      and\n      eq\n      iszero\n        /* \"contract/tokenvesting.sol\":1887:1979  require (beneficiary_ != address(0), \"TokenVesting: Cannot add zero address as beneficiary\") */\n      tag_60\n      jumpi\n      mload(0x40)\n      0x08c379a000000000000000000000000000000000000000000000000000000000\n      dup2\n      mstore\n      0x04\n      add\n      tag_61\n      swap1\n      tag_62\n      jump\t// in\n    tag_61:\n      mload(0x40)\n      dup1\n      swap2\n      sub\n      swap1\n      revert\n    tag_60:\n        /* \"contract/tokenvesting.sol\":2011:2012  0 */\n      0x00\n        /* \"contract/tokenvesting.sol\":1999:2008  duration_ */\n      dup4\n        /* \"contract/tokenvesting.sol\":1999:2012  duration_ > 0 */\n      gt\n        /* \"contract/tokenvesting.sol\":1990:2071  require (duration_ > 0, \"TokenVesting: Vesting period must be greater than zero\") */\n      tag_63\n      jumpi\n      mload(0x40)\n      0x08c379a000000000000000000000000000000000000000000000000000000000\n      dup2\n      mstore\n      0x04\n      add\n      tag_64\n      swap1\n      tag_65\n      jump\t// in\n    tag_64:\n      mload(0x40)\n      dup1\n      swap2\n      sub\n      swap1\n      revert\n    tag_63:\n        /* \"contract/tokenvesting.sol\":2101:2102  0 */\n      0x00\n        /* \"contract/tokenvesting.sol\":2091:2098  amount_ */\n      dup2\n        /* \"contract/tokenvesting.sol\":2091:2102  amount_ > 0 */\n      gt\n        /* \"contract/tokenvesting.sol\":2082:2159  require (amount_ > 0, \"TokenVesting: Vestable amount must be greater than 0\") */\n      tag_66\n      jumpi\n      mload(0x40)\n      0x08c379a000000000000000000000000000000000000000000000000000000000\n      dup2\n      mstore\n      0x04\n      add\n      tag_67\n      swap1\n      tag_68\n      jump\t// in\n    tag_67:\n      mload(0x40)\n      dup1\n      swap2\n      sub\n      swap1\n      revert\n    tag_66:\n        /* \"contract/tokenvesting.sol\":2170:2197  vestingScheme memory scheme */\n      0x00\n        /* \"contract/tokenvesting.sol\":2200:2357  vestingScheme (\r... */\n      mload(0x40)\n      dup1\n      0xe0\n      add\n      0x40\n      mstore\n      dup1\n        /* \"contract/tokenvesting.sol\":2225:2237  beneficiary_ */\n      dup8\n        /* \"contract/tokenvesting.sol\":2200:2357  vestingScheme (\r... */\n      0xffffffffffffffffffffffffffffffffffffffff\n      and\n      dup2\n      mstore\n      0x20\n      add\n        /* \"contract/tokenvesting.sol\":2249:2259  startTime_ */\n      dup7\n        /* \"contract/tokenvesting.sol\":2200:2357  vestingScheme (\r... */\n      dup2\n      mstore\n      0x20\n      add\n        /* \"contract/tokenvesting.sol\":2271:2280  duration_ */\n      dup6\n        /* \"contract/tokenvesting.sol\":2200:2357  vestingScheme (\r... */\n      dup2\n      mstore\n      0x20\n      add\n        /* \"contract/tokenvesting.sol\":2292:2308  releaseSchedule_ */\n      dup5\n        /* \"contract/tokenvesting.sol\":2200:2357  vestingScheme (\r... */\n      dup2\n      mstore\n      0x20\n      add\n        /* \"contract/tokenvesting.sol\":2320:2327  amount_ */\n      dup4\n        /* \"contract/tokenvesting.sol\":2200:2357  vestingScheme (\r... */\n      dup2\n      mstore\n      0x20\n      add\n        /* \"contract/tokenvesting.sol\":2339:2340  0 */\n      0x00\n        /* \"contract/tokenvesting.sol\":2200:2357  vestingScheme (\r... */\n      dup2\n      mstore\n      0x20\n      add\n        /* \"contract/tokenvesting.sol\":2352:2356  true */\n      0x01\n        /* \"contract/tokenvesting.sol\":2200:2357  vestingScheme (\r... */\n      iszero\n      iszero\n      dup2\n      mstore\n      pop\n        /* \"contract/tokenvesting.sol\":2170:2357  vestingScheme memory scheme = vestingScheme (\r... */\n      swap1\n      pop\n        /* \"contract/tokenvesting.sol\":2390:2396  scheme */\n      dup1\n        /* \"contract/tokenvesting.sol\":2370:2377  schemes */\n      0x03\n        /* \"contract/tokenvesting.sol\":2370:2387  schemes[schemeId] */\n      0x00\n        /* \"contract/tokenvesting.sol\":2378:2386  schemeId */\n      sload(0x02)\n        /* \"contract/tokenvesting.sol\":2370:2387  schemes[schemeId] */\n      dup2\n      mstore\n      0x20\n      add\n      swap1\n      dup2\n      mstore\n      0x20\n      add\n      0x00\n      keccak256\n        /* \"contract/tokenvesting.sol\":2370:2396  schemes[schemeId] = scheme */\n      0x00\n      dup3\n      add\n      mload\n      dup2\n      0x00\n      add\n      exp(0x0100, 0x00)\n      dup2\n      sload\n      dup2\n      0xffffffffffffffffffffffffffffffffffffffff\n      mul\n      not\n      and\n      swap1\n      dup4\n      0xffffffffffffffffffffffffffffffffffffffff\n      and\n      mul\n      or\n      swap1\n      sstore\n      pop\n      0x20\n      dup3\n      add\n      mload\n      dup2\n      0x01\n      add\n      sstore\n      0x40\n      dup3\n      add\n      mload\n      dup2\n      0x02\n      add\n      sstore\n      0x60\n      dup3\n      add\n      mload\n      dup2\n      0x03\n      add\n      sstore\n      0x80\n      dup3\n      add\n      mload\n      dup2\n      0x04\n      add\n      sstore\n      0xa0\n      dup3\n      add\n      mload\n      dup2\n      0x05\n      add\n      sstore\n      0xc0\n      dup3\n      add\n      mload\n      dup2\n      0x06\n      add\n      exp(0x0100, 0x00)\n      dup2\n      sload\n      dup2\n      0xff\n      mul\n      not\n      and\n      swap1\n      dup4\n      iszero\n      iszero\n      mul\n      or\n      swap1\n      sstore\n      pop\n      swap1\n      pop\n      pop\n        /* \"contract/tokenvesting.sol\":2408:2423  schemeId.add(1) */\n      tag_69\n        /* \"contract/tokenvesting.sol\":2421:2422  1 */\n      0x01\n        /* \"contract/tokenvesting.sol\":2408:2416  schemeId */\n      sload(0x02)\n        /* \"contract/tokenvesting.sol\":2408:2420  schemeId.add */\n      tag_70\n      swap1\n        /* \"contract/tokenvesting.sol\":2408:2423  schemeId.add(1) */\n      swap2\n      swap1\n      0xffffffff\n      and\n      jump\t// in\n    tag_69:\n      pop\n        /* \"contract/tokenvesting.sol\":2440:2469  VestingShemeCreation (scheme) */\n      0x4690aeb2b7a0d7d4c6f1339d4f6971b190ced078fe64863cd0f11710ff4f28ed\n        /* \"contract/tokenvesting.sol\":2462:2468  scheme */\n      dup2\n        /* \"contract/tokenvesting.sol\":2440:2469  VestingShemeCreation (scheme) */\n      mload(0x40)\n      tag_71\n      swap2\n      swap1\n      tag_37\n      jump\t// in\n    tag_71:\n      mload(0x40)\n      dup1\n      swap2\n      sub\n      swap1\n      log1\n        /* \"https://github.com/OpenZeppelin/openzeppelin-contracts/blob/master/contracts/access/Ownable.sol\":1318:1319  _ */\n      pop\n        /* \"contract/tokenvesting.sol\":1672:2477  function createVestingScheme (\r... */\n      pop\n      pop\n      pop\n      pop\n      pop\n      jump\t// out\n        /* \"https://github.com/OpenZeppelin/openzeppelin-contracts/blob/master/contracts/access/Ownable.sol\":1036:1121  function owner() public view virtual returns (address) {... */\n    tag_28:\n        /* \"https://github.com/OpenZeppelin/openzeppelin-contracts/blob/master/contracts/access/Ownable.sol\":1082:1089  address */\n      0x00\n        /* \"https://github.com/OpenZeppelin/openzeppelin-contracts/blob/master/contracts/access/Ownable.sol\":1108:1114  _owner */\n      dup1\n      0x00\n      swap1\n      sload\n      swap1\n      0x0100\n      exp\n      swap1\n      div\n      0xffffffffffffffffffffffffffffffffffffffff\n      and\n        /* \"https://github.com/OpenZeppelin/openzeppelin-contracts/blob/master/contracts/access/Ownable.sol\":1101:1114  return _owner */\n      swap1\n      pop\n        /* \"https://github.com/OpenZeppelin/openzeppelin-contracts/blob/master/contracts/access/Ownable.sol\":1036:1121  function owner() public view virtual returns (address) {... */\n      swap1\n      jump\t// out\n        /* \"contract/tokenvesting.sol\":1304:1664  function getVestingSchemeById (uint _schemeId) \r... */\n    tag_35:\n        /* \"contract/tokenvesting.sol\":1392:1412  vestingScheme memory */\n      tag_73\n      tag_74\n      jump\t// in\n    tag_73:\n        /* \"contract/tokenvesting.sol\":1446:1454  schemeId */\n      sload(0x02)\n        /* \"contract/tokenvesting.sol\":1434:1443  _schemeId */\n      dup3\n        /* \"contract/tokenvesting.sol\":1434:1454  _schemeId < schemeId */\n      lt\n        /* \"contract/tokenvesting.sol\":1425:1496  require (_schemeId < schemeId, \"TokenVesting: Scheme Id out of bounds\") */\n      tag_76\n      jumpi\n      mload(0x40)\n      0x08c379a000000000000000000000000000000000000000000000000000000000\n      dup2\n      mstore\n      0x04\n      add\n      tag_77\n      swap1\n      tag_78\n      jump\t// in\n    tag_77:\n      mload(0x40)\n      dup1\n      swap2\n      sub\n      swap1\n      revert\n    tag_76:\n        /* \"contract/tokenvesting.sol\":1547:1551  true */\n      0x01\n        /* \"contract/tokenvesting.sol\":1516:1551  schemes[_schemeId]._isValid == true */\n      iszero\n      iszero\n        /* \"contract/tokenvesting.sol\":1516:1523  schemes */\n      0x03\n        /* \"contract/tokenvesting.sol\":1516:1534  schemes[_schemeId] */\n      0x00\n        /* \"contract/tokenvesting.sol\":1524:1533  _schemeId */\n      dup5\n        /* \"contract/tokenvesting.sol\":1516:1534  schemes[_schemeId] */\n      dup2\n      mstore\n      0x20\n      add\n      swap1\n      dup2\n      mstore\n      0x20\n      add\n      0x00\n      keccak256\n        /* \"contract/tokenvesting.sol\":1516:1543  schemes[_schemeId]._isValid */\n      0x06\n      add\n      0x00\n      swap1\n      sload\n      swap1\n      0x0100\n      exp\n      swap1\n      div\n      0xff\n      and\n        /* \"contract/tokenvesting.sol\":1516:1551  schemes[_schemeId]._isValid == true */\n      iszero\n      iszero\n      eq\n        /* \"contract/tokenvesting.sol\":1507:1620  require (schemes[_schemeId]._isValid == true, \"TokenVesting: Vesting Scheme is either deleted or does not exist\") */\n      tag_79\n      jumpi\n      mload(0x40)\n      0x08c379a000000000000000000000000000000000000000000000000000000000\n      dup2\n      mstore\n      0x04\n      add\n      tag_80\n      swap1\n      tag_81\n      jump\t// in\n    tag_80:\n      mload(0x40)\n      dup1\n      swap2\n      sub\n      swap1\n      revert\n    tag_79:\n        /* \"contract/tokenvesting.sol\":1638:1645  schemes */\n      0x03\n        /* \"contract/tokenvesting.sol\":1638:1656  schemes[_schemeId] */\n      0x00\n        /* \"contract/tokenvesting.sol\":1646:1655  _schemeId */\n      dup4\n        /* \"contract/tokenvesting.sol\":1638:1656  schemes[_schemeId] */\n      dup2\n      mstore\n      0x20\n      add\n      swap1\n      dup2\n      mstore\n      0x20\n      add\n      0x00\n      keccak256\n        /* \"contract/tokenvesting.sol\":1631:1656  return schemes[_schemeId] */\n      mload(0x40)\n      dup1\n      0xe0\n      add\n      0x40\n      mstore\n      swap1\n      dup2\n      0x00\n      dup3\n      add\n      0x00\n      swap1\n      sload\n      swap1\n      0x0100\n      exp\n      swap1\n      div\n      0xffffffffffffffffffffffffffffffffffffffff\n      and\n      0xffffffffffffffffffffffffffffffffffffffff\n      and\n      0xffffffffffffffffffffffffffffffffffffffff\n      and\n      dup2\n      mstore\n      0x20\n      add\n      0x01\n      dup3\n      add\n      sload\n      dup2\n      mstore\n      0x20\n      add\n      0x02\n      dup3\n      add\n      sload\n      dup2\n      mstore\n      0x20\n      add\n      0x03\n      dup3\n      add\n      sload\n      dup2\n      mstore\n      0x20\n      add\n      0x04\n      dup3\n      add\n      sload\n      dup2\n      mstore\n      0x20\n      add\n      0x05\n      dup3\n      add\n      sload\n      dup2\n      mstore\n      0x20\n      add\n      0x06\n      dup3\n      add\n      0x00\n      swap1\n      sload\n      swap1\n      0x0100\n      exp\n      swap1\n      div\n      0xff\n      and\n      iszero\n      iszero\n      iszero\n      iszero\n      dup2\n      mstore\n      pop\n      pop\n      swap1\n      pop\n        /* \"contract/tokenvesting.sol\":1304:1664  function getVestingSchemeById (uint _schemeId) \r... */\n      swap2\n      swap1\n      pop\n      jump\t// out\n        /* \"https://github.com/OpenZeppelin/openzeppelin-contracts/blob/master/contracts/access/Ownable.sol\":1918:2116  function transferOwnership(address newOwner) public virtual onlyOwner {... */\n    tag_42:\n        /* \"https://github.com/OpenZeppelin/openzeppelin-contracts/blob/master/contracts/access/Ownable.sol\":1259:1271  _msgSender() */\n      tag_83\n        /* \"https://github.com/OpenZeppelin/openzeppelin-contracts/blob/master/contracts/access/Ownable.sol\":1259:1269  _msgSender */\n      tag_46\n        /* \"https://github.com/OpenZeppelin/openzeppelin-contracts/blob/master/contracts/access/Ownable.sol\":1259:1271  _msgSender() */\n      jump\t// in\n    tag_83:\n        /* \"https://github.com/OpenZeppelin/openzeppelin-contracts/blob/master/contracts/access/Ownable.sol\":1248:1271  owner() == _msgSender() */\n      0xffffffffffffffffffffffffffffffffffffffff\n      and\n        /* \"https://github.com/OpenZeppelin/openzeppelin-contracts/blob/master/contracts/access/Ownable.sol\":1248:1255  owner() */\n      tag_84\n        /* \"https://github.com/OpenZeppelin/openzeppelin-contracts/blob/master/contracts/access/Ownable.sol\":1248:1253  owner */\n      tag_28\n        /* \"https://github.com/OpenZeppelin/openzeppelin-contracts/blob/master/contracts/access/Ownable.sol\":1248:1255  owner() */\n      jump\t// in\n    tag_84:\n        /* \"https://github.com/OpenZeppelin/openzeppelin-contracts/blob/master/contracts/access/Ownable.sol\":1248:1271  owner() == _msgSender() */\n      0xffffffffffffffffffffffffffffffffffffffff\n      and\n      eq\n        /* \"https://github.com/OpenZeppelin/openzeppelin-contracts/blob/master/contracts/access/Ownable.sol\":1240:1308  require(owner() == _msgSender(), \"Ownable: caller is not the owner\") */\n      tag_85\n      jumpi\n      mload(0x40)\n      0x08c379a000000000000000000000000000000000000000000000000000000000\n      dup2\n      mstore\n      0x04\n      add\n      tag_86\n      swap1\n      tag_50\n      jump\t// in\n    tag_86:\n      mload(0x40)\n      dup1\n      swap2\n      sub\n      swap1\n      revert\n    tag_85:\n        /* \"https://github.com/OpenZeppelin/openzeppelin-contracts/blob/master/contracts/access/Ownable.sol\":2026:2027  0 */\n      0x00\n        /* \"https://github.com/OpenZeppelin/openzeppelin-contracts/blob/master/contracts/access/Ownable.sol\":2006:2028  newOwner != address(0) */\n      0xffffffffffffffffffffffffffffffffffffffff\n      and\n        /* \"https://github.com/OpenZeppelin/openzeppelin-contracts/blob/master/contracts/access/Ownable.sol\":2006:2014  newOwner */\n      dup2\n        /* \"https://github.com/OpenZeppelin/openzeppelin-contracts/blob/master/contracts/access/Ownable.sol\":2006:2028  newOwner != address(0) */\n      0xffffffffffffffffffffffffffffffffffffffff\n      and\n      eq\n      iszero\n        /* \"https://github.com/OpenZeppelin/openzeppelin-contracts/blob/master/contracts/access/Ownable.sol\":1998:2071  require(newOwner != address(0), \"Ownable: new owner is the zero address\") */\n      tag_88\n      jumpi\n      mload(0x40)\n      0x08c379a000000000000000000000000000000000000000000000000000000000\n      dup2\n      mstore\n      0x04\n      add\n      tag_89\n      swap1\n      tag_90\n      jump\t// in\n    tag_89:\n      mload(0x40)\n      dup1\n      swap2\n      sub\n      swap1\n      revert\n    tag_88:\n        /* \"https://github.com/OpenZeppelin/openzeppelin-contracts/blob/master/contracts/access/Ownable.sol\":2081:2109  _transferOwnership(newOwner) */\n      tag_91\n        /* \"https://github.com/OpenZeppelin/openzeppelin-contracts/blob/master/contracts/access/Ownable.sol\":2100:2108  newOwner */\n      dup2\n        /* \"https://github.com/OpenZeppelin/openzeppelin-contracts/blob/master/contracts/access/Ownable.sol\":2081:2099  _transferOwnership */\n      tag_53\n        /* \"https://github.com/OpenZeppelin/openzeppelin-contracts/blob/master/contracts/access/Ownable.sol\":2081:2109  _transferOwnership(newOwner) */\n      jump\t// in\n    tag_91:\n        /* \"https://github.com/OpenZeppelin/openzeppelin-contracts/blob/master/contracts/access/Ownable.sol\":1918:2116  function transferOwnership(address newOwner) public virtual onlyOwner {... */\n      pop\n      jump\t// out\n        /* \"https://github.com/OpenZeppelin/openzeppelin-contracts/blob/master/contracts/utils/Context.sol\":640:736  function _msgSender() internal view virtual returns (address) {... */\n    tag_46:\n        /* \"https://github.com/OpenZeppelin/openzeppelin-contracts/blob/master/contracts/utils/Context.sol\":693:700  address */\n      0x00\n        /* \"https://github.com/OpenZeppelin/openzeppelin-contracts/blob/master/contracts/utils/Context.sol\":719:729  msg.sender */\n      caller\n        /* \"https://github.com/OpenZeppelin/openzeppelin-contracts/blob/master/contracts/utils/Context.sol\":712:729  return msg.sender */\n      swap1\n      pop\n        /* \"https://github.com/OpenZeppelin/openzeppelin-contracts/blob/master/contracts/utils/Context.sol\":640:736  function _msgSender() internal view virtual returns (address) {... */\n      swap1\n      jump\t// out\n        /* \"https://github.com/OpenZeppelin/openzeppelin-contracts/blob/master/contracts/access/Ownable.sol\":2270:2457  function _transferOwnership(address newOwner) internal virtual {... */\n    tag_53:\n        /* \"https://github.com/OpenZeppelin/openzeppelin-contracts/blob/master/contracts/access/Ownable.sol\":2343:2359  address oldOwner */\n      0x00\n        /* \"https://github.com/OpenZeppelin/openzeppelin-contracts/blob/master/contracts/access/Ownable.sol\":2362:2368  _owner */\n      dup1\n      0x00\n      swap1\n      sload\n      swap1\n      0x0100\n      exp\n      swap1\n      div\n      0xffffffffffffffffffffffffffffffffffffffff\n      and\n        /* \"https://github.com/OpenZeppelin/openzeppelin-contracts/blob/master/contracts/access/Ownable.sol\":2343:2368  address oldOwner = _owner */\n      swap1\n      pop\n        /* \"https://github.com/OpenZeppelin/openzeppelin-contracts/blob/master/contracts/access/Ownable.sol\":2387:2395  newOwner */\n      dup2\n        /* \"https://github.com/OpenZeppelin/openzeppelin-contracts/blob/master/contracts/access/Ownable.sol\":2378:2384  _owner */\n      0x00\n      dup1\n        /* \"https://github.com/OpenZeppelin/openzeppelin-contracts/blob/master/contracts/access/Ownable.sol\":2378:2395  _owner = newOwner */\n      0x0100\n      exp\n      dup2\n      sload\n      dup2\n      0xffffffffffffffffffffffffffffffffffffffff\n      mul\n      not\n      and\n      swap1\n      dup4\n      0xffffffffffffffffffffffffffffffffffffffff\n      and\n      mul\n      or\n      swap1\n      sstore\n      pop\n        /* \"https://github.com/OpenZeppelin/openzeppelin-contracts/blob/master/contracts/access/Ownable.sol\":2441:2449  newOwner */\n      dup2\n        /* \"https://github.com/OpenZeppelin/openzeppelin-contracts/blob/master/contracts/access/Ownable.sol\":2410:2450  OwnershipTransferred(oldOwner, newOwner) */\n      0xffffffffffffffffffffffffffffffffffffffff\n      and\n        /* \"https://github.com/OpenZeppelin/openzeppelin-contracts/blob/master/contracts/access/Ownable.sol\":2431:2439  oldOwner */\n      dup2\n        /* \"https://github.com/OpenZeppelin/openzeppelin-contracts/blob/master/contracts/access/Ownable.sol\":2410:2450  OwnershipTransferred(oldOwner, newOwner) */\n      0xffffffffffffffffffffffffffffffffffffffff\n      and\n      0x8be0079c531659141344cd1fd0a4f28419497f9722a3daafe3b4186f6b6457e0\n      mload(0x40)\n      mload(0x40)\n      dup1\n      swap2\n      sub\n      swap1\n      log3\n        /* \"https://github.com/OpenZeppelin/openzeppelin-contracts/blob/master/contracts/access/Ownable.sol\":2270:2457  function _transferOwnership(address newOwner) internal virtual {... */\n      pop\n      pop\n      jump\t// out\n        /* \"https://github.com/OpenZeppelin/openzeppelin-contracts/blob/master/contracts/utils/math/SafeMath.sol\":2755:2851  function add(uint256 a, uint256 b) internal pure returns (uint256) {... */\n    tag_70:\n        /* \"https://github.com/OpenZeppelin/openzeppelin-contracts/blob/master/contracts/utils/math/SafeMath.sol\":2813:2820  uint256 */\n      0x00\n        /* \"https://github.com/OpenZeppelin/openzeppelin-contracts/blob/master/contracts/utils/math/SafeMath.sol\":2843:2844  b */\n      dup2\n        /* \"https://github.com/OpenZeppelin/openzeppelin-contracts/blob/master/contracts/utils/math/SafeMath.sol\":2839:2840  a */\n      dup4\n        /* \"https://github.com/OpenZeppelin/openzeppelin-contracts/blob/master/contracts/utils/math/SafeMath.sol\":2839:2844  a + b */\n      tag_95\n      swap2\n      swap1\n      tag_96\n      jump\t// in\n    tag_95:\n        /* \"https://github.com/OpenZeppelin/openzeppelin-contracts/blob/master/contracts/utils/math/SafeMath.sol\":2832:2844  return a + b */\n      swap1\n      pop\n        /* \"https://github.com/OpenZeppelin/openzeppelin-contracts/blob/master/contracts/utils/math/SafeMath.sol\":2755:2851  function add(uint256 a, uint256 b) internal pure returns (uint256) {... */\n      swap3\n      swap2\n      pop\n      pop\n      jump\t// out\n    tag_74:\n      mload(0x40)\n      dup1\n      0xe0\n      add\n      0x40\n      mstore\n      dup1\n      and(0xffffffffffffffffffffffffffffffffffffffff, 0x00)\n      dup2\n      mstore\n      0x20\n      add\n      0x00\n      dup2\n      mstore\n      0x20\n      add\n      0x00\n      dup2\n      mstore\n      0x20\n      add\n      0x00\n      dup2\n      mstore\n      0x20\n      add\n      0x00\n      dup2\n      mstore\n      0x20\n      add\n      0x00\n      dup2\n      mstore\n      0x20\n      add\n      iszero(iszero(0x00))\n      dup2\n      mstore\n      pop\n      swap1\n      jump\t// out\n        /* \"#utility.yul\":7:146   */\n    tag_98:\n      0x00\n        /* \"#utility.yul\":91:97   */\n      dup2\n        /* \"#utility.yul\":78:98   */\n      calldataload\n        /* \"#utility.yul\":69:98   */\n      swap1\n      pop\n        /* \"#utility.yul\":107:140   */\n      tag_100\n        /* \"#utility.yul\":134:139   */\n      dup2\n        /* \"#utility.yul\":107:140   */\n      tag_101\n      jump\t// in\n    tag_100:\n        /* \"#utility.yul\":59:146   */\n      swap3\n      swap2\n      pop\n      pop\n      jump\t// out\n        /* \"#utility.yul\":152:291   */\n    tag_102:\n      0x00\n        /* \"#utility.yul\":236:242   */\n      dup2\n        /* \"#utility.yul\":223:243   */\n      calldataload\n        /* \"#utility.yul\":214:243   */\n      swap1\n      pop\n        /* \"#utility.yul\":252:285   */\n      tag_104\n        /* \"#utility.yul\":279:284   */\n      dup2\n        /* \"#utility.yul\":252:285   */\n      tag_105\n      jump\t// in\n    tag_104:\n        /* \"#utility.yul\":204:291   */\n      swap3\n      swap2\n      pop\n      pop\n      jump\t// out\n        /* \"#utility.yul\":297:559   */\n    tag_41:\n      0x00\n        /* \"#utility.yul\":405:407   */\n      0x20\n        /* \"#utility.yul\":393:402   */\n      dup3\n        /* \"#utility.yul\":384:391   */\n      dup5\n        /* \"#utility.yul\":380:403   */\n      sub\n        /* \"#utility.yul\":376:408   */\n      slt\n        /* \"#utility.yul\":373:375   */\n      iszero\n      tag_107\n      jumpi\n        /* \"#utility.yul\":421:422   */\n      0x00\n        /* \"#utility.yul\":418:419   */\n      dup1\n        /* \"#utility.yul\":411:423   */\n      revert\n        /* \"#utility.yul\":373:375   */\n    tag_107:\n        /* \"#utility.yul\":464:465   */\n      0x00\n        /* \"#utility.yul\":489:542   */\n      tag_108\n        /* \"#utility.yul\":534:541   */\n      dup5\n        /* \"#utility.yul\":525:531   */\n      dup3\n        /* \"#utility.yul\":514:523   */\n      dup6\n        /* \"#utility.yul\":510:532   */\n      add\n        /* \"#utility.yul\":489:542   */\n      tag_98\n      jump\t// in\n    tag_108:\n        /* \"#utility.yul\":479:542   */\n      swap2\n      pop\n        /* \"#utility.yul\":435:552   */\n      pop\n        /* \"#utility.yul\":363:559   */\n      swap3\n      swap2\n      pop\n      pop\n      jump\t// out\n        /* \"#utility.yul\":565:1409   */\n    tag_24:\n      0x00\n      dup1\n      0x00\n      dup1\n      0x00\n        /* \"#utility.yul\":741:744   */\n      0xa0\n        /* \"#utility.yul\":729:738   */\n      dup7\n        /* \"#utility.yul\":720:727   */\n      dup9\n        /* \"#utility.yul\":716:739   */\n      sub\n        /* \"#utility.yul\":712:745   */\n      slt\n        /* \"#utility.yul\":709:711   */\n      iszero\n      tag_110\n      jumpi\n        /* \"#utility.yul\":758:759   */\n      0x00\n        /* \"#utility.yul\":755:756   */\n      dup1\n        /* \"#utility.yul\":748:760   */\n      revert\n        /* \"#utility.yul\":709:711   */\n    tag_110:\n        /* \"#utility.yul\":801:802   */\n      0x00\n        /* \"#utility.yul\":826:879   */\n      tag_111\n        /* \"#utility.yul\":871:878   */\n      dup9\n        /* \"#utility.yul\":862:868   */\n      dup3\n        /* \"#utility.yul\":851:860   */\n      dup10\n        /* \"#utility.yul\":847:869   */\n      add\n        /* \"#utility.yul\":826:879   */\n      tag_98\n      jump\t// in\n    tag_111:\n        /* \"#utility.yul\":816:879   */\n      swap6\n      pop\n        /* \"#utility.yul\":772:889   */\n      pop\n        /* \"#utility.yul\":928:930   */\n      0x20\n        /* \"#utility.yul\":954:1007   */\n      tag_112\n        /* \"#utility.yul\":999:1006   */\n      dup9\n        /* \"#utility.yul\":990:996   */\n      dup3\n        /* \"#utility.yul\":979:988   */\n      dup10\n        /* \"#utility.yul\":975:997   */\n      add\n        /* \"#utility.yul\":954:1007   */\n      tag_102\n      jump\t// in\n    tag_112:\n        /* \"#utility.yul\":944:1007   */\n      swap5\n      pop\n        /* \"#utility.yul\":899:1017   */\n      pop\n        /* \"#utility.yul\":1056:1058   */\n      0x40\n        /* \"#utility.yul\":1082:1135   */\n      tag_113\n        /* \"#utility.yul\":1127:1134   */\n      dup9\n        /* \"#utility.yul\":1118:1124   */\n      dup3\n        /* \"#utility.yul\":1107:1116   */\n      dup10\n        /* \"#utility.yul\":1103:1125   */\n      add\n        /* \"#utility.yul\":1082:1135   */\n      tag_102\n      jump\t// in\n    tag_113:\n        /* \"#utility.yul\":1072:1135   */\n      swap4\n      pop\n        /* \"#utility.yul\":1027:1145   */\n      pop\n        /* \"#utility.yul\":1184:1186   */\n      0x60\n        /* \"#utility.yul\":1210:1263   */\n      tag_114\n        /* \"#utility.yul\":1255:1262   */\n      dup9\n        /* \"#utility.yul\":1246:1252   */\n      dup3\n        /* \"#utility.yul\":1235:1244   */\n      dup10\n        /* \"#utility.yul\":1231:1253   */\n      add\n        /* \"#utility.yul\":1210:1263   */\n      tag_102\n      jump\t// in\n    tag_114:\n        /* \"#utility.yul\":1200:1263   */\n      swap3\n      pop\n        /* \"#utility.yul\":1155:1273   */\n      pop\n        /* \"#utility.yul\":1312:1315   */\n      0x80\n        /* \"#utility.yul\":1339:1392   */\n      tag_115\n        /* \"#utility.yul\":1384:1391   */\n      dup9\n        /* \"#utility.yul\":1375:1381   */\n      dup3\n        /* \"#utility.yul\":1364:1373   */\n      dup10\n        /* \"#utility.yul\":1360:1382   */\n      add\n        /* \"#utility.yul\":1339:1392   */\n      tag_102\n      jump\t// in\n    tag_115:\n        /* \"#utility.yul\":1329:1392   */\n      swap2\n      pop\n        /* \"#utility.yul\":1283:1402   */\n      pop\n        /* \"#utility.yul\":699:1409   */\n      swap3\n      swap6\n      pop\n      swap3\n      swap6\n      swap1\n      swap4\n      pop\n      jump\t// out\n        /* \"#utility.yul\":1415:1677   */\n    tag_34:\n      0x00\n        /* \"#utility.yul\":1523:1525   */\n      0x20\n        /* \"#utility.yul\":1511:1520   */\n      dup3\n        /* \"#utility.yul\":1502:1509   */\n      dup5\n        /* \"#utility.yul\":1498:1521   */\n      sub\n        /* \"#utility.yul\":1494:1526   */\n      slt\n        /* \"#utility.yul\":1491:1493   */\n      iszero\n      tag_117\n      jumpi\n        /* \"#utility.yul\":1539:1540   */\n      0x00\n        /* \"#utility.yul\":1536:1537   */\n      dup1\n        /* \"#utility.yul\":1529:1541   */\n      revert\n        /* \"#utility.yul\":1491:1493   */\n    tag_117:\n        /* \"#utility.yul\":1582:1583   */\n      0x00\n        /* \"#utility.yul\":1607:1660   */\n      tag_118\n        /* \"#utility.yul\":1652:1659   */\n      dup5\n        /* \"#utility.yul\":1643:1649   */\n      dup3\n        /* \"#utility.yul\":1632:1641   */\n      dup6\n        /* \"#utility.yul\":1628:1650   */\n      add\n        /* \"#utility.yul\":1607:1660   */\n      tag_102\n      jump\t// in\n    tag_118:\n        /* \"#utility.yul\":1597:1660   */\n      swap2\n      pop\n        /* \"#utility.yul\":1553:1670   */\n      pop\n        /* \"#utility.yul\":1481:1677   */\n      swap3\n      swap2\n      pop\n      pop\n      jump\t// out\n        /* \"#utility.yul\":1683:2090   */\n    tag_16:\n      0x00\n      dup1\n        /* \"#utility.yul\":1808:1810   */\n      0x40\n        /* \"#utility.yul\":1796:1805   */\n      dup4\n        /* \"#utility.yul\":1787:1794   */\n      dup6\n        /* \"#utility.yul\":1783:1806   */\n      sub\n        /* \"#utility.yul\":1779:1811   */\n      slt\n        /* \"#utility.yul\":1776:1778   */\n      iszero\n      tag_120\n      jumpi\n        /* \"#utility.yul\":1824:1825   */\n      0x00\n        /* \"#utility.yul\":1821:1822   */\n      dup1\n        /* \"#utility.yul\":1814:1826   */\n      revert\n        /* \"#utility.yul\":1776:1778   */\n    tag_120:\n        /* \"#utility.yul\":1867:1868   */\n      0x00\n        /* \"#utility.yul\":1892:1945   */\n      tag_121\n        /* \"#utility.yul\":1937:1944   */\n      dup6\n        /* \"#utility.yul\":1928:1934   */\n      dup3\n        /* \"#utility.yul\":1917:1926   */\n      dup7\n        /* \"#utility.yul\":1913:1935   */\n      add\n        /* \"#utility.yul\":1892:1945   */\n      tag_102\n      jump\t// in\n    tag_121:\n        /* \"#utility.yul\":1882:1945   */\n      swap3\n      pop\n        /* \"#utility.yul\":1838:1955   */\n      pop\n        /* \"#utility.yul\":1994:1996   */\n      0x20\n        /* \"#utility.yul\":2020:2073   */\n      tag_122\n        /* \"#utility.yul\":2065:2072   */\n      dup6\n        /* \"#utility.yul\":2056:2062   */\n      dup3\n        /* \"#utility.yul\":2045:2054   */\n      dup7\n        /* \"#utility.yul\":2041:2063   */\n      add\n        /* \"#utility.yul\":2020:2073   */\n      tag_102\n      jump\t// in\n    tag_122:\n        /* \"#utility.yul\":2010:2073   */\n      swap2\n      pop\n        /* \"#utility.yul\":1965:2083   */\n      pop\n        /* \"#utility.yul\":1766:2090   */\n      swap3\n      pop\n      swap3\n      swap1\n      pop\n      jump\t// out\n        /* \"#utility.yul\":2096:2204   */\n    tag_123:\n        /* \"#utility.yul\":2173:2197   */\n      tag_125\n        /* \"#utility.yul\":2191:2196   */\n      dup2\n        /* \"#utility.yul\":2173:2197   */\n      tag_126\n      jump\t// in\n    tag_125:\n        /* \"#utility.yul\":2168:2171   */\n      dup3\n        /* \"#utility.yul\":2161:2198   */\n      mstore\n        /* \"#utility.yul\":2151:2204   */\n      pop\n      pop\n      jump\t// out\n        /* \"#utility.yul\":2210:2328   */\n    tag_127:\n        /* \"#utility.yul\":2297:2321   */\n      tag_129\n        /* \"#utility.yul\":2315:2320   */\n      dup2\n        /* \"#utility.yul\":2297:2321   */\n      tag_126\n      jump\t// in\n    tag_129:\n        /* \"#utility.yul\":2292:2295   */\n      dup3\n        /* \"#utility.yul\":2285:2322   */\n      mstore\n        /* \"#utility.yul\":2275:2328   */\n      pop\n      pop\n      jump\t// out\n        /* \"#utility.yul\":2334:2433   */\n    tag_130:\n        /* \"#utility.yul\":2405:2426   */\n      tag_132\n        /* \"#utility.yul\":2420:2425   */\n      dup2\n        /* \"#utility.yul\":2405:2426   */\n      tag_133\n      jump\t// in\n    tag_132:\n        /* \"#utility.yul\":2400:2403   */\n      dup3\n        /* \"#utility.yul\":2393:2427   */\n      mstore\n        /* \"#utility.yul\":2383:2433   */\n      pop\n      pop\n      jump\t// out\n        /* \"#utility.yul\":2439:2808   */\n    tag_134:\n      0x00\n        /* \"#utility.yul\":2602:2669   */\n      tag_136\n        /* \"#utility.yul\":2666:2668   */\n      0x25\n        /* \"#utility.yul\":2661:2664   */\n      dup4\n        /* \"#utility.yul\":2602:2669   */\n      tag_137\n      jump\t// in\n    tag_136:\n        /* \"#utility.yul\":2595:2669   */\n      swap2\n      pop\n        /* \"#utility.yul\":2699:2733   */\n      0x546f6b656e56657374696e673a20536368656d65204964206f7574206f662062\n        /* \"#utility.yul\":2695:2696   */\n      0x00\n        /* \"#utility.yul\":2690:2693   */\n      dup4\n        /* \"#utility.yul\":2686:2697   */\n      add\n        /* \"#utility.yul\":2679:2734   */\n      mstore\n        /* \"#utility.yul\":2765:2772   */\n      0x6f756e6473000000000000000000000000000000000000000000000000000000\n        /* \"#utility.yul\":2760:2762   */\n      0x20\n        /* \"#utility.yul\":2755:2758   */\n      dup4\n        /* \"#utility.yul\":2751:2763   */\n      add\n        /* \"#utility.yul\":2744:2773   */\n      mstore\n        /* \"#utility.yul\":2799:2801   */\n      0x40\n        /* \"#utility.yul\":2794:2797   */\n      dup3\n        /* \"#utility.yul\":2790:2802   */\n      add\n        /* \"#utility.yul\":2783:2802   */\n      swap1\n      pop\n        /* \"#utility.yul\":2585:2808   */\n      swap2\n      swap1\n      pop\n      jump\t// out\n        /* \"#utility.yul\":2814:3184   */\n    tag_138:\n      0x00\n        /* \"#utility.yul\":2977:3044   */\n      tag_140\n        /* \"#utility.yul\":3041:3043   */\n      0x26\n        /* \"#utility.yul\":3036:3039   */\n      dup4\n        /* \"#utility.yul\":2977:3044   */\n      tag_137\n      jump\t// in\n    tag_140:\n        /* \"#utility.yul\":2970:3044   */\n      swap2\n      pop\n        /* \"#utility.yul\":3074:3108   */\n      0x4f776e61626c653a206e6577206f776e657220697320746865207a65726f2061\n        /* \"#utility.yul\":3070:3071   */\n      0x00\n        /* \"#utility.yul\":3065:3068   */\n      dup4\n        /* \"#utility.yul\":3061:3072   */\n      add\n        /* \"#utility.yul\":3054:3109   */\n      mstore\n        /* \"#utility.yul\":3140:3148   */\n      0x6464726573730000000000000000000000000000000000000000000000000000\n        /* \"#utility.yul\":3135:3137   */\n      0x20\n        /* \"#utility.yul\":3130:3133   */\n      dup4\n        /* \"#utility.yul\":3126:3138   */\n      add\n        /* \"#utility.yul\":3119:3149   */\n      mstore\n        /* \"#utility.yul\":3175:3177   */\n      0x40\n        /* \"#utility.yul\":3170:3173   */\n      dup3\n        /* \"#utility.yul\":3166:3178   */\n      add\n        /* \"#utility.yul\":3159:3178   */\n      swap1\n      pop\n        /* \"#utility.yul\":2960:3184   */\n      swap2\n      swap1\n      pop\n      jump\t// out\n        /* \"#utility.yul\":3190:3576   */\n    tag_141:\n      0x00\n        /* \"#utility.yul\":3353:3420   */\n      tag_143\n        /* \"#utility.yul\":3417:3419   */\n      0x36\n        /* \"#utility.yul\":3412:3415   */\n      dup4\n        /* \"#utility.yul\":3353:3420   */\n      tag_137\n      jump\t// in\n    tag_143:\n        /* \"#utility.yul\":3346:3420   */\n      swap2\n      pop\n        /* \"#utility.yul\":3450:3484   */\n      0x546f6b656e56657374696e673a2056657374696e6720706572696f64206d7573\n        /* \"#utility.yul\":3446:3447   */\n      0x00\n        /* \"#utility.yul\":3441:3444   */\n      dup4\n        /* \"#utility.yul\":3437:3448   */\n      add\n        /* \"#utility.yul\":3430:3485   */\n      mstore\n        /* \"#utility.yul\":3516:3540   */\n      0x742062652067726561746572207468616e207a65726f00000000000000000000\n        /* \"#utility.yul\":3511:3513   */\n      0x20\n        /* \"#utility.yul\":3506:3509   */\n      dup4\n        /* \"#utility.yul\":3502:3514   */\n      add\n        /* \"#utility.yul\":3495:3541   */\n      mstore\n        /* \"#utility.yul\":3567:3569   */\n      0x40\n        /* \"#utility.yul\":3562:3565   */\n      dup3\n        /* \"#utility.yul\":3558:3570   */\n      add\n        /* \"#utility.yul\":3551:3570   */\n      swap1\n      pop\n        /* \"#utility.yul\":3336:3576   */\n      swap2\n      swap1\n      pop\n      jump\t// out\n        /* \"#utility.yul\":3582:3966   */\n    tag_144:\n      0x00\n        /* \"#utility.yul\":3745:3812   */\n      tag_146\n        /* \"#utility.yul\":3809:3811   */\n      0x34\n        /* \"#utility.yul\":3804:3807   */\n      dup4\n        /* \"#utility.yul\":3745:3812   */\n      tag_137\n      jump\t// in\n    tag_146:\n        /* \"#utility.yul\":3738:3812   */\n      swap2\n      pop\n        /* \"#utility.yul\":3842:3876   */\n      0x546f6b656e56657374696e673a2043616e6e6f7420616464207a65726f206164\n        /* \"#utility.yul\":3838:3839   */\n      0x00\n        /* \"#utility.yul\":3833:3836   */\n      dup4\n        /* \"#utility.yul\":3829:3840   */\n      add\n        /* \"#utility.yul\":3822:3877   */\n      mstore\n        /* \"#utility.yul\":3908:3930   */\n      0x64726573732061732062656e6566696369617279000000000000000000000000\n        /* \"#utility.yul\":3903:3905   */\n      0x20\n        /* \"#utility.yul\":3898:3901   */\n      dup4\n        /* \"#utility.yul\":3894:3906   */\n      add\n        /* \"#utility.yul\":3887:3931   */\n      mstore\n        /* \"#utility.yul\":3957:3959   */\n      0x40\n        /* \"#utility.yul\":3952:3955   */\n      dup3\n        /* \"#utility.yul\":3948:3960   */\n      add\n        /* \"#utility.yul\":3941:3960   */\n      swap1\n      pop\n        /* \"#utility.yul\":3728:3966   */\n      swap2\n      swap1\n      pop\n      jump\t// out\n        /* \"#utility.yul\":3972:4368   */\n    tag_147:\n      0x00\n        /* \"#utility.yul\":4135:4202   */\n      tag_149\n        /* \"#utility.yul\":4199:4201   */\n      0x40\n        /* \"#utility.yul\":4194:4197   */\n      dup4\n        /* \"#utility.yul\":4135:4202   */\n      tag_137\n      jump\t// in\n    tag_149:\n        /* \"#utility.yul\":4128:4202   */\n      swap2\n      pop\n        /* \"#utility.yul\":4232:4266   */\n      0x546f6b656e56657374696e673a2056657374696e6720536368656d6520697320\n        /* \"#utility.yul\":4228:4229   */\n      0x00\n        /* \"#utility.yul\":4223:4226   */\n      dup4\n        /* \"#utility.yul\":4219:4230   */\n      add\n        /* \"#utility.yul\":4212:4267   */\n      mstore\n        /* \"#utility.yul\":4298:4332   */\n      0x6569746865722064656c65746564206f7220646f6573206e6f74206578697374\n        /* \"#utility.yul\":4293:4295   */\n      0x20\n        /* \"#utility.yul\":4288:4291   */\n      dup4\n        /* \"#utility.yul\":4284:4296   */\n      add\n        /* \"#utility.yul\":4277:4333   */\n      mstore\n        /* \"#utility.yul\":4359:4361   */\n      0x40\n        /* \"#utility.yul\":4354:4357   */\n      dup3\n        /* \"#utility.yul\":4350:4362   */\n      add\n        /* \"#utility.yul\":4343:4362   */\n      swap1\n      pop\n        /* \"#utility.yul\":4118:4368   */\n      swap2\n      swap1\n      pop\n      jump\t// out\n        /* \"#utility.yul\":4374:4758   */\n    tag_150:\n      0x00\n        /* \"#utility.yul\":4537:4604   */\n      tag_152\n        /* \"#utility.yul\":4601:4603   */\n      0x34\n        /* \"#utility.yul\":4596:4599   */\n      dup4\n        /* \"#utility.yul\":4537:4604   */\n      tag_137\n      jump\t// in\n    tag_152:\n        /* \"#utility.yul\":4530:4604   */\n      swap2\n      pop\n        /* \"#utility.yul\":4634:4668   */\n      0x546f6b656e56657374696e673a205665737461626c6520616d6f756e74206d75\n        /* \"#utility.yul\":4630:4631   */\n      0x00\n        /* \"#utility.yul\":4625:4628   */\n      dup4\n        /* \"#utility.yul\":4621:4632   */\n      add\n        /* \"#utility.yul\":4614:4669   */\n      mstore\n        /* \"#utility.yul\":4700:4722   */\n      0x73742062652067726561746572207468616e2030000000000000000000000000\n        /* \"#utility.yul\":4695:4697   */\n      0x20\n        /* \"#utility.yul\":4690:4693   */\n      dup4\n        /* \"#utility.yul\":4686:4698   */\n      add\n        /* \"#utility.yul\":4679:4723   */\n      mstore\n        /* \"#utility.yul\":4749:4751   */\n      0x40\n        /* \"#utility.yul\":4744:4747   */\n      dup3\n        /* \"#utility.yul\":4740:4752   */\n      add\n        /* \"#utility.yul\":4733:4752   */\n      swap1\n      pop\n        /* \"#utility.yul\":4520:4758   */\n      swap2\n      swap1\n      pop\n      jump\t// out\n        /* \"#utility.yul\":4764:5094   */\n    tag_153:\n      0x00\n        /* \"#utility.yul\":4927:4994   */\n      tag_155\n        /* \"#utility.yul\":4991:4993   */\n      0x20\n        /* \"#utility.yul\":4986:4989   */\n      dup4\n        /* \"#utility.yul\":4927:4994   */\n      tag_137\n      jump\t// in\n    tag_155:\n        /* \"#utility.yul\":4920:4994   */\n      swap2\n      pop\n        /* \"#utility.yul\":5024:5058   */\n      0x4f776e61626c653a2063616c6c6572206973206e6f7420746865206f776e6572\n        /* \"#utility.yul\":5020:5021   */\n      0x00\n        /* \"#utility.yul\":5015:5018   */\n      dup4\n        /* \"#utility.yul\":5011:5022   */\n      add\n        /* \"#utility.yul\":5004:5059   */\n      mstore\n        /* \"#utility.yul\":5085:5087   */\n      0x20\n        /* \"#utility.yul\":5080:5083   */\n      dup3\n        /* \"#utility.yul\":5076:5088   */\n      add\n        /* \"#utility.yul\":5069:5088   */\n      swap1\n      pop\n        /* \"#utility.yul\":4910:5094   */\n      swap2\n      swap1\n      pop\n      jump\t// out\n        /* \"#utility.yul\":5178:6605   */\n    tag_156:\n        /* \"#utility.yul\":5333:5337   */\n      0xe0\n        /* \"#utility.yul\":5328:5331   */\n      dup3\n        /* \"#utility.yul\":5324:5338   */\n      add\n        /* \"#utility.yul\":5428:5432   */\n      0x00\n        /* \"#utility.yul\":5421:5426   */\n      dup3\n        /* \"#utility.yul\":5417:5433   */\n      add\n        /* \"#utility.yul\":5411:5434   */\n      mload\n        /* \"#utility.yul\":5447:5510   */\n      tag_158\n        /* \"#utility.yul\":5504:5508   */\n      0x00\n        /* \"#utility.yul\":5499:5502   */\n      dup6\n        /* \"#utility.yul\":5495:5509   */\n      add\n        /* \"#utility.yul\":5481:5493   */\n      dup3\n        /* \"#utility.yul\":5447:5510   */\n      tag_123\n      jump\t// in\n    tag_158:\n        /* \"#utility.yul\":5348:5520   */\n      pop\n        /* \"#utility.yul\":5608:5612   */\n      0x20\n        /* \"#utility.yul\":5601:5606   */\n      dup3\n        /* \"#utility.yul\":5597:5613   */\n      add\n        /* \"#utility.yul\":5591:5614   */\n      mload\n        /* \"#utility.yul\":5627:5690   */\n      tag_159\n        /* \"#utility.yul\":5684:5688   */\n      0x20\n        /* \"#utility.yul\":5679:5682   */\n      dup6\n        /* \"#utility.yul\":5675:5689   */\n      add\n        /* \"#utility.yul\":5661:5673   */\n      dup3\n        /* \"#utility.yul\":5627:5690   */\n      tag_160\n      jump\t// in\n    tag_159:\n        /* \"#utility.yul\":5530:5700   */\n      pop\n        /* \"#utility.yul\":5787:5791   */\n      0x40\n        /* \"#utility.yul\":5780:5785   */\n      dup3\n        /* \"#utility.yul\":5776:5792   */\n      add\n        /* \"#utility.yul\":5770:5793   */\n      mload\n        /* \"#utility.yul\":5806:5869   */\n      tag_161\n        /* \"#utility.yul\":5863:5867   */\n      0x40\n        /* \"#utility.yul\":5858:5861   */\n      dup6\n        /* \"#utility.yul\":5854:5868   */\n      add\n        /* \"#utility.yul\":5840:5852   */\n      dup3\n        /* \"#utility.yul\":5806:5869   */\n      tag_160\n      jump\t// in\n    tag_161:\n        /* \"#utility.yul\":5710:5879   */\n      pop\n        /* \"#utility.yul\":5973:5977   */\n      0x60\n        /* \"#utility.yul\":5966:5971   */\n      dup3\n        /* \"#utility.yul\":5962:5978   */\n      add\n        /* \"#utility.yul\":5956:5979   */\n      mload\n        /* \"#utility.yul\":5992:6055   */\n      tag_162\n        /* \"#utility.yul\":6049:6053   */\n      0x60\n        /* \"#utility.yul\":6044:6047   */\n      dup6\n        /* \"#utility.yul\":6040:6054   */\n      add\n        /* \"#utility.yul\":6026:6038   */\n      dup3\n        /* \"#utility.yul\":5992:6055   */\n      tag_160\n      jump\t// in\n    tag_162:\n        /* \"#utility.yul\":5889:6065   */\n      pop\n        /* \"#utility.yul\":6150:6154   */\n      0x80\n        /* \"#utility.yul\":6143:6148   */\n      dup3\n        /* \"#utility.yul\":6139:6155   */\n      add\n        /* \"#utility.yul\":6133:6156   */\n      mload\n        /* \"#utility.yul\":6169:6232   */\n      tag_163\n        /* \"#utility.yul\":6226:6230   */\n      0x80\n        /* \"#utility.yul\":6221:6224   */\n      dup6\n        /* \"#utility.yul\":6217:6231   */\n      add\n        /* \"#utility.yul\":6203:6215   */\n      dup3\n        /* \"#utility.yul\":6169:6232   */\n      tag_160\n      jump\t// in\n    tag_163:\n        /* \"#utility.yul\":6075:6242   */\n      pop\n        /* \"#utility.yul\":6334:6338   */\n      0xa0\n        /* \"#utility.yul\":6327:6332   */\n      dup3\n        /* \"#utility.yul\":6323:6339   */\n      add\n        /* \"#utility.yul\":6317:6340   */\n      mload\n        /* \"#utility.yul\":6353:6416   */\n      tag_164\n        /* \"#utility.yul\":6410:6414   */\n      0xa0\n        /* \"#utility.yul\":6405:6408   */\n      dup6\n        /* \"#utility.yul\":6401:6415   */\n      add\n        /* \"#utility.yul\":6387:6399   */\n      dup3\n        /* \"#utility.yul\":6353:6416   */\n      tag_160\n      jump\t// in\n    tag_164:\n        /* \"#utility.yul\":6252:6426   */\n      pop\n        /* \"#utility.yul\":6512:6516   */\n      0xc0\n        /* \"#utility.yul\":6505:6510   */\n      dup3\n        /* \"#utility.yul\":6501:6517   */\n      add\n        /* \"#utility.yul\":6495:6518   */\n      mload\n        /* \"#utility.yul\":6531:6588   */\n      tag_165\n        /* \"#utility.yul\":6582:6586   */\n      0xc0\n        /* \"#utility.yul\":6577:6580   */\n      dup6\n        /* \"#utility.yul\":6573:6587   */\n      add\n        /* \"#utility.yul\":6559:6571   */\n      dup3\n        /* \"#utility.yul\":6531:6588   */\n      tag_130\n      jump\t// in\n    tag_165:\n        /* \"#utility.yul\":6436:6598   */\n      pop\n        /* \"#utility.yul\":5302:6605   */\n      pop\n      pop\n      pop\n      jump\t// out\n        /* \"#utility.yul\":6611:6719   */\n    tag_160:\n        /* \"#utility.yul\":6688:6712   */\n      tag_167\n        /* \"#utility.yul\":6706:6711   */\n      dup2\n        /* \"#utility.yul\":6688:6712   */\n      tag_168\n      jump\t// in\n    tag_167:\n        /* \"#utility.yul\":6683:6686   */\n      dup3\n        /* \"#utility.yul\":6676:6713   */\n      mstore\n        /* \"#utility.yul\":6666:6719   */\n      pop\n      pop\n      jump\t// out\n        /* \"#utility.yul\":6725:6947   */\n    tag_30:\n      0x00\n        /* \"#utility.yul\":6856:6858   */\n      0x20\n        /* \"#utility.yul\":6845:6854   */\n      dup3\n        /* \"#utility.yul\":6841:6859   */\n      add\n        /* \"#utility.yul\":6833:6859   */\n      swap1\n      pop\n        /* \"#utility.yul\":6869:6940   */\n      tag_170\n        /* \"#utility.yul\":6937:6938   */\n      0x00\n        /* \"#utility.yul\":6926:6935   */\n      dup4\n        /* \"#utility.yul\":6922:6939   */\n      add\n        /* \"#utility.yul\":6913:6919   */\n      dup5\n        /* \"#utility.yul\":6869:6940   */\n      tag_127\n      jump\t// in\n    tag_170:\n        /* \"#utility.yul\":6823:6947   */\n      swap3\n      swap2\n      pop\n      pop\n      jump\t// out\n        /* \"#utility.yul\":6953:7372   */\n    tag_78:\n      0x00\n        /* \"#utility.yul\":7157:7159   */\n      0x20\n        /* \"#utility.yul\":7146:7155   */\n      dup3\n        /* \"#utility.yul\":7142:7160   */\n      add\n        /* \"#utility.yul\":7134:7160   */\n      swap1\n      pop\n        /* \"#utility.yul\":7206:7215   */\n      dup2\n        /* \"#utility.yul\":7200:7204   */\n      dup2\n        /* \"#utility.yul\":7196:7216   */\n      sub\n        /* \"#utility.yul\":7192:7193   */\n      0x00\n        /* \"#utility.yul\":7181:7190   */\n      dup4\n        /* \"#utility.yul\":7177:7194   */\n      add\n        /* \"#utility.yul\":7170:7217   */\n      mstore\n        /* \"#utility.yul\":7234:7365   */\n      tag_172\n        /* \"#utility.yul\":7360:7364   */\n      dup2\n        /* \"#utility.yul\":7234:7365   */\n      tag_134\n      jump\t// in\n    tag_172:\n        /* \"#utility.yul\":7226:7365   */\n      swap1\n      pop\n        /* \"#utility.yul\":7124:7372   */\n      swap2\n      swap1\n      pop\n      jump\t// out\n        /* \"#utility.yul\":7378:7797   */\n    tag_90:\n      0x00\n        /* \"#utility.yul\":7582:7584   */\n      0x20\n        /* \"#utility.yul\":7571:7580   */\n      dup3\n        /* \"#utility.yul\":7567:7585   */\n      add\n        /* \"#utility.yul\":7559:7585   */\n      swap1\n      pop\n        /* \"#utility.yul\":7631:7640   */\n      dup2\n        /* \"#utility.yul\":7625:7629   */\n      dup2\n        /* \"#utility.yul\":7621:7641   */\n      sub\n        /* \"#utility.yul\":7617:7618   */\n      0x00\n        /* \"#utility.yul\":7606:7615   */\n      dup4\n        /* \"#utility.yul\":7602:7619   */\n      add\n        /* \"#utility.yul\":7595:7642   */\n      mstore\n        /* \"#utility.yul\":7659:7790   */\n      tag_174\n        /* \"#utility.yul\":7785:7789   */\n      dup2\n        /* \"#utility.yul\":7659:7790   */\n      tag_138\n      jump\t// in\n    tag_174:\n        /* \"#utility.yul\":7651:7790   */\n      swap1\n      pop\n        /* \"#utility.yul\":7549:7797   */\n      swap2\n      swap1\n      pop\n      jump\t// out\n        /* \"#utility.yul\":7803:8222   */\n    tag_65:\n      0x00\n        /* \"#utility.yul\":8007:8009   */\n      0x20\n        /* \"#utility.yul\":7996:8005   */\n      dup3\n        /* \"#utility.yul\":7992:8010   */\n      add\n        /* \"#utility.yul\":7984:8010   */\n      swap1\n      pop\n        /* \"#utility.yul\":8056:8065   */\n      dup2\n        /* \"#utility.yul\":8050:8054   */\n      dup2\n        /* \"#utility.yul\":8046:8066   */\n      sub\n        /* \"#utility.yul\":8042:8043   */\n      0x00\n        /* \"#utility.yul\":8031:8040   */\n      dup4\n        /* \"#utility.yul\":8027:8044   */\n      add\n        /* \"#utility.yul\":8020:8067   */\n      mstore\n        /* \"#utility.yul\":8084:8215   */\n      tag_176\n        /* \"#utility.yul\":8210:8214   */\n      dup2\n        /* \"#utility.yul\":8084:8215   */\n      tag_141\n      jump\t// in\n    tag_176:\n        /* \"#utility.yul\":8076:8215   */\n      swap1\n      pop\n        /* \"#utility.yul\":7974:8222   */\n      swap2\n      swap1\n      pop\n      jump\t// out\n        /* \"#utility.yul\":8228:8647   */\n    tag_62:\n      0x00\n        /* \"#utility.yul\":8432:8434   */\n      0x20\n        /* \"#utility.yul\":8421:8430   */\n      dup3\n        /* \"#utility.yul\":8417:8435   */\n      add\n        /* \"#utility.yul\":8409:8435   */\n      swap1\n      pop\n        /* \"#utility.yul\":8481:8490   */\n      dup2\n        /* \"#utility.yul\":8475:8479   */\n      dup2\n        /* \"#utility.yul\":8471:8491   */\n      sub\n        /* \"#utility.yul\":8467:8468   */\n      0x00\n        /* \"#utility.yul\":8456:8465   */\n      dup4\n        /* \"#utility.yul\":8452:8469   */\n      add\n        /* \"#utility.yul\":8445:8492   */\n      mstore\n        /* \"#utility.yul\":8509:8640   */\n      tag_178\n        /* \"#utility.yul\":8635:8639   */\n      dup2\n        /* \"#utility.yul\":8509:8640   */\n      tag_144\n      jump\t// in\n    tag_178:\n        /* \"#utility.yul\":8501:8640   */\n      swap1\n      pop\n        /* \"#utility.yul\":8399:8647   */\n      swap2\n      swap1\n      pop\n      jump\t// out\n        /* \"#utility.yul\":8653:9072   */\n    tag_81:\n      0x00\n        /* \"#utility.yul\":8857:8859   */\n      0x20\n        /* \"#utility.yul\":8846:8855   */\n      dup3\n        /* \"#utility.yul\":8842:8860   */\n      add\n        /* \"#utility.yul\":8834:8860   */\n      swap1\n      pop\n        /* \"#utility.yul\":8906:8915   */\n      dup2\n        /* \"#utility.yul\":8900:8904   */\n      dup2\n        /* \"#utility.yul\":8896:8916   */\n      sub\n        /* \"#utility.yul\":8892:8893   */\n      0x00\n        /* \"#utility.yul\":8881:8890   */\n      dup4\n        /* \"#utility.yul\":8877:8894   */\n      add\n        /* \"#utility.yul\":8870:8917   */\n      mstore\n        /* \"#utility.yul\":8934:9065   */\n      tag_180\n        /* \"#utility.yul\":9060:9064   */\n      dup2\n        /* \"#utility.yul\":8934:9065   */\n      tag_147\n      jump\t// in\n    tag_180:\n        /* \"#utility.yul\":8926:9065   */\n      swap1\n      pop\n        /* \"#utility.yul\":8824:9072   */\n      swap2\n      swap1\n      pop\n      jump\t// out\n        /* \"#utility.yul\":9078:9497   */\n    tag_68:\n      0x00\n        /* \"#utility.yul\":9282:9284   */\n      0x20\n        /* \"#utility.yul\":9271:9280   */\n      dup3\n        /* \"#utility.yul\":9267:9285   */\n      add\n        /* \"#utility.yul\":9259:9285   */\n      swap1\n      pop\n        /* \"#utility.yul\":9331:9340   */\n      dup2\n        /* \"#utility.yul\":9325:9329   */\n      dup2\n        /* \"#utility.yul\":9321:9341   */\n      sub\n        /* \"#utility.yul\":9317:9318   */\n      0x00\n        /* \"#utility.yul\":9306:9315   */\n      dup4\n        /* \"#utility.yul\":9302:9319   */\n      add\n        /* \"#utility.yul\":9295:9342   */\n      mstore\n        /* \"#utility.yul\":9359:9490   */\n      tag_182\n        /* \"#utility.yul\":9485:9489   */\n      dup2\n        /* \"#utility.yul\":9359:9490   */\n      tag_150\n      jump\t// in\n    tag_182:\n        /* \"#utility.yul\":9351:9490   */\n      swap1\n      pop\n        /* \"#utility.yul\":9249:9497   */\n      swap2\n      swap1\n      pop\n      jump\t// out\n        /* \"#utility.yul\":9503:9922   */\n    tag_50:\n      0x00\n        /* \"#utility.yul\":9707:9709   */\n      0x20\n        /* \"#utility.yul\":9696:9705   */\n      dup3\n        /* \"#utility.yul\":9692:9710   */\n      add\n        /* \"#utility.yul\":9684:9710   */\n      swap1\n      pop\n        /* \"#utility.yul\":9756:9765   */\n      dup2\n        /* \"#utility.yul\":9750:9754   */\n      dup2\n        /* \"#utility.yul\":9746:9766   */\n      sub\n        /* \"#utility.yul\":9742:9743   */\n      0x00\n        /* \"#utility.yul\":9731:9740   */\n      dup4\n        /* \"#utility.yul\":9727:9744   */\n      add\n        /* \"#utility.yul\":9720:9767   */\n      mstore\n        /* \"#utility.yul\":9784:9915   */\n      tag_184\n        /* \"#utility.yul\":9910:9914   */\n      dup2\n        /* \"#utility.yul\":9784:9915   */\n      tag_153\n      jump\t// in\n    tag_184:\n        /* \"#utility.yul\":9776:9915   */\n      swap1\n      pop\n        /* \"#utility.yul\":9674:9922   */\n      swap2\n      swap1\n      pop\n      jump\t// out\n        /* \"#utility.yul\":9928:10267   */\n    tag_37:\n      0x00\n        /* \"#utility.yul\":10117:10120   */\n      0xe0\n        /* \"#utility.yul\":10106:10115   */\n      dup3\n        /* \"#utility.yul\":10102:10121   */\n      add\n        /* \"#utility.yul\":10094:10121   */\n      swap1\n      pop\n        /* \"#utility.yul\":10131:10260   */\n      tag_186\n        /* \"#utility.yul\":10257:10258   */\n      0x00\n        /* \"#utility.yul\":10246:10255   */\n      dup4\n        /* \"#utility.yul\":10242:10259   */\n      add\n        /* \"#utility.yul\":10233:10239   */\n      dup5\n        /* \"#utility.yul\":10131:10260   */\n      tag_156\n      jump\t// in\n    tag_186:\n        /* \"#utility.yul\":10084:10267   */\n      swap3\n      swap2\n      pop\n      pop\n      jump\t// out\n        /* \"#utility.yul\":10273:10442   */\n    tag_137:\n      0x00\n        /* \"#utility.yul\":10391:10397   */\n      dup3\n        /* \"#utility.yul\":10386:10389   */\n      dup3\n        /* \"#utility.yul\":10379:10398   */\n      mstore\n        /* \"#utility.yul\":10431:10435   */\n      0x20\n        /* \"#utility.yul\":10426:10429   */\n      dup3\n        /* \"#utility.yul\":10422:10436   */\n      add\n        /* \"#utility.yul\":10407:10436   */\n      swap1\n      pop\n        /* \"#utility.yul\":10369:10442   */\n      swap3\n      swap2\n      pop\n      pop\n      jump\t// out\n        /* \"#utility.yul\":10448:10753   */\n    tag_96:\n      0x00\n        /* \"#utility.yul\":10507:10527   */\n      tag_189\n        /* \"#utility.yul\":10525:10526   */\n      dup3\n        /* \"#utility.yul\":10507:10527   */\n      tag_168\n      jump\t// in\n    tag_189:\n        /* \"#utility.yul\":10502:10527   */\n      swap2\n      pop\n        /* \"#utility.yul\":10541:10561   */\n      tag_190\n        /* \"#utility.yul\":10559:10560   */\n      dup4\n        /* \"#utility.yul\":10541:10561   */\n      tag_168\n      jump\t// in\n    tag_190:\n        /* \"#utility.yul\":10536:10561   */\n      swap3\n      pop\n        /* \"#utility.yul\":10695:10696   */\n      dup3\n        /* \"#utility.yul\":10627:10693   */\n      0xffffffffffffffffffffffffffffffffffffffffffffffffffffffffffffffff\n        /* \"#utility.yul\":10623:10697   */\n      sub\n        /* \"#utility.yul\":10620:10621   */\n      dup3\n        /* \"#utility.yul\":10617:10698   */\n      gt\n        /* \"#utility.yul\":10614:10616   */\n      iszero\n      tag_191\n      jumpi\n        /* \"#utility.yul\":10701:10719   */\n      tag_192\n      tag_193\n      jump\t// in\n    tag_192:\n        /* \"#utility.yul\":10614:10616   */\n    tag_191:\n        /* \"#utility.yul\":10745:10746   */\n      dup3\n        /* \"#utility.yul\":10742:10743   */\n      dup3\n        /* \"#utility.yul\":10738:10747   */\n      add\n        /* \"#utility.yul\":10731:10747   */\n      swap1\n      pop\n        /* \"#utility.yul\":10492:10753   */\n      swap3\n      swap2\n      pop\n      pop\n      jump\t// out\n        /* \"#utility.yul\":10759:10855   */\n    tag_126:\n      0x00\n        /* \"#utility.yul\":10825:10849   */\n      tag_195\n        /* \"#utility.yul\":10843:10848   */\n      dup3\n        /* \"#utility.yul\":10825:10849   */\n      tag_196\n      jump\t// in\n    tag_195:\n        /* \"#utility.yul\":10814:10849   */\n      swap1\n      pop\n        /* \"#utility.yul\":10804:10855   */\n      swap2\n      swap1\n      pop\n      jump\t// out\n        /* \"#utility.yul\":10861:10951   */\n    tag_133:\n      0x00\n        /* \"#utility.yul\":10938:10943   */\n      dup2\n        /* \"#utility.yul\":10931:10944   */\n      iszero\n        /* \"#utility.yul\":10924:10945   */\n      iszero\n        /* \"#utility.yul\":10913:10945   */\n      swap1\n      pop\n        /* \"#utility.yul\":10903:10951   */\n      swap2\n      swap1\n      pop\n      jump\t// out\n        /* \"#utility.yul\":10957:11083   */\n    tag_196:\n      0x00\n        /* \"#utility.yul\":11034:11076   */\n      0xffffffffffffffffffffffffffffffffffffffff\n        /* \"#utility.yul\":11027:11032   */\n      dup3\n        /* \"#utility.yul\":11023:11077   */\n      and\n        /* \"#utility.yul\":11012:11077   */\n      swap1\n      pop\n        /* \"#utility.yul\":11002:11083   */\n      swap2\n      swap1\n      pop\n      jump\t// out\n        /* \"#utility.yul\":11089:11166   */\n    tag_168:\n      0x00\n        /* \"#utility.yul\":11155:11160   */\n      dup2\n        /* \"#utility.yul\":11144:11160   */\n      swap1\n      pop\n        /* \"#utility.yul\":11134:11166   */\n      swap2\n      swap1\n      pop\n      jump\t// out\n        /* \"#utility.yul\":11172:11352   */\n    tag_193:\n        /* \"#utility.yul\":11220:11297   */\n      0x4e487b7100000000000000000000000000000000000000000000000000000000\n        /* \"#utility.yul\":11217:11218   */\n      0x00\n        /* \"#utility.yul\":11210:11298   */\n      mstore\n        /* \"#utility.yul\":11317:11321   */\n      0x11\n        /* \"#utility.yul\":11314:11315   */\n      0x04\n        /* \"#utility.yul\":11307:11322   */\n      mstore\n        /* \"#utility.yul\":11341:11345   */\n      0x24\n        /* \"#utility.yul\":11338:11339   */\n      0x00\n        /* \"#utility.yul\":11331:11346   */\n      revert\n        /* \"#utility.yul\":11358:11480   */\n    tag_101:\n        /* \"#utility.yul\":11431:11455   */\n      tag_202\n        /* \"#utility.yul\":11449:11454   */\n      dup2\n        /* \"#utility.yul\":11431:11455   */\n      tag_126\n      jump\t// in\n    tag_202:\n        /* \"#utility.yul\":11424:11429   */\n      dup2\n        /* \"#utility.yul\":11421:11456   */\n      eq\n        /* \"#utility.yul\":11411:11413   */\n      tag_203\n      jumpi\n        /* \"#utility.yul\":11470:11471   */\n      0x00\n        /* \"#utility.yul\":11467:11468   */\n      dup1\n        /* \"#utility.yul\":11460:11472   */\n      revert\n        /* \"#utility.yul\":11411:11413   */\n    tag_203:\n        /* \"#utility.yul\":11401:11480   */\n      pop\n      jump\t// out\n        /* \"#utility.yul\":11486:11608   */\n    tag_105:\n        /* \"#utility.yul\":11559:11583   */\n      tag_205\n        /* \"#utility.yul\":11577:11582   */\n      dup2\n        /* \"#utility.yul\":11559:11583   */\n      tag_168\n      jump\t// in\n    tag_205:\n        /* \"#utility.yul\":11552:11557   */\n      dup2\n        /* \"#utility.yul\":11549:11584   */\n      eq\n        /* \"#utility.yul\":11539:11541   */\n      tag_206\n      jumpi\n        /* \"#utility.yul\":11598:11599   */\n      0x00\n        /* \"#utility.yul\":11595:11596   */\n      dup1\n        /* \"#utility.yul\":11588:11600   */\n      revert\n        /* \"#utility.yul\":11539:11541   */\n    tag_206:\n        /* \"#utility.yul\":11529:11608   */\n      pop\n      jump\t// out\n\n    auxdata: 0xa2646970667358221220541b50ea6fa9594d728e04a73ea6bbf4162876acf1a5e5e5b31f108483fd585a64736f6c63430008000033\n}\n",
				"bytecode": {
					"linkReferences": {},
					"object": "60806040523480156200001157600080fd5b50604051620011c7380380620011c78339818101604052810190620000379190620001bf565b620000576200004b620000dc60201b60201c565b620000e460201b60201c565b80600073ffffffffffffffffffffffffffffffffffffffff168173ffffffffffffffffffffffffffffffffffffffff1614156200009357600080fd5b81600160006101000a81548173ffffffffffffffffffffffffffffffffffffffff021916908373ffffffffffffffffffffffffffffffffffffffff160217905550505062000239565b600033905090565b60008060009054906101000a900473ffffffffffffffffffffffffffffffffffffffff169050816000806101000a81548173ffffffffffffffffffffffffffffffffffffffff021916908373ffffffffffffffffffffffffffffffffffffffff1602179055508173ffffffffffffffffffffffffffffffffffffffff168173ffffffffffffffffffffffffffffffffffffffff167f8be0079c531659141344cd1fd0a4f28419497f9722a3daafe3b4186f6b6457e060405160405180910390a35050565b600081519050620001b9816200021f565b92915050565b600060208284031215620001d257600080fd5b6000620001e284828501620001a8565b91505092915050565b6000620001f882620001ff565b9050919050565b600073ffffffffffffffffffffffffffffffffffffffff82169050919050565b6200022a81620001eb565b81146200023657600080fd5b50565b610f7e80620002496000396000f3fe6080604052600436106100595760003560e01c80633f4dd26814610062578063715018a61461008b5780638446464e146100a25780638da5cb5b146100cb578063decb4abc146100f6578063f2fde38b1461013357610060565b3661006057005b005b34801561006e57600080fd5b506100896004803603810190610084919061097c565b61015c565b005b34801561009757600080fd5b506100a0610160565b005b3480156100ae57600080fd5b506100c960048036038101906100c491906108dc565b6101e8565b005b3480156100d757600080fd5b506100e06104b3565b6040516100ed9190610d26565b60405180910390f35b34801561010257600080fd5b5061011d60048036038101906101189190610953565b6104dc565b60405161012a9190610e21565b60405180910390f35b34801561013f57600080fd5b5061015a600480360381019061015591906108b3565b61065a565b005b5050565b610168610752565b73ffffffffffffffffffffffffffffffffffffffff166101866104b3565b73ffffffffffffffffffffffffffffffffffffffff16146101dc576040517f08c379a00000000000000000000000000000000000000000000000000000000081526004016101d390610e01565b60405180910390fd5b6101e6600061075a565b565b6101f0610752565b73ffffffffffffffffffffffffffffffffffffffff1661020e6104b3565b73ffffffffffffffffffffffffffffffffffffffff1614610264576040517f08c379a000000000000000000000000000000000000000000000000000000000815260040161025b90610e01565b60405180910390fd5b600073ffffffffffffffffffffffffffffffffffffffff168573ffffffffffffffffffffffffffffffffffffffff1614156102d4576040517f08c379a00000000000000000000000000000000000000000000000000000000081526004016102cb90610da1565b60405180910390fd5b60008311610317576040517f08c379a000000000000000000000000000000000000000000000000000000000815260040161030e90610d81565b60405180910390fd5b6000811161035a576040517f08c379a000000000000000000000000000000000000000000000000000000000815260040161035190610de1565b60405180910390fd5b60006040518060e001604052808773ffffffffffffffffffffffffffffffffffffffff168152602001868152602001858152602001848152602001838152602001600081526020016001151581525090508060036000600254815260200190815260200160002060008201518160000160006101000a81548173ffffffffffffffffffffffffffffffffffffffff021916908373ffffffffffffffffffffffffffffffffffffffff1602179055506020820151816001015560408201518160020155606082015181600301556080820151816004015560a0820151816005015560c08201518160060160006101000a81548160ff021916908315150217905550905050610473600160025461081e90919063ffffffff16565b507f4690aeb2b7a0d7d4c6f1339d4f6971b190ced078fe64863cd0f11710ff4f28ed816040516104a39190610e21565b60405180910390a1505050505050565b60008060009054906101000a900473ffffffffffffffffffffffffffffffffffffffff16905090565b6104e4610834565b6002548210610528576040517f08c379a000000000000000000000000000000000000000000000000000000000815260040161051f90610d41565b60405180910390fd5b600115156003600084815260200190815260200160002060060160009054906101000a900460ff16151514610592576040517f08c379a000000000000000000000000000000000000000000000000000000000815260040161058990610dc1565b60405180910390fd5b600360008381526020019081526020016000206040518060e00160405290816000820160009054906101000a900473ffffffffffffffffffffffffffffffffffffffff1673ffffffffffffffffffffffffffffffffffffffff1673ffffffffffffffffffffffffffffffffffffffff16815260200160018201548152602001600282015481526020016003820154815260200160048201548152602001600582015481526020016006820160009054906101000a900460ff1615151515815250509050919050565b610662610752565b73ffffffffffffffffffffffffffffffffffffffff166106806104b3565b73ffffffffffffffffffffffffffffffffffffffff16146106d6576040517f08c379a00000000000000000000000000000000000000000000000000000000081526004016106cd90610e01565b60405180910390fd5b600073ffffffffffffffffffffffffffffffffffffffff168173ffffffffffffffffffffffffffffffffffffffff161415610746576040517f08c379a000000000000000000000000000000000000000000000000000000000815260040161073d90610d61565b60405180910390fd5b61074f8161075a565b50565b600033905090565b60008060009054906101000a900473ffffffffffffffffffffffffffffffffffffffff169050816000806101000a81548173ffffffffffffffffffffffffffffffffffffffff021916908373ffffffffffffffffffffffffffffffffffffffff1602179055508173ffffffffffffffffffffffffffffffffffffffff168173ffffffffffffffffffffffffffffffffffffffff167f8be0079c531659141344cd1fd0a4f28419497f9722a3daafe3b4186f6b6457e060405160405180910390a35050565b6000818361082c9190610e4d565b905092915050565b6040518060e00160405280600073ffffffffffffffffffffffffffffffffffffffff16815260200160008152602001600081526020016000815260200160008152602001600081526020016000151581525090565b60008135905061089881610f1a565b92915050565b6000813590506108ad81610f31565b92915050565b6000602082840312156108c557600080fd5b60006108d384828501610889565b91505092915050565b600080600080600060a086880312156108f457600080fd5b600061090288828901610889565b95505060206109138882890161089e565b94505060406109248882890161089e565b93505060606109358882890161089e565b92505060806109468882890161089e565b9150509295509295909350565b60006020828403121561096557600080fd5b60006109738482850161089e565b91505092915050565b6000806040838503121561098f57600080fd5b600061099d8582860161089e565b92505060206109ae8582860161089e565b9150509250929050565b6109c181610ea3565b82525050565b6109d081610ea3565b82525050565b6109df81610eb5565b82525050565b60006109f2602583610e3c565b91507f546f6b656e56657374696e673a20536368656d65204964206f7574206f66206260008301527f6f756e64730000000000000000000000000000000000000000000000000000006020830152604082019050919050565b6000610a58602683610e3c565b91507f4f776e61626c653a206e6577206f776e657220697320746865207a65726f206160008301527f64647265737300000000000000000000000000000000000000000000000000006020830152604082019050919050565b6000610abe603683610e3c565b91507f546f6b656e56657374696e673a2056657374696e6720706572696f64206d757360008301527f742062652067726561746572207468616e207a65726f000000000000000000006020830152604082019050919050565b6000610b24603483610e3c565b91507f546f6b656e56657374696e673a2043616e6e6f7420616464207a65726f20616460008301527f64726573732061732062656e65666963696172790000000000000000000000006020830152604082019050919050565b6000610b8a604083610e3c565b91507f546f6b656e56657374696e673a2056657374696e6720536368656d652069732060008301527f6569746865722064656c65746564206f7220646f6573206e6f742065786973746020830152604082019050919050565b6000610bf0603483610e3c565b91507f546f6b656e56657374696e673a205665737461626c6520616d6f756e74206d7560008301527f73742062652067726561746572207468616e20300000000000000000000000006020830152604082019050919050565b6000610c56602083610e3c565b91507f4f776e61626c653a2063616c6c6572206973206e6f7420746865206f776e65726000830152602082019050919050565b60e082016000820151610c9f60008501826109b8565b506020820151610cb26020850182610d17565b506040820151610cc56040850182610d17565b506060820151610cd86060850182610d17565b506080820151610ceb6080850182610d17565b5060a0820151610cfe60a0850182610d17565b5060c0820151610d1160c08501826109d6565b50505050565b610d2081610ee1565b82525050565b6000602082019050610d3b60008301846109c7565b92915050565b60006020820190508181036000830152610d5a816109e5565b9050919050565b60006020820190508181036000830152610d7a81610a4b565b9050919050565b60006020820190508181036000830152610d9a81610ab1565b9050919050565b60006020820190508181036000830152610dba81610b17565b9050919050565b60006020820190508181036000830152610dda81610b7d565b9050919050565b60006020820190508181036000830152610dfa81610be3565b9050919050565b60006020820190508181036000830152610e1a81610c49565b9050919050565b600060e082019050610e366000830184610c89565b92915050565b600082825260208201905092915050565b6000610e5882610ee1565b9150610e6383610ee1565b9250827fffffffffffffffffffffffffffffffffffffffffffffffffffffffffffffffff03821115610e9857610e97610eeb565b5b828201905092915050565b6000610eae82610ec1565b9050919050565b60008115159050919050565b600073ffffffffffffffffffffffffffffffffffffffff82169050919050565b6000819050919050565b7f4e487b7100000000000000000000000000000000000000000000000000000000600052601160045260246000fd5b610f2381610ea3565b8114610f2e57600080fd5b50565b610f3a81610ee1565b8114610f4557600080fd5b5056fea2646970667358221220541b50ea6fa9594d728e04a73ea6bbf4162876acf1a5e5e5b31f108483fd585a64736f6c63430008000033",
					"opcodes": "PUSH1 0x80 PUSH1 0x40 MSTORE CALLVALUE DUP1 ISZERO PUSH3 0x11 JUMPI PUSH1 0x0 DUP1 REVERT JUMPDEST POP PUSH1 0x40 MLOAD PUSH3 0x11C7 CODESIZE SUB DUP1 PUSH3 0x11C7 DUP4 CODECOPY DUP2 DUP2 ADD PUSH1 0x40 MSTORE DUP2 ADD SWAP1 PUSH3 0x37 SWAP2 SWAP1 PUSH3 0x1BF JUMP JUMPDEST PUSH3 0x57 PUSH3 0x4B PUSH3 0xDC PUSH1 0x20 SHL PUSH1 0x20 SHR JUMP JUMPDEST PUSH3 0xE4 PUSH1 0x20 SHL PUSH1 0x20 SHR JUMP JUMPDEST DUP1 PUSH1 0x0 PUSH20 0xFFFFFFFFFFFFFFFFFFFFFFFFFFFFFFFFFFFFFFFF AND DUP2 PUSH20 0xFFFFFFFFFFFFFFFFFFFFFFFFFFFFFFFFFFFFFFFF AND EQ ISZERO PUSH3 0x93 JUMPI PUSH1 0x0 DUP1 REVERT JUMPDEST DUP2 PUSH1 0x1 PUSH1 0x0 PUSH2 0x100 EXP DUP2 SLOAD DUP2 PUSH20 0xFFFFFFFFFFFFFFFFFFFFFFFFFFFFFFFFFFFFFFFF MUL NOT AND SWAP1 DUP4 PUSH20 0xFFFFFFFFFFFFFFFFFFFFFFFFFFFFFFFFFFFFFFFF AND MUL OR SWAP1 SSTORE POP POP POP PUSH3 0x239 JUMP JUMPDEST PUSH1 0x0 CALLER SWAP1 POP SWAP1 JUMP JUMPDEST PUSH1 0x0 DUP1 PUSH1 0x0 SWAP1 SLOAD SWAP1 PUSH2 0x100 EXP SWAP1 DIV PUSH20 0xFFFFFFFFFFFFFFFFFFFFFFFFFFFFFFFFFFFFFFFF AND SWAP1 POP DUP2 PUSH1 0x0 DUP1 PUSH2 0x100 EXP DUP2 SLOAD DUP2 PUSH20 0xFFFFFFFFFFFFFFFFFFFFFFFFFFFFFFFFFFFFFFFF MUL NOT AND SWAP1 DUP4 PUSH20 0xFFFFFFFFFFFFFFFFFFFFFFFFFFFFFFFFFFFFFFFF AND MUL OR SWAP1 SSTORE POP DUP2 PUSH20 0xFFFFFFFFFFFFFFFFFFFFFFFFFFFFFFFFFFFFFFFF AND DUP2 PUSH20 0xFFFFFFFFFFFFFFFFFFFFFFFFFFFFFFFFFFFFFFFF AND PUSH32 0x8BE0079C531659141344CD1FD0A4F28419497F9722A3DAAFE3B4186F6B6457E0 PUSH1 0x40 MLOAD PUSH1 0x40 MLOAD DUP1 SWAP2 SUB SWAP1 LOG3 POP POP JUMP JUMPDEST PUSH1 0x0 DUP2 MLOAD SWAP1 POP PUSH3 0x1B9 DUP2 PUSH3 0x21F JUMP JUMPDEST SWAP3 SWAP2 POP POP JUMP JUMPDEST PUSH1 0x0 PUSH1 0x20 DUP3 DUP5 SUB SLT ISZERO PUSH3 0x1D2 JUMPI PUSH1 0x0 DUP1 REVERT JUMPDEST PUSH1 0x0 PUSH3 0x1E2 DUP5 DUP3 DUP6 ADD PUSH3 0x1A8 JUMP JUMPDEST SWAP2 POP POP SWAP3 SWAP2 POP POP JUMP JUMPDEST PUSH1 0x0 PUSH3 0x1F8 DUP3 PUSH3 0x1FF JUMP JUMPDEST SWAP1 POP SWAP2 SWAP1 POP JUMP JUMPDEST PUSH1 0x0 PUSH20 0xFFFFFFFFFFFFFFFFFFFFFFFFFFFFFFFFFFFFFFFF DUP3 AND SWAP1 POP SWAP2 SWAP1 POP JUMP JUMPDEST PUSH3 0x22A DUP2 PUSH3 0x1EB JUMP JUMPDEST DUP2 EQ PUSH3 0x236 JUMPI PUSH1 0x0 DUP1 REVERT JUMPDEST POP JUMP JUMPDEST PUSH2 0xF7E DUP1 PUSH3 0x249 PUSH1 0x0 CODECOPY PUSH1 0x0 RETURN INVALID PUSH1 0x80 PUSH1 0x40 MSTORE PUSH1 0x4 CALLDATASIZE LT PUSH2 0x59 JUMPI PUSH1 0x0 CALLDATALOAD PUSH1 0xE0 SHR DUP1 PUSH4 0x3F4DD268 EQ PUSH2 0x62 JUMPI DUP1 PUSH4 0x715018A6 EQ PUSH2 0x8B JUMPI DUP1 PUSH4 0x8446464E EQ PUSH2 0xA2 JUMPI DUP1 PUSH4 0x8DA5CB5B EQ PUSH2 0xCB JUMPI DUP1 PUSH4 0xDECB4ABC EQ PUSH2 0xF6 JUMPI DUP1 PUSH4 0xF2FDE38B EQ PUSH2 0x133 JUMPI PUSH2 0x60 JUMP JUMPDEST CALLDATASIZE PUSH2 0x60 JUMPI STOP JUMPDEST STOP JUMPDEST CALLVALUE DUP1 ISZERO PUSH2 0x6E JUMPI PUSH1 0x0 DUP1 REVERT JUMPDEST POP PUSH2 0x89 PUSH1 0x4 DUP1 CALLDATASIZE SUB DUP2 ADD SWAP1 PUSH2 0x84 SWAP2 SWAP1 PUSH2 0x97C JUMP JUMPDEST PUSH2 0x15C JUMP JUMPDEST STOP JUMPDEST CALLVALUE DUP1 ISZERO PUSH2 0x97 JUMPI PUSH1 0x0 DUP1 REVERT JUMPDEST POP PUSH2 0xA0 PUSH2 0x160 JUMP JUMPDEST STOP JUMPDEST CALLVALUE DUP1 ISZERO PUSH2 0xAE JUMPI PUSH1 0x0 DUP1 REVERT JUMPDEST POP PUSH2 0xC9 PUSH1 0x4 DUP1 CALLDATASIZE SUB DUP2 ADD SWAP1 PUSH2 0xC4 SWAP2 SWAP1 PUSH2 0x8DC JUMP JUMPDEST PUSH2 0x1E8 JUMP JUMPDEST STOP JUMPDEST CALLVALUE DUP1 ISZERO PUSH2 0xD7 JUMPI PUSH1 0x0 DUP1 REVERT JUMPDEST POP PUSH2 0xE0 PUSH2 0x4B3 JUMP JUMPDEST PUSH1 0x40 MLOAD PUSH2 0xED SWAP2 SWAP1 PUSH2 0xD26 JUMP JUMPDEST PUSH1 0x40 MLOAD DUP1 SWAP2 SUB SWAP1 RETURN JUMPDEST CALLVALUE DUP1 ISZERO PUSH2 0x102 JUMPI PUSH1 0x0 DUP1 REVERT JUMPDEST POP PUSH2 0x11D PUSH1 0x4 DUP1 CALLDATASIZE SUB DUP2 ADD SWAP1 PUSH2 0x118 SWAP2 SWAP1 PUSH2 0x953 JUMP JUMPDEST PUSH2 0x4DC JUMP JUMPDEST PUSH1 0x40 MLOAD PUSH2 0x12A SWAP2 SWAP1 PUSH2 0xE21 JUMP JUMPDEST PUSH1 0x40 MLOAD DUP1 SWAP2 SUB SWAP1 RETURN JUMPDEST CALLVALUE DUP1 ISZERO PUSH2 0x13F JUMPI PUSH1 0x0 DUP1 REVERT JUMPDEST POP PUSH2 0x15A PUSH1 0x4 DUP1 CALLDATASIZE SUB DUP2 ADD SWAP1 PUSH2 0x155 SWAP2 SWAP1 PUSH2 0x8B3 JUMP JUMPDEST PUSH2 0x65A JUMP JUMPDEST STOP JUMPDEST POP POP JUMP JUMPDEST PUSH2 0x168 PUSH2 0x752 JUMP JUMPDEST PUSH20 0xFFFFFFFFFFFFFFFFFFFFFFFFFFFFFFFFFFFFFFFF AND PUSH2 0x186 PUSH2 0x4B3 JUMP JUMPDEST PUSH20 0xFFFFFFFFFFFFFFFFFFFFFFFFFFFFFFFFFFFFFFFF AND EQ PUSH2 0x1DC JUMPI PUSH1 0x40 MLOAD PUSH32 0x8C379A000000000000000000000000000000000000000000000000000000000 DUP2 MSTORE PUSH1 0x4 ADD PUSH2 0x1D3 SWAP1 PUSH2 0xE01 JUMP JUMPDEST PUSH1 0x40 MLOAD DUP1 SWAP2 SUB SWAP1 REVERT JUMPDEST PUSH2 0x1E6 PUSH1 0x0 PUSH2 0x75A JUMP JUMPDEST JUMP JUMPDEST PUSH2 0x1F0 PUSH2 0x752 JUMP JUMPDEST PUSH20 0xFFFFFFFFFFFFFFFFFFFFFFFFFFFFFFFFFFFFFFFF AND PUSH2 0x20E PUSH2 0x4B3 JUMP JUMPDEST PUSH20 0xFFFFFFFFFFFFFFFFFFFFFFFFFFFFFFFFFFFFFFFF AND EQ PUSH2 0x264 JUMPI PUSH1 0x40 MLOAD PUSH32 0x8C379A000000000000000000000000000000000000000000000000000000000 DUP2 MSTORE PUSH1 0x4 ADD PUSH2 0x25B SWAP1 PUSH2 0xE01 JUMP JUMPDEST PUSH1 0x40 MLOAD DUP1 SWAP2 SUB SWAP1 REVERT JUMPDEST PUSH1 0x0 PUSH20 0xFFFFFFFFFFFFFFFFFFFFFFFFFFFFFFFFFFFFFFFF AND DUP6 PUSH20 0xFFFFFFFFFFFFFFFFFFFFFFFFFFFFFFFFFFFFFFFF AND EQ ISZERO PUSH2 0x2D4 JUMPI PUSH1 0x40 MLOAD PUSH32 0x8C379A000000000000000000000000000000000000000000000000000000000 DUP2 MSTORE PUSH1 0x4 ADD PUSH2 0x2CB SWAP1 PUSH2 0xDA1 JUMP JUMPDEST PUSH1 0x40 MLOAD DUP1 SWAP2 SUB SWAP1 REVERT JUMPDEST PUSH1 0x0 DUP4 GT PUSH2 0x317 JUMPI PUSH1 0x40 MLOAD PUSH32 0x8C379A000000000000000000000000000000000000000000000000000000000 DUP2 MSTORE PUSH1 0x4 ADD PUSH2 0x30E SWAP1 PUSH2 0xD81 JUMP JUMPDEST PUSH1 0x40 MLOAD DUP1 SWAP2 SUB SWAP1 REVERT JUMPDEST PUSH1 0x0 DUP2 GT PUSH2 0x35A JUMPI PUSH1 0x40 MLOAD PUSH32 0x8C379A000000000000000000000000000000000000000000000000000000000 DUP2 MSTORE PUSH1 0x4 ADD PUSH2 0x351 SWAP1 PUSH2 0xDE1 JUMP JUMPDEST PUSH1 0x40 MLOAD DUP1 SWAP2 SUB SWAP1 REVERT JUMPDEST PUSH1 0x0 PUSH1 0x40 MLOAD DUP1 PUSH1 0xE0 ADD PUSH1 0x40 MSTORE DUP1 DUP8 PUSH20 0xFFFFFFFFFFFFFFFFFFFFFFFFFFFFFFFFFFFFFFFF AND DUP2 MSTORE PUSH1 0x20 ADD DUP7 DUP2 MSTORE PUSH1 0x20 ADD DUP6 DUP2 MSTORE PUSH1 0x20 ADD DUP5 DUP2 MSTORE PUSH1 0x20 ADD DUP4 DUP2 MSTORE PUSH1 0x20 ADD PUSH1 0x0 DUP2 MSTORE PUSH1 0x20 ADD PUSH1 0x1 ISZERO ISZERO DUP2 MSTORE POP SWAP1 POP DUP1 PUSH1 0x3 PUSH1 0x0 PUSH1 0x2 SLOAD DUP2 MSTORE PUSH1 0x20 ADD SWAP1 DUP2 MSTORE PUSH1 0x20 ADD PUSH1 0x0 KECCAK256 PUSH1 0x0 DUP3 ADD MLOAD DUP2 PUSH1 0x0 ADD PUSH1 0x0 PUSH2 0x100 EXP DUP2 SLOAD DUP2 PUSH20 0xFFFFFFFFFFFFFFFFFFFFFFFFFFFFFFFFFFFFFFFF MUL NOT AND SWAP1 DUP4 PUSH20 0xFFFFFFFFFFFFFFFFFFFFFFFFFFFFFFFFFFFFFFFF AND MUL OR SWAP1 SSTORE POP PUSH1 0x20 DUP3 ADD MLOAD DUP2 PUSH1 0x1 ADD SSTORE PUSH1 0x40 DUP3 ADD MLOAD DUP2 PUSH1 0x2 ADD SSTORE PUSH1 0x60 DUP3 ADD MLOAD DUP2 PUSH1 0x3 ADD SSTORE PUSH1 0x80 DUP3 ADD MLOAD DUP2 PUSH1 0x4 ADD SSTORE PUSH1 0xA0 DUP3 ADD MLOAD DUP2 PUSH1 0x5 ADD SSTORE PUSH1 0xC0 DUP3 ADD MLOAD DUP2 PUSH1 0x6 ADD PUSH1 0x0 PUSH2 0x100 EXP DUP2 SLOAD DUP2 PUSH1 0xFF MUL NOT AND SWAP1 DUP4 ISZERO ISZERO MUL OR SWAP1 SSTORE POP SWAP1 POP POP PUSH2 0x473 PUSH1 0x1 PUSH1 0x2 SLOAD PUSH2 0x81E SWAP1 SWAP2 SWAP1 PUSH4 0xFFFFFFFF AND JUMP JUMPDEST POP PUSH32 0x4690AEB2B7A0D7D4C6F1339D4F6971B190CED078FE64863CD0F11710FF4F28ED DUP2 PUSH1 0x40 MLOAD PUSH2 0x4A3 SWAP2 SWAP1 PUSH2 0xE21 JUMP JUMPDEST PUSH1 0x40 MLOAD DUP1 SWAP2 SUB SWAP1 LOG1 POP POP POP POP POP POP JUMP JUMPDEST PUSH1 0x0 DUP1 PUSH1 0x0 SWAP1 SLOAD SWAP1 PUSH2 0x100 EXP SWAP1 DIV PUSH20 0xFFFFFFFFFFFFFFFFFFFFFFFFFFFFFFFFFFFFFFFF AND SWAP1 POP SWAP1 JUMP JUMPDEST PUSH2 0x4E4 PUSH2 0x834 JUMP JUMPDEST PUSH1 0x2 SLOAD DUP3 LT PUSH2 0x528 JUMPI PUSH1 0x40 MLOAD PUSH32 0x8C379A000000000000000000000000000000000000000000000000000000000 DUP2 MSTORE PUSH1 0x4 ADD PUSH2 0x51F SWAP1 PUSH2 0xD41 JUMP JUMPDEST PUSH1 0x40 MLOAD DUP1 SWAP2 SUB SWAP1 REVERT JUMPDEST PUSH1 0x1 ISZERO ISZERO PUSH1 0x3 PUSH1 0x0 DUP5 DUP2 MSTORE PUSH1 0x20 ADD SWAP1 DUP2 MSTORE PUSH1 0x20 ADD PUSH1 0x0 KECCAK256 PUSH1 0x6 ADD PUSH1 0x0 SWAP1 SLOAD SWAP1 PUSH2 0x100 EXP SWAP1 DIV PUSH1 0xFF AND ISZERO ISZERO EQ PUSH2 0x592 JUMPI PUSH1 0x40 MLOAD PUSH32 0x8C379A000000000000000000000000000000000000000000000000000000000 DUP2 MSTORE PUSH1 0x4 ADD PUSH2 0x589 SWAP1 PUSH2 0xDC1 JUMP JUMPDEST PUSH1 0x40 MLOAD DUP1 SWAP2 SUB SWAP1 REVERT JUMPDEST PUSH1 0x3 PUSH1 0x0 DUP4 DUP2 MSTORE PUSH1 0x20 ADD SWAP1 DUP2 MSTORE PUSH1 0x20 ADD PUSH1 0x0 KECCAK256 PUSH1 0x40 MLOAD DUP1 PUSH1 0xE0 ADD PUSH1 0x40 MSTORE SWAP1 DUP2 PUSH1 0x0 DUP3 ADD PUSH1 0x0 SWAP1 SLOAD SWAP1 PUSH2 0x100 EXP SWAP1 DIV PUSH20 0xFFFFFFFFFFFFFFFFFFFFFFFFFFFFFFFFFFFFFFFF AND PUSH20 0xFFFFFFFFFFFFFFFFFFFFFFFFFFFFFFFFFFFFFFFF AND PUSH20 0xFFFFFFFFFFFFFFFFFFFFFFFFFFFFFFFFFFFFFFFF AND DUP2 MSTORE PUSH1 0x20 ADD PUSH1 0x1 DUP3 ADD SLOAD DUP2 MSTORE PUSH1 0x20 ADD PUSH1 0x2 DUP3 ADD SLOAD DUP2 MSTORE PUSH1 0x20 ADD PUSH1 0x3 DUP3 ADD SLOAD DUP2 MSTORE PUSH1 0x20 ADD PUSH1 0x4 DUP3 ADD SLOAD DUP2 MSTORE PUSH1 0x20 ADD PUSH1 0x5 DUP3 ADD SLOAD DUP2 MSTORE PUSH1 0x20 ADD PUSH1 0x6 DUP3 ADD PUSH1 0x0 SWAP1 SLOAD SWAP1 PUSH2 0x100 EXP SWAP1 DIV PUSH1 0xFF AND ISZERO ISZERO ISZERO ISZERO DUP2 MSTORE POP POP SWAP1 POP SWAP2 SWAP1 POP JUMP JUMPDEST PUSH2 0x662 PUSH2 0x752 JUMP JUMPDEST PUSH20 0xFFFFFFFFFFFFFFFFFFFFFFFFFFFFFFFFFFFFFFFF AND PUSH2 0x680 PUSH2 0x4B3 JUMP JUMPDEST PUSH20 0xFFFFFFFFFFFFFFFFFFFFFFFFFFFFFFFFFFFFFFFF AND EQ PUSH2 0x6D6 JUMPI PUSH1 0x40 MLOAD PUSH32 0x8C379A000000000000000000000000000000000000000000000000000000000 DUP2 MSTORE PUSH1 0x4 ADD PUSH2 0x6CD SWAP1 PUSH2 0xE01 JUMP JUMPDEST PUSH1 0x40 MLOAD DUP1 SWAP2 SUB SWAP1 REVERT JUMPDEST PUSH1 0x0 PUSH20 0xFFFFFFFFFFFFFFFFFFFFFFFFFFFFFFFFFFFFFFFF AND DUP2 PUSH20 0xFFFFFFFFFFFFFFFFFFFFFFFFFFFFFFFFFFFFFFFF AND EQ ISZERO PUSH2 0x746 JUMPI PUSH1 0x40 MLOAD PUSH32 0x8C379A000000000000000000000000000000000000000000000000000000000 DUP2 MSTORE PUSH1 0x4 ADD PUSH2 0x73D SWAP1 PUSH2 0xD61 JUMP JUMPDEST PUSH1 0x40 MLOAD DUP1 SWAP2 SUB SWAP1 REVERT JUMPDEST PUSH2 0x74F DUP2 PUSH2 0x75A JUMP JUMPDEST POP JUMP JUMPDEST PUSH1 0x0 CALLER SWAP1 POP SWAP1 JUMP JUMPDEST PUSH1 0x0 DUP1 PUSH1 0x0 SWAP1 SLOAD SWAP1 PUSH2 0x100 EXP SWAP1 DIV PUSH20 0xFFFFFFFFFFFFFFFFFFFFFFFFFFFFFFFFFFFFFFFF AND SWAP1 POP DUP2 PUSH1 0x0 DUP1 PUSH2 0x100 EXP DUP2 SLOAD DUP2 PUSH20 0xFFFFFFFFFFFFFFFFFFFFFFFFFFFFFFFFFFFFFFFF MUL NOT AND SWAP1 DUP4 PUSH20 0xFFFFFFFFFFFFFFFFFFFFFFFFFFFFFFFFFFFFFFFF AND MUL OR SWAP1 SSTORE POP DUP2 PUSH20 0xFFFFFFFFFFFFFFFFFFFFFFFFFFFFFFFFFFFFFFFF AND DUP2 PUSH20 0xFFFFFFFFFFFFFFFFFFFFFFFFFFFFFFFFFFFFFFFF AND PUSH32 0x8BE0079C531659141344CD1FD0A4F28419497F9722A3DAAFE3B4186F6B6457E0 PUSH1 0x40 MLOAD PUSH1 0x40 MLOAD DUP1 SWAP2 SUB SWAP1 LOG3 POP POP JUMP JUMPDEST PUSH1 0x0 DUP2 DUP4 PUSH2 0x82C SWAP2 SWAP1 PUSH2 0xE4D JUMP JUMPDEST SWAP1 POP SWAP3 SWAP2 POP POP JUMP JUMPDEST PUSH1 0x40 MLOAD DUP1 PUSH1 0xE0 ADD PUSH1 0x40 MSTORE DUP1 PUSH1 0x0 PUSH20 0xFFFFFFFFFFFFFFFFFFFFFFFFFFFFFFFFFFFFFFFF AND DUP2 MSTORE PUSH1 0x20 ADD PUSH1 0x0 DUP2 MSTORE PUSH1 0x20 ADD PUSH1 0x0 DUP2 MSTORE PUSH1 0x20 ADD PUSH1 0x0 DUP2 MSTORE PUSH1 0x20 ADD PUSH1 0x0 DUP2 MSTORE PUSH1 0x20 ADD PUSH1 0x0 DUP2 MSTORE PUSH1 0x20 ADD PUSH1 0x0 ISZERO ISZERO DUP2 MSTORE POP SWAP1 JUMP JUMPDEST PUSH1 0x0 DUP2 CALLDATALOAD SWAP1 POP PUSH2 0x898 DUP2 PUSH2 0xF1A JUMP JUMPDEST SWAP3 SWAP2 POP POP JUMP JUMPDEST PUSH1 0x0 DUP2 CALLDATALOAD SWAP1 POP PUSH2 0x8AD DUP2 PUSH2 0xF31 JUMP JUMPDEST SWAP3 SWAP2 POP POP JUMP JUMPDEST PUSH1 0x0 PUSH1 0x20 DUP3 DUP5 SUB SLT ISZERO PUSH2 0x8C5 JUMPI PUSH1 0x0 DUP1 REVERT JUMPDEST PUSH1 0x0 PUSH2 0x8D3 DUP5 DUP3 DUP6 ADD PUSH2 0x889 JUMP JUMPDEST SWAP2 POP POP SWAP3 SWAP2 POP POP JUMP JUMPDEST PUSH1 0x0 DUP1 PUSH1 0x0 DUP1 PUSH1 0x0 PUSH1 0xA0 DUP7 DUP9 SUB SLT ISZERO PUSH2 0x8F4 JUMPI PUSH1 0x0 DUP1 REVERT JUMPDEST PUSH1 0x0 PUSH2 0x902 DUP9 DUP3 DUP10 ADD PUSH2 0x889 JUMP JUMPDEST SWAP6 POP POP PUSH1 0x20 PUSH2 0x913 DUP9 DUP3 DUP10 ADD PUSH2 0x89E JUMP JUMPDEST SWAP5 POP POP PUSH1 0x40 PUSH2 0x924 DUP9 DUP3 DUP10 ADD PUSH2 0x89E JUMP JUMPDEST SWAP4 POP POP PUSH1 0x60 PUSH2 0x935 DUP9 DUP3 DUP10 ADD PUSH2 0x89E JUMP JUMPDEST SWAP3 POP POP PUSH1 0x80 PUSH2 0x946 DUP9 DUP3 DUP10 ADD PUSH2 0x89E JUMP JUMPDEST SWAP2 POP POP SWAP3 SWAP6 POP SWAP3 SWAP6 SWAP1 SWAP4 POP JUMP JUMPDEST PUSH1 0x0 PUSH1 0x20 DUP3 DUP5 SUB SLT ISZERO PUSH2 0x965 JUMPI PUSH1 0x0 DUP1 REVERT JUMPDEST PUSH1 0x0 PUSH2 0x973 DUP5 DUP3 DUP6 ADD PUSH2 0x89E JUMP JUMPDEST SWAP2 POP POP SWAP3 SWAP2 POP POP JUMP JUMPDEST PUSH1 0x0 DUP1 PUSH1 0x40 DUP4 DUP6 SUB SLT ISZERO PUSH2 0x98F JUMPI PUSH1 0x0 DUP1 REVERT JUMPDEST PUSH1 0x0 PUSH2 0x99D DUP6 DUP3 DUP7 ADD PUSH2 0x89E JUMP JUMPDEST SWAP3 POP POP PUSH1 0x20 PUSH2 0x9AE DUP6 DUP3 DUP7 ADD PUSH2 0x89E JUMP JUMPDEST SWAP2 POP POP SWAP3 POP SWAP3 SWAP1 POP JUMP JUMPDEST PUSH2 0x9C1 DUP2 PUSH2 0xEA3 JUMP JUMPDEST DUP3 MSTORE POP POP JUMP JUMPDEST PUSH2 0x9D0 DUP2 PUSH2 0xEA3 JUMP JUMPDEST DUP3 MSTORE POP POP JUMP JUMPDEST PUSH2 0x9DF DUP2 PUSH2 0xEB5 JUMP JUMPDEST DUP3 MSTORE POP POP JUMP JUMPDEST PUSH1 0x0 PUSH2 0x9F2 PUSH1 0x25 DUP4 PUSH2 0xE3C JUMP JUMPDEST SWAP2 POP PUSH32 0x546F6B656E56657374696E673A20536368656D65204964206F7574206F662062 PUSH1 0x0 DUP4 ADD MSTORE PUSH32 0x6F756E6473000000000000000000000000000000000000000000000000000000 PUSH1 0x20 DUP4 ADD MSTORE PUSH1 0x40 DUP3 ADD SWAP1 POP SWAP2 SWAP1 POP JUMP JUMPDEST PUSH1 0x0 PUSH2 0xA58 PUSH1 0x26 DUP4 PUSH2 0xE3C JUMP JUMPDEST SWAP2 POP PUSH32 0x4F776E61626C653A206E6577206F776E657220697320746865207A65726F2061 PUSH1 0x0 DUP4 ADD MSTORE PUSH32 0x6464726573730000000000000000000000000000000000000000000000000000 PUSH1 0x20 DUP4 ADD MSTORE PUSH1 0x40 DUP3 ADD SWAP1 POP SWAP2 SWAP1 POP JUMP JUMPDEST PUSH1 0x0 PUSH2 0xABE PUSH1 0x36 DUP4 PUSH2 0xE3C JUMP JUMPDEST SWAP2 POP PUSH32 0x546F6B656E56657374696E673A2056657374696E6720706572696F64206D7573 PUSH1 0x0 DUP4 ADD MSTORE PUSH32 0x742062652067726561746572207468616E207A65726F00000000000000000000 PUSH1 0x20 DUP4 ADD MSTORE PUSH1 0x40 DUP3 ADD SWAP1 POP SWAP2 SWAP1 POP JUMP JUMPDEST PUSH1 0x0 PUSH2 0xB24 PUSH1 0x34 DUP4 PUSH2 0xE3C JUMP JUMPDEST SWAP2 POP PUSH32 0x546F6B656E56657374696E673A2043616E6E6F7420616464207A65726F206164 PUSH1 0x0 DUP4 ADD MSTORE PUSH32 0x64726573732061732062656E6566696369617279000000000000000000000000 PUSH1 0x20 DUP4 ADD MSTORE PUSH1 0x40 DUP3 ADD SWAP1 POP SWAP2 SWAP1 POP JUMP JUMPDEST PUSH1 0x0 PUSH2 0xB8A PUSH1 0x40 DUP4 PUSH2 0xE3C JUMP JUMPDEST SWAP2 POP PUSH32 0x546F6B656E56657374696E673A2056657374696E6720536368656D6520697320 PUSH1 0x0 DUP4 ADD MSTORE PUSH32 0x6569746865722064656C65746564206F7220646F6573206E6F74206578697374 PUSH1 0x20 DUP4 ADD MSTORE PUSH1 0x40 DUP3 ADD SWAP1 POP SWAP2 SWAP1 POP JUMP JUMPDEST PUSH1 0x0 PUSH2 0xBF0 PUSH1 0x34 DUP4 PUSH2 0xE3C JUMP JUMPDEST SWAP2 POP PUSH32 0x546F6B656E56657374696E673A205665737461626C6520616D6F756E74206D75 PUSH1 0x0 DUP4 ADD MSTORE PUSH32 0x73742062652067726561746572207468616E2030000000000000000000000000 PUSH1 0x20 DUP4 ADD MSTORE PUSH1 0x40 DUP3 ADD SWAP1 POP SWAP2 SWAP1 POP JUMP JUMPDEST PUSH1 0x0 PUSH2 0xC56 PUSH1 0x20 DUP4 PUSH2 0xE3C JUMP JUMPDEST SWAP2 POP PUSH32 0x4F776E61626C653A2063616C6C6572206973206E6F7420746865206F776E6572 PUSH1 0x0 DUP4 ADD MSTORE PUSH1 0x20 DUP3 ADD SWAP1 POP SWAP2 SWAP1 POP JUMP JUMPDEST PUSH1 0xE0 DUP3 ADD PUSH1 0x0 DUP3 ADD MLOAD PUSH2 0xC9F PUSH1 0x0 DUP6 ADD DUP3 PUSH2 0x9B8 JUMP JUMPDEST POP PUSH1 0x20 DUP3 ADD MLOAD PUSH2 0xCB2 PUSH1 0x20 DUP6 ADD DUP3 PUSH2 0xD17 JUMP JUMPDEST POP PUSH1 0x40 DUP3 ADD MLOAD PUSH2 0xCC5 PUSH1 0x40 DUP6 ADD DUP3 PUSH2 0xD17 JUMP JUMPDEST POP PUSH1 0x60 DUP3 ADD MLOAD PUSH2 0xCD8 PUSH1 0x60 DUP6 ADD DUP3 PUSH2 0xD17 JUMP JUMPDEST POP PUSH1 0x80 DUP3 ADD MLOAD PUSH2 0xCEB PUSH1 0x80 DUP6 ADD DUP3 PUSH2 0xD17 JUMP JUMPDEST POP PUSH1 0xA0 DUP3 ADD MLOAD PUSH2 0xCFE PUSH1 0xA0 DUP6 ADD DUP3 PUSH2 0xD17 JUMP JUMPDEST POP PUSH1 0xC0 DUP3 ADD MLOAD PUSH2 0xD11 PUSH1 0xC0 DUP6 ADD DUP3 PUSH2 0x9D6 JUMP JUMPDEST POP POP POP POP JUMP JUMPDEST PUSH2 0xD20 DUP2 PUSH2 0xEE1 JUMP JUMPDEST DUP3 MSTORE POP POP JUMP JUMPDEST PUSH1 0x0 PUSH1 0x20 DUP3 ADD SWAP1 POP PUSH2 0xD3B PUSH1 0x0 DUP4 ADD DUP5 PUSH2 0x9C7 JUMP JUMPDEST SWAP3 SWAP2 POP POP JUMP JUMPDEST PUSH1 0x0 PUSH1 0x20 DUP3 ADD SWAP1 POP DUP2 DUP2 SUB PUSH1 0x0 DUP4 ADD MSTORE PUSH2 0xD5A DUP2 PUSH2 0x9E5 JUMP JUMPDEST SWAP1 POP SWAP2 SWAP1 POP JUMP JUMPDEST PUSH1 0x0 PUSH1 0x20 DUP3 ADD SWAP1 POP DUP2 DUP2 SUB PUSH1 0x0 DUP4 ADD MSTORE PUSH2 0xD7A DUP2 PUSH2 0xA4B JUMP JUMPDEST SWAP1 POP SWAP2 SWAP1 POP JUMP JUMPDEST PUSH1 0x0 PUSH1 0x20 DUP3 ADD SWAP1 POP DUP2 DUP2 SUB PUSH1 0x0 DUP4 ADD MSTORE PUSH2 0xD9A DUP2 PUSH2 0xAB1 JUMP JUMPDEST SWAP1 POP SWAP2 SWAP1 POP JUMP JUMPDEST PUSH1 0x0 PUSH1 0x20 DUP3 ADD SWAP1 POP DUP2 DUP2 SUB PUSH1 0x0 DUP4 ADD MSTORE PUSH2 0xDBA DUP2 PUSH2 0xB17 JUMP JUMPDEST SWAP1 POP SWAP2 SWAP1 POP JUMP JUMPDEST PUSH1 0x0 PUSH1 0x20 DUP3 ADD SWAP1 POP DUP2 DUP2 SUB PUSH1 0x0 DUP4 ADD MSTORE PUSH2 0xDDA DUP2 PUSH2 0xB7D JUMP JUMPDEST SWAP1 POP SWAP2 SWAP1 POP JUMP JUMPDEST PUSH1 0x0 PUSH1 0x20 DUP3 ADD SWAP1 POP DUP2 DUP2 SUB PUSH1 0x0 DUP4 ADD MSTORE PUSH2 0xDFA DUP2 PUSH2 0xBE3 JUMP JUMPDEST SWAP1 POP SWAP2 SWAP1 POP JUMP JUMPDEST PUSH1 0x0 PUSH1 0x20 DUP3 ADD SWAP1 POP DUP2 DUP2 SUB PUSH1 0x0 DUP4 ADD MSTORE PUSH2 0xE1A DUP2 PUSH2 0xC49 JUMP JUMPDEST SWAP1 POP SWAP2 SWAP1 POP JUMP JUMPDEST PUSH1 0x0 PUSH1 0xE0 DUP3 ADD SWAP1 POP PUSH2 0xE36 PUSH1 0x0 DUP4 ADD DUP5 PUSH2 0xC89 JUMP JUMPDEST SWAP3 SWAP2 POP POP JUMP JUMPDEST PUSH1 0x0 DUP3 DUP3 MSTORE PUSH1 0x20 DUP3 ADD SWAP1 POP SWAP3 SWAP2 POP POP JUMP JUMPDEST PUSH1 0x0 PUSH2 0xE58 DUP3 PUSH2 0xEE1 JUMP JUMPDEST SWAP2 POP PUSH2 0xE63 DUP4 PUSH2 0xEE1 JUMP JUMPDEST SWAP3 POP DUP3 PUSH32 0xFFFFFFFFFFFFFFFFFFFFFFFFFFFFFFFFFFFFFFFFFFFFFFFFFFFFFFFFFFFFFFFF SUB DUP3 GT ISZERO PUSH2 0xE98 JUMPI PUSH2 0xE97 PUSH2 0xEEB JUMP JUMPDEST JUMPDEST DUP3 DUP3 ADD SWAP1 POP SWAP3 SWAP2 POP POP JUMP JUMPDEST PUSH1 0x0 PUSH2 0xEAE DUP3 PUSH2 0xEC1 JUMP JUMPDEST SWAP1 POP SWAP2 SWAP1 POP JUMP JUMPDEST PUSH1 0x0 DUP2 ISZERO ISZERO SWAP1 POP SWAP2 SWAP1 POP JUMP JUMPDEST PUSH1 0x0 PUSH20 0xFFFFFFFFFFFFFFFFFFFFFFFFFFFFFFFFFFFFFFFF DUP3 AND SWAP1 POP SWAP2 SWAP1 POP JUMP JUMPDEST PUSH1 0x0 DUP2 SWAP1 POP SWAP2 SWAP1 POP JUMP JUMPDEST PUSH32 0x4E487B7100000000000000000000000000000000000000000000000000000000 PUSH1 0x0 MSTORE PUSH1 0x11 PUSH1 0x4 MSTORE PUSH1 0x24 PUSH1 0x0 REVERT JUMPDEST PUSH2 0xF23 DUP2 PUSH2 0xEA3 JUMP JUMPDEST DUP2 EQ PUSH2 0xF2E JUMPI PUSH1 0x0 DUP1 REVERT JUMPDEST POP JUMP JUMPDEST PUSH2 0xF3A DUP2 PUSH2 0xEE1 JUMP JUMPDEST DUP2 EQ PUSH2 0xF45 JUMPI PUSH1 0x0 DUP1 REVERT JUMPDEST POP JUMP INVALID LOG2 PUSH5 0x6970667358 0x22 SLT KECCAK256 SLOAD SHL POP 0xEA PUSH16 0xA9594D728E04A73EA6BBF4162876ACF1 0xA5 0xE5 0xE5 0xB3 0x1F LT DUP5 DUP4 REVERT PC GAS PUSH5 0x736F6C6343 STOP ADDMOD STOP STOP CALLER "
				},
				"gasEstimates": {
					"creation": {
						"codeDepositCost": "793200",
						"executionCost": "infinite",
						"totalCost": "infinite"
					},
					"external": {
						"": "195",
						"createVestingScheme(address,uint256,uint256,uint256,uint256)": "infinite",
						"getVestingSchemeById(uint256)": "infinite",
						"owner()": "1266",
						"releaseTokens(uint256,uint256)": "infinite",
						"renounceOwnership()": "24374",
						"transferOwnership(address)": "24811"
					}
				},
				"methodIdentifiers": {
					"createVestingScheme(address,uint256,uint256,uint256,uint256)": "8446464e",
					"getVestingSchemeById(uint256)": "decb4abc",
					"owner()": "8da5cb5b",
					"releaseTokens(uint256,uint256)": "3f4dd268",
					"renounceOwnership()": "715018a6",
					"transferOwnership(address)": "f2fde38b"
				}
			},
			"storageLayout": {
				"storage": [
					{
						"astId": 223,
						"contract": "contract/tokenvesting.sol:TokenVesting",
						"label": "_owner",
						"offset": 0,
						"slot": "0",
						"type": "t_address"
					},
					{
						"astId": 42,
						"contract": "contract/tokenvesting.sol:TokenVesting",
						"label": "token",
						"offset": 0,
						"slot": "1",
						"type": "t_contract(IERC20)984"
					},
					{
						"astId": 59,
						"contract": "contract/tokenvesting.sol:TokenVesting",
						"label": "schemeId",
						"offset": 0,
						"slot": "2",
						"type": "t_uint256"
					},
					{
						"astId": 64,
						"contract": "contract/tokenvesting.sol:TokenVesting",
						"label": "schemes",
						"offset": 0,
						"slot": "3",
						"type": "t_mapping(t_uint256,t_struct(vestingScheme)57_storage)"
					}
				],
				"types": {
					"t_address": {
						"encoding": "inplace",
						"label": "address",
						"numberOfBytes": "20"
					},
					"t_bool": {
						"encoding": "inplace",
						"label": "bool",
						"numberOfBytes": "1"
					},
					"t_contract(IERC20)984": {
						"encoding": "inplace",
						"label": "contract IERC20",
						"numberOfBytes": "20"
					},
					"t_mapping(t_uint256,t_struct(vestingScheme)57_storage)": {
						"encoding": "mapping",
						"key": "t_uint256",
						"label": "mapping(uint256 => struct TokenVesting.vestingScheme)",
						"numberOfBytes": "32",
						"value": "t_struct(vestingScheme)57_storage"
					},
					"t_struct(vestingScheme)57_storage": {
						"encoding": "inplace",
						"label": "struct TokenVesting.vestingScheme",
						"members": [
							{
								"astId": 44,
								"contract": "contract/tokenvesting.sol:TokenVesting",
								"label": "_beneficiary",
								"offset": 0,
								"slot": "0",
								"type": "t_address"
							},
							{
								"astId": 46,
								"contract": "contract/tokenvesting.sol:TokenVesting",
								"label": "_startTime",
								"offset": 0,
								"slot": "1",
								"type": "t_uint256"
							},
							{
								"astId": 48,
								"contract": "contract/tokenvesting.sol:TokenVesting",
								"label": "_duration",
								"offset": 0,
								"slot": "2",
								"type": "t_uint256"
							},
							{
								"astId": 50,
								"contract": "contract/tokenvesting.sol:TokenVesting",
								"label": "_releaseSchedule",
								"offset": 0,
								"slot": "3",
								"type": "t_uint256"
							},
							{
								"astId": 52,
								"contract": "contract/tokenvesting.sol:TokenVesting",
								"label": "_amount",
								"offset": 0,
								"slot": "4",
								"type": "t_uint256"
							},
							{
								"astId": 54,
								"contract": "contract/tokenvesting.sol:TokenVesting",
								"label": "_tokesReleased",
								"offset": 0,
								"slot": "5",
								"type": "t_uint256"
							},
							{
								"astId": 56,
								"contract": "contract/tokenvesting.sol:TokenVesting",
								"label": "_isValid",
								"offset": 0,
								"slot": "6",
								"type": "t_bool"
							}
						],
						"numberOfBytes": "224"
					},
					"t_uint256": {
						"encoding": "inplace",
						"label": "uint256",
						"numberOfBytes": "32"
					}
				}
			},
			"userdoc": {
				"kind": "user",
				"methods": {},
				"version": 1
			}
		}
	}
}