{
	"contract/tokenvesting.sol": {
		"TokenVesting": {
			"abi": [
				{
					"inputs": [
						{
							"internalType": "address",
							"name": "_token",
							"type": "address"
						}
					],
					"stateMutability": "nonpayable",
					"type": "constructor"
				},
				{
					"anonymous": false,
					"inputs": [
						{
							"indexed": true,
							"internalType": "address",
							"name": "previousOwner",
							"type": "address"
						},
						{
							"indexed": true,
							"internalType": "address",
							"name": "newOwner",
							"type": "address"
						}
					],
					"name": "OwnershipTransferred",
					"type": "event"
				},
				{
					"anonymous": false,
					"inputs": [
						{
							"components": [
								{
									"internalType": "address",
									"name": "beneficiary",
									"type": "address"
								},
								{
									"internalType": "uint256",
									"name": "startTime",
									"type": "uint256"
								},
								{
									"internalType": "uint256",
									"name": "duration",
									"type": "uint256"
								},
								{
									"internalType": "uint256",
									"name": "releaseSchedule",
									"type": "uint256"
								},
								{
									"internalType": "uint256",
									"name": "amount",
									"type": "uint256"
								},
								{
									"internalType": "uint256",
									"name": "tokensReleased",
									"type": "uint256"
								},
								{
									"internalType": "bool",
									"name": "isValid",
									"type": "bool"
								}
							],
							"indexed": false,
							"internalType": "struct TokenVesting.vestingScheme",
							"name": "",
							"type": "tuple"
						}
					],
					"name": "VestingSchemeCreation",
					"type": "event"
				},
				{
					"stateMutability": "payable",
					"type": "fallback"
				},
				{
					"inputs": [
						{
							"internalType": "address",
							"name": "_beneficiary",
							"type": "address"
						},
						{
							"internalType": "uint256",
							"name": "_startTime",
							"type": "uint256"
						},
						{
							"internalType": "uint256",
							"name": "_duration",
							"type": "uint256"
						},
						{
							"internalType": "uint256",
							"name": "_releaseSchedule",
							"type": "uint256"
						},
						{
							"internalType": "uint256",
							"name": "_amount",
							"type": "uint256"
						}
					],
					"name": "createVestingScheme",
					"outputs": [],
					"stateMutability": "nonpayable",
					"type": "function"
				},
				{
					"inputs": [],
					"name": "getBeneficiarySchemeCountLimit",
					"outputs": [
						{
							"internalType": "uint256",
							"name": "",
							"type": "uint256"
						}
					],
					"stateMutability": "view",
					"type": "function"
				},
				{
					"inputs": [],
					"name": "getSchemeCount",
					"outputs": [
						{
							"internalType": "uint256",
							"name": "",
							"type": "uint256"
						}
					],
					"stateMutability": "view",
					"type": "function"
				},
				{
					"inputs": [],
					"name": "getSchemeCountLimit",
					"outputs": [
						{
							"internalType": "uint256",
							"name": "",
							"type": "uint256"
						}
					],
					"stateMutability": "view",
					"type": "function"
				},
				{
					"inputs": [
						{
							"internalType": "uint256",
							"name": "_schemeId",
							"type": "uint256"
						}
					],
					"name": "getUnvestedAmountById",
					"outputs": [
						{
							"internalType": "uint256",
							"name": "",
							"type": "uint256"
						}
					],
					"stateMutability": "view",
					"type": "function"
				},
				{
					"inputs": [
						{
							"internalType": "uint256",
							"name": "_schemeId",
							"type": "uint256"
						}
					],
					"name": "getVestingSchemeById",
					"outputs": [
						{
							"components": [
								{
									"internalType": "address",
									"name": "beneficiary",
									"type": "address"
								},
								{
									"internalType": "uint256",
									"name": "startTime",
									"type": "uint256"
								},
								{
									"internalType": "uint256",
									"name": "duration",
									"type": "uint256"
								},
								{
									"internalType": "uint256",
									"name": "releaseSchedule",
									"type": "uint256"
								},
								{
									"internalType": "uint256",
									"name": "amount",
									"type": "uint256"
								},
								{
									"internalType": "uint256",
									"name": "tokensReleased",
									"type": "uint256"
								},
								{
									"internalType": "bool",
									"name": "isValid",
									"type": "bool"
								}
							],
							"internalType": "struct TokenVesting.vestingScheme",
							"name": "",
							"type": "tuple"
						}
					],
					"stateMutability": "view",
					"type": "function"
				},
				{
					"inputs": [],
					"name": "owner",
					"outputs": [
						{
							"internalType": "address",
							"name": "",
							"type": "address"
						}
					],
					"stateMutability": "view",
					"type": "function"
				},
				{
					"inputs": [
						{
							"internalType": "uint256",
							"name": "_schemeId",
							"type": "uint256"
						},
						{
							"internalType": "uint256",
							"name": "_amount",
							"type": "uint256"
						}
					],
					"name": "releaseTokens",
					"outputs": [],
					"stateMutability": "nonpayable",
					"type": "function"
				},
				{
					"inputs": [],
					"name": "renounceOwnership",
					"outputs": [],
					"stateMutability": "nonpayable",
					"type": "function"
				},
				{
					"inputs": [
						{
							"internalType": "uint256",
							"name": "_beneficiarySchemeCountLimit",
							"type": "uint256"
						}
					],
					"name": "setBeneficiarySchemeCountLimit",
					"outputs": [],
					"stateMutability": "nonpayable",
					"type": "function"
				},
				{
					"inputs": [
						{
							"internalType": "uint256",
							"name": "_schemeCountLimit",
							"type": "uint256"
						}
					],
					"name": "setSchemeCountLimit",
					"outputs": [],
					"stateMutability": "nonpayable",
					"type": "function"
				},
				{
					"inputs": [
						{
							"internalType": "address",
							"name": "newOwner",
							"type": "address"
						}
					],
					"name": "transferOwnership",
					"outputs": [],
					"stateMutability": "nonpayable",
					"type": "function"
				},
				{
					"stateMutability": "payable",
					"type": "receive"
				}
			],
			"devdoc": {
				"kind": "dev",
				"methods": {
					"owner()": {
						"details": "Returns the address of the current owner."
					},
					"renounceOwnership()": {
						"details": "Leaves the contract without owner. It will not be possible to call `onlyOwner` functions anymore. Can only be called by the current owner. NOTE: Renouncing ownership will leave the contract without an owner, thereby removing any functionality that is only available to the owner."
					},
					"transferOwnership(address)": {
						"details": "Transfers ownership of the contract to a new account (`newOwner`). Can only be called by the current owner."
					}
				},
				"version": 1
			},
			"evm": {
				"assembly": "    /* \"contract/tokenvesting.sol\":522:5178  contract TokenVesting is Ownable {\r... */\n  mstore(0x40, 0x80)\n    /* \"contract/tokenvesting.sol\":1302:1471  constructor (address _token) notZeroAddress (_token) {\r... */\n  callvalue\n  dup1\n  iszero\n  tag_1\n  jumpi\n  0x00\n  dup1\n  revert\ntag_1:\n  pop\n  mload(0x40)\n  sub(codesize, bytecodeSize)\n  dup1\n  bytecodeSize\n  dup4\n  codecopy\n  dup2\n  dup2\n  add\n  0x40\n  mstore\n  dup2\n  add\n  swap1\n  tag_2\n  swap2\n  swap1\n  tag_3\n  jump\t// in\ntag_2:\n    /* \"https://github.com/OpenZeppelin/openzeppelin-contracts/blob/master/contracts/access/Ownable.sol\":921:953  _transferOwnership(_msgSender()) */\n  tag_7\n    /* \"https://github.com/OpenZeppelin/openzeppelin-contracts/blob/master/contracts/access/Ownable.sol\":940:952  _msgSender() */\n  tag_8\n    /* \"https://github.com/OpenZeppelin/openzeppelin-contracts/blob/master/contracts/access/Ownable.sol\":940:950  _msgSender */\n  shl(0x20, tag_9)\n    /* \"https://github.com/OpenZeppelin/openzeppelin-contracts/blob/master/contracts/access/Ownable.sol\":940:952  _msgSender() */\n  0x20\n  shr\n  jump\t// in\ntag_8:\n    /* \"https://github.com/OpenZeppelin/openzeppelin-contracts/blob/master/contracts/access/Ownable.sol\":921:939  _transferOwnership */\n  shl(0x20, tag_10)\n    /* \"https://github.com/OpenZeppelin/openzeppelin-contracts/blob/master/contracts/access/Ownable.sol\":921:953  _transferOwnership(_msgSender()) */\n  0x20\n  shr\n  jump\t// in\ntag_7:\n    /* \"contract/tokenvesting.sol\":1347:1353  _token */\n  dup1\n    /* \"contract/tokenvesting.sol\":1271:1272  0 */\n  0x00\n    /* \"contract/tokenvesting.sol\":1253:1273  _token != address(0) */\n  0xffffffffffffffffffffffffffffffffffffffff\n  and\n    /* \"contract/tokenvesting.sol\":1253:1259  _token */\n  dup2\n    /* \"contract/tokenvesting.sol\":1253:1273  _token != address(0) */\n  0xffffffffffffffffffffffffffffffffffffffff\n  and\n  eq\n  iszero\n    /* \"contract/tokenvesting.sol\":1244:1274  require (_token != address(0)) */\n  tag_12\n  jumpi\n  0x00\n  dup1\n  revert\ntag_12:\n    /* \"contract/tokenvesting.sol\":1382:1388  _token */\n  dup2\n    /* \"contract/tokenvesting.sol\":1366:1371  token */\n  0x01\n  0x00\n    /* \"contract/tokenvesting.sol\":1366:1389  token = IERC20 (_token) */\n  0x0100\n  exp\n  dup2\n  sload\n  dup2\n  0xffffffffffffffffffffffffffffffffffffffff\n  mul\n  not\n  and\n  swap1\n  dup4\n  0xffffffffffffffffffffffffffffffffffffffff\n  and\n  mul\n  or\n  swap1\n  sstore\n  pop\n    /* \"contract/tokenvesting.sol\":1419:1421  10 */\n  0x0a\n    /* \"contract/tokenvesting.sol\":1400:1416  schemeCountLimit */\n  0x03\n    /* \"contract/tokenvesting.sol\":1400:1421  schemeCountLimit = 10 */\n  dup2\n  swap1\n  sstore\n  pop\n    /* \"contract/tokenvesting.sol\":1462:1463  1 */\n  0x01\n    /* \"contract/tokenvesting.sol\":1432:1459  beneficiarySchemeCountLimit */\n  0x05\n    /* \"contract/tokenvesting.sol\":1432:1463  beneficiarySchemeCountLimit = 1 */\n  dup2\n  swap1\n  sstore\n  pop\n    /* \"contract/tokenvesting.sol\":1302:1471  constructor (address _token) notZeroAddress (_token) {\r... */\n  pop\n  pop\n    /* \"contract/tokenvesting.sol\":522:5178  contract TokenVesting is Ownable {\r... */\n  jump(tag_14)\n    /* \"https://github.com/OpenZeppelin/openzeppelin-contracts/blob/master/contracts/utils/Context.sol\":640:736  function _msgSender() internal view virtual returns (address) {... */\ntag_9:\n    /* \"https://github.com/OpenZeppelin/openzeppelin-contracts/blob/master/contracts/utils/Context.sol\":693:700  address */\n  0x00\n    /* \"https://github.com/OpenZeppelin/openzeppelin-contracts/blob/master/contracts/utils/Context.sol\":719:729  msg.sender */\n  caller\n    /* \"https://github.com/OpenZeppelin/openzeppelin-contracts/blob/master/contracts/utils/Context.sol\":712:729  return msg.sender */\n  swap1\n  pop\n    /* \"https://github.com/OpenZeppelin/openzeppelin-contracts/blob/master/contracts/utils/Context.sol\":640:736  function _msgSender() internal view virtual returns (address) {... */\n  swap1\n  jump\t// out\n    /* \"https://github.com/OpenZeppelin/openzeppelin-contracts/blob/master/contracts/access/Ownable.sol\":2270:2457  function _transferOwnership(address newOwner) internal virtual {... */\ntag_10:\n    /* \"https://github.com/OpenZeppelin/openzeppelin-contracts/blob/master/contracts/access/Ownable.sol\":2343:2359  address oldOwner */\n  0x00\n    /* \"https://github.com/OpenZeppelin/openzeppelin-contracts/blob/master/contracts/access/Ownable.sol\":2362:2368  _owner */\n  dup1\n  0x00\n  swap1\n  sload\n  swap1\n  0x0100\n  exp\n  swap1\n  div\n  0xffffffffffffffffffffffffffffffffffffffff\n  and\n    /* \"https://github.com/OpenZeppelin/openzeppelin-contracts/blob/master/contracts/access/Ownable.sol\":2343:2368  address oldOwner = _owner */\n  swap1\n  pop\n    /* \"https://github.com/OpenZeppelin/openzeppelin-contracts/blob/master/contracts/access/Ownable.sol\":2387:2395  newOwner */\n  dup2\n    /* \"https://github.com/OpenZeppelin/openzeppelin-contracts/blob/master/contracts/access/Ownable.sol\":2378:2384  _owner */\n  0x00\n  dup1\n    /* \"https://github.com/OpenZeppelin/openzeppelin-contracts/blob/master/contracts/access/Ownable.sol\":2378:2395  _owner = newOwner */\n  0x0100\n  exp\n  dup2\n  sload\n  dup2\n  0xffffffffffffffffffffffffffffffffffffffff\n  mul\n  not\n  and\n  swap1\n  dup4\n  0xffffffffffffffffffffffffffffffffffffffff\n  and\n  mul\n  or\n  swap1\n  sstore\n  pop\n    /* \"https://github.com/OpenZeppelin/openzeppelin-contracts/blob/master/contracts/access/Ownable.sol\":2441:2449  newOwner */\n  dup2\n    /* \"https://github.com/OpenZeppelin/openzeppelin-contracts/blob/master/contracts/access/Ownable.sol\":2410:2450  OwnershipTransferred(oldOwner, newOwner) */\n  0xffffffffffffffffffffffffffffffffffffffff\n  and\n    /* \"https://github.com/OpenZeppelin/openzeppelin-contracts/blob/master/contracts/access/Ownable.sol\":2431:2439  oldOwner */\n  dup2\n    /* \"https://github.com/OpenZeppelin/openzeppelin-contracts/blob/master/contracts/access/Ownable.sol\":2410:2450  OwnershipTransferred(oldOwner, newOwner) */\n  0xffffffffffffffffffffffffffffffffffffffff\n  and\n  0x8be0079c531659141344cd1fd0a4f28419497f9722a3daafe3b4186f6b6457e0\n  mload(0x40)\n  mload(0x40)\n  dup1\n  swap2\n  sub\n  swap1\n  log3\n    /* \"https://github.com/OpenZeppelin/openzeppelin-contracts/blob/master/contracts/access/Ownable.sol\":2270:2457  function _transferOwnership(address newOwner) internal virtual {... */\n  pop\n  pop\n  jump\t// out\n    /* \"#utility.yul\":7:150   */\ntag_18:\n  0x00\n    /* \"#utility.yul\":95:101   */\n  dup2\n    /* \"#utility.yul\":89:102   */\n  mload\n    /* \"#utility.yul\":80:102   */\n  swap1\n  pop\n    /* \"#utility.yul\":111:144   */\n  tag_20\n    /* \"#utility.yul\":138:143   */\n  dup2\n    /* \"#utility.yul\":111:144   */\n  tag_21\n  jump\t// in\ntag_20:\n    /* \"#utility.yul\":70:150   */\n  swap3\n  swap2\n  pop\n  pop\n  jump\t// out\n    /* \"#utility.yul\":156:440   */\ntag_3:\n  0x00\n    /* \"#utility.yul\":275:277   */\n  0x20\n    /* \"#utility.yul\":263:272   */\n  dup3\n    /* \"#utility.yul\":254:261   */\n  dup5\n    /* \"#utility.yul\":250:273   */\n  sub\n    /* \"#utility.yul\":246:278   */\n  slt\n    /* \"#utility.yul\":243:245   */\n  iszero\n  tag_23\n  jumpi\n    /* \"#utility.yul\":291:292   */\n  0x00\n    /* \"#utility.yul\":288:289   */\n  dup1\n    /* \"#utility.yul\":281:293   */\n  revert\n    /* \"#utility.yul\":243:245   */\ntag_23:\n    /* \"#utility.yul\":334:335   */\n  0x00\n    /* \"#utility.yul\":359:423   */\n  tag_24\n    /* \"#utility.yul\":415:422   */\n  dup5\n    /* \"#utility.yul\":406:412   */\n  dup3\n    /* \"#utility.yul\":395:404   */\n  dup6\n    /* \"#utility.yul\":391:413   */\n  add\n    /* \"#utility.yul\":359:423   */\n  tag_18\n  jump\t// in\ntag_24:\n    /* \"#utility.yul\":349:423   */\n  swap2\n  pop\n    /* \"#utility.yul\":305:433   */\n  pop\n    /* \"#utility.yul\":233:440   */\n  swap3\n  swap2\n  pop\n  pop\n  jump\t// out\n    /* \"#utility.yul\":446:542   */\ntag_25:\n  0x00\n    /* \"#utility.yul\":512:536   */\n  tag_27\n    /* \"#utility.yul\":530:535   */\n  dup3\n    /* \"#utility.yul\":512:536   */\n  tag_28\n  jump\t// in\ntag_27:\n    /* \"#utility.yul\":501:536   */\n  swap1\n  pop\n    /* \"#utility.yul\":491:542   */\n  swap2\n  swap1\n  pop\n  jump\t// out\n    /* \"#utility.yul\":548:674   */\ntag_28:\n  0x00\n    /* \"#utility.yul\":625:667   */\n  0xffffffffffffffffffffffffffffffffffffffff\n    /* \"#utility.yul\":618:623   */\n  dup3\n    /* \"#utility.yul\":614:668   */\n  and\n    /* \"#utility.yul\":603:668   */\n  swap1\n  pop\n    /* \"#utility.yul\":593:674   */\n  swap2\n  swap1\n  pop\n  jump\t// out\n    /* \"#utility.yul\":680:802   */\ntag_21:\n    /* \"#utility.yul\":753:777   */\n  tag_31\n    /* \"#utility.yul\":771:776   */\n  dup2\n    /* \"#utility.yul\":753:777   */\n  tag_25\n  jump\t// in\ntag_31:\n    /* \"#utility.yul\":746:751   */\n  dup2\n    /* \"#utility.yul\":743:778   */\n  eq\n    /* \"#utility.yul\":733:735   */\n  tag_32\n  jumpi\n    /* \"#utility.yul\":792:793   */\n  0x00\n    /* \"#utility.yul\":789:790   */\n  dup1\n    /* \"#utility.yul\":782:794   */\n  revert\n    /* \"#utility.yul\":733:735   */\ntag_32:\n    /* \"#utility.yul\":723:802   */\n  pop\n  jump\t// out\n    /* \"contract/tokenvesting.sol\":522:5178  contract TokenVesting is Ownable {\r... */\ntag_14:\n  dataSize(sub_0)\n  dup1\n  dataOffset(sub_0)\n  0x00\n  codecopy\n  0x00\n  return\nstop\n\nsub_0: assembly {\n        /* \"contract/tokenvesting.sol\":522:5178  contract TokenVesting is Ownable {\r... */\n      mstore(0x40, 0x80)\n      jumpi(tag_1, lt(calldatasize, 0x04))\n      shr(0xe0, calldataload(0x00))\n      dup1\n      0x8446464e\n      gt\n      tag_15\n      jumpi\n      dup1\n      0x8446464e\n      eq\n      tag_9\n      jumpi\n      dup1\n      0x8da5cb5b\n      eq\n      tag_10\n      jumpi\n      dup1\n      0x9c42ad76\n      eq\n      tag_11\n      jumpi\n      dup1\n      0xc93a7f6e\n      eq\n      tag_12\n      jumpi\n      dup1\n      0xdecb4abc\n      eq\n      tag_13\n      jumpi\n      dup1\n      0xf2fde38b\n      eq\n      tag_14\n      jumpi\n      jump(tag_2)\n    tag_15:\n      dup1\n      0x110809c7\n      eq\n      tag_3\n      jumpi\n      dup1\n      0x11e1512d\n      eq\n      tag_4\n      jumpi\n      dup1\n      0x1a360f35\n      eq\n      tag_5\n      jumpi\n      dup1\n      0x3f4dd268\n      eq\n      tag_6\n      jumpi\n      dup1\n      0x715018a6\n      eq\n      tag_7\n      jumpi\n      dup1\n      0x78651b42\n      eq\n      tag_8\n      jumpi\n      jump(tag_2)\n    tag_1:\n      jumpi(tag_2, calldatasize)\n      stop\n    tag_2:\n      stop\n        /* \"contract/tokenvesting.sol\":2755:2880  function setSchemeCountLimit (uint _schemeCountLimit) public onlyOwner{\r... */\n    tag_3:\n      callvalue\n      dup1\n      iszero\n      tag_20\n      jumpi\n      0x00\n      dup1\n      revert\n    tag_20:\n      pop\n      tag_21\n      0x04\n      dup1\n      calldatasize\n      sub\n      dup2\n      add\n      swap1\n      tag_22\n      swap2\n      swap1\n      tag_23\n      jump\t// in\n    tag_22:\n      tag_24\n      jump\t// in\n    tag_21:\n      stop\n        /* \"contract/tokenvesting.sol\":2888:3058  function setBeneficiarySchemeCountLimit (uint _beneficiarySchemeCountLimit) public onlyOwner {\r... */\n    tag_4:\n      callvalue\n      dup1\n      iszero\n      tag_25\n      jumpi\n      0x00\n      dup1\n      revert\n    tag_25:\n      pop\n      tag_26\n      0x04\n      dup1\n      calldatasize\n      sub\n      dup2\n      add\n      swap1\n      tag_27\n      swap2\n      swap1\n      tag_23\n      jump\t// in\n    tag_27:\n      tag_28\n      jump\t// in\n    tag_26:\n      stop\n        /* \"contract/tokenvesting.sol\":2536:2642  function getSchemeCountLimit () external view returns (uint256) {\r... */\n    tag_5:\n      callvalue\n      dup1\n      iszero\n      tag_29\n      jumpi\n      0x00\n      dup1\n      revert\n    tag_29:\n      pop\n      tag_30\n      tag_31\n      jump\t// in\n    tag_30:\n      mload(0x40)\n      tag_32\n      swap2\n      swap1\n      tag_33\n      jump\t// in\n    tag_32:\n      mload(0x40)\n      dup1\n      swap2\n      sub\n      swap1\n      return\n        /* \"contract/tokenvesting.sol\":4182:4861  function releaseTokens (\r... */\n    tag_6:\n      callvalue\n      dup1\n      iszero\n      tag_34\n      jumpi\n      0x00\n      dup1\n      revert\n    tag_34:\n      pop\n      tag_35\n      0x04\n      dup1\n      calldatasize\n      sub\n      dup2\n      add\n      swap1\n      tag_36\n      swap2\n      swap1\n      tag_37\n      jump\t// in\n    tag_36:\n      tag_38\n      jump\t// in\n    tag_35:\n      stop\n        /* \"https://github.com/OpenZeppelin/openzeppelin-contracts/blob/master/contracts/access/Ownable.sol\":1668:1769  function renounceOwnership() public virtual onlyOwner {... */\n    tag_7:\n      callvalue\n      dup1\n      iszero\n      tag_39\n      jumpi\n      0x00\n      dup1\n      revert\n    tag_39:\n      pop\n      tag_40\n      tag_41\n      jump\t// in\n    tag_40:\n      stop\n        /* \"contract/tokenvesting.sol\":2650:2746  function getSchemeCount () external view returns (uint256) {\r... */\n    tag_8:\n      callvalue\n      dup1\n      iszero\n      tag_42\n      jumpi\n      0x00\n      dup1\n      revert\n    tag_42:\n      pop\n      tag_43\n      tag_44\n      jump\t// in\n    tag_43:\n      mload(0x40)\n      tag_45\n      swap2\n      swap1\n      tag_33\n      jump\t// in\n    tag_45:\n      mload(0x40)\n      dup1\n      swap2\n      sub\n      swap1\n      return\n        /* \"contract/tokenvesting.sol\":3066:4174  function createVestingScheme (\r... */\n    tag_9:\n      callvalue\n      dup1\n      iszero\n      tag_46\n      jumpi\n      0x00\n      dup1\n      revert\n    tag_46:\n      pop\n      tag_47\n      0x04\n      dup1\n      calldatasize\n      sub\n      dup2\n      add\n      swap1\n      tag_48\n      swap2\n      swap1\n      tag_49\n      jump\t// in\n    tag_48:\n      tag_50\n      jump\t// in\n    tag_47:\n      stop\n        /* \"https://github.com/OpenZeppelin/openzeppelin-contracts/blob/master/contracts/access/Ownable.sol\":1036:1121  function owner() public view virtual returns (address) {... */\n    tag_10:\n      callvalue\n      dup1\n      iszero\n      tag_51\n      jumpi\n      0x00\n      dup1\n      revert\n    tag_51:\n      pop\n      tag_52\n      tag_53\n      jump\t// in\n    tag_52:\n      mload(0x40)\n      tag_54\n      swap2\n      swap1\n      tag_55\n      jump\t// in\n    tag_54:\n      mload(0x40)\n      dup1\n      swap2\n      sub\n      swap1\n      return\n        /* \"contract/tokenvesting.sol\":2065:2528  function getUnvestedAmountById (uint256 _schemeId) external view returns (uint256) {\r... */\n    tag_11:\n      callvalue\n      dup1\n      iszero\n      tag_56\n      jumpi\n      0x00\n      dup1\n      revert\n    tag_56:\n      pop\n      tag_57\n      0x04\n      dup1\n      calldatasize\n      sub\n      dup2\n      add\n      swap1\n      tag_58\n      swap2\n      swap1\n      tag_23\n      jump\t// in\n    tag_58:\n      tag_59\n      jump\t// in\n    tag_57:\n      mload(0x40)\n      tag_60\n      swap2\n      swap1\n      tag_33\n      jump\t// in\n    tag_60:\n      mload(0x40)\n      dup1\n      swap2\n      sub\n      swap1\n      return\n        /* \"contract/tokenvesting.sol\":1921:2049  function getBeneficiarySchemeCountLimit () external view returns (uint256) {\r... */\n    tag_12:\n      callvalue\n      dup1\n      iszero\n      tag_61\n      jumpi\n      0x00\n      dup1\n      revert\n    tag_61:\n      pop\n      tag_62\n      tag_63\n      jump\t// in\n    tag_62:\n      mload(0x40)\n      tag_64\n      swap2\n      swap1\n      tag_33\n      jump\t// in\n    tag_64:\n      mload(0x40)\n      dup1\n      swap2\n      sub\n      swap1\n      return\n        /* \"contract/tokenvesting.sol\":1554:1913  function getVestingSchemeById (uint _schemeId) \r... */\n    tag_13:\n      callvalue\n      dup1\n      iszero\n      tag_65\n      jumpi\n      0x00\n      dup1\n      revert\n    tag_65:\n      pop\n      tag_66\n      0x04\n      dup1\n      calldatasize\n      sub\n      dup2\n      add\n      swap1\n      tag_67\n      swap2\n      swap1\n      tag_23\n      jump\t// in\n    tag_67:\n      tag_68\n      jump\t// in\n    tag_66:\n      mload(0x40)\n      tag_69\n      swap2\n      swap1\n      tag_70\n      jump\t// in\n    tag_69:\n      mload(0x40)\n      dup1\n      swap2\n      sub\n      swap1\n      return\n        /* \"https://github.com/OpenZeppelin/openzeppelin-contracts/blob/master/contracts/access/Ownable.sol\":1918:2116  function transferOwnership(address newOwner) public virtual onlyOwner {... */\n    tag_14:\n      callvalue\n      dup1\n      iszero\n      tag_71\n      jumpi\n      0x00\n      dup1\n      revert\n    tag_71:\n      pop\n      tag_72\n      0x04\n      dup1\n      calldatasize\n      sub\n      dup2\n      add\n      swap1\n      tag_73\n      swap2\n      swap1\n      tag_74\n      jump\t// in\n    tag_73:\n      tag_75\n      jump\t// in\n    tag_72:\n      stop\n        /* \"contract/tokenvesting.sol\":2755:2880  function setSchemeCountLimit (uint _schemeCountLimit) public onlyOwner{\r... */\n    tag_24:\n        /* \"https://github.com/OpenZeppelin/openzeppelin-contracts/blob/master/contracts/access/Ownable.sol\":1259:1271  _msgSender() */\n      tag_77\n        /* \"https://github.com/OpenZeppelin/openzeppelin-contracts/blob/master/contracts/access/Ownable.sol\":1259:1269  _msgSender */\n      tag_78\n        /* \"https://github.com/OpenZeppelin/openzeppelin-contracts/blob/master/contracts/access/Ownable.sol\":1259:1271  _msgSender() */\n      jump\t// in\n    tag_77:\n        /* \"https://github.com/OpenZeppelin/openzeppelin-contracts/blob/master/contracts/access/Ownable.sol\":1248:1271  owner() == _msgSender() */\n      0xffffffffffffffffffffffffffffffffffffffff\n      and\n        /* \"https://github.com/OpenZeppelin/openzeppelin-contracts/blob/master/contracts/access/Ownable.sol\":1248:1255  owner() */\n      tag_79\n        /* \"https://github.com/OpenZeppelin/openzeppelin-contracts/blob/master/contracts/access/Ownable.sol\":1248:1253  owner */\n      tag_53\n        /* \"https://github.com/OpenZeppelin/openzeppelin-contracts/blob/master/contracts/access/Ownable.sol\":1248:1255  owner() */\n      jump\t// in\n    tag_79:\n        /* \"https://github.com/OpenZeppelin/openzeppelin-contracts/blob/master/contracts/access/Ownable.sol\":1248:1271  owner() == _msgSender() */\n      0xffffffffffffffffffffffffffffffffffffffff\n      and\n      eq\n        /* \"https://github.com/OpenZeppelin/openzeppelin-contracts/blob/master/contracts/access/Ownable.sol\":1240:1308  require(owner() == _msgSender(), \"Ownable: caller is not the owner\") */\n      tag_80\n      jumpi\n      mload(0x40)\n      0x08c379a000000000000000000000000000000000000000000000000000000000\n      dup2\n      mstore\n      0x04\n      add\n      tag_81\n      swap1\n      tag_82\n      jump\t// in\n    tag_81:\n      mload(0x40)\n      dup1\n      swap2\n      sub\n      swap1\n      revert\n    tag_80:\n        /* \"contract/tokenvesting.sol\":2855:2872  _schemeCountLimit */\n      dup1\n        /* \"contract/tokenvesting.sol\":2836:2852  schemeCountLimit */\n      0x03\n        /* \"contract/tokenvesting.sol\":2836:2872  schemeCountLimit = _schemeCountLimit */\n      dup2\n      swap1\n      sstore\n      pop\n        /* \"contract/tokenvesting.sol\":2755:2880  function setSchemeCountLimit (uint _schemeCountLimit) public onlyOwner{\r... */\n      pop\n      jump\t// out\n        /* \"contract/tokenvesting.sol\":2888:3058  function setBeneficiarySchemeCountLimit (uint _beneficiarySchemeCountLimit) public onlyOwner {\r... */\n    tag_28:\n        /* \"https://github.com/OpenZeppelin/openzeppelin-contracts/blob/master/contracts/access/Ownable.sol\":1259:1271  _msgSender() */\n      tag_85\n        /* \"https://github.com/OpenZeppelin/openzeppelin-contracts/blob/master/contracts/access/Ownable.sol\":1259:1269  _msgSender */\n      tag_78\n        /* \"https://github.com/OpenZeppelin/openzeppelin-contracts/blob/master/contracts/access/Ownable.sol\":1259:1271  _msgSender() */\n      jump\t// in\n    tag_85:\n        /* \"https://github.com/OpenZeppelin/openzeppelin-contracts/blob/master/contracts/access/Ownable.sol\":1248:1271  owner() == _msgSender() */\n      0xffffffffffffffffffffffffffffffffffffffff\n      and\n        /* \"https://github.com/OpenZeppelin/openzeppelin-contracts/blob/master/contracts/access/Ownable.sol\":1248:1255  owner() */\n      tag_86\n        /* \"https://github.com/OpenZeppelin/openzeppelin-contracts/blob/master/contracts/access/Ownable.sol\":1248:1253  owner */\n      tag_53\n        /* \"https://github.com/OpenZeppelin/openzeppelin-contracts/blob/master/contracts/access/Ownable.sol\":1248:1255  owner() */\n      jump\t// in\n    tag_86:\n        /* \"https://github.com/OpenZeppelin/openzeppelin-contracts/blob/master/contracts/access/Ownable.sol\":1248:1271  owner() == _msgSender() */\n      0xffffffffffffffffffffffffffffffffffffffff\n      and\n      eq\n        /* \"https://github.com/OpenZeppelin/openzeppelin-contracts/blob/master/contracts/access/Ownable.sol\":1240:1308  require(owner() == _msgSender(), \"Ownable: caller is not the owner\") */\n      tag_87\n      jumpi\n      mload(0x40)\n      0x08c379a000000000000000000000000000000000000000000000000000000000\n      dup2\n      mstore\n      0x04\n      add\n      tag_88\n      swap1\n      tag_82\n      jump\t// in\n    tag_88:\n      mload(0x40)\n      dup1\n      swap2\n      sub\n      swap1\n      revert\n    tag_87:\n        /* \"contract/tokenvesting.sol\":3022:3050  _beneficiarySchemeCountLimit */\n      dup1\n        /* \"contract/tokenvesting.sol\":2992:3019  beneficiarySchemeCountLimit */\n      0x05\n        /* \"contract/tokenvesting.sol\":2992:3050  beneficiarySchemeCountLimit = _beneficiarySchemeCountLimit */\n      dup2\n      swap1\n      sstore\n      pop\n        /* \"contract/tokenvesting.sol\":2888:3058  function setBeneficiarySchemeCountLimit (uint _beneficiarySchemeCountLimit) public onlyOwner {\r... */\n      pop\n      jump\t// out\n        /* \"contract/tokenvesting.sol\":2536:2642  function getSchemeCountLimit () external view returns (uint256) {\r... */\n    tag_31:\n        /* \"contract/tokenvesting.sol\":2591:2598  uint256 */\n      0x00\n        /* \"contract/tokenvesting.sol\":2618:2634  schemeCountLimit */\n      sload(0x03)\n        /* \"contract/tokenvesting.sol\":2611:2634  return schemeCountLimit */\n      swap1\n      pop\n        /* \"contract/tokenvesting.sol\":2536:2642  function getSchemeCountLimit () external view returns (uint256) {\r... */\n      swap1\n      jump\t// out\n        /* \"contract/tokenvesting.sol\":4182:4861  function releaseTokens (\r... */\n    tag_38:\n        /* \"contract/tokenvesting.sol\":4329:4333  true */\n      0x01\n        /* \"contract/tokenvesting.sol\":4300:4333  schemes[schemeId].isValid == true */\n      iszero\n      iszero\n        /* \"contract/tokenvesting.sol\":4300:4307  schemes */\n      0x06\n        /* \"contract/tokenvesting.sol\":4300:4317  schemes[schemeId] */\n      0x00\n        /* \"contract/tokenvesting.sol\":4308:4316  schemeId */\n      sload(0x02)\n        /* \"contract/tokenvesting.sol\":4300:4317  schemes[schemeId] */\n      dup2\n      mstore\n      0x20\n      add\n      swap1\n      dup2\n      mstore\n      0x20\n      add\n      0x00\n      keccak256\n        /* \"contract/tokenvesting.sol\":4300:4325  schemes[schemeId].isValid */\n      0x06\n      add\n      0x00\n      swap1\n      sload\n      swap1\n      0x0100\n      exp\n      swap1\n      div\n      0xff\n      and\n        /* \"contract/tokenvesting.sol\":4300:4333  schemes[schemeId].isValid == true */\n      iszero\n      iszero\n      eq\n        /* \"contract/tokenvesting.sol\":4291:4334  require (schemes[schemeId].isValid == true) */\n      tag_92\n      jumpi\n      0x00\n      dup1\n      revert\n    tag_92:\n        /* \"contract/tokenvesting.sol\":4377:4384  owner() */\n      tag_93\n        /* \"contract/tokenvesting.sol\":4377:4382  owner */\n      tag_53\n        /* \"contract/tokenvesting.sol\":4377:4384  owner() */\n      jump\t// in\n    tag_93:\n        /* \"contract/tokenvesting.sol\":4361:4384  _msgSender() == owner() */\n      0xffffffffffffffffffffffffffffffffffffffff\n      and\n        /* \"contract/tokenvesting.sol\":4361:4373  _msgSender() */\n      tag_94\n        /* \"contract/tokenvesting.sol\":4361:4371  _msgSender */\n      tag_78\n        /* \"contract/tokenvesting.sol\":4361:4373  _msgSender() */\n      jump\t// in\n    tag_94:\n        /* \"contract/tokenvesting.sol\":4361:4384  _msgSender() == owner() */\n      0xffffffffffffffffffffffffffffffffffffffff\n      and\n      eq\n        /* \"contract/tokenvesting.sol\":4361:4433  _msgSender() == owner() || _msgSender() == schemes[schemeId].beneficiary */\n      dup1\n      tag_95\n      jumpi\n      pop\n        /* \"contract/tokenvesting.sol\":4404:4411  schemes */\n      0x06\n        /* \"contract/tokenvesting.sol\":4404:4421  schemes[schemeId] */\n      0x00\n        /* \"contract/tokenvesting.sol\":4412:4420  schemeId */\n      sload(0x02)\n        /* \"contract/tokenvesting.sol\":4404:4421  schemes[schemeId] */\n      dup2\n      mstore\n      0x20\n      add\n      swap1\n      dup2\n      mstore\n      0x20\n      add\n      0x00\n      keccak256\n        /* \"contract/tokenvesting.sol\":4404:4433  schemes[schemeId].beneficiary */\n      0x00\n      add\n      0x00\n      swap1\n      sload\n      swap1\n      0x0100\n      exp\n      swap1\n      div\n      0xffffffffffffffffffffffffffffffffffffffff\n      and\n        /* \"contract/tokenvesting.sol\":4388:4433  _msgSender() == schemes[schemeId].beneficiary */\n      0xffffffffffffffffffffffffffffffffffffffff\n      and\n        /* \"contract/tokenvesting.sol\":4388:4400  _msgSender() */\n      tag_96\n        /* \"contract/tokenvesting.sol\":4388:4398  _msgSender */\n      tag_78\n        /* \"contract/tokenvesting.sol\":4388:4400  _msgSender() */\n      jump\t// in\n    tag_96:\n        /* \"contract/tokenvesting.sol\":4388:4433  _msgSender() == schemes[schemeId].beneficiary */\n      0xffffffffffffffffffffffffffffffffffffffff\n      and\n      eq\n        /* \"contract/tokenvesting.sol\":4361:4433  _msgSender() == owner() || _msgSender() == schemes[schemeId].beneficiary */\n    tag_95:\n        /* \"contract/tokenvesting.sol\":4352:4487  require (_msgSender() == owner() || _msgSender() == schemes[schemeId].beneficiary, \"TokenVesting: Caller must be owner or beneficiary\") */\n      tag_97\n      jumpi\n      mload(0x40)\n      0x08c379a000000000000000000000000000000000000000000000000000000000\n      dup2\n      mstore\n      0x04\n      add\n      tag_98\n      swap1\n      tag_99\n      jump\t// in\n    tag_98:\n      mload(0x40)\n      dup1\n      swap2\n      sub\n      swap1\n      revert\n    tag_97:\n        /* \"contract/tokenvesting.sol\":4500:4527  vestingScheme memory scheme */\n      0x00\n        /* \"contract/tokenvesting.sol\":4530:4537  schemes */\n      0x06\n        /* \"contract/tokenvesting.sol\":4530:4547  schemes[schemeId] */\n      0x00\n        /* \"contract/tokenvesting.sol\":4538:4546  schemeId */\n      sload(0x02)\n        /* \"contract/tokenvesting.sol\":4530:4547  schemes[schemeId] */\n      dup2\n      mstore\n      0x20\n      add\n      swap1\n      dup2\n      mstore\n      0x20\n      add\n      0x00\n      keccak256\n        /* \"contract/tokenvesting.sol\":4500:4547  vestingScheme memory scheme = schemes[schemeId] */\n      mload(0x40)\n      dup1\n      0xe0\n      add\n      0x40\n      mstore\n      swap1\n      dup2\n      0x00\n      dup3\n      add\n      0x00\n      swap1\n      sload\n      swap1\n      0x0100\n      exp\n      swap1\n      div\n      0xffffffffffffffffffffffffffffffffffffffff\n      and\n      0xffffffffffffffffffffffffffffffffffffffff\n      and\n      0xffffffffffffffffffffffffffffffffffffffff\n      and\n      dup2\n      mstore\n      0x20\n      add\n      0x01\n      dup3\n      add\n      sload\n      dup2\n      mstore\n      0x20\n      add\n      0x02\n      dup3\n      add\n      sload\n      dup2\n      mstore\n      0x20\n      add\n      0x03\n      dup3\n      add\n      sload\n      dup2\n      mstore\n      0x20\n      add\n      0x04\n      dup3\n      add\n      sload\n      dup2\n      mstore\n      0x20\n      add\n      0x05\n      dup3\n      add\n      sload\n      dup2\n      mstore\n      0x20\n      add\n      0x06\n      dup3\n      add\n      0x00\n      swap1\n      sload\n      swap1\n      0x0100\n      exp\n      swap1\n      div\n      0xff\n      and\n      iszero\n      iszero\n      iszero\n      iszero\n      dup2\n      mstore\n      pop\n      pop\n      swap1\n      pop\n        /* \"contract/tokenvesting.sol\":4765:4799  scheme.tokensReleased.add(_amount) */\n      tag_100\n        /* \"contract/tokenvesting.sol\":4791:4798  _amount */\n      dup3\n        /* \"contract/tokenvesting.sol\":4765:4771  scheme */\n      dup3\n        /* \"contract/tokenvesting.sol\":4765:4786  scheme.tokensReleased */\n      0xa0\n      add\n      mload\n        /* \"contract/tokenvesting.sol\":4765:4790  scheme.tokensReleased.add */\n      tag_101\n      swap1\n        /* \"contract/tokenvesting.sol\":4765:4799  scheme.tokensReleased.add(_amount) */\n      swap2\n      swap1\n      0xffffffff\n      and\n      jump\t// in\n    tag_100:\n        /* \"contract/tokenvesting.sol\":4741:4747  scheme */\n      dup2\n        /* \"contract/tokenvesting.sol\":4741:4762  scheme.tokensReleased */\n      0xa0\n      add\n        /* \"contract/tokenvesting.sol\":4741:4799  scheme.tokensReleased = scheme.tokensReleased.add(_amount) */\n      dup2\n      dup2\n      mstore\n      pop\n      pop\n        /* \"contract/tokenvesting.sol\":4810:4815  token */\n      0x01\n      0x00\n      swap1\n      sload\n      swap1\n      0x0100\n      exp\n      swap1\n      div\n      0xffffffffffffffffffffffffffffffffffffffff\n      and\n        /* \"contract/tokenvesting.sol\":4810:4824  token.transfer */\n      0xffffffffffffffffffffffffffffffffffffffff\n      and\n      0xa9059cbb\n        /* \"contract/tokenvesting.sol\":4825:4831  scheme */\n      dup3\n        /* \"contract/tokenvesting.sol\":4825:4843  scheme.beneficiary */\n      0x00\n      add\n      mload\n        /* \"contract/tokenvesting.sol\":4845:4852  _amount */\n      dup5\n        /* \"contract/tokenvesting.sol\":4810:4853  token.transfer(scheme.beneficiary, _amount) */\n      mload(0x40)\n      dup4\n      0xffffffff\n      and\n      0xe0\n      shl\n      dup2\n      mstore\n      0x04\n      add\n      tag_102\n      swap3\n      swap2\n      swap1\n      tag_103\n      jump\t// in\n    tag_102:\n      0x20\n      mload(0x40)\n      dup1\n      dup4\n      sub\n      dup2\n      0x00\n      dup8\n      dup1\n      extcodesize\n      iszero\n      dup1\n      iszero\n      tag_104\n      jumpi\n      0x00\n      dup1\n      revert\n    tag_104:\n      pop\n      gas\n      call\n      iszero\n      dup1\n      iszero\n      tag_106\n      jumpi\n      returndatasize\n      0x00\n      dup1\n      returndatacopy\n      revert(0x00, returndatasize)\n    tag_106:\n      pop\n      pop\n      pop\n      pop\n      mload(0x40)\n      returndatasize\n      not(0x1f)\n      0x1f\n      dup3\n      add\n      and\n      dup3\n      add\n      dup1\n      0x40\n      mstore\n      pop\n      dup2\n      add\n      swap1\n      tag_107\n      swap2\n      swap1\n      tag_108\n      jump\t// in\n    tag_107:\n      pop\n        /* \"contract/tokenvesting.sol\":4182:4861  function releaseTokens (\r... */\n      pop\n      pop\n      pop\n      jump\t// out\n        /* \"https://github.com/OpenZeppelin/openzeppelin-contracts/blob/master/contracts/access/Ownable.sol\":1668:1769  function renounceOwnership() public virtual onlyOwner {... */\n    tag_41:\n        /* \"https://github.com/OpenZeppelin/openzeppelin-contracts/blob/master/contracts/access/Ownable.sol\":1259:1271  _msgSender() */\n      tag_110\n        /* \"https://github.com/OpenZeppelin/openzeppelin-contracts/blob/master/contracts/access/Ownable.sol\":1259:1269  _msgSender */\n      tag_78\n        /* \"https://github.com/OpenZeppelin/openzeppelin-contracts/blob/master/contracts/access/Ownable.sol\":1259:1271  _msgSender() */\n      jump\t// in\n    tag_110:\n        /* \"https://github.com/OpenZeppelin/openzeppelin-contracts/blob/master/contracts/access/Ownable.sol\":1248:1271  owner() == _msgSender() */\n      0xffffffffffffffffffffffffffffffffffffffff\n      and\n        /* \"https://github.com/OpenZeppelin/openzeppelin-contracts/blob/master/contracts/access/Ownable.sol\":1248:1255  owner() */\n      tag_111\n        /* \"https://github.com/OpenZeppelin/openzeppelin-contracts/blob/master/contracts/access/Ownable.sol\":1248:1253  owner */\n      tag_53\n        /* \"https://github.com/OpenZeppelin/openzeppelin-contracts/blob/master/contracts/access/Ownable.sol\":1248:1255  owner() */\n      jump\t// in\n    tag_111:\n        /* \"https://github.com/OpenZeppelin/openzeppelin-contracts/blob/master/contracts/access/Ownable.sol\":1248:1271  owner() == _msgSender() */\n      0xffffffffffffffffffffffffffffffffffffffff\n      and\n      eq\n        /* \"https://github.com/OpenZeppelin/openzeppelin-contracts/blob/master/contracts/access/Ownable.sol\":1240:1308  require(owner() == _msgSender(), \"Ownable: caller is not the owner\") */\n      tag_112\n      jumpi\n      mload(0x40)\n      0x08c379a000000000000000000000000000000000000000000000000000000000\n      dup2\n      mstore\n      0x04\n      add\n      tag_113\n      swap1\n      tag_82\n      jump\t// in\n    tag_113:\n      mload(0x40)\n      dup1\n      swap2\n      sub\n      swap1\n      revert\n    tag_112:\n        /* \"https://github.com/OpenZeppelin/openzeppelin-contracts/blob/master/contracts/access/Ownable.sol\":1732:1762  _transferOwnership(address(0)) */\n      tag_115\n        /* \"https://github.com/OpenZeppelin/openzeppelin-contracts/blob/master/contracts/access/Ownable.sol\":1759:1760  0 */\n      0x00\n        /* \"https://github.com/OpenZeppelin/openzeppelin-contracts/blob/master/contracts/access/Ownable.sol\":1732:1750  _transferOwnership */\n      tag_116\n        /* \"https://github.com/OpenZeppelin/openzeppelin-contracts/blob/master/contracts/access/Ownable.sol\":1732:1762  _transferOwnership(address(0)) */\n      jump\t// in\n    tag_115:\n        /* \"https://github.com/OpenZeppelin/openzeppelin-contracts/blob/master/contracts/access/Ownable.sol\":1668:1769  function renounceOwnership() public virtual onlyOwner {... */\n      jump\t// out\n        /* \"contract/tokenvesting.sol\":2650:2746  function getSchemeCount () external view returns (uint256) {\r... */\n    tag_44:\n        /* \"contract/tokenvesting.sol\":2700:2707  uint256 */\n      0x00\n        /* \"contract/tokenvesting.sol\":2727:2738  schemeCount */\n      sload(0x04)\n        /* \"contract/tokenvesting.sol\":2720:2738  return schemeCount */\n      swap1\n      pop\n        /* \"contract/tokenvesting.sol\":2650:2746  function getSchemeCount () external view returns (uint256) {\r... */\n      swap1\n      jump\t// out\n        /* \"contract/tokenvesting.sol\":3066:4174  function createVestingScheme (\r... */\n    tag_50:\n        /* \"https://github.com/OpenZeppelin/openzeppelin-contracts/blob/master/contracts/access/Ownable.sol\":1259:1271  _msgSender() */\n      tag_119\n        /* \"https://github.com/OpenZeppelin/openzeppelin-contracts/blob/master/contracts/access/Ownable.sol\":1259:1269  _msgSender */\n      tag_78\n        /* \"https://github.com/OpenZeppelin/openzeppelin-contracts/blob/master/contracts/access/Ownable.sol\":1259:1271  _msgSender() */\n      jump\t// in\n    tag_119:\n        /* \"https://github.com/OpenZeppelin/openzeppelin-contracts/blob/master/contracts/access/Ownable.sol\":1248:1271  owner() == _msgSender() */\n      0xffffffffffffffffffffffffffffffffffffffff\n      and\n        /* \"https://github.com/OpenZeppelin/openzeppelin-contracts/blob/master/contracts/access/Ownable.sol\":1248:1255  owner() */\n      tag_120\n        /* \"https://github.com/OpenZeppelin/openzeppelin-contracts/blob/master/contracts/access/Ownable.sol\":1248:1253  owner */\n      tag_53\n        /* \"https://github.com/OpenZeppelin/openzeppelin-contracts/blob/master/contracts/access/Ownable.sol\":1248:1255  owner() */\n      jump\t// in\n    tag_120:\n        /* \"https://github.com/OpenZeppelin/openzeppelin-contracts/blob/master/contracts/access/Ownable.sol\":1248:1271  owner() == _msgSender() */\n      0xffffffffffffffffffffffffffffffffffffffff\n      and\n      eq\n        /* \"https://github.com/OpenZeppelin/openzeppelin-contracts/blob/master/contracts/access/Ownable.sol\":1240:1308  require(owner() == _msgSender(), \"Ownable: caller is not the owner\") */\n      tag_121\n      jumpi\n      mload(0x40)\n      0x08c379a000000000000000000000000000000000000000000000000000000000\n      dup2\n      mstore\n      0x04\n      add\n      tag_122\n      swap1\n      tag_82\n      jump\t// in\n    tag_122:\n      mload(0x40)\n      dup1\n      swap2\n      sub\n      swap1\n      revert\n    tag_121:\n        /* \"contract/tokenvesting.sol\":3314:3315  0 */\n      0x00\n        /* \"contract/tokenvesting.sol\":3290:3316  _beneficiary != address(0) */\n      0xffffffffffffffffffffffffffffffffffffffff\n      and\n        /* \"contract/tokenvesting.sol\":3290:3302  _beneficiary */\n      dup6\n        /* \"contract/tokenvesting.sol\":3290:3316  _beneficiary != address(0) */\n      0xffffffffffffffffffffffffffffffffffffffff\n      and\n      eq\n      iszero\n        /* \"contract/tokenvesting.sol\":3281:3373  require (_beneficiary != address(0), \"TokenVesting: Cannot add zero address as beneficiary\") */\n      tag_124\n      jumpi\n      mload(0x40)\n      0x08c379a000000000000000000000000000000000000000000000000000000000\n      dup2\n      mstore\n      0x04\n      add\n      tag_125\n      swap1\n      tag_126\n      jump\t// in\n    tag_125:\n      mload(0x40)\n      dup1\n      swap2\n      sub\n      swap1\n      revert\n    tag_124:\n        /* \"contract/tokenvesting.sol\":3405:3406  0 */\n      0x00\n        /* \"contract/tokenvesting.sol\":3393:3402  _duration */\n      dup4\n        /* \"contract/tokenvesting.sol\":3393:3406  _duration > 0 */\n      gt\n        /* \"contract/tokenvesting.sol\":3384:3465  require (_duration > 0, \"TokenVesting: Vesting period must be greater than zero\") */\n      tag_127\n      jumpi\n      mload(0x40)\n      0x08c379a000000000000000000000000000000000000000000000000000000000\n      dup2\n      mstore\n      0x04\n      add\n      tag_128\n      swap1\n      tag_129\n      jump\t// in\n    tag_128:\n      mload(0x40)\n      dup1\n      swap2\n      sub\n      swap1\n      revert\n    tag_127:\n        /* \"contract/tokenvesting.sol\":3495:3496  0 */\n      0x00\n        /* \"contract/tokenvesting.sol\":3485:3492  _amount */\n      dup2\n        /* \"contract/tokenvesting.sol\":3485:3496  _amount > 0 */\n      gt\n        /* \"contract/tokenvesting.sol\":3476:3553  require (_amount > 0, \"TokenVesting: Vestable amount must be greater than 0\") */\n      tag_130\n      jumpi\n      mload(0x40)\n      0x08c379a000000000000000000000000000000000000000000000000000000000\n      dup2\n      mstore\n      0x04\n      add\n      tag_131\n      swap1\n      tag_132\n      jump\t// in\n    tag_131:\n      mload(0x40)\n      dup1\n      swap2\n      sub\n      swap1\n      revert\n    tag_130:\n        /* \"contract/tokenvesting.sol\":3617:3644  beneficiarySchemeCountLimit */\n      sload(0x05)\n        /* \"contract/tokenvesting.sol\":3573:3593  beneficiarySchemeIds */\n      0x07\n        /* \"contract/tokenvesting.sol\":3573:3607  beneficiarySchemeIds[_beneficiary] */\n      0x00\n        /* \"contract/tokenvesting.sol\":3594:3606  _beneficiary */\n      dup8\n        /* \"contract/tokenvesting.sol\":3573:3607  beneficiarySchemeIds[_beneficiary] */\n      0xffffffffffffffffffffffffffffffffffffffff\n      and\n      0xffffffffffffffffffffffffffffffffffffffff\n      and\n      dup2\n      mstore\n      0x20\n      add\n      swap1\n      dup2\n      mstore\n      0x20\n      add\n      0x00\n      keccak256\n        /* \"contract/tokenvesting.sol\":3573:3614  beneficiarySchemeIds[_beneficiary].length */\n      dup1\n      sload\n      swap1\n      pop\n        /* \"contract/tokenvesting.sol\":3573:3644  beneficiarySchemeIds[_beneficiary].length < beneficiarySchemeCountLimit */\n      lt\n        /* \"contract/tokenvesting.sol\":3564:3715  require (beneficiarySchemeIds[_beneficiary].length < beneficiarySchemeCountLimit, \"TokenVesting: Scheme count for this beneficiary has reached limit.\") */\n      tag_133\n      jumpi\n      mload(0x40)\n      0x08c379a000000000000000000000000000000000000000000000000000000000\n      dup2\n      mstore\n      0x04\n      add\n      tag_134\n      swap1\n      tag_135\n      jump\t// in\n    tag_134:\n      mload(0x40)\n      dup1\n      swap2\n      sub\n      swap1\n      revert\n    tag_133:\n        /* \"contract/tokenvesting.sol\":3728:3755  vestingScheme memory scheme */\n      0x00\n        /* \"contract/tokenvesting.sol\":3758:3916  vestingScheme (\r... */\n      mload(0x40)\n      dup1\n      0xe0\n      add\n      0x40\n      mstore\n      dup1\n        /* \"contract/tokenvesting.sol\":3784:3796  _beneficiary */\n      dup8\n        /* \"contract/tokenvesting.sol\":3758:3916  vestingScheme (\r... */\n      0xffffffffffffffffffffffffffffffffffffffff\n      and\n      dup2\n      mstore\n      0x20\n      add\n        /* \"contract/tokenvesting.sol\":3808:3818  _startTime */\n      dup7\n        /* \"contract/tokenvesting.sol\":3758:3916  vestingScheme (\r... */\n      dup2\n      mstore\n      0x20\n      add\n        /* \"contract/tokenvesting.sol\":3830:3839  _duration */\n      dup6\n        /* \"contract/tokenvesting.sol\":3758:3916  vestingScheme (\r... */\n      dup2\n      mstore\n      0x20\n      add\n        /* \"contract/tokenvesting.sol\":3851:3867  _releaseSchedule */\n      dup5\n        /* \"contract/tokenvesting.sol\":3758:3916  vestingScheme (\r... */\n      dup2\n      mstore\n      0x20\n      add\n        /* \"contract/tokenvesting.sol\":3879:3886  _amount */\n      dup4\n        /* \"contract/tokenvesting.sol\":3758:3916  vestingScheme (\r... */\n      dup2\n      mstore\n      0x20\n      add\n        /* \"contract/tokenvesting.sol\":3898:3899  0 */\n      0x00\n        /* \"contract/tokenvesting.sol\":3758:3916  vestingScheme (\r... */\n      dup2\n      mstore\n      0x20\n      add\n        /* \"contract/tokenvesting.sol\":3911:3915  true */\n      0x01\n        /* \"contract/tokenvesting.sol\":3758:3916  vestingScheme (\r... */\n      iszero\n      iszero\n      dup2\n      mstore\n      pop\n        /* \"contract/tokenvesting.sol\":3728:3916  vestingScheme memory scheme = vestingScheme (\r... */\n      swap1\n      pop\n        /* \"contract/tokenvesting.sol\":3940:3988  _calculateNewSchemeId(_beneficiary, schemeCount) */\n      tag_136\n        /* \"contract/tokenvesting.sol\":3962:3974  _beneficiary */\n      dup7\n        /* \"contract/tokenvesting.sol\":3976:3987  schemeCount */\n      sload(0x04)\n        /* \"contract/tokenvesting.sol\":3940:3961  _calculateNewSchemeId */\n      tag_137\n        /* \"contract/tokenvesting.sol\":3940:3988  _calculateNewSchemeId(_beneficiary, schemeCount) */\n      jump\t// in\n    tag_136:\n        /* \"contract/tokenvesting.sol\":3929:3937  schemeId */\n      0x02\n        /* \"contract/tokenvesting.sol\":3929:3988  schemeId = _calculateNewSchemeId(_beneficiary, schemeCount) */\n      dup2\n      swap1\n      sstore\n      pop\n        /* \"contract/tokenvesting.sol\":3999:4019  beneficiarySchemeIds */\n      0x07\n        /* \"contract/tokenvesting.sol\":3999:4039  beneficiarySchemeIds[scheme.beneficiary] */\n      0x00\n        /* \"contract/tokenvesting.sol\":4020:4026  scheme */\n      dup3\n        /* \"contract/tokenvesting.sol\":4020:4038  scheme.beneficiary */\n      0x00\n      add\n      mload\n        /* \"contract/tokenvesting.sol\":3999:4039  beneficiarySchemeIds[scheme.beneficiary] */\n      0xffffffffffffffffffffffffffffffffffffffff\n      and\n      0xffffffffffffffffffffffffffffffffffffffff\n      and\n      dup2\n      mstore\n      0x20\n      add\n      swap1\n      dup2\n      mstore\n      0x20\n      add\n      0x00\n      keccak256\n        /* \"contract/tokenvesting.sol\":4045:4053  schemeId */\n      sload(0x02)\n        /* \"contract/tokenvesting.sol\":3999:4054  beneficiarySchemeIds[scheme.beneficiary].push(schemeId) */\n      swap1\n      dup1\n      0x01\n      dup2\n      sload\n      add\n      dup1\n      dup3\n      sstore\n      dup1\n      swap2\n      pop\n      pop\n      0x01\n      swap1\n      sub\n      swap1\n      0x00\n      mstore\n      keccak256(0x00, 0x20)\n      add\n      0x00\n      swap1\n      swap2\n      swap1\n      swap2\n      swap1\n      swap2\n      pop\n      sstore\n        /* \"contract/tokenvesting.sol\":4085:4091  scheme */\n      dup1\n        /* \"contract/tokenvesting.sol\":4065:4072  schemes */\n      0x06\n        /* \"contract/tokenvesting.sol\":4065:4082  schemes[schemeId] */\n      0x00\n        /* \"contract/tokenvesting.sol\":4073:4081  schemeId */\n      sload(0x02)\n        /* \"contract/tokenvesting.sol\":4065:4082  schemes[schemeId] */\n      dup2\n      mstore\n      0x20\n      add\n      swap1\n      dup2\n      mstore\n      0x20\n      add\n      0x00\n      keccak256\n        /* \"contract/tokenvesting.sol\":4065:4091  schemes[schemeId] = scheme */\n      0x00\n      dup3\n      add\n      mload\n      dup2\n      0x00\n      add\n      exp(0x0100, 0x00)\n      dup2\n      sload\n      dup2\n      0xffffffffffffffffffffffffffffffffffffffff\n      mul\n      not\n      and\n      swap1\n      dup4\n      0xffffffffffffffffffffffffffffffffffffffff\n      and\n      mul\n      or\n      swap1\n      sstore\n      pop\n      0x20\n      dup3\n      add\n      mload\n      dup2\n      0x01\n      add\n      sstore\n      0x40\n      dup3\n      add\n      mload\n      dup2\n      0x02\n      add\n      sstore\n      0x60\n      dup3\n      add\n      mload\n      dup2\n      0x03\n      add\n      sstore\n      0x80\n      dup3\n      add\n      mload\n      dup2\n      0x04\n      add\n      sstore\n      0xa0\n      dup3\n      add\n      mload\n      dup2\n      0x05\n      add\n      sstore\n      0xc0\n      dup3\n      add\n      mload\n      dup2\n      0x06\n      add\n      exp(0x0100, 0x00)\n      dup2\n      sload\n      dup2\n      0xff\n      mul\n      not\n      and\n      swap1\n      dup4\n      iszero\n      iszero\n      mul\n      or\n      swap1\n      sstore\n      pop\n      swap1\n      pop\n      pop\n        /* \"contract/tokenvesting.sol\":4102:4120  schemeCount.add(1) */\n      tag_139\n        /* \"contract/tokenvesting.sol\":4118:4119  1 */\n      0x01\n        /* \"contract/tokenvesting.sol\":4102:4113  schemeCount */\n      sload(0x04)\n        /* \"contract/tokenvesting.sol\":4102:4117  schemeCount.add */\n      tag_101\n      swap1\n        /* \"contract/tokenvesting.sol\":4102:4120  schemeCount.add(1) */\n      swap2\n      swap1\n      0xffffffff\n      and\n      jump\t// in\n    tag_139:\n      pop\n        /* \"contract/tokenvesting.sol\":4136:4166  VestingSchemeCreation (scheme) */\n      0x03ac17a064e5f9f8a942a4e1b3d07157fa74128806fab9b656a6b986182ffad1\n        /* \"contract/tokenvesting.sol\":4159:4165  scheme */\n      dup2\n        /* \"contract/tokenvesting.sol\":4136:4166  VestingSchemeCreation (scheme) */\n      mload(0x40)\n      tag_140\n      swap2\n      swap1\n      tag_70\n      jump\t// in\n    tag_140:\n      mload(0x40)\n      dup1\n      swap2\n      sub\n      swap1\n      log1\n        /* \"https://github.com/OpenZeppelin/openzeppelin-contracts/blob/master/contracts/access/Ownable.sol\":1318:1319  _ */\n      pop\n        /* \"contract/tokenvesting.sol\":3066:4174  function createVestingScheme (\r... */\n      pop\n      pop\n      pop\n      pop\n      pop\n      jump\t// out\n        /* \"https://github.com/OpenZeppelin/openzeppelin-contracts/blob/master/contracts/access/Ownable.sol\":1036:1121  function owner() public view virtual returns (address) {... */\n    tag_53:\n        /* \"https://github.com/OpenZeppelin/openzeppelin-contracts/blob/master/contracts/access/Ownable.sol\":1082:1089  address */\n      0x00\n        /* \"https://github.com/OpenZeppelin/openzeppelin-contracts/blob/master/contracts/access/Ownable.sol\":1108:1114  _owner */\n      dup1\n      0x00\n      swap1\n      sload\n      swap1\n      0x0100\n      exp\n      swap1\n      div\n      0xffffffffffffffffffffffffffffffffffffffff\n      and\n        /* \"https://github.com/OpenZeppelin/openzeppelin-contracts/blob/master/contracts/access/Ownable.sol\":1101:1114  return _owner */\n      swap1\n      pop\n        /* \"https://github.com/OpenZeppelin/openzeppelin-contracts/blob/master/contracts/access/Ownable.sol\":1036:1121  function owner() public view virtual returns (address) {... */\n      swap1\n      jump\t// out\n        /* \"contract/tokenvesting.sol\":2065:2528  function getUnvestedAmountById (uint256 _schemeId) external view returns (uint256) {\r... */\n    tag_59:\n        /* \"contract/tokenvesting.sol\":2139:2146  uint256 */\n      0x00\n        /* \"contract/tokenvesting.sol\":2180:2188  schemeId */\n      sload(0x02)\n        /* \"contract/tokenvesting.sol\":2168:2177  _schemeId */\n      dup3\n        /* \"contract/tokenvesting.sol\":2168:2188  _schemeId < schemeId */\n      lt\n        /* \"contract/tokenvesting.sol\":2159:2230  require (_schemeId < schemeId, \"TokenVesting: Scheme Id out of bounds\") */\n      tag_143\n      jumpi\n      mload(0x40)\n      0x08c379a000000000000000000000000000000000000000000000000000000000\n      dup2\n      mstore\n      0x04\n      add\n      tag_144\n      swap1\n      tag_145\n      jump\t// in\n    tag_144:\n      mload(0x40)\n      dup1\n      swap2\n      sub\n      swap1\n      revert\n    tag_143:\n        /* \"contract/tokenvesting.sol\":2280:2284  true */\n      0x01\n        /* \"contract/tokenvesting.sol\":2250:2284  schemes[_schemeId].isValid == true */\n      iszero\n      iszero\n        /* \"contract/tokenvesting.sol\":2250:2257  schemes */\n      0x06\n        /* \"contract/tokenvesting.sol\":2250:2268  schemes[_schemeId] */\n      0x00\n        /* \"contract/tokenvesting.sol\":2258:2267  _schemeId */\n      dup5\n        /* \"contract/tokenvesting.sol\":2250:2268  schemes[_schemeId] */\n      dup2\n      mstore\n      0x20\n      add\n      swap1\n      dup2\n      mstore\n      0x20\n      add\n      0x00\n      keccak256\n        /* \"contract/tokenvesting.sol\":2250:2276  schemes[_schemeId].isValid */\n      0x06\n      add\n      0x00\n      swap1\n      sload\n      swap1\n      0x0100\n      exp\n      swap1\n      div\n      0xff\n      and\n        /* \"contract/tokenvesting.sol\":2250:2284  schemes[_schemeId].isValid == true */\n      iszero\n      iszero\n      eq\n        /* \"contract/tokenvesting.sol\":2241:2353  require (schemes[_schemeId].isValid == true, \"TokenVesting: Vesting Scheme is either deleted or does not exist\") */\n      tag_146\n      jumpi\n      mload(0x40)\n      0x08c379a000000000000000000000000000000000000000000000000000000000\n      dup2\n      mstore\n      0x04\n      add\n      tag_147\n      swap1\n      tag_148\n      jump\t// in\n    tag_147:\n      mload(0x40)\n      dup1\n      swap2\n      sub\n      swap1\n      revert\n    tag_146:\n        /* \"contract/tokenvesting.sol\":2364:2391  vestingScheme memory scheme */\n      0x00\n        /* \"contract/tokenvesting.sol\":2394:2401  schemes */\n      0x06\n        /* \"contract/tokenvesting.sol\":2394:2412  schemes[_schemeId] */\n      0x00\n        /* \"contract/tokenvesting.sol\":2402:2411  _schemeId */\n      dup5\n        /* \"contract/tokenvesting.sol\":2394:2412  schemes[_schemeId] */\n      dup2\n      mstore\n      0x20\n      add\n      swap1\n      dup2\n      mstore\n      0x20\n      add\n      0x00\n      keccak256\n        /* \"contract/tokenvesting.sol\":2364:2412  vestingScheme memory scheme = schemes[_schemeId] */\n      mload(0x40)\n      dup1\n      0xe0\n      add\n      0x40\n      mstore\n      swap1\n      dup2\n      0x00\n      dup3\n      add\n      0x00\n      swap1\n      sload\n      swap1\n      0x0100\n      exp\n      swap1\n      div\n      0xffffffffffffffffffffffffffffffffffffffff\n      and\n      0xffffffffffffffffffffffffffffffffffffffff\n      and\n      0xffffffffffffffffffffffffffffffffffffffff\n      and\n      dup2\n      mstore\n      0x20\n      add\n      0x01\n      dup3\n      add\n      sload\n      dup2\n      mstore\n      0x20\n      add\n      0x02\n      dup3\n      add\n      sload\n      dup2\n      mstore\n      0x20\n      add\n      0x03\n      dup3\n      add\n      sload\n      dup2\n      mstore\n      0x20\n      add\n      0x04\n      dup3\n      add\n      sload\n      dup2\n      mstore\n      0x20\n      add\n      0x05\n      dup3\n      add\n      sload\n      dup2\n      mstore\n      0x20\n      add\n      0x06\n      dup3\n      add\n      0x00\n      swap1\n      sload\n      swap1\n      0x0100\n      exp\n      swap1\n      div\n      0xff\n      and\n      iszero\n      iszero\n      iszero\n      iszero\n      dup2\n      mstore\n      pop\n      pop\n      swap1\n      pop\n        /* \"contract/tokenvesting.sol\":2423:2445  uint256 unvestedAmount */\n      0x00\n        /* \"contract/tokenvesting.sol\":2448:2488  scheme.amount.sub(scheme.tokensReleased) */\n      tag_149\n        /* \"contract/tokenvesting.sol\":2466:2472  scheme */\n      dup3\n        /* \"contract/tokenvesting.sol\":2466:2487  scheme.tokensReleased */\n      0xa0\n      add\n      mload\n        /* \"contract/tokenvesting.sol\":2448:2454  scheme */\n      dup4\n        /* \"contract/tokenvesting.sol\":2448:2461  scheme.amount */\n      0x80\n      add\n      mload\n        /* \"contract/tokenvesting.sol\":2448:2465  scheme.amount.sub */\n      tag_150\n      swap1\n        /* \"contract/tokenvesting.sol\":2448:2488  scheme.amount.sub(scheme.tokensReleased) */\n      swap2\n      swap1\n      0xffffffff\n      and\n      jump\t// in\n    tag_149:\n        /* \"contract/tokenvesting.sol\":2423:2488  uint256 unvestedAmount = scheme.amount.sub(scheme.tokensReleased) */\n      swap1\n      pop\n        /* \"contract/tokenvesting.sol\":2506:2520  unvestedAmount */\n      dup1\n        /* \"contract/tokenvesting.sol\":2499:2520  return unvestedAmount */\n      swap3\n      pop\n      pop\n      pop\n        /* \"contract/tokenvesting.sol\":2065:2528  function getUnvestedAmountById (uint256 _schemeId) external view returns (uint256) {\r... */\n      swap2\n      swap1\n      pop\n      jump\t// out\n        /* \"contract/tokenvesting.sol\":1921:2049  function getBeneficiarySchemeCountLimit () external view returns (uint256) {\r... */\n    tag_63:\n        /* \"contract/tokenvesting.sol\":1987:1994  uint256 */\n      0x00\n        /* \"contract/tokenvesting.sol\":2014:2041  beneficiarySchemeCountLimit */\n      sload(0x05)\n        /* \"contract/tokenvesting.sol\":2007:2041  return beneficiarySchemeCountLimit */\n      swap1\n      pop\n        /* \"contract/tokenvesting.sol\":1921:2049  function getBeneficiarySchemeCountLimit () external view returns (uint256) {\r... */\n      swap1\n      jump\t// out\n        /* \"contract/tokenvesting.sol\":1554:1913  function getVestingSchemeById (uint _schemeId) \r... */\n    tag_68:\n        /* \"contract/tokenvesting.sol\":1642:1662  vestingScheme memory */\n      tag_152\n      tag_153\n      jump\t// in\n    tag_152:\n        /* \"contract/tokenvesting.sol\":1696:1704  schemeId */\n      sload(0x02)\n        /* \"contract/tokenvesting.sol\":1684:1693  _schemeId */\n      dup3\n        /* \"contract/tokenvesting.sol\":1684:1704  _schemeId < schemeId */\n      lt\n        /* \"contract/tokenvesting.sol\":1675:1746  require (_schemeId < schemeId, \"TokenVesting: Scheme Id out of bounds\") */\n      tag_155\n      jumpi\n      mload(0x40)\n      0x08c379a000000000000000000000000000000000000000000000000000000000\n      dup2\n      mstore\n      0x04\n      add\n      tag_156\n      swap1\n      tag_145\n      jump\t// in\n    tag_156:\n      mload(0x40)\n      dup1\n      swap2\n      sub\n      swap1\n      revert\n    tag_155:\n        /* \"contract/tokenvesting.sol\":1796:1800  true */\n      0x01\n        /* \"contract/tokenvesting.sol\":1766:1800  schemes[_schemeId].isValid == true */\n      iszero\n      iszero\n        /* \"contract/tokenvesting.sol\":1766:1773  schemes */\n      0x06\n        /* \"contract/tokenvesting.sol\":1766:1784  schemes[_schemeId] */\n      0x00\n        /* \"contract/tokenvesting.sol\":1774:1783  _schemeId */\n      dup5\n        /* \"contract/tokenvesting.sol\":1766:1784  schemes[_schemeId] */\n      dup2\n      mstore\n      0x20\n      add\n      swap1\n      dup2\n      mstore\n      0x20\n      add\n      0x00\n      keccak256\n        /* \"contract/tokenvesting.sol\":1766:1792  schemes[_schemeId].isValid */\n      0x06\n      add\n      0x00\n      swap1\n      sload\n      swap1\n      0x0100\n      exp\n      swap1\n      div\n      0xff\n      and\n        /* \"contract/tokenvesting.sol\":1766:1800  schemes[_schemeId].isValid == true */\n      iszero\n      iszero\n      eq\n        /* \"contract/tokenvesting.sol\":1757:1869  require (schemes[_schemeId].isValid == true, \"TokenVesting: Vesting Scheme is either deleted or does not exist\") */\n      tag_157\n      jumpi\n      mload(0x40)\n      0x08c379a000000000000000000000000000000000000000000000000000000000\n      dup2\n      mstore\n      0x04\n      add\n      tag_158\n      swap1\n      tag_148\n      jump\t// in\n    tag_158:\n      mload(0x40)\n      dup1\n      swap2\n      sub\n      swap1\n      revert\n    tag_157:\n        /* \"contract/tokenvesting.sol\":1887:1894  schemes */\n      0x06\n        /* \"contract/tokenvesting.sol\":1887:1905  schemes[_schemeId] */\n      0x00\n        /* \"contract/tokenvesting.sol\":1895:1904  _schemeId */\n      dup4\n        /* \"contract/tokenvesting.sol\":1887:1905  schemes[_schemeId] */\n      dup2\n      mstore\n      0x20\n      add\n      swap1\n      dup2\n      mstore\n      0x20\n      add\n      0x00\n      keccak256\n        /* \"contract/tokenvesting.sol\":1880:1905  return schemes[_schemeId] */\n      mload(0x40)\n      dup1\n      0xe0\n      add\n      0x40\n      mstore\n      swap1\n      dup2\n      0x00\n      dup3\n      add\n      0x00\n      swap1\n      sload\n      swap1\n      0x0100\n      exp\n      swap1\n      div\n      0xffffffffffffffffffffffffffffffffffffffff\n      and\n      0xffffffffffffffffffffffffffffffffffffffff\n      and\n      0xffffffffffffffffffffffffffffffffffffffff\n      and\n      dup2\n      mstore\n      0x20\n      add\n      0x01\n      dup3\n      add\n      sload\n      dup2\n      mstore\n      0x20\n      add\n      0x02\n      dup3\n      add\n      sload\n      dup2\n      mstore\n      0x20\n      add\n      0x03\n      dup3\n      add\n      sload\n      dup2\n      mstore\n      0x20\n      add\n      0x04\n      dup3\n      add\n      sload\n      dup2\n      mstore\n      0x20\n      add\n      0x05\n      dup3\n      add\n      sload\n      dup2\n      mstore\n      0x20\n      add\n      0x06\n      dup3\n      add\n      0x00\n      swap1\n      sload\n      swap1\n      0x0100\n      exp\n      swap1\n      div\n      0xff\n      and\n      iszero\n      iszero\n      iszero\n      iszero\n      dup2\n      mstore\n      pop\n      pop\n      swap1\n      pop\n        /* \"contract/tokenvesting.sol\":1554:1913  function getVestingSchemeById (uint _schemeId) \r... */\n      swap2\n      swap1\n      pop\n      jump\t// out\n        /* \"https://github.com/OpenZeppelin/openzeppelin-contracts/blob/master/contracts/access/Ownable.sol\":1918:2116  function transferOwnership(address newOwner) public virtual onlyOwner {... */\n    tag_75:\n        /* \"https://github.com/OpenZeppelin/openzeppelin-contracts/blob/master/contracts/access/Ownable.sol\":1259:1271  _msgSender() */\n      tag_160\n        /* \"https://github.com/OpenZeppelin/openzeppelin-contracts/blob/master/contracts/access/Ownable.sol\":1259:1269  _msgSender */\n      tag_78\n        /* \"https://github.com/OpenZeppelin/openzeppelin-contracts/blob/master/contracts/access/Ownable.sol\":1259:1271  _msgSender() */\n      jump\t// in\n    tag_160:\n        /* \"https://github.com/OpenZeppelin/openzeppelin-contracts/blob/master/contracts/access/Ownable.sol\":1248:1271  owner() == _msgSender() */\n      0xffffffffffffffffffffffffffffffffffffffff\n      and\n        /* \"https://github.com/OpenZeppelin/openzeppelin-contracts/blob/master/contracts/access/Ownable.sol\":1248:1255  owner() */\n      tag_161\n        /* \"https://github.com/OpenZeppelin/openzeppelin-contracts/blob/master/contracts/access/Ownable.sol\":1248:1253  owner */\n      tag_53\n        /* \"https://github.com/OpenZeppelin/openzeppelin-contracts/blob/master/contracts/access/Ownable.sol\":1248:1255  owner() */\n      jump\t// in\n    tag_161:\n        /* \"https://github.com/OpenZeppelin/openzeppelin-contracts/blob/master/contracts/access/Ownable.sol\":1248:1271  owner() == _msgSender() */\n      0xffffffffffffffffffffffffffffffffffffffff\n      and\n      eq\n        /* \"https://github.com/OpenZeppelin/openzeppelin-contracts/blob/master/contracts/access/Ownable.sol\":1240:1308  require(owner() == _msgSender(), \"Ownable: caller is not the owner\") */\n      tag_162\n      jumpi\n      mload(0x40)\n      0x08c379a000000000000000000000000000000000000000000000000000000000\n      dup2\n      mstore\n      0x04\n      add\n      tag_163\n      swap1\n      tag_82\n      jump\t// in\n    tag_163:\n      mload(0x40)\n      dup1\n      swap2\n      sub\n      swap1\n      revert\n    tag_162:\n        /* \"https://github.com/OpenZeppelin/openzeppelin-contracts/blob/master/contracts/access/Ownable.sol\":2026:2027  0 */\n      0x00\n        /* \"https://github.com/OpenZeppelin/openzeppelin-contracts/blob/master/contracts/access/Ownable.sol\":2006:2028  newOwner != address(0) */\n      0xffffffffffffffffffffffffffffffffffffffff\n      and\n        /* \"https://github.com/OpenZeppelin/openzeppelin-contracts/blob/master/contracts/access/Ownable.sol\":2006:2014  newOwner */\n      dup2\n        /* \"https://github.com/OpenZeppelin/openzeppelin-contracts/blob/master/contracts/access/Ownable.sol\":2006:2028  newOwner != address(0) */\n      0xffffffffffffffffffffffffffffffffffffffff\n      and\n      eq\n      iszero\n        /* \"https://github.com/OpenZeppelin/openzeppelin-contracts/blob/master/contracts/access/Ownable.sol\":1998:2071  require(newOwner != address(0), \"Ownable: new owner is the zero address\") */\n      tag_165\n      jumpi\n      mload(0x40)\n      0x08c379a000000000000000000000000000000000000000000000000000000000\n      dup2\n      mstore\n      0x04\n      add\n      tag_166\n      swap1\n      tag_167\n      jump\t// in\n    tag_166:\n      mload(0x40)\n      dup1\n      swap2\n      sub\n      swap1\n      revert\n    tag_165:\n        /* \"https://github.com/OpenZeppelin/openzeppelin-contracts/blob/master/contracts/access/Ownable.sol\":2081:2109  _transferOwnership(newOwner) */\n      tag_168\n        /* \"https://github.com/OpenZeppelin/openzeppelin-contracts/blob/master/contracts/access/Ownable.sol\":2100:2108  newOwner */\n      dup2\n        /* \"https://github.com/OpenZeppelin/openzeppelin-contracts/blob/master/contracts/access/Ownable.sol\":2081:2099  _transferOwnership */\n      tag_116\n        /* \"https://github.com/OpenZeppelin/openzeppelin-contracts/blob/master/contracts/access/Ownable.sol\":2081:2109  _transferOwnership(newOwner) */\n      jump\t// in\n    tag_168:\n        /* \"https://github.com/OpenZeppelin/openzeppelin-contracts/blob/master/contracts/access/Ownable.sol\":1918:2116  function transferOwnership(address newOwner) public virtual onlyOwner {... */\n      pop\n      jump\t// out\n        /* \"https://github.com/OpenZeppelin/openzeppelin-contracts/blob/master/contracts/utils/Context.sol\":640:736  function _msgSender() internal view virtual returns (address) {... */\n    tag_78:\n        /* \"https://github.com/OpenZeppelin/openzeppelin-contracts/blob/master/contracts/utils/Context.sol\":693:700  address */\n      0x00\n        /* \"https://github.com/OpenZeppelin/openzeppelin-contracts/blob/master/contracts/utils/Context.sol\":719:729  msg.sender */\n      caller\n        /* \"https://github.com/OpenZeppelin/openzeppelin-contracts/blob/master/contracts/utils/Context.sol\":712:729  return msg.sender */\n      swap1\n      pop\n        /* \"https://github.com/OpenZeppelin/openzeppelin-contracts/blob/master/contracts/utils/Context.sol\":640:736  function _msgSender() internal view virtual returns (address) {... */\n      swap1\n      jump\t// out\n        /* \"https://github.com/OpenZeppelin/openzeppelin-contracts/blob/master/contracts/utils/math/SafeMath.sol\":2755:2851  function add(uint256 a, uint256 b) internal pure returns (uint256) {... */\n    tag_101:\n        /* \"https://github.com/OpenZeppelin/openzeppelin-contracts/blob/master/contracts/utils/math/SafeMath.sol\":2813:2820  uint256 */\n      0x00\n        /* \"https://github.com/OpenZeppelin/openzeppelin-contracts/blob/master/contracts/utils/math/SafeMath.sol\":2843:2844  b */\n      dup2\n        /* \"https://github.com/OpenZeppelin/openzeppelin-contracts/blob/master/contracts/utils/math/SafeMath.sol\":2839:2840  a */\n      dup4\n        /* \"https://github.com/OpenZeppelin/openzeppelin-contracts/blob/master/contracts/utils/math/SafeMath.sol\":2839:2844  a + b */\n      tag_171\n      swap2\n      swap1\n      tag_172\n      jump\t// in\n    tag_171:\n        /* \"https://github.com/OpenZeppelin/openzeppelin-contracts/blob/master/contracts/utils/math/SafeMath.sol\":2832:2844  return a + b */\n      swap1\n      pop\n        /* \"https://github.com/OpenZeppelin/openzeppelin-contracts/blob/master/contracts/utils/math/SafeMath.sol\":2755:2851  function add(uint256 a, uint256 b) internal pure returns (uint256) {... */\n      swap3\n      swap2\n      pop\n      pop\n      jump\t// out\n        /* \"https://github.com/OpenZeppelin/openzeppelin-contracts/blob/master/contracts/access/Ownable.sol\":2270:2457  function _transferOwnership(address newOwner) internal virtual {... */\n    tag_116:\n        /* \"https://github.com/OpenZeppelin/openzeppelin-contracts/blob/master/contracts/access/Ownable.sol\":2343:2359  address oldOwner */\n      0x00\n        /* \"https://github.com/OpenZeppelin/openzeppelin-contracts/blob/master/contracts/access/Ownable.sol\":2362:2368  _owner */\n      dup1\n      0x00\n      swap1\n      sload\n      swap1\n      0x0100\n      exp\n      swap1\n      div\n      0xffffffffffffffffffffffffffffffffffffffff\n      and\n        /* \"https://github.com/OpenZeppelin/openzeppelin-contracts/blob/master/contracts/access/Ownable.sol\":2343:2368  address oldOwner = _owner */\n      swap1\n      pop\n        /* \"https://github.com/OpenZeppelin/openzeppelin-contracts/blob/master/contracts/access/Ownable.sol\":2387:2395  newOwner */\n      dup2\n        /* \"https://github.com/OpenZeppelin/openzeppelin-contracts/blob/master/contracts/access/Ownable.sol\":2378:2384  _owner */\n      0x00\n      dup1\n        /* \"https://github.com/OpenZeppelin/openzeppelin-contracts/blob/master/contracts/access/Ownable.sol\":2378:2395  _owner = newOwner */\n      0x0100\n      exp\n      dup2\n      sload\n      dup2\n      0xffffffffffffffffffffffffffffffffffffffff\n      mul\n      not\n      and\n      swap1\n      dup4\n      0xffffffffffffffffffffffffffffffffffffffff\n      and\n      mul\n      or\n      swap1\n      sstore\n      pop\n        /* \"https://github.com/OpenZeppelin/openzeppelin-contracts/blob/master/contracts/access/Ownable.sol\":2441:2449  newOwner */\n      dup2\n        /* \"https://github.com/OpenZeppelin/openzeppelin-contracts/blob/master/contracts/access/Ownable.sol\":2410:2450  OwnershipTransferred(oldOwner, newOwner) */\n      0xffffffffffffffffffffffffffffffffffffffff\n      and\n        /* \"https://github.com/OpenZeppelin/openzeppelin-contracts/blob/master/contracts/access/Ownable.sol\":2431:2439  oldOwner */\n      dup2\n        /* \"https://github.com/OpenZeppelin/openzeppelin-contracts/blob/master/contracts/access/Ownable.sol\":2410:2450  OwnershipTransferred(oldOwner, newOwner) */\n      0xffffffffffffffffffffffffffffffffffffffff\n      and\n      0x8be0079c531659141344cd1fd0a4f28419497f9722a3daafe3b4186f6b6457e0\n      mload(0x40)\n      mload(0x40)\n      dup1\n      swap2\n      sub\n      swap1\n      log3\n        /* \"https://github.com/OpenZeppelin/openzeppelin-contracts/blob/master/contracts/access/Ownable.sol\":2270:2457  function _transferOwnership(address newOwner) internal virtual {... */\n      pop\n      pop\n      jump\t// out\n        /* \"contract/tokenvesting.sol\":4873:5070  function _calculateNewSchemeId (address _beneficiary, uint256 index) internal pure returns (uint256) {\r... */\n    tag_137:\n        /* \"contract/tokenvesting.sol\":4965:4972  uint256 */\n      0x00\n        /* \"contract/tokenvesting.sol\":5052:5062  1000000000 */\n      0x3b9aca00\n        /* \"contract/tokenvesting.sol\":5027:5039  _beneficiary */\n      dup4\n        /* \"contract/tokenvesting.sol\":5041:5046  index */\n      dup4\n        /* \"contract/tokenvesting.sol\":5010:5047  abi.encodePacked(_beneficiary, index) */\n      add(0x20, mload(0x40))\n      tag_175\n      swap3\n      swap2\n      swap1\n      tag_176\n      jump\t// in\n    tag_175:\n      mload(0x40)\n      0x20\n      dup2\n      dup4\n      sub\n      sub\n      dup2\n      mstore\n      swap1\n      0x40\n      mstore\n        /* \"contract/tokenvesting.sol\":5000:5048  keccak256(abi.encodePacked(_beneficiary, index)) */\n      dup1\n      mload\n      swap1\n      0x20\n      add\n      keccak256\n        /* \"contract/tokenvesting.sol\":4992:5049  uint256(keccak256(abi.encodePacked(_beneficiary, index))) */\n      0x00\n      shr\n        /* \"contract/tokenvesting.sol\":4992:5062  uint256(keccak256(abi.encodePacked(_beneficiary, index))) % 1000000000 */\n      tag_177\n      swap2\n      swap1\n      tag_178\n      jump\t// in\n    tag_177:\n        /* \"contract/tokenvesting.sol\":4985:5062  return uint256(keccak256(abi.encodePacked(_beneficiary, index))) % 1000000000 */\n      swap1\n      pop\n        /* \"contract/tokenvesting.sol\":4873:5070  function _calculateNewSchemeId (address _beneficiary, uint256 index) internal pure returns (uint256) {\r... */\n      swap3\n      swap2\n      pop\n      pop\n      jump\t// out\n        /* \"https://github.com/OpenZeppelin/openzeppelin-contracts/blob/master/contracts/utils/math/SafeMath.sol\":3122:3218  function sub(uint256 a, uint256 b) internal pure returns (uint256) {... */\n    tag_150:\n        /* \"https://github.com/OpenZeppelin/openzeppelin-contracts/blob/master/contracts/utils/math/SafeMath.sol\":3180:3187  uint256 */\n      0x00\n        /* \"https://github.com/OpenZeppelin/openzeppelin-contracts/blob/master/contracts/utils/math/SafeMath.sol\":3210:3211  b */\n      dup2\n        /* \"https://github.com/OpenZeppelin/openzeppelin-contracts/blob/master/contracts/utils/math/SafeMath.sol\":3206:3207  a */\n      dup4\n        /* \"https://github.com/OpenZeppelin/openzeppelin-contracts/blob/master/contracts/utils/math/SafeMath.sol\":3206:3211  a - b */\n      tag_180\n      swap2\n      swap1\n      tag_181\n      jump\t// in\n    tag_180:\n        /* \"https://github.com/OpenZeppelin/openzeppelin-contracts/blob/master/contracts/utils/math/SafeMath.sol\":3199:3211  return a - b */\n      swap1\n      pop\n        /* \"https://github.com/OpenZeppelin/openzeppelin-contracts/blob/master/contracts/utils/math/SafeMath.sol\":3122:3218  function sub(uint256 a, uint256 b) internal pure returns (uint256) {... */\n      swap3\n      swap2\n      pop\n      pop\n      jump\t// out\n    tag_153:\n      mload(0x40)\n      dup1\n      0xe0\n      add\n      0x40\n      mstore\n      dup1\n      and(0xffffffffffffffffffffffffffffffffffffffff, 0x00)\n      dup2\n      mstore\n      0x20\n      add\n      0x00\n      dup2\n      mstore\n      0x20\n      add\n      0x00\n      dup2\n      mstore\n      0x20\n      add\n      0x00\n      dup2\n      mstore\n      0x20\n      add\n      0x00\n      dup2\n      mstore\n      0x20\n      add\n      0x00\n      dup2\n      mstore\n      0x20\n      add\n      iszero(iszero(0x00))\n      dup2\n      mstore\n      pop\n      swap1\n      jump\t// out\n        /* \"#utility.yul\":7:146   */\n    tag_183:\n      0x00\n        /* \"#utility.yul\":91:97   */\n      dup2\n        /* \"#utility.yul\":78:98   */\n      calldataload\n        /* \"#utility.yul\":69:98   */\n      swap1\n      pop\n        /* \"#utility.yul\":107:140   */\n      tag_185\n        /* \"#utility.yul\":134:139   */\n      dup2\n        /* \"#utility.yul\":107:140   */\n      tag_186\n      jump\t// in\n    tag_185:\n        /* \"#utility.yul\":59:146   */\n      swap3\n      swap2\n      pop\n      pop\n      jump\t// out\n        /* \"#utility.yul\":152:289   */\n    tag_187:\n      0x00\n        /* \"#utility.yul\":237:243   */\n      dup2\n        /* \"#utility.yul\":231:244   */\n      mload\n        /* \"#utility.yul\":222:244   */\n      swap1\n      pop\n        /* \"#utility.yul\":253:283   */\n      tag_189\n        /* \"#utility.yul\":277:282   */\n      dup2\n        /* \"#utility.yul\":253:283   */\n      tag_190\n      jump\t// in\n    tag_189:\n        /* \"#utility.yul\":212:289   */\n      swap3\n      swap2\n      pop\n      pop\n      jump\t// out\n        /* \"#utility.yul\":295:434   */\n    tag_191:\n      0x00\n        /* \"#utility.yul\":379:385   */\n      dup2\n        /* \"#utility.yul\":366:386   */\n      calldataload\n        /* \"#utility.yul\":357:386   */\n      swap1\n      pop\n        /* \"#utility.yul\":395:428   */\n      tag_193\n        /* \"#utility.yul\":422:427   */\n      dup2\n        /* \"#utility.yul\":395:428   */\n      tag_194\n      jump\t// in\n    tag_193:\n        /* \"#utility.yul\":347:434   */\n      swap3\n      swap2\n      pop\n      pop\n      jump\t// out\n        /* \"#utility.yul\":440:702   */\n    tag_74:\n      0x00\n        /* \"#utility.yul\":548:550   */\n      0x20\n        /* \"#utility.yul\":536:545   */\n      dup3\n        /* \"#utility.yul\":527:534   */\n      dup5\n        /* \"#utility.yul\":523:546   */\n      sub\n        /* \"#utility.yul\":519:551   */\n      slt\n        /* \"#utility.yul\":516:518   */\n      iszero\n      tag_196\n      jumpi\n        /* \"#utility.yul\":564:565   */\n      0x00\n        /* \"#utility.yul\":561:562   */\n      dup1\n        /* \"#utility.yul\":554:566   */\n      revert\n        /* \"#utility.yul\":516:518   */\n    tag_196:\n        /* \"#utility.yul\":607:608   */\n      0x00\n        /* \"#utility.yul\":632:685   */\n      tag_197\n        /* \"#utility.yul\":677:684   */\n      dup5\n        /* \"#utility.yul\":668:674   */\n      dup3\n        /* \"#utility.yul\":657:666   */\n      dup6\n        /* \"#utility.yul\":653:675   */\n      add\n        /* \"#utility.yul\":632:685   */\n      tag_183\n      jump\t// in\n    tag_197:\n        /* \"#utility.yul\":622:685   */\n      swap2\n      pop\n        /* \"#utility.yul\":578:695   */\n      pop\n        /* \"#utility.yul\":506:702   */\n      swap3\n      swap2\n      pop\n      pop\n      jump\t// out\n        /* \"#utility.yul\":708:1552   */\n    tag_49:\n      0x00\n      dup1\n      0x00\n      dup1\n      0x00\n        /* \"#utility.yul\":884:887   */\n      0xa0\n        /* \"#utility.yul\":872:881   */\n      dup7\n        /* \"#utility.yul\":863:870   */\n      dup9\n        /* \"#utility.yul\":859:882   */\n      sub\n        /* \"#utility.yul\":855:888   */\n      slt\n        /* \"#utility.yul\":852:854   */\n      iszero\n      tag_199\n      jumpi\n        /* \"#utility.yul\":901:902   */\n      0x00\n        /* \"#utility.yul\":898:899   */\n      dup1\n        /* \"#utility.yul\":891:903   */\n      revert\n        /* \"#utility.yul\":852:854   */\n    tag_199:\n        /* \"#utility.yul\":944:945   */\n      0x00\n        /* \"#utility.yul\":969:1022   */\n      tag_200\n        /* \"#utility.yul\":1014:1021   */\n      dup9\n        /* \"#utility.yul\":1005:1011   */\n      dup3\n        /* \"#utility.yul\":994:1003   */\n      dup10\n        /* \"#utility.yul\":990:1012   */\n      add\n        /* \"#utility.yul\":969:1022   */\n      tag_183\n      jump\t// in\n    tag_200:\n        /* \"#utility.yul\":959:1022   */\n      swap6\n      pop\n        /* \"#utility.yul\":915:1032   */\n      pop\n        /* \"#utility.yul\":1071:1073   */\n      0x20\n        /* \"#utility.yul\":1097:1150   */\n      tag_201\n        /* \"#utility.yul\":1142:1149   */\n      dup9\n        /* \"#utility.yul\":1133:1139   */\n      dup3\n        /* \"#utility.yul\":1122:1131   */\n      dup10\n        /* \"#utility.yul\":1118:1140   */\n      add\n        /* \"#utility.yul\":1097:1150   */\n      tag_191\n      jump\t// in\n    tag_201:\n        /* \"#utility.yul\":1087:1150   */\n      swap5\n      pop\n        /* \"#utility.yul\":1042:1160   */\n      pop\n        /* \"#utility.yul\":1199:1201   */\n      0x40\n        /* \"#utility.yul\":1225:1278   */\n      tag_202\n        /* \"#utility.yul\":1270:1277   */\n      dup9\n        /* \"#utility.yul\":1261:1267   */\n      dup3\n        /* \"#utility.yul\":1250:1259   */\n      dup10\n        /* \"#utility.yul\":1246:1268   */\n      add\n        /* \"#utility.yul\":1225:1278   */\n      tag_191\n      jump\t// in\n    tag_202:\n        /* \"#utility.yul\":1215:1278   */\n      swap4\n      pop\n        /* \"#utility.yul\":1170:1288   */\n      pop\n        /* \"#utility.yul\":1327:1329   */\n      0x60\n        /* \"#utility.yul\":1353:1406   */\n      tag_203\n        /* \"#utility.yul\":1398:1405   */\n      dup9\n        /* \"#utility.yul\":1389:1395   */\n      dup3\n        /* \"#utility.yul\":1378:1387   */\n      dup10\n        /* \"#utility.yul\":1374:1396   */\n      add\n        /* \"#utility.yul\":1353:1406   */\n      tag_191\n      jump\t// in\n    tag_203:\n        /* \"#utility.yul\":1343:1406   */\n      swap3\n      pop\n        /* \"#utility.yul\":1298:1416   */\n      pop\n        /* \"#utility.yul\":1455:1458   */\n      0x80\n        /* \"#utility.yul\":1482:1535   */\n      tag_204\n        /* \"#utility.yul\":1527:1534   */\n      dup9\n        /* \"#utility.yul\":1518:1524   */\n      dup3\n        /* \"#utility.yul\":1507:1516   */\n      dup10\n        /* \"#utility.yul\":1503:1525   */\n      add\n        /* \"#utility.yul\":1482:1535   */\n      tag_191\n      jump\t// in\n    tag_204:\n        /* \"#utility.yul\":1472:1535   */\n      swap2\n      pop\n        /* \"#utility.yul\":1426:1545   */\n      pop\n        /* \"#utility.yul\":842:1552   */\n      swap3\n      swap6\n      pop\n      swap3\n      swap6\n      swap1\n      swap4\n      pop\n      jump\t// out\n        /* \"#utility.yul\":1558:1836   */\n    tag_108:\n      0x00\n        /* \"#utility.yul\":1674:1676   */\n      0x20\n        /* \"#utility.yul\":1662:1671   */\n      dup3\n        /* \"#utility.yul\":1653:1660   */\n      dup5\n        /* \"#utility.yul\":1649:1672   */\n      sub\n        /* \"#utility.yul\":1645:1677   */\n      slt\n        /* \"#utility.yul\":1642:1644   */\n      iszero\n      tag_206\n      jumpi\n        /* \"#utility.yul\":1690:1691   */\n      0x00\n        /* \"#utility.yul\":1687:1688   */\n      dup1\n        /* \"#utility.yul\":1680:1692   */\n      revert\n        /* \"#utility.yul\":1642:1644   */\n    tag_206:\n        /* \"#utility.yul\":1733:1734   */\n      0x00\n        /* \"#utility.yul\":1758:1819   */\n      tag_207\n        /* \"#utility.yul\":1811:1818   */\n      dup5\n        /* \"#utility.yul\":1802:1808   */\n      dup3\n        /* \"#utility.yul\":1791:1800   */\n      dup6\n        /* \"#utility.yul\":1787:1809   */\n      add\n        /* \"#utility.yul\":1758:1819   */\n      tag_187\n      jump\t// in\n    tag_207:\n        /* \"#utility.yul\":1748:1819   */\n      swap2\n      pop\n        /* \"#utility.yul\":1704:1829   */\n      pop\n        /* \"#utility.yul\":1632:1836   */\n      swap3\n      swap2\n      pop\n      pop\n      jump\t// out\n        /* \"#utility.yul\":1842:2104   */\n    tag_23:\n      0x00\n        /* \"#utility.yul\":1950:1952   */\n      0x20\n        /* \"#utility.yul\":1938:1947   */\n      dup3\n        /* \"#utility.yul\":1929:1936   */\n      dup5\n        /* \"#utility.yul\":1925:1948   */\n      sub\n        /* \"#utility.yul\":1921:1953   */\n      slt\n        /* \"#utility.yul\":1918:1920   */\n      iszero\n      tag_209\n      jumpi\n        /* \"#utility.yul\":1966:1967   */\n      0x00\n        /* \"#utility.yul\":1963:1964   */\n      dup1\n        /* \"#utility.yul\":1956:1968   */\n      revert\n        /* \"#utility.yul\":1918:1920   */\n    tag_209:\n        /* \"#utility.yul\":2009:2010   */\n      0x00\n        /* \"#utility.yul\":2034:2087   */\n      tag_210\n        /* \"#utility.yul\":2079:2086   */\n      dup5\n        /* \"#utility.yul\":2070:2076   */\n      dup3\n        /* \"#utility.yul\":2059:2068   */\n      dup6\n        /* \"#utility.yul\":2055:2077   */\n      add\n        /* \"#utility.yul\":2034:2087   */\n      tag_191\n      jump\t// in\n    tag_210:\n        /* \"#utility.yul\":2024:2087   */\n      swap2\n      pop\n        /* \"#utility.yul\":1980:2097   */\n      pop\n        /* \"#utility.yul\":1908:2104   */\n      swap3\n      swap2\n      pop\n      pop\n      jump\t// out\n        /* \"#utility.yul\":2110:2517   */\n    tag_37:\n      0x00\n      dup1\n        /* \"#utility.yul\":2235:2237   */\n      0x40\n        /* \"#utility.yul\":2223:2232   */\n      dup4\n        /* \"#utility.yul\":2214:2221   */\n      dup6\n        /* \"#utility.yul\":2210:2233   */\n      sub\n        /* \"#utility.yul\":2206:2238   */\n      slt\n        /* \"#utility.yul\":2203:2205   */\n      iszero\n      tag_212\n      jumpi\n        /* \"#utility.yul\":2251:2252   */\n      0x00\n        /* \"#utility.yul\":2248:2249   */\n      dup1\n        /* \"#utility.yul\":2241:2253   */\n      revert\n        /* \"#utility.yul\":2203:2205   */\n    tag_212:\n        /* \"#utility.yul\":2294:2295   */\n      0x00\n        /* \"#utility.yul\":2319:2372   */\n      tag_213\n        /* \"#utility.yul\":2364:2371   */\n      dup6\n        /* \"#utility.yul\":2355:2361   */\n      dup3\n        /* \"#utility.yul\":2344:2353   */\n      dup7\n        /* \"#utility.yul\":2340:2362   */\n      add\n        /* \"#utility.yul\":2319:2372   */\n      tag_191\n      jump\t// in\n    tag_213:\n        /* \"#utility.yul\":2309:2372   */\n      swap3\n      pop\n        /* \"#utility.yul\":2265:2382   */\n      pop\n        /* \"#utility.yul\":2421:2423   */\n      0x20\n        /* \"#utility.yul\":2447:2500   */\n      tag_214\n        /* \"#utility.yul\":2492:2499   */\n      dup6\n        /* \"#utility.yul\":2483:2489   */\n      dup3\n        /* \"#utility.yul\":2472:2481   */\n      dup7\n        /* \"#utility.yul\":2468:2490   */\n      add\n        /* \"#utility.yul\":2447:2500   */\n      tag_191\n      jump\t// in\n    tag_214:\n        /* \"#utility.yul\":2437:2500   */\n      swap2\n      pop\n        /* \"#utility.yul\":2392:2510   */\n      pop\n        /* \"#utility.yul\":2193:2517   */\n      swap3\n      pop\n      swap3\n      swap1\n      pop\n      jump\t// out\n        /* \"#utility.yul\":2523:2631   */\n    tag_215:\n        /* \"#utility.yul\":2600:2624   */\n      tag_217\n        /* \"#utility.yul\":2618:2623   */\n      dup2\n        /* \"#utility.yul\":2600:2624   */\n      tag_218\n      jump\t// in\n    tag_217:\n        /* \"#utility.yul\":2595:2598   */\n      dup3\n        /* \"#utility.yul\":2588:2625   */\n      mstore\n        /* \"#utility.yul\":2578:2631   */\n      pop\n      pop\n      jump\t// out\n        /* \"#utility.yul\":2637:2755   */\n    tag_219:\n        /* \"#utility.yul\":2724:2748   */\n      tag_221\n        /* \"#utility.yul\":2742:2747   */\n      dup2\n        /* \"#utility.yul\":2724:2748   */\n      tag_218\n      jump\t// in\n    tag_221:\n        /* \"#utility.yul\":2719:2722   */\n      dup3\n        /* \"#utility.yul\":2712:2749   */\n      mstore\n        /* \"#utility.yul\":2702:2755   */\n      pop\n      pop\n      jump\t// out\n        /* \"#utility.yul\":2761:2918   */\n    tag_222:\n        /* \"#utility.yul\":2866:2911   */\n      tag_224\n        /* \"#utility.yul\":2886:2910   */\n      tag_225\n        /* \"#utility.yul\":2904:2909   */\n      dup3\n        /* \"#utility.yul\":2886:2910   */\n      tag_218\n      jump\t// in\n    tag_225:\n        /* \"#utility.yul\":2866:2911   */\n      tag_226\n      jump\t// in\n    tag_224:\n        /* \"#utility.yul\":2861:2864   */\n      dup3\n        /* \"#utility.yul\":2854:2912   */\n      mstore\n        /* \"#utility.yul\":2844:2918   */\n      pop\n      pop\n      jump\t// out\n        /* \"#utility.yul\":2924:3023   */\n    tag_227:\n        /* \"#utility.yul\":2995:3016   */\n      tag_229\n        /* \"#utility.yul\":3010:3015   */\n      dup2\n        /* \"#utility.yul\":2995:3016   */\n      tag_230\n      jump\t// in\n    tag_229:\n        /* \"#utility.yul\":2990:2993   */\n      dup3\n        /* \"#utility.yul\":2983:3017   */\n      mstore\n        /* \"#utility.yul\":2973:3023   */\n      pop\n      pop\n      jump\t// out\n        /* \"#utility.yul\":3029:3398   */\n    tag_231:\n      0x00\n        /* \"#utility.yul\":3192:3259   */\n      tag_233\n        /* \"#utility.yul\":3256:3258   */\n      0x25\n        /* \"#utility.yul\":3251:3254   */\n      dup4\n        /* \"#utility.yul\":3192:3259   */\n      tag_234\n      jump\t// in\n    tag_233:\n        /* \"#utility.yul\":3185:3259   */\n      swap2\n      pop\n        /* \"#utility.yul\":3289:3323   */\n      0x546f6b656e56657374696e673a20536368656d65204964206f7574206f662062\n        /* \"#utility.yul\":3285:3286   */\n      0x00\n        /* \"#utility.yul\":3280:3283   */\n      dup4\n        /* \"#utility.yul\":3276:3287   */\n      add\n        /* \"#utility.yul\":3269:3324   */\n      mstore\n        /* \"#utility.yul\":3355:3362   */\n      0x6f756e6473000000000000000000000000000000000000000000000000000000\n        /* \"#utility.yul\":3350:3352   */\n      0x20\n        /* \"#utility.yul\":3345:3348   */\n      dup4\n        /* \"#utility.yul\":3341:3353   */\n      add\n        /* \"#utility.yul\":3334:3363   */\n      mstore\n        /* \"#utility.yul\":3389:3391   */\n      0x40\n        /* \"#utility.yul\":3384:3387   */\n      dup3\n        /* \"#utility.yul\":3380:3392   */\n      add\n        /* \"#utility.yul\":3373:3392   */\n      swap1\n      pop\n        /* \"#utility.yul\":3175:3398   */\n      swap2\n      swap1\n      pop\n      jump\t// out\n        /* \"#utility.yul\":3404:3774   */\n    tag_235:\n      0x00\n        /* \"#utility.yul\":3567:3634   */\n      tag_237\n        /* \"#utility.yul\":3631:3633   */\n      0x26\n        /* \"#utility.yul\":3626:3629   */\n      dup4\n        /* \"#utility.yul\":3567:3634   */\n      tag_234\n      jump\t// in\n    tag_237:\n        /* \"#utility.yul\":3560:3634   */\n      swap2\n      pop\n        /* \"#utility.yul\":3664:3698   */\n      0x4f776e61626c653a206e6577206f776e657220697320746865207a65726f2061\n        /* \"#utility.yul\":3660:3661   */\n      0x00\n        /* \"#utility.yul\":3655:3658   */\n      dup4\n        /* \"#utility.yul\":3651:3662   */\n      add\n        /* \"#utility.yul\":3644:3699   */\n      mstore\n        /* \"#utility.yul\":3730:3738   */\n      0x6464726573730000000000000000000000000000000000000000000000000000\n        /* \"#utility.yul\":3725:3727   */\n      0x20\n        /* \"#utility.yul\":3720:3723   */\n      dup4\n        /* \"#utility.yul\":3716:3728   */\n      add\n        /* \"#utility.yul\":3709:3739   */\n      mstore\n        /* \"#utility.yul\":3765:3767   */\n      0x40\n        /* \"#utility.yul\":3760:3763   */\n      dup3\n        /* \"#utility.yul\":3756:3768   */\n      add\n        /* \"#utility.yul\":3749:3768   */\n      swap1\n      pop\n        /* \"#utility.yul\":3550:3774   */\n      swap2\n      swap1\n      pop\n      jump\t// out\n        /* \"#utility.yul\":3780:4166   */\n    tag_238:\n      0x00\n        /* \"#utility.yul\":3943:4010   */\n      tag_240\n        /* \"#utility.yul\":4007:4009   */\n      0x36\n        /* \"#utility.yul\":4002:4005   */\n      dup4\n        /* \"#utility.yul\":3943:4010   */\n      tag_234\n      jump\t// in\n    tag_240:\n        /* \"#utility.yul\":3936:4010   */\n      swap2\n      pop\n        /* \"#utility.yul\":4040:4074   */\n      0x546f6b656e56657374696e673a2056657374696e6720706572696f64206d7573\n        /* \"#utility.yul\":4036:4037   */\n      0x00\n        /* \"#utility.yul\":4031:4034   */\n      dup4\n        /* \"#utility.yul\":4027:4038   */\n      add\n        /* \"#utility.yul\":4020:4075   */\n      mstore\n        /* \"#utility.yul\":4106:4130   */\n      0x742062652067726561746572207468616e207a65726f00000000000000000000\n        /* \"#utility.yul\":4101:4103   */\n      0x20\n        /* \"#utility.yul\":4096:4099   */\n      dup4\n        /* \"#utility.yul\":4092:4104   */\n      add\n        /* \"#utility.yul\":4085:4131   */\n      mstore\n        /* \"#utility.yul\":4157:4159   */\n      0x40\n        /* \"#utility.yul\":4152:4155   */\n      dup3\n        /* \"#utility.yul\":4148:4160   */\n      add\n        /* \"#utility.yul\":4141:4160   */\n      swap1\n      pop\n        /* \"#utility.yul\":3926:4166   */\n      swap2\n      swap1\n      pop\n      jump\t// out\n        /* \"#utility.yul\":4172:4604   */\n    tag_241:\n      0x00\n        /* \"#utility.yul\":4335:4402   */\n      tag_243\n        /* \"#utility.yul\":4399:4401   */\n      0x42\n        /* \"#utility.yul\":4394:4397   */\n      dup4\n        /* \"#utility.yul\":4335:4402   */\n      tag_234\n      jump\t// in\n    tag_243:\n        /* \"#utility.yul\":4328:4402   */\n      swap2\n      pop\n        /* \"#utility.yul\":4432:4466   */\n      0x546f6b656e56657374696e673a20536368656d6520636f756e7420666f722074\n        /* \"#utility.yul\":4428:4429   */\n      0x00\n        /* \"#utility.yul\":4423:4426   */\n      dup4\n        /* \"#utility.yul\":4419:4430   */\n      add\n        /* \"#utility.yul\":4412:4467   */\n      mstore\n        /* \"#utility.yul\":4498:4532   */\n      0x6869732062656e6566696369617279206861732072656163686564206c696d69\n        /* \"#utility.yul\":4493:4495   */\n      0x20\n        /* \"#utility.yul\":4488:4491   */\n      dup4\n        /* \"#utility.yul\":4484:4496   */\n      add\n        /* \"#utility.yul\":4477:4533   */\n      mstore\n        /* \"#utility.yul\":4564:4568   */\n      0x742e000000000000000000000000000000000000000000000000000000000000\n        /* \"#utility.yul\":4559:4561   */\n      0x40\n        /* \"#utility.yul\":4554:4557   */\n      dup4\n        /* \"#utility.yul\":4550:4562   */\n      add\n        /* \"#utility.yul\":4543:4569   */\n      mstore\n        /* \"#utility.yul\":4595:4597   */\n      0x60\n        /* \"#utility.yul\":4590:4593   */\n      dup3\n        /* \"#utility.yul\":4586:4598   */\n      add\n        /* \"#utility.yul\":4579:4598   */\n      swap1\n      pop\n        /* \"#utility.yul\":4318:4604   */\n      swap2\n      swap1\n      pop\n      jump\t// out\n        /* \"#utility.yul\":4610:4994   */\n    tag_244:\n      0x00\n        /* \"#utility.yul\":4773:4840   */\n      tag_246\n        /* \"#utility.yul\":4837:4839   */\n      0x34\n        /* \"#utility.yul\":4832:4835   */\n      dup4\n        /* \"#utility.yul\":4773:4840   */\n      tag_234\n      jump\t// in\n    tag_246:\n        /* \"#utility.yul\":4766:4840   */\n      swap2\n      pop\n        /* \"#utility.yul\":4870:4904   */\n      0x546f6b656e56657374696e673a2043616e6e6f7420616464207a65726f206164\n        /* \"#utility.yul\":4866:4867   */\n      0x00\n        /* \"#utility.yul\":4861:4864   */\n      dup4\n        /* \"#utility.yul\":4857:4868   */\n      add\n        /* \"#utility.yul\":4850:4905   */\n      mstore\n        /* \"#utility.yul\":4936:4958   */\n      0x64726573732061732062656e6566696369617279000000000000000000000000\n        /* \"#utility.yul\":4931:4933   */\n      0x20\n        /* \"#utility.yul\":4926:4929   */\n      dup4\n        /* \"#utility.yul\":4922:4934   */\n      add\n        /* \"#utility.yul\":4915:4959   */\n      mstore\n        /* \"#utility.yul\":4985:4987   */\n      0x40\n        /* \"#utility.yul\":4980:4983   */\n      dup3\n        /* \"#utility.yul\":4976:4988   */\n      add\n        /* \"#utility.yul\":4969:4988   */\n      swap1\n      pop\n        /* \"#utility.yul\":4756:4994   */\n      swap2\n      swap1\n      pop\n      jump\t// out\n        /* \"#utility.yul\":5000:5396   */\n    tag_247:\n      0x00\n        /* \"#utility.yul\":5163:5230   */\n      tag_249\n        /* \"#utility.yul\":5227:5229   */\n      0x40\n        /* \"#utility.yul\":5222:5225   */\n      dup4\n        /* \"#utility.yul\":5163:5230   */\n      tag_234\n      jump\t// in\n    tag_249:\n        /* \"#utility.yul\":5156:5230   */\n      swap2\n      pop\n        /* \"#utility.yul\":5260:5294   */\n      0x546f6b656e56657374696e673a2056657374696e6720536368656d6520697320\n        /* \"#utility.yul\":5256:5257   */\n      0x00\n        /* \"#utility.yul\":5251:5254   */\n      dup4\n        /* \"#utility.yul\":5247:5258   */\n      add\n        /* \"#utility.yul\":5240:5295   */\n      mstore\n        /* \"#utility.yul\":5326:5360   */\n      0x6569746865722064656c65746564206f7220646f6573206e6f74206578697374\n        /* \"#utility.yul\":5321:5323   */\n      0x20\n        /* \"#utility.yul\":5316:5319   */\n      dup4\n        /* \"#utility.yul\":5312:5324   */\n      add\n        /* \"#utility.yul\":5305:5361   */\n      mstore\n        /* \"#utility.yul\":5387:5389   */\n      0x40\n        /* \"#utility.yul\":5382:5385   */\n      dup3\n        /* \"#utility.yul\":5378:5390   */\n      add\n        /* \"#utility.yul\":5371:5390   */\n      swap1\n      pop\n        /* \"#utility.yul\":5146:5396   */\n      swap2\n      swap1\n      pop\n      jump\t// out\n        /* \"#utility.yul\":5402:5786   */\n    tag_250:\n      0x00\n        /* \"#utility.yul\":5565:5632   */\n      tag_252\n        /* \"#utility.yul\":5629:5631   */\n      0x34\n        /* \"#utility.yul\":5624:5627   */\n      dup4\n        /* \"#utility.yul\":5565:5632   */\n      tag_234\n      jump\t// in\n    tag_252:\n        /* \"#utility.yul\":5558:5632   */\n      swap2\n      pop\n        /* \"#utility.yul\":5662:5696   */\n      0x546f6b656e56657374696e673a205665737461626c6520616d6f756e74206d75\n        /* \"#utility.yul\":5658:5659   */\n      0x00\n        /* \"#utility.yul\":5653:5656   */\n      dup4\n        /* \"#utility.yul\":5649:5660   */\n      add\n        /* \"#utility.yul\":5642:5697   */\n      mstore\n        /* \"#utility.yul\":5728:5750   */\n      0x73742062652067726561746572207468616e2030000000000000000000000000\n        /* \"#utility.yul\":5723:5725   */\n      0x20\n        /* \"#utility.yul\":5718:5721   */\n      dup4\n        /* \"#utility.yul\":5714:5726   */\n      add\n        /* \"#utility.yul\":5707:5751   */\n      mstore\n        /* \"#utility.yul\":5777:5779   */\n      0x40\n        /* \"#utility.yul\":5772:5775   */\n      dup3\n        /* \"#utility.yul\":5768:5780   */\n      add\n        /* \"#utility.yul\":5761:5780   */\n      swap1\n      pop\n        /* \"#utility.yul\":5548:5786   */\n      swap2\n      swap1\n      pop\n      jump\t// out\n        /* \"#utility.yul\":5792:6122   */\n    tag_253:\n      0x00\n        /* \"#utility.yul\":5955:6022   */\n      tag_255\n        /* \"#utility.yul\":6019:6021   */\n      0x20\n        /* \"#utility.yul\":6014:6017   */\n      dup4\n        /* \"#utility.yul\":5955:6022   */\n      tag_234\n      jump\t// in\n    tag_255:\n        /* \"#utility.yul\":5948:6022   */\n      swap2\n      pop\n        /* \"#utility.yul\":6052:6086   */\n      0x4f776e61626c653a2063616c6c6572206973206e6f7420746865206f776e6572\n        /* \"#utility.yul\":6048:6049   */\n      0x00\n        /* \"#utility.yul\":6043:6046   */\n      dup4\n        /* \"#utility.yul\":6039:6050   */\n      add\n        /* \"#utility.yul\":6032:6087   */\n      mstore\n        /* \"#utility.yul\":6113:6115   */\n      0x20\n        /* \"#utility.yul\":6108:6111   */\n      dup3\n        /* \"#utility.yul\":6104:6116   */\n      add\n        /* \"#utility.yul\":6097:6116   */\n      swap1\n      pop\n        /* \"#utility.yul\":5938:6122   */\n      swap2\n      swap1\n      pop\n      jump\t// out\n        /* \"#utility.yul\":6128:6509   */\n    tag_256:\n      0x00\n        /* \"#utility.yul\":6291:6358   */\n      tag_258\n        /* \"#utility.yul\":6355:6357   */\n      0x31\n        /* \"#utility.yul\":6350:6353   */\n      dup4\n        /* \"#utility.yul\":6291:6358   */\n      tag_234\n      jump\t// in\n    tag_258:\n        /* \"#utility.yul\":6284:6358   */\n      swap2\n      pop\n        /* \"#utility.yul\":6388:6422   */\n      0x546f6b656e56657374696e673a2043616c6c6572206d757374206265206f776e\n        /* \"#utility.yul\":6384:6385   */\n      0x00\n        /* \"#utility.yul\":6379:6382   */\n      dup4\n        /* \"#utility.yul\":6375:6386   */\n      add\n        /* \"#utility.yul\":6368:6423   */\n      mstore\n        /* \"#utility.yul\":6454:6473   */\n      0x6572206f722062656e6566696369617279000000000000000000000000000000\n        /* \"#utility.yul\":6449:6451   */\n      0x20\n        /* \"#utility.yul\":6444:6447   */\n      dup4\n        /* \"#utility.yul\":6440:6452   */\n      add\n        /* \"#utility.yul\":6433:6474   */\n      mstore\n        /* \"#utility.yul\":6500:6502   */\n      0x40\n        /* \"#utility.yul\":6495:6498   */\n      dup3\n        /* \"#utility.yul\":6491:6503   */\n      add\n        /* \"#utility.yul\":6484:6503   */\n      swap1\n      pop\n        /* \"#utility.yul\":6274:6509   */\n      swap2\n      swap1\n      pop\n      jump\t// out\n        /* \"#utility.yul\":6593:8014   */\n    tag_259:\n        /* \"#utility.yul\":6748:6752   */\n      0xe0\n        /* \"#utility.yul\":6743:6746   */\n      dup3\n        /* \"#utility.yul\":6739:6753   */\n      add\n        /* \"#utility.yul\":6842:6846   */\n      0x00\n        /* \"#utility.yul\":6835:6840   */\n      dup3\n        /* \"#utility.yul\":6831:6847   */\n      add\n        /* \"#utility.yul\":6825:6848   */\n      mload\n        /* \"#utility.yul\":6861:6924   */\n      tag_261\n        /* \"#utility.yul\":6918:6922   */\n      0x00\n        /* \"#utility.yul\":6913:6916   */\n      dup6\n        /* \"#utility.yul\":6909:6923   */\n      add\n        /* \"#utility.yul\":6895:6907   */\n      dup3\n        /* \"#utility.yul\":6861:6924   */\n      tag_215\n      jump\t// in\n    tag_261:\n        /* \"#utility.yul\":6763:6934   */\n      pop\n        /* \"#utility.yul\":7021:7025   */\n      0x20\n        /* \"#utility.yul\":7014:7019   */\n      dup3\n        /* \"#utility.yul\":7010:7026   */\n      add\n        /* \"#utility.yul\":7004:7027   */\n      mload\n        /* \"#utility.yul\":7040:7103   */\n      tag_262\n        /* \"#utility.yul\":7097:7101   */\n      0x20\n        /* \"#utility.yul\":7092:7095   */\n      dup6\n        /* \"#utility.yul\":7088:7102   */\n      add\n        /* \"#utility.yul\":7074:7086   */\n      dup3\n        /* \"#utility.yul\":7040:7103   */\n      tag_263\n      jump\t// in\n    tag_262:\n        /* \"#utility.yul\":6944:7113   */\n      pop\n        /* \"#utility.yul\":7199:7203   */\n      0x40\n        /* \"#utility.yul\":7192:7197   */\n      dup3\n        /* \"#utility.yul\":7188:7204   */\n      add\n        /* \"#utility.yul\":7182:7205   */\n      mload\n        /* \"#utility.yul\":7218:7281   */\n      tag_264\n        /* \"#utility.yul\":7275:7279   */\n      0x40\n        /* \"#utility.yul\":7270:7273   */\n      dup6\n        /* \"#utility.yul\":7266:7280   */\n      add\n        /* \"#utility.yul\":7252:7264   */\n      dup3\n        /* \"#utility.yul\":7218:7281   */\n      tag_263\n      jump\t// in\n    tag_264:\n        /* \"#utility.yul\":7123:7291   */\n      pop\n        /* \"#utility.yul\":7384:7388   */\n      0x60\n        /* \"#utility.yul\":7377:7382   */\n      dup3\n        /* \"#utility.yul\":7373:7389   */\n      add\n        /* \"#utility.yul\":7367:7390   */\n      mload\n        /* \"#utility.yul\":7403:7466   */\n      tag_265\n        /* \"#utility.yul\":7460:7464   */\n      0x60\n        /* \"#utility.yul\":7455:7458   */\n      dup6\n        /* \"#utility.yul\":7451:7465   */\n      add\n        /* \"#utility.yul\":7437:7449   */\n      dup3\n        /* \"#utility.yul\":7403:7466   */\n      tag_263\n      jump\t// in\n    tag_265:\n        /* \"#utility.yul\":7301:7476   */\n      pop\n        /* \"#utility.yul\":7560:7564   */\n      0x80\n        /* \"#utility.yul\":7553:7558   */\n      dup3\n        /* \"#utility.yul\":7549:7565   */\n      add\n        /* \"#utility.yul\":7543:7566   */\n      mload\n        /* \"#utility.yul\":7579:7642   */\n      tag_266\n        /* \"#utility.yul\":7636:7640   */\n      0x80\n        /* \"#utility.yul\":7631:7634   */\n      dup6\n        /* \"#utility.yul\":7627:7641   */\n      add\n        /* \"#utility.yul\":7613:7625   */\n      dup3\n        /* \"#utility.yul\":7579:7642   */\n      tag_263\n      jump\t// in\n    tag_266:\n        /* \"#utility.yul\":7486:7652   */\n      pop\n        /* \"#utility.yul\":7744:7748   */\n      0xa0\n        /* \"#utility.yul\":7737:7742   */\n      dup3\n        /* \"#utility.yul\":7733:7749   */\n      add\n        /* \"#utility.yul\":7727:7750   */\n      mload\n        /* \"#utility.yul\":7763:7826   */\n      tag_267\n        /* \"#utility.yul\":7820:7824   */\n      0xa0\n        /* \"#utility.yul\":7815:7818   */\n      dup6\n        /* \"#utility.yul\":7811:7825   */\n      add\n        /* \"#utility.yul\":7797:7809   */\n      dup3\n        /* \"#utility.yul\":7763:7826   */\n      tag_263\n      jump\t// in\n    tag_267:\n        /* \"#utility.yul\":7662:7836   */\n      pop\n        /* \"#utility.yul\":7921:7925   */\n      0xc0\n        /* \"#utility.yul\":7914:7919   */\n      dup3\n        /* \"#utility.yul\":7910:7926   */\n      add\n        /* \"#utility.yul\":7904:7927   */\n      mload\n        /* \"#utility.yul\":7940:7997   */\n      tag_268\n        /* \"#utility.yul\":7991:7995   */\n      0xc0\n        /* \"#utility.yul\":7986:7989   */\n      dup6\n        /* \"#utility.yul\":7982:7996   */\n      add\n        /* \"#utility.yul\":7968:7980   */\n      dup3\n        /* \"#utility.yul\":7940:7997   */\n      tag_227\n      jump\t// in\n    tag_268:\n        /* \"#utility.yul\":7846:8007   */\n      pop\n        /* \"#utility.yul\":6717:8014   */\n      pop\n      pop\n      pop\n      jump\t// out\n        /* \"#utility.yul\":8020:8128   */\n    tag_263:\n        /* \"#utility.yul\":8097:8121   */\n      tag_270\n        /* \"#utility.yul\":8115:8120   */\n      dup2\n        /* \"#utility.yul\":8097:8121   */\n      tag_271\n      jump\t// in\n    tag_270:\n        /* \"#utility.yul\":8092:8095   */\n      dup3\n        /* \"#utility.yul\":8085:8122   */\n      mstore\n        /* \"#utility.yul\":8075:8128   */\n      pop\n      pop\n      jump\t// out\n        /* \"#utility.yul\":8134:8252   */\n    tag_272:\n        /* \"#utility.yul\":8221:8245   */\n      tag_274\n        /* \"#utility.yul\":8239:8244   */\n      dup2\n        /* \"#utility.yul\":8221:8245   */\n      tag_271\n      jump\t// in\n    tag_274:\n        /* \"#utility.yul\":8216:8219   */\n      dup3\n        /* \"#utility.yul\":8209:8246   */\n      mstore\n        /* \"#utility.yul\":8199:8252   */\n      pop\n      pop\n      jump\t// out\n        /* \"#utility.yul\":8258:8415   */\n    tag_275:\n        /* \"#utility.yul\":8363:8408   */\n      tag_277\n        /* \"#utility.yul\":8383:8407   */\n      tag_278\n        /* \"#utility.yul\":8401:8406   */\n      dup3\n        /* \"#utility.yul\":8383:8407   */\n      tag_271\n      jump\t// in\n    tag_278:\n        /* \"#utility.yul\":8363:8408   */\n      tag_279\n      jump\t// in\n    tag_277:\n        /* \"#utility.yul\":8358:8361   */\n      dup3\n        /* \"#utility.yul\":8351:8409   */\n      mstore\n        /* \"#utility.yul\":8341:8415   */\n      pop\n      pop\n      jump\t// out\n        /* \"#utility.yul\":8421:8818   */\n    tag_176:\n      0x00\n        /* \"#utility.yul\":8576:8651   */\n      tag_281\n        /* \"#utility.yul\":8647:8650   */\n      dup3\n        /* \"#utility.yul\":8638:8644   */\n      dup6\n        /* \"#utility.yul\":8576:8651   */\n      tag_222\n      jump\t// in\n    tag_281:\n        /* \"#utility.yul\":8676:8678   */\n      0x14\n        /* \"#utility.yul\":8671:8674   */\n      dup3\n        /* \"#utility.yul\":8667:8679   */\n      add\n        /* \"#utility.yul\":8660:8679   */\n      swap2\n      pop\n        /* \"#utility.yul\":8689:8764   */\n      tag_282\n        /* \"#utility.yul\":8760:8763   */\n      dup3\n        /* \"#utility.yul\":8751:8757   */\n      dup5\n        /* \"#utility.yul\":8689:8764   */\n      tag_275\n      jump\t// in\n    tag_282:\n        /* \"#utility.yul\":8789:8791   */\n      0x20\n        /* \"#utility.yul\":8784:8787   */\n      dup3\n        /* \"#utility.yul\":8780:8792   */\n      add\n        /* \"#utility.yul\":8773:8792   */\n      swap2\n      pop\n        /* \"#utility.yul\":8809:8812   */\n      dup2\n        /* \"#utility.yul\":8802:8812   */\n      swap1\n      pop\n        /* \"#utility.yul\":8565:8818   */\n      swap4\n      swap3\n      pop\n      pop\n      pop\n      jump\t// out\n        /* \"#utility.yul\":8824:9046   */\n    tag_55:\n      0x00\n        /* \"#utility.yul\":8955:8957   */\n      0x20\n        /* \"#utility.yul\":8944:8953   */\n      dup3\n        /* \"#utility.yul\":8940:8958   */\n      add\n        /* \"#utility.yul\":8932:8958   */\n      swap1\n      pop\n        /* \"#utility.yul\":8968:9039   */\n      tag_284\n        /* \"#utility.yul\":9036:9037   */\n      0x00\n        /* \"#utility.yul\":9025:9034   */\n      dup4\n        /* \"#utility.yul\":9021:9038   */\n      add\n        /* \"#utility.yul\":9012:9018   */\n      dup5\n        /* \"#utility.yul\":8968:9039   */\n      tag_219\n      jump\t// in\n    tag_284:\n        /* \"#utility.yul\":8922:9046   */\n      swap3\n      swap2\n      pop\n      pop\n      jump\t// out\n        /* \"#utility.yul\":9052:9384   */\n    tag_103:\n      0x00\n        /* \"#utility.yul\":9211:9213   */\n      0x40\n        /* \"#utility.yul\":9200:9209   */\n      dup3\n        /* \"#utility.yul\":9196:9214   */\n      add\n        /* \"#utility.yul\":9188:9214   */\n      swap1\n      pop\n        /* \"#utility.yul\":9224:9295   */\n      tag_286\n        /* \"#utility.yul\":9292:9293   */\n      0x00\n        /* \"#utility.yul\":9281:9290   */\n      dup4\n        /* \"#utility.yul\":9277:9294   */\n      add\n        /* \"#utility.yul\":9268:9274   */\n      dup6\n        /* \"#utility.yul\":9224:9295   */\n      tag_219\n      jump\t// in\n    tag_286:\n        /* \"#utility.yul\":9305:9377   */\n      tag_287\n        /* \"#utility.yul\":9373:9375   */\n      0x20\n        /* \"#utility.yul\":9362:9371   */\n      dup4\n        /* \"#utility.yul\":9358:9376   */\n      add\n        /* \"#utility.yul\":9349:9355   */\n      dup5\n        /* \"#utility.yul\":9305:9377   */\n      tag_272\n      jump\t// in\n    tag_287:\n        /* \"#utility.yul\":9178:9384   */\n      swap4\n      swap3\n      pop\n      pop\n      pop\n      jump\t// out\n        /* \"#utility.yul\":9390:9809   */\n    tag_145:\n      0x00\n        /* \"#utility.yul\":9594:9596   */\n      0x20\n        /* \"#utility.yul\":9583:9592   */\n      dup3\n        /* \"#utility.yul\":9579:9597   */\n      add\n        /* \"#utility.yul\":9571:9597   */\n      swap1\n      pop\n        /* \"#utility.yul\":9643:9652   */\n      dup2\n        /* \"#utility.yul\":9637:9641   */\n      dup2\n        /* \"#utility.yul\":9633:9653   */\n      sub\n        /* \"#utility.yul\":9629:9630   */\n      0x00\n        /* \"#utility.yul\":9618:9627   */\n      dup4\n        /* \"#utility.yul\":9614:9631   */\n      add\n        /* \"#utility.yul\":9607:9654   */\n      mstore\n        /* \"#utility.yul\":9671:9802   */\n      tag_289\n        /* \"#utility.yul\":9797:9801   */\n      dup2\n        /* \"#utility.yul\":9671:9802   */\n      tag_231\n      jump\t// in\n    tag_289:\n        /* \"#utility.yul\":9663:9802   */\n      swap1\n      pop\n        /* \"#utility.yul\":9561:9809   */\n      swap2\n      swap1\n      pop\n      jump\t// out\n        /* \"#utility.yul\":9815:10234   */\n    tag_167:\n      0x00\n        /* \"#utility.yul\":10019:10021   */\n      0x20\n        /* \"#utility.yul\":10008:10017   */\n      dup3\n        /* \"#utility.yul\":10004:10022   */\n      add\n        /* \"#utility.yul\":9996:10022   */\n      swap1\n      pop\n        /* \"#utility.yul\":10068:10077   */\n      dup2\n        /* \"#utility.yul\":10062:10066   */\n      dup2\n        /* \"#utility.yul\":10058:10078   */\n      sub\n        /* \"#utility.yul\":10054:10055   */\n      0x00\n        /* \"#utility.yul\":10043:10052   */\n      dup4\n        /* \"#utility.yul\":10039:10056   */\n      add\n        /* \"#utility.yul\":10032:10079   */\n      mstore\n        /* \"#utility.yul\":10096:10227   */\n      tag_291\n        /* \"#utility.yul\":10222:10226   */\n      dup2\n        /* \"#utility.yul\":10096:10227   */\n      tag_235\n      jump\t// in\n    tag_291:\n        /* \"#utility.yul\":10088:10227   */\n      swap1\n      pop\n        /* \"#utility.yul\":9986:10234   */\n      swap2\n      swap1\n      pop\n      jump\t// out\n        /* \"#utility.yul\":10240:10659   */\n    tag_129:\n      0x00\n        /* \"#utility.yul\":10444:10446   */\n      0x20\n        /* \"#utility.yul\":10433:10442   */\n      dup3\n        /* \"#utility.yul\":10429:10447   */\n      add\n        /* \"#utility.yul\":10421:10447   */\n      swap1\n      pop\n        /* \"#utility.yul\":10493:10502   */\n      dup2\n        /* \"#utility.yul\":10487:10491   */\n      dup2\n        /* \"#utility.yul\":10483:10503   */\n      sub\n        /* \"#utility.yul\":10479:10480   */\n      0x00\n        /* \"#utility.yul\":10468:10477   */\n      dup4\n        /* \"#utility.yul\":10464:10481   */\n      add\n        /* \"#utility.yul\":10457:10504   */\n      mstore\n        /* \"#utility.yul\":10521:10652   */\n      tag_293\n        /* \"#utility.yul\":10647:10651   */\n      dup2\n        /* \"#utility.yul\":10521:10652   */\n      tag_238\n      jump\t// in\n    tag_293:\n        /* \"#utility.yul\":10513:10652   */\n      swap1\n      pop\n        /* \"#utility.yul\":10411:10659   */\n      swap2\n      swap1\n      pop\n      jump\t// out\n        /* \"#utility.yul\":10665:11084   */\n    tag_135:\n      0x00\n        /* \"#utility.yul\":10869:10871   */\n      0x20\n        /* \"#utility.yul\":10858:10867   */\n      dup3\n        /* \"#utility.yul\":10854:10872   */\n      add\n        /* \"#utility.yul\":10846:10872   */\n      swap1\n      pop\n        /* \"#utility.yul\":10918:10927   */\n      dup2\n        /* \"#utility.yul\":10912:10916   */\n      dup2\n        /* \"#utility.yul\":10908:10928   */\n      sub\n        /* \"#utility.yul\":10904:10905   */\n      0x00\n        /* \"#utility.yul\":10893:10902   */\n      dup4\n        /* \"#utility.yul\":10889:10906   */\n      add\n        /* \"#utility.yul\":10882:10929   */\n      mstore\n        /* \"#utility.yul\":10946:11077   */\n      tag_295\n        /* \"#utility.yul\":11072:11076   */\n      dup2\n        /* \"#utility.yul\":10946:11077   */\n      tag_241\n      jump\t// in\n    tag_295:\n        /* \"#utility.yul\":10938:11077   */\n      swap1\n      pop\n        /* \"#utility.yul\":10836:11084   */\n      swap2\n      swap1\n      pop\n      jump\t// out\n        /* \"#utility.yul\":11090:11509   */\n    tag_126:\n      0x00\n        /* \"#utility.yul\":11294:11296   */\n      0x20\n        /* \"#utility.yul\":11283:11292   */\n      dup3\n        /* \"#utility.yul\":11279:11297   */\n      add\n        /* \"#utility.yul\":11271:11297   */\n      swap1\n      pop\n        /* \"#utility.yul\":11343:11352   */\n      dup2\n        /* \"#utility.yul\":11337:11341   */\n      dup2\n        /* \"#utility.yul\":11333:11353   */\n      sub\n        /* \"#utility.yul\":11329:11330   */\n      0x00\n        /* \"#utility.yul\":11318:11327   */\n      dup4\n        /* \"#utility.yul\":11314:11331   */\n      add\n        /* \"#utility.yul\":11307:11354   */\n      mstore\n        /* \"#utility.yul\":11371:11502   */\n      tag_297\n        /* \"#utility.yul\":11497:11501   */\n      dup2\n        /* \"#utility.yul\":11371:11502   */\n      tag_244\n      jump\t// in\n    tag_297:\n        /* \"#utility.yul\":11363:11502   */\n      swap1\n      pop\n        /* \"#utility.yul\":11261:11509   */\n      swap2\n      swap1\n      pop\n      jump\t// out\n        /* \"#utility.yul\":11515:11934   */\n    tag_148:\n      0x00\n        /* \"#utility.yul\":11719:11721   */\n      0x20\n        /* \"#utility.yul\":11708:11717   */\n      dup3\n        /* \"#utility.yul\":11704:11722   */\n      add\n        /* \"#utility.yul\":11696:11722   */\n      swap1\n      pop\n        /* \"#utility.yul\":11768:11777   */\n      dup2\n        /* \"#utility.yul\":11762:11766   */\n      dup2\n        /* \"#utility.yul\":11758:11778   */\n      sub\n        /* \"#utility.yul\":11754:11755   */\n      0x00\n        /* \"#utility.yul\":11743:11752   */\n      dup4\n        /* \"#utility.yul\":11739:11756   */\n      add\n        /* \"#utility.yul\":11732:11779   */\n      mstore\n        /* \"#utility.yul\":11796:11927   */\n      tag_299\n        /* \"#utility.yul\":11922:11926   */\n      dup2\n        /* \"#utility.yul\":11796:11927   */\n      tag_247\n      jump\t// in\n    tag_299:\n        /* \"#utility.yul\":11788:11927   */\n      swap1\n      pop\n        /* \"#utility.yul\":11686:11934   */\n      swap2\n      swap1\n      pop\n      jump\t// out\n        /* \"#utility.yul\":11940:12359   */\n    tag_132:\n      0x00\n        /* \"#utility.yul\":12144:12146   */\n      0x20\n        /* \"#utility.yul\":12133:12142   */\n      dup3\n        /* \"#utility.yul\":12129:12147   */\n      add\n        /* \"#utility.yul\":12121:12147   */\n      swap1\n      pop\n        /* \"#utility.yul\":12193:12202   */\n      dup2\n        /* \"#utility.yul\":12187:12191   */\n      dup2\n        /* \"#utility.yul\":12183:12203   */\n      sub\n        /* \"#utility.yul\":12179:12180   */\n      0x00\n        /* \"#utility.yul\":12168:12177   */\n      dup4\n        /* \"#utility.yul\":12164:12181   */\n      add\n        /* \"#utility.yul\":12157:12204   */\n      mstore\n        /* \"#utility.yul\":12221:12352   */\n      tag_301\n        /* \"#utility.yul\":12347:12351   */\n      dup2\n        /* \"#utility.yul\":12221:12352   */\n      tag_250\n      jump\t// in\n    tag_301:\n        /* \"#utility.yul\":12213:12352   */\n      swap1\n      pop\n        /* \"#utility.yul\":12111:12359   */\n      swap2\n      swap1\n      pop\n      jump\t// out\n        /* \"#utility.yul\":12365:12784   */\n    tag_82:\n      0x00\n        /* \"#utility.yul\":12569:12571   */\n      0x20\n        /* \"#utility.yul\":12558:12567   */\n      dup3\n        /* \"#utility.yul\":12554:12572   */\n      add\n        /* \"#utility.yul\":12546:12572   */\n      swap1\n      pop\n        /* \"#utility.yul\":12618:12627   */\n      dup2\n        /* \"#utility.yul\":12612:12616   */\n      dup2\n        /* \"#utility.yul\":12608:12628   */\n      sub\n        /* \"#utility.yul\":12604:12605   */\n      0x00\n        /* \"#utility.yul\":12593:12602   */\n      dup4\n        /* \"#utility.yul\":12589:12606   */\n      add\n        /* \"#utility.yul\":12582:12629   */\n      mstore\n        /* \"#utility.yul\":12646:12777   */\n      tag_303\n        /* \"#utility.yul\":12772:12776   */\n      dup2\n        /* \"#utility.yul\":12646:12777   */\n      tag_253\n      jump\t// in\n    tag_303:\n        /* \"#utility.yul\":12638:12777   */\n      swap1\n      pop\n        /* \"#utility.yul\":12536:12784   */\n      swap2\n      swap1\n      pop\n      jump\t// out\n        /* \"#utility.yul\":12790:13209   */\n    tag_99:\n      0x00\n        /* \"#utility.yul\":12994:12996   */\n      0x20\n        /* \"#utility.yul\":12983:12992   */\n      dup3\n        /* \"#utility.yul\":12979:12997   */\n      add\n        /* \"#utility.yul\":12971:12997   */\n      swap1\n      pop\n        /* \"#utility.yul\":13043:13052   */\n      dup2\n        /* \"#utility.yul\":13037:13041   */\n      dup2\n        /* \"#utility.yul\":13033:13053   */\n      sub\n        /* \"#utility.yul\":13029:13030   */\n      0x00\n        /* \"#utility.yul\":13018:13027   */\n      dup4\n        /* \"#utility.yul\":13014:13031   */\n      add\n        /* \"#utility.yul\":13007:13054   */\n      mstore\n        /* \"#utility.yul\":13071:13202   */\n      tag_305\n        /* \"#utility.yul\":13197:13201   */\n      dup2\n        /* \"#utility.yul\":13071:13202   */\n      tag_256\n      jump\t// in\n    tag_305:\n        /* \"#utility.yul\":13063:13202   */\n      swap1\n      pop\n        /* \"#utility.yul\":12961:13209   */\n      swap2\n      swap1\n      pop\n      jump\t// out\n        /* \"#utility.yul\":13215:13554   */\n    tag_70:\n      0x00\n        /* \"#utility.yul\":13404:13407   */\n      0xe0\n        /* \"#utility.yul\":13393:13402   */\n      dup3\n        /* \"#utility.yul\":13389:13408   */\n      add\n        /* \"#utility.yul\":13381:13408   */\n      swap1\n      pop\n        /* \"#utility.yul\":13418:13547   */\n      tag_307\n        /* \"#utility.yul\":13544:13545   */\n      0x00\n        /* \"#utility.yul\":13533:13542   */\n      dup4\n        /* \"#utility.yul\":13529:13546   */\n      add\n        /* \"#utility.yul\":13520:13526   */\n      dup5\n        /* \"#utility.yul\":13418:13547   */\n      tag_259\n      jump\t// in\n    tag_307:\n        /* \"#utility.yul\":13371:13554   */\n      swap3\n      swap2\n      pop\n      pop\n      jump\t// out\n        /* \"#utility.yul\":13560:13782   */\n    tag_33:\n      0x00\n        /* \"#utility.yul\":13691:13693   */\n      0x20\n        /* \"#utility.yul\":13680:13689   */\n      dup3\n        /* \"#utility.yul\":13676:13694   */\n      add\n        /* \"#utility.yul\":13668:13694   */\n      swap1\n      pop\n        /* \"#utility.yul\":13704:13775   */\n      tag_309\n        /* \"#utility.yul\":13772:13773   */\n      0x00\n        /* \"#utility.yul\":13761:13770   */\n      dup4\n        /* \"#utility.yul\":13757:13774   */\n      add\n        /* \"#utility.yul\":13748:13754   */\n      dup5\n        /* \"#utility.yul\":13704:13775   */\n      tag_272\n      jump\t// in\n    tag_309:\n        /* \"#utility.yul\":13658:13782   */\n      swap3\n      swap2\n      pop\n      pop\n      jump\t// out\n        /* \"#utility.yul\":13788:13957   */\n    tag_234:\n      0x00\n        /* \"#utility.yul\":13906:13912   */\n      dup3\n        /* \"#utility.yul\":13901:13904   */\n      dup3\n        /* \"#utility.yul\":13894:13913   */\n      mstore\n        /* \"#utility.yul\":13946:13950   */\n      0x20\n        /* \"#utility.yul\":13941:13944   */\n      dup3\n        /* \"#utility.yul\":13937:13951   */\n      add\n        /* \"#utility.yul\":13922:13951   */\n      swap1\n      pop\n        /* \"#utility.yul\":13884:13957   */\n      swap3\n      swap2\n      pop\n      pop\n      jump\t// out\n        /* \"#utility.yul\":13963:14268   */\n    tag_172:\n      0x00\n        /* \"#utility.yul\":14022:14042   */\n      tag_312\n        /* \"#utility.yul\":14040:14041   */\n      dup3\n        /* \"#utility.yul\":14022:14042   */\n      tag_271\n      jump\t// in\n    tag_312:\n        /* \"#utility.yul\":14017:14042   */\n      swap2\n      pop\n        /* \"#utility.yul\":14056:14076   */\n      tag_313\n        /* \"#utility.yul\":14074:14075   */\n      dup4\n        /* \"#utility.yul\":14056:14076   */\n      tag_271\n      jump\t// in\n    tag_313:\n        /* \"#utility.yul\":14051:14076   */\n      swap3\n      pop\n        /* \"#utility.yul\":14210:14211   */\n      dup3\n        /* \"#utility.yul\":14142:14208   */\n      0xffffffffffffffffffffffffffffffffffffffffffffffffffffffffffffffff\n        /* \"#utility.yul\":14138:14212   */\n      sub\n        /* \"#utility.yul\":14135:14136   */\n      dup3\n        /* \"#utility.yul\":14132:14213   */\n      gt\n        /* \"#utility.yul\":14129:14131   */\n      iszero\n      tag_314\n      jumpi\n        /* \"#utility.yul\":14216:14234   */\n      tag_315\n      tag_316\n      jump\t// in\n    tag_315:\n        /* \"#utility.yul\":14129:14131   */\n    tag_314:\n        /* \"#utility.yul\":14260:14261   */\n      dup3\n        /* \"#utility.yul\":14257:14258   */\n      dup3\n        /* \"#utility.yul\":14253:14262   */\n      add\n        /* \"#utility.yul\":14246:14262   */\n      swap1\n      pop\n        /* \"#utility.yul\":14007:14268   */\n      swap3\n      swap2\n      pop\n      pop\n      jump\t// out\n        /* \"#utility.yul\":14274:14465   */\n    tag_181:\n      0x00\n        /* \"#utility.yul\":14334:14354   */\n      tag_318\n        /* \"#utility.yul\":14352:14353   */\n      dup3\n        /* \"#utility.yul\":14334:14354   */\n      tag_271\n      jump\t// in\n    tag_318:\n        /* \"#utility.yul\":14329:14354   */\n      swap2\n      pop\n        /* \"#utility.yul\":14368:14388   */\n      tag_319\n        /* \"#utility.yul\":14386:14387   */\n      dup4\n        /* \"#utility.yul\":14368:14388   */\n      tag_271\n      jump\t// in\n    tag_319:\n        /* \"#utility.yul\":14363:14388   */\n      swap3\n      pop\n        /* \"#utility.yul\":14407:14408   */\n      dup3\n        /* \"#utility.yul\":14404:14405   */\n      dup3\n        /* \"#utility.yul\":14401:14409   */\n      lt\n        /* \"#utility.yul\":14398:14400   */\n      iszero\n      tag_320\n      jumpi\n        /* \"#utility.yul\":14412:14430   */\n      tag_321\n      tag_316\n      jump\t// in\n    tag_321:\n        /* \"#utility.yul\":14398:14400   */\n    tag_320:\n        /* \"#utility.yul\":14457:14458   */\n      dup3\n        /* \"#utility.yul\":14454:14455   */\n      dup3\n        /* \"#utility.yul\":14450:14459   */\n      sub\n        /* \"#utility.yul\":14442:14459   */\n      swap1\n      pop\n        /* \"#utility.yul\":14319:14465   */\n      swap3\n      swap2\n      pop\n      pop\n      jump\t// out\n        /* \"#utility.yul\":14471:14567   */\n    tag_218:\n      0x00\n        /* \"#utility.yul\":14537:14561   */\n      tag_323\n        /* \"#utility.yul\":14555:14560   */\n      dup3\n        /* \"#utility.yul\":14537:14561   */\n      tag_324\n      jump\t// in\n    tag_323:\n        /* \"#utility.yul\":14526:14561   */\n      swap1\n      pop\n        /* \"#utility.yul\":14516:14567   */\n      swap2\n      swap1\n      pop\n      jump\t// out\n        /* \"#utility.yul\":14573:14663   */\n    tag_230:\n      0x00\n        /* \"#utility.yul\":14650:14655   */\n      dup2\n        /* \"#utility.yul\":14643:14656   */\n      iszero\n        /* \"#utility.yul\":14636:14657   */\n      iszero\n        /* \"#utility.yul\":14625:14657   */\n      swap1\n      pop\n        /* \"#utility.yul\":14615:14663   */\n      swap2\n      swap1\n      pop\n      jump\t// out\n        /* \"#utility.yul\":14669:14795   */\n    tag_324:\n      0x00\n        /* \"#utility.yul\":14746:14788   */\n      0xffffffffffffffffffffffffffffffffffffffff\n        /* \"#utility.yul\":14739:14744   */\n      dup3\n        /* \"#utility.yul\":14735:14789   */\n      and\n        /* \"#utility.yul\":14724:14789   */\n      swap1\n      pop\n        /* \"#utility.yul\":14714:14795   */\n      swap2\n      swap1\n      pop\n      jump\t// out\n        /* \"#utility.yul\":14801:14878   */\n    tag_271:\n      0x00\n        /* \"#utility.yul\":14867:14872   */\n      dup2\n        /* \"#utility.yul\":14856:14872   */\n      swap1\n      pop\n        /* \"#utility.yul\":14846:14878   */\n      swap2\n      swap1\n      pop\n      jump\t// out\n        /* \"#utility.yul\":14884:14984   */\n    tag_226:\n      0x00\n        /* \"#utility.yul\":14952:14978   */\n      tag_329\n        /* \"#utility.yul\":14972:14977   */\n      dup3\n        /* \"#utility.yul\":14952:14978   */\n      tag_330\n      jump\t// in\n    tag_329:\n        /* \"#utility.yul\":14941:14978   */\n      swap1\n      pop\n        /* \"#utility.yul\":14931:14984   */\n      swap2\n      swap1\n      pop\n      jump\t// out\n        /* \"#utility.yul\":14990:15084   */\n    tag_330:\n      0x00\n        /* \"#utility.yul\":15058:15078   */\n      tag_332\n        /* \"#utility.yul\":15072:15077   */\n      dup3\n        /* \"#utility.yul\":15058:15078   */\n      tag_333\n      jump\t// in\n    tag_332:\n        /* \"#utility.yul\":15047:15078   */\n      swap1\n      pop\n        /* \"#utility.yul\":15037:15084   */\n      swap2\n      swap1\n      pop\n      jump\t// out\n        /* \"#utility.yul\":15090:15169   */\n    tag_279:\n      0x00\n        /* \"#utility.yul\":15158:15163   */\n      dup2\n        /* \"#utility.yul\":15147:15163   */\n      swap1\n      pop\n        /* \"#utility.yul\":15137:15169   */\n      swap2\n      swap1\n      pop\n      jump\t// out\n        /* \"#utility.yul\":15175:15351   */\n    tag_178:\n      0x00\n        /* \"#utility.yul\":15224:15244   */\n      tag_336\n        /* \"#utility.yul\":15242:15243   */\n      dup3\n        /* \"#utility.yul\":15224:15244   */\n      tag_271\n      jump\t// in\n    tag_336:\n        /* \"#utility.yul\":15219:15244   */\n      swap2\n      pop\n        /* \"#utility.yul\":15258:15278   */\n      tag_337\n        /* \"#utility.yul\":15276:15277   */\n      dup4\n        /* \"#utility.yul\":15258:15278   */\n      tag_271\n      jump\t// in\n    tag_337:\n        /* \"#utility.yul\":15253:15278   */\n      swap3\n      pop\n        /* \"#utility.yul\":15297:15298   */\n      dup3\n        /* \"#utility.yul\":15287:15289   */\n      tag_338\n      jumpi\n        /* \"#utility.yul\":15302:15320   */\n      tag_339\n      tag_340\n      jump\t// in\n    tag_339:\n        /* \"#utility.yul\":15287:15289   */\n    tag_338:\n        /* \"#utility.yul\":15343:15344   */\n      dup3\n        /* \"#utility.yul\":15340:15341   */\n      dup3\n        /* \"#utility.yul\":15336:15345   */\n      mod\n        /* \"#utility.yul\":15331:15345   */\n      swap1\n      pop\n        /* \"#utility.yul\":15209:15351   */\n      swap3\n      swap2\n      pop\n      pop\n      jump\t// out\n        /* \"#utility.yul\":15357:15537   */\n    tag_316:\n        /* \"#utility.yul\":15405:15482   */\n      0x4e487b7100000000000000000000000000000000000000000000000000000000\n        /* \"#utility.yul\":15402:15403   */\n      0x00\n        /* \"#utility.yul\":15395:15483   */\n      mstore\n        /* \"#utility.yul\":15502:15506   */\n      0x11\n        /* \"#utility.yul\":15499:15500   */\n      0x04\n        /* \"#utility.yul\":15492:15507   */\n      mstore\n        /* \"#utility.yul\":15526:15530   */\n      0x24\n        /* \"#utility.yul\":15523:15524   */\n      0x00\n        /* \"#utility.yul\":15516:15531   */\n      revert\n        /* \"#utility.yul\":15543:15723   */\n    tag_340:\n        /* \"#utility.yul\":15591:15668   */\n      0x4e487b7100000000000000000000000000000000000000000000000000000000\n        /* \"#utility.yul\":15588:15589   */\n      0x00\n        /* \"#utility.yul\":15581:15669   */\n      mstore\n        /* \"#utility.yul\":15688:15692   */\n      0x12\n        /* \"#utility.yul\":15685:15686   */\n      0x04\n        /* \"#utility.yul\":15678:15693   */\n      mstore\n        /* \"#utility.yul\":15712:15716   */\n      0x24\n        /* \"#utility.yul\":15709:15710   */\n      0x00\n        /* \"#utility.yul\":15702:15717   */\n      revert\n        /* \"#utility.yul\":15729:15823   */\n    tag_333:\n      0x00\n        /* \"#utility.yul\":15810:15815   */\n      dup2\n        /* \"#utility.yul\":15806:15808   */\n      0x60\n        /* \"#utility.yul\":15802:15816   */\n      shl\n        /* \"#utility.yul\":15781:15816   */\n      swap1\n      pop\n        /* \"#utility.yul\":15771:15823   */\n      swap2\n      swap1\n      pop\n      jump\t// out\n        /* \"#utility.yul\":15829:15951   */\n    tag_186:\n        /* \"#utility.yul\":15902:15926   */\n      tag_345\n        /* \"#utility.yul\":15920:15925   */\n      dup2\n        /* \"#utility.yul\":15902:15926   */\n      tag_218\n      jump\t// in\n    tag_345:\n        /* \"#utility.yul\":15895:15900   */\n      dup2\n        /* \"#utility.yul\":15892:15927   */\n      eq\n        /* \"#utility.yul\":15882:15884   */\n      tag_346\n      jumpi\n        /* \"#utility.yul\":15941:15942   */\n      0x00\n        /* \"#utility.yul\":15938:15939   */\n      dup1\n        /* \"#utility.yul\":15931:15943   */\n      revert\n        /* \"#utility.yul\":15882:15884   */\n    tag_346:\n        /* \"#utility.yul\":15872:15951   */\n      pop\n      jump\t// out\n        /* \"#utility.yul\":15957:16073   */\n    tag_190:\n        /* \"#utility.yul\":16027:16048   */\n      tag_348\n        /* \"#utility.yul\":16042:16047   */\n      dup2\n        /* \"#utility.yul\":16027:16048   */\n      tag_230\n      jump\t// in\n    tag_348:\n        /* \"#utility.yul\":16020:16025   */\n      dup2\n        /* \"#utility.yul\":16017:16049   */\n      eq\n        /* \"#utility.yul\":16007:16009   */\n      tag_349\n      jumpi\n        /* \"#utility.yul\":16063:16064   */\n      0x00\n        /* \"#utility.yul\":16060:16061   */\n      dup1\n        /* \"#utility.yul\":16053:16065   */\n      revert\n        /* \"#utility.yul\":16007:16009   */\n    tag_349:\n        /* \"#utility.yul\":15997:16073   */\n      pop\n      jump\t// out\n        /* \"#utility.yul\":16079:16201   */\n    tag_194:\n        /* \"#utility.yul\":16152:16176   */\n      tag_351\n        /* \"#utility.yul\":16170:16175   */\n      dup2\n        /* \"#utility.yul\":16152:16176   */\n      tag_271\n      jump\t// in\n    tag_351:\n        /* \"#utility.yul\":16145:16150   */\n      dup2\n        /* \"#utility.yul\":16142:16177   */\n      eq\n        /* \"#utility.yul\":16132:16134   */\n      tag_352\n      jumpi\n        /* \"#utility.yul\":16191:16192   */\n      0x00\n        /* \"#utility.yul\":16188:16189   */\n      dup1\n        /* \"#utility.yul\":16181:16193   */\n      revert\n        /* \"#utility.yul\":16132:16134   */\n    tag_352:\n        /* \"#utility.yul\":16122:16201   */\n      pop\n      jump\t// out\n\n    auxdata: 0xa264697066735822122061fb9ffc5c1d07d250691e9e4dc602176bf1b22896534aa7fd603929d5471c2264736f6c63430008000033\n}\n",
				"bytecode": {
					"linkReferences": {},
					"object": "60806040523480156200001157600080fd5b5060405162001d2638038062001d268339818101604052810190620000379190620001cf565b620000576200004b620000ec60201b60201c565b620000f460201b60201c565b80600073ffffffffffffffffffffffffffffffffffffffff168173ffffffffffffffffffffffffffffffffffffffff1614156200009357600080fd5b81600160006101000a81548173ffffffffffffffffffffffffffffffffffffffff021916908373ffffffffffffffffffffffffffffffffffffffff160217905550600a6003819055506001600581905550505062000249565b600033905090565b60008060009054906101000a900473ffffffffffffffffffffffffffffffffffffffff169050816000806101000a81548173ffffffffffffffffffffffffffffffffffffffff021916908373ffffffffffffffffffffffffffffffffffffffff1602179055508173ffffffffffffffffffffffffffffffffffffffff168173ffffffffffffffffffffffffffffffffffffffff167f8be0079c531659141344cd1fd0a4f28419497f9722a3daafe3b4186f6b6457e060405160405180910390a35050565b600081519050620001c9816200022f565b92915050565b600060208284031215620001e257600080fd5b6000620001f284828501620001b8565b91505092915050565b600062000208826200020f565b9050919050565b600073ffffffffffffffffffffffffffffffffffffffff82169050919050565b6200023a81620001fb565b81146200024657600080fd5b50565b611acd80620002596000396000f3fe6080604052600436106100ab5760003560e01c80638446464e116100645780638446464e1461019c5780638da5cb5b146101c55780639c42ad76146101f0578063c93a7f6e1461022d578063decb4abc14610258578063f2fde38b14610295576100b2565b8063110809c7146100b457806311e1512d146100dd5780631a360f35146101065780633f4dd26814610131578063715018a61461015a57806378651b4214610171576100b2565b366100b257005b005b3480156100c057600080fd5b506100db60048036038101906100d691906111dd565b6102be565b005b3480156100e957600080fd5b5061010460048036038101906100ff91906111dd565b610344565b005b34801561011257600080fd5b5061011b6103ca565b604051610128919061188a565b60405180910390f35b34801561013d57600080fd5b5061015860048036038101906101539190611206565b6103d4565b005b34801561016657600080fd5b5061016f61069b565b005b34801561017d57600080fd5b50610186610723565b604051610193919061188a565b60405180910390f35b3480156101a857600080fd5b506101c360048036038101906101be919061113d565b61072d565b005b3480156101d157600080fd5b506101da610afc565b6040516101e7919061170b565b60405180910390f35b3480156101fc57600080fd5b50610217600480360381019061021291906111dd565b610b25565b604051610224919061188a565b60405180910390f35b34801561023957600080fd5b50610242610cc3565b60405161024f919061188a565b60405180910390f35b34801561026457600080fd5b5061027f600480360381019061027a91906111dd565b610ccd565b60405161028c919061186f565b60405180910390f35b3480156102a157600080fd5b506102bc60048036038101906102b79190611114565b610e4b565b005b6102c6610f43565b73ffffffffffffffffffffffffffffffffffffffff166102e4610afc565b73ffffffffffffffffffffffffffffffffffffffff161461033a576040517f08c379a00000000000000000000000000000000000000000000000000000000081526004016103319061182f565b60405180910390fd5b8060038190555050565b61034c610f43565b73ffffffffffffffffffffffffffffffffffffffff1661036a610afc565b73ffffffffffffffffffffffffffffffffffffffff16146103c0576040517f08c379a00000000000000000000000000000000000000000000000000000000081526004016103b79061182f565b60405180910390fd5b8060058190555050565b6000600354905090565b6001151560066000600254815260200190815260200160002060060160009054906101000a900460ff1615151461040a57600080fd5b610412610afc565b73ffffffffffffffffffffffffffffffffffffffff16610430610f43565b73ffffffffffffffffffffffffffffffffffffffff1614806104bc575060066000600254815260200190815260200160002060000160009054906101000a900473ffffffffffffffffffffffffffffffffffffffff1673ffffffffffffffffffffffffffffffffffffffff166104a4610f43565b73ffffffffffffffffffffffffffffffffffffffff16145b6104fb576040517f08c379a00000000000000000000000000000000000000000000000000000000081526004016104f29061184f565b60405180910390fd5b60006006600060025481526020019081526020016000206040518060e00160405290816000820160009054906101000a900473ffffffffffffffffffffffffffffffffffffffff1673ffffffffffffffffffffffffffffffffffffffff1673ffffffffffffffffffffffffffffffffffffffff16815260200160018201548152602001600282015481526020016003820154815260200160048201548152602001600582015481526020016006820160009054906101000a900460ff16151515158152505090506105d9828260a00151610f4b90919063ffffffff16565b8160a0018181525050600160009054906101000a900473ffffffffffffffffffffffffffffffffffffffff1673ffffffffffffffffffffffffffffffffffffffff1663a9059cbb8260000151846040518363ffffffff1660e01b8152600401610643929190611726565b602060405180830381600087803b15801561065d57600080fd5b505af1158015610671573d6000803e3d6000fd5b505050506040513d601f19601f8201168201806040525081019061069591906111b4565b50505050565b6106a3610f43565b73ffffffffffffffffffffffffffffffffffffffff166106c1610afc565b73ffffffffffffffffffffffffffffffffffffffff1614610717576040517f08c379a000000000000000000000000000000000000000000000000000000000815260040161070e9061182f565b60405180910390fd5b6107216000610f61565b565b6000600454905090565b610735610f43565b73ffffffffffffffffffffffffffffffffffffffff16610753610afc565b73ffffffffffffffffffffffffffffffffffffffff16146107a9576040517f08c379a00000000000000000000000000000000000000000000000000000000081526004016107a09061182f565b60405180910390fd5b600073ffffffffffffffffffffffffffffffffffffffff168573ffffffffffffffffffffffffffffffffffffffff161415610819576040517f08c379a0000000000000000000000000000000000000000000000000000000008152600401610810906117cf565b60405180910390fd5b6000831161085c576040517f08c379a00000000000000000000000000000000000000000000000000000000081526004016108539061178f565b60405180910390fd5b6000811161089f576040517f08c379a00000000000000000000000000000000000000000000000000000000081526004016108969061180f565b60405180910390fd5b600554600760008773ffffffffffffffffffffffffffffffffffffffff1673ffffffffffffffffffffffffffffffffffffffff1681526020019081526020016000208054905010610925576040517f08c379a000000000000000000000000000000000000000000000000000000000815260040161091c906117af565b60405180910390fd5b60006040518060e001604052808773ffffffffffffffffffffffffffffffffffffffff1681526020018681526020018581526020018481526020018381526020016000815260200160011515815250905061098286600454611025565b60028190555060076000826000015173ffffffffffffffffffffffffffffffffffffffff1673ffffffffffffffffffffffffffffffffffffffff16815260200190815260200160002060025490806001815401808255809150506001900390600052602060002001600090919091909150558060066000600254815260200190815260200160002060008201518160000160006101000a81548173ffffffffffffffffffffffffffffffffffffffff021916908373ffffffffffffffffffffffffffffffffffffffff1602179055506020820151816001015560408201518160020155606082015181600301556080820151816004015560a0820151816005015560c08201518160060160006101000a81548160ff021916908315150217905550905050610abc6001600454610f4b90919063ffffffff16565b507f03ac17a064e5f9f8a942a4e1b3d07157fa74128806fab9b656a6b986182ffad181604051610aec919061186f565b60405180910390a1505050505050565b60008060009054906101000a900473ffffffffffffffffffffffffffffffffffffffff16905090565b60006002548210610b6b576040517f08c379a0000000000000000000000000000000000000000000000000000000008152600401610b629061174f565b60405180910390fd5b600115156006600084815260200190815260200160002060060160009054906101000a900460ff16151514610bd5576040517f08c379a0000000000000000000000000000000000000000000000000000000008152600401610bcc906117ef565b60405180910390fd5b6000600660008481526020019081526020016000206040518060e00160405290816000820160009054906101000a900473ffffffffffffffffffffffffffffffffffffffff1673ffffffffffffffffffffffffffffffffffffffff1673ffffffffffffffffffffffffffffffffffffffff16815260200160018201548152602001600282015481526020016003820154815260200160048201548152602001600582015481526020016006820160009054906101000a900460ff16151515158152505090506000610cb78260a00151836080015161106a90919063ffffffff16565b90508092505050919050565b6000600554905090565b610cd5611080565b6002548210610d19576040517f08c379a0000000000000000000000000000000000000000000000000000000008152600401610d109061174f565b60405180910390fd5b600115156006600084815260200190815260200160002060060160009054906101000a900460ff16151514610d83576040517f08c379a0000000000000000000000000000000000000000000000000000000008152600401610d7a906117ef565b60405180910390fd5b600660008381526020019081526020016000206040518060e00160405290816000820160009054906101000a900473ffffffffffffffffffffffffffffffffffffffff1673ffffffffffffffffffffffffffffffffffffffff1673ffffffffffffffffffffffffffffffffffffffff16815260200160018201548152602001600282015481526020016003820154815260200160048201548152602001600582015481526020016006820160009054906101000a900460ff1615151515815250509050919050565b610e53610f43565b73ffffffffffffffffffffffffffffffffffffffff16610e71610afc565b73ffffffffffffffffffffffffffffffffffffffff1614610ec7576040517f08c379a0000000000000000000000000000000000000000000000000000000008152600401610ebe9061182f565b60405180910390fd5b600073ffffffffffffffffffffffffffffffffffffffff168173ffffffffffffffffffffffffffffffffffffffff161415610f37576040517f08c379a0000000000000000000000000000000000000000000000000000000008152600401610f2e9061176f565b60405180910390fd5b610f4081610f61565b50565b600033905090565b60008183610f5991906118b6565b905092915050565b60008060009054906101000a900473ffffffffffffffffffffffffffffffffffffffff169050816000806101000a81548173ffffffffffffffffffffffffffffffffffffffff021916908373ffffffffffffffffffffffffffffffffffffffff1602179055508173ffffffffffffffffffffffffffffffffffffffff168173ffffffffffffffffffffffffffffffffffffffff167f8be0079c531659141344cd1fd0a4f28419497f9722a3daafe3b4186f6b6457e060405160405180910390a35050565b6000633b9aca00838360405160200161103f9291906116df565b6040516020818303038152906040528051906020012060001c61106291906119b6565b905092915050565b60008183611078919061190c565b905092915050565b6040518060e00160405280600073ffffffffffffffffffffffffffffffffffffffff16815260200160008152602001600081526020016000815260200160008152602001600081526020016000151581525090565b6000813590506110e481611a52565b92915050565b6000815190506110f981611a69565b92915050565b60008135905061110e81611a80565b92915050565b60006020828403121561112657600080fd5b6000611134848285016110d5565b91505092915050565b600080600080600060a0868803121561115557600080fd5b6000611163888289016110d5565b9550506020611174888289016110ff565b9450506040611185888289016110ff565b9350506060611196888289016110ff565b92505060806111a7888289016110ff565b9150509295509295909350565b6000602082840312156111c657600080fd5b60006111d4848285016110ea565b91505092915050565b6000602082840312156111ef57600080fd5b60006111fd848285016110ff565b91505092915050565b6000806040838503121561121957600080fd5b6000611227858286016110ff565b9250506020611238858286016110ff565b9150509250929050565b61124b81611940565b82525050565b61125a81611940565b82525050565b61127161126c82611940565b611988565b82525050565b61128081611952565b82525050565b60006112936025836118a5565b91507f546f6b656e56657374696e673a20536368656d65204964206f7574206f66206260008301527f6f756e64730000000000000000000000000000000000000000000000000000006020830152604082019050919050565b60006112f96026836118a5565b91507f4f776e61626c653a206e6577206f776e657220697320746865207a65726f206160008301527f64647265737300000000000000000000000000000000000000000000000000006020830152604082019050919050565b600061135f6036836118a5565b91507f546f6b656e56657374696e673a2056657374696e6720706572696f64206d757360008301527f742062652067726561746572207468616e207a65726f000000000000000000006020830152604082019050919050565b60006113c56042836118a5565b91507f546f6b656e56657374696e673a20536368656d6520636f756e7420666f72207460008301527f6869732062656e6566696369617279206861732072656163686564206c696d6960208301527f742e0000000000000000000000000000000000000000000000000000000000006040830152606082019050919050565b60006114516034836118a5565b91507f546f6b656e56657374696e673a2043616e6e6f7420616464207a65726f20616460008301527f64726573732061732062656e65666963696172790000000000000000000000006020830152604082019050919050565b60006114b76040836118a5565b91507f546f6b656e56657374696e673a2056657374696e6720536368656d652069732060008301527f6569746865722064656c65746564206f7220646f6573206e6f742065786973746020830152604082019050919050565b600061151d6034836118a5565b91507f546f6b656e56657374696e673a205665737461626c6520616d6f756e74206d7560008301527f73742062652067726561746572207468616e20300000000000000000000000006020830152604082019050919050565b60006115836020836118a5565b91507f4f776e61626c653a2063616c6c6572206973206e6f7420746865206f776e65726000830152602082019050919050565b60006115c36031836118a5565b91507f546f6b656e56657374696e673a2043616c6c6572206d757374206265206f776e60008301527f6572206f722062656e65666963696172790000000000000000000000000000006020830152604082019050919050565b60e0820160008201516116326000850182611242565b50602082015161164560208501826116aa565b50604082015161165860408501826116aa565b50606082015161166b60608501826116aa565b50608082015161167e60808501826116aa565b5060a082015161169160a08501826116aa565b5060c08201516116a460c0850182611277565b50505050565b6116b38161197e565b82525050565b6116c28161197e565b82525050565b6116d96116d48261197e565b6119ac565b82525050565b60006116eb8285611260565b6014820191506116fb82846116c8565b6020820191508190509392505050565b60006020820190506117206000830184611251565b92915050565b600060408201905061173b6000830185611251565b61174860208301846116b9565b9392505050565b6000602082019050818103600083015261176881611286565b9050919050565b60006020820190508181036000830152611788816112ec565b9050919050565b600060208201905081810360008301526117a881611352565b9050919050565b600060208201905081810360008301526117c8816113b8565b9050919050565b600060208201905081810360008301526117e881611444565b9050919050565b60006020820190508181036000830152611808816114aa565b9050919050565b6000602082019050818103600083015261182881611510565b9050919050565b6000602082019050818103600083015261184881611576565b9050919050565b60006020820190508181036000830152611868816115b6565b9050919050565b600060e082019050611884600083018461161c565b92915050565b600060208201905061189f60008301846116b9565b92915050565b600082825260208201905092915050565b60006118c18261197e565b91506118cc8361197e565b9250827fffffffffffffffffffffffffffffffffffffffffffffffffffffffffffffffff03821115611901576119006119e7565b5b828201905092915050565b60006119178261197e565b91506119228361197e565b925082821015611935576119346119e7565b5b828203905092915050565b600061194b8261195e565b9050919050565b60008115159050919050565b600073ffffffffffffffffffffffffffffffffffffffff82169050919050565b6000819050919050565b60006119938261199a565b9050919050565b60006119a582611a45565b9050919050565b6000819050919050565b60006119c18261197e565b91506119cc8361197e565b9250826119dc576119db611a16565b5b828206905092915050565b7f4e487b7100000000000000000000000000000000000000000000000000000000600052601160045260246000fd5b7f4e487b7100000000000000000000000000000000000000000000000000000000600052601260045260246000fd5b60008160601b9050919050565b611a5b81611940565b8114611a6657600080fd5b50565b611a7281611952565b8114611a7d57600080fd5b50565b611a898161197e565b8114611a9457600080fd5b5056fea264697066735822122061fb9ffc5c1d07d250691e9e4dc602176bf1b22896534aa7fd603929d5471c2264736f6c63430008000033",
					"opcodes": "PUSH1 0x80 PUSH1 0x40 MSTORE CALLVALUE DUP1 ISZERO PUSH3 0x11 JUMPI PUSH1 0x0 DUP1 REVERT JUMPDEST POP PUSH1 0x40 MLOAD PUSH3 0x1D26 CODESIZE SUB DUP1 PUSH3 0x1D26 DUP4 CODECOPY DUP2 DUP2 ADD PUSH1 0x40 MSTORE DUP2 ADD SWAP1 PUSH3 0x37 SWAP2 SWAP1 PUSH3 0x1CF JUMP JUMPDEST PUSH3 0x57 PUSH3 0x4B PUSH3 0xEC PUSH1 0x20 SHL PUSH1 0x20 SHR JUMP JUMPDEST PUSH3 0xF4 PUSH1 0x20 SHL PUSH1 0x20 SHR JUMP JUMPDEST DUP1 PUSH1 0x0 PUSH20 0xFFFFFFFFFFFFFFFFFFFFFFFFFFFFFFFFFFFFFFFF AND DUP2 PUSH20 0xFFFFFFFFFFFFFFFFFFFFFFFFFFFFFFFFFFFFFFFF AND EQ ISZERO PUSH3 0x93 JUMPI PUSH1 0x0 DUP1 REVERT JUMPDEST DUP2 PUSH1 0x1 PUSH1 0x0 PUSH2 0x100 EXP DUP2 SLOAD DUP2 PUSH20 0xFFFFFFFFFFFFFFFFFFFFFFFFFFFFFFFFFFFFFFFF MUL NOT AND SWAP1 DUP4 PUSH20 0xFFFFFFFFFFFFFFFFFFFFFFFFFFFFFFFFFFFFFFFF AND MUL OR SWAP1 SSTORE POP PUSH1 0xA PUSH1 0x3 DUP2 SWAP1 SSTORE POP PUSH1 0x1 PUSH1 0x5 DUP2 SWAP1 SSTORE POP POP POP PUSH3 0x249 JUMP JUMPDEST PUSH1 0x0 CALLER SWAP1 POP SWAP1 JUMP JUMPDEST PUSH1 0x0 DUP1 PUSH1 0x0 SWAP1 SLOAD SWAP1 PUSH2 0x100 EXP SWAP1 DIV PUSH20 0xFFFFFFFFFFFFFFFFFFFFFFFFFFFFFFFFFFFFFFFF AND SWAP1 POP DUP2 PUSH1 0x0 DUP1 PUSH2 0x100 EXP DUP2 SLOAD DUP2 PUSH20 0xFFFFFFFFFFFFFFFFFFFFFFFFFFFFFFFFFFFFFFFF MUL NOT AND SWAP1 DUP4 PUSH20 0xFFFFFFFFFFFFFFFFFFFFFFFFFFFFFFFFFFFFFFFF AND MUL OR SWAP1 SSTORE POP DUP2 PUSH20 0xFFFFFFFFFFFFFFFFFFFFFFFFFFFFFFFFFFFFFFFF AND DUP2 PUSH20 0xFFFFFFFFFFFFFFFFFFFFFFFFFFFFFFFFFFFFFFFF AND PUSH32 0x8BE0079C531659141344CD1FD0A4F28419497F9722A3DAAFE3B4186F6B6457E0 PUSH1 0x40 MLOAD PUSH1 0x40 MLOAD DUP1 SWAP2 SUB SWAP1 LOG3 POP POP JUMP JUMPDEST PUSH1 0x0 DUP2 MLOAD SWAP1 POP PUSH3 0x1C9 DUP2 PUSH3 0x22F JUMP JUMPDEST SWAP3 SWAP2 POP POP JUMP JUMPDEST PUSH1 0x0 PUSH1 0x20 DUP3 DUP5 SUB SLT ISZERO PUSH3 0x1E2 JUMPI PUSH1 0x0 DUP1 REVERT JUMPDEST PUSH1 0x0 PUSH3 0x1F2 DUP5 DUP3 DUP6 ADD PUSH3 0x1B8 JUMP JUMPDEST SWAP2 POP POP SWAP3 SWAP2 POP POP JUMP JUMPDEST PUSH1 0x0 PUSH3 0x208 DUP3 PUSH3 0x20F JUMP JUMPDEST SWAP1 POP SWAP2 SWAP1 POP JUMP JUMPDEST PUSH1 0x0 PUSH20 0xFFFFFFFFFFFFFFFFFFFFFFFFFFFFFFFFFFFFFFFF DUP3 AND SWAP1 POP SWAP2 SWAP1 POP JUMP JUMPDEST PUSH3 0x23A DUP2 PUSH3 0x1FB JUMP JUMPDEST DUP2 EQ PUSH3 0x246 JUMPI PUSH1 0x0 DUP1 REVERT JUMPDEST POP JUMP JUMPDEST PUSH2 0x1ACD DUP1 PUSH3 0x259 PUSH1 0x0 CODECOPY PUSH1 0x0 RETURN INVALID PUSH1 0x80 PUSH1 0x40 MSTORE PUSH1 0x4 CALLDATASIZE LT PUSH2 0xAB JUMPI PUSH1 0x0 CALLDATALOAD PUSH1 0xE0 SHR DUP1 PUSH4 0x8446464E GT PUSH2 0x64 JUMPI DUP1 PUSH4 0x8446464E EQ PUSH2 0x19C JUMPI DUP1 PUSH4 0x8DA5CB5B EQ PUSH2 0x1C5 JUMPI DUP1 PUSH4 0x9C42AD76 EQ PUSH2 0x1F0 JUMPI DUP1 PUSH4 0xC93A7F6E EQ PUSH2 0x22D JUMPI DUP1 PUSH4 0xDECB4ABC EQ PUSH2 0x258 JUMPI DUP1 PUSH4 0xF2FDE38B EQ PUSH2 0x295 JUMPI PUSH2 0xB2 JUMP JUMPDEST DUP1 PUSH4 0x110809C7 EQ PUSH2 0xB4 JUMPI DUP1 PUSH4 0x11E1512D EQ PUSH2 0xDD JUMPI DUP1 PUSH4 0x1A360F35 EQ PUSH2 0x106 JUMPI DUP1 PUSH4 0x3F4DD268 EQ PUSH2 0x131 JUMPI DUP1 PUSH4 0x715018A6 EQ PUSH2 0x15A JUMPI DUP1 PUSH4 0x78651B42 EQ PUSH2 0x171 JUMPI PUSH2 0xB2 JUMP JUMPDEST CALLDATASIZE PUSH2 0xB2 JUMPI STOP JUMPDEST STOP JUMPDEST CALLVALUE DUP1 ISZERO PUSH2 0xC0 JUMPI PUSH1 0x0 DUP1 REVERT JUMPDEST POP PUSH2 0xDB PUSH1 0x4 DUP1 CALLDATASIZE SUB DUP2 ADD SWAP1 PUSH2 0xD6 SWAP2 SWAP1 PUSH2 0x11DD JUMP JUMPDEST PUSH2 0x2BE JUMP JUMPDEST STOP JUMPDEST CALLVALUE DUP1 ISZERO PUSH2 0xE9 JUMPI PUSH1 0x0 DUP1 REVERT JUMPDEST POP PUSH2 0x104 PUSH1 0x4 DUP1 CALLDATASIZE SUB DUP2 ADD SWAP1 PUSH2 0xFF SWAP2 SWAP1 PUSH2 0x11DD JUMP JUMPDEST PUSH2 0x344 JUMP JUMPDEST STOP JUMPDEST CALLVALUE DUP1 ISZERO PUSH2 0x112 JUMPI PUSH1 0x0 DUP1 REVERT JUMPDEST POP PUSH2 0x11B PUSH2 0x3CA JUMP JUMPDEST PUSH1 0x40 MLOAD PUSH2 0x128 SWAP2 SWAP1 PUSH2 0x188A JUMP JUMPDEST PUSH1 0x40 MLOAD DUP1 SWAP2 SUB SWAP1 RETURN JUMPDEST CALLVALUE DUP1 ISZERO PUSH2 0x13D JUMPI PUSH1 0x0 DUP1 REVERT JUMPDEST POP PUSH2 0x158 PUSH1 0x4 DUP1 CALLDATASIZE SUB DUP2 ADD SWAP1 PUSH2 0x153 SWAP2 SWAP1 PUSH2 0x1206 JUMP JUMPDEST PUSH2 0x3D4 JUMP JUMPDEST STOP JUMPDEST CALLVALUE DUP1 ISZERO PUSH2 0x166 JUMPI PUSH1 0x0 DUP1 REVERT JUMPDEST POP PUSH2 0x16F PUSH2 0x69B JUMP JUMPDEST STOP JUMPDEST CALLVALUE DUP1 ISZERO PUSH2 0x17D JUMPI PUSH1 0x0 DUP1 REVERT JUMPDEST POP PUSH2 0x186 PUSH2 0x723 JUMP JUMPDEST PUSH1 0x40 MLOAD PUSH2 0x193 SWAP2 SWAP1 PUSH2 0x188A JUMP JUMPDEST PUSH1 0x40 MLOAD DUP1 SWAP2 SUB SWAP1 RETURN JUMPDEST CALLVALUE DUP1 ISZERO PUSH2 0x1A8 JUMPI PUSH1 0x0 DUP1 REVERT JUMPDEST POP PUSH2 0x1C3 PUSH1 0x4 DUP1 CALLDATASIZE SUB DUP2 ADD SWAP1 PUSH2 0x1BE SWAP2 SWAP1 PUSH2 0x113D JUMP JUMPDEST PUSH2 0x72D JUMP JUMPDEST STOP JUMPDEST CALLVALUE DUP1 ISZERO PUSH2 0x1D1 JUMPI PUSH1 0x0 DUP1 REVERT JUMPDEST POP PUSH2 0x1DA PUSH2 0xAFC JUMP JUMPDEST PUSH1 0x40 MLOAD PUSH2 0x1E7 SWAP2 SWAP1 PUSH2 0x170B JUMP JUMPDEST PUSH1 0x40 MLOAD DUP1 SWAP2 SUB SWAP1 RETURN JUMPDEST CALLVALUE DUP1 ISZERO PUSH2 0x1FC JUMPI PUSH1 0x0 DUP1 REVERT JUMPDEST POP PUSH2 0x217 PUSH1 0x4 DUP1 CALLDATASIZE SUB DUP2 ADD SWAP1 PUSH2 0x212 SWAP2 SWAP1 PUSH2 0x11DD JUMP JUMPDEST PUSH2 0xB25 JUMP JUMPDEST PUSH1 0x40 MLOAD PUSH2 0x224 SWAP2 SWAP1 PUSH2 0x188A JUMP JUMPDEST PUSH1 0x40 MLOAD DUP1 SWAP2 SUB SWAP1 RETURN JUMPDEST CALLVALUE DUP1 ISZERO PUSH2 0x239 JUMPI PUSH1 0x0 DUP1 REVERT JUMPDEST POP PUSH2 0x242 PUSH2 0xCC3 JUMP JUMPDEST PUSH1 0x40 MLOAD PUSH2 0x24F SWAP2 SWAP1 PUSH2 0x188A JUMP JUMPDEST PUSH1 0x40 MLOAD DUP1 SWAP2 SUB SWAP1 RETURN JUMPDEST CALLVALUE DUP1 ISZERO PUSH2 0x264 JUMPI PUSH1 0x0 DUP1 REVERT JUMPDEST POP PUSH2 0x27F PUSH1 0x4 DUP1 CALLDATASIZE SUB DUP2 ADD SWAP1 PUSH2 0x27A SWAP2 SWAP1 PUSH2 0x11DD JUMP JUMPDEST PUSH2 0xCCD JUMP JUMPDEST PUSH1 0x40 MLOAD PUSH2 0x28C SWAP2 SWAP1 PUSH2 0x186F JUMP JUMPDEST PUSH1 0x40 MLOAD DUP1 SWAP2 SUB SWAP1 RETURN JUMPDEST CALLVALUE DUP1 ISZERO PUSH2 0x2A1 JUMPI PUSH1 0x0 DUP1 REVERT JUMPDEST POP PUSH2 0x2BC PUSH1 0x4 DUP1 CALLDATASIZE SUB DUP2 ADD SWAP1 PUSH2 0x2B7 SWAP2 SWAP1 PUSH2 0x1114 JUMP JUMPDEST PUSH2 0xE4B JUMP JUMPDEST STOP JUMPDEST PUSH2 0x2C6 PUSH2 0xF43 JUMP JUMPDEST PUSH20 0xFFFFFFFFFFFFFFFFFFFFFFFFFFFFFFFFFFFFFFFF AND PUSH2 0x2E4 PUSH2 0xAFC JUMP JUMPDEST PUSH20 0xFFFFFFFFFFFFFFFFFFFFFFFFFFFFFFFFFFFFFFFF AND EQ PUSH2 0x33A JUMPI PUSH1 0x40 MLOAD PUSH32 0x8C379A000000000000000000000000000000000000000000000000000000000 DUP2 MSTORE PUSH1 0x4 ADD PUSH2 0x331 SWAP1 PUSH2 0x182F JUMP JUMPDEST PUSH1 0x40 MLOAD DUP1 SWAP2 SUB SWAP1 REVERT JUMPDEST DUP1 PUSH1 0x3 DUP2 SWAP1 SSTORE POP POP JUMP JUMPDEST PUSH2 0x34C PUSH2 0xF43 JUMP JUMPDEST PUSH20 0xFFFFFFFFFFFFFFFFFFFFFFFFFFFFFFFFFFFFFFFF AND PUSH2 0x36A PUSH2 0xAFC JUMP JUMPDEST PUSH20 0xFFFFFFFFFFFFFFFFFFFFFFFFFFFFFFFFFFFFFFFF AND EQ PUSH2 0x3C0 JUMPI PUSH1 0x40 MLOAD PUSH32 0x8C379A000000000000000000000000000000000000000000000000000000000 DUP2 MSTORE PUSH1 0x4 ADD PUSH2 0x3B7 SWAP1 PUSH2 0x182F JUMP JUMPDEST PUSH1 0x40 MLOAD DUP1 SWAP2 SUB SWAP1 REVERT JUMPDEST DUP1 PUSH1 0x5 DUP2 SWAP1 SSTORE POP POP JUMP JUMPDEST PUSH1 0x0 PUSH1 0x3 SLOAD SWAP1 POP SWAP1 JUMP JUMPDEST PUSH1 0x1 ISZERO ISZERO PUSH1 0x6 PUSH1 0x0 PUSH1 0x2 SLOAD DUP2 MSTORE PUSH1 0x20 ADD SWAP1 DUP2 MSTORE PUSH1 0x20 ADD PUSH1 0x0 KECCAK256 PUSH1 0x6 ADD PUSH1 0x0 SWAP1 SLOAD SWAP1 PUSH2 0x100 EXP SWAP1 DIV PUSH1 0xFF AND ISZERO ISZERO EQ PUSH2 0x40A JUMPI PUSH1 0x0 DUP1 REVERT JUMPDEST PUSH2 0x412 PUSH2 0xAFC JUMP JUMPDEST PUSH20 0xFFFFFFFFFFFFFFFFFFFFFFFFFFFFFFFFFFFFFFFF AND PUSH2 0x430 PUSH2 0xF43 JUMP JUMPDEST PUSH20 0xFFFFFFFFFFFFFFFFFFFFFFFFFFFFFFFFFFFFFFFF AND EQ DUP1 PUSH2 0x4BC JUMPI POP PUSH1 0x6 PUSH1 0x0 PUSH1 0x2 SLOAD DUP2 MSTORE PUSH1 0x20 ADD SWAP1 DUP2 MSTORE PUSH1 0x20 ADD PUSH1 0x0 KECCAK256 PUSH1 0x0 ADD PUSH1 0x0 SWAP1 SLOAD SWAP1 PUSH2 0x100 EXP SWAP1 DIV PUSH20 0xFFFFFFFFFFFFFFFFFFFFFFFFFFFFFFFFFFFFFFFF AND PUSH20 0xFFFFFFFFFFFFFFFFFFFFFFFFFFFFFFFFFFFFFFFF AND PUSH2 0x4A4 PUSH2 0xF43 JUMP JUMPDEST PUSH20 0xFFFFFFFFFFFFFFFFFFFFFFFFFFFFFFFFFFFFFFFF AND EQ JUMPDEST PUSH2 0x4FB JUMPI PUSH1 0x40 MLOAD PUSH32 0x8C379A000000000000000000000000000000000000000000000000000000000 DUP2 MSTORE PUSH1 0x4 ADD PUSH2 0x4F2 SWAP1 PUSH2 0x184F JUMP JUMPDEST PUSH1 0x40 MLOAD DUP1 SWAP2 SUB SWAP1 REVERT JUMPDEST PUSH1 0x0 PUSH1 0x6 PUSH1 0x0 PUSH1 0x2 SLOAD DUP2 MSTORE PUSH1 0x20 ADD SWAP1 DUP2 MSTORE PUSH1 0x20 ADD PUSH1 0x0 KECCAK256 PUSH1 0x40 MLOAD DUP1 PUSH1 0xE0 ADD PUSH1 0x40 MSTORE SWAP1 DUP2 PUSH1 0x0 DUP3 ADD PUSH1 0x0 SWAP1 SLOAD SWAP1 PUSH2 0x100 EXP SWAP1 DIV PUSH20 0xFFFFFFFFFFFFFFFFFFFFFFFFFFFFFFFFFFFFFFFF AND PUSH20 0xFFFFFFFFFFFFFFFFFFFFFFFFFFFFFFFFFFFFFFFF AND PUSH20 0xFFFFFFFFFFFFFFFFFFFFFFFFFFFFFFFFFFFFFFFF AND DUP2 MSTORE PUSH1 0x20 ADD PUSH1 0x1 DUP3 ADD SLOAD DUP2 MSTORE PUSH1 0x20 ADD PUSH1 0x2 DUP3 ADD SLOAD DUP2 MSTORE PUSH1 0x20 ADD PUSH1 0x3 DUP3 ADD SLOAD DUP2 MSTORE PUSH1 0x20 ADD PUSH1 0x4 DUP3 ADD SLOAD DUP2 MSTORE PUSH1 0x20 ADD PUSH1 0x5 DUP3 ADD SLOAD DUP2 MSTORE PUSH1 0x20 ADD PUSH1 0x6 DUP3 ADD PUSH1 0x0 SWAP1 SLOAD SWAP1 PUSH2 0x100 EXP SWAP1 DIV PUSH1 0xFF AND ISZERO ISZERO ISZERO ISZERO DUP2 MSTORE POP POP SWAP1 POP PUSH2 0x5D9 DUP3 DUP3 PUSH1 0xA0 ADD MLOAD PUSH2 0xF4B SWAP1 SWAP2 SWAP1 PUSH4 0xFFFFFFFF AND JUMP JUMPDEST DUP2 PUSH1 0xA0 ADD DUP2 DUP2 MSTORE POP POP PUSH1 0x1 PUSH1 0x0 SWAP1 SLOAD SWAP1 PUSH2 0x100 EXP SWAP1 DIV PUSH20 0xFFFFFFFFFFFFFFFFFFFFFFFFFFFFFFFFFFFFFFFF AND PUSH20 0xFFFFFFFFFFFFFFFFFFFFFFFFFFFFFFFFFFFFFFFF AND PUSH4 0xA9059CBB DUP3 PUSH1 0x0 ADD MLOAD DUP5 PUSH1 0x40 MLOAD DUP4 PUSH4 0xFFFFFFFF AND PUSH1 0xE0 SHL DUP2 MSTORE PUSH1 0x4 ADD PUSH2 0x643 SWAP3 SWAP2 SWAP1 PUSH2 0x1726 JUMP JUMPDEST PUSH1 0x20 PUSH1 0x40 MLOAD DUP1 DUP4 SUB DUP2 PUSH1 0x0 DUP8 DUP1 EXTCODESIZE ISZERO DUP1 ISZERO PUSH2 0x65D JUMPI PUSH1 0x0 DUP1 REVERT JUMPDEST POP GAS CALL ISZERO DUP1 ISZERO PUSH2 0x671 JUMPI RETURNDATASIZE PUSH1 0x0 DUP1 RETURNDATACOPY RETURNDATASIZE PUSH1 0x0 REVERT JUMPDEST POP POP POP POP PUSH1 0x40 MLOAD RETURNDATASIZE PUSH1 0x1F NOT PUSH1 0x1F DUP3 ADD AND DUP3 ADD DUP1 PUSH1 0x40 MSTORE POP DUP2 ADD SWAP1 PUSH2 0x695 SWAP2 SWAP1 PUSH2 0x11B4 JUMP JUMPDEST POP POP POP POP JUMP JUMPDEST PUSH2 0x6A3 PUSH2 0xF43 JUMP JUMPDEST PUSH20 0xFFFFFFFFFFFFFFFFFFFFFFFFFFFFFFFFFFFFFFFF AND PUSH2 0x6C1 PUSH2 0xAFC JUMP JUMPDEST PUSH20 0xFFFFFFFFFFFFFFFFFFFFFFFFFFFFFFFFFFFFFFFF AND EQ PUSH2 0x717 JUMPI PUSH1 0x40 MLOAD PUSH32 0x8C379A000000000000000000000000000000000000000000000000000000000 DUP2 MSTORE PUSH1 0x4 ADD PUSH2 0x70E SWAP1 PUSH2 0x182F JUMP JUMPDEST PUSH1 0x40 MLOAD DUP1 SWAP2 SUB SWAP1 REVERT JUMPDEST PUSH2 0x721 PUSH1 0x0 PUSH2 0xF61 JUMP JUMPDEST JUMP JUMPDEST PUSH1 0x0 PUSH1 0x4 SLOAD SWAP1 POP SWAP1 JUMP JUMPDEST PUSH2 0x735 PUSH2 0xF43 JUMP JUMPDEST PUSH20 0xFFFFFFFFFFFFFFFFFFFFFFFFFFFFFFFFFFFFFFFF AND PUSH2 0x753 PUSH2 0xAFC JUMP JUMPDEST PUSH20 0xFFFFFFFFFFFFFFFFFFFFFFFFFFFFFFFFFFFFFFFF AND EQ PUSH2 0x7A9 JUMPI PUSH1 0x40 MLOAD PUSH32 0x8C379A000000000000000000000000000000000000000000000000000000000 DUP2 MSTORE PUSH1 0x4 ADD PUSH2 0x7A0 SWAP1 PUSH2 0x182F JUMP JUMPDEST PUSH1 0x40 MLOAD DUP1 SWAP2 SUB SWAP1 REVERT JUMPDEST PUSH1 0x0 PUSH20 0xFFFFFFFFFFFFFFFFFFFFFFFFFFFFFFFFFFFFFFFF AND DUP6 PUSH20 0xFFFFFFFFFFFFFFFFFFFFFFFFFFFFFFFFFFFFFFFF AND EQ ISZERO PUSH2 0x819 JUMPI PUSH1 0x40 MLOAD PUSH32 0x8C379A000000000000000000000000000000000000000000000000000000000 DUP2 MSTORE PUSH1 0x4 ADD PUSH2 0x810 SWAP1 PUSH2 0x17CF JUMP JUMPDEST PUSH1 0x40 MLOAD DUP1 SWAP2 SUB SWAP1 REVERT JUMPDEST PUSH1 0x0 DUP4 GT PUSH2 0x85C JUMPI PUSH1 0x40 MLOAD PUSH32 0x8C379A000000000000000000000000000000000000000000000000000000000 DUP2 MSTORE PUSH1 0x4 ADD PUSH2 0x853 SWAP1 PUSH2 0x178F JUMP JUMPDEST PUSH1 0x40 MLOAD DUP1 SWAP2 SUB SWAP1 REVERT JUMPDEST PUSH1 0x0 DUP2 GT PUSH2 0x89F JUMPI PUSH1 0x40 MLOAD PUSH32 0x8C379A000000000000000000000000000000000000000000000000000000000 DUP2 MSTORE PUSH1 0x4 ADD PUSH2 0x896 SWAP1 PUSH2 0x180F JUMP JUMPDEST PUSH1 0x40 MLOAD DUP1 SWAP2 SUB SWAP1 REVERT JUMPDEST PUSH1 0x5 SLOAD PUSH1 0x7 PUSH1 0x0 DUP8 PUSH20 0xFFFFFFFFFFFFFFFFFFFFFFFFFFFFFFFFFFFFFFFF AND PUSH20 0xFFFFFFFFFFFFFFFFFFFFFFFFFFFFFFFFFFFFFFFF AND DUP2 MSTORE PUSH1 0x20 ADD SWAP1 DUP2 MSTORE PUSH1 0x20 ADD PUSH1 0x0 KECCAK256 DUP1 SLOAD SWAP1 POP LT PUSH2 0x925 JUMPI PUSH1 0x40 MLOAD PUSH32 0x8C379A000000000000000000000000000000000000000000000000000000000 DUP2 MSTORE PUSH1 0x4 ADD PUSH2 0x91C SWAP1 PUSH2 0x17AF JUMP JUMPDEST PUSH1 0x40 MLOAD DUP1 SWAP2 SUB SWAP1 REVERT JUMPDEST PUSH1 0x0 PUSH1 0x40 MLOAD DUP1 PUSH1 0xE0 ADD PUSH1 0x40 MSTORE DUP1 DUP8 PUSH20 0xFFFFFFFFFFFFFFFFFFFFFFFFFFFFFFFFFFFFFFFF AND DUP2 MSTORE PUSH1 0x20 ADD DUP7 DUP2 MSTORE PUSH1 0x20 ADD DUP6 DUP2 MSTORE PUSH1 0x20 ADD DUP5 DUP2 MSTORE PUSH1 0x20 ADD DUP4 DUP2 MSTORE PUSH1 0x20 ADD PUSH1 0x0 DUP2 MSTORE PUSH1 0x20 ADD PUSH1 0x1 ISZERO ISZERO DUP2 MSTORE POP SWAP1 POP PUSH2 0x982 DUP7 PUSH1 0x4 SLOAD PUSH2 0x1025 JUMP JUMPDEST PUSH1 0x2 DUP2 SWAP1 SSTORE POP PUSH1 0x7 PUSH1 0x0 DUP3 PUSH1 0x0 ADD MLOAD PUSH20 0xFFFFFFFFFFFFFFFFFFFFFFFFFFFFFFFFFFFFFFFF AND PUSH20 0xFFFFFFFFFFFFFFFFFFFFFFFFFFFFFFFFFFFFFFFF AND DUP2 MSTORE PUSH1 0x20 ADD SWAP1 DUP2 MSTORE PUSH1 0x20 ADD PUSH1 0x0 KECCAK256 PUSH1 0x2 SLOAD SWAP1 DUP1 PUSH1 0x1 DUP2 SLOAD ADD DUP1 DUP3 SSTORE DUP1 SWAP2 POP POP PUSH1 0x1 SWAP1 SUB SWAP1 PUSH1 0x0 MSTORE PUSH1 0x20 PUSH1 0x0 KECCAK256 ADD PUSH1 0x0 SWAP1 SWAP2 SWAP1 SWAP2 SWAP1 SWAP2 POP SSTORE DUP1 PUSH1 0x6 PUSH1 0x0 PUSH1 0x2 SLOAD DUP2 MSTORE PUSH1 0x20 ADD SWAP1 DUP2 MSTORE PUSH1 0x20 ADD PUSH1 0x0 KECCAK256 PUSH1 0x0 DUP3 ADD MLOAD DUP2 PUSH1 0x0 ADD PUSH1 0x0 PUSH2 0x100 EXP DUP2 SLOAD DUP2 PUSH20 0xFFFFFFFFFFFFFFFFFFFFFFFFFFFFFFFFFFFFFFFF MUL NOT AND SWAP1 DUP4 PUSH20 0xFFFFFFFFFFFFFFFFFFFFFFFFFFFFFFFFFFFFFFFF AND MUL OR SWAP1 SSTORE POP PUSH1 0x20 DUP3 ADD MLOAD DUP2 PUSH1 0x1 ADD SSTORE PUSH1 0x40 DUP3 ADD MLOAD DUP2 PUSH1 0x2 ADD SSTORE PUSH1 0x60 DUP3 ADD MLOAD DUP2 PUSH1 0x3 ADD SSTORE PUSH1 0x80 DUP3 ADD MLOAD DUP2 PUSH1 0x4 ADD SSTORE PUSH1 0xA0 DUP3 ADD MLOAD DUP2 PUSH1 0x5 ADD SSTORE PUSH1 0xC0 DUP3 ADD MLOAD DUP2 PUSH1 0x6 ADD PUSH1 0x0 PUSH2 0x100 EXP DUP2 SLOAD DUP2 PUSH1 0xFF MUL NOT AND SWAP1 DUP4 ISZERO ISZERO MUL OR SWAP1 SSTORE POP SWAP1 POP POP PUSH2 0xABC PUSH1 0x1 PUSH1 0x4 SLOAD PUSH2 0xF4B SWAP1 SWAP2 SWAP1 PUSH4 0xFFFFFFFF AND JUMP JUMPDEST POP PUSH32 0x3AC17A064E5F9F8A942A4E1B3D07157FA74128806FAB9B656A6B986182FFAD1 DUP2 PUSH1 0x40 MLOAD PUSH2 0xAEC SWAP2 SWAP1 PUSH2 0x186F JUMP JUMPDEST PUSH1 0x40 MLOAD DUP1 SWAP2 SUB SWAP1 LOG1 POP POP POP POP POP POP JUMP JUMPDEST PUSH1 0x0 DUP1 PUSH1 0x0 SWAP1 SLOAD SWAP1 PUSH2 0x100 EXP SWAP1 DIV PUSH20 0xFFFFFFFFFFFFFFFFFFFFFFFFFFFFFFFFFFFFFFFF AND SWAP1 POP SWAP1 JUMP JUMPDEST PUSH1 0x0 PUSH1 0x2 SLOAD DUP3 LT PUSH2 0xB6B JUMPI PUSH1 0x40 MLOAD PUSH32 0x8C379A000000000000000000000000000000000000000000000000000000000 DUP2 MSTORE PUSH1 0x4 ADD PUSH2 0xB62 SWAP1 PUSH2 0x174F JUMP JUMPDEST PUSH1 0x40 MLOAD DUP1 SWAP2 SUB SWAP1 REVERT JUMPDEST PUSH1 0x1 ISZERO ISZERO PUSH1 0x6 PUSH1 0x0 DUP5 DUP2 MSTORE PUSH1 0x20 ADD SWAP1 DUP2 MSTORE PUSH1 0x20 ADD PUSH1 0x0 KECCAK256 PUSH1 0x6 ADD PUSH1 0x0 SWAP1 SLOAD SWAP1 PUSH2 0x100 EXP SWAP1 DIV PUSH1 0xFF AND ISZERO ISZERO EQ PUSH2 0xBD5 JUMPI PUSH1 0x40 MLOAD PUSH32 0x8C379A000000000000000000000000000000000000000000000000000000000 DUP2 MSTORE PUSH1 0x4 ADD PUSH2 0xBCC SWAP1 PUSH2 0x17EF JUMP JUMPDEST PUSH1 0x40 MLOAD DUP1 SWAP2 SUB SWAP1 REVERT JUMPDEST PUSH1 0x0 PUSH1 0x6 PUSH1 0x0 DUP5 DUP2 MSTORE PUSH1 0x20 ADD SWAP1 DUP2 MSTORE PUSH1 0x20 ADD PUSH1 0x0 KECCAK256 PUSH1 0x40 MLOAD DUP1 PUSH1 0xE0 ADD PUSH1 0x40 MSTORE SWAP1 DUP2 PUSH1 0x0 DUP3 ADD PUSH1 0x0 SWAP1 SLOAD SWAP1 PUSH2 0x100 EXP SWAP1 DIV PUSH20 0xFFFFFFFFFFFFFFFFFFFFFFFFFFFFFFFFFFFFFFFF AND PUSH20 0xFFFFFFFFFFFFFFFFFFFFFFFFFFFFFFFFFFFFFFFF AND PUSH20 0xFFFFFFFFFFFFFFFFFFFFFFFFFFFFFFFFFFFFFFFF AND DUP2 MSTORE PUSH1 0x20 ADD PUSH1 0x1 DUP3 ADD SLOAD DUP2 MSTORE PUSH1 0x20 ADD PUSH1 0x2 DUP3 ADD SLOAD DUP2 MSTORE PUSH1 0x20 ADD PUSH1 0x3 DUP3 ADD SLOAD DUP2 MSTORE PUSH1 0x20 ADD PUSH1 0x4 DUP3 ADD SLOAD DUP2 MSTORE PUSH1 0x20 ADD PUSH1 0x5 DUP3 ADD SLOAD DUP2 MSTORE PUSH1 0x20 ADD PUSH1 0x6 DUP3 ADD PUSH1 0x0 SWAP1 SLOAD SWAP1 PUSH2 0x100 EXP SWAP1 DIV PUSH1 0xFF AND ISZERO ISZERO ISZERO ISZERO DUP2 MSTORE POP POP SWAP1 POP PUSH1 0x0 PUSH2 0xCB7 DUP3 PUSH1 0xA0 ADD MLOAD DUP4 PUSH1 0x80 ADD MLOAD PUSH2 0x106A SWAP1 SWAP2 SWAP1 PUSH4 0xFFFFFFFF AND JUMP JUMPDEST SWAP1 POP DUP1 SWAP3 POP POP POP SWAP2 SWAP1 POP JUMP JUMPDEST PUSH1 0x0 PUSH1 0x5 SLOAD SWAP1 POP SWAP1 JUMP JUMPDEST PUSH2 0xCD5 PUSH2 0x1080 JUMP JUMPDEST PUSH1 0x2 SLOAD DUP3 LT PUSH2 0xD19 JUMPI PUSH1 0x40 MLOAD PUSH32 0x8C379A000000000000000000000000000000000000000000000000000000000 DUP2 MSTORE PUSH1 0x4 ADD PUSH2 0xD10 SWAP1 PUSH2 0x174F JUMP JUMPDEST PUSH1 0x40 MLOAD DUP1 SWAP2 SUB SWAP1 REVERT JUMPDEST PUSH1 0x1 ISZERO ISZERO PUSH1 0x6 PUSH1 0x0 DUP5 DUP2 MSTORE PUSH1 0x20 ADD SWAP1 DUP2 MSTORE PUSH1 0x20 ADD PUSH1 0x0 KECCAK256 PUSH1 0x6 ADD PUSH1 0x0 SWAP1 SLOAD SWAP1 PUSH2 0x100 EXP SWAP1 DIV PUSH1 0xFF AND ISZERO ISZERO EQ PUSH2 0xD83 JUMPI PUSH1 0x40 MLOAD PUSH32 0x8C379A000000000000000000000000000000000000000000000000000000000 DUP2 MSTORE PUSH1 0x4 ADD PUSH2 0xD7A SWAP1 PUSH2 0x17EF JUMP JUMPDEST PUSH1 0x40 MLOAD DUP1 SWAP2 SUB SWAP1 REVERT JUMPDEST PUSH1 0x6 PUSH1 0x0 DUP4 DUP2 MSTORE PUSH1 0x20 ADD SWAP1 DUP2 MSTORE PUSH1 0x20 ADD PUSH1 0x0 KECCAK256 PUSH1 0x40 MLOAD DUP1 PUSH1 0xE0 ADD PUSH1 0x40 MSTORE SWAP1 DUP2 PUSH1 0x0 DUP3 ADD PUSH1 0x0 SWAP1 SLOAD SWAP1 PUSH2 0x100 EXP SWAP1 DIV PUSH20 0xFFFFFFFFFFFFFFFFFFFFFFFFFFFFFFFFFFFFFFFF AND PUSH20 0xFFFFFFFFFFFFFFFFFFFFFFFFFFFFFFFFFFFFFFFF AND PUSH20 0xFFFFFFFFFFFFFFFFFFFFFFFFFFFFFFFFFFFFFFFF AND DUP2 MSTORE PUSH1 0x20 ADD PUSH1 0x1 DUP3 ADD SLOAD DUP2 MSTORE PUSH1 0x20 ADD PUSH1 0x2 DUP3 ADD SLOAD DUP2 MSTORE PUSH1 0x20 ADD PUSH1 0x3 DUP3 ADD SLOAD DUP2 MSTORE PUSH1 0x20 ADD PUSH1 0x4 DUP3 ADD SLOAD DUP2 MSTORE PUSH1 0x20 ADD PUSH1 0x5 DUP3 ADD SLOAD DUP2 MSTORE PUSH1 0x20 ADD PUSH1 0x6 DUP3 ADD PUSH1 0x0 SWAP1 SLOAD SWAP1 PUSH2 0x100 EXP SWAP1 DIV PUSH1 0xFF AND ISZERO ISZERO ISZERO ISZERO DUP2 MSTORE POP POP SWAP1 POP SWAP2 SWAP1 POP JUMP JUMPDEST PUSH2 0xE53 PUSH2 0xF43 JUMP JUMPDEST PUSH20 0xFFFFFFFFFFFFFFFFFFFFFFFFFFFFFFFFFFFFFFFF AND PUSH2 0xE71 PUSH2 0xAFC JUMP JUMPDEST PUSH20 0xFFFFFFFFFFFFFFFFFFFFFFFFFFFFFFFFFFFFFFFF AND EQ PUSH2 0xEC7 JUMPI PUSH1 0x40 MLOAD PUSH32 0x8C379A000000000000000000000000000000000000000000000000000000000 DUP2 MSTORE PUSH1 0x4 ADD PUSH2 0xEBE SWAP1 PUSH2 0x182F JUMP JUMPDEST PUSH1 0x40 MLOAD DUP1 SWAP2 SUB SWAP1 REVERT JUMPDEST PUSH1 0x0 PUSH20 0xFFFFFFFFFFFFFFFFFFFFFFFFFFFFFFFFFFFFFFFF AND DUP2 PUSH20 0xFFFFFFFFFFFFFFFFFFFFFFFFFFFFFFFFFFFFFFFF AND EQ ISZERO PUSH2 0xF37 JUMPI PUSH1 0x40 MLOAD PUSH32 0x8C379A000000000000000000000000000000000000000000000000000000000 DUP2 MSTORE PUSH1 0x4 ADD PUSH2 0xF2E SWAP1 PUSH2 0x176F JUMP JUMPDEST PUSH1 0x40 MLOAD DUP1 SWAP2 SUB SWAP1 REVERT JUMPDEST PUSH2 0xF40 DUP2 PUSH2 0xF61 JUMP JUMPDEST POP JUMP JUMPDEST PUSH1 0x0 CALLER SWAP1 POP SWAP1 JUMP JUMPDEST PUSH1 0x0 DUP2 DUP4 PUSH2 0xF59 SWAP2 SWAP1 PUSH2 0x18B6 JUMP JUMPDEST SWAP1 POP SWAP3 SWAP2 POP POP JUMP JUMPDEST PUSH1 0x0 DUP1 PUSH1 0x0 SWAP1 SLOAD SWAP1 PUSH2 0x100 EXP SWAP1 DIV PUSH20 0xFFFFFFFFFFFFFFFFFFFFFFFFFFFFFFFFFFFFFFFF AND SWAP1 POP DUP2 PUSH1 0x0 DUP1 PUSH2 0x100 EXP DUP2 SLOAD DUP2 PUSH20 0xFFFFFFFFFFFFFFFFFFFFFFFFFFFFFFFFFFFFFFFF MUL NOT AND SWAP1 DUP4 PUSH20 0xFFFFFFFFFFFFFFFFFFFFFFFFFFFFFFFFFFFFFFFF AND MUL OR SWAP1 SSTORE POP DUP2 PUSH20 0xFFFFFFFFFFFFFFFFFFFFFFFFFFFFFFFFFFFFFFFF AND DUP2 PUSH20 0xFFFFFFFFFFFFFFFFFFFFFFFFFFFFFFFFFFFFFFFF AND PUSH32 0x8BE0079C531659141344CD1FD0A4F28419497F9722A3DAAFE3B4186F6B6457E0 PUSH1 0x40 MLOAD PUSH1 0x40 MLOAD DUP1 SWAP2 SUB SWAP1 LOG3 POP POP JUMP JUMPDEST PUSH1 0x0 PUSH4 0x3B9ACA00 DUP4 DUP4 PUSH1 0x40 MLOAD PUSH1 0x20 ADD PUSH2 0x103F SWAP3 SWAP2 SWAP1 PUSH2 0x16DF JUMP JUMPDEST PUSH1 0x40 MLOAD PUSH1 0x20 DUP2 DUP4 SUB SUB DUP2 MSTORE SWAP1 PUSH1 0x40 MSTORE DUP1 MLOAD SWAP1 PUSH1 0x20 ADD KECCAK256 PUSH1 0x0 SHR PUSH2 0x1062 SWAP2 SWAP1 PUSH2 0x19B6 JUMP JUMPDEST SWAP1 POP SWAP3 SWAP2 POP POP JUMP JUMPDEST PUSH1 0x0 DUP2 DUP4 PUSH2 0x1078 SWAP2 SWAP1 PUSH2 0x190C JUMP JUMPDEST SWAP1 POP SWAP3 SWAP2 POP POP JUMP JUMPDEST PUSH1 0x40 MLOAD DUP1 PUSH1 0xE0 ADD PUSH1 0x40 MSTORE DUP1 PUSH1 0x0 PUSH20 0xFFFFFFFFFFFFFFFFFFFFFFFFFFFFFFFFFFFFFFFF AND DUP2 MSTORE PUSH1 0x20 ADD PUSH1 0x0 DUP2 MSTORE PUSH1 0x20 ADD PUSH1 0x0 DUP2 MSTORE PUSH1 0x20 ADD PUSH1 0x0 DUP2 MSTORE PUSH1 0x20 ADD PUSH1 0x0 DUP2 MSTORE PUSH1 0x20 ADD PUSH1 0x0 DUP2 MSTORE PUSH1 0x20 ADD PUSH1 0x0 ISZERO ISZERO DUP2 MSTORE POP SWAP1 JUMP JUMPDEST PUSH1 0x0 DUP2 CALLDATALOAD SWAP1 POP PUSH2 0x10E4 DUP2 PUSH2 0x1A52 JUMP JUMPDEST SWAP3 SWAP2 POP POP JUMP JUMPDEST PUSH1 0x0 DUP2 MLOAD SWAP1 POP PUSH2 0x10F9 DUP2 PUSH2 0x1A69 JUMP JUMPDEST SWAP3 SWAP2 POP POP JUMP JUMPDEST PUSH1 0x0 DUP2 CALLDATALOAD SWAP1 POP PUSH2 0x110E DUP2 PUSH2 0x1A80 JUMP JUMPDEST SWAP3 SWAP2 POP POP JUMP JUMPDEST PUSH1 0x0 PUSH1 0x20 DUP3 DUP5 SUB SLT ISZERO PUSH2 0x1126 JUMPI PUSH1 0x0 DUP1 REVERT JUMPDEST PUSH1 0x0 PUSH2 0x1134 DUP5 DUP3 DUP6 ADD PUSH2 0x10D5 JUMP JUMPDEST SWAP2 POP POP SWAP3 SWAP2 POP POP JUMP JUMPDEST PUSH1 0x0 DUP1 PUSH1 0x0 DUP1 PUSH1 0x0 PUSH1 0xA0 DUP7 DUP9 SUB SLT ISZERO PUSH2 0x1155 JUMPI PUSH1 0x0 DUP1 REVERT JUMPDEST PUSH1 0x0 PUSH2 0x1163 DUP9 DUP3 DUP10 ADD PUSH2 0x10D5 JUMP JUMPDEST SWAP6 POP POP PUSH1 0x20 PUSH2 0x1174 DUP9 DUP3 DUP10 ADD PUSH2 0x10FF JUMP JUMPDEST SWAP5 POP POP PUSH1 0x40 PUSH2 0x1185 DUP9 DUP3 DUP10 ADD PUSH2 0x10FF JUMP JUMPDEST SWAP4 POP POP PUSH1 0x60 PUSH2 0x1196 DUP9 DUP3 DUP10 ADD PUSH2 0x10FF JUMP JUMPDEST SWAP3 POP POP PUSH1 0x80 PUSH2 0x11A7 DUP9 DUP3 DUP10 ADD PUSH2 0x10FF JUMP JUMPDEST SWAP2 POP POP SWAP3 SWAP6 POP SWAP3 SWAP6 SWAP1 SWAP4 POP JUMP JUMPDEST PUSH1 0x0 PUSH1 0x20 DUP3 DUP5 SUB SLT ISZERO PUSH2 0x11C6 JUMPI PUSH1 0x0 DUP1 REVERT JUMPDEST PUSH1 0x0 PUSH2 0x11D4 DUP5 DUP3 DUP6 ADD PUSH2 0x10EA JUMP JUMPDEST SWAP2 POP POP SWAP3 SWAP2 POP POP JUMP JUMPDEST PUSH1 0x0 PUSH1 0x20 DUP3 DUP5 SUB SLT ISZERO PUSH2 0x11EF JUMPI PUSH1 0x0 DUP1 REVERT JUMPDEST PUSH1 0x0 PUSH2 0x11FD DUP5 DUP3 DUP6 ADD PUSH2 0x10FF JUMP JUMPDEST SWAP2 POP POP SWAP3 SWAP2 POP POP JUMP JUMPDEST PUSH1 0x0 DUP1 PUSH1 0x40 DUP4 DUP6 SUB SLT ISZERO PUSH2 0x1219 JUMPI PUSH1 0x0 DUP1 REVERT JUMPDEST PUSH1 0x0 PUSH2 0x1227 DUP6 DUP3 DUP7 ADD PUSH2 0x10FF JUMP JUMPDEST SWAP3 POP POP PUSH1 0x20 PUSH2 0x1238 DUP6 DUP3 DUP7 ADD PUSH2 0x10FF JUMP JUMPDEST SWAP2 POP POP SWAP3 POP SWAP3 SWAP1 POP JUMP JUMPDEST PUSH2 0x124B DUP2 PUSH2 0x1940 JUMP JUMPDEST DUP3 MSTORE POP POP JUMP JUMPDEST PUSH2 0x125A DUP2 PUSH2 0x1940 JUMP JUMPDEST DUP3 MSTORE POP POP JUMP JUMPDEST PUSH2 0x1271 PUSH2 0x126C DUP3 PUSH2 0x1940 JUMP JUMPDEST PUSH2 0x1988 JUMP JUMPDEST DUP3 MSTORE POP POP JUMP JUMPDEST PUSH2 0x1280 DUP2 PUSH2 0x1952 JUMP JUMPDEST DUP3 MSTORE POP POP JUMP JUMPDEST PUSH1 0x0 PUSH2 0x1293 PUSH1 0x25 DUP4 PUSH2 0x18A5 JUMP JUMPDEST SWAP2 POP PUSH32 0x546F6B656E56657374696E673A20536368656D65204964206F7574206F662062 PUSH1 0x0 DUP4 ADD MSTORE PUSH32 0x6F756E6473000000000000000000000000000000000000000000000000000000 PUSH1 0x20 DUP4 ADD MSTORE PUSH1 0x40 DUP3 ADD SWAP1 POP SWAP2 SWAP1 POP JUMP JUMPDEST PUSH1 0x0 PUSH2 0x12F9 PUSH1 0x26 DUP4 PUSH2 0x18A5 JUMP JUMPDEST SWAP2 POP PUSH32 0x4F776E61626C653A206E6577206F776E657220697320746865207A65726F2061 PUSH1 0x0 DUP4 ADD MSTORE PUSH32 0x6464726573730000000000000000000000000000000000000000000000000000 PUSH1 0x20 DUP4 ADD MSTORE PUSH1 0x40 DUP3 ADD SWAP1 POP SWAP2 SWAP1 POP JUMP JUMPDEST PUSH1 0x0 PUSH2 0x135F PUSH1 0x36 DUP4 PUSH2 0x18A5 JUMP JUMPDEST SWAP2 POP PUSH32 0x546F6B656E56657374696E673A2056657374696E6720706572696F64206D7573 PUSH1 0x0 DUP4 ADD MSTORE PUSH32 0x742062652067726561746572207468616E207A65726F00000000000000000000 PUSH1 0x20 DUP4 ADD MSTORE PUSH1 0x40 DUP3 ADD SWAP1 POP SWAP2 SWAP1 POP JUMP JUMPDEST PUSH1 0x0 PUSH2 0x13C5 PUSH1 0x42 DUP4 PUSH2 0x18A5 JUMP JUMPDEST SWAP2 POP PUSH32 0x546F6B656E56657374696E673A20536368656D6520636F756E7420666F722074 PUSH1 0x0 DUP4 ADD MSTORE PUSH32 0x6869732062656E6566696369617279206861732072656163686564206C696D69 PUSH1 0x20 DUP4 ADD MSTORE PUSH32 0x742E000000000000000000000000000000000000000000000000000000000000 PUSH1 0x40 DUP4 ADD MSTORE PUSH1 0x60 DUP3 ADD SWAP1 POP SWAP2 SWAP1 POP JUMP JUMPDEST PUSH1 0x0 PUSH2 0x1451 PUSH1 0x34 DUP4 PUSH2 0x18A5 JUMP JUMPDEST SWAP2 POP PUSH32 0x546F6B656E56657374696E673A2043616E6E6F7420616464207A65726F206164 PUSH1 0x0 DUP4 ADD MSTORE PUSH32 0x64726573732061732062656E6566696369617279000000000000000000000000 PUSH1 0x20 DUP4 ADD MSTORE PUSH1 0x40 DUP3 ADD SWAP1 POP SWAP2 SWAP1 POP JUMP JUMPDEST PUSH1 0x0 PUSH2 0x14B7 PUSH1 0x40 DUP4 PUSH2 0x18A5 JUMP JUMPDEST SWAP2 POP PUSH32 0x546F6B656E56657374696E673A2056657374696E6720536368656D6520697320 PUSH1 0x0 DUP4 ADD MSTORE PUSH32 0x6569746865722064656C65746564206F7220646F6573206E6F74206578697374 PUSH1 0x20 DUP4 ADD MSTORE PUSH1 0x40 DUP3 ADD SWAP1 POP SWAP2 SWAP1 POP JUMP JUMPDEST PUSH1 0x0 PUSH2 0x151D PUSH1 0x34 DUP4 PUSH2 0x18A5 JUMP JUMPDEST SWAP2 POP PUSH32 0x546F6B656E56657374696E673A205665737461626C6520616D6F756E74206D75 PUSH1 0x0 DUP4 ADD MSTORE PUSH32 0x73742062652067726561746572207468616E2030000000000000000000000000 PUSH1 0x20 DUP4 ADD MSTORE PUSH1 0x40 DUP3 ADD SWAP1 POP SWAP2 SWAP1 POP JUMP JUMPDEST PUSH1 0x0 PUSH2 0x1583 PUSH1 0x20 DUP4 PUSH2 0x18A5 JUMP JUMPDEST SWAP2 POP PUSH32 0x4F776E61626C653A2063616C6C6572206973206E6F7420746865206F776E6572 PUSH1 0x0 DUP4 ADD MSTORE PUSH1 0x20 DUP3 ADD SWAP1 POP SWAP2 SWAP1 POP JUMP JUMPDEST PUSH1 0x0 PUSH2 0x15C3 PUSH1 0x31 DUP4 PUSH2 0x18A5 JUMP JUMPDEST SWAP2 POP PUSH32 0x546F6B656E56657374696E673A2043616C6C6572206D757374206265206F776E PUSH1 0x0 DUP4 ADD MSTORE PUSH32 0x6572206F722062656E6566696369617279000000000000000000000000000000 PUSH1 0x20 DUP4 ADD MSTORE PUSH1 0x40 DUP3 ADD SWAP1 POP SWAP2 SWAP1 POP JUMP JUMPDEST PUSH1 0xE0 DUP3 ADD PUSH1 0x0 DUP3 ADD MLOAD PUSH2 0x1632 PUSH1 0x0 DUP6 ADD DUP3 PUSH2 0x1242 JUMP JUMPDEST POP PUSH1 0x20 DUP3 ADD MLOAD PUSH2 0x1645 PUSH1 0x20 DUP6 ADD DUP3 PUSH2 0x16AA JUMP JUMPDEST POP PUSH1 0x40 DUP3 ADD MLOAD PUSH2 0x1658 PUSH1 0x40 DUP6 ADD DUP3 PUSH2 0x16AA JUMP JUMPDEST POP PUSH1 0x60 DUP3 ADD MLOAD PUSH2 0x166B PUSH1 0x60 DUP6 ADD DUP3 PUSH2 0x16AA JUMP JUMPDEST POP PUSH1 0x80 DUP3 ADD MLOAD PUSH2 0x167E PUSH1 0x80 DUP6 ADD DUP3 PUSH2 0x16AA JUMP JUMPDEST POP PUSH1 0xA0 DUP3 ADD MLOAD PUSH2 0x1691 PUSH1 0xA0 DUP6 ADD DUP3 PUSH2 0x16AA JUMP JUMPDEST POP PUSH1 0xC0 DUP3 ADD MLOAD PUSH2 0x16A4 PUSH1 0xC0 DUP6 ADD DUP3 PUSH2 0x1277 JUMP JUMPDEST POP POP POP POP JUMP JUMPDEST PUSH2 0x16B3 DUP2 PUSH2 0x197E JUMP JUMPDEST DUP3 MSTORE POP POP JUMP JUMPDEST PUSH2 0x16C2 DUP2 PUSH2 0x197E JUMP JUMPDEST DUP3 MSTORE POP POP JUMP JUMPDEST PUSH2 0x16D9 PUSH2 0x16D4 DUP3 PUSH2 0x197E JUMP JUMPDEST PUSH2 0x19AC JUMP JUMPDEST DUP3 MSTORE POP POP JUMP JUMPDEST PUSH1 0x0 PUSH2 0x16EB DUP3 DUP6 PUSH2 0x1260 JUMP JUMPDEST PUSH1 0x14 DUP3 ADD SWAP2 POP PUSH2 0x16FB DUP3 DUP5 PUSH2 0x16C8 JUMP JUMPDEST PUSH1 0x20 DUP3 ADD SWAP2 POP DUP2 SWAP1 POP SWAP4 SWAP3 POP POP POP JUMP JUMPDEST PUSH1 0x0 PUSH1 0x20 DUP3 ADD SWAP1 POP PUSH2 0x1720 PUSH1 0x0 DUP4 ADD DUP5 PUSH2 0x1251 JUMP JUMPDEST SWAP3 SWAP2 POP POP JUMP JUMPDEST PUSH1 0x0 PUSH1 0x40 DUP3 ADD SWAP1 POP PUSH2 0x173B PUSH1 0x0 DUP4 ADD DUP6 PUSH2 0x1251 JUMP JUMPDEST PUSH2 0x1748 PUSH1 0x20 DUP4 ADD DUP5 PUSH2 0x16B9 JUMP JUMPDEST SWAP4 SWAP3 POP POP POP JUMP JUMPDEST PUSH1 0x0 PUSH1 0x20 DUP3 ADD SWAP1 POP DUP2 DUP2 SUB PUSH1 0x0 DUP4 ADD MSTORE PUSH2 0x1768 DUP2 PUSH2 0x1286 JUMP JUMPDEST SWAP1 POP SWAP2 SWAP1 POP JUMP JUMPDEST PUSH1 0x0 PUSH1 0x20 DUP3 ADD SWAP1 POP DUP2 DUP2 SUB PUSH1 0x0 DUP4 ADD MSTORE PUSH2 0x1788 DUP2 PUSH2 0x12EC JUMP JUMPDEST SWAP1 POP SWAP2 SWAP1 POP JUMP JUMPDEST PUSH1 0x0 PUSH1 0x20 DUP3 ADD SWAP1 POP DUP2 DUP2 SUB PUSH1 0x0 DUP4 ADD MSTORE PUSH2 0x17A8 DUP2 PUSH2 0x1352 JUMP JUMPDEST SWAP1 POP SWAP2 SWAP1 POP JUMP JUMPDEST PUSH1 0x0 PUSH1 0x20 DUP3 ADD SWAP1 POP DUP2 DUP2 SUB PUSH1 0x0 DUP4 ADD MSTORE PUSH2 0x17C8 DUP2 PUSH2 0x13B8 JUMP JUMPDEST SWAP1 POP SWAP2 SWAP1 POP JUMP JUMPDEST PUSH1 0x0 PUSH1 0x20 DUP3 ADD SWAP1 POP DUP2 DUP2 SUB PUSH1 0x0 DUP4 ADD MSTORE PUSH2 0x17E8 DUP2 PUSH2 0x1444 JUMP JUMPDEST SWAP1 POP SWAP2 SWAP1 POP JUMP JUMPDEST PUSH1 0x0 PUSH1 0x20 DUP3 ADD SWAP1 POP DUP2 DUP2 SUB PUSH1 0x0 DUP4 ADD MSTORE PUSH2 0x1808 DUP2 PUSH2 0x14AA JUMP JUMPDEST SWAP1 POP SWAP2 SWAP1 POP JUMP JUMPDEST PUSH1 0x0 PUSH1 0x20 DUP3 ADD SWAP1 POP DUP2 DUP2 SUB PUSH1 0x0 DUP4 ADD MSTORE PUSH2 0x1828 DUP2 PUSH2 0x1510 JUMP JUMPDEST SWAP1 POP SWAP2 SWAP1 POP JUMP JUMPDEST PUSH1 0x0 PUSH1 0x20 DUP3 ADD SWAP1 POP DUP2 DUP2 SUB PUSH1 0x0 DUP4 ADD MSTORE PUSH2 0x1848 DUP2 PUSH2 0x1576 JUMP JUMPDEST SWAP1 POP SWAP2 SWAP1 POP JUMP JUMPDEST PUSH1 0x0 PUSH1 0x20 DUP3 ADD SWAP1 POP DUP2 DUP2 SUB PUSH1 0x0 DUP4 ADD MSTORE PUSH2 0x1868 DUP2 PUSH2 0x15B6 JUMP JUMPDEST SWAP1 POP SWAP2 SWAP1 POP JUMP JUMPDEST PUSH1 0x0 PUSH1 0xE0 DUP3 ADD SWAP1 POP PUSH2 0x1884 PUSH1 0x0 DUP4 ADD DUP5 PUSH2 0x161C JUMP JUMPDEST SWAP3 SWAP2 POP POP JUMP JUMPDEST PUSH1 0x0 PUSH1 0x20 DUP3 ADD SWAP1 POP PUSH2 0x189F PUSH1 0x0 DUP4 ADD DUP5 PUSH2 0x16B9 JUMP JUMPDEST SWAP3 SWAP2 POP POP JUMP JUMPDEST PUSH1 0x0 DUP3 DUP3 MSTORE PUSH1 0x20 DUP3 ADD SWAP1 POP SWAP3 SWAP2 POP POP JUMP JUMPDEST PUSH1 0x0 PUSH2 0x18C1 DUP3 PUSH2 0x197E JUMP JUMPDEST SWAP2 POP PUSH2 0x18CC DUP4 PUSH2 0x197E JUMP JUMPDEST SWAP3 POP DUP3 PUSH32 0xFFFFFFFFFFFFFFFFFFFFFFFFFFFFFFFFFFFFFFFFFFFFFFFFFFFFFFFFFFFFFFFF SUB DUP3 GT ISZERO PUSH2 0x1901 JUMPI PUSH2 0x1900 PUSH2 0x19E7 JUMP JUMPDEST JUMPDEST DUP3 DUP3 ADD SWAP1 POP SWAP3 SWAP2 POP POP JUMP JUMPDEST PUSH1 0x0 PUSH2 0x1917 DUP3 PUSH2 0x197E JUMP JUMPDEST SWAP2 POP PUSH2 0x1922 DUP4 PUSH2 0x197E JUMP JUMPDEST SWAP3 POP DUP3 DUP3 LT ISZERO PUSH2 0x1935 JUMPI PUSH2 0x1934 PUSH2 0x19E7 JUMP JUMPDEST JUMPDEST DUP3 DUP3 SUB SWAP1 POP SWAP3 SWAP2 POP POP JUMP JUMPDEST PUSH1 0x0 PUSH2 0x194B DUP3 PUSH2 0x195E JUMP JUMPDEST SWAP1 POP SWAP2 SWAP1 POP JUMP JUMPDEST PUSH1 0x0 DUP2 ISZERO ISZERO SWAP1 POP SWAP2 SWAP1 POP JUMP JUMPDEST PUSH1 0x0 PUSH20 0xFFFFFFFFFFFFFFFFFFFFFFFFFFFFFFFFFFFFFFFF DUP3 AND SWAP1 POP SWAP2 SWAP1 POP JUMP JUMPDEST PUSH1 0x0 DUP2 SWAP1 POP SWAP2 SWAP1 POP JUMP JUMPDEST PUSH1 0x0 PUSH2 0x1993 DUP3 PUSH2 0x199A JUMP JUMPDEST SWAP1 POP SWAP2 SWAP1 POP JUMP JUMPDEST PUSH1 0x0 PUSH2 0x19A5 DUP3 PUSH2 0x1A45 JUMP JUMPDEST SWAP1 POP SWAP2 SWAP1 POP JUMP JUMPDEST PUSH1 0x0 DUP2 SWAP1 POP SWAP2 SWAP1 POP JUMP JUMPDEST PUSH1 0x0 PUSH2 0x19C1 DUP3 PUSH2 0x197E JUMP JUMPDEST SWAP2 POP PUSH2 0x19CC DUP4 PUSH2 0x197E JUMP JUMPDEST SWAP3 POP DUP3 PUSH2 0x19DC JUMPI PUSH2 0x19DB PUSH2 0x1A16 JUMP JUMPDEST JUMPDEST DUP3 DUP3 MOD SWAP1 POP SWAP3 SWAP2 POP POP JUMP JUMPDEST PUSH32 0x4E487B7100000000000000000000000000000000000000000000000000000000 PUSH1 0x0 MSTORE PUSH1 0x11 PUSH1 0x4 MSTORE PUSH1 0x24 PUSH1 0x0 REVERT JUMPDEST PUSH32 0x4E487B7100000000000000000000000000000000000000000000000000000000 PUSH1 0x0 MSTORE PUSH1 0x12 PUSH1 0x4 MSTORE PUSH1 0x24 PUSH1 0x0 REVERT JUMPDEST PUSH1 0x0 DUP2 PUSH1 0x60 SHL SWAP1 POP SWAP2 SWAP1 POP JUMP JUMPDEST PUSH2 0x1A5B DUP2 PUSH2 0x1940 JUMP JUMPDEST DUP2 EQ PUSH2 0x1A66 JUMPI PUSH1 0x0 DUP1 REVERT JUMPDEST POP JUMP JUMPDEST PUSH2 0x1A72 DUP2 PUSH2 0x1952 JUMP JUMPDEST DUP2 EQ PUSH2 0x1A7D JUMPI PUSH1 0x0 DUP1 REVERT JUMPDEST POP JUMP JUMPDEST PUSH2 0x1A89 DUP2 PUSH2 0x197E JUMP JUMPDEST DUP2 EQ PUSH2 0x1A94 JUMPI PUSH1 0x0 DUP1 REVERT JUMPDEST POP JUMP INVALID LOG2 PUSH5 0x6970667358 0x22 SLT KECCAK256 PUSH2 0xFB9F 0xFC 0x5C SAR SMOD 0xD2 POP PUSH10 0x1E9E4DC602176BF1B228 SWAP7 MSTORE8 0x4A 0xA7 REVERT PUSH1 0x39 0x29 0xD5 SELFBALANCE SHR 0x22 PUSH5 0x736F6C6343 STOP ADDMOD STOP STOP CALLER "
				},
				"gasEstimates": {
					"creation": {
						"codeDepositCost": "1372200",
						"executionCost": "infinite",
						"totalCost": "infinite"
					},
					"external": {
						"": "218",
						"createVestingScheme(address,uint256,uint256,uint256,uint256)": "infinite",
						"getBeneficiarySchemeCountLimit()": "1203",
						"getSchemeCount()": "1248",
						"getSchemeCountLimit()": "1182",
						"getUnvestedAmountById(uint256)": "infinite",
						"getVestingSchemeById(uint256)": "infinite",
						"owner()": "1244",
						"releaseTokens(uint256,uint256)": "infinite",
						"renounceOwnership()": "24463",
						"setBeneficiarySchemeCountLimit(uint256)": "21383",
						"setSchemeCountLimit(uint256)": "21361",
						"transferOwnership(address)": "24833"
					},
					"internal": {
						"_calculateNewSchemeId(address,uint256)": "infinite",
						"_now()": "infinite"
					}
				},
				"methodIdentifiers": {
					"createVestingScheme(address,uint256,uint256,uint256,uint256)": "8446464e",
					"getBeneficiarySchemeCountLimit()": "c93a7f6e",
					"getSchemeCount()": "78651b42",
					"getSchemeCountLimit()": "1a360f35",
					"getUnvestedAmountById(uint256)": "9c42ad76",
					"getVestingSchemeById(uint256)": "decb4abc",
					"owner()": "8da5cb5b",
					"releaseTokens(uint256,uint256)": "3f4dd268",
					"renounceOwnership()": "715018a6",
					"setBeneficiarySchemeCountLimit(uint256)": "11e1512d",
					"setSchemeCountLimit(uint256)": "110809c7",
					"transferOwnership(address)": "f2fde38b"
				}
			},
			"storageLayout": {
				"storage": [
					{
						"astId": 442,
						"contract": "contract/tokenvesting.sol:TokenVesting",
						"label": "_owner",
						"offset": 0,
						"slot": "0",
						"type": "t_address"
					},
					{
						"astId": 43,
						"contract": "contract/tokenvesting.sol:TokenVesting",
						"label": "token",
						"offset": 0,
						"slot": "1",
						"type": "t_contract(IERC20)1203"
					},
					{
						"astId": 60,
						"contract": "contract/tokenvesting.sol:TokenVesting",
						"label": "schemeId",
						"offset": 0,
						"slot": "2",
						"type": "t_uint256"
					},
					{
						"astId": 62,
						"contract": "contract/tokenvesting.sol:TokenVesting",
						"label": "schemeCountLimit",
						"offset": 0,
						"slot": "3",
						"type": "t_uint256"
					},
					{
						"astId": 64,
						"contract": "contract/tokenvesting.sol:TokenVesting",
						"label": "schemeCount",
						"offset": 0,
						"slot": "4",
						"type": "t_uint256"
					},
					{
						"astId": 66,
						"contract": "contract/tokenvesting.sol:TokenVesting",
						"label": "beneficiarySchemeCountLimit",
						"offset": 0,
						"slot": "5",
						"type": "t_uint256"
					},
					{
						"astId": 71,
						"contract": "contract/tokenvesting.sol:TokenVesting",
						"label": "schemes",
						"offset": 0,
						"slot": "6",
						"type": "t_mapping(t_uint256,t_struct(vestingScheme)58_storage)"
					},
					{
						"astId": 76,
						"contract": "contract/tokenvesting.sol:TokenVesting",
						"label": "beneficiarySchemeIds",
						"offset": 0,
						"slot": "7",
						"type": "t_mapping(t_address,t_array(t_uint256)dyn_storage)"
					}
				],
				"types": {
					"t_address": {
						"encoding": "inplace",
						"label": "address",
						"numberOfBytes": "20"
					},
					"t_array(t_uint256)dyn_storage": {
						"base": "t_uint256",
						"encoding": "dynamic_array",
						"label": "uint256[]",
						"numberOfBytes": "32"
					},
					"t_bool": {
						"encoding": "inplace",
						"label": "bool",
						"numberOfBytes": "1"
					},
					"t_contract(IERC20)1203": {
						"encoding": "inplace",
						"label": "contract IERC20",
						"numberOfBytes": "20"
					},
					"t_mapping(t_address,t_array(t_uint256)dyn_storage)": {
						"encoding": "mapping",
						"key": "t_address",
						"label": "mapping(address => uint256[])",
						"numberOfBytes": "32",
						"value": "t_array(t_uint256)dyn_storage"
					},
					"t_mapping(t_uint256,t_struct(vestingScheme)58_storage)": {
						"encoding": "mapping",
						"key": "t_uint256",
						"label": "mapping(uint256 => struct TokenVesting.vestingScheme)",
						"numberOfBytes": "32",
						"value": "t_struct(vestingScheme)58_storage"
					},
					"t_struct(vestingScheme)58_storage": {
						"encoding": "inplace",
						"label": "struct TokenVesting.vestingScheme",
						"members": [
							{
								"astId": 45,
								"contract": "contract/tokenvesting.sol:TokenVesting",
								"label": "beneficiary",
								"offset": 0,
								"slot": "0",
								"type": "t_address"
							},
							{
								"astId": 47,
								"contract": "contract/tokenvesting.sol:TokenVesting",
								"label": "startTime",
								"offset": 0,
								"slot": "1",
								"type": "t_uint256"
							},
							{
								"astId": 49,
								"contract": "contract/tokenvesting.sol:TokenVesting",
								"label": "duration",
								"offset": 0,
								"slot": "2",
								"type": "t_uint256"
							},
							{
								"astId": 51,
								"contract": "contract/tokenvesting.sol:TokenVesting",
								"label": "releaseSchedule",
								"offset": 0,
								"slot": "3",
								"type": "t_uint256"
							},
							{
								"astId": 53,
								"contract": "contract/tokenvesting.sol:TokenVesting",
								"label": "amount",
								"offset": 0,
								"slot": "4",
								"type": "t_uint256"
							},
							{
								"astId": 55,
								"contract": "contract/tokenvesting.sol:TokenVesting",
								"label": "tokensReleased",
								"offset": 0,
								"slot": "5",
								"type": "t_uint256"
							},
							{
								"astId": 57,
								"contract": "contract/tokenvesting.sol:TokenVesting",
								"label": "isValid",
								"offset": 0,
								"slot": "6",
								"type": "t_bool"
							}
						],
						"numberOfBytes": "224"
					},
					"t_uint256": {
						"encoding": "inplace",
						"label": "uint256",
						"numberOfBytes": "32"
					}
				}
			},
			"userdoc": {
				"kind": "user",
				"methods": {},
				"version": 1
			}
		}
	}
}